:020000040800F2
:10000000109000204D0100083F1B00084108000827
:100010003D1B0008290300084520000800000000DF
:10002000000000000000000000000000A91C000803
:100030001506000800000000C9020008F51D0008B0
:1000400067010008670100086701000867010008F0
:1000500067010008670100086701000867010008E0
:1000600067010008670100086701000867010008D0
:1000700067010008670100086701000867010008C0
:1000800067010008670100086701000867010008B0
:1000900067010008670100086701000867010008A0
:1000A0006701000867010008670100086701000890
:1000B0006701000867010008670100086701000880
:1000C0006701000867010008670100086701000870
:1000D0006701000867010008670100086701000860
:1000E0006701000867010008670100086701000850
:1000F0006701000867010008670100086701000840
:10010000670100086701000867010008670100082F
:10011000670100086701000867010008670100081F
:10012000670100086701000867010008670100080F
:10013000DFF80CD000F07AF80048004735260008B8
:1001400000060020EFF30580704700000648804756
:1001500006480047FEE7FEE7FEE7FEE7FEE7FEE7AC
:10016000FEE7FEE7FEE7FEE71D1E0008310100087E
:10017000124C134D256013484FF0010101604FF000
:10018000020080F31488104842680F4802600E4B4A
:10019000186887884FF0100847EA08078780D0F86A
:1001A00000C00CF1240CBCE8FF008CF30988AE46BB
:1001B00087F3038862B6304700BF000020ED00E0FF
:1001C0000000F0F09406002098060020D2B201E072
:1001D00000F8012B491EFBD270470022F6E710B54C
:1001E00013460A4604461946FFF7F0FF204610BDA5
:1001F000421C10F8011B0029FBD1801A704730B552
:100200000B46014600202022012409E021FA02F5D4
:100210009D4205D303FA02F5491B04FA02F528446E
:10022000151EA2F10102F1DC30BD0000064C074DA5
:1002300006E0E06840F0010394E8070098471034B6
:10024000AC42F6D3FFF778FFB03B0008E03B000874
:1002500070B58C1810F8015B15F0070301D110F888
:10026000013B2A1106D110F8012B03E010F8016BB5
:1002700001F8016B5B1EF9D12B0705D40023521E38
:100280000DD401F8013BFAE710F8013BCB1A921CA0
:1002900003E013F8015B01F8015B521EF9D5A1429E
:1002A000D8D3002070BD0000EFF3108072B6704705
:1002B000EFF3108062B6704780F3108870471748DC
:1002C0004FF0805101607047EFF3108C72B6144A02
:1002D00012681AB100B590475DF804EBEFF309809E
:1002E00020E9F01F0F4D2E683060B7884FF01008DE
:1002F00027EA0807B7800B484068286087884FF0D6
:10030000100847EA080787800168B1E8F01F81F309
:1003100009888CF31088704700BF000004ED00E0EE
:100320007C06002098060020FEE7000038B5002477
:100330004FF6FF730AA24FF48C710A20009400F06C
:10034000D9FA4FF6FF730CA24FF496710A2000946D
:1003500000F0D0FABDE838400B4801F0E9BC0000DD
:100360005365727665723A203232302E3139362E2C
:1003700034322E313535000020506F7274203A200F
:1003800038303836000000002206002008B5012170
:10039000402001F0E3FB4020ADF8000010208DF874
:1003A000030003208DF802006946024800F0DAF9E4
:1003B00008BD00000018014010B5FFF7E7FFBDE8D9
:1003C00010404021014800F033BA000000180140FD
:1003D00008B54020ADF8000048208DF803006946BC
:1003E000014800F0BFF908BD0018014008B54020E1
:1003F000ADF8000010208DF8030003208DF80200F6
:100400006946024800F0AEF908BD0000001801403E
:100410002DE9F04100250024144F012640213846E3
:1004200000F0FDF90028F9D0282000F00AF9402159
:10043000384600F0F4F901280BD0C4F1070006FAA1
:1004400000F08543601CC4B2082CE7D32846BDE801
:10045000F0814021384600F0E2F90128F9D0C4F1DA
:10046000070006FA00F0C0B20543EBE700180140B0
:1004700070B50446FFF7BAFF234D4021284600F02F
:10048000D5F9122000F0D1F84021284600F0D0F92B
:100490001E2000F0D6F8FFF79BFF4021284600F011
:1004A000BEF908B1002070BD4021284600F0B7F920
:1004B0000028F9D04021284600F0B1F90128F9D0F0
:1004C000FFF7A6FF2070FFF7A3FF6070FFF7A0FF04
:1004D000A070FFF79DFFE070FFF79AFF2071FFF714
:1004E00085FF4021284600F0A3F920786178E27862
:1004F0000844A178114408442179884201D101209F
:1005000070BD002070BD00000018014070B598B0AB
:10051000FFF70CFF42F6E06001F074FAFFF706FF08
:1005200042F2107001F06EFAFFF700FF4FF4FA503C
:1005300001F068FA00242A4D1F262948FFF798FF8A
:1005400001280CD027A001F09DFD40F6B83001F045
:1005500059FA0028F1D000F07FF818B070BD15945A
:10056000169417941294139414940294039404947C
:10057000059406940794089409940A940B940C9497
:100580000D940E940F9410941194EB78AA7819A1FD
:1005900015A801F087FD6B782A7818A112A801F040
:1005A00081FD6878297800910190EB78AA7816A1EE
:1005B00002A801F077FD4FF6FF7315AAF021A020E5
:1005C000009600F097F94FF6FF7312AA4FF482716C
:1005D0008C20009600F08EF902A801F067FBB4E7CA
:1005E000180600204448543131204552524F5221C0
:1005F0000D0A000025642E256420430025642E2565
:10060000642025255248000025642E25642C25648D
:100610002E256400704701B402E00098401E00904F
:1006200000980028F9D101B07047411E8AB207D363
:1006300042F6E060401E80B2FCD2511E8AB2F7D270
:100640007047411E8AB206D30A20401E80B2FCD2F7
:10065000511E8AB2F8D2704710B5044801F068FB09
:10066000BDE81040024801F063BB000059060020BD
:100670004C0600208000A0F1C040002904D0016891
:1006800041F00101016070470168024A11400160B8
:1006900070470000FEFF0F00826841680369114344
:1006A000C2681A4311434269114382691143C26906
:1006B0001143026A1143426A1143826A1143C26ABA
:1006C0001143026B114302689200A2F1C042116013
:1006D0008168082907D101688900A1F1C0410A6831
:1006E00042F040020A60416B4B680A68B1F80CC0E6
:1006F00042EA03128B681B0243EA0C431A430B8A3B
:1007000042EA03520B7D896942EA0362114302689F
:10071000521C9200A2F1C0421160C16AB1F5804F33
:1007200008D000686FF070418000A0F1C040C0F8B0
:1007300004117047816B00684B680A68B1F810C0FB
:1007400042EA03128B681B0243EA0C531A430B7DE7
:10075000896942EA036211438000A0F1C040C0F8F9
:10076000041170472DE9F001002291F803C00CF04C
:100770000F031CF0100F03D091F802C04CEA0303E2
:1007800091F800C04FF00F071CF0FF0F4FF001066B
:100790001ED0046806FA02FC0D8805EA0C056545C2
:1007A00012D1950007FA05F824EA080403FA05F5C2
:1007B0002C43CD78282D02D0482D03D004E0C0F87A
:1007C00014C001E0C0F810C0521C082AE2D3046033
:1007D0000A88FF2A20D94468002202F1080C06FA90
:1007E0000CFC0D8805EA0C05654511D1950007FA4A
:1007F00005F824EA080403FA05F52C43CD78282DE2
:1008000001D1C0F814C0CD78482D01D1C0F810C076
:10081000521C082AE1D34460BDE8F001704702464B
:10082000002092680A4200D0012070474161704761
:1008300001617047014801F07BBA00001D060020ED
:10084000FEE700000100044802D08114FFF7EEBF6C
:100850004FF48051FFF7ECBF0014014070B515460E
:10086000049C1E4633462A4600F008FA05FB06F1B2
:1008700000202C22D3061A80002904D9024A1480B1
:10088000401C8842FBD370BD0000026001B402E04E
:100890000098401E009000980028F9D101B07047E0
:1008A00070B51C46049D203AD6B21023082200F0F1
:1008B000E5F92C20C106088000220C48DFF830C082
:1008C00000EB0613985C002110F0010F02D0ACF889
:1008D000005001E0ACF800404008491CC9B20829AA
:1008E000F2D3501CC2B2102AECD370BDB035000850
:1008F000000002602DE9F8410446079F0E461546A8
:100900009846287800281CD004F10800F02803D964
:10091000002406F1100086B206F11000B0F5A07FA9
:1009200001D90024002600972A7843463146204604
:10093000FFF7B6FF6D1C04F1080084B22878002888
:10094000E2D1BDE8F8812DE9F04F83B00025002603
:10095000171AA3EB010882468B46002F03DD4FF0E8
:100960000100019009E003D14FF00000019004E084
:100970004FF0FF300190C7F10007B8F1000F03DD21
:100980004FF00100009009E003D14FF0000000900B
:1009900004E04FF0FF300090C8F10008474501DD4A
:1009A0003C4600E044464FF00009B4F1FF3F1DD43F
:1009B000601C0290594650460C9A00F063FA3D4480
:1009C0004644A54204DD2D1B019850441FFA80FACD
:1009D000A64204DD361B009858441FFA80FB09F13B
:1009E00001001FFA80F902988145E3DD03B0BDE8FC
:1009F000F08F2DE9F8430746DDF824C0089C8846AF
:100A00001D46BCF1000F07D02B46414638460094E6
:100A1000FFF724FFBDE8F883B818461EB2B243467C
:100A2000414638460094FFF78EFF08EB0500451E4F
:100A3000ABB2B2B2A9B238460094FFF784FFABB2B2
:100A40003A46414638460094FFF77DFFABB2B2B25A
:100A5000B0B241460094FFF776FFBDE8F88300B5D9
:100A600097B00121080201F06BF8022001900020EC
:100A70000290052103910490059006904FF080515B
:100A800007910890099008210A9110210B910C9070
:100A90000E900F90109009021191129013901490E3
:100AA00001A81590169008A8FFF7F6FD0121002077
:100AB000FFF7E0FD17B000BDF8B50121084601F0D1
:100AC0004DF80121602001F049F803248DF802401F
:100AD00018258DF803504CF20370ADF800002A4E33
:100AE00069463046FFF73EFE4FF68070ADF80000D5
:100AF000264F69463846FFF735FE8DF802408DF8DF
:100B000003501025ADF8005069463046FFF72AFE25
:100B10002020ADF8000069463046FFF723FE012192
:100B2000202001F01BF88020ADF800006946304617
:100B3000FFF718FE0121202001F010F8E801ADF8C0
:100B4000000069463046FFF70DFE8DF803508DF822
:100B500002400121402001F001F80220ADF8000020
:100B600069463846FFF7FEFD8DF803508DF80240C8
:100B70000121202000F0F2FF2802ADF800006946B4
:100B80003046FFF7EFFDF8BD0014014000180140AA
:100B900032494FF0C042012806D002281AD003285B
:100BA0002ED0042857D141E036201080C82008807C
:100BB0002A2010800020088008800880EF2008800C
:100BC0002B201080002008800880012008803F2012
:100BD000088040E036201080682008802A2010809D
:100BE000002008800880012008803F2008802B20FA
:100BF00010800020088008800880EF2008802AE00C
:100C000036201080282008802A20108000200880AC
:100C10000880012008803F2008802B2010800020C1
:100C2000088008800880EF20088014E036201080BB
:100C3000482008802A201080002008800880088032
:100C4000EF2008802B2010800020088008800120E1
:100C500008803F2008802C20108070470000026030
:100C600010B5FFF729FFFFF7FAFE0120FFF7EAFDB5
:100C700000F0ECF8BDE8104000F02CB830B44FF0B4
:100C80002A0C4FF0C045A5F800C0040ADFF840C0A8
:100C9000ACF80040C4B2ACF800401044401E020A58
:100CA000ACF80020C0B2ACF800002B202880080A65
:100CB000ACF80000C8B2ACF80000C818401E010A29
:100CC000ACF80010C0B2ACF8000030BC70470000B7
:100CD0000000026010B5CF204FF0C04420800021FA
:100CE000584801808121018030210180ED2121803F
:100CF0006421018003210180122101808121018072
:100D0000E821218085210180102101807821018046
:100D1000CB212180392101802C21018000210180FB
:100D20003421018002210180F721218020210180CE
:100D3000EA212180002101800180B1212180002150
:100D400001801B210180B62121800A210180A2217E
:100D50000180C021218035210180C1212180112104
:100D60000180C5212180452101800180C72121808A
:100D7000A2210180F22121800021018026212180F1
:100D800001210180E02121800F21018026210180A5
:100D9000242101800B2101800E2101800921018085
:100DA00054210180A8210180462101800C2101806D
:100DB00017210180092101800F2101800721018075
:100DC00000210180E1212180002101801921018081
:100DD0001B21018004210180102101800721018055
:100DE0002A210180472101803921018003210180CE
:100DF00006210180018030210180382101800F21EE
:100E0000018036212180C82101802A2121800021F2
:100E1000018001800180EF2101802B2121800021B0
:100E200001800180012101803F2101803A21218040
:100E300055210180112020800348FFF727FD29203C
:100E4000208010BD00000260FCBF020070B5094C9C
:100E500002212046FFF7EAFC074D2846FFF716FD62
:100E600002212046FFF7E4FC2846BDE87040FFF76A
:100E70000DBD000000180140FCBF020001231A460E
:100E8000FFF7FCBE10B51446F0280ED2B1F5A07FD6
:100E90000BD2FFF7F3FF012100202C22D3061A808A
:100EA000024B1C80401C8842FBD310BD0000026036
:100EB000FFF7D6BE38B50121082000F04FFE2020F4
:100EC000ADF8000010208DF8030003208DF802001B
:100ED0000F4C69462046FFF745FC0121ADF8001094
:100EE00069462046FFF73EFC0221ADF80010694636
:100EF0002046FFF737FC20212046FFF799FC01210F
:100F00002046FFF795FC02212046FFF791FC38BDF3
:100F1000000C01404218521E491E824202D922EAA8
:100F20000100704788437047002140600060491C01
:100F300008301B29F9D3704711F0004F02D06FF031
:100F4000704196E0504A114247D011F0FE4F1FD039
:100F500011F0E04F0BD011F0804F01D01E2188E03E
:100F600011F0005F01D01D2183E01C2181E011F010
:100F7000406F06D011F0006F01D01B2179E01A21DB
:100F800077E011F0007F01D0192172E0182170E0A4
:100F900011F4700F10D011F4400F06D011F4000FAF
:100FA00001D0172165E0162163E011F4001F01D084
:100FB00015215EE014215CE011F4402F06D011F4FD
:100FC000002F01D0132154E0122152E011F4003F10
:100FD00001D011214DE010214BE011F47F4F24D0BE
:100FE00011F4704F10D011F4404F06D011F4004F9F
:100FF00001D00F213DE00E213BE011F4005F01D054
:101000000D2136E00C2134E011F4406F06D011F4CC
:10101000006F01D00B212CE00A212AE011F4007F9F
:1010200001D0092125E0082123E011F0F00F10D0B4
:1010300011F0C00F06D011F0800F01D0072118E089
:10104000062116E011F0200F01D0052111E0042146
:101050000FE011F00C0F06D011F0080F01D00321A2
:1010600007E0022105E011F0020F01D0012100E0AC
:1010700000211E2901D900207047042900D804212D
:10108000091F00EBC10070470000FF7F10B5044648
:10109000F02C01D30C4810BD04F01F00012101FA0F
:1010A00000F06109890001F1E021C1F88001FFF73A
:1010B000FBF8074A04F11003044942F82310FFF734
:1010C000FBF8002010BD0000000900028126000886
:1010D000000000202DE9F04106460C460025FFF7F0
:1010E000E3F8074646B13CB114F0004F04D1214665
:1010F000304601F04DFB05463846FFF7DDF828463F
:10110000BDE8F0812DE9F04180460E4615460024E9
:10111000FFF7CAF80746B8F1000F15D0A6B170194D
:10112000011D11F0004F0FD1404601F031FB044684
:101130006019401E691E8843844205D0011B41F09E
:10114000804140F8041C04463846FFF7B5F82046B5
:10115000BDE8F0812DE9F04106460C460125FFF778
:10116000A3F807469EB194B154F8040C10F0804FD8
:1011700002D020F08040241A103C2146304601F075
:1011800057FB05461DB93146204601F0BDFB3846E8
:10119000FFF792F82846BDE8F08100002DE9F04104
:1011A00004468846002C02D0B8F5807F03D24FF069
:1011B000FF30BDE8F081FFF777F807462460C4F8F8
:1011C000048004F10800FFF7AFFE04F1E005A8F188
:1011D000F000E8600026AE6004F10800E968FFF75F
:1011E000ABFEA8B1006841686960286041680D6085
:1011F000456004EB08001038466085600C49C1600A
:10120000C14301600B49096849B10969416009E0BE
:101210003846FFF751F84FF0FF30BDE8F0814FF04E
:10122000FF3141603846FFF747F80020BDE8F08104
:10123000100000809806002070B5054600240028A4
:101240000FD0FFF731F805F108010A6822B1144602
:1012500022680A6005492160FFF72EF81CB1201DA5
:1012600070BD002070BD002070BD0000A55A5AA5B9
:1012700070B50E460446012500280FD076B1FFF761
:1012800013F88446301F23680121ABB1021B0C3ACE
:10129000B2FBF3F603FB162676B901E0012070BD20
:1012A000B2FBF3F36268934206D2084A01689142A6
:1012B00001D0012100E0002119B9A1680160A060FE
:1012C00000256046FEF7F8FF284670BDA55A5AA5CE
:1012D00070B50D4616460446002804D02EB10C2DDC
:1012E00005D2012070BD012070BD012070BDFEF748
:1012F000DBFF0346F01D20F003002060A5F10C0188
:10130000B1FBF0F06060B0B104F10C00A06000210E
:101310006268012A08D02268024402601046491C13
:101320006268521E8A42F6D8002101601846FEF714
:10133000C3FF002070BD1846FEF7BEFF012070BD40
:101340004268016811600268416851600021416093
:1013500001607047054A126802EBC10109684A68DA
:10136000426001604A68106048607047680600206B
:10137000024600200549096801EBC20251688A4211
:1013800003D0401C49688A42FBD1704768060020A0
:1013900000200A490A6802EBC0014B688B4201D168
:1013A000012100E0002121B1401C2028F3D30020BE
:1013B000704702EBC00040687047000068060020DC
:1013C000F8B50D46069C1746002F05D04FF6FB706A
:1013D000844203D91748F8BD1748F8BD95B18CB1C0
:1013E000FEF762FF0646201D82B26B46394628464C
:1013F00001F08EFB0446200006D03046FEF75CFF6D
:101400002046F8BD0D48F8BD009800F11401496070
:101410000960009800F11C0149600960009800F122
:101420002401496009600098C5813046FEF744FFF9
:101430000020F8BD030600020C0600020D060002A3
:101440002DE9F04789461F460025441E0A2C02D389
:101450003B48BDE8F087B9F1000F07D04AB15FB152
:101460003848006840B13848BDE8F0873748BDE8E3
:10147000F0873748BDE8F087FEF716FF804635490C
:1014800004EB440000EBC400096801EB8004A08871
:10149000D8B1208AD8B1401E208261892289206873
:1014A00001FB02000068C9F800006089401C80B29E
:1014B0006081E188884201D10020608104F114003C
:1014C0004168814224D1012023E0234D25E027B14A
:1014D0002248008818B1224D1FE0224D1DE022480D
:1014E00006683A4604F11C01304601F06BFB4046A9
:1014F000FEF7E2FE00F0DAF8FEF7D6FE8046B0888E
:1015000010F0400FC9D020F04000B080174D04E02B
:10151000002040B1E089401CE0814046FEF7CCFE4F
:101520002846BDE8F08704F1140001F08DFB404629
:10153000FEF7C2FE00F0BAF80020BDE8F087000018
:101540000E060002F8060020180600020F06000230
:1015500010060002DC0600201C06000280060020A7
:10156000060600021D06000298060020070600027B
:101570002DE9F047894616461F460025441E0A2CD1
:1015800002D33D48BDE8F087B9F1000F07D04EB156
:101590005FB13A48006840B13948BDE8F087394842
:1015A000BDE8F0873848BDE8F087FEF77DFE80464D
:1015B000364904EB440000EBC400096801EB8004E9
:1015C000A08820B12089B04203D2314D42E0314D94
:1015D00040E0E089C0B1401EE081A18922892068F5
:1015E00001FB0200C0F80090A089401C80B2A081DD
:1015F000E188884201D10020A08104F11C004168EB
:10160000814222D1012021E027B12348008818B16E
:10161000224D1FE0224D1DE0224806683A4604F1A3
:101620001401304601F0CEFA4046FEF745FE00F0C8
:101630003DF8FEF739FE8046B08810F0400FCCD060
:1016400020F04000B080184D04E0002040B1208A16
:10165000401C20824046FEF72FFE2846BDE8F0875A
:1016600004F11C0001F0F0FA4046FEF725FE00F000
:101670001DF80020BDE8F08711060002F8060020E2
:10168000090600021206000213060002DC06002012
:10169000150600021406000280060020060600025D
:1016A00016060002980600200706000210B5FEF795
:1016B000FBFD0446FFF76CFE0A493C3848600968A8
:1016C000814202D00848008820B12046BDE8104081
:1016D000FEF7F2BD2046FEF7EFFDBDE81040FEF735
:1016E000EEBD0000980600208006002070B52C4951
:1016F000096801EB00142B4E0A2801D3304670BD57
:10170000FEF7D2FD0546207880B16288A2F57F40C1
:10171000FE3806D004F10801486888420BD1012147
:101720000AE02846FEF7C8FD1F4870BD2846FEF7B0
:10173000C3FD304670BD002131B1501C6080284689
:10174000FEF7BAFD002070BDA0F13C0442680168BC
:101750001160026841685160002646600660A088FA
:1017600020F00800A08010F0400F06D0204601F0C5
:101770004FFEA08820F04000A080A661A08810F055
:10178000020F07D140F00400A080E18804F13C0082
:10179000FFF7E0FD2846FEF78FFDFFF787FFD1E753
:1017A000E0060020010700020807000210B501F062
:1017B00003FE0446200000D010BDFEF7D9FC2046F1
:1017C00010BD000070B50446204600F035F8002832
:1017D0002AD12068174D00EB800101EBC000696839
:1017E00001EBC004FEF760FD0646A08820F0020170
:1017F00041F00400A080E18804F13C00FFF7AAFD5D
:10180000FFF7C6FD05F11802A0F13C0151606869BF
:1018100058B1288848B91068884206D03046FEF78B
:101820004BFD01F049FA002070BD3046FEF744FD43
:10183000002070BD800600202DE9F04706460D46C9
:10184000002E0AD065B1E86968B1286870B1A8882F
:101850001F280ED95F48BDE8F0875F48BDE8F087D4
:101860005E48BDE8F0875E48BDE8F0875D48BDE8AA
:10187000F087A869B0F5004F02D95B48BDE8F08752
:1018800010B94FF43470A8610821A869FFF742FB32
:10189000A86110214FF49870FFF73CFBA9698842BA
:1018A00002D95248BDE8F087FEF7FEFC8146504859
:1018B0004168814201D1012000E00020DFF834813D
:1018C000002710BB4A4C6068A0F13C0243680168E5
:1018D000196003684168596047600760464802F133
:1018E0003C0143684B600860436819604160D168FF
:1018F000D8F80000FFF72EFC3D484168814201D135
:10190000012000E000200028DDD03B4948688842E3
:1019100001D1012100E0002109B1384C40E0A0F1E3
:101920003C04426801681160026841685160476088
:1019300007604846FEF7C0FCD4F810900822A96959
:10194000D8F80000FFF7DEFB8046B8F1000F1AD090
:1019500042464846A96901F09FFD2060A868A06240
:10196000E868E0622869206368696063C4F80C80F5
:10197000A869A060A761E76167620221A180286A67
:10198000A0B1802013E0FEF78FFC81461A4804F1D5
:101990003C0142684A600860426811604160184C2E
:1019A0004846FEF789FC2046BDE8F0870020084342
:1019B000A080A888E080286860614FF0FF30206533
:1019C000E765E869A0636766C6F800900020BDE897
:1019D000F087000003020002070200020102000279
:1019E00005020002040200022002000206020002B8
:1019F000B0060020F0060020A80600201102000218
:101A00000002000370B5064616480068002801D0A1
:101A1000154870BD1548008808B1154870BDE6B17D
:101A2000FEF742FC0546134C20683C30FFF788FC6B
:101A30002068818821F0040181803146206801F00E
:101A400079FA2068818841F0200181802846FEF7DC
:101A500033FCFFF72BFE002070BDBDE8704000F0A6
:101A60002FB80000F80600200D02000380060020B9
:101A70000E0200029806002010B5FEF715FC04497E
:101A80000A88521C0A80BDE81040FEF715BC000011
:101A90008006002010B5FEF707FC084A118819B12E
:101AA000491E89B2118019B1BDE81040FEF704BC8F
:101AB000FEF702FCBDE81040FFF7F8BD80060020ED
:101AC00070B51B4CA4F11801206889680069884230
:101AD00001D3184870BDFEF7E7FB05462068C088B3
:101AE000FFF746FC01281DD9206800F13C014A6837
:101AF000086810600A684868506000204860086004
:101B00002168888840F004008880226802F13C0047
:101B1000D188FFF71FFC2846FEF7CEFBFFF7C6FD76
:101B2000002070BD2846FEF7C7FB034870BD0000CB
:101B3000980600200702000210020002FEE770472C
:101B4000054A002903D05169084350617047516923
:101B500021EA00005061704700100240054A002948
:101B600003D09169084390617047916921EA0000B0
:101B70009061704700100240294A516801F00C0141
:101B8000284B00292CD004292CD008292CD0036004
:101B9000516801F0F0010909DFF88CC01CF8011050
:101BA000036823FA01F14160536803F4E0631B0A00
:101BB0001CF8033021FA03F38360536803F4605385
:101BC000DB0A1CF80330D940C160526802F440427D
:101BD000920BACF104039A5CB1FBF2F10161704726
:101BE0000360D5E70360D3E7516801F470115368CF
:101BF00003F480334FF0020C0CEB91413BB153687E
:101C000013F4003F07D0094B59430160C0E7074B6D
:101C100059430160BCE7034B59430160B8E700003A
:101C20000010024000127A000406002000093D0066
:101C300030B593B0002400200290039004900590EA
:101C400006900790089009900A900B900C900D90C8
:101C50000E900F901090119000F044FC10F0FF00D7
:101C60000CD002AD2855601CC4B2402C00D9002411
:101C7000002000F037FC10F0FF00F3D101204FF6F8
:101C8000FF71009101903C23F02250210020FEF7CB
:101C9000B0FE1F2000904FF6FF7302AA50211E20B5
:101CA000FEF728FE13B030BD7047000010B592B0AB
:101CB00000240294039404940594069407940894D1
:101CC00009940A940B940C940D940E940F94109410
:101CD00011940346134A14A102A800F0E3F902A8E4
:101CE000FEF786FAC0B202A91A220A5408444470C8
:101CF00002A800F01DF801204FF6FF71009101903D
:101D00003C23D222B4211E20FEF773FE1F20009038
:101D10004FF6FF7302AAB4211E20FEF7EBFD12B0AE
:101D200010BD0000A03B00080D0A257325730000BC
:101D30000146014800F093B900380140AFF300803C
:101D400082B00022019200922848016841F480315B
:101D50000160016801F4003100910199491C019171
:101D6000009919B90199B1F5A06FF2D1016811F488
:101D7000003F02D00121009100E00092009901296A
:101D800031D11B490A6842F010020A600A6822F049
:101D900003020A600A6842F002020A604168416078
:101DA00041684160416841F480614160416821F4CB
:101DB0007C114160416841F4E8114160016841F0E3
:101DC00080710160016811F0007FFBD0416821F053
:101DD00003014160416841F002014160416801F046
:101DE0000C010829FAD102B070470000001002402F
:101DF0000020024010B50848016843684A1C43F1BE
:101E000000010260416001F023FB01F0DFF9BDE851
:101E1000104001F07FB80000C006002010B5104847
:101E2000016841F00101016041680E4A11404160C2
:101E3000016821F4102121F080710160016821F412
:101E400080210160416821F4FE0141604FF41F01CF
:101E50008160FFF773FF04494FF00060086010BD18
:101E6000001002400000FFF808ED00E0002904D057
:101E7000818941F4005181817047818921F40051A9
:101E80008181704710B586B001210420FFF766FEFE
:101E900001218803FFF762FE4FF40070ADF81000D7
:101EA00018208DF8130003208DF812001B4C04A994
:101EB0002046FEF757FC2115ADF8101004218DF8CF
:101EC000131004A92046FEF74DFC4FF4E1300090BA
:101ED0000020ADF80400ADF80600ADF80800ADF83C
:101EE0000C000C20ADF80A000D4C6946204600F0AD
:101EF0003DF8012240F22771204600F01AF8012235
:101F000040F22551204600F014F82520FFF7BEF8D6
:101F100001212046FFF7AAFF06B010BD00080140CE
:101F2000003801400246002012880A4200D00120F9
:101F3000704740F66A13C1F3421301F01F014FF0DE
:101F4000010C0CFA01F1012B07D0022B07D0143041
:101F50003AB102681143016070470C30F8E7103065
:101F6000F6E7026822EA01010160704730B585B0EA
:101F700004460D46208A4CF6FF710840E988084364
:101F80002082A0894EF6F3110840A9882A891143BE
:101F90006A8910430843A081A08A4FF6FF41084098
:101FA000A9890843A0826846FFF7E6FDA4F18040B6
:101FB000B0F59C300DD00298A18911F4004F0AD0E1
:101FC00000EBC00101EB001029684900B0FBF1F003
:101FD00009E00398F0E700EBC00101EB001029686D
:101FE0008900B0FBF1F0124AA2FB00314909090156
:101FF0000B096FF0180C03FB0CF300EB8300A389B3
:1020000013F4004F4FF0320307D003EBC000A2FBE4
:102010000020C0F34210084306E003EB0010A2FBCF
:102020000020C0F343100843208105B030BD0000FC
:102030001F85EB518088C0F308007047C1F3080189
:1020400081807047FEE710B504462046FFF7F6FF93
:1020500080212046FFF766FF0028F9D010BD70B53B
:1020600006460D4600243046295DFFF7ECFF641C50
:10207000285D0028F7D140213046FFF753FF0028A4
:10208000F9D070BD0FB4054B10B503A9044A0298EE
:1020900000F02CF810BC5DF814FB000005250008CA
:1020A000FC0600200FB4084B10B504A902AA03983F
:1020B00000F01CF8044602A9002000F0B8F9204600
:1020C00010BC5DF814FB00002F24000802E008C8D3
:1020D000121F08C1002AFAD170477047002001E0A2
:1020E00001C1121F002AFBD1704700002DE9FF4FEC
:1020F0008BB088460546002606E025280BD0DDE992
:102100000D1290476D1C761C28780028F5D10FB071
:102110003046BDE8F08F0024A146A2460122AE4918
:1021200000E0044315F8013F203B02FA03F00842A7
:10213000F7D128782A2810D06FF02F022878A0F144
:102140003001092915D809EB890102EB410144F05E
:10215000020400EB01096D1CF0E758F8041B5FEA6C
:10216000010903D544F40054C9F1000944F0020404
:102170006D1C28782E2817D115F8010F44F004049F
:102180002A280ED06FF02F022878A0F130010929FB
:102190000AD80AEB8A0102EB410100EB010A6D1C2F
:1021A000F2E758F804AB6D1C28786C280FD006DCD9
:1021B0004C2817D068280DD06A2814D104E0742860
:1021C00010D07A280FD10DE044F400140AE044F452
:1021D000801401E044F440146978814202D104F58E
:1021E00080146D1C6D1C2878692865D006DC0028D9
:1021F0008DD0632827D0642806D15DE06E2808D0F2
:1022000073282AD0752877D0DDE90D129047761C07
:10221000E0E0C4F30250022809D003280DD0D8F81A
:10222000001004280DD00E6008F10408D2E0D8F8A0
:102230000010F217C1E90062F6E7D8F800100E802E
:10224000F2E70E70F0E718F8041B8DF8001000207C
:102250008DF80100EB46012003E058F804BB4FF075
:10226000FF3061074FF0000701D40AE07F1C57459B
:102270000DDA8742FADB1BF807100029F6D106E0D9
:102280007F1C8742FCDB1BF807100029F8D1DDE931
:102290000D23A9EB07008146214600F0B1F8304438
:1022A000C61904E0DDE90D121BF8010B90477F1EF3
:1022B000F8D22146484688E058F8040BC4F302518E
:1022C0004FF00A0B032900D100B2042900D140B21B
:1022D000002802DA40422D2102E0210505D52B21FC
:1022E0008DF82410012104E006E0E10710D0202140
:1022F000F6E708AF089113E058F8040BC4F3025155
:102300004FF00A0B032900D180B2042900D1C0B2DA
:102310000021EEE75946FDF772FF303107F8011D45
:102320000028F7D1ADEB070000F1200B600702D5C4
:1023300024F4803401E04FF0010ADA4502DDAAEB13
:102340000B0000E00020824600EB0B0108980144DE
:10235000A9EB01000A90E00306D4DDE90D23214634
:102360000A9800F04DF806444FF0000908E009A96A
:1023700011F80900DDE90D12904709F10109761CF9
:1023800008998945F3DBE0030CD5DDE90D232146EF
:102390000A9800F035F8064404E0DDE90D1230201B
:1023A0009047761CBAF10001AAF1010AF5DC05E0BC
:1023B000DDE90D1217F8010B9047761CBBF1000107
:1023C000ABF1010BF4DC0A982146DDE90D2300F0A6
:1023D00005F806446D1C97E6092801002DE9F04137
:1023E000044600251E461746880404D405E03946F5
:1023F0002020B0476D1C641EF9D52846BDE8F08149
:102400002DE9F041044600251E469046C80301D53B
:10241000302700E02027880404D505E041463846EF
:10242000B0476D1C641EF9D52846BDE8F0810A68E6
:10243000531C0B601070704700B589B00020ADF8D8
:10244000040007A00790094800904FF434700690EC
:102450008020089069460648FFF7B4F909B000BD2E
:1024600044485431315F7461736B00000D050008FE
:102470001406002000B589B00120ADF8040007A0C3
:102480000790084800904FF4347006908020089020
:1024900069460548FFF796F909B000BD7461736B92
:1024A00031000000253500081406002000B589B071
:1024B0000120ADF8040007A00790084800904FF4F1
:1024C000347006908020089069460548FFF77AF935
:1024D00009B000BD7461736B32000000393500082B
:1024E0001406002010B5064C20212046FFF71AFDE7
:1024F0000028F9D02046BDE81040FFF79BBD000042
:102500000038014070B50446064DE1B22846FFF799
:1025100095FD80212846FFF705FD0028F9D02046CB
:1025200070BD00000038014038B5FEF7C3FCFFF76E
:10253000A9FCFDF741FFFEF7BBFCFEF77BF901208C
:10254000FEF726FB4FF6FF70002100904FF4A073BA
:10255000F0220846FEF782F94FF4784000904FF6DB
:10256000FF7318A20A210020FEF7C4F900244FF6D9
:10257000FF731CA228210A200094FEF7BBF94FF636
:10258000FF731FA23C210A200094FEF7B3F94FF617
:10259000FF731EA2A0210A200094FEF7ABF94FF6AC
:1025A000FF731CA2F0211E200094FEF7A3F94FF642
:1025B000FF731CA24FF482711E200094FEF79AF95B
:1025C00038BD000020202057656C636F6D65207456
:1025D0006F20487561776569204C6974654F532099
:1025E00000000000536572766963652054696D656B
:1025F00020284D4D3A53532E6D73293A00000000A8
:10260000526563656976653A2000000053656E6423
:102610003A00000054656D706572617475726520D2
:1026200069733A0048756D69646974792069733A11
:102630000000000010B500F087F808B1012010BDBF
:1026400000F004F8FFF7B2F8FEE7000010B5FFF75E
:102650006BFF0949202008600848FDF7DCFFFFF701
:1026600009FF002807D1FFF721FF002803D1FFF75A
:10267000E3FE0028FFD110BD140C0140FFFF0F0046
:10268000FDF760FDFEE700001020074A074941F80A
:102690002020401CB0F5807FF9D305480160064931
:1026A00004480860704700008126000800000020F0
:1026B00008ED00E00007FA050CED00E0FEE7000081
:1026C00000B589B00020039001900290049005901D
:1026D0000890094800904FF4A060069007A007906A
:1026E0001F20ADF8040069460748FFF76BF8002883
:1026F000FFD109B000BD0000BD26000849646C652B
:10270000436F7265303030008C06002010B5FDF745
:10271000CBFD0B4C2168491C2160FDF7CDFDFDF779
:1027200011FD084951F8200000B18047FDF7BCFDBC
:102730002168491E2160BDE81040FDF7BDBD0000C5
:10274000F80600201088002010B500F0A7FA00F06D
:102750008BF900281BD1FFF797FF00F093FC0028AE
:1027600015D100F0ABFA002811D100F089F900284A
:102770000DD100F00FFA002809D100F0CBFA0028A3
:1027800005D100F081FEFFF79BFF0028FFD110BDAF
:102790002DE9F041804601F1130020F00306354693
:1027A000294608F10800FEF7C7FB002788B108F1A9
:1027B000D8024468844205D0E168A9420AD264681C
:1027C0008442F9D1824201D1002000E00830002883
:1027D000EFD13C46C4B1E06806F11401884204D34D
:1027E00032462146404600F009F9616820680860D9
:1027F0002168606848606760E04320600B480068BB
:1028000028B10169616005E00020BDE8F0814FF06A
:10281000FF316160E06840F00040E06020F000407F
:1028200000F0BCFC04F11000BDE8F0819806002027
:1028300070B400F1E0034268A0F1100C9444141845
:102840008B4211D861450FD8CA6812F0004F06D0EC
:102850000E6886EA0105B5F1FF3F05D107E00D6876
:10286000854201D3A54202D370BC0120704712F00B
:10287000004F11D022F000420A44934214D862451E
:1028800012D8D56815F0004F09D0166886EA0205FF
:10289000B5F1FF3F08D10AE070BC01207047156810
:1028A000854201D3A54202D370BC012070479268D3
:1028B0008A4202D070BC01207047994221D08A68B8
:1028C000934213D8624511D8D36813F0004F07D054
:1028D000D2F800C08CEA0200B0F1FF3F06D108E058
:1028E000D2F800C0844501D3A44502D370BC0120B6
:1028F000704723F000401044884202D070BC012091
:10290000704770BC0020704770B505460E46E868F9
:1029100020F0004000F02CFCE86820F00040E86067
:10292000AC6800231CB1E16811F0004F07D020F023
:1029300000404219D06810F0004F3CD050E00844ED
:10294000E060E8682844A96881602B606B60AB6038
:10295000E06820F000402044C16811F0004F14D11D
:102960004268016811600268416851604360036019
:102970008168D0F80CC0CA686244CA60C16801446A
:1029800082688A60036043608360616820680860D1
:102990002168606848606360236006F10800E168B0
:1029A000FEF7CAFA002805D04168616020604168DE
:1029B0000C60446070BD5168106808601168506810
:1029C0004860536013609068D2F80CC0C1686144DD
:1029D000C160D06810449168816013605360936057
:1029E00006F10800E968FEF7A7FA0028E2D041687E
:1029F0006960286041680D60456070BD70B58C18D5
:102A0000A160CB689B1AE360CA60E16821F00041D5
:102A100021448C60CA6812F0004F18D14B680A68D4
:102A20001A600B684A685A6000234B600B608A6822
:102A3000CD68D2F80CC0AC44C2F80CC0CA680A44D5
:102A4000D1F808C0C2F808C00B604B608B6008303A
:102A5000E168FEF771FA002805D0416861602060E6
:102A600041680C60446070BD0449034808604FF43D
:102A70000041FEF793BB0000D0070020F0060020C5
:102A800070B51248406000601148F0210068FEF700
:102A900021FB104B1860B8B1002084461C1D1A6839
:102AA00000EB400102EBC101486081F800C0083131
:102AB000226855684D600A60556829605160401C65
:102AC0000A28ECD3002070BD034870BDD406002056
:102AD000F0060020D0060020001D000210B50024E2
:102AE0004FF4807108480068FEF7F4FA074908605F
:102AF000002807D0086800EBC40040600060641C38
:102B0000202CF7D310BD0000F0060020680600203E
:102B10002DE9F041054616461F461A4804684FF055
:102B2000000CA08820B30CF1010C2C34BCF10A0F6E
:102B3000F7D3BCF10A0F1FD0002121606160A160B2
:102B4000E16021616161A161E16121626162A16273
:102B50000D4805FB06F10068FEF7BCFA206070B175
:102B6000E58026810120A0803C600020BDE8F08146
:102B70000CF101000860DCE70448BDE8F08104487E
:102B8000BDE8F081DC060020F0060020040600020B
:102B90000206000210B508484FF4DC710068FEF729
:102BA00099FA0649086028B14FF4DC71FDF715FB6E
:102BB000002010BD024810BDF0060020DC060020F9
:102BC0000106000270B504460D46164604F13C00AD
:102BD000FEF7B6FBA08820F0040104F13C0041F4AC
:102BE0000051A1806A68AA4201D1012100E00021C0
:102BF00039B129684A68426001604A6810604860DB
:102C000014E0A2F13C01AA4209D0E288CB889A42A2
:102C100005D3096C3C3901F13C03AB42F6D1C96BD9
:102C20004A68426001604A6810604860B6F1FF3F40
:102C300009D0A08840F04000A08031462046BDE881
:102C4000704000F077B970BD10B54068A0F13C0449
:102C5000426801681160026841685160002141606A
:102C60000160A08820F40050A08010F0400F06D032
:102C7000204600F0CDFBA08820F04000A080A08876
:102C800010F0020F09D140F00400A080E18804F1A7
:102C90003C00BDE81040FEF75DBB10BD03491020AD
:102CA0000860044902480860704700008806002058
:102CB000D0870020EC060020FDF701BB70B511485D
:102CC000406000601048A0210068FEF703FA0F4B37
:102CD0001860A8B1002084461C1D196801EB001182
:102CE000486081F800C00831226855684D600A606C
:102CF000556829605160401C0A28EED3002070BD41
:102D0000034870BDE4060020F0060020E006002025
:102D100000070002F8B51D4C0027E7604FF400766D
:102D20001B4831460068FEF7D5F90546CDB131465E
:102D30002846FDF752FA6560A5602F8105F1200451
:102D4000012121812C602546481C81B220341029A4
:102D5000F7D30822D0210F48FEF7BAFA18B10E486F
:102D6000F8BD0E48F8BD042000230090074A10214A
:102D70001846FEF725FB08B10948F8BD00F066F8D3
:102D800008B10848F8BD0020F8BD00006C0600201E
:102D9000F0060020000700200A03000207030002DB
:102DA0000B0300020C03000210B44FF0000C8179F9
:102DB000002903D14179F9B102291DD00169C1600F
:102DC000104CE16849B1CA68C3689A4205D89A1A9A
:102DD000C2608C4609680029F5D1016019B1CA6842
:102DE000C368D21ACA60BCF1000F08D0CCF800004A
:102DF0000221017110BC70474169C160E0E7E060E9
:102E0000F6E700006C06002084B0002002900D4C14
:102E10004FF0FF33042202A92068FEF711FB0028BF
:102E2000F6D102990029F3D0086800904868019013
:102E30000548FEF71DFA00980028E9D0009901988E
:102E40008847E5E76C0600200007002000B589B040
:102E50000020019002900390049005900849009191
:102E60004FF43471069107A10791ADF8040080205A
:102E7000089069460648FEF7A5FC09B000BD0000B1
:102E8000092E00085377745F5461736B00000000D3
:102E9000900600202DE9F0411C4EF46800274FF603
:102EA000E0781EE02068F0601948FEF7C5F9054695
:102EB00075B1E0692860A069686000230422294692
:102EC0003068FEF755FB18B129461148FEF7D0F9D6
:102ED000607968B1A079401CA0712046FFF764FFBB
:102EE000F468002C02D0E0680028DBD0BDE8F08157
:102EF000B0682060B46027712089404502D210304C
:102F00002081EDE700F00F002081E9E76C0600204A
:102F10000007002010B50648C068002805D0C16829
:102F2000491EC16001D1FFF7B5FF002010BD0000B0
:102F30006C06002030B401F01F024909002A00D1BC
:102F4000491EC36C03F078430B43DFF88CC09CF838
:102F50000410114401F01F0161F3DF63C364DCF866
:102F6000002002EBC1025168914209D1443011683E
:102F70004A68426001604A681060486030BC70472F
:102F80004439D0F84CC0CD6C2CF0784425F078430F
:102F9000A3420CD8E31A0CF0784C43EA0C03C36448
:102FA000896C443901F144039342EAD10AE0CA6CC6
:102FB000C36C22F0784223F07843D21A05F07843AC
:102FC0001A43CA644430496C4A68426001604A68E6
:102FD0001060486030BC7047B80600202DE9F04111
:102FE000264D00EB800101EBC0016A6802EBC104D1
:102FF00000EB800101EBC0002946E7694968002F1A
:1030000001EBC000D0F814C0866A436B026BC16A42
:1030100003D03046E047206201E03046E0472079A7
:103020004FF0000610F0800F09D0FDF73DF92E801B
:103030002269BDE8F0410146104600F03DB9FDF7B8
:1030400033F92E80FDF738F9FEF716FDE06918B167
:103050004068FEF74BFBE661207910F0040F07D0C3
:1030600004F13C00FEF76CF9A08820F00400A08079
:10307000FEF710FDBDE8F041FEF718BB800600200A
:1030800072B6FEE72DE9F041344CA068401C68217F
:1030900000FB01F7324E39463068FEF71BF86060DE
:1030A000304D002854D03946FDF797F804F1200040
:1030B00040600060083040600060083040600060A0
:1030C000002004F128034FF0010C00EB800162683E
:1030D00001EBC00102EBC101A1F804C008613C3161
:1030E0001A6857684F600A60576839605160401C21
:1030F0000F28EAD90027E761A16801EB810202EB02
:10310000C101626802EBC101174A116008611168D0
:103110001120888011682020C880FFF7DFFC4FF461
:10312000807841463068FDF7D5FF04469CB14146A2
:103130002046FDF752F80D48046087800020646047
:103140002460401C08342028F9D30020BDE8F08119
:103150002846BDE8F0812846BDE8F08180060020C1
:10316000F00600200002000398060020B8060020A8
:103170000749096809690F2909D8064A1268002A0F
:1031800005D1054A52F82130181A42F8210070473B
:1031900098060020F8060020D0870020084909681A
:1031A00000290CD0074A1268002A08D109690F29A2
:1031B00005D8054A52F82130184442F821007047DA
:1031C00098060020F8060020D087002070B5002265
:1031D00038490879401C00F01F008880096801EB1D
:1031E000C0046068A04263D0443800258188C36C65
:1031F00033F0784303D0C16C491EC16452E0D0F86B
:1032000048C0436CCCF80030D0F844C0836CCCF894
:1032100004308564456411F0080F12D0838823F0D0
:1032200008038380D0F840C0C36BCCF80030D0F8DE
:103230003CC0036CCCF804300564C563856145620D
:103240001FE011F4806F04D0838823F480638380AF
:1032500017E011F4005F10D0D0F840C0C36BCCF879
:103260000030D0F83CC0036CCCF804300564C56372
:10327000838823F40053838003E0838823F02003B2
:10328000838011F0020F08D1818841F00401818010
:10329000C1883C30FEF75EF801226168A1F144006C
:1032A000A142A3D1002A03D0BDE87040FEF7FEB9C9
:1032B00070BD0000B80600202DE9F04105460E461D
:1032C0003B4F05EB850000EBC500796801EBC004BE
:1032D000A0884FF0000810F0040F08D004F13C0063
:1032E000FEF72EF8A08820F00400A08014E020F063
:1032F000F70131F45F410FD0226CE16B1160E26B9A
:10330000216C5160C4F84080C4F83C8010F0600F1C
:1033100002D0204600F07CF8A08820F0020040F0A7
:103320000100A0804FF0FF302065C4F85C80FEF7FC
:103330002FF820493C384860A08810F0100F26D0A4
:1033400004F13C0001F11802126853684360026006
:10335000536818605060B86800EB800202EBC00050
:103360007A6802EBC000086005610A68A088908056
:103370000868E268C260A16B81630120A0803046CA
:10338000FCF79AFFFFF798FC0020BDE8F08110F0F1
:10339000010F07D03046FCF78FFFFFF78DFC0020B0
:1033A000BDE8F0813046FCF787FF0020BDE8F081E2
:1033B00080060020980600200D490C48C8630E497D
:1033C0000C48C8630E490D4808600E480022026090
:1033D00042604FF0E0200C4941610C4A70211170AD
:1033E0000021816107210161002070470D2700083D
:1033F00000000020F51D0008108800204019010081
:10340000F4060020C00600203F19010023ED00E073
:10341000C36CD90E0D4A126802EBC102816C914255
:1034200009D08A6823F0784322F0784C634402F094
:1034300078421A438A60826C416C1160426C816CE4
:10344000516000218164416470470000B80600208B
:103450000B480A4A01680B48136800688B4204D085
:103460001160D188431E19449180918880B28142B5
:1034700003D100201060FEF723BB7047C806002070
:1034800098060020C00600200248002101600A21A1
:10349000C1807047C806002084460120B0EB910F20
:1034A00007D24FF0CA3342F82030401CB0EB910FE6
:1034B000F9D34FF0CC301060501844384FF004313D
:1034C00001604FF0053141604FF0063181604FF0EF
:1034D0000731C1604FF0083101614FF0093141619E
:1034E0004FF0103181614FF01131C1610021016253
:1034F000C0F824C04FF0013181624900C1624FF031
:10350000033101634FF0123141630449816304497F
:10351000C1634FF080710164704700008130000882
:10352000DD2F000810B5FEF783FB4FF47A70FEF72D
:1035300069FA0028F7D010BDF0B585B00024184E08
:10354000184D4FF47847641C3B2C0BD9A6FB041094
:103550004209A2EB021004EB800313A102A8FEF7BC
:10356000A1FD04E0224611A102A8FEF79BFD4FF643
:10357000FF7302AA2821C8200097FDF7BBF928682D
:1035800080F001002860286880F0020028604FF475
:103590007A70FEF737FA0028D5D005B0F0BD0000EC
:1035A000898888880C0C01402532642E25326400FD
:1035B000000000000000000000000000000000000B
:1035C000000000183C3C3C181800181800000000CF
:1035D00000000066666600000000000000000000B9
:1035E0000000006C6CFE6C6C6CFE6C6C00000000EB
:1035F0000018183C66060C183060663C181800006D
:1036000000000E1B5B6E30180C76DAD870000000DC
:103610000000001C36361C06F66666DC0000000062
:103620000000001818180000000000000000000052
:103630000000003018180C0C0C0C0C18183000008E
:103640000000000C1818303030303018180C000012
:1036500000000000006C38FE386C00000000000024
:10366000000000000018187E18180000000000007C
:103670000000000000000000000038383018000092
:10368000000000000000007E0000000000000000BC
:1036900000000000000000000000383800000000BA
:1036A0000000006060303018180C0C0606000000A6
:1036B00000000078CCECECCCDCDCCC780000000026
:1036C00000000030383E3030303030300000000034
:1036D0000000003C66666030180C067E00000000AA
:1036E0000000003C666660386066663C00000000D2
:1036F0000000000C0C6C6C6C66FE6060000000004A
:103700000000007E0606063E6060301E00000000DD
:1037100000000038180C3E666666663C000000003B
:103720000000007E60303018180C0C0C0000000007
:103730000000003C66666E3C7666663C0000000059
:103740000000003C666666667C30181C00000000C5
:103750000000000000383800000038380000000089
:103760000000000000383800000038383018000031
:103770000000006030180C060C18306000000000DB
:103780000000000000007E007E000000000000003D
:10379000000000060C18306030180C060000000015
:1037A0000000003C66663018180018180000000081
:1037B0000000007EC3C3F3DBDBF303FE0000000068
:1037C000000000183C6666667E66666600000000C3
:1037D0000000003E6666663E6666663E00000000CB
:1037E0000000003C666606060666663C00000000B7
:1037F0000000001E366666666666361E0000000023
:103800000000007E0606063E0606067E000000005A
:103810000000007E0606063E0606060600000000C2
:103820000000003C666606067666667C00000000C6
:10383000000000666666667E6666666600000000DA
:103840000000003C181818181818183C0000000058
:1038500000000060606060606066663C0000000020
:10386000000000666636361E3636666600000000CA
:1038700000000006060606060606067E000000009A
:10388000000000C6C6EED6D6D6C6C6C600000000EA
:10389000000000C6C6CEDEF6E6C6C6C600000000C2
:1038A0000000003C666666666666663C00000000D6
:1038B0000000003E6666663E060606060000000042
:1038C0000000003C666666666666663C3060000026
:1038D0000000003E6666663E3666666600000000D2
:1038E0000000003C66060C183060663C00000000DA
:1038F0000000007E1818181818181818000000008A
:1039000000000066666666666666663C000000004B
:10391000000000666666666666663C180000000089
:10392000000000C6C6C6D6D6D66C6C6C000000007F
:1039300000000066662C18183466666600000000F9
:10394000000000666666663C181818180000000043
:103950000000007E606030180C06067E000000004B
:103960000000003C0C0C0C0C0C0C0C0C0C0C3C0067
:1039700000000006060C0C181830306060000000D3
:103980000000003C303030303030303030303C00DF
:1039900000183C660000000000000000000000006D
:1039A0000000000000000000000000000000FF0018
:1039B000001C1830000000000000000000000000A3
:1039C00000000000003C60607C66667C0000000037
:1039D00000000006063E66666666663E0000000061
:1039E00000000000003C66060606663C0000000081
:1039F00000000060607C66666666667C0000000011
:103A000000000000003C66667E06063C00000000E8
:103A1000000000780C0C0C7E0C0C0C0C000000005C
:103A200000000000007C66666666667C60603E00A2
:103A300000000006063E66666666666600000000D8
:103A400000001818001E18181818187E0000000032
:103A500000003030003C30303030303030301E002C
:103A600000000006066666361E3666660000000028
:103A70000000001E181818181818187E0000000002
:103A800000000000007ED6D6D6D6D6C600000000C4
:103A900000000000003E6666666666660000000084
:103AA00000000000003C66666666663C00000000A0
:103AB00000000000003E66666666663E060606007A
:103AC00000000000007C66666666667C60606000E0
:103AD000000000000066760E0606060600000000E4
:103AE00000000000007C06063C60603E0000000014
:103AF0000000000C0C7E0C0C0C0C0C78000000007C
:103B000000000000006666666666667C00000000D5
:103B1000000000000066666666663C180000000053
:103B20000000000000C6D6D6D6D66C6C000000009F
:103B3000000000000066663C183C6666000000005D
:103B400000000000006666666666663C30180F007E
:103B500000000000007E6030180C067E00000000AF
:103B6000000000301818180C060C18181830000047
:103B70000000001818181818181818181818180025
:103B80000000000C1818183060301818180C0000CD
:103B90000000008EDB71000000000000000000004B
:103BA00041542B43495053454E440D0A0000000038
:103BB000E03B000800000020000400005002000864
:103BC000FC3B00080006002000010000CC2000089B
:103BD000FC3C00080007002010890000DC200008E1
:103BE00041134D010C10088126040110A9180B1473
:103BF000C9022401FF01FF01FF01B300020406080E
:103C00000000000001020304010203040607080982
:103C100000000000000000000041540D0A00415463
:103C20002B43495053544152543D22544350222C6B
:103C3000223232302E3139362E34322E3135352281
:103C40002C383038360D0A0041542B434950534824
:103C500055540D0A0041542B434950434C4F534592
:103C60000D0A00000000000000000000000000003D
:103C70000000000000000000000000000000000044
:103C80000000000000000000000000000000000034
:103C90000000000000000000000000000000000024
:103CA0000000000000000000000000000000000014
:103CB0000000000000000000000000000000000004
:103CC00000000000000000000000000000000000F4
:103CD00000000000000000000000000000000000E4
:103CE00000000000000000000000000000000000D4
:0C3CF000000000000000000000000000C8
:0400000508000131BD
:00000001FF
