:020000040800F2
:10000000809000204D010008C11D00084507000830
:10001000BD1D00085D030008BD23000800000000AE
:100020000000000000000000000000005D2000084B
:10003000A103000800000000B902000849210008DF
:1000400067010008670100086701000867010008F0
:1000500067010008670100086701000867010008E0
:1000600067010008670100086701000867010008D0
:1000700067010008670100086701000867010008C0
:1000800067010008670100086701000867010008B0
:1000900067010008670100086701000867010008A0
:1000A0006701000867010008670100086701000890
:1000B0006701000867010008670100086701000880
:1000C0006701000867010008670100086701000870
:1000D0006701000867010008670100086701000860
:1000E0006701000867010008670100086701000850
:1000F0006701000867010008670100086701000840
:10010000670100086701000867010008670100082F
:10011000670100086701000867010008670100081F
:10012000670100086701000867010008670100080F
:10013000DFF80CD000F072F80048004721280008D2
:1001400000060020EFF30580704700000648804756
:1001500006480047FEE7FEE7FEE7FEE7FEE7FEE7AC
:10016000FEE7FEE7FEE7FEE7712100083101000827
:10017000124C134D256013484FF0010101604FF000
:10018000020080F31488104842680F4802600E4B4A
:10019000186887884FF0100847EA08078780D0F86A
:1001A00000C00CF1240CBCE8FF008CF30988AE46BB
:1001B00087F3038862B6304700BF000020ED00E0FF
:1001C0000000F0F08006002048060020D2B201E0D6
:1001D00000F8012B491EFBD270470022F6E710B54C
:1001E00013460A4604461946FFF7F0FF204610BDA5
:1001F00030B50B46014600202022012409E021FAF7
:1002000002F59D4205D303FA02F5491B04FA02F5F3
:100210002844151EA2F10102F1DC30BD064C074D49
:1002200006E0E06840F0010394E8070098471034C6
:10023000AC42F6D3FFF780FF4C4000087C4000083A
:1002400070B58C1810F8015B15F0070301D110F898
:10025000013B2A1106D110F8012B03E010F8016BC5
:1002600001F8016B5B1EF9D12B0705D40023521E48
:100270000DD401F8013BFAE710F8013BCB1A921CB0
:1002800003E013F8015B01F8015B521EF9D5A142AE
:10029000D8D3002070BD0000EFF3108072B6704715
:1002A000EFF3108062B6704780F3108870471748EC
:1002B0004FF0805101607047EFF3108C72B6144A12
:1002C00012681AB100B590475DF804EBEFF30980AE
:1002D00020E9F01F0F4D2E683060B7884FF01008EE
:1002E00027EA0807B7800B484068286087884FF0E6
:1002F000100847EA080787800168B1E8F01F81F31A
:1003000009888CF31088704700BF000004ED00E0FE
:10031000840600204806002008B50121042001F0D1
:1003200023FE4FF48070ADF8000010208DF803001C
:1003300003208DF802006946014800F05EF908BD0F
:100340000008014010B5FFF7E7FF4FF48071024845
:1003500000F0E2F910BD00000008014000BFFEE718
:1003600008B50121402001F0FFFD4020ADF800005C
:1003700010208DF8030003208DF802006946024822
:1003800000F03BF908BD00000018014010B5FFF770
:10039000E7FF4021014800F0C1F910BD00180140FD
:1003A000704701B502E00098401E009000980028B8
:1003B000F9D108BD08B50121082001F0D5FD4FF4A1
:1003C0008070ADF8000010208DF8030003208DF838
:1003D00002006946074800F010F90121082001F0E9
:1003E000C3FD4FF40070ADF800006946014800F00D
:1003F00004F908BD000C014010B5FFF7DBFF00F069
:100400000DF84FF40071044800F088F94FF4807142
:10041000014800F081F910BD000C014000B585B025
:100420000121880401F090FD0121082001F09CFDCC
:100430004FF48060ADF8100018208DF813000320F1
:100440008DF8120004A91A4800F0D7F84FF40060A4
:10045000ADF8100004208DF8130004A9144800F032
:10046000CCF84FF4E13000900020ADF80400ADF876
:100470000600ADF80800ADF80C000C20ADF80A003D
:1004800069460C4801F02AFF012240F22551094833
:1004900001F0FFFE012240F22441064801F0F9FE7E
:1004A00000F00AF80121034801F092FE05B000BDFA
:1004B000000C01400048004008B54FF4A06001F076
:1004C000CBFC27208DF8000000208DF801008DF86E
:1004D000020001208DF80300684601F085FC08BD8C
:1004E00051B18200A2F1C042126842F001038200C1
:1004F000A2F1C042136009E08200A2F1C04212687A
:10050000034B1A408300A3F1C0431A6070470000F8
:10051000FEFF0F00D0E901121143C26811430269C6
:1005200011434269114382691143C2691143026A4E
:100530001143426A1143826A1143C26A1143026B3A
:10054000114302689200A2F1C0421160816808293B
:100550000BD101688900A1F1C041096841F0400256
:1005600001688900A1F1C0410A60416B0968426BD2
:10057000526841EA0211426B926841EA0221426BE1
:10058000928941EA0241426B128A41EA0251426B6E
:10059000127D41EA0261426B926911430268521C6A
:1005A0009200A2F1C0421160C16AB1F5804F1BD127
:1005B000816B0968826B526841EA0211826B926812
:1005C00041EA0221826B128A41EA0251826B127D5A
:1005D00041EA0261826B9269114302689200A2F1C2
:1005E000C042C2F8041107E06FF070420168890050
:1005F000A1F1C041C1F8042170472DE9F041024644
:1006000000250026002000230024002791F803C0C5
:100610000CF00F0591F803C00CF0100CBCF1000FAA
:1006200003D091F802C04CEA050591F800C0BCF176
:10063000000F31D0146800202BE04FF0010C0CFAB1
:1006400000F3B1F800C00CEA03069E4220D18300FB
:100650004FF00F0C0CFA03F7BC4305FA03FC4CEA0D
:10066000040491F803C0BCF1280F06D14FF0010C2F
:100670000CFA00FCC2F814C00AE091F803C0BCF107
:10068000480F05D14FF0010C0CFA00FCC2F810C065
:10069000401C0828D1D31460B1F800C0BCF1FF0F92
:1006A00034DD546800202EE000F1080C4FF0010802
:1006B00008FA0CF3B1F800C00CEA03069E4221D1FF
:1006C00083004FF00F0C0CFA03F7BC4305FA03FC50
:1006D0004CEA040491F803C0BCF1280F05D100F1E5
:1006E000080C08FA0CF8C2F8148091F803C0BCF1A9
:1006F000480F07D100F1080C4FF0010808FA0CF878
:10070000C2F81080401C0828CED35460BDE8F081A8
:100710000146886880B27047416170470161704747
:1007200010B504460548FFF7F3FF054931F81410EA
:10073000084008B9012010BD0020FCE7000C014072
:100740002806002000BFFEE710B504462CB14FF488
:1007500080510548FFF7E0FF04E04FF48051024864
:10076000FFF7DCFF10BD0000001401402DE9F0414F
:1007700006460F4614461D46DDF818802B462246D5
:100780003946304600F0D5F904FB05F0414600F04B
:100790009CF8BDE8F08101B502E00098401E009091
:1007A00000980028F9D108BD2DE9F05F81468A46FE
:1007B00015461E46A5F1200000F0FF0B102308226D
:1007C0005146484600F0B5F92C2000F00FFB0024FC
:1007D0001AE00F4800EB0B10075D4FF000080EE029
:1007E00007F0010018B10A9800F004FB02E030465F
:1007F00000F000FB7F1008F1010000F0FF08B8F1E5
:10080000080FEDDB601CC4B2102CE2DBBDE8F09FEA
:100810005C3A00082DE9F84305460E4614461F468B
:10082000DDF820801AE028460830F02803DD002596
:1008300006F1100086B230461030B0F5A07F01DD21
:1008400000250026CDF8008022783B463146284618
:10085000FFF7AAFF641C05F1080085B22078002884
:10086000E1D1BDE8F88300B597B00121080201F09D
:100870005BFB0220019000200290052003900020E5
:100880000490059006904FF080500790002008904B
:10089000099008200A9010200B9000200C900E90D8
:1008A0000F9010904FF480501190002012901390F0
:1008B000149001A81590169008A8FFF72BFE0121AF
:1008C0000020FFF70DFE17B000BD70B504460D46C1
:1008D00000262C2000F08AFA00BF03E0284600F032
:1008E00089FA761CA642F9D370BD000008B5012133
:1008F000084601F039FB0121602001F035FB03209F
:100900008DF8020018208DF803004CF20370ADF84A
:10091000000069462C48FFF770FE4FF68070ADF876
:10092000000069462948FFF768FE03208DF80200A1
:1009300018208DF803001020ADF800006946224809
:10094000FFF75BFE2020ADF8000069461E48FFF768
:1009500054FE0121202001F007FB8020ADF80000AB
:1009600069461948FFF749FE0121202001F0FCFAF1
:100970004FF40060ADF8000069461348FFF73DFEF4
:1009800010208DF8030003208DF802000121402083
:1009900001F0EAFA0220ADF8000069460B48FFF7C3
:1009A0002CFE10208DF8030003208DF80200012199
:1009B000202001F0D9FA4FF48050ADF800006946CC
:1009C0000148FFF71AFE08BD00140140001801405D
:1009D00010B50446012C06D0022C29D0032C4CD093
:1009E000042C24D16EE0362000F000FAC82000F07C
:1009F00001FA2A2000F0FAF9002000F0FBF90020AB
:100A000000F0F8F9002000F0F5F9EF2000F0F2F91D
:100A10002B2000F0EBF9002000F0ECF9002000F0B2
:100A2000E9F9012000F0E6F93F2000F0E3F96EE07B
:100A3000362000F0DBF9682000F0DCF92A2000F015
:100A4000D5F9002000F0D6F9002000F0D3F90120FC
:100A500000F0D0F93F2000F0CDF92B2000F0C6F9CE
:100A6000002000F0C7F9002000F0C4F9002000F0D9
:100A7000C1F9EF2000F0BEF949E0362000F0B6F9E8
:100A8000282000F0B7F92A2000F0B0F9002000F08B
:100A9000B1F9002000F0AEF9012000F0ABF93F20E1
:100AA00000F0A8F92B2000F0A1F9002000F0A2F935
:100AB000002000F09FF9002000F09CF9EF2000F0EA
:100AC00099F924E0362000F091F9482000F092F9DD
:100AD0002A2000F08BF9002000F08CF9002000F0B3
:100AE00089F9002000F086F9EF2000F083F92B202F
:100AF00000F07CF9002000F07DF9002000F07AF988
:100B0000012000F077F93F2000F074F900BF00BF2A
:100B10002C2000F06BF910BD10B5FFF7E7FEFFF7D2
:100B2000A2FE0120FFF710FE00F04CF900F032F8B1
:100B300010BD2DE9F04104460D4616461F462A20F9
:100B400000F054F9201200F055F9E0B200F052F92B
:100B5000A119491EC1F30F2000F04CF9A119491E3B
:100B6000C8B200F047F92B2000F040F9281200F03D
:100B700041F9E8B200F03EF9E919491EC1F30F202E
:100B800000F038F9E919491EC8B200F033F9BDE8A0
:100B9000F081000010B5CF2000F028F9002000F00F
:100BA00029F9812000F026F9302000F023F9ED200A
:100BB00000F01CF9642000F01DF9032000F01AF980
:100BC000122000F017F9812000F014F9E82000F05D
:100BD0000DF9852000F00EF9102000F00BF97820B7
:100BE00000F008F9CB2000F001F9392000F002F9FB
:100BF0002C2000F0FFF8002000F0FCF8342000F07A
:100C0000F9F8022000F0F6F8F72000F0EFF82020C5
:100C100000F0F0F8EA2000F0E9F8002000F0EAF82F
:100C2000002000F0E7F8B12000F0E0F8002000F02C
:100C3000E1F81B2000F0DEF8B62000F0D7F80A201B
:100C400000F0D8F8A22000F0D5F8C02000F0CEF8CF
:100C5000352000F0CFF8C12000F0C8F8112000F0D6
:100C6000C9F8C52000F0C2F8452000F0C3F84520BF
:100C700000F0C0F8C72000F0B9F8A22000F0BAF8E0
:100C8000F22000F0B3F8002000F0B4F8262000F0C5
:100C9000ADF8012000F0AEF8E02000F0A7F80F203A
:100CA00000F0A8F8262000F0A5F8242000F0A2F813
:100CB0000B2000F09FF80E2000F09CF8092000F0B7
:100CC00099F8542000F096F8A82000F093F84620F8
:100CD00000F090F80C2000F08DF8172000F08AF852
:100CE000092000F087F80F2000F084F8072000F0BA
:100CF00081F8002000F07EF8E12000F077F8002075
:100D000000F078F8192000F075F81B2000F072F858
:100D1000042000F06FF8102000F06CF8072000F0BD
:100D200069F82A2000F066F8472000F063F83920BF
:100D300000F060F8032000F05DF8062000F05AF89B
:100D4000062000F057F8302000F054F8382000F06A
:100D500051F80F2000F04EF8362000F047F8C82078
:100D600000F048F82A2000F041F8002000F042F896
:100D7000002000F03FF8002000F03CF8EF2000F0E9
:100D800039F82B2000F032F8002000F033F8002072
:100D900000F030F8012000F02DF83F2000F02AF894
:100DA0003A2000F023F8552000F024F8112000F03C
:100DB0001DF80348FFF7EFFC292000F017F810BDDD
:100DC000FCBF020010B502210648FFF7A5FC06484B
:100DD000FFF7E1FC02210348FFF7A0FC0248FFF700
:100DE000DAFC10BD00180140FCBF02004FF0C0410A
:100DF00008807047014908807047000000000260C9
:100E000010B5FFF789FE10BD08B50121082001F0DB
:100E1000ABF82020ADF8000010208DF8030003206F
:100E20008DF8020069460F48FFF7E7FB0120ADF897
:100E3000000069460B48FFF7E0FB0220ADF8000018
:100E400069460848FFF7D9FB20210648FFF766FCF2
:100E500001210448FFF762FC02210248FFF75EFC13
:100E600008BD0000000C014002465018401E904290
:100E700004D95018401E4B1E98437047481E22EA62
:100E80000000FAE710B5024614462046002305E0AC
:100E900001464960096000BF5B1C08301B2BF7D37B
:100EA00010BD2DE9F04105460E462F46304600F0B4
:100EB0008BF804461E2C02D90020BDE8F081042CDA
:100EC00000D80424201F07EBC000F6E742684A6000
:100ED0000860426811604160704742684A6008607B
:100EE000426811604160704742684A600860426829
:100EF00011604160704742684A6008604268116052
:100F00004160704742684A60086042681160416011
:100F10007047D0E900121160D0E900215160002132
:100F2000416001607047D0E900121160D0E90021F2
:100F300051600021416001607047D0E900121160EA
:100F4000D0E90021516000214160016070470146F5
:100F50004868884201D1012070470020FCE7014623
:100F60004868884201D1012070470020FCE7014613
:100F70004868884201D1012070470020FCE74060AA
:100F800000607047406000607047406000607047DC
:100F900040600060704770B504460D4629462068E1
:100FA000FFF794FF70BD70B504460D4629462068D2
:100FB000FFF793FF70BD70B504460D4629462068C3
:100FC000FFF799FF70BD0000014601F0004010B12D
:100FD0006FF0704070474C480840002847D001F03F
:100FE000FE40F8B101F0E04058B101F0804008B196
:100FF0001E20EFE701F0005008B11D20EAE71C2099
:10100000E8E701F0406030B101F0006008B11B205A
:10101000E0E71A20DEE701F0007008B11920D9E7F7
:101020001820D7E701F4700080B101F4400030B11E
:1010300001F4000008B11720CCE71620CAE701F43C
:10104000001008B11520C5E71420C3E701F44020C3
:1010500030B101F4002008B11320BBE71220B9E73A
:1010600001F4003008B11120B4E71020B2E701F418
:101070007F4020B301F4704080B101F4404030B1B2
:1010800001F4004008B10F20A4E70E20A2E701F40C
:10109000005008B10D209DE70C209BE701F4406053
:1010A00030B101F4006008B10B2093E70A2091E70A
:1010B00001F4007008B109208CE708208AE701F0EC
:1010C000F00080B101F0C00030B101F0800008B143
:1010D00007207FE706207DE701F0200008B105200A
:1010E00078E7042076E701F00C0030B101F0080049
:1010F00008B103206EE702206CE701F0020008B19E
:10110000012067E7002065E70000FF7F2DE9F0413F
:1011100005460C460026FFF7BFF8074600BF05B19D
:1011200004B909E004F0004000B105E0214628467A
:1011300001F03FFC064600BF00BF3846FFF7B4F899
:101140003046BDE8F0812DE9F05F80460F46144639
:101150004FF00009CA4600250026FFF79DF8834698
:1011600000BFB8F1000F00D007B91BE0381900F13B
:10117000040909F0004000B114E04946404601F07E
:1011800018FC05462819401E611E20EA0106B542DA
:1011900000D107E0A6EB050A4AF0804A46F804AC05
:1011A000354600BF00BF5846FFF77EF82846BDE829
:1011B000F09F2DE9F04705460C4601270026FFF772
:1011C0006BF8814600BFB04605B104B914E054F88D
:1011D000046C06F0804010B126F08046A41BA4F1F8
:1011E00010084146284601F012FC07461FB929465F
:1011F000404601F080FC00BF00BF4846FFF754F8AE
:101200003846BDE8F0872DE9F047044688460025BA
:1012100000270026A94614B1B8F1FF0F03D84FF0FC
:10122000FF30BDE8F087FFF737F8824626463446A0
:101230003660C6F8048004F10800FFF723FE04F1CD
:10124000E005281BA8EB00001038E8600020A8602B
:1012500004F10800E968FFF724FE8146B9F1000FA8
:1012600005D15046FFF720F84FF0FF30D9E700BF17
:101270002946D9F80000FFF745FE00BF04EB08003F
:10128000A0F11007002038607860B860F860BD6099
:101290001020F860F86840F00040F860384601F02F
:1012A000B5FC5046FFF700F80020BAE72DE9F04101
:1012B00005462F460026002415B90020BDE8F08120
:1012C000FEF7EAFF804607F10806306820B134686F
:1012D00020683060044820604046FEF7E5FF0CB906
:1012E0000020EBE7201DE9E7A55A5AA52DE9F047B4
:1012F00005460E462C46012705B116B90120BDE86A
:10130000F087FEF7C9FF804600BF311F20460A461E
:10131000D0F800C0BCF1000F02D14FF0010C25E065
:1013200000F10C0CA2EB0C03D0F800C0B3FBFCF9ED
:101330000CFB193CBCF1000F02D04FF0010C15E082
:10134000D0F800C0B3FBFCFCD0F80490CC4502D32D
:101350004FF0010C0AE0DFF83490D2F800C0CC4521
:1013600002D04FF0010C01E04FF0000CBCF1000F77
:1013700000D004E0A0680860A160002700BF00BFA3
:101380004046FEF791FF3846B9E70000A55A5AA536
:101390002DE9F04706460F4690463446002516B91B
:1013A0000120BDE8F087B8F1000F01D10120F8E776
:1013B0000C2F01D20120F4E7FEF76EFF824608F100
:1013C000070020F003002060A7F10C002168B0FBAB
:1013D000F1F06060606820B95046FEF765FF0120BB
:1013E000DFE704F10C05A5604FF0000905E0206877
:1013F000284428602D6809F101096068401E4845AD
:10140000F5D8002028605046FEF74EFF0020C8E7C0
:1014100000BFD0E900121160D0E900215160002125
:101420004160016000BF704710B50A46064909686F
:1014300001EBC20319684C68446001604C6820608D
:10144000486000BF00BF10BD3006002001460020EC
:101450000022074B1B6803EBC1035A6801E0401CE4
:101460005268034B1B6803EBC1039342F7D17047EB
:101470003006002000210020014612E00B4A1268CD
:1014800002EBC1004268824201D1012200E0002249
:101490002AB90648006800EBC10040687047481C44
:1014A00001462029EAD30020F8E70000300600209A
:1014B0002DE9F84F81460C4615469A460A9E15B905
:1014C0001948BDE8F88F4FF6FB70864202DD1648DA
:1014D0000938F6E704B116B91348401CF1E7FEF7E6
:1014E000DBFE8046301D82B26B462946204601F065
:1014F0002FFC074627B14046FEF7D6FE3846E0E708
:1015000000981430FFF741FD00981C30FFF73DFDB7
:1015100000982430FFF739FD0098C4814046FEF75B
:10152000C3FE0020CDE700000C0600022DE9FC5FA1
:1015300080460F4691461E4600200090A8F1010B00
:10154000BBF10A0F02D34048BDE8FC9F17B93E48E3
:10155000401CF9E7B9F1000F02D13B48801CF3E7CA
:101560002EB13A48006810B137480A30ECE7FEF770
:1015700093FE01900BEB4B0000EBCB003449096864
:1015800001EB8004A08820B900BF2F480E300090E6
:1015900054E0208A50BB26B900BF2B480F30009082
:1015A0004CE02C48008820B100BF27480838009044
:1015B00044E029480568324604F11C01284601F040
:1015C0001BFC0198FEF770FE00F0E6F8FEF764FEE3
:1015D0000190287900F0400058B1A88820F0400020
:1015E000A88000BF1848C01F009027E0208A401E36
:1015F000208261892289206801FB020ADAF8000052
:1016000038606089401C80B26081E188884201D1E5
:101610000020608104F11400FFF7A1FC50B904F12F
:10162000140001F02BFC0198FEF73EFE00F0B4F828
:10163000002089E7E089401CE08100BF0198FEF7A7
:1016400033FE009880E700000E060002C806002066
:10165000AC06002050060020480600202DE9FC5F63
:1016600081460F4690461E4600200090A9F1010BCE
:10167000BBF10A0F02D34348BDE8FC9F17B94148AC
:10168000401CF9E7B8F1000F02D13E48801CF3E797
:101690002EB13D48006810B13A480838ECE7FEF733
:1016A000FBFD01900BEB4B0000EBCB0037490968C9
:1016B00001EB8004A08820B900BF3248C01C009014
:1016C0005BE02089404504D200BF2E48001D0090F9
:1016D00053E0E08950BB26B900BF2A48401D009066
:1016E0004BE02B48008820B100BF26480B38009003
:1016F00043E028480568324604F11401284601F009
:101700007BFB0198FEF7D0FD00F046F8FEF7C4FD24
:101710000190287900F0400058B1A88820F04000DE
:10172000A88000BF17480A38009026E0E089401ED4
:10173000E081A1892289206801FB020ACAF80070B1
:10174000A089401C80B2A081E188884201D100209C
:10175000A08104F11C00FFF702FC50B904F11C0049
:1017600001F08CFB0198FEF79FFD00F015F80020BA
:1017700082E7208A401C208200BF0198FEF794FD7A
:10178000009879E711060002C8060020AC06002088
:10179000500600204806002010B5FEF77DFD0446E7
:1017A000FFF768FE3C380A49486008460068496807
:1017B000884208D00748008828B92046FEF774FD03
:1017C000FEF775FD10BD2046FEF76EFD00BFF9E780
:1017D00048060020500600202DE9F04106462A4820
:1017E000006800EB06150A2E02D32848BDE8F081F8
:1017F000FEF752FD0746287820B93846FEF754FD1B
:101800002248F3E768884FF6FE71884205D13846D2
:10181000FEF74AFD1D48C01DE8E705F10800FFF787
:10182000A6FB48BBE868A0F13C04E868FFF77BFB37
:10183000A08820F00800A080207900F0400030B19E
:10184000204601F055FFA08820F04000A080002035
:10185000A061207900F0020040B9A08840F00400A7
:10186000A080E18804F13C00FFF7DEFD3846FEF77A
:101870001BFDFFF791FF05E06888401C6880384633
:10188000FEF712FD0020B1E7B806002001070002B4
:1018900010B501F001FF04460CB1204610BDFEF763
:1018A00067FC2046FAE700002DE9F04105460F46A7
:1018B00000263946284600F045F8064616B130465F
:1018C000BDE8F081286800EB800101EBC0001949F8
:1018D000096801EBC004FEF7DFFC8046A08820F019
:1018E0000200A080A08840F00400A080E18804F1FC
:1018F0003C00FFF799FDFFF7BDFD3C380E494860FD
:101900000E48006888B10E48008870B90846006823
:101910004968884209D00A48008830B94046FEF735
:10192000C3FC01F0E7FA0020CAE74046FEF7BCFC22
:101930000020C5E74406002048060020800600205D
:10194000500600202DE9F05F07460D464FF00009D4
:101950004FF0FF3A17B95748BDE8F09F15B9554801
:10196000801FF9E7E86910B95248801EF4E728683B
:1019700010B95048C01EEFE7A8881F2802DD4D4867
:10198000001FE9E7A869B0F5004F02D949481930AE
:10199000E2E7A86910B94FF43470A8610821A8697A
:1019A000FFF762FAA86110214FF49870FFF75CFA14
:1019B000A969884202D93F48401ECDE7FEF76CFC7A
:1019C000834611E03C484068A0F13C043A4948682D
:1019D000FFF79FFA04F13C013848FFF777FA3848DF
:1019E000E1680068FFF7E5FB3348FFF7B0FA00282D
:1019F000E8D03248FFF7ABFA28B1DFF8B8A00AF117
:101A00000A0A00BF51E02D484068A0F13C042B4970
:101A10004868FFF77EFA5846FEF746FCD4F8109067
:101A200008222748A9690068FFF78DFB06465EB9C2
:101A3000FEF732FC834604F13C012048FFF746FAEA
:101A4000DFF880A000BF30E032464846A96901F0C7
:101A5000A1FE8046C4F80080A868A062E968E1623F
:101A60002969216369696163E660A869A060002053
:101A7000A061E06160620220A080A088296A09B1AB
:101A8000802100E000210843A080A888E080286829
:101A900060614FF0FF3020650020E065E869A063D9
:101AA00000206066C7F8009056E75846FEF7FCFB3A
:101AB000504651E707020002700600206806002029
:101AC000BC0600200002000370B5044619480068F7
:101AD00008B1194870BD1948008808B11848F9E7DD
:101AE00014B900F029F9F5E7FEF7D6FB05461549CC
:101AF000096801F13C00FFF78BFC12480068808800
:101B000020F004000F49096888800E4908682146C2
:101B100001F054FB0B480068808840F02000094920
:101B2000096888802846FEF7BFFBFFF735FE0020D6
:101B3000D0E70000C80600200D0200035006002078
:101B40000E0200024806002010B5FEF7A5FB044671
:101B500004480088401C034908802046FEF7A4FB87
:101B600010BD0000500600202DE9F04105464FF061
:101B7000FF370F2D02D92448BDE8F08105EB850021
:101B800000EBC5002149096801EBC004FEF784FBA6
:101B90008046A68806F0010018B11B4FFF1C00BF4D
:101BA0002CE006F0020018B9174FBF1C00BF25E05B
:101BB000A08820F00200A080A08842F22A410840BC
:101BC000B8B9A08840F00400A080E18804F13C008E
:101BD000FFF72AFC0E48006830B14046FEF764FB70
:101BE000FFF7DAFD0020C7E7FFF744FC3C3809495E
:101BF00048604046FEF758FB0020BDE74046FEF730
:101C000053FB3846B8E700000702000244060020F4
:101C100080060020480600202DE9F04105464FF0DF
:101C2000FF372E480068854202D12D48BDE8F0817B
:101C30002C480068854202D129480D30F6E72A4831
:101C40000068854202D326480D38EFE705EB850092
:101C500000EBC5002549096801EBC004FEF71CFB39
:101C60008046A68806F0010018B11D4F0A3F00BF4C
:101C70002FE006F0020018B1194F0C3F00BF28E01A
:101C800006F0100028B11A48008810B1194F00BFA3
:101C90001FE006F0040038B104F13C00FFF7B8FB88
:101CA000A08820F00400A080A08840F00200A0805E
:101CB000114800680069A84206D14046FEF7F4FAD0
:101CC000FFF76AFD0020B1E74046FEF7EDFA00207D
:101CD000ACE74046FEF7E8FA3846A7E7580600208A
:101CE000140200025C060020540600204406002076
:101CF00050060020150200034806002010B5FEF72C
:101D0000CBFA04460B48008800280DDD09480088FE
:101D1000401E084908800846008828B92046FEF77A
:101D2000C3FAFFF739FD10BD2046FEF7BDFA00BF2C
:101D3000F9E700005006002070B500241C48006838
:101D400000691C490968884201D31B4870BDFEF731
:101D5000A3FA054616490968C888FFF777FB0446C9
:101D6000012C17D91249096801F13C00FFF7D1F89D
:101D70000F480068808840F004000D490968888099
:101D80000B4A1268D1880A4A126802F13C00FFF738
:101D90004BFB05E02846FEF787FA07480930D5E7F0
:101DA0002846FEF781FAFFF7F7FC0020CEE7000097
:101DB00048060020540600200702000200BFFEE78C
:101DC000704708B54FF4A06000F046F825208DF864
:101DD000000001208DF801008DF802008DF803004D
:101DE000684600F001F808BD70B5002100230F22FD
:101DF000C47804B3154C246804F4E064C4F5E064CA
:101E0000210AC1F10403CA40447804FA03F184783A
:101E10001440214309010E4C0678A155047804F0C2
:101E20001F050124AC4005786D11AD0005F1E025DA
:101E3000C5F8004109E0047804F01F050124AC4016
:101E4000044D0678761145F8264070BD0CED00E093
:101E500000E400E080E100E002490143024A116031
:101E6000704700000000FA050CED00E010B500F02E
:101E700001F810BD00202A4908702A484860002057
:101E8000087228492648C16003202549087425495D
:101E90002348416103202249087622492048C16134
:101EA00001201F4981F820001E491D48416202207F
:101EB0001B4981F828001B491948C16201201849B3
:101EC00081F830001749164841630320144981F80E
:101ED000380014491248C1630320114981F84000B9
:101EE00010490F48416400200D4981F848000D4910
:101EF0000B48C16403200A4981F850000949084889
:101F000041650020064981F8580006490448C1652A
:101F10000220034981F86000024901484166704788
:101F2000D00600209A99993E29B1064A5269024387
:101F3000044B5A6104E0034A52698243014B5A61DF
:101F4000704700000010024029B1064AD2690243DE
:101F5000044BDA6104E0034AD2698243014BDA613F
:101F6000704700000010024029B1064A92690243FE
:101F7000044B9A6104E0034A92698243014B9A61DF
:101F8000704700000010024030B5002100220024FC
:101F900000232D4D6D6805F00C0121B1042905D0F9
:101FA000082923D105E0294D056022E0274D056071
:101FB0001FE0254D6D6805F47012234D6D6805F422
:101FC0008034022505EB92421CB9214D5543056032
:101FD0000BE01D4D6D6805F400351DB11C4D5543DA
:101FE000056002E0194D5543056002E0174D05609C
:101FF00000BF00BF144D6D6805F0F0010909154DD3
:102000006B5C0568DD4045600F4D6D6805F4E0616F
:10201000090A104D6B5C4568DD4085600A4D6D68AE
:1020200005F46051C90A0B4D6B5C4568DD40C56025
:10203000054D6D6805F44041890B074D6B5CC56823
:10204000B5FBF3F5056130BD0010024000127A00C7
:1020500000093D000006002010060020704710B562
:1020600000F002F810BD00000CB5002001900090B7
:102070003348006840F480303149086000BF304880
:10208000006800F4003000900198401C0190009816
:1020900018B90198B0F5A06FF1D12948006800F493
:1020A000003010B10120009001E000200090009865
:1020B000012843D12348006840F0100021490860FE
:1020C0000846006820F0030008600846006840F0F9
:1020D000020008601A48406819494860084640688C
:1020E00048600846406840F48060486008464068A0
:1020F00020F47C1048600846406840F4E8104860CE
:102100000846006840F08070086000BF0C48006816
:1021100000F000700028F9D00948406820F0030062
:10212000074948600846406840F00200486000BF28
:102130000348406800F00C000828F9D10CBD0000ED
:10214000001002400020024010B50848D0E90030DD
:102150005A1C40F100000549C1E9002001F0ECFAE9
:1021600001F0AEF901F018F810BD0000880600205B
:1021700010B51348006840F0010011490860084696
:102180004068104908400E494860084600680E49FA
:1021900008400B4908600846006820F48020086069
:1021A0000846406820F4FE0048604FF41F00886035
:1021B000FFF755FF4FF000600449086010BD0000B4
:1021C000001002400000FFF8FFFFF6FE08ED00E0FF
:1021D00021B1828942F40052828104E082894DF665
:1021E000FF731A408281704700B585B00121042039
:1021F000FFF7BAFE01218803FFF7B6FE4FF4007027
:10220000ADF8100018208DF8130003208DF812008F
:1022100004A91748FEF7F1F94FF48060ADF81000FB
:1022200004208DF8130004A91148FEF7E6F94FF4D5
:10223000E13000900020ADF80400ADF80600ADF8E4
:102240000800ADF80C000C20ADF80A0069460948FA
:1022500000F044F8FFF7B5FD012240F22551054892
:1022600000F017F801210348FFF7B2FF05B000BDE9
:10227000000801400038014002460020B1F5007F0F
:1022800000D100BF13880B400BB1012000E00020FB
:102290007047F0B50346002400260025002040F6D4
:1022A0006A17B94200D100BF1846C1F3421401F0C9
:1022B0001F06012707FA06F5012C01D10C3004E0B6
:1022C000022C01D1103000E014301AB107682F43FE
:1022D000076002E00768AF430760F0BD2DE9F047F3
:1022E00086B005460E460024A24600BFA146002740
:1022F000B08900B100BF2F462C8A4CF6FF70044015
:10230000F08804432C82AC894EF6F3100440B08868
:1023100031890843718908430443AC81AC8A4FF684
:10232000FF400440B0890443AC8201A8FFF72CFEB3
:102330001F48874202D1DDF810A001E0DDF80CA0B3
:10234000A88900F4004040B10AEBCA0000EB0A1073
:1023500031684900B0FBF1F807E00AEBCA0000EB76
:102360000A1031688900B0FBF1F86420B8FBF0F086
:1023700004012009642101FB1089A88900F40040B0
:1023800040B1322000EBC900B0FBF1F000F00700D3
:10239000044308E0322000EB09106421B0FBF1F0A7
:1023A00000F00F0004432C8106B0BDE8F087000068
:1023B00000380140C1F308028280704700BFFEE789
:1023C00070B504460D4629462046FFF7F3FF00BFCF
:1023D00080212046FFF750FF0028F9D070BD000093
:1023E0000FB4054B10B503A9044A029800F02CF86D
:1023F00010BC5DF814FB000095260008CC060020F8
:102400000FB4084B10B504A902AA039800F01CF8F9
:10241000044602A9002000F0F3F8204610BC5DF845
:1024200014FB00000126000802E008C8121F08C1C2
:10243000002AFAD170477047002001E001C1121F45
:10244000002AFBD1704700002DE9FF4F8BB09A4660
:102450000F460546002606E025280BD052460D996A
:1024600090476D1C761C28780028F5D10FB03046B7
:10247000BDE8F08F0024A0460122604900E004433B
:1024800015F8013F203B02FA03F00842F7D1287803
:102490002E2817D115F8010F44F004042A280ED075
:1024A0006FF02F022878A0F1300109290AD808EB33
:1024B000880102EB410100EB01086D1CF2E757F8BF
:1024C000048B6D1C287869283ED006DC0028CDD00E
:1024D00063280BD0642804D136E0732810D0752807
:1024E0004BD052460D999047761C85E017F8040BA7
:1024F0008DF8000000208DF80100E946012003E07E
:1025000057F8049B4FF0FF3061074FF0000401D4EF
:102510000AE0641C44450DDA8442FADB19F8041021
:102520000029F6D106E0641C8442FCDB19F8041093
:102530000029F8D1264404E019F8010B52460D9900
:102540009047641EF8D257E001CF4FF00A0B0028E5
:1025500002DA40422D2102E0210504D52B218DF81D
:102560002410012103E0E10705D02021F7E70DF158
:10257000200908910CE00021F9E701CF4FF00A0B88
:10258000F9E75946FDF734FE01F1300209F8012D53
:102590000028F6D1ADEB090000F1200B600701D453
:1025A0004FF00108D84502DDA8EB0B0000E0002049
:1025B0008046002406E009A85246005D0D99904728
:1025C000641C761C08988442F5DB04E030205246F7
:1025D0000D999047761CB8F10001A8F10108F5DCCF
:1025E00005E019F8010B52460D999047761CBBF196
:1025F0000001ABF1010BF4DC6D1C34E7092801008C
:102600000A68531C0B6010707047000010B58AB048
:1026100000240520ADF8080009A008900A480190A0
:102620004FF4347007908020099001A90748FFF704
:102630003BF9044614B120460AB010BD2046FBE722
:102640007461736B310000001D380008180600200B
:1026500010B58AB000240620ADF8080009A0089043
:102660000A4801904FF4347007908020099001A926
:102670000748FFF719F9044614B120460AB010BD07
:102680002046FBE77461736B32000000ED380008F0
:102690001C06002070B504460D46E1B20548FFF760
:1026A00089FE00BF80210348FFF7E6FD0028F9D02E
:1026B000204670BD00380140034A02EBC1030CCB39
:1026C000C0E9002370470000D006002008B5FEF7DF
:1026D0009BFBFFF789FDFDF759FEFEF791FBFDF728
:1026E0008BFEFDF72FFEFFF7C1FB0120FEF770F90F
:1026F0004FF6FF704FF4A073F022002100900846BF
:10270000FEF734F84FF478404FF6FF731DA20A210C
:1027100000900020FEF77EF81F204FF6FF7320A2E6
:10272000282100900A20FEF775F81F204FF6FF734E
:1027300021A23C2100900A20FEF76CF81F204FF6E2
:10274000FF7323A2502100900A20FEF763F81F2098
:102750004FF6FF7325A2642100900A20FEF75AF875
:102760001F204FF6FF7327A2782100900A20FEF762
:1027700051F8202029490860012008600220091D25
:10278000086008BD202057656C636F6D6520746F0D
:1027900020487561776569204C6974654F53210045
:1027A00043757272656E7420506F736974696F6ED1
:1027B0002069733A200000004C6566742053656EF2
:1027C000736F7220537461742069733A20000000A3
:1027D000466F72776172642053656E736F72205317
:1027E0007461742069733A20000000004261636BD9
:1027F0002053656E736F7220537461742069733A4D
:102800002000000052696768742053656E736F7210
:1028100020537461742069733A200000100C014049
:1028200010B500F093F804460CB1012010BD00F083
:1028300005F8FFF72DF800BFFEE7000010B50024F3
:10284000FFF744FF2020094908600948FDF7A9FD6A
:10285000FFF7DCFE04460CB1204610BDFFF7F8FE82
:1028600004460CB12046F8E70020F6E7140C0140BE
:10287000FFFF0F00FDF766FC00BFFEE7102004E03D
:102880000649074A42F82010401CFF28F8D904499D
:10289000044A11600449121D116070477528000830
:1028A0000000002008ED00E00007FA0500BFFEE789
:1028B00010B58AB0242101A8FDF78FFC0A480190C9
:1028C0004FF4A060079009A008901F20ADF8080001
:1028D00001A90948FEF7E8FF044614B120460AB0F2
:1028E00010BD0020FBE70000AD28000849646C65BE
:1028F000436F7265303030005806002070B5FDF728
:10290000CBFC05460F480068401C0E49086028466D
:10291000FDF7CAFCFDF716FC04460B4850F82400EE
:1029200018B1094951F824008047FDF7B5FC054668
:1029300004480068401E034908602846FDF7B4FCBF
:1029400070BD0000C80600208088002010B500F08F
:10295000C3FA00F099F904460CB1204610BDFFF708
:102960008DFF00F0E1FC04460CB12046F6E700F0D4
:10297000C5FA04460CB12046F0E700F097F904468A
:102980000CB12046EAE700F01BFA04460CB12046E1
:10299000E4E700F0DFFA04460CB12046DEE700F081
:1029A000F1FEFFF785FF04460CB12046D6E7002074
:1029B000D4E72DE9F04107460E46002406F1130046
:1029C00020F003052946384600F06DF8044614B996
:1029D0000020BDE8F08105F11400E168814204D3D4
:1029E0002A462146384600F021F92046FEF7A5FA8E
:1029F000204600F00BF9E06840F00040E060E1683C
:102A000021F0004000F03EFD04F11000E1E72DE967
:102A1000F84F05460C462E4605F1E008706828443C
:102A2000A0F1100A706847194FF000092B46524672
:102A300041462046009700F0B7F810B90120BDE8E4
:102A4000F88FE06800F0004008B90120F7E7E0687F
:102A500020F0004000EB04092B4652464146484610
:102A6000009700F0A1F808B90120E8E7D9F80800BC
:102A7000A04201D00120E2E7444512D000972B4646
:102A800052464146A06800F08FF808B90120D6E709
:102A9000A068C16821F000410844A04201D0012093
:102AA000CDE70020CBE770B505460E460024314641
:102AB00005F10800FEF7F5F9044618E0002061680A
:102AC000084605E0C168B14200D370BD41680846C0
:102AD000A042F7D105F108002146024602F1D003D9
:102AE0008B4201D1002301E001F108031C46002CB8
:102AF000E4D10020E9E72DE9F04104460E46002725
:102B0000B846E16821F0004000F0A2FCE06820F047
:102B10000040E060A06848B3A068C06800F00040D2
:102B200020BBA568204600F05EF8E86820F0004071
:102B30004719F86800F0004028B93846FEF7FDF95B
:102B4000384600F050F82846FEF7F7F906F108007D
:102B5000E968FEF7A6F98046B8F1000F01D1BDE89B
:102B6000F08129464046FEF7CDF91BE0E06820F0F1
:102B700000400719F86800F0004028B93846FEF711
:102B8000DCF9384600F02FF806F10800E168FEF79E
:102B900088F98046B8F1000F00D1E0E721464046B1
:102BA000FEF7B0F900BFDAE730B50446039DA14255
:102BB00001D8944201D9002030BDE06800F0004007
:102BC00038B120686040401C08B10020F4E70120C3
:102BD000F2E72068984202D32068A84201D300207F
:102BE000EAE70120E8E700218268D268C3681A4456
:102BF0008368DA60C268111882688A6000BF0022A8
:102C000002604260826000BF70470000C143016003
:102C10000549096821B1044909680969416002E070
:102C20004FF0FF3141607047480600202DE9F04722
:102C300080460D46164600240027A146AC19A56023
:102C4000E868801BE060EE60E06820F00040071953
:102C5000BC60F86800F0004028B93846FEF76DF90E
:102C60003846FFF7C0FF08F10800E168FEF719F9E0
:102C70008146B9F1000F01D1BDE8F08721464846F1
:102C8000FEF740F900BFF7E710B5064806490860AF
:102C90004FF4004104480068FEF7B5FA04462046A8
:102CA00010BD000040080020BC06002070B512488E
:102CB000FEF768F9F02111480068FEF727FA10497D
:102CC00008600846006808B90E4870BD00240EE090
:102CD00004EB44000A49096801EBC0056C60002060
:102CE000287005F108010448FEF75DF9641C0A2C00
:102CF000EED30020E9E70000A4060020BC06002077
:102D0000A0060020001D000270B5002400254FF42D
:102D1000807529460C480068FEF7F8F90B490860F1
:102D20000846006800B970BD0020044608E0074965
:102D3000096801EBC4004060006000BF601C0446ED
:102D4000202CF4D300BFEEE7BC06002030060020A4
:102D50002DE9F04706468846174699461548046807
:102D6000002507E0A08818B9681CC8F8000003E037
:102D70006D1C2C340A2DF5D300BF0A2D02D10E484C
:102D8000BDE8F0872C212046FDF727FA06FB07F166
:102D90000A480068FEF7BAF92060206810B90648B2
:102DA000801EEDE7E68027810120A080C9F8004061
:102DB0000020E5E7AC06002004060002BC06002067
:102DC00010B54FF4DC7109480068FEF79FF9084917
:102DD00008600846006808B9064810BD4FF4DC7169
:102DE00003480068FDF7F9F90020F6E7BC0600206B
:102DF000AC060020010600022DE9F04104460D4614
:102E000017464FF00008002604F13C00FEF700FBD7
:102E1000A08820F00400A08004F13C08A08840F4C1
:102E20000050A0802846FEF79AF830B100BF414616
:102E30002868FEF759F800BF14E06868A0F13C0666
:102E400007E0E088F188884200DA06E0306CA0F103
:102E50003C0606F13C00A842F3D100BF4146F06BAE
:102E6000FEF742F8781C38B1A08840F04000A080FE
:102E70003946204600F0A2F9BDE8F08170B505465C
:102E80006868A0F13C046868D0E900121160D0E9DC
:102E90000021516000214160016000BFA08820F442
:102EA0000050A080207900F0400030B1204600F0B2
:102EB0001FFCA08820F04000A080207900F00200D4
:102EC00040B9A08840F00400A080E18804F13C00F3
:102ED000FEF7AAFA70BD00001020034908600348FD
:102EE0000349086070470000540600204088002015
:102EF000C006002010B5FDF7DAF910BD70B5114815
:102F0000FEF746F8A02110480068FEF7FFF80F49C9
:102F100008600846006808B90D4870BD00240CE040
:102F20000A48006800EB04156C600020287005F169
:102F300008010448FEF73FF8641C0A2CF0D3002077
:102F4000EBE70000B0060020BC060020B806002019
:102F5000000700022DE9F8430020224908604FF4E1
:102F60000078414620480068FEF7D0F8044614B9BE
:102F70001E48BDE8F88341462046FDF72EF91C485F
:102F800004601C480460002020812546203401276D
:102F900005E027812C602546781C87B22034102F4D
:102FA000F7DB0822D0211448FEF7F2F9064616B1E5
:102FB0000E48C01CDDE704200023104A10210090B9
:102FC0001846FEF775FA064616B10848001DD0E708
:102FD00000F06EF8064616B10448401DC9E700200F
:102FE000C7E7000040060020BC06002007030002DF
:102FF000380600203C060020700700203406002020
:1030000010B50022002183793BB9437913B143798C
:10301000022B02D14369C36001E00369C3600F4B17
:1030200019680AE0CB68C468A34200D907E0C36806
:10303000CC681B1BC3600A4609680029F2D100BF97
:10304000016019B1CB68C4681B1BCB6012B9034B7C
:10305000186000E010600223037110BD40060020DC
:103060000EB50020029000BF4FF0FF33042202A9EA
:103070000D480068FEF75AFA0446002CF4D1029875
:103080000028F1D0029800680090029840680190F2
:1030900006480299FEF72AF900980028E4D0DDE9F5
:1030A00000108847E0E70000340600207007002089
:1030B00010B58AB0242101A8FDF78FF809480190C6
:1030C0004FF43470079008A008900020ADF8080075
:1030D0008020099001A90748FEF7E6FB0446204638
:1030E0000AB010BD613000085377745F5461736B90
:1030F000000000005C06002070B51F48046836E040
:103100001D49206808601D48FEF7D0F805467DB1CE
:10311000E0692860A06968600023042229461848F5
:103120000068FEF79BFA18B129461448FEF7DEF84E
:103130006079A0B9204600F025F820894FF6E071AB
:10314000884203DA2089103020810EE02089C117DF
:1031500000EB11710911A0EB0111218105E0A079AB
:10316000401CA0712046FFF74BFF0348046814B1D0
:10317000E0680028C4D070BD400600207007002021
:1031800034060020034909680160024908600021F3
:10319000017170473C06002010B50748006848B12F
:1031A00005480068C068401E03490968C86008B93E
:1031B000FFF7A2FF002010BD400600202DE9F047D8
:1031C0000446884608F01F074FEA581907B101E086
:1031D000A9F10109E06C00F0784040EA0900E064E0
:1031E00025488088074407F01F07E06C67F3DF601D
:1031F000E0642148006800EBC7067068B04205D162
:1032000004F144013046FDF7C6FE33E07068A0F1DA
:10321000440500BFE86C20F07840E16C21F0784173
:1032200088420CD8E06C20F07840E96C21F07841BD
:10323000401AE16C01F078410843E0640CE0E86C6E
:1032400020F07840E16C21F07841401AE96C01F0FF
:1032500078410843E86406E0A86CA0F1440505F154
:103260004400B042D6D100BF04F1440105F144004E
:10327000FDF791FEBDE8F087780600202DE9F041CA
:10328000054605EB850000EBC5002349096801EB05
:10329000C004E06930B1666904F128000FC8B04786
:1032A000206204E0666904F128000FC8B047207965
:1032B00000F0800050B1FCF7EFFF074600201749EF
:1032C00008803946206900F069F922E0FCF7E4FF44
:1032D00007460020114908803846FCF7E5FFFEF755
:1032E00033FCE06928B1E1694868FEF775FA00200F
:1032F000E061207900F0040038B104F13C00FEF7F1
:1033000087F8A08820F00400A080FEF7F7FCFEF705
:1033100043FABDE8F081000044060020500600207A
:1033200072B600BFFEE7000070B540480068401C60
:10333000682100FB01F631463D480068FDF7E6FED6
:103340003C4908600846006808B93B4870BD3146F2
:1033500038480068FCF741FF3848FDF710FE384850
:10336000FDF70DFE3748FDF70AFE002420E001209E
:1033700004EB840101EBC4012E4A126802EBC10187
:10338000888004EB840000EBC4002A49096801EB43
:10339000C000046104EB840000EBC400254A1268FD
:1033A00002EBC00000F13C012548FDF7F4FD641C70
:1033B0000F2CDCD924480021016041601B480068C3
:1033C00000EB800101EBC0001A49096801EBC00065
:1033D0001D4908600846006804611120096888805A
:1033E000202019490968C880FFF78EFC4FF48076C9
:1033F00031460F480068FDF789FE05460DB90E48B5
:10340000A4E731462846FCF7E8FE10480560002096
:103410000E498880002404E02846FDF7B0FD641CB6
:103420000835202CF8D3002090E700005406002037
:10343000BC060020440600200002000360060020B5
:10344000680600207006002048060020780600204C
:103450000146094A126810690F2800D97047074AC7
:10346000126802B1FAE7064A52F82020521A044BB9
:1034700043F8202000BFF1E748060020C8060020DE
:103480004088002001460B4A126802B970470A4A78
:10349000126802B1FAE7074A126810690F2800D9CA
:1034A000F4E7064A52F820200A44044B43F820204F
:1034B00000BFEBE748060020C80600204088002037
:1034C0002DE9F041002734498988481CC11700EBD9
:1034D000D1614911A0EB41112F4A9180104600683B
:1034E0001146898800EBC1056868A84201D1BDE892
:1034F000F0816868A0F1440443E0A688E06C20F005
:10350000784018B1E06C401EE0643EE004F14400F5
:10351000FDF7FFFC06F0080058B1A08820F0080075
:10352000A08004F13C00FDF7F4FC0020A061606283
:1035300017E006F4806020B1A08820F48060A080AD
:103540000FE006F4005040B104F13C00FDF7E1FC4F
:10355000A08820F40050A08003E0A08820F0200084
:10356000A08006F0020048B9A08840F00400A080C6
:10357000E18804F13C00FDF757FF01276868A0F1DE
:10358000440404F14400A842B7D100BF0FB1FEF7D4
:1035900003F900BFABE70000780600202DE9F041F9
:1035A00005460F4605EB850000EBC5003649096866
:1035B00001EBC004A68806F0040040B104F13C0011
:1035C000FDF726FFA08820F00400A0800DE042F265
:1035D0000800304048B104F13C00FDF79AFC06F0C9
:1035E000600010B1204600F083F8A08820F00200AF
:1035F000A080A08840F00100A0804FF0FF3020653F
:103600000020E065FDF736FF3C382049486020790E
:1036100000F0100040B304F13C011D48FDF7BBFC75
:103620001C48006800EB800101EBC00016490968E6
:1036300001EBC00015490860084600680561A088D4
:10364000096888801149E0680968C8600F49A06B63
:10365000096888630120A0803846FCF725FEFFF743
:1036600049FC0020BDE8F081207900F0010030B174
:103670003846FCF719FEFFF73DFC0020F2E738461C
:10368000FCF712FE0020EDE744060020480600206B
:1036900070060020540600200D480E49C8630E48ED
:1036A0000E49C8630E480F49086000210E4A116098
:1036B0005160401E4FF0E021486170200B490870B6
:1036C00000204FF0E021886107200861002070474A
:1036D000FD28000800000020492100088088002003
:1036E00040190100C40600208806002023ED00E0F8
:1036F0002DE9F0410446E06CC70E0E48006800EB6F
:10370000C706A06CB0420ED0A06CA0F14405E86CD6
:1037100020F07840E16C21F078410844E96C01F038
:1037200078410843E86404F14400FDF7F2FBBDE88A
:10373000F08100007806002010B50F4800680F499E
:10374000096888420BD00D4800680B49086008469C
:10375000C1880B4800880844401E074988800648F5
:1037600081880748008880B2814204D10020024944
:103770000860FEF7E1FA10BD980600204806002018
:10378000880600200020024908600A20C88070478F
:103790009806002030B50446012304E04FF0CA35F6
:1037A00042F823505B1CB3EB910FF7D34FF0CC35AD
:1037B00015605518A5F144004FF0043505604FF031
:1037C000053545604FF0063585604FF00735C5601B
:1037D0004FF0083505614FF0093545614FF0103560
:1037E00085614FF01135C5610025056244624FF0D7
:1037F000013585626D00C5624FF0033505634FF0FA
:1038000012354563034D8563034DC5634FF08075E5
:10381000056430BD213300087D32000830B587B023
:10382000002500244EE0224627A104A8FEF7E8FD6B
:103830004FF478404FF6FF7304AA28210090C82067
:10384000FCF7E8FF0D2C20D2641C20201F490860E3
:103850000120091D08600220091F0860E1B26846C6
:10386000FEF72AFFDDE90001CDE902019DF808100D
:103870001748FEF7A5FD00204FF6FF7315A2A02103
:1038800000901E20FCF7C6FF14E000204FF6FF73E7
:1038900013A2A02100901E20FCF7BCFF20200B49A2
:1038A0000860012008600220091D086032210848D4
:1038B000FEF786FD40F6AC50FEF706F905460DB161
:1038C00007B030BDAFE7000025640000100C0140D8
:1038D0000038014052756E6E696E677E7E00000092
:1038E0004172726976656421210000007FB500266F
:1038F00000248CE000250020FCF712FF044622463D
:1039000043A101A8FEF77CFD4FF478404FF6FF730A
:1039100001AA3C210090C820FCF77CFF2543012030
:10392000FCF7FEFE0446224639A101A8FEF768FD19
:103930004FF478404FF6FF7301AA50210090C82041
:10394000FCF768FF25430220FCF7EAFE0446224606
:103950002FA101A8FEF754FD4FF478404FF6FF73F6
:1039600001AA64210090C820FCF754FF25430320DE
:10397000FCF7D6FE0446224625A101A8FEF740FD2D
:103980004FF478404FF6FF7301AA78210090C820C9
:10399000FCF740FF2543FDB11E480088E0B1202020
:1039A0001D4908600120091F086002200860C1014C
:1039B0001A48FCF7B3FE32211948FEF701FD00203A
:1039C0001449088017480068FEF726F90646BEB17C
:1039D00015A0FEF705FD7FBD0E48008880B90120C7
:1039E0000C49088001020D48FCF796FE0D4800685E
:1039F000FEF7BAF806461EB112A0FEF7F1FCEAE7A0
:103A00006420FEF761F8064606B1E4E700BF71E7FF
:103A10002564000026060020140C01400008014027
:103A2000003801401806002053757370656E6420DD
:103A30005461736B4869204661696C65642E0D0A98
:103A400000000000526573756D65205461736B480A
:103A500069204661696C65642E0D0A000000000053
:103A6000000000000000000000000000000000183E
:103A70003C3C3C18180018180000000000000066CC
:103A80006666000000000000000000000000006CFE
:103A90006CFE6C6C6CFE6C6C000000000018183C36
:103AA00066060C183060663C1818000000000E1BFB
:103AB0005B6E30180C76DAD8700000000000001C35
:103AC00036361C06F66666DC0000000000000018B2
:103AD0001818000000000000000000000000003086
:103AE00018180C0C0C0C0C18183000000000000CFE
:103AF0001818303030303018180C0000000000006A
:103B0000006C38FE386C000000000000000000006F
:103B10000018187E181800000000000000000000C7
:103B200000000000000038383018000000000000DD
:103B30000000007E00000000000000000000000007
:103B400000000000000038380000000000000060A5
:103B500060303018180C0C060600000000000078D9
:103B6000CCECECCCDCDCCC780000000000000030B9
:103B7000383E303030303030000000000000003C73
:103B800066666030180C067E000000000000003CF5
:103B9000666660386066663C000000000000000C4D
:103BA0000C6C6C6C66FE6060000000000000007E23
:103BB0000606063E6060301E00000000000000386F
:103BC000180C3E666666663C000000000000007E41
:103BD00060303018180C0C0C000000000000003C95
:103BE00066666E3C7666663C000000000000003CA5
:103BF000666666667C30181C00000000000000004D
:103C000000383800000038380000000000000000D4
:103C1000003838000000383830180000000000601C
:103C200030180C060C183060000000000000000086
:103C300000007E007E000000000000000000000682
:103C40000C18306030180C06000000000000003C2A
:103C50006666301818001818000000000000007E8A
:103C6000C3C3F3DBDBF303FE000000000000001819
:103C70003C6666667E666666000000000000003EE8
:103C80006666663E6666663E000000000000003C18
:103C9000666606060666663C000000000000001E20
:103CA000366666666666361E000000000000007E0E
:103CB0000606063E0606067E000000000000007EA6
:103CC0000606063E06060606000000000000003C50
:103CD000666606067666667C0000000000000066E8
:103CE0006666667E66666666000000000000003C50
:103CF000181818181818183C000000000000006080
:103D0000606060606066663C000000000000006665
:103D10006636361E36366666000000000000000675
:103D2000060606060606067E00000000000000C625
:103D3000C6EED6D6D6C6C6C600000000000000C635
:103D4000C6CEDEF6E6C6C6C6000000000000003C97
:103D5000666666666666663C000000000000003E1F
:103D60006666663E06060606000000000000003C8F
:103D7000666666666666663C306000000000003E6F
:103D80006666663E36666666000000000000003C1F
:103D900066060C183060663C000000000000007EE3
:103DA00018181818181818180000000000000066ED
:103DB000666666666666663C000000000000006697
:103DC0006666666666663C1800000000000000C675
:103DD000C6C6D6D6D66C6C6C00000000000000662B
:103DE000662C181834666666000000000000006645
:103DF0006666663C18181818000000000000007E77
:103E0000606030180C06067E000000000000003CD8
:103E10000C0C0C0C0C0C0C0C0C0C3C0000000006E8
:103E2000060C0C1818303060600000000000003CE8
:103E3000303030303030303030303C0000183C66AC
:103E40000000000000000000000000000000000072
:103E500000000000000000000000FF00001C1830FF
:103E60000000000000000000000000000000000052
:103E7000003C60607C66667C00000000000000067C
:103E8000063E66666666663E0000000000000000B2
:103E9000003C66060606663C00000000000000606C
:103EA000607C66666666667C0000000000000000BC
:103EB000003C66667E06063C0000000000000078BC
:103EC0000C0C0C7E0C0C0C0C000000000000000020
:103ED000007C66666666667C60603E0000000006E8
:103EE000063E6666666666660000000000001818FA
:103EF000001E18181818187E00000000000030304E
:103F0000003C30303030303030301E0000000006D1
:103F1000066666361E366666000000000000001E5B
:103F2000181818181818187E00000000000000006B
:103F3000007ED6D6D6D6D6C600000000000000000F
:103F4000003E6666666666660000000000000000CF
:103F5000003C66666666663C0000000000000000EB
:103F6000003E66666666663E0606060000000000C5
:103F7000007C66666666667C60606000000000002B
:103F80000066760E0606060600000000000000002F
:103F9000007C06063C60603E000000000000000C53
:103FA0000C7E0C0C0C0C0C780000000000000000D3
:103FB000006666666666667C000000000000000021
:103FC0000066666666663C1800000000000000009F
:103FD00000C6D6D6D6D66C6C0000000000000000EB
:103FE0000066663C183C66660000000000000000A9
:103FF000006666666666663C30180F0000000000CA
:10400000007E6030180C067E0000000000000030CA
:104010001818180C060C18181830000000000018AA
:104020001818181818181818181818000000000C7C
:104030001818183060301818180C00000000008E96
:10404000DB71000000000000000000007C40000860
:104050000000002000040000400200089840000812
:1040600000060020D0000000282400086841000855
:10407000D0060020B08900003824000841134D010B
:104080000C10087528040110A9180B14B90224019A
:10409000FF01FF01FF01B300000000000102030463
:1040A00001020304060708090204060800000000D4
:1040B00000000000000000000000000000000100FF
:1040C0000010002000400080000000000000000000
:1040D00000000000000000000000000000000000E0
:1040E00000000000000000000000000000000000D0
:1040F00000000000000000000000000000000000C0
:1041000000000000000000000000000000000000AF
:10411000000000000000000000000000000000009F
:10412000000000000000000000000000000000008F
:10413000000000000000000000000000000000007F
:10414000000000000000000000000000000000006F
:10415000000000000000000000000000000000005F
:08416000000000000000000057
:0400000508000131BD
:00000001FF
