:020000040800F2
:10000000D08F00204D010008D11C0008E707000830
:10001000CD1C000819030008F121000800000000B1
:10002000000000000000000000000000911E000819
:100030004905000800000000B90200087D1F000803
:1000400067010008670100086701000867010008F0
:1000500067010008670100086701000867010008E0
:1000600067010008670100086701000867010008D0
:1000700067010008670100086701000867010008C0
:1000800067010008670100086701000867010008B0
:1000900067010008670100086701000867010008A0
:1000A0006701000867010008670100086701000890
:1000B0006701000867010008670100086701000880
:1000C0006701000867010008670100086701000870
:1000D0006701000867010008670100086701000860
:1000E0006701000867010008670100086701000850
:1000F0006701000867010008670100086701000840
:10010000670100086701000867010008670100082F
:10011000670100086701000867010008670100081F
:10012000670100086701000867010008670100080F
:10013000DFF80CD000F072F80048004709250008ED
:1001400000060020EFF30580704700000648804756
:1001500006480047FEE7FEE7FEE7FEE7FEE7FEE7AC
:10016000FEE7FEE7FEE7FEE7A51F000831010008F5
:10017000124C134D256013484FF0010101604FF000
:10018000020080F31488104842680F4802600E4B4A
:10019000186887884FF0100847EA08078780D0F86A
:1001A00000C00CF1240CBCE8FF008CF30988AE46BB
:1001B00087F3038862B6304700BF000020ED00E0FF
:1001C0000000F0F07006002038060020D2B201E0F6
:1001D00000F8012B491EFBD270470022F6E710B54C
:1001E00013460A4604461946FFF7F0FF204610BDA5
:1001F00030B50B46014600202022012409E021FAF7
:1002000002F59D4205D303FA02F5491B04FA02F5F3
:100210002844151EA2F10102F1DC30BD064C074D49
:1002200006E0E06840F0010394E8070098471034C6
:10023000AC42F6D3FFF780FFD83B0008083C00082B
:1002400070B58C1810F8015B15F0070301D110F898
:10025000013B2A1106D110F8012B03E010F8016BC5
:1002600001F8016B5B1EF9D12B0705D40023521E48
:100270000DD401F8013BFAE710F8013BCB1A921CB0
:1002800003E013F8015B01F8015B521EF9D5A142AE
:10029000D8D3002070BD0000EFF3108072B6704715
:1002A000EFF3108062B6704780F3108870471748EC
:1002B0004FF0805101607047EFF3108C72B6144A12
:1002C00012681AB100B590475DF804EBEFF30980AE
:1002D00020E9F01F0F4D2E683060B7884FF01008EE
:1002E00027EA0807B7800B484068286087884FF0E6
:1002F000100847EA080787800168B1E8F01F81F31A
:1003000009888CF31088704700BF000004ED00E0FE
:10031000740600203806002000BFFEE708B5012162
:10032000402001F03BFD4020ADF8000010208DF88A
:10033000030003208DF802006946024800F0BBF973
:1003400008BD00000018014010B5FFF7E7FF40218D
:10035000014800F046FA10BD0018014008B54020E1
:10036000ADF8000048208DF803006946014800F010
:10037000A2F908BD0018014008B54020ADF8000002
:1003800010208DF8030003208DF802006946024812
:1003900000F091F908BD00000018014070B500257B
:1003A000002424E000BF4021134800F00FFA002889
:1003B000F9D0282000F0E2F840210F4800F006FABA
:1003C00001280DD100BF40210B4800F0FFF90128A2
:1003D000F9D0C4F1070101208840C0B2054304E010
:1003E000C4F10701012088408543601CC4B2082C79
:1003F000D8DB284670BD00000018014010B5044647
:10040000FFF7BAFF4021244800F0E9F9122000F07C
:10041000A5F84021204800F0E4F91E2000F0AEF8D5
:10042000FFF79CFF40211C4800F0D0F980BB00BFC3
:100430004021194800F0CAF90028F9D000BF402136
:10044000154800F0C3F90128F9D0FFF7A7FF207085
:10045000FFF7A4FF6070FFF7A1FFA070FFF79EFFFA
:10046000E070FFF79BFF2071FFF786FF40210A48ED
:1004700000F0B7F9207861780844A1780844E17861
:1004800008442179884201D1012010BD0020FCE7F9
:10049000FFE70020F9E700000018014010B588B020
:1004A000002428E01448FFF7A9FF012818D11248BA
:1004B000C378827811A105A801F0ACFE0E484378FC
:1004C000027810A102A801F0A5FE0B484078009028
:1004D00009480378C27881780DA001F08BFE02E014
:1004E00015A001F087FE4FF4FA6001F03FFB0446CF
:1004F0000CB108B010BDD5E71806002025642E25E4
:100500006420430025642E256420252552480000E0
:100510000D0A203F3F44485431313F3F2C3F3F3F7D
:1005200025642E256420432C3F3F3F2025642E2543
:10053000642025255248000044485431312045525A
:10054000524F52210D0A0000704701B502E0009899
:10055000401E009000980028F9D108BD002107E056
:1005600042F6E06100BF0A1EA1F1010399B2FAD17F
:10057000021EA0F1010398B2F2D17047002106E0FB
:100580000A2100BF0A1EA1F1010399B2FAD1021E8D
:10059000A0F1010398B2F3D17047000051B182007D
:1005A000A2F1C042126842F001038200A2F1C042EF
:1005B000136009E08200A2F1C0421268034B1A40A6
:1005C0008300A3F1C0431A6070470000FEFF0F00D4
:1005D000D0E901121143C268114302691143426913
:1005E000114382691143C2691143026A1143426A8D
:1005F0001143826A1143C26A1143026B11430268BC
:100600009200A2F1C0421160816808290BD10168F3
:100610008900A1F1C041096841F0400201688900E8
:10062000A1F1C0410A60416B0968426B526841EA1E
:100630000211426B926841EA0221426B928941EABF
:100640000241426B128A41EA0251426B127D41EA39
:100650000261426B926911430268521C9200A2F13E
:10066000C0421160C16AB1F5804F1BD1816B09682E
:10067000826B526841EA0211826B926841EA022160
:10068000826B128A41EA0251826B127D41EA026159
:10069000826B9269114302689200A2F1C042C2F8D3
:1006A000041107E06FF0704201688900A1F1C041B8
:1006B000C1F8042170472DE9F041024600250026CB
:1006C000002000230024002791F803C00CF00F0540
:1006D00091F803C00CF0100CBCF1000F03D091F89E
:1006E00002C04CEA050591F800C0BCF1000F31D002
:1006F000146800202BE04FF0010C0CFA00F3B1F865
:1007000000C00CEA03069E4220D183004FF00F0C7C
:100710000CFA03F7BC4305FA03FC4CEA040491F815
:1007200003C0BCF1280F06D14FF0010C0CFA00FCFD
:10073000C2F814C00AE091F803C0BCF1480F05D11B
:100740004FF0010C0CFA00FCC2F810C0401C082845
:10075000D1D31460B1F800C0BCF1FF0F34DD546890
:1007600000202EE000F1080C4FF0010808FA0CF30D
:10077000B1F800C00CEA03069E4221D183004FF07D
:100780000F0C0CFA03F7BC4305FA03FC4CEA040413
:1007900091F803C0BCF1280F05D100F1080C08FA4C
:1007A0000CF8C2F8148091F803C0BCF1480F07D1CF
:1007B00000F1080C4FF0010808FA0CF8C2F810809C
:1007C000401C0828CED35460BDE8F08102460020CA
:1007D00093680B400BB1012000E00020704741619D
:1007E00070470161704700BFFEE7000010B5044686
:1007F0002CB14FF480510548FFF7F1FF04E04FF4AE
:1008000080510248FFF7EDFF10BD000000140140C9
:100810002DE9F04106460F4614461D46DDF81880C6
:100820002B4622463946304600F0D5F904FB05F048
:10083000414600F09CF8BDE8F08101B502E0009867
:10084000401E009000980028F9D108BD2DE9F05F06
:1008500081468A4615461E46A5F1200000F0FF0B92
:10086000102308225146484600F0B5F92C2000F02C
:100870000FFB00241AE00F4800EB0B10075D4FF050
:1008800000080EE007F0010018B10A9800F004FB20
:1008900002E0304600F000FB7F1008F1010000F09C
:1008A000FF08B8F1080FEDDB601CC4B2102CE2DBCE
:1008B000BDE8F09FE83500082DE9F84305460E46EF
:1008C00014461F46DDF820801AE028460830F0283C
:1008D00003DD002506F1100086B230461030B0F579
:1008E000A07F01DD00250026CDF8008022783B4660
:1008F00031462846FFF7AAFF641C05F1080085B2BF
:1009000020780028E1D1BDE8F88300B597B0012137
:10091000080201F033FA0220019000200290052025
:10092000039000200490059006904FF080500790AF
:1009300000200890099008200A9010200B900020B9
:100940000C900E900F9010904FF48050119000205A
:1009500012901390149001A81590169008A8FFF714
:1009600037FE01210020FFF719FE17B000BD70B55A
:1009700004460D4600262C2000F08AFA00BF03E052
:10098000284600F089FA761CA642F9D370BD000013
:1009900008B50121084601F001FA0121602001F0AB
:1009A000FDF903208DF8020018208DF803004CF2A9
:1009B0000370ADF8000069462C48FFF77CFE4FF647
:1009C0008070ADF8000069462948FFF774FE0320E7
:1009D0008DF8020018208DF803001020ADF80000FB
:1009E00069462248FFF767FE2020ADF800006946FF
:1009F0001E48FFF760FE0121202001F0CFF9802082
:100A0000ADF8000069461948FFF755FE0121202086
:100A100001F0C4F94FF40060ADF8000069461348D6
:100A2000FFF749FE10208DF8030003208DF8020027
:100A30000121402001F0B2F90220ADF80000694622
:100A40000B48FFF738FE10208DF8030003208DF8C7
:100A500002000121202001F0A1F94FF48050ADF8EF
:100A6000000069460148FFF726FE08BD001401405A
:100A70000018014010B50446012C06D0022C29D0E4
:100A8000032C4CD0042C24D16EE0362000F000FA68
:100A9000C82000F001FA2A2000F0FAF9002000F046
:100AA000FBF9002000F0F8F9002000F0F5F9EF2044
:100AB00000F0F2F92B2000F0EBF9002000F0ECF947
:100AC000002000F0E9F9012000F0E6F93F2000F0F5
:100AD000E3F96EE0362000F0DBF9682000F0DCF985
:100AE0002A2000F0D5F9002000F0D6F9002000F00F
:100AF000D3F9012000F0D0F93F2000F0CDF92B20F0
:100B000000F0C6F9002000F0C7F9002000F0C4F999
:100B1000002000F0C1F9EF2000F0BEF949E03620D6
:100B200000F0B6F9282000F0B7F92A2000F0B0F95B
:100B3000002000F0B1F9002000F0AEF9012000F033
:100B4000ABF93F2000F0A8F92B2000F0A1F900201C
:100B500000F0A2F9002000F09FF9002000F09CF9BD
:100B6000EF2000F099F924E0362000F091F94820B8
:100B700000F092F92A2000F08BF9002000F08CF9A7
:100B8000002000F089F9002000F086F9EF2000F045
:100B900083F92B2000F07CF9002000F07DF9002083
:100BA00000F07AF9012000F077F93F2000F074F9A5
:100BB00000BF00BF2C2000F06BF910BD10B5FFF78F
:100BC000E7FEFFF7A2FE0120FFF710FE00F04CF950
:100BD00000F032F810BD2DE9F04104460D461646EE
:100BE0001F462A2000F054F9201200F055F9E0B217
:100BF00000F052F9A119491EC1F30F2000F04CF981
:100C0000A119491EC8B200F047F92B2000F040F9A5
:100C1000281200F041F9E8B200F03EF9E919491E46
:100C2000C1F30F2000F038F9E919491EC8B200F0ED
:100C300033F9BDE8F081000010B5CF2000F028F9AD
:100C4000002000F029F9812000F026F9302000F082
:100C500023F9ED2000F01CF9642000F01DF90320B9
:100C600000F01AF9122000F017F9812000F014F9B1
:100C7000E82000F00DF9852000F00EF9102000F0BA
:100C80000BF9782000F008F9CB2000F001F93920A9
:100C900000F002F92C2000F0FFF8002000F0FCF832
:100CA000342000F0F9F8022000F0F6F8F72000F008
:100CB000EFF8202000F0F0F8EA2000F0E9F800203A
:100CC00000F0EAF8002000F0E7F8B12000F0E0F8CA
:100CD000002000F0E1F81B2000F0DEF8B62000F064
:100CE000D7F80A2000F0D8F8A22000F0D5F8C020EC
:100CF00000F0CEF8352000F0CFF8C12000F0C8F8A1
:100D0000112000F0C9F8C52000F0C2F8452000F01D
:100D1000C3F8452000F0C0F8C72000F0B9F8A220C1
:100D200000F0BAF8F22000F0B3F8002000F0B4F8B8
:100D3000262000F0ADF8012000F0AEF8E02000F031
:100D4000A7F80F2000F0A8F8262000F0A5F824202E
:100D500000F0A2F80B2000F09FF80E2000F09CF8A5
:100D6000092000F099F8542000F096F8A82000F02F
:100D700093F8462000F090F80C2000F08DF8172032
:100D800000F08AF8092000F087F80F2000F084F8BE
:100D9000072000F081F8002000F07EF8E12000F04C
:100DA00077F8002000F078F8192000F075F81B2083
:100DB00000F072F8042000F06FF8102000F06CF8DA
:100DC000072000F069F82A2000F066F8472000F0BC
:100DD00063F8392000F060F8032000F05DF8062089
:100DE00000F05AF8062000F057F8302000F054F8D0
:100DF000382000F051F80F2000F04EF8362000F0B7
:100E000047F8C82000F048F82A2000F041F80020F8
:100E100000F042F8002000F03FF8002000F03CF81D
:100E2000EF2000F039F82B2000F032F8002000F01D
:100E300033F8002000F030F8012000F02DF83F20BA
:100E400000F02AF83A2000F023F8552000F024F8AA
:100E5000112000F01DF80348FFF7EFFC292000F0F7
:100E600017F810BDFCBF020010B502210648FFF7BD
:100E7000B6FC0648FFF7E1FC02210348FFF7B1FC8E
:100E80000248FFF7DAFC10BD00180140FCBF020069
:100E90004FF0C0410880704701490880704700004A
:100EA0000000026010B5FFF789FE10BD08B50121F2
:100EB000082000F073FF2020ADF8000010208DF80E
:100EC000030003208DF8020069460F48FFF7F3FB8B
:100ED0000120ADF8000069460B48FFF7ECFB02204B
:100EE000ADF8000069460848FFF7E5FB20210648F9
:100EF000FFF777FC01210448FFF773FC0221024849
:100F0000FFF76FFC08BD0000000C014002465018BE
:100F1000401E904204D95018401E4B1E9843704703
:100F2000481E22EA0000FAE710B5024614462046A1
:100F3000002305E001464960096000BF5B1C0830E2
:100F40001B2BF7D310BD2DE9F04105460E462F4669
:100F5000304600F08BF804461E2C02D90020BDE874
:100F6000F081042C00D80424201F07EBC000F6E712
:100F700042684A6008604268116041607047426898
:100F80004A600860426811604160704742684A6088
:100F90000860426811604160704742684A600860BA
:100FA000426811604160704742684A600860426868
:100FB000116041607047D0E900121160D0E9002152
:100FC00051600021416001607047D0E9001211605A
:100FD000D0E9002151600021416001607047D0E9F3
:100FE00000121160D0E900215160002141600160D0
:100FF000704701464868884201D1012070470020AF
:10100000FCE701464868884201D101207047002072
:10101000FCE701464868884201D101207047002062
:10102000FCE74060006070474060006070474060CF
:101030000060704740600060704770B504460D4620
:1010400029462068FFF794FF70BD70B504460D4631
:1010500029462068FFF793FF70BD70B504460D4622
:1010600029462068FFF799FF70BD0000014601F096
:10107000004010B16FF0704070474C4808400028A5
:1010800047D001F0FE40F8B101F0E04058B101F066
:10109000804008B11E20EFE701F0005008B11D208C
:1010A000EAE71C20E8E701F0406030B101F00060A1
:1010B00008B11B20E0E71A20DEE701F0007008B15C
:1010C0001920D9E71820D7E701F4700080B101F4A6
:1010D000400030B101F4000008B11720CCE7162021
:1010E000CAE701F4001008B11520C5E71420C3E7D2
:1010F00001F4402030B101F4002008B11320BBE717
:101100001220B9E701F4003008B11120B4E7102033
:10111000B2E701F47F4020B301F4704080B101F4E4
:10112000404030B101F4004008B10F20A4E70E2088
:10113000A2E701F4005008B10D209DE70C209BE7C9
:1011400001F4406030B101F4006008B10B2093E776
:101150000A2091E701F4007008B109208CE708200B
:101160008AE701F0F00080B101F0C00030B101F079
:10117000800008B107207FE706207DE701F020000E
:1011800008B1052078E7042076E701F00C0030B1C3
:1011900001F0080008B103206EE702206CE701F0BF
:1011A000020008B1012067E7002065E70000FF7F2B
:1011B0002DE9F04105460C460026FFF76DF807467D
:1011C00000BF05B104B909E004F0004000B105E03A
:1011D0002146284601F067FA064600BF00BF3846A0
:1011E000FFF762F83046BDE8F0812DE9F05F8046F8
:1011F0000F4614464FF00009CA4600250026FFF7A7
:101200004BF8834600BFB8F1000F00D007B91BE0D0
:10121000381900F1040909F0004000B114E0494612
:10122000404601F040FA05462819401E611E20EA9A
:101230000106B54200D107E0A6EB050A4AF0804A54
:1012400046F804AC354600BF00BF5846FFF72CF8FF
:101250002846BDE8F09F2DE9F04705460C460127DA
:101260000026FFF719F8814600BFB04605B104B962
:1012700014E054F8046C06F0804010B126F080466B
:10128000A41BA4F110084146284601F03AFA07468B
:101290001FB92946404601F0A8FA00BF00BF4846E2
:1012A000FFF702F83846BDE8F0872DE9F04704461D
:1012B0008846002500270026A94614B1B8F1FF0F83
:1012C00003D84FF0FF30BDE8F087FEF7E5FF824618
:1012D000264634463660C6F8048004F10800FFF75D
:1012E00023FE04F1E005281BA8EB00001038E8609D
:1012F0000020A86004F10800E968FFF724FE814699
:10130000B9F1000F05D15046FEF7CEFF4FF0FF3088
:10131000D9E700BF2946D9F80000FFF745FE00BF16
:1013200004EB0800A0F11007002038607860B86076
:10133000F860BD601020F860F86840F00040F86088
:10134000384601F0DDFA5046FEF7AEFF0020BAE75E
:101350002DE9F04105462F460026002415B900204E
:10136000BDE8F081FEF798FF804607F10806306877
:1013700020B1346820683060044820604046FEF7A1
:1013800093FF0CB90020EBE7201DE9E7A55A5AA509
:101390002DE9F04705460E462C46012705B116B942
:1013A0000120BDE8F087FEF777FF804600BF311FC0
:1013B00020460A46D0F800C0BCF1000F02D14FF021
:1013C000010C25E000F10C0CA2EB0C03D0F800C0DE
:1013D000B3FBFCF90CFB193CBCF1000F02D04FF041
:1013E000010C15E0D0F800C0B3FBFCFCD0F8049071
:1013F000CC4502D34FF0010C0AE0DFF83490D2F86C
:1014000000C0CC4502D04FF0010C01E04FF0000CC1
:10141000BCF1000F00D004E0A0680860A1600027C4
:1014200000BF00BF4046FEF73FFF3846B9E7000067
:10143000A55A5AA52DE9F04706460F469046344670
:10144000002516B90120BDE8F087B8F1000F01D1E1
:101450000120F8E70C2F01D20120F4E7FEF71CFF72
:10146000824608F1070020F003002060A7F10C007D
:101470002168B0FBF1F06060606820B95046FEF76B
:1014800013FF0120DFE704F10C05A5604FF0000910
:1014900005E02068284428602D6809F1010960688A
:1014A000401E4845F5D8002028605046FEF7FCFE57
:1014B0000020C8E700BFD0E900121160D0E9002188
:1014C000516000214160016000BF704710B50A46BD
:1014D0000649096801EBC20319684C684460016061
:1014E0004C682060486000BF00BF10BD200600208F
:1014F000014600200022074B1B6803EBC1035A681A
:1015000001E0401C5268034B1B6803EBC10393428C
:10151000F7D170472006002000210020014612E08C
:101520000B4A126802EBC1004268824201D10122DB
:1015300000E000222AB90648006800EBC1004068BC
:101540007047481C01462029EAD30020F8E7000034
:10155000200600202DE9F84F81460C4615469A4694
:101560000A9E15B91948BDE8F88F4FF6FB70864200
:1015700002DD16480938F6E704B116B91348401CD5
:10158000F1E7FEF789FE8046301D82B26B462946A0
:10159000204601F057FA074627B14046FEF784FE81
:1015A0003846E0E700981430FFF741FD00981C3002
:1015B000FFF73DFD00982430FFF739FD0098C48106
:1015C0004046FEF771FE0020CDE700000C06000249
:1015D0002DE9FC5F80460F4691461E460020009094
:1015E000A8F1010BBBF10A0F02D34048BDE8FC9FF4
:1015F00017B93E48401CF9E7B9F1000F02D13B484A
:10160000801CF3E72EB13A48006810B137480A3021
:10161000ECE7FEF741FE01900BEB4B0000EBCB003B
:101620003449096801EB8004A08820B900BF2F4825
:101630000E30009054E0208A50BB26B900BF2B48E2
:101640000F3000904CE02C48008820B100BF2748A4
:101650000838009044E029480568324604F11C012E
:10166000284601F043FA0198FEF71EFE00F0E6F866
:10167000FEF712FE0190287900F0400058B1A888CA
:1016800020F04000A88000BF1848C01F009027E04D
:10169000208A401E208261892289206801FB020A7B
:1016A000DAF8000038606089401C80B26081E1880F
:1016B000884201D10020608104F11400FFF7A1FCF1
:1016C00050B904F1140001F053FA0198FEF7ECFD53
:1016D00000F0B4F8002089E7E089401CE08100BFF9
:1016E0000198FEF7E1FD009880E700000E06000279
:1016F000B80600209C060020400600203806002086
:101700002DE9FC5F81460F4690461E460020009062
:10171000A9F1010BBBF10A0F02D34348BDE8FC9FBE
:1017200017B94148401CF9E7B8F1000F02D13E4813
:10173000801CF3E72EB13D48006810B13A480838E4
:10174000ECE7FEF7A9FD01900BEB4B0000EBCB00A3
:101750003749096801EB8004A08820B900BF3248EE
:10176000C01C00905BE02089404504D200BF2E4899
:10177000001D009053E0E08950BB26B900BF2A4805
:10178000401D00904BE02B48008820B100BF264848
:101790000B38009043E028480568324604F11401F4
:1017A000284601F0A3F90198FEF77EFD00F046F807
:1017B000FEF772FD0190287900F0400058B1A8882A
:1017C00020F04000A88000BF17480A38009026E0AB
:1017D000E089401EE081A1892289206801FB020A7C
:1017E000CAF80070A089401C80B2A081E1888842BC
:1017F00001D10020A08104F11C00FFF702FC50B9C8
:1018000004F11C0001F0B4F90198FEF74DFD00F061
:1018100015F8002082E7208A401C208200BF019832
:10182000FEF742FD009879E711060002B806002095
:101830009C060020400600203806002010B5FEF768
:101840002BFD0446FFF768FE3C380A49486008460D
:1018500000684968884208D00748008828B92046AF
:10186000FEF722FDFEF723FD10BD2046FEF71CFD0E
:1018700000BFF9E738060020400600202DE9F041BE
:1018800006462A48006800EB06150A2E02D32848AF
:10189000BDE8F081FEF700FD0746287820B93846FC
:1018A000FEF702FD2248F3E768884FF6FE71884292
:1018B00005D13846FEF7F8FC1D48C01DE8E705F1E4
:1018C0000800FFF7A6FB48BBE868A0F13C04E86805
:1018D000FFF77BFBA08820F00800A080207900F0B3
:1018E000400030B1204601F07DFDA08820F040008E
:1018F000A0800020A061207900F0020040B9A088FB
:1019000040F00400A080E18804F13C00FFF7DEFD18
:101910003846FEF7C9FCFFF791FF05E06888401CD8
:1019200068803846FEF7C0FC0020B1E7A80600201A
:101930000107000210B501F029FD04460CB1204654
:1019400010BDFEF715FC2046FAE700002DE9F04136
:1019500005460F4600263946284600F045F806465B
:1019600016B13046BDE8F081286800EB800101EB3C
:10197000C0001949096801EBC004FEF78DFC8046E0
:10198000A08820F00200A080A08840F00400A08081
:10199000E18804F13C00FFF799FDFFF7BDFD3C38FD
:1019A0000E4948600E48006888B10E48008870B93A
:1019B000084600684968884209D00A48008830B95A
:1019C0004046FEF771FC01F00FF90020CAE74046DF
:1019D000FEF76AFC0020C5E7340600203806002028
:1019E00070060020400600202DE9F05F07460D46F6
:1019F0004FF000094FF0FF3A17B95748BDE8F09F84
:101A000015B95548801FF9E7E86910B95248801E9A
:101A1000F4E7286810B95048C01EEFE7A8881F28CF
:101A200002DD4D48001FE9E7A869B0F5004F02D973
:101A300049481930E2E7A86910B94FF43470A86139
:101A40000821A869FFF762FAA86110214FF4987085
:101A5000FFF75CFAA969884202D93F48401ECDE7EA
:101A6000FEF71AFC834611E03C484068A0F13C04B4
:101A70003A494868FFF79FFA04F13C013848FFF7FC
:101A800077FA3848E1680068FFF7E5FB3348FFF76D
:101A9000B0FA0028E8D03248FFF7ABFA28B1DFF8F7
:101AA000B8A00AF10A0A00BF51E02D484068A0F131
:101AB0003C042B494868FFF77EFA5846FEF7F4FBD2
:101AC000D4F8109008222748A9690068FFF78DFB19
:101AD00006465EB9FEF7E0FB834604F13C01204870
:101AE000FFF746FADFF880A000BF30E032464846F4
:101AF000A96901F0C9FC8046C4F80080A868A0620A
:101B0000E968E1622969216369696163E660A8693E
:101B1000A0600020A061E06160620220A080A08837
:101B2000296A09B1802100E000210843A080A8882B
:101B3000E080286860614FF0FF3020650020E0659C
:101B4000E869A06300206066C7F8009056E7584631
:101B5000FEF7AAFB504651E707020002600600208C
:101B600058060020AC0600200002000370B50446B1
:101B70001948006808B1194870BD1948008808B1B3
:101B80001848F9E714B900F05FF8F5E7FEF784FBB1
:101B900005461549096801F13C00FFF78BFC124826
:101BA0000068808820F004000F49096888800E4989
:101BB0000868214601F07CF90B480068808840F0F5
:101BC00020000949096888802846FEF76DFBFFF769
:101BD00035FE0020D0E70000B80600200D0200030B
:101BE000400600200E0200023806002010B5FEF765
:101BF00053FB044604480088401C034908802046E3
:101C0000FEF752FB10BD00004006002010B5FEF7A5
:101C100043FB04460B48008800280DDD0948008876
:101C2000401E084908800846008828B92046FEF76B
:101C30003BFBFFF703FE10BD2046FEF735FB00BF60
:101C4000F9E700004006002070B500241C48006839
:101C500000691C490968884201D31B4870BDFEF722
:101C60001BFB054616490968C888FFF741FC044676
:101C7000012C17D91249096801F13C00FFF79BF9C3
:101C80000F480068808840F004000D49096888808A
:101C90000B4A1268D1880A4A126802F13C00FFF729
:101CA00015FC05E02846FEF7FFFA07480930D5E79E
:101CB0002846FEF7F9FAFFF7C1FD0020CEE7000045
:101CC00038060020440600200702000200BFFEE79D
:101CD000704708B54FF4A06000F046F825208DF855
:101CE000000001208DF801008DF802008DF803003E
:101CF000684600F001F808BD70B5002100230F22EE
:101D0000C47804B3154C246804F4E064C4F5E064BA
:101D1000210AC1F10403CA40447804FA03F184782B
:101D20001440214309010E4C0678A155047804F0B3
:101D30001F050124AC4005786D11AD0005F1E025CB
:101D4000C5F8004109E0047804F01F050124AC4007
:101D5000044D0678761145F8264070BD0CED00E084
:101D600000E400E080E100E002490143024A116022
:101D7000704700000000FA050CED00E029B1064AAA
:101D800052690243044B5A6104E0034A5269824398
:101D9000014B5A61704700000010024029B1064A09
:101DA00092690243044B9A6104E0034A92698243B8
:101DB000014B9A61704700000010024030B50021CD
:101DC0000022002400232D4D6D6805F00C0121B187
:101DD000042905D0082923D105E0294D056022E01A
:101DE000274D05601FE0254D6D6805F47012234DE9
:101DF0006D6805F48034022505EB92421CB9214D33
:101E0000554305600BE01D4D6D6805F400351DB1AF
:101E10001C4D5543056002E0194D5543056002E035
:101E2000174D056000BF00BF144D6D6805F0F0014F
:101E30000909154D6B5C0568DD4045600F4D6D6807
:101E400005F4E061090A104D6B5C4568DD40856072
:101E50000A4D6D6805F46051C90A0B4D6B5C45680D
:101E6000DD40C560054D6D6805F44041890B074DA7
:101E70006B5CC568B5FBF3F5056130BD0010024031
:101E800000127A0000093D00000600201006002024
:101E9000704710B500F002F810BD00000CB500202E
:101EA000019000903348006840F480303149086068
:101EB00000BF3048006800F4003000900198401CDA
:101EC0000190009818B90198B0F5A06FF1D1294898
:101ED000006800F4003010B10120009001E0002003
:101EE00000900098012843D12348006840F010007A
:101EF000214908600846006820F003000860084691
:101F0000006840F0020008601A48406819494860BB
:101F10000846406848600846406840F48060486071
:101F20000846406820F47C1048600846406840F449
:101F3000E81048600846006840F08070086000BF04
:101F40000C48006800F000700028F9D0094840688B
:101F500020F00300074948600846406840F002004E
:101F6000486000BF0348406800F00C000828F9D121
:101F70000CBD0000001002400020024010B50848CF
:101F8000D0E900305A1C40F100000549C1E90020A9
:101F900001F04CFA01F00EF900F078FF10BD0000DE
:101FA0007806002010B51348006840F00100114980
:101FB000086008464068104908400E4948600846D5
:101FC00000680E4908400B4908600846006820F484
:101FD000802008600846406820F4FE0048604FF406
:101FE0001F008860FFF755FF4FF00060044908604C
:101FF00010BD0000001002400000FFF8FFFFF6FED9
:1020000008ED00E021B1828942F40052828104E0AF
:1020100082894DF6FF731A408281704700B585B002
:1020200001210420FFF7BAFE01218803FFF7B6FE65
:102030004FF40070ADF8100018208DF81300032045
:102040008DF8120004A91748FEF735FB4FF48060A5
:10205000ADF8100004208DF8130004A91148FEF714
:102060002AFB4FF4E13000900020ADF80400ADF8F9
:102070000600ADF80800ADF80C000C20ADF80A0021
:102080006946094800F044F8FFF723FE012240F2B8
:102090002551054800F017F801210348FFF7B2FF6A
:1020A00005B000BD00080140003801400246002094
:1020B000B1F5007F00D100BF13880B400BB10120A8
:1020C00000E000207047F0B50346002400260025FC
:1020D000002040F66A17B94200D100BF1846C1F38C
:1020E000421401F01F06012707FA06F5012C01D161
:1020F0000C3004E0022C01D1103000E014301AB191
:1021000007682F43076002E00768AF430760F0BD30
:102110002DE9F04786B005460E460024A24600BFD2
:10212000A1460027B08900B100BF2F462C8A4CF68B
:10213000FF700440F08804432C82AC894EF6F31003
:102140000440B08831890843718908430443AC8155
:10215000AC8A4FF6FF400440B0890443AC8201A82A
:10216000FFF72CFE1F48874202D1DDF810A001E0E6
:10217000DDF80CA0A88900F4004040B10AEBCA00C9
:1021800000EB0A1031684900B0FBF1F807E00AEBF8
:10219000CA0000EB0A1031688900B0FBF1F8642036
:1021A000B8FBF0F004012009642101FB1089A88923
:1021B00000F4004040B1322000EBC900B0FBF1F068
:1021C00000F00700044308E0322000EB091064210E
:1021D000B0FBF1F000F00F0004432C8106B0BDE825
:1021E000F087000000380140C1F308028280704788
:1021F00000BFFEE70FB4054B10B503A9044A0298CF
:1022000000F02CF810BC5DF814FB00008D240008D1
:10221000BC0600200FB4084B10B504A902AA03980D
:1022200000F01CF8044602A9002000F0C1F8204686
:1022300010BC5DF814FB0000B123000802E008C8E0
:10224000121F08C1002AFAD170477047002001E030
:1022500001C1121F002AFBD1704700002DE9FF4F7A
:1022600089B09B460446002506E025280BD05A4637
:102270000B999047641C6D1C20780028F5D10DB097
:102280002846BDE8F08F0027B8460122474900E004
:10229000074314F8013F203B02FA03F00842F7D14C
:1022A00020782E2819D114F8010F47F004072A28A6
:1022B0000ED06FF02F022078A0F1300109290CD840
:1022C00008EB880102EB410100EB0108641CF2E716
:1022D0000A98641C50F8048B0A9020780028CED00D
:1022E000642808D0692806D075281ED05A460B9954
:1022F00090476D1C58E00A994FF00A0901C90A91EC
:10230000002802DA40422D2102E0390504D52B21B4
:102310008DF82010012103E0F90704D02021F7E710
:102320008A4608AE0DE00021FAE70A994FF00A0943
:1023300001C90A91F7E74946FDF75AFF303106F81F
:10234000011D0028F7D1ADEB060000F12009780748
:1023500001D44FF00108C84502DDA8EB090000E0F8
:1023600000208046002706E008A85A46C05D0B9969
:1023700090476D1C7F1C5745F6DB04E030205A4621
:102380000B9990476D1CB8F10001A8F10108F5DC2C
:1023900005E016F8010B5A460B9990476D1CB9F1F0
:1023A0000001A9F10109F4DC641C65E709280100BA
:1023B0000A68531C0B6010707047000010B58AB09B
:1023C00000240020ADF8080009A008900B480190F7
:1023D0004FF4347007908020099001A90848FFF756
:1023E000B5FA044614B120460AB010BD2046FBE7FA
:1023F00044485431315F7461736B00009D040008E0
:102400001406002010B58AB000240120ADF80800A1
:1024100009A008900A4801904FF43470079080207A
:10242000099001A90748FFF791FA044614B1204624
:102430000AB010BD2046FBE77461736B31000000E9
:10244000113500081406002010B58AB000240120C0
:10245000ADF8080009A008900A4801904FF43470C4
:1024600007908020099001A90748FFF76FFA0446FA
:1024700014B120460AB010BD2046FBE77461736BAF
:10248000320000007D3500081406002070B50446B7
:102490000D46E1B20548FFF7A7FE00BF80210348C3
:1024A000FFF704FE0028F9D0204670BD0038014037
:1024B00008B5FEF7FBFCFFF7B1FDFDF745FFFEF7A2
:1024C000F1FC0120FEF7D6FA4FF6FF704FF4A0732F
:1024D000F022002100900846FEF79AF94FF4784068
:1024E0004FF6FF7303A23C2100903220FEF7E4F97F
:1024F00008BD000020205769666920697320526575
:10250000616479202100000010B500F099F80446BC
:102510000CB1012010BD00F005F8FFF70BFA00BF69
:10252000FEE7000010B50024FFF7C2FF20200C4991
:1025300008600C48FEF709F8FFF764FF04460CB189
:10254000204610BDFFF780FF04460CB12046F8E797
:10255000FFF734FF04460CB12046F2E70020F0E715
:10256000140C0140FFFF0F00FDF7ECFD00BFFEE77C
:10257000102004E00649074A42F82010401CFF28BA
:10258000F8D90449044A11600449121D11607047CA
:10259000692500080000002008ED00E00007FA05AA
:1025A00000BFFEE710B58AB0242101A8FDF715FE93
:1025B0000A4801904FF4A060079009A008901F20DE
:1025C000ADF8080001A90948FFF7C0F9044614B1A5
:1025D00020460AB010BD0020FBE70000A12500083E
:1025E00049646C65436F72653030300048060020E6
:1025F00070B5FDF751FE05460F480068401C0E49B6
:1026000008602846FDF750FEFDF79CFD04460B4888
:1026100050F8240018B1094951F824008047FDF70B
:102620003BFE054604480068401E034908602846F2
:10263000FDF73AFE70BD0000B8060020D0870020EC
:1026400010B500F0C3FA00F099F904460CB1204629
:1026500010BDFFF78DFF00F0E1FC04460CB12046F1
:10266000F6E700F0C5FA04460CB12046F0E700F0AA
:1026700097F904460CB12046EAE700F01BFA04463D
:102680000CB12046E4E700F0DFFA04460CB1204626
:10269000DEE700F0F1FEFFF785FF04460CB12046AF
:1026A000D6E70020D4E72DE9F04107460E46002486
:1026B00006F1130020F003052946384600F06DF8B6
:1026C000044614B90020BDE8F08105F11400E1686A
:1026D000814204D32A462146384600F021F920469B
:1026E000FEF77DFC204600F00BF9E06840F000406A
:1026F000E060E16821F0004000F03EFD04F11000D0
:10270000E1E72DE9F84F05460C462E4605F1E008B5
:1027100070682844A0F1100A706847194FF000094A
:102720002B46524641462046009700F0B7F810B9B4
:102730000120BDE8F88FE06800F0004008B90120F2
:10274000F7E7E06820F0004000EB04092B46524612
:1027500041464846009700F0A1F808B90120E8E793
:10276000D9F80800A04201D00120E2E7444512D088
:1027700000972B4652464146A06800F08FF808B9F2
:102780000120D6E7A068C16821F000410844A042BA
:1027900001D00120CDE70020CBE770B505460E46FD
:1027A0000024314605F10800FEF7CDFB044618E091
:1027B00000206168084605E0C168B14200D370BDE1
:1027C00041680846A042F7D105F1080021460246BB
:1027D00002F1D0038B4201D1002301E001F1080393
:1027E0001C46002CE4D10020E9E72DE9F041044625
:1027F0000E460027B846E16821F0004000F0A2FC38
:10280000E06820F00040E060A06848B3A068C068BD
:1028100000F0004020BBA568204600F05EF8E868A4
:1028200020F000404719F86800F0004028B9384609
:10283000FEF7D5FB384600F050F82846FEF7CFFBF0
:1028400006F10800E968FEF77EFB8046B8F1000F4C
:1028500001D1BDE8F08129464046FEF7A5FB1BE00B
:10286000E06820F000400719F86800F0004028B93F
:102870003846FEF7B4FB384600F02FF806F10800A2
:10288000E168FEF760FB8046B8F1000F00D1E0E799
:1028900021464046FEF788FB00BFDAE730B5044624
:1028A000039DA14201D8944201D9002030BDE068C7
:1028B00000F0004038B120686040401C08B10020A2
:1028C000F4E70120F2E72068984202D32068A8428A
:1028D00001D30020EAE70120E8E700218268D268FE
:1028E000C3681A448368DA60C268111882688A6013
:1028F00000BF002202604260826000BF704700009B
:10290000C14301600549096821B1044909680969A1
:10291000416002E04FF0FF3141607047380600200F
:102920002DE9F04780460D46164600240027A146B3
:10293000AC19A560E868801BE060EE60E06820F0FC
:1029400000400719BC60F86800F0004028B938461C
:10295000FEF745FB3846FFF7C0FF08F10800E168C5
:10296000FEF7F1FA8146B9F1000F01D1BDE8F08719
:1029700021464846FEF718FB00BFF7E710B50648AA
:10298000064908604FF4004104480068FEF78DFCDA
:102990000446204610BD000090070020AC06002031
:1029A00070B51248FEF740FBF02111480068FEF7B1
:1029B000FFFB104908600846006808B90E4870BD62
:1029C00000240EE004EB44000A49096801EBC0054D
:1029D0006C600020287005F108010448FEF735FB03
:1029E000641C0A2CEED30020E9E7000094060020C6
:1029F000AC06002090060020001D000270B50024E7
:102A000000254FF4807529460C480068FEF7D0FB7E
:102A10000B4908600846006800B970BD00200446F4
:102A200008E00749096801EBC4004060006000BF8E
:102A3000601C0446202CF4D300BFEEE7AC06002057
:102A4000200600202DE9F04706468846174699469D
:102A500015480468002507E0A08818B9681CC8F864
:102A6000000003E06D1C2C340A2DF5D300BF0A2DA5
:102A700002D10E48BDE8F0872C212046FDF7ADFBC2
:102A800006FB07F10A480068FEF792FB2060206809
:102A900010B90648801EEDE7E68027810120A0805E
:102AA000C9F800400020E5E79C060020040600026B
:102AB000AC06002010B54FF4DC7109480068FEF741
:102AC00077FB084908600846006808B9064810BD49
:102AD0004FF4DC7103480068FDF77FFB0020F6E748
:102AE000AC0600209C060020010600022DE9F04102
:102AF00004460D4617464FF00008002604F13C003E
:102B0000FEF7D8FCA08820F00400A08004F13C0867
:102B1000A08840F40050A0802846FEF772FA30B139
:102B200000BF41462868FEF731FA00BF14E068682C
:102B3000A0F13C0607E0E088F188884200DA06E070
:102B4000306CA0F13C0606F13C00A842F3D100BF76
:102B50004146F06BFEF71AFA781C38B1A08840F0B5
:102B60004000A0803946204600F0A2F9BDE8F0817F
:102B700070B505466868A0F13C046868D0E90012A9
:102B80001160D0E90021516000214160016000BF67
:102B9000A08820F40050A080207900F0400030B1DF
:102BA000204600F01FFCA08820F04000A080207983
:102BB00000F0020040B9A08840F00400A080E18845
:102BC00004F13C00FEF782FC70BD000010200349B8
:102BD000086003480349086070470000440600206D
:102BE00090870020B006002010B5FDF760FB10BDF7
:102BF00070B51148FEF71EFAA02110480068FEF7D4
:102C0000D7FA0F4908600846006808B90D4870BD3A
:102C100000240CE00A48006800EB04156C600020FA
:102C2000287005F108010448FEF717FA641C0A2C05
:102C3000F0D30020EBE70000A0060020AC06002047
:102C4000A8060020000700022DE9F84300202249D1
:102C500008604FF40078414620480068FEF7A8FA63
:102C6000044614B91E48BDE8F88341462046FDF7E6
:102C7000B4FA1C4804601C480460002020812546EA
:102C80002034012705E027812C602546781C87B277
:102C90002034102FF7DB0822D0211448FEF7CAFB9E
:102CA000064616B10E48C01CDDE704200023104A7A
:102CB000102100901846FEF74DFC064616B1084854
:102CC000001DD0E700F06EF8064616B10448401D1E
:102CD000C9E70020C7E7000030060020AC0600204E
:102CE00007030002280600202C060020C006002052
:102CF0002406002010B50022002183793BB94379D6
:102D000013B14379022B02D14369C36001E0036927
:102D1000C3600F4B19680AE0CB68C468A34200D9AE
:102D200007E0C368CC681B1BC3600A46096800291A
:102D3000F2D100BF016019B1CB68C4681B1BCB6026
:102D400012B9034B186000E010600223037110BD3C
:102D5000300600200EB50020029000BF4FF0FF3378
:102D6000042202A90D480068FEF732FC0446002C3C
:102D7000F4D102980028F1D00298006800900298DF
:102D80004068019006480299FEF702FB009800286F
:102D9000E4D0DDE900108847E0E7000024060020C9
:102DA000C006002010B58AB0242101A8FDF715FA4D
:102DB000094801904FF43470079008A00890002053
:102DC000ADF808008020099001A90748FEF7BEFD74
:102DD000044620460AB010BD552D00085377745F95
:102DE0005461736B000000004C06002070B51F4852
:102DF000046836E01D49206808601D48FEF7A8FAFF
:102E000005467DB1E0692860A0696860002304225E
:102E1000294618480068FEF773FC18B12946144883
:102E2000FEF7B6FA6079A0B9204600F025F82089AF
:102E30004FF6E071884203DA2089103020810EE0DD
:102E40002089C11700EB11710911A0EB011121813B
:102E500005E0A079401CA0712046FFF74BFF034816
:102E6000046814B1E0680028C4D070BD30060020AA
:102E7000C0060020240600200349096801600249B9
:102E800008600021017170472C06002010B507482A
:102E9000006848B105480068C068401E03490968D9
:102EA000C86008B9FFF7A2FF002010BD300600205F
:102EB0002DE9F0470446884608F01F074FEA5819E5
:102EC00007B101E0A9F10109E06C00F0784040EAA7
:102ED0000900E06425488088074407F01F07E06C7C
:102EE00067F3DF60E0642148006800EBC7067068A4
:102EF000B04205D104F144013046FEF79EF833E0BC
:102F00007068A0F1440500BFE86C20F07840E16CE7
:102F100021F0784188420CD8E06C20F07840E96CD0
:102F200021F07841401AE16C01F078410843E064F7
:102F30000CE0E86C20F07840E16C21F07841401A18
:102F4000E96C01F078410843E86406E0A86CA0F160
:102F5000440505F14400B042D6D100BF04F144015C
:102F600005F14400FEF769F8BDE8F0876806002027
:102F70002DE9F041054605EB850000EBC50023492E
:102F8000096801EBC004E06930B1666904F128000A
:102F90000FC8B047206204E0666904F128000FC83A
:102FA000B047207900F0800050B1FDF775F9074671
:102FB0000020174908803946206900F069F922E0AD
:102FC000FDF76AF907460020114908803846FDF7E9
:102FD0006BF9FEF70BFEE06928B1E1694868FEF77E
:102FE0004DFC0020E061207900F0040038B104F1CC
:102FF0003C00FEF75FFAA08820F00400A080FEF7F6
:1030000005FEFEF71BFCBDE8F08100003406002041
:103010004006002072B600BFFEE7000070B54048D1
:103020000068401C682100FB01F631463D480068FD
:10303000FEF7BEF83C4908600846006808B93B48FE
:1030400070BD314638480068FDF7C7F83848FDF7CD
:10305000E8FF3848FDF7E5FF3748FDF7E2FF0024B9
:1030600020E0012004EB840101EBC4012E4A126828
:1030700002EBC101888004EB840000EBC4002A4904
:10308000096801EBC000046104EB840000EBC4009C
:10309000254A126802EBC00000F13C012548FDF70B
:1030A000CCFF641C0F2CDCD9244800210160416056
:1030B0001B48006800EB800101EBC0001A49096859
:1030C00001EBC0001D49086008460068046111203A
:1030D00009688880202019490968C880FFF78EFC9C
:1030E0004FF4807631460F480068FEF761F80546D8
:1030F0000DB90E48A4E731462846FDF76EF8104892
:10310000056000200E498880002404E02846FDF771
:1031100088FF641C0835202CF8D3002090E70000BD
:1031200044060020AC060020340600200002000304
:1031300050060020580600206006002038060020B7
:10314000680600200146094A126810690F2800D954
:103150007047074A126802B1FAE7064A52F820207F
:10316000521A044B43F8202000BFF1E73806002034
:10317000B80600209087002001460B4A126802B969
:1031800070470A4A126802B1FAE7074A12681069E2
:103190000F2800D9F4E7064A52F820200A44044BCD
:1031A00043F8202000BFEBE738060020B8060020D7
:1031B000908700202DE9F041002734498988481C78
:1031C000C11700EBD1614911A0EB41112F4A918049
:1031D000104600681146898800EBC1056868A8425E
:1031E00001D1BDE8F0816868A0F1440443E0A688FD
:1031F000E06C20F0784018B1E06C401EE0643EE0E6
:1032000004F14400FDF7D7FE06F0080058B1A0888D
:1032100020F00800A08004F13C00FDF7CCFE002067
:10322000A061606217E006F4806020B1A08820F4FD
:103230008060A0800FE006F4005040B104F13C0033
:10324000FDF7B9FEA08820F40050A08003E0A0881C
:1032500020F02000A08006F0020048B9A08840F0CD
:103260000400A080E18804F13C00FEF72FF901275B
:103270006868A0F1440404F14400A842B7D100BF3B
:103280000FB1FEF7DBFA00BFABE7000068060020D5
:103290002DE9F04105460F4605EB850000EBC50022
:1032A0003649096801EBC004A68806F0040040B165
:1032B00004F13C00FEF7FEF8A08820F00400A08096
:1032C0000DE042F20800304048B104F13C00FDF747
:1032D00072FE06F0600010B1204600F083F8A0886E
:1032E00020F00200A080A08840F00100A0804FF0F4
:1032F000FF3020650020E065FEF70EF93C382049DC
:103300004860207900F0100040B304F13C011D48F2
:10331000FDF793FE1C48006800EB800101EBC00044
:103320001649096801EBC0001549086008460068A5
:103330000561A088096888801149E0680968C8604B
:103340000F49A06B096888630120A0803846FCF70C
:10335000ABFFFFF749FC0020BDE8F081207900F0C9
:10336000010030B13846FCF79FFFFFF73DFC00201D
:10337000F2E73846FCF798FF0020EDE7340600201E
:103380003806002060060020440600200D480E4943
:10339000C8630E480E49C8630E480F4908600021F3
:1033A0000E4A11605160401E4FF0E02148617020CC
:1033B0000B49087000204FF0E02188610720086168
:1033C00000207047F1250008000000207D1F000844
:1033D000D087002040190100B406002078060020A4
:1033E00023ED00E02DE9F0410446E06CC70E0E48E5
:1033F000006800EBC706A06CB0420ED0A06CA0F134
:103400004405E86C20F07840E16C21F078410844F4
:10341000E96C01F078410843E86404F14400FDF7E9
:10342000CAFDBDE8F08100006806002010B50F4815
:1034300000680F49096888420BD00D4800680B49A5
:1034400008600846C1880B4800880844401E0749A8
:103450008880064881880748008880B2814204D16C
:10346000002002490860FEF7EFFB10BD880600202F
:1034700038060020780600200020024908600A2053
:10348000C88070478806002030B50446012304E058
:103490004FF0CA3542F823505B1CB3EB910FF7D3C2
:1034A0004FF0CC3515605518A5F144004FF00435A8
:1034B00005604FF0053545604FF0063585604FF0EB
:1034C0000735C5604FF0083505614FF00935456196
:1034D0004FF0103585614FF01135C561002505624B
:1034E00044624FF0013585626D00C5624FF00335CF
:1034F00005634FF012354563034D8563034DC56386
:103500004FF08075056430BD15300008712F00083C
:103510003EB5002500241BE0641C22460DA1684630
:10352000FEF778FE21460CA0FEF764FE1248006804
:1035300080F02000104908600846006880F0010013
:1035400008604FF47A70FEF711FB054605B13EBDE9
:10355000E2E7000025640000546869732069732065
:103560007461736B20312C636F756E7420697320E6
:1035700025640D0A000000000C0C01403EB500253A
:1035800000241BE0641C22460DA16846FEF742FEA3
:1035900021460CA0FEF72EFE1248006880F00100C4
:1035A000104908600846006880F0020008604FF487
:1035B000FA60FEF7DBFA054605B13EBDE2E7000022
:1035C0002564000054686973206973207461736B0B
:1035D00020322C636F756E742069732025640D0A88
:1035E000000000000C0C0140000000000000000082
:1035F0000000000000000000000000183C3C3C18E7
:103600001800181800000000000000666666000040
:1036100000000000000000000000006C6CFE6C6CFC
:103620006CFE6C6C000000000018183C66060C185C
:103630003060663C1818000000000E1B5B6E3018EE
:103640000C76DAD8700000000000001C36361C062C
:10365000F66666DC00000000000000181818000084
:1036600000000000000000000000003018180C0CE2
:103670000C0C0C18183000000000000C181830302A
:1036800030303018180C000000000000006C38FECC
:10369000386C000000000000000000000018187ED8
:1036A00018180000000000000000000000000000EA
:1036B0000000383830180000000000000000007ED4
:1036C00000000000000000000000000000000000FA
:1036D0000000383800000000000000606030301842
:1036E000180C0C060600000000000078CCECECCCB6
:1036F000DCDCCC780000000000000030383E3030C8
:1037000030303030000000000000003C6666603061
:10371000180C067E000000000000003C6666603861
:103720006066663C000000000000000C0C6C6C6CD5
:1037300066FE6060000000000000007E0606063E97
:103740006060301E0000000000000038180C3E666B
:103750006666663C000000000000007E60303018A5
:10376000180C0C0C000000000000003C66666E3C6B
:103770007666663C000000000000003C66666666F7
:103780007C30181C000000000000000000383800E9
:103790000000383800000000000000000038380049
:1037A00000003838301800000000006030180C06A7
:1037B0000C183060000000000000000000007E00D7
:1037C0007E00000000000000000000060C183060C1
:1037D00030180C06000000000000003C666630183F
:1037E00018001818000000000000007EC3C3F3DBBF
:1037F000DBF303FE00000000000000183C66666674
:103800007E666666000000000000003E6666663E5A
:103810006666663E000000000000003C6666060624
:103820000666663C000000000000001E3666666604
:103830006666361E000000000000007E0606063E9A
:103840000606067E000000000000007E0606063E1A
:1038500006060606000000000000003C666606063C
:103860007666667C00000000000000666666667E84
:1038700066666666000000000000003C1818181814
:103880001818183C000000000000006060606060D4
:103890006066663C00000000000000666636361E6A
:1038A00036366666000000000000000606060606C2
:1038B0000606067E00000000000000C6C6EED6D652
:1038C000D6C6C6C600000000000000C6C6CEDEF6A2
:1038D000E6C6C6C6000000000000003C66666666DC
:1038E0006666663C000000000000003E6666663EBC
:1038F00006060606000000000000003C66666666DC
:103900006666663C306000000000003E6666663E0B
:1039100036666666000000000000003C66060C1873
:103920003060663C000000000000007E1818181887
:103930001818181800000000000000666666666629
:103940006666663C0000000000000066666666660B
:1039500066663C1800000000000000C6C6C6D6D649
:10396000D66C6C6C0000000000000066662C181815
:103970003466666600000000000000666666663C0D
:1039800018181818000000000000007E6060301851
:103990000C06067E000000000000003C0C0C0C0C25
:1039A0000C0C0C0C0C0C3C0000000006060C0C1857
:1039B00018303060600000000000003C30303030D3
:1039C0003030303030303C0000183C6600000000E1
:1039D00000000000000000000000000000000000E7
:1039E000000000000000FF00001C18300000000074
:1039F000000000000000000000000000003C6060CB
:103A00007C66667C0000000000000006063E6666DC
:103A10006666663E0000000000000000003C66068E
:103A20000606663C0000000000000060607C6666E0
:103A30006666667C0000000000000000003C6666D0
:103A40007E06063C00000000000000780C0C0C7E96
:103A50000C0C0C0C0000000000000000007C6666EE
:103A60006666667C60603E0000000006063E666694
:103A7000666666660000000000001818001E181830
:103A80001818187E0000000000003030003C303074
:103A90003030303030301E000000000606666636DA
:103AA0001E366666000000000000001E1818181878
:103AB0001818187E0000000000000000007ED6D616
:103AC000D6D6D6C60000000000000000003E6666A4
:103AD000666666660000000000000000003C666646
:103AE0006666663C0000000000000000003E66665E
:103AF0006666663E0606060000000000007C6666FC
:103B00006666667C60606000000000000066760EFD
:103B1000060606060000000000000000007C060605
:103B20003C60603E000000000000000C0C7E0C0CAD
:103B30000C0C0C78000000000000000000666666B7
:103B40006666667C00000000000000000066666695
:103B500066663C18000000000000000000C6D6D6D3
:103B6000D6D66C6C00000000000000000066663CC9
:103B7000183C6666000000000000000000666666F3
:103B80006666663C30180F0000000000007E603062
:103B9000180C067E00000000000000301818180CF9
:103BA000060C181818300000000000181818181813
:103BB00018181818181818000000000C18181830D9
:103BC00060301818180C00000000008EDB71000037
:103BD0000000000000000000083C00080000002079
:103BE0000004000040020008243C000800060020F9
:103BF000C00000003C220008E43C0008C006002091
:103C0000108900004C22000841134D010C10086976
:103C100025040110A9180B14B9022401FF01FF01AA
:103C2000FF01B300000000000102030401020304CD
:103C30000607080902040608000000000000000052
:103C40000000000000000000000000000000000074
:103C50000000000000000000000000000000000064
:103C60000000000000000000000000000000000054
:103C70000000000000000000000000000000000044
:103C80000000000000000000000000000000000034
:103C90000000000000000000000000000000000024
:103CA0000000000000000000000000000000000014
:103CB0000000000000000000000000000000000004
:103CC00000000000000000000000000000000000F4
:103CD00000000000000000000000000000000000E4
:043CE00000000000E0
:0400000508000131BD
:00000001FF
