:020000040800F2
:10000000D848002009010008414C00081D3B0008A9
:100010003D4C0008590E0008318200080000000025
:10002000000000000000000000000000DD53000898
:1000300007190008000000006D0A00089559000823
:100040002301000823010008230100082301000800
:1000500023010008230100082301000823010008F0
:1000600023010008230100082301000823010008E0
:1000700023010008230100082301000823010008D0
:1000800023010008230100082301000823010008C0
:100090005D64000823010008230100082301000813
:1000A00023010008230100082301000823010008A0
:1000B0002301000823010008230100082301000890
:1000C0002301000823010008230100082301000880
:1000D0002301000823010008230100082301000870
:1000E000230100082301000823010008DFF80CD0D9
:1000F00000F06EFC00480047DD9600080006002076
:10010000EFF3058070470000064880470648004727
:10011000FEE7FEE7FEE7FEE7FEE7FEE7FEE7FEE7B7
:10012000FEE7FEE7BD590008ED000008124C134D34
:10013000256013484FF0010101604FF0020080F389
:100140001488104842680F4802600E4B1868878870
:100150004FF0100847EA08078780D0F800C00CF17C
:10016000240CBCE8FF008CF30988AE4687F30388B3
:1001700062B6304700BF000020ED00E00000F0F064
:1001800038070020000700202DE9F05F0546002019
:1001900092469B4688460646814640241BE02846F8
:1001A00041464746224600F044FB53465A46C01A91
:1001B000914110D311461846224600F02BFB2D1A10
:1001C00067EB01084F4622460120002100F022FB88
:1001D00017EB00094E41201EA4F10104DFDC484664
:1001E00031462A464346BDE8F09FD2B201E000F80E
:1001F000012B491EFBD270470022F6E710B51346CB
:100200000A4604461946FFF7F0FF204610BD30B5F8
:1002100005462A460B4612F8010B13F8014B08B1AC
:10022000A042F8D01CB1002802D06D1CF1E728468E
:1002300030BD421C10F8011B0029FBD1801A704709
:10024000034611F8012B00F8012B002AF9D11846BA
:100250007047F0B480EA0102D40F4200B2EB410FC4
:1002600002D20246084611464A0042D0C30DDDB212
:10027000C1F3C752AD1A202D35DAC1F3160141F48E
:10028000000204B15242C5F1200602FA06F12A41E9
:100290001044B3EBD05F23D0C4B1012DA0EBC35009
:1002A00009DCF0BC4FF0004202EAC352DBB200F5B9
:1002B000000000F0E9BA400000F1807000EBC3508C
:1002C000A0F1807040EAD170490009E0490841EA94
:1002D000C071A0EBC35000F50000400800EBC35014
:1002E000F0BC00F0C8BA6142012202EB4101001BE0
:1002F000F6E7F0BC704781F00041AAE780F00040CB
:10030000A7E780EA010210B502F00043400022D0C6
:100310004A001FD0010E01EB1261C0F35600C2F378
:10032000560240F4000042F40002A0FB0220000448
:100330007F39140400D0401C50EA124001D4400020
:10034000491EC2B20C0604EBD010401C4008802AA3
:1003500002D003E0002010BD20F00100002900DAE7
:100360000020184310BD2DE9FE4F804681EA0300AE
:10037000C00F0C46009021F0004123F00045B8EB7F
:100380000200A94105D24046214690461C460B4634
:10039000024623F00040104347D0270DC7F30A0060
:1003A000C3F30A510290401A019040286BDAC3F35C
:1003B000130040F4801B0098924620B10023D2EB3A
:1003C000030A63EB0B0B01985946C0F140025046FB
:1003D00000F020FA06460D4650465946019A00F0B4
:1003E00038FA10EB08006141002487EA115284EAD0
:1003F000E7731A4340D0009A62B3019A012A4FEA88
:10040000075215DC001B61EB02014FF0004202EACB
:100410000752CDE90042001C41F5801132462B46BF
:1004200000F06FFA03B0BDE8F08F40462146F9E7CF
:10043000001B61EB0201001C41F5801300185B41B9
:100440002018A2F5001747EB030140EAD570B61952
:100450006D4111E06D084FEA360645EAC0754FEA76
:100460000752001B61EB0201001C41F58011490895
:100470004FEA30000019514132462B4603B0BDE827
:10048000F04F00F02FBA0098012240000023D0EB7B
:10049000020263EBE073009821464FEAE074B8EB88
:1004A000000061EB0401E9E783F000435BE781F0C2
:1004B000004158E72DE9FE4F81EA030404F00044AF
:1004C00021F0004100944FF0000B23F0004350EA6C
:1004D00001045ED052EA03045BD0C3F30A54C1F3B3
:1004E0000A552C44A4F2F3340194A0FB0254C1F346
:1004F000130141F48011C3F3130343F4801301FB90
:10050000024400FB034E840A970A44EA815447EAF6
:100510008357A4FB076802958D0A05FB07854FEA00
:10052000932C04FB0C542705029D4FEA065847EA1A
:100530001637B5EB08056EEB070C870E920E47EAEF
:10054000811742EA8312A7FB0201B6EB0B0164EBB1
:1005500000042B0D43EA0C335E1844EB1C50DA46C2
:100560005146E7FB0201C5F313044FEA0B3343EA9C
:1005700014534FEA0432019C43EA0603A4F10C042D
:100580000294009CCDE900B400F0BBF903B0BDE8D3
:10059000F08F00200146F9E72DE9F04D81EA0304D0
:1005A00004F0004B21F0004514464FF0000A23F000
:1005B000004150EA050220D054EA01021DD0C5F3E3
:1005C0000A570246C5F31303C1F31300C1F30A56D9
:1005D00040F4801543F48013A7EB0608101BD646A1
:1005E00008F2FD3873EB050002D308F1010801E0C1
:1005F00092185B41B8F1000F03DA00200146BDE814
:10060000F08D00204FF48011064684460EE0171B43
:1006100073EB050705D3121B63EB050306434CEA96
:10062000010C49084FEA300092185B4150EA01077B
:10063000EDD152EA030012D082EA040083EA0501F8
:10064000084305D0101BAB4106D20122002306E06F
:1006500000224FF0004302E06FF0010253101AEB4A
:1006600006004CEB085110EB0A0041EB0B01BDE812
:10067000F04D00F037B9C10F80EAE0700844CA07B6
:100680009623002100F000B996230022114600F0C5
:10069000FBB80EB5C10F80EAE0700844CA0700211C
:1006A00040F233438DE80E000A460B4600F029F96C
:1006B00003B000BD0EB540F2334102910021CDE9F7
:1006C00000110A460B4600F01CF903B000BD00F013
:1006D000004220F00040C10DC0F3160040F40000BD
:1006E0007F2901DA00207047962903DCC1F19601C9
:1006F000C84001E096398840002AF4D04042704753
:10070000C1F30A5210B5C1F3130140F2FF3341F4B3
:1007100080119A4201DA002010BD40F233439A4220
:10072000A2F2334203DC524200F083F810BD904045
:1007300010BDC1F30A52C1F3130140F2FF3341F47B
:1007400080119A4202DA00200146704740F233439A
:100750009A42A2F2334202DC524200F06AB800F040
:1007600059B800F0004230F000400AD0C10D01F548
:100770006071C0F3160042EA0151C20840071143FC
:10078000704700200146704701F0004330B421F06B
:10079000004150EA010206D00A0DA2F56072C1F3D1
:1007A0001301002A02DC30BC00207047440F44EAE9
:1007B000C104C100E01830BC00EBC25000F05BB8CF
:1007C000002801DBC0F10040002901DBC1F100413C
:1007D00081427047002801DBC0F10040002901DBA5
:1007E000C1F100418842704730B50B4601460020F8
:1007F0002022012409E021FA02F59D4205D303FAE3
:1008000002F5491B04FA02F52844151EA2F1010263
:10081000F1DC30BD202A04DB203A00FA02F100208E
:1008200070479140C2F1200320FA03F3194390402E
:100830007047202A04DB203A21FA02F00021704799
:1008400021FA02F3D040C2F1200291400843194638
:100850007047202A06DBCB17203A41FA02F043EA20
:10086000E07306E041FA02F3D040C2F12002914069
:100870000843194670470029A8BF7047401C49002B
:1008800008BF20F00100704710B4B0FA80FC00FAF5
:100890000CF050EA010404BF10BC704749B1CCF120
:1008A000200421FA04F411FA0CF118BF01212143AC
:1008B0000843A3EB0C01CB1D4FEA00614FEA102067
:1008C00042BF002010BC704700EBC3501044002909
:1008D000A4BF10BC7047401C490008BF20F00100B5
:1008E00010BC704710B5141E73F1000408DA401CE8
:1008F00041F1000192185B411A4301D120F001003F
:1009000010BD2DE9F04D92469B4611B1B1FA81F22E
:1009100002E0B0FA80F220329046FFF77BFF0446F7
:100920000F4640EA0A0041EA0B0153465A46084383
:1009300013D0114653EA010019D0C8F140025046C5
:10094000FFF777FF05460E46504659464246FFF7E9
:1009500061FF084305D0012004E020463946BDE888
:10096000F08D0020054346EAE0762C4337430A9891
:100970006305E40AA0EB08000022FD0A44EA47549C
:100980000A3002D500200146E9E701051019694146
:10099000DDE9084500196941BDE8F04DA2E7000016
:1009A00030B5041E71F1000404DB4FF000444042F6
:1009B00064EB0101141E73F1000405DB1C464FF0CB
:1009C0000043524263EB0403994208BF904230BD9A
:1009D000064C074D06E0E06840F0010394E807008C
:1009E00098471034AC42F6D3FFF784FB28AF0008D9
:1009F00058AF000870B58C1810F8015B15F00703AC
:100A000001D110F8013B2A1106D110F8012B03E0A7
:100A100010F8016B01F8016B5B1EF9D12B0705D4AF
:100A20000023521E0DD401F8013BFAE710F8013BF8
:100A3000CB1A921C03E013F8015B01F8015B521E14
:100A4000F9D5A142D8D3002070BD0000EFF310808B
:100A500072B67047EFF3108062B6704780F310886B
:100A6000704717484FF0805101607047EFF3108CCA
:100A700072B6144A12681AB100B590475DF804EBDB
:100A8000EFF3098020E9F01F0F4D2E683060B78822
:100A90004FF0100827EA0807B7800B484068286025
:100AA00087884FF0100847EA080787800168B1E897
:100AB000F01F81F309888CF31088704700BF000095
:100AC00004ED00E03C0700200007002010B500F016
:100AD0002FF8202401201449086000201349C1F890
:100AE000900101201049083108600AE000F0ACF8DC
:100AF00000200D49086000F0A7F801200B49C1F85B
:100B000094012000A4F10104F0D101200649091F3D
:100B10000860102000F06CF8002000F069F89120C7
:100B200000F066F810BD000094012142000021424F
:100B30000B48806940F00400094988610948006851
:100B400080B208490860084600680749084305491B
:100B500008600120054908600549C1F8180170477F
:100B6000001002400008014000003334900121428F
:100B70000000214230B5024601241A4D2C600024A9
:100B8000194DC5F8904100200124164D843D2C607C
:100B900000211FE0002317E00024124D083D2C60C7
:100BA000114CD4F8184114B94406200E03E0440651
:100BB000200E441CE0B200F047F80124094D083D26
:100BC0002C6000F041F85B1C082BE5DB074C6054FF
:100BD0000020491C9142DDDB0124024D0C3D2C60BC
:100BE00030BD00009C012142000021426B08002022
:100BF00010B50023124C23608022002119E002EA84
:100C0000000323B900230E4C0C34236003E00123BE
:100C10000B4C0C3423600023094C241D236000F08E
:100C200013F80123074CC4F8943100F00DF852106A
:100C3000491C0829E3DB0123014C236010BD00009F
:100C4000900121420000214200BF00BF00BF00BF51
:100C500000BF00BF00BF00BF00BF00BF7047000063
:100C60002DE9F0439DB006460C460025A846A9464E
:100C70001AA9304600F07AFC1AAA17A101A807F0B9
:100C8000CDFF01A8FFF7D5FAC7B2384604F066FBDE
:100C90000546012D03D028461DB0BDE8F0831AA9F2
:100CA00001A804F07BFC0546012D01D01120F3E7DB
:100CB0001249601C51F8200040F080410F4A601C2E
:100CC00042F82010114651F8200040F00041601C0D
:100CD00042F820100120DFE77B2274797065223A08
:100CE000226E6577646964222C226E65776469647C
:100CF000223A222573227D0D0A0000009008002070
:100D000070B5054600260024284604F077FB064609
:100D10000EB1212070BD0D48046804EB4400C01DD5
:100D20000A4941F82050002104EB44000830074AEA
:100D300042F8201004EB4400093042F82010601CF7
:100D40000446114608600120E4E7000090080020F6
:100D500038B50446012C11D10003ADF80000102075
:100D60008DF8030003208DF8020069460D4801F05C
:100D7000A7FC21030B4801F037FD12E04FF480502F
:100D8000ADF8000014208DF8030003208DF8020058
:100D90006946044801F094FC4FF48051014801F089
:100DA00025FD38BD000C014008B50121082004F0E4
:100DB00017F84FF48050ADF8000014208DF80300B0
:100DC00003208DF802006946084801F079FC4FF4D1
:100DD0008051064801F00AFD0120FFF7B9FF3220DB
:100DE00000F092FD0020FFF7B3FF08BD000C0140AA
:100DF00010B504460120FFF7ABFFA0B207F01AFAC6
:100E00000020FFF7A5FFA0B207F014FA10BD000004
:100E100070B505460C4625B104A12046FFF710FA2F
:100E200003E004A12046FFF70BFA70BD74727565EC
:100E30000000000066616C7365000000002000BFC8
:100E400003E00021034A1154401CB0F5957FF8DD02
:100E500070470000980E002000BFFEE710B500218B
:100E6000837A012202FA03F13D4A126842F001023C
:100E70003B4B1A603A4A1C3212688A43384B1C3387
:100E80001A60027BCAB9364A0C3212688A43344B64
:100E90000C331A604288C38842EA0343304A403226
:100EA000847A42F834300288838842EA03432C4A29
:100EB0004032847A02EBC4025360027B012A19D1CA
:100EC000274A0C3212680A43254B0C331A604288B9
:100ED000038842EA0343224A4032847A42F834309B
:100EE000C288838842EA03431D4A4032847A02EB77
:100EF000C4025360C27A3AB9194A121D12688A4371
:100F0000174B1B1D1A6006E0154A121D12680A4392
:100F1000134B1B1D1A60028932B9114A1432126830
:100F20008A430F4B14331A600289012A06D10C4AF6
:100F3000143212680A430A4B14331A60427B012AA6
:100F400006D1074A1C3212680A43054B1C331A604B
:100F5000034A126822F00102014B1A6010BD000022
:100F6000006600401AB143690B43436102E04369E4
:100F70008B434361704730B502460020002314685C
:100F800024F002041460146844F00104146000E0CA
:100F90005B1C546804F001041CB94FF6FF74A342B3
:100FA000F6D1546804F001040CB900206CE08C798F
:100FB000012C04D1146844F08004146003E0146828
:100FC00024F080041460CC79012C04D1146844F01E
:100FD0004004146003E0146824F0400414600C7AA8
:100FE000012C04D1146844F02004146003E0146858
:100FF00024F0200414604C7A012C04D1146844F0CD
:101000001004146003E0146824F0100414608C7A57
:10101000012C04D1146844F00804146003E014683F
:1010200024F008041460CC7A012C04D1146844F034
:101030000404146003E0146824F0040414608C7841
:10104000A407CD7844EA05640D7944EA05444D7956
:1010500044EA05540D886D1E2C43D461146824F0B5
:1010600001041460002300E05B1C546804F00104D8
:101070001CB14FF6FF74A342F6D1546804F001048A
:101080000CB1002000E0012030BD00002DE9F0414E
:101090008AB004460D4616461F46DDF84080012101
:1010A000042003F09DFE0121480603F079FE4FF471
:1010B0008050ADF8240003208DF8260018208DF80C
:1010C000270009A9324801F0FBFA4FF40060ADF89F
:1010D000240048208DF8270009A92D4801F0F0FAD6
:1010E00000208DF81E008DF81F008DF820000120D3
:1010F0008DF8210000208DF8220001208DF82300BA
:101100008DF81A808DF81B408DF81C608DF81D50ED
:10111000ADF8187006A91F48FFF72DFF00208DF8C5
:1011200012008DF8130001208DF814001A48006891
:101130004FF6FF7101EA2040ADF80800164800881C
:1011400080B2ADF80A000020ADF80C00ADF80E003A
:10115000ADF8100001208DF8150002A8FFF77EFE03
:10116000012202210B48FFF7FDFE14208DF8040038
:1011700003208DF8050000208DF8060001208DF871
:10118000070001A803F05EFD00200AB0BDE8F08171
:1011900000080140006400409C06002010B500F5E6
:1011A000D87303EB01131B6803F004031372137A63
:1011B00053B900F5D87303EB01131B6840F2FF74B9
:1011C00004EA5353136009E000F5D87303EB0113ED
:1011D0001B686FF0604404EAD303536000F5D873D2
:1011E00003EB01131B6803F00203537200F5D8737D
:1011F00003EB01135B6803F00F03937200F5D873E0
:1012000003EB01135B681B0AD37400F5D87303EB7F
:1012100001139B68D37200F5D87303EB01139B682D
:101220001C0A147300F5D87303EB01139B681C0CA4
:10123000547300F5D87303EB01139B681B0E937373
:1012400000F5D87303EB0113DB68D37300F5D87393
:1012500003EB0113DB681C0A147400F5D87303EB6D
:101260000113DB681C0C547400F5D87303EB0113F5
:10127000DB681B0E937421B9C36843F02003C3607D
:1012800003E0036943F02003036110BD10B502467B
:101290000020936803F08063B3F1806F00D110E009
:1012A000936803F00063B3F1006F01D1012008E0FF
:1012B000936803F08053B3F1805F01D1022000E016
:1012C0000420042874D002F5C07303EB00131B68DC
:1012D00003F0010402F5C07303EB00131C600B7AEA
:1012E0007BB94B7A0C8843EA445302F5C07404EB93
:1012F00000142468234302F5C07404EB0014236037
:1013000010E00B7A4C6843EAC4034C7A234302F59D
:10131000C07404EB00142468234302F5C07404EB8A
:10132000001423608B7A03F00F038B7202F5C073F5
:1013300003EB00135B6823F00F0402F5C07303EBAB
:1013400000135C6002F5C07303EB00135B688C7ADA
:10135000234302F5C07404EB001463608B7B1C060E
:101360004B7B44EA03440B7B44EA0323CC7A2343BC
:1013700002F5C07404EB0014A3608B7C1C064B7C4C
:1013800044EA03440B7C44EA0323CC7B234302F569
:10139000C07404EB0014E36002F5C07303EB0013A8
:1013A0001B6843F0010402F5C07303EB00131C60DB
:1013B00010BD000010B50246002321B1012907D05D
:1013C00002290FD109E090681D4C00EA04030BE0EC
:1013D00090681C4C00EA040306E090681A4C00EA8E
:1013E000040301E0002300BF00BF184C181BA342F8
:1013F00016D007DC83B16FF08060184470B102280A
:1014000018D111E0B0F5007F10D0114C204448B144
:10141000B0F5003F0ED10BE002230DE000230BE0FE
:10142000002309E0002307E0012305E0012303E096
:10143000012301E0002300BF00BFD8B210BD0000AF
:10144000030000040003000800000310000100086E
:101450000001FFF770470000F0B585B007460D4664
:10146000002412200090019000208DF808008DF8D3
:1014700009008DF80A5000BF05E0395D0DF10B0041
:101480000155601C84B2AC42F7DB69460C48FFF79B
:10149000FDFE0646002401E0601C84B23146084887
:1014A000FFF788FF18B940F6FF708442F4DB40F67E
:1014B000FF70844202DB012005B0F0BD0020FBE795
:1014C0000064004010B520210F4801F084F930B1CC
:1014D0000E48406940F480100C49486112E00B4806
:1014E0004069C0F3005068B109480088401C0849B1
:1014F00008800648406920F44010044948610020F3
:101500000449487110BD00000010014090080020FF
:1015100078060020D407002010B501210F4801F003
:101520005AF980B10E484069C0F30060A0B10D487F
:101530000088401C0B4908800948406920F0407031
:101540000749486108E00648406940F08070044956
:10155000486100200449C87010BD00000008014027
:101560009008002078060020D407002010B502461D
:1015700000202CE0830002FA03F31B0F0B700B78A2
:10158000092B03DC0B7830330B701DE00B78093B23
:10159000072B17D2DFE803F01604070A0D1013001B
:1015A00041230B700FE042230B700CE043230B70C0
:1015B00009E044230B7006E045230B7003E046234B
:1015C0000B7000E000BF00BF491C431CD8B20828C4
:1015D000D0DB00230B7010BD10B504462CB94FF4BE
:1015E0000071054801F0F7F810BD4FF48071024812
:1015F00001F0F1F8F8E700000010014070B5054671
:101600000C4665B92CB14FF400710B4801F0EEF8AF
:1016100011E04FF40071084801F0E6F80BE02CB13E
:101620004FF48071044801F0E1F804E04FF4807158
:10163000014801F0D9F870BD001001402DE9F14FCB
:10164000009800F01BF9009800F0BEF8CC2100983B
:1016500000F029F94421009800F025F9009800F0E5
:101660000DF9009800F0B0F8CC21009800F01BF9BB
:10167000BE21009800F017F9009800F0EAF88346C0
:10168000009800F0E6F882464FEA0A2004B244EAE5
:101690000B04002C0DDAE043401CFEF7FAFF07466E
:1016A00000220B4BFEF706FF0546FFF76DF881465B
:1016B0000BE02046FEF7EDFF05460022044BFEF747
:1016C000F9FE0746FFF760F881464846BDE8F88F07
:1016D0000000B03F38B50446C4B90121102003F022
:1016E0007FFB4FF40070ADF8000010208DF8030070
:1016F00003208DF802006946114800F0E1FF002048
:1017000000F0BCF8002000F05FF838BD0121102087
:1017100003F066FB4FF48070ADF8000010208DF8E8
:10172000030003208DF802006946054800F0C8FF59
:10173000012000F0A3F8012000F046F8E5E70000E2
:101740000010014038B504465CB94FF40070ADF8A4
:10175000000048208DF803006946084800F0B0FFFB
:101760000BE04FF48070ADF8000048208DF80300C6
:101770006946024800F0A4FF00BF38BD00100140D8
:1017800038B5044674B94FF40070ADF8000010206D
:101790008DF8030003208DF802006946094800F027
:1017A0008FFF0DE04FF48070ADF8000010208DF831
:1017B000030003208DF802006946024800F080FF14
:1017C00038BD00000010014070B5054600242846D1
:1017D000FFF7B8FF04E0601CC4B2012000F0A4F8D9
:1017E0002846FFF7F9FE08B1642CF4DB642C01DB1A
:1017F000012070BD002404E0601CC4B2012000F090
:1018000093F82846FFF7E8FE08B9F02CF4DBF02C3B
:1018100001DB0120EDE70020EBE770B50546284627
:10182000FFF7AEFF00212846FFF7E8FE0A2000F090
:101830007BF82846FFF786FF2846FFF7CDFE0128F4
:1018400001D1012400E000242D2000F06DF8204695
:1018500070BD2DE9F04107460026002409E0384616
:10186000FFF7DBFF054605FA04F03043C6B2601C03
:10187000C4B2082CF3DB3046BDE8F08110B5044655
:101880002046FFF77DFF00212046FFF7B7FE40F21C
:10189000EE2000F049F801212046FFF7AFFE0F20AF
:1018A00000F042F810BD2DE9F04107460C463846DD
:1018B000FFF766FF002522E004F00106641076B110
:1018C00000213846FFF79AFE082000F02DF801218C
:1018D0003846FFF793FE3A2000F026F80DE000218D
:1018E0003846FFF78BFE462000F01EF801213846EF
:1018F000FFF784FE022000F017F8681CC5B2082D1F
:10190000DADBBDE8F0817047002107E042F6E061D4
:1019100000BF0A00A1F1010399B2FAD10200A0F1BF
:10192000010398B2F2D17047002106E00A2100BFFE
:101930000A00A1F1010399B2FAD10200A0F101035A
:1019400098B2F3D170470000F0B599B00025002798
:1019500000BF3D4800780028FBD13B4800780028B4
:101960006DD10120384908700021800704F056F835
:101970006420FFF73DFA354A35A1684607F04EF975
:101980006846FEF756FC0746002400BFF8B203F095
:10199000E5FC0546012D05D000202B49087028469E
:1019A00019B0F0BD04F094FD40F2DC5006F042FCAA
:1019B000684604F011FC00261BE0642006F03AFCA7
:1019C000701C86B22CA13548FEF721FC00B112E054
:1019D00033A13248FEF71BFC58B14FF4FA70FFF701
:1019E00007FA4FF4FA70FFF703FA0020164908705F
:1019F000D6E7C82EE1DB00BF601CC4B2022C0BDDB1
:101A00004FF4FA70FFF7F4F94FF4FA70FFF7F0F9BA
:101A100000200D490870C3E717A12048FEF7F7FB27
:101A20000028B3D04FF47A70FFF7E2F9012188075C
:101A300003F0F4FF0020044908700120B0E7002003
:101A4000014908700120ABE7A006002052080020E1
:101A50007B2274797065223A226164643275736501
:101A600072222C226164643275736572223A2225D7
:101A700073227D0D0A0000002274797065223A22DB
:101A80006164643275736572222C226164643275FC
:101A9000736572223A74727565000000A40C002010
:101AA0002274797065223A226164643275736572BA
:101AB000222C226164643275736572223A66616C0D
:101AC0007365000010B512A003F089FC13A003F0A9
:101AD00086FC17A003F083FC18A003F080FC1CA078
:101AE00003F07DFC1DA003F07AFC21A003F077FC3D
:101AF00022A003F074FC26A003F071FC27A003F0E1
:101B00006EFC2BA003F06BFC2CA003F068FC10BD56
:101B10007431362E70636F3D524544007431362E59
:101B20007478743D22C9E8B1B8B6AACAA7220000E9
:101B30007431372E70636F3D524544007431372E37
:101B40007478743D22C9E8B1B8B6AACAA7220000C9
:101B50007431382E70636F3D524544007431382E15
:101B60007478743D22C9E8B1B8B6AACAA7220000A9
:101B70007431392E70636F3D524544007431392EF3
:101B80007478743D22C9E8B1B8B6AACAA722000089
:101B90007432302E70636F3D524544007432302EE3
:101BA0007478743D22C9E8B1B8B6AACAA722000069
:101BB0007432312E70636F3D524544007432312EC1
:101BC0007478743D22C9E8B1B8B6AACAA722000049
:101BD0002DE9F0418AB005460C469046082D6ED29C
:101BE000DFE805F004284C7194B8DBFE4046FEF7B0
:101BF000B8FD064632460B4683A102A807F00EF850
:101C000002A803F0ECFB14B1012C10D107E082A173
:101C100002A807F003F802A803F0E1FB08E081A1A5
:101C200002A806F0FBFF02A803F0D9FB00E000BF0A
:101C300000BFE4E04046FEF794FD064632460B4600
:101C40007CA102A806F0EAFF02A803F0C8FB14B1C9
:101C5000012C10D107E07BA102A806F0DFFF02A84B
:101C600003F0BDFB08E07AA102A806F0D7FF02A8A6
:101C700003F0B5FB00E000BF00BFC0E04046FEF748
:101C800070FD064632460B4675A102A806F0C6FF57
:101C900002A803F0A4FB14B1012C11D107E074A138
:101CA00002A806F0BBFF02A803F099FB09E073A1AC
:101CB00002A806F0B3FF02A803F091FB01E09DE04B
:101CC00000BF00BF9BE000214046FEF779FD0ED12A
:101CD0006EA102A806F0A2FF02A803F080FB6FA18C
:101CE00002A806F09BFF02A803F079FB0DE06FA1AC
:101CF00002A806F093FF02A803F071FB6FA102A8EF
:101D000006F08CFF02A803F06AFB78E04046FEF77D
:101D100028FD064632460B466BA102A806F07EFF60
:101D200002A803F05CFB14B1012C10D107E06AA1FA
:101D300002A806F073FF02A803F051FB08E069A1B6
:101D400002A806F06BFF02A803F049FB00E000BF09
:101D500000BF54E000214046FEF732FD0ED165A1E0
:101D600002A806F05BFF02A803F039FB65A102A8F8
:101D700006F054FF02A803F032FB0DE065A102A8B3
:101D800006F04CFF02A803F02AFB66A102A806F0A9
:101D900045FF02A803F023FB31E04046FEF797FC25
:101DA00060B94046FEF793FC461C61480068431C3E
:101DB000324660A102A806F031FF1AE04046FEF765
:101DC00086FC461C4046FEF782FC401E00EB4000AD
:101DD000C01D574931F8200087B20846006800E06E
:101DE0000BE0401C33463A4658A1009002A806F08A
:101DF00015FF02A803F0F3FA01E000E000BF00BF06
:101E00000AB0BDE8F08100007431362E7478743D5C
:101E100022252E31662200007431362E70636F3D0C
:101E2000524544007431362E70636F3D3130323488
:101E3000000000007431372E7478743D22252E3155
:101E4000662200007431372E70636F3D52454400A6
:101E50007431372E70636F3D313032340000000032
:101E60007431382E7478743D22252E31662200009C
:101E70007431382E70636F3D524544007431382EF2
:101E800070636F3D31303234000000007431392E00
:101E90007478743D22D5FDB3A32200007431392E2D
:101EA00070636F3D31303234000000007431392EE0
:101EB0007478743D22B9FDB5CD2200007431392EFD
:101EC00070636F3D524544007432302E7478743D17
:101ED00022252E31662200007432302E70636F3D51
:101EE000524544007432302E70636F3D31303234CD
:101EF000000000007432312E7478743D22D5FDB399
:101F0000A32200007432312E70636F3D31303234C1
:101F1000000000007432312E7478743D22B5F4B59F
:101F2000E72200007432312E70636F3D5245440049
:101F3000900800207432362E7478743D22D6F7BB98
:101F4000FA2825642F256429220000007432362ED9
:101F50007478743D22253034582825642F2564294F
:101F60002200000000B5A3B0002021901290F94893
:101F70004068C0F303600190FEF79CFB0022F64B23
:101F8000CDE90201FEF708FBCDE90601F148406802
:101F90000F2101EA10700390FEF78CFBCDE90401DC
:101FA000DDE90623FEF7DFF9CDE90801FEF7ECFBDA
:101FB0001C90E8484068C0F303400190FEF77AFBAC
:101FC0000022E54BCDE90201FEF7E6FACDE9060174
:101FD000E0484068C0F303500390FEF76BFBCDE987
:101FE0000401DDE90623FEF7BEF9CDE90801FEF79D
:101FF000CBFB1B90D7480079C0F303100190FEF78C
:1020000059FB0022D44BCDE90201FEF7C5FACDE918
:102010000601D0488088C0F307200390FEF74AFBF2
:10202000CDE90401DDE90623FEF79DF9CDE90801BC
:10203000FEF7AAFB1A90C7488068C0F303600190BE
:10204000FEF738FB0022C44BCDE90201FEF7A4FAEB
:10205000CDE90601BF48007900F00F01BD48806856
:10206000000F61F31F100390FEF724FBCDE904017C
:10207000DDE90623FEF777F9CDE90801FEF784FBD9
:102080001990B4480089C0F303300190FEF712FBA9
:102090000022B14BCDE90201FEF77EFACDE906013F
:1020A000AC488068C0F307400390FEF703FBCDE91E
:1020B0000401DDE90623FEF756F9CDE90801FEF734
:1020C00063FB1890A348007A00F00F000190FEF720
:1020D000F1FA0022A04BCDE90201FEF75DFACDE94D
:1020E00006019C480089C0F307100390FEF7E2FA4E
:1020F000CDE90401DDE90623FEF735F9CDE9080154
:10210000FEF742FB17909348C068C0F3035001905C
:10211000FEF7D0FA0022904BCDE90201FEF73CFA1F
:10212000CDE906018B48C068000E0390FEF7C2FAA5
:10213000CDE90401DDE90623FEF715F9CDE9080133
:10214000FEF722FB169083488089C0F3032001909C
:10215000FEF7B0FA0022804BCDE90201FEF71CFA2F
:10216000CDE906017B48C068C0F307300390FEF755
:10217000A1FACDE90401DDE90623FEF7F4F8CDE983
:102180000801FEF701FB1590744A75A10AA806F034
:1021900045FD0AA803F023F97448007808BB6D4890
:1021A0008069C0F383300190FEF784FA00226A4B05
:1021B000CDE90201FEF7F0F9CDE906016548806935
:1021C000C0F387400390FEF775FACDE90401DDE91D
:1021D0000623FEF7C8F8CDE90801FEF7D5FA1E90F0
:1021E0002FE0624890F90000401E00EB40000930EB
:1021F000584951F82000C0F303500190FEF75AFAF5
:102200000022554BCDE90201FEF7C6F9CDE90601E2
:10221000564890F90000401E00EB400009304D493F
:1022200051F82000000E0390FEF744FACDE90401B6
:10223000DDE90623FEF797F8CDE90801FEF7A4FAD9
:102240001E9018991E98FEF7C5FA04D317991E9888
:10225000FEF7B6FA09D2002108461E9AFFF7B8FC2D
:102260001298401CC0B2129004E0012100201E9A76
:10227000FFF7AEFC3D48007830BB36488069C0F3BC
:1022800083600190FEF716FA0022334BCDE902017C
:10229000FEF782F9CDE906012E48007D00F03F01EE
:1022A0002C488069800F61F39F000390FEF702FACB
:1022B000CDE90401DDE90623FEF755F8CDE9080173
:1022C000FEF762FA1F9030E0284890F90000401EA7
:1022D00000EB400008301F4911F8200000F00F000B
:1022E0000190FEF7E7F900221B4BCDE90201FEF752
:1022F00053F9CDE906011D4890F90000401E00EB9E
:1023000040000830134931F82000C0F30710039053
:10231000FEF7D0F9CDE90401DDE90623FEF723F845
:10232000CDE90801FEF730FA1F901A991F98FEF7C1
:1023300051FA04D319991F98FEF742FA18D20021D6
:1023400001201F9AFFF744FC1298401CC0B2129063
:1023500013E00000900800200000244052080020F4
:1023600074302E7478743D222573220005060020F7
:10237000012108461F9AFFF72BFCA748007808BBED
:10238000A648007EC0F383000190FEF793F9002277
:10239000A34BCDE90201FEF7FFF8CDE906019F4806
:1023A000008BC0F387100390FEF784F9CDE9040198
:1023B000DDE90623FDF7D7FFCDE90801FEF7E4F9D3
:1023C0001D9030E0944890F90000401E00EB400062
:1023D0000930924931F82000C0F303200190FEF744
:1023E00069F900228E4BCDE90201FEF7D5F8CDE95F
:1023F0000601894890F90000401E00EB40000930BA
:10240000864951F82000C0F307300390FEF752F9D7
:10241000CDE90401DDE90623FDF7A5FFCDE90801BB
:10242000FEF7B2F91D9016991D98FEF7D3F904D363
:1024300015991D98FEF7C4F909D2002102201D9AB2
:10244000FFF7C6FB1298401CC0B2129004E00121B5
:1024500002201D9AFFF7BCFB6F48007828B96F482F
:102460004069C0F3006014900CE06B4890F90000E4
:10247000401E00EB40000930684911F82000C0F30D
:10248000C0101490149801280DD11498FEF7FCF890
:102490000246002109900320FFF79AFB1298401C86
:1024A000C0B2129008E01498FEF7EEF8024601213F
:1024B00009900320FFF78CFB5748007808BB57486A
:1024C000808AC0F383100190FEF7F4F80022544B89
:1024D000CDE90201FEF760F8CDE906014F48808A98
:1024E000C0F383200390FEF7E5F8CDE90401DDE9B0
:1024F0000623FDF738FFCDE90801FEF745F92090E6
:1025000030E0454890F90000401E00EB40000830E4
:10251000424931F82000C0F303300190FEF7CAF8B9
:1025200000223F4BCDE90201FEF736F8CDE9060166
:10253000394890F90000401E00EB40000830374950
:1025400051F82000C0F303400390FEF7B3F8CDE943
:102550000401DDE90623FDF706FFCDE90801FEF7DA
:1025600013F920901C992098FEF734F904D31B9995
:102570002098FEF725F909D200210420209AFFF7C0
:1025800027FB1298401CC0B2129004E001210420E5
:10259000209AFFF71DFB21484069C0F300501390BB
:1025A000139868B11398FEF76FF80246002109905E
:1025B0000520FFF70DFB1298401CC0B2129008E0F6
:1025C0001398FEF761F80246012109900520FFF7F4
:1025D000FFFA114890F90000FEF74DF8024601217C
:1025E00009900620FFF7F4FA0B48007888B10A48F2
:1025F00090F90000401E00EB40000830074951F8F8
:102600002000C0F3836021902198042801DBFFF7AC
:1026100059FA23B000BD00000506002090080020F4
:102620000000244010B5224890F90000062838D256
:10263000DFE800F003043334353633E01D4800781A
:10264000012802D0032823D110E01B480078401E47
:1026500040B219490870084690F90000002804DAD1
:10266000002008701349087010BD12E0124800786D
:10267000401C40B2104908701048006891F90010E1
:10268000884204D80D48007840B20B49087000E039
:1026900000BF00BFFFF766FC04E003E002E001E0DA
:1026A00000E000BF00BF00200249087000BFDBE768
:1026B0000406002090060020050600209008002057
:1026C0002DE9F041024600250026002000230024C9
:1026D000002791F803C00CF00F0591F803C00CF02F
:1026E000100CBCF1000F03D091F802C04CEA0505B4
:1026F00091F800C0BCF1000F31D0146800202BE02D
:102700004FF0010C0CFA00F3B1F800C00CEA03061C
:102710009E4220D183004FF00F0C0CFA03F7BC430C
:1027200005FA03FC4CEA040491F803C0BCF1280F3D
:1027300006D14FF0010C0CFA00FCC2F814C00AE0FC
:1027400091F803C0BCF1480F05D14FF0010C0CFA11
:1027500000FCC2F810C0401C0828D1D31460B1F8A6
:1027600000C0BCF1FF0F34DD546800202EE000F102
:10277000080C4FF0010808FA0CF3B1F800C00CEA9D
:1027800003069E4221D183004FF00F0C0CFA03F791
:10279000BC4305FA03FC4CEA040491F803C0BCF105
:1027A000280F05D100F1080C08FA0CF8C2F81480C3
:1027B00091F803C0BCF1480F07D100F1080C4FF0AD
:1027C000010808FA0CF8C2F81080401C0828CED383
:1027D0005460BDE8F0810246002093680B400BB1C5
:1027E000012000E00020704741617047016170479F
:1027F00008B50121182002F0F3FA4FF40070ADF88B
:10280000000010208DF8030003208DF802006946B7
:102810000D48FFF755FF4FF40060ADF800001020A1
:102820008DF8030003208DF8020069460748FFF782
:1028300047FF4FF400710448FFF7D6FF4FF40061E3
:102840000248FFF7D3FF08BD000C01400010014013
:102850002DE9F047A0B00024A0460026A146FDA126
:10286000FE48FDF7D4FC00287DD0FDA1FB48FDF714
:10287000CEFC861D182219A9304603F01FF8F9492D
:1028800019A8FDF7C4FC00286ED0F2A1F348FDF7AB
:10289000BEFCC61DF4A13046FDF7B9FC8046A8EB8E
:1028A000060000F0FF094A4617A9304603F006F873
:1028B00017A908A803F010F80898FDF708FF0546C7
:1028C000EA490898FDF71DFD8246FDF700FF0A2141
:1028D00090FBF1F201FB120700210898FDF77AFF47
:1028E0001AD8E3490898FDF76BFF15D8E14840680E
:1028F00020F47F00DF4948600846406805F00F017A
:1029000040EA0150DB4948600846406807F00F0183
:1029100040EA0140D7494860D7A1D048FDF777FC8D
:1029200000F10F06D0A13046FDF771FC8046A8EB00
:10293000060000F0FF094A4615A9304602F0BEFF26
:1029400015A907A802F0C8FF0798FDF7C0FE0546C5
:10295000C6490798FDF7D5FC8246FDF7B8FE0A2167
:1029600090FBF1F201E0A7E2A4E201FB12070021D3
:102970000798FDF72FFF23D8C3490798FDF720FFDD
:102980001ED8BC48406820F00F00BA49486008468D
:102990004068C5F303110843B6494860084680689B
:1029A00020F07F4088600846806840EA05708860B3
:1029B0000846806807F00F0140EA0160AD49886071
:1029C000B2A1A648FDF723FC00F10C06A6A13046F3
:1029D000FDF71DFC8046A8EB060000F0FF094A4603
:1029E00011A9304602F06AFF11A906A802F074FF8F
:1029F0000698FDF76CFE05469C490698FDF781FC9C
:102A00008246FDF764FE0A2190FBF1F201FB1207FA
:102A100000210698FDF7DEFE1DD89B490698FDF7BC
:102A2000CFFE18D89348806820F47F609149886071
:102A300008468068E9B240EA01108E49886008467D
:102A4000806820F00F0088600846806807F00F015A
:102A500008438849886090A18048FDF7D8FB00F1C1
:102A60000A0681A13046FDF7D2FB8046A8EB06009E
:102A700000F0FF094A460DA9304602F01FFF0DA9DC
:102A800005A802F029FF0598FDF721FE05467749C4
:102A90000598FDF736FC8246FDF719FE0A2190FBEA
:102AA000F1F201FB120700210598FDF793FE1ED8F5
:102AB0006F490598FDF784FE19D86E48C06820F468
:102AC0007F206C49C8600846C068E9B240EA01301E
:102AD0006849C8600846C06820F47060C86008464D
:102AE000C06807F00F0140EA01206249C8606DA18B
:102AF0005A48FDF78CFBC61D5BA13046FDF787FBEE
:102B00008046A8EB060000F0FF094A4609A93046B6
:102B100002F0D4FE09A904A802F0DEFE0498FDF735
:102B2000D6FD054651490498FDF7EBFB8246FDF7BB
:102B3000CEFD0A2190FBF1F201FB1207002104985F
:102B4000FDF748FE17D84A490498FDF739FE12D818
:102B50004848406820F07F40464948600846406841
:102B600040EA057048600846406807F00F0140EAF7
:102B70000160404948604DA13848FDF748FB00F12D
:102B80000F0639A13046FDF742FB8046A8EB060050
:102B900000F0FF094A4613A9304602F08FFE13A940
:102BA00003A802F099FE0398FDF791FD05462F4911
:102BB0000398FDF7A6FB8246FDF789FD0A2190FBED
:102BC000F1F201FB120700210398FDF703FE1ED866
:102BD0002D490398FDF7F4FD19D82648406820F4E4
:102BE0007F402449486008464068E9B240EA012035
:102BF000204948600846406820F0F00048600846D8
:102C0000406807F00F0140EA01101A4948602BA103
:102C10001248FDF7FCFA00F10C0613A13046FDF74F
:102C2000F6FA8046A8EB060000F0FF094A460FA915
:102C3000304602F043FE0FA902A802F04DFE0298B2
:102C4000FDF745FD054609490298FDF75AFB824606
:102C50003AE000006D696E7068000000980E002078
:102C600064696400520800202C000000000020412C
:102C700000006041900800206D696E73656E736F8F
:102C80007274656D700000000000C8426D696E636B
:102C9000707574656D7000006D696E737065656444
:102CA000000000006D617870680000006D6178734D
:102CB000656E736F7274656D700000006D6178638E
:102CC000707574656D700000FDF701FD0A2190FBC1
:102CD000F1F201FB120700210298FDF77BFD1ED8DF
:102CE00077490298FDF76CFD19D87648806820F482
:102CF0007F007449886008468068E9B240EA014074
:102D0000704988600846806820F4704088600846F2
:102D1000806807F00F0140EA01306A4988606AA1C3
:102D20006C48FDF774FA00F10A06AFF2C4013046B0
:102D3000FDF76DFA8046A8EB060000F0FF094A4651
:102D40000BA9304602F0BAFD0BA901A802F0C4FDA0
:102D50000198FDF7BCFC05465F490198FDF7D1FAE3
:102D60008246FDF7B4FC0A2190FBF1F201FB120749
:102D700000210198FDF72EFD1CD858490198FDF758
:102D80001FFD17D84F48C06820F07F404D49C860EC
:102D90000846C06840EA0560C8600846C06820F47C
:102DA0007000C8600846C06807F00F0140EA015093
:102DB0004449C8604348406920F0C07041494861B7
:102DC0000846406920F4C01048610846406920F474
:102DD000C02048610846406920F4C03048610020A6
:102DE0003F49087048708870C870087101245DE020
:102DF000601E00EB40000830324951F8200020F0FE
:102E0000C071601E00EB400008302E4A42F82010CE
:102E1000601E00EB40000830114651F8200020F4FD
:102E2000C001601E00EB4000083042F82010601E18
:102E300000EB40000930114651F8200020F0C0019D
:102E4000601E00EB4000093042F82010601E00EBCD
:102E500040000930114651F8200020F00301601EA7
:102E600000EB4000093042F82010002004EB440140
:102E70001B4A02F8110004EB440102EB41014870C7
:102E800004EB440102EB4101887004EB440102EBC6
:102E90004101C87004EB440102EB4101087104EBED
:102EA000440102EB41014871601CC4B2054800684E
:102EB000A0429DD2FDF7C2FF20B0BDE8F087000020
:102EC0000000C842900800206D61787370656564E9
:102ED00000000000980E002000002041000060412A
:102EE000D407002010B500242148007800283ED1E6
:102EF00001201F49087000BF00F08CF804460D2C1B
:102F00001BD006DC012C0FD00B2C09D00C2C24D1AB
:102F10000EE00E2C15D00F2C1BD0102C1DD114E060
:102F200014A000F0FDFD1CE001201649087018E017
:102F300015A000F0F5FD00BFFEE716A000F0F0FDC3
:102F40000FE018A000F0ECFD0BE01CA000F0E8FD85
:102F500007E021A000F0E4FD03E027A000F0E0FD81
:102F600000BF00BF012CC7D100200149087010BD6F
:102F7000A00600202047525053CEDECFECD3A6202F
:102F800000000000A106002020CEDE53494DBFA85E
:102F9000200000002047505253B8BDD7C5CAA7B083
:102FA000DC00000020504450BCA4BBEECAA7B0DC3B
:102FB000A3ACD5FDD4DAD6D8CAD4200020B7FECE33
:102FC000F1C6F7CEDECFECD3A6A3ACD5FDD4DAD6CE
:102FD000D8CAD4200000000020CEDEB7A8D3EBB7BB
:102FE000FECEF1C6F7C1ACBDD3A3ACD5FDD4DAD6C5
:102FF000D8CAD4200000000020B3F6CFD6CEB4D675
:10300000AAB4EDCEF3A3ACD5FDD4DAD6D8CAD42079
:10301000000000002DE9F043D3B000250026002772
:10302000A8464FF001094FF40071E148FFF7DEFBBD
:10303000C82005F0FFF84FF40071DD48FFF7D4FB1E
:1030400042F2107005F0F6F8DAA1DBA002F0A6FA61
:103050000546012D03D00B2053B0BDE8F083D8A066
:1030600000F05EFDDAA1DDA002F098FA0546012D20
:1030700001D00C20F0E7DCA000F052FDDEA000F053
:103080004FFD40F6B83005F0D5F8CAA1DEA002F039
:1030900085FA0546012D01D00D20DDE7DEA000F008
:1030A0003FFDE1A000F03CFD41F2883005F0C2F8A0
:1030B000C0A1E1A002F072FA0546012D01D00E2058
:1030C000CAE7E1A000F02CFD4FF4FA6005F0B2F879
:1030D000E1A1E4A002F062FA0546012D01D02846E4
:1030E000BAE7E4A000F01CFD002603F0F1F9E5A02A
:1030F00003F072F808E0142005F09CF8761CB6F591
:103100007A7F01DD0F20A7E7E8A1EA48FDF77FF805
:103110000028F0D0E8A000F003FDEBA000F000FDD7
:10312000ED4AEEA108A805F079FD08A8FDF781F8A1
:1031300080464246F0A104A805F070FDF2A104A863
:1031400002F02CFA0546012D01D0284684E7E24919
:1031500008A802F023FA0546012D01D028467BE796
:10316000EA484069012101EAD070002856D1E748B9
:103170004069C0F38070002850D1D74AE4A108A864
:1031800005F04CFD08A8FDF754F880464246DAA148
:1031900004A805F043FDDCA104A802F0FFF90546F0
:1031A000012D01D0284657E7002600BF40F6B83071
:1031B00005F040F803F08CF908A803F00DF800279B
:1031C00019E0642005F036F87F1CC349B948FDF7C3
:1031D0001EF820B9D7A1B748FDF719F858B1CB4868
:1031E000406940F08040C94948610846406940F064
:1031F0000040486101E00A2FE3DB00BF761C0A2E85
:1032000001DD102028E7B449AA48FDF700F828B9E5
:10321000C8A1A848FCF7FBFF0028C7D00124B6E0EE
:10322000601E00EB40000830B84951F82000012131
:1032300001EAD07000287DD1601E00EB400008300C
:10324000B24951F82000C0F380700028F3D1611E0C
:1032500001EB4101C91DAD4A52F8210001A9FEF759
:1032600085F901AAAAA108A805F0D8FC08A8FCF7CE
:10327000E0FF80464246A0A104A805F0CFFC00BFB5
:103280004FF47A7004F0D6FF03F022F904A802F09C
:10329000A3FF002709E0642004F0CCFF7F1C9AA163
:1032A0008448FCF7B4FF00B101E01E2FF3DB00BF40
:1032B00095A18048FCF7ABFF0028E1D0002600BFB5
:1032C000642004F0B7FF03F003F908A802F084FFBC
:1032D000002733E0642004F0ADFF7F1C01A975488E
:1032E000FCF795FF20B993A17248FCF790FF08B155
:1032F000012000E0002008B3601E00EB4000083011
:10330000824951F8200040F08041601E00EB4000EF
:1033100008307E4A42F82010601E00EB4000083062
:10332000114651F8200040F00041601E00EB4000C3
:10333000083000E029E042F8201001E00A2FC9DB44
:1033400000BF761C0A2E01DD112085E601A959482F
:10335000FCF75DFF20B977A15648FCF758FF08B18C
:10336000012000E000200028AAD0601E00EB4000F1
:103370000830664951F8200040F08041601E00EBA3
:1033800040000830614A42F82010601CC4B25F4817
:103390000068A042BFF444AF00F0DEFA0546012DFC
:1033A00001D0284658E665A000F0BAFB012053E69C
:1033B000000C01404F4B000041540D0A000000007A
:1033C00020D5FDD4DABCECB2E253494DBFA82000B1
:1033D00053494D20436172642049440041542B43BA
:1033E0004349440D0A00000020BCECB2E2B5BD53D5
:1033F000494DBFA82000000020D5FDD4DAB8BDD7C4
:10340000C54750525320000041542B434741545468
:103410003D310D0A000000002047505253B8BDD77F
:10342000C5B3C9B9A620000020D5FDD4DA50445058
:10343000BCA4BBEE2000000041542B434741435441
:103440003D312C310D0A000020504450BCA4BBEE8D
:10345000B3C9B9A6200000002B495053544154551C
:103460005300000041542B43495053544154555389
:103470000D0A000020D5FDD4DAC1ACBDD3544350B1
:103480002000000061742B63697073746172743D75
:1034900022544350222C223131352E32382E3732ED
:1034A0002E33222C343034300D0A00004349505260
:1034B00043560000A40C002020544350C1ACBDD39F
:1034C000B3C9B9A62000000020D5FDD4DAB9D2BD19
:1034D000D3C9E8B1B8200000520800207B227479DB
:1034E0007065223A22646964222C22646964223A5B
:1034F000222573227D0D0A0041542B434950534528
:103500004E443D25640D0A003E0000009008002056
:103510007B2274797065223A226E65776469642231
:103520002C226E6577646964223A222573227D0D10
:103530000A000000726570656174000020B2B9B3C2
:10354000A5BDD3CAD5CDEAB3C92000001EB5002061
:1035500000210022009201920292344A12680292E3
:10356000324A121D12680192304A083212680092E3
:103570002F4B009A1A6000BF51E000214BE05DF82C
:1035800020208B009A40120F01EBC003294CE2541B
:1035900001EBC00223469A5C092A07DC01EBC0025A
:1035A0009A5C303201EBC003E25432E001EBC0021E
:1035B000204B9A5C093A072A29D2DFE802F0280456
:1035C0000A10161C2200412201EBC003194CE254E0
:1035D0001EE0422201EBC003164CE25418E04322E5
:1035E00001EBC003134CE25412E0442201EBC00390
:1035F000104CE2540CE0452201EBC0030D4CE254A8
:1036000006E0462201EBC0030A4CE25400E000BF92
:1036100000BF4A1CD1B20829B1DB421CD0B203283A
:10362000ABDB0022034B1A761EBD0000E8F7FF1F3C
:103630009C060020520800202DE9F04F9FB08146E3
:1036400000250026B8A1BA48FCF7E1FDC41DB9A1C8
:103650002046FCF7DCFD1D901D98001BC5B22078AC
:103660002D2802D1641C681EC5B2B9F1010F06D025
:10367000B9F1020F04D0B9F1030F7CD105E100BF0D
:10368000062D64D2DFE805F063030A16274121788E
:10369000A1F13000FCF7EFFF064658E061783039C1
:1036A0002278303A02EB820201EB4200FCF7E3FFA2
:1036B00006464CE021783039642251436278303A32
:1036C00002EB820201EB4202A17830395018FCF77C
:1036D000D2FF06463BE0217830394FF47A725143ED
:1036E0006278303A02EBC20303EB021201EB820272
:1036F000A178303901EB810102EB4102E1783039E8
:103700005018FCF7B8FF064621E02178303942F224
:10371000107251436278303A02EB4203C3EBC2129B
:1037200001EBC202A178303901EBC10303EB0111B7
:1037300002EB8102E178303901EB810102EB4102B9
:10374000217930395018FCF796FF064600BF00BFBC
:1037500005F10801615CA1F13000FCF79AFF074612
:103760000022754BFCF718FFCDE91801E91D615CDB
:10377000A1F1300000E0CBE0FCF78BFF0746002210
:103780006E4BFCF709FFCDE91401A91D615CA1F1A5
:103790003000FCF77EFF07460022694BFCF7FCFE79
:1037A000CDE91001691D615CA1F13000FCF771FFEA
:1037B00007460022634BFCF7EFFECDE90C01291D03
:1037C000615CA1F13000FCF764FF074600225E4B0C
:1037D000FCF7E2FECDE90801E91C615CA1F13000D3
:1037E000FCF757FF07460022584BFCF7D5FECDE902
:1037F0000401A91C615CA1F13000FCF74AFF0746F7
:103800000022534BFCF7C8FE82468B46691C615C64
:10381000A1F13000FCF73DFF074600224D4BFCF7BD
:10382000BBFE52465B46CDE90001FCF79CFDCDE9AD
:103830000201DDE90423FCF796FDCDE90601DDE98F
:103840000823FCF790FDCDE90A01DDE90C23FCF724
:103850008AFDCDE90E01DDE91023FCF784FDCDE9F9
:103860001201DDE91423FCF77EFDCDE91601DDE947
:103870001823FCF778FDCDE91A01FCF785FF3146E6
:103880001C90FCF7E6FC064643E0012D02D0022D19
:103890003BD119E0A178A1F13000FCF7FAFE00223B
:1038A0002C4BCDE91A01FCF777FE0746FCF76CFFBD
:1038B00082462178A1F13000FCF7DDFE83465146B7
:1038C000FCF7C7FC064621E0E178A1F13000FCF7E7
:1038D000E0FE074600221F4BFCF75EFECDE91A0111
:1038E000617830392278303A02EB820201EB4200F3
:1038F000FCF7CFFECDE91801DDE91A23FCF733FD13
:103900008246FCF741FF064600E000BF00BF00E032
:1039100000BF00BF14F8010C2D2801D186F000462D
:1039200030461FB0BDE8F08F76616C756500000011
:10393000A40C00202E00000084D79741D0126341D0
:1039400080842E41006AF8400088C34000408F40C8
:1039500000005940000024402DE9F0478EB04FF0A0
:103960000008C14600260027012464E0224634A155
:1039700001A805F053F901A8FCF75BFC00F0FF0972
:10398000484601F0EBFC0546012D03D028460EB059
:10399000BDE8F08700BF01A802F01EFC6420FDF71F
:1039A000B3FF02F095FD0AE06420FDF7ADFF781C3F
:1039B000C7B22EA12E48FCF72AFC00B101E0282F47
:1039C000F2DB00BF701CC6B2032E01DD1120DEE762
:1039D00026A12748FCF71BFC0028DCD02046FFF777
:1039E0002BFE8046012C04D0022C0CD0032C1ED1BF
:1039F00013E020494046FCF784FC8246FCF767FE52
:103A00001D49C86014E01B494046FCF77AFC824619
:103A1000FCF75DFE184908610AE018494046FCF7CA
:103A200070FC8246FCF753FE1349086000E000BFBB
:103A300000BF601CC4B2032C98DD0120A7E7000082
:103A40007B2274797065223A226E756D62657222EE
:103A50002C226E756D626572223A302C2276616C72
:103A60007565223A25647D0D0A0000002E000000D5
:103A7000A40C0020002474497C0800200000204190
:103A800010B500248020FDF7B3F82020FDF7B0F832
:103A90000A20FDF7ADF81020FDF7AAF81020FDF779
:103AA000A7F88020FDF7A4F84020FDF7A1F8012039
:103AB000FDF760F805E04020FDF79AF80120FDF7DA
:103AC00059F80A48007800F080008028F3D0582088
:103AD000FDF78EF80220FDF74DF8044840780349C1
:103AE000097800EB012084B2204610BD6B0800204D
:103AF00010B506A001F073FC0120074908704FF4CF
:103B0000FA7004F097FBFEF78DFD10BD70616765DC
:103B100020446973446174000406002000BFFEE77E
:103B200010B58EB0044622460AA101A805F076F829
:103B300001A802F089FAFF2002F094FAFF2002F0B7
:103B400091FAFF2002F08EFA6420FDF7DDFE0EB040
:103B500010BD000074302E7478743D22257322004D
:103B60000146CA1701EB92729210A1EB820292B940
:103B7000642091FBF0F200FB121050B94FF4C870B2
:103B800091FBF0F200FB121008B9012070470020F1
:103B9000FCE70120FAE70020F8E7000008B5012162
:103BA000142001F01DF90220ADF8000048208DF826
:103BB000030069460F48FEF783FD0820ADF80000BA
:103BC00069460D48FEF77CFD0420ADF8000069460B
:103BD0000948FEF775FD0120ADF80000694606486A
:103BE000FEF76EFD0220ADF8000069460248FEF7C0
:103BF00067FD08BD000801400010014010B5002419
:103C000058480078002877D1012056490870564856
:103C10000078002871D101215448FEF7DCFDA0B9DD
:103C20000A20FDF771FE01215048FEF7D4FD10B9BE
:103C300001204D49087000BF01214C48FEF7CBFD23
:103C40000028F9D00A20FDF75FFE02214848FEF760
:103C5000C2FDA0B90A20FDF757FE02214448FEF735
:103C6000BAFD10B902204049087000BF0221404847
:103C7000FEF7B1FD0028F9D00A20FDF745FE02212C
:103C80003A48FEF7A8FDA0B90A20FDF73DFE022143
:103C90003648FEF7A0FD10B903203349087000BF75
:103CA00002213248FEF797FD0028F9D00A20FDF7DF
:103CB0002BFE04212D48FEF78EFD50BB0820FDF79A
:103CC00023FE04212948FEF786FD10B90420264969
:103CD000087015E00A20FDF717FE641CB4F5FA7FA2
:103CE0000EDB24480078012808D16420FDF780F815
:103CF0006420FDF77DF803E032E02EE0FDF724FEBE
:103D000004211A48FEF767FD0028E3D00A20FDF7DA
:103D1000FBFD08211548FEF75EFDA0B90A20FDF75E
:103D2000F3FD08211148FEF756FD10B905200E4994
:103D3000087000BF08210D48FEF74DFD0028F9D09E
:103D40000A20FDF7E1FD0848007830B14FF48041CA
:103D50000948FEF749FDFEF765FC0020014908709F
:103D600010BD0000980600209006002000100140C1
:103D700000080140A0060020000C014008B5012108
:103D8000082001F02DF84FF40040ADF8000010209D
:103D90008DF8030003208DF8020069460D48FEF7F8
:103DA0008FFC4FF48040ADF8000010208DF8030028
:103DB00003208DF8020069460648FEF781FC4FF4A7
:103DC00000410448FEF712FD4FF480410148FEF720
:103DD0000DFD08BD000C014002465018401E9042E7
:103DE00004D95018401E4B1E98437047481E22EAC3
:103DF0000000FAE710B5024614462046002305E00D
:103E000001464960096000BF5B1C08301B2BF7D3DB
:103E100010BD2DE9F04105460E462F46304600F014
:103E2000DDF804461E2C02D90020BDE8F081042CE8
:103E300000D80424201F07EBC000F6E72DE9F04767
:103E400004460D4691461E46089F16B91F48BDE818
:103E5000F087F02C02D31D48401EF8E71C4904F1FE
:103E6000100051F820001B49884202D01748C01C9E
:103E7000EDE70F2D02DD1548001DE8E7FCF7E6FD34
:103E800080461549124A04F1100042F820101349E7
:103E900041F8206000BF04F01F0101208840610943
:103EA000890001F1E021C1F8000100BF00BF8020BE
:103EB00040EA0510C1B204F1E02080F8001400BF10
:103EC0004046FCF7CBFD0020C1E7000001090002DD
:103ED0000000002033970008BD970008D440002060
:103EE00042684A60086042681160416070474268F9
:103EF0004A600860426811604160704742684A60E9
:103F00000860426811604160704742684A6008601A
:103F1000426811604160704742684A6008604268C8
:103F2000116041607047D0E900121160D0E90021B2
:103F300051600021416001607047D0E900121160BA
:103F4000D0E9002151600021416001607047D0E953
:103F500000121160D0E90021516000214160016030
:103F6000704701464868884201D10120704700200F
:103F7000FCE701464868884201D1012070470020D3
:103F8000FCE701464868884201D1012070470020C3
:103F9000FCE7406000607047406000607047406030
:103FA0000060704740600060704770B504460D4681
:103FB00029462068FFF794FF70BD70B504460D4692
:103FC00029462068FFF793FF70BD70B504460D4683
:103FD00029462068FFF799FF70BD0000014601F0F7
:103FE000004010B16FF0704070474C480840002806
:103FF00047D001F0FE40F8B101F0E04058B101F0C7
:10400000804008B11E20EFE701F0005008B11D20EC
:10401000EAE71C20E8E701F0406030B101F0006001
:1040200008B11B20E0E71A20DEE701F0007008B1BC
:104030001920D9E71820D7E701F4700080B101F406
:10404000400030B101F4000008B11720CCE7162081
:10405000CAE701F4001008B11520C5E71420C3E732
:1040600001F4402030B101F4002008B11320BBE777
:104070001220B9E701F4003008B11120B4E7102094
:10408000B2E701F47F4020B301F4704080B101F445
:10409000404030B101F4004008B10F20A4E70E20E9
:1040A000A2E701F4005008B10D209DE70C209BE72A
:1040B00001F4406030B101F4006008B10B2093E7D7
:1040C0000A2091E701F4007008B109208CE708206C
:1040D0008AE701F0F00080B101F0C00030B101F0DA
:1040E000800008B107207FE706207DE701F020006F
:1040F00008B1052078E7042076E701F00C0030B124
:1041000001F0080008B103206EE702206CE701F01F
:10411000020008B1012067E7002065E70000FF7F8B
:104120002DE9F04105460C460026FCF78FFC0746BA
:1041300000BF05B104B909E004F0004000B105E09A
:104140002146284605F095FB064600BF00BF3846CD
:10415000FCF784FC3046BDE8F0812DE9F05F804635
:104160000F4614464FF00009CA4600250026FCF70A
:104170006DFC834600BFB8F1000F00D007B91BE00B
:10418000381900F1040909F0004000B114E0494673
:10419000404605F06EFB05462819401E611E20EAC8
:1041A0000106B54200D107E0A6EB050A4AF0804AB5
:1041B00046F804AC354600BF00BF5846FCF74EFC3D
:1041C0002846BDE8F09F2DE9F04705460C4601273B
:1041D0000026FCF73BFC814600BFB04605B104B9A0
:1041E00014E054F8046C06F0804010B126F08046CC
:1041F000A41BA4F110084146284605F068FB0746B9
:104200001FB92946404605F0D6FB00BF00BF48460F
:10421000FCF724FC3846BDE8F0872DE9F04704465A
:104220008846002500270026A94614B1B8F1FF0FE3
:1042300003D84FF0FF30BDE8F087FCF707FC82465B
:10424000264634463660C6F8048004F10800FFF7BD
:10425000D1FD04F1E005281BA8EB00001038E86050
:104260000020A86004F10800E968FFF7D2FD81464C
:10427000B9F1000F05D15046FCF7F0FB4FF0FF30CD
:10428000D9E700BF2946D9F80000FFF745FE00BF77
:1042900004EB0800A0F11007002038607860B860D7
:1042A000F860BD601020F860F86840F00040F860E9
:1042B000384605F00BFC5046FCF7D0FB0020BAE76F
:1042C0002DE9F04105462F460026002415B90020AF
:1042D000BDE8F081FCF7BAFB804607F108063068BC
:1042E00020B1346820683060044820604046FCF704
:1042F000B5FB0CB90020EBE7201DE9E7A55A5AA54C
:104300002DE9F04705460E462C46012705B116B9A2
:104310000120BDE8F087FCF799FB804600BF311F04
:1043200020460A46D0F800C0BCF1000F02D14FF081
:10433000010C25E000F10C0CA2EB0C03D0F800C03E
:10434000B3FBFCF90CFB193CBCF1000F02D04FF0A1
:10435000010C15E0D0F800C0B3FBFCFCD0F80490D1
:10436000CC4502D34FF0010C0AE0DFF83490D2F8CC
:1043700000C0CC4502D04FF0010C01E04FF0000C22
:10438000BCF1000F00D004E0A0680860A160002725
:1043900000BF00BF4046FCF761FB3846B9E70000AC
:1043A000A55A5AA52DE9F04706460F4690463446D1
:1043B000002516B90120BDE8F087B8F1000F01D142
:1043C0000120F8E70C2F01D20120F4E7FCF73EFBB7
:1043D000824608F1070020F003002060A7F10C00DE
:1043E0002168B0FBF1F06060606820B95046FCF7CE
:1043F00035FB0120DFE704F10C05A5604FF0000953
:1044000005E02068284428602D6809F101096068EA
:10441000401E4845F5D8002028605046FCF71EFB9A
:104420000020C8E700BFD0E900121160D0E90021E8
:10443000516000214160016000BF704710B50A461D
:104440000649096801EBC20319684C6844600160C1
:104450004C682060486000BF00BF10BDE806002027
:10446000014600200022074B1B6803EBC1035A687A
:1044700001E0401C5268034B1B6803EBC1039342ED
:10448000F7D17047E806002000210020014612E025
:104490000B4A126802EBC1004268824201D101223C
:1044A00000E000222AB90648006800EBC10040681D
:1044B0007047481C01462029EAD30020F8E7000095
:1044C000E80600202DE9F84F81460C4615469A462D
:1044D0000A9E15B91948BDE8F88F4FF6FB70864261
:1044E00002DD16480938F6E704B116B91348401C36
:1044F000F1E7FCF7ABFA8046301D82B26B462946E5
:10450000204605F085FB074627B14046FCF7A6FA92
:104510003846E0E700981430FFF741FD00981C3062
:10452000FFF73DFD00982430FFF739FD0098C48166
:104530004046FCF793FA0020CDE700000C0600028D
:104540002DE9FC5F80460F4691461E4600200090F4
:10455000A8F1010BBBF10A0F02D34048BDE8FC9F54
:1045600017B93E48401CF9E7B9F1000F02D13B48AA
:10457000801CF3E72EB13A48006810B137480A3082
:10458000ECE7FCF763FA01900BEB4B0000EBCB0080
:104590003449096801EB8004A08820B900BF2F4886
:1045A0000E30009054E0208A50BB26B900BF2B4843
:1045B0000F3000904CE02C48008820B100BF274805
:1045C0000838009044E029480568324604F11C018F
:1045D000284605F071FB0198FCF740FA00F0E6F878
:1045E000FCF734FA0190287900F0400058B1A8880F
:1045F00020F04000A88000BF1848C01F009027E0AE
:10460000208A401E208261892289206801FB020ADB
:10461000DAF8000038606089401C80B26081E1886F
:10462000884201D10020608104F11400FFF7A1FC51
:1046300050B904F1140005F081FB0198FCF70EFA63
:1046400000F0B4F8002089E7E089401CE08100BF59
:104650000198FCF703FA009880E700000E060002BC
:1046600080070020640700200807002000070020C2
:104670002DE9FC5F81460F4690461E4600200090C3
:10468000A9F1010BBBF10A0F02D34348BDE8FC9F1F
:1046900017B94148401CF9E7B8F1000F02D13E4874
:1046A000801CF3E72EB13D48006810B13A48083845
:1046B000ECE7FCF7CBF901900BEB4B0000EBCB00E8
:1046C0003749096801EB8004A08820B900BF32484F
:1046D000C01C00905BE02089404504D200BF2E48FA
:1046E000001D009053E0E08950BB26B900BF2A4866
:1046F000401D00904BE02B48008820B100BF2648A9
:104700000B38009043E028480568324604F1140154
:10471000284605F0D1FA0198FCF7A0F900F046F818
:10472000FCF794F90190287900F0400058B1A8886E
:1047300020F04000A88000BF17480A38009026E00B
:10474000E089401EE081A1892289206801FB020ADC
:10475000CAF80070A089401C80B2A081E18888421C
:1047600001D10020A08104F11C00FFF702FC50B928
:1047700004F11C0005F0E2FA0198FCF76FF900F073
:1047800015F8002082E7208A401C208200BF019893
:10479000FCF764F9009879E7110600028007002011
:1047A00064070020080700200007002010B5FCF770
:1047B0004DF90446FFF768FE3C380A494860084650
:1047C00000684968884208D00748008828B9204610
:1047D000FCF744F9FCF745F910BD2046FCF73EF91B
:1047E00000BFF9E700070020080700202DE9F0418D
:1047F00006462A48006800EB06150A2E02D3284810
:10480000BDE8F081FCF722F90746287820B9384640
:10481000FCF724F92248F3E768884FF6FE718842D6
:1048200005D13846FCF71AF91D48C01DE8E705F127
:104830000800FFF7A6FB48BBE868A0F13C04E86865
:10484000FFF77BFBA08820F00800A080207900F013
:10485000400030B1204605F0ABFEA08820F04000BB
:10486000A0800020A061207900F0020040B9A0885B
:1048700040F00400A080E18804F13C00FFF7DEFD79
:104880003846FCF7EBF8FFF791FF05E06888401C1D
:1048900068803846FCF7E2F80020B1E77007002096
:1048A0000107000210B505F057FE04460CB1204682
:1048B00010BDFBF73BFC2046FAE700002DE9F04174
:1048C00005460F4600263946284600F045F80646BC
:1048D00016B13046BDE8F081286800EB800101EB9D
:1048E000C0001949096801EBC004FCF7AFF8804625
:1048F000A08820F00200A080A08840F00400A080E2
:10490000E18804F13C00FFF799FDFFF7BDFD3C385D
:104910000E4948600E48006888B10E48008870B99A
:10492000084600684968884209D00A48008830B9BA
:104930004046FCF793F805F03DFA0020CAE74046F0
:10494000FCF78CF80020C5E7FC06002000070020DB
:1049500038070020080700202DE9F05F07460D46C4
:104960004FF000094FF0FF3A17B95748BDE8F09FE4
:1049700015B95548801FF9E7E86910B95248801EFB
:10498000F4E7286810B95048C01EEFE7A8881F2830
:1049900002DD4D48001FE9E7A869B0F5405F02D984
:1049A00049481930E2E7A86910B94FF43470A8619A
:1049B0000821A869FFF710FAA86110214FF4987038
:1049C000FFF70AFAA969884202D93F48401ECDE79D
:1049D000FCF73CF8834611E03C484068A0F13C04F9
:1049E0003A494868FFF79FFA04F13C013848FFF75D
:1049F00077FA3848E1680068FFF7E5FB3348FFF7CE
:104A0000B0FA0028E8D03248FFF7ABFA28B1DFF857
:104A1000B8A00AF10A0A00BF51E02D484068A0F191
:104A20003C042B494868FFF77EFA5846FCF716F815
:104A3000D4F8109008222748A9690068FFF78DFB79
:104A400006465EB9FCF702F8834604F13C012048B3
:104A5000FFF746FADFF880A000BF30E03246484654
:104A6000A96905F0F7FD8046C4F80080A868A06237
:104A7000E968E1622969216369696163E660A8699F
:104A8000A0600020A061E06160620220A080A08898
:104A9000296A09B1802100E000210843A080A8888C
:104AA000E080286860614FF0FF3020650020E065FD
:104AB000E869A06300206066C7F8009056E7584692
:104AC000FBF7CCFF504651E7070200022807002001
:104AD00020070020740700200002000370B5044680
:104AE0001948006808B1194870BD1948008808B114
:104AF0001848F9E714B900F05FF8F5E7FBF7A6FFEF
:104B000005461549096801F13C00FFF78BFC124886
:104B10000068808820F004000F49096888800E49E9
:104B20000868214605F0AAFA0B480068808840F022
:104B300020000949096888802846FBF78FFFFFF7A6
:104B400035FE0020D0E70000800700200D020003A2
:104B5000080700200E0200020007002010B5FBF736
:104B600075FF044604480088401C0349088020461D
:104B7000FBF774FF10BD00000807002010B5FBF71D
:104B800065FF04460B48008800280DDD09480088B1
:104B9000401E084908800846008828B92046FBF7CF
:104BA0005DFFFFF703FE10BD2046FBF757FF00BF78
:104BB000F9E700000807002070B500241C480068D1
:104BC00000691C490968884201D31B4870BDFBF786
:104BD0003DFF054616490968C888FFF741FC0446B1
:104BE000012C17D91249096801F13C00FFF79BF924
:104BF0000F480068808840F004000D4909688880EB
:104C00000B4A1268D1880A4A126802F13C00FFF789
:104C100015FC05E02846FBF721FF07480930D5E7DA
:104C20002846FBF71BFFFFF7C1FD0020CEE7000081
:104C3000000700200C0700200702000200BFFEE76B
:104C40007047000070B5002100230F22C47804B320
:104C5000154C246804F4E064C4F5E064210AC1F151
:104C60000403CA40447804FA03F1847814402143D1
:104C700009010E4C0678A155047804F01F050124A3
:104C8000AC4005786D11AD0005F1E025C5F8004197
:104C900009E0047804F01F050124AC40044D0678B7
:104CA000761145F8264070BD0CED00E000E400E010
:104CB00080E100E002490143024A116070470000B0
:104CC0000000FA050CED00E00149086270470000A1
:104CD00000000E4208B50121102000F081F82020CC
:104CE000ADF8000048208DF8030069460348FDF741
:104CF000E7FC20210148FDF779FD08BD00100140C7
:104D000010B5FFF7E7FF10BD3EB50446002520486B
:104D1000007884421BDD1E48057814E02A461DA158
:104D2000684603F07BFF684601F08EF9FF2001F032
:104D300099F9FF2001F096F9FF2001F093F9322054
:104D4000FCF7E2FD6D1CA542E8DB11490C70104830
:104D5000007884421BDA0E48057814E02A460DA13B
:104D6000684603F05BFF684601F06EF9FF2001F032
:104D700079F9FF2001F076F9FF2001F073F90A209C
:104D8000FCF7C2FD6D1EA542E8DC01490C703EBD7A
:104D9000710600206A302E76616C3D2564000000AB
:104DA00029B1064AD2690243044BDA6104E0034A9E
:104DB000D2698243014BDA61704700000010024063
:104DC00029B1064A12690243044B1A6104E0034AFE
:104DD00012698243014B1A617047000000100240C3
:104DE00029B1064A92690243044B9A6104E0034ADE
:104DF00092698243014B9A617047000000100240A3
:104E000029B1064AD2680243044BDA6004E0034A3F
:104E1000D2688243014BDA60704700000010024004
:104E200030B500210022002400232D4D6D6805F0CF
:104E30000C0121B1042905D0082923D105E0294D11
:104E4000056022E0274D05601FE0254D6D6805F4E3
:104E50007012234D6D6805F48034022505EB9242F3
:104E60001CB9214D554305600BE01D4D6D6805F4DF
:104E700000351DB11C4D5543056002E0194D5543E9
:104E8000056002E0174D056000BF00BF144D6D685E
:104E900005F0F0010909154D6B5C0568DD404560C2
:104EA0000F4D6D6805F4E061090A104D6B5C4568B3
:104EB000DD4085600A4D6D6805F46051C90A0B4DEF
:104EC0006B5C4568DD40C560054D6D6805F440418B
:104ED000890B074D6B5CC568B5FBF3F5056130BD0B
:104EE0000010024000127A0000093D00D4060020A4
:104EF000E406002010B501460022002300204A11DC
:104F0000012A02D1094C236806E0022A02D1074C8B
:104F1000236A01E0054C636A01F01F0201249440FA
:104F20001C400CB1012000E0002010BD0010024028
:104F300000210B4A11700A4A203A82F820100128F9
:104F400002D0042808D103E00121054A117004E0D1
:104F50000521034A117000E000BF00BF7047000048
:104F60002010024001490860704700003C044242A2
:104F70000249096A0143014A116270470010024068
:104F8000024909888143014A118070470428004082
:104F90000348008840F01000014908807047000075
:104FA00004280040034800884FF6EF71084001498B
:104FB0000880704704280040002103480188001F32
:104FC000008841EA004070471C280040014600204C
:104FD000064A12880A40D0B2044A121F12880A40B8
:104FE00012B108B1012000E0002070470428004001
:104FF00029B1064A12880243044B1A8004E0034A8E
:1050000012888243014B1A8070470000002800403C
:105010007CB5002401214FF0C050FFF7C1FE0120F4
:10502000FFF752FE0120FFF783FF04E0601CC4B2CB
:105030000A2003F0FFF84120FFF75CFF08B9FA2CC3
:10504000F4DBFA2C01DB01207CBD4FF48070FFF70C
:105050008FFF0120FFF786FF00F0F2F800F0FAF86A
:1050600001210220FFF7C4FF00F0EAF8FFF790FFEC
:1050700047F6FF7000F0D4F800F0E2F8FFF792FF77
:10508000FFF79AFF1549086000F0DAF81348006846
:10509000401C00F0A9F81248007812490978124D16
:1050A000CDE900102B78114D2A78114D2978114D3A
:1050B0002D88A8B200F034F8FFF774FFFFF77CFFEB
:1050C0000649086000F0BCF804480068401C00F085
:1050D0008BF800F011F80020B6E70000A8060020C9
:1050E000C0060020BC060020B8060020B406002040
:1050F000B0060020AC06002038B5FBF7A7FC04463C
:1051000000F0F4F80020054B02460421009029200D
:10511000FEF794FE2046FBF7A1FC38BD795200084B
:105120002DE9F05F06460F4690469946DDE90AAB49
:10513000002440F2B270864203DB40F63300864220
:1051400002DD0120BDE8F09F40F2B2750AE028467A
:10515000FEF706FD10B12048044401E01F48044456
:10516000681C85B2B542F2DB781EC7B2002510E09C
:105170001B48405D40F2A321484304EBC014304675
:10518000FEF7EEFC18B1012D01D116480444681C4D
:1051900085B2BD42ECDBA8F1010040F2A3214843F7
:1051A00004EBC014C9EB4910C0EB092004EB001458
:1051B000CAEB0A1004EB80045C4401214FF0C0509C
:1051C000FFF7EEFD0120FFF77FFD204600F01AF803
:1051D00000F036F80020B5E70085E2018033E101F8
:1051E000BCAE00088051010000B50246FFF7D0FEBA
:1051F000100C03490880091D0A80FFF7D3FE00BD8B
:105200002028004000B50246FFF7C2FE100C0349FB
:105210000880091D0A80FFF7C5FE00BD1828004060
:1052200000B50246FFF7B4FEC2F30340034908800D
:10523000091D0A80FFF7B6FE00BD000008280040E7
:1052400000BF0348008800F020000028F9D0704714
:1052500004280040074800884FF6F77108400549C8
:10526000088000BF0348008800F008000028F9D03B
:10527000704700000428004010B50220FFF7A6FE8A
:10528000A8B10220FFF77CFEFFF7DAFF08A000F0CC
:10529000DBFEFFF791FE1449086008460068401CD9
:1052A000FFF7A2FF0520FFF76BFEFFF7C9FF10BD58
:1052B0005254435F5461736B20202A2A2A2A2A2AD7
:1052C0002A2A2A2A2A2A2A2A2A2A2A2A2A2A2A2A3E
:1052D0002A686168612A2A2A2A2A2A2A2A2A2A2A44
:1052E0002A2A0D0A00000000A806002008B54FF485
:1052F0008060FFF7DFFC03208DF8000006208DF8AA
:10530000010000208DF8020001208DF8030068469E
:10531000FFF798FC08BD000038B5002401211020DB
:10532000FFF75EFD0220ADF8000048208DF8030075
:1053300069460848FDF7C4F902210648FDF74BFA13
:1053400004461CB101200449087002E00020024913
:10535000087038BD001001400006002070B586B00E
:10536000044600250026224616A101A803F056FC9B
:1053700000BF00BF4FF47A7002F05CFF01F0A8F8A4
:1053800001A800F029FF00260AE0642002F052FF85
:10539000701CC6B20FA11048FAF739FF00B101E046
:1053A0001E2EF2DB00BF681CC5B20A2D02DD0D20E7
:1053B00006B070BD07A10848FAF729FF0028D9D028
:1053C0000120F5E741542B43495053454E443D25B8
:1053D000640D0A003E000000A40C0020704710B5C8
:1053E0000446204600F030FEFF2000F03BFEFF2088
:1053F00000F038FEFF2000F035FE10BD10B502466B
:10540000002300210A48036800BF0DE001EB4100C2
:10541000C01D074C54F82000904204D101EB41001C
:10542000C01DC0B210BD491C9942EFDB0020F9E756
:10543000900800202DE9F047804600250026002432
:105440004046FAF7F6FE00F0FF0900BF4846FFF7B6
:1054500085FF0446012C02D02046BDE8F0874FF4BA
:10546000FA7002F0E7FE01F033F8404600F0B4FEB7
:105470000026002519E0C82002F0DCFE701CC6B230
:1054800012A11948FAF7C3FE00B110E017A116489F
:10549000FAF7BDFE48B12227384600F02FF804463F
:1054A000012C01D02046D8E701E01E2EE3DB00BF2F
:1054B000681CC5B2032D01DD1020CEE703A10A4808
:1054C000FAF7A5FE0028C1D00120C6E77B22747937
:1054D0007065223A2264617461222C2264617461D5
:1054E000223A747275657D00A40C002022666F72EA
:1054F0006D6174223A66616C736500002DE9F041BC
:10550000074600240025002600BF00F0E1FF3846D2
:10551000FFF724FF0446012C02D02046BDE8F081AD
:105520004FF4FA7002F086FE10A000F055FE00263F
:105530000AE0642002F07EFE701CC6B214A1164878
:10554000FAF765FE00B101E01E2EF2DB00BF681C19
:10555000C5B20A2D01DD1020E0E70DA10E48FAF7D3
:1055600056FE0028D1D00120D8E700007B227479B4
:105570007065223A2264617461222C226461746134
:10558000223A226D657373616765227D0D0A000002
:105590007472756500000000A40C00202DE9F04134
:1055A00006460F4600240025A04600F091FF00BFEC
:1055B000304600F011FE0024002512E0642002F0C5
:1055C00039FE601CC4B239461048FAF720FE00B11B
:1055D00009E00FA10D48FAF71AFE10B11420BDE83A
:1055E000F081642CEADB00BF681CC5B2022D01DD2E
:1055F0000B20F4E739460548FAF709FE0028D7D012
:10560000C82002F017FE0120E9E70000A40C0020EA
:105610004552524F520000002DE9F04FD3B00646DC
:105620000F4690464FF00009CA46CB46002400BF03
:10563000324644A1684603F0F1FA6846FAF7F9FDEC
:1056400081464FF0000AD34600BF09F0FF00FFF784
:1056500085FE0546012D03D0284653B0BDE8F08FE6
:1056600000F036FF40F2DC5002F0E4FD684600F046
:10567000B3FD00240AE04FF4FA7002F0DBFD641C75
:1056800038A13A48FAF7C3FD00B101E01E2CF2DB65
:1056900000BF0AF1010ABAF1030F01DD1020DCE7B7
:1056A00030A13248FAF7B3FD0028CED043463A463F
:1056B0002FA108A803F0B2FA08A8FAF7BAFD8146AC
:1056C00009F0FF00FFF74AFE0546012D01D02846EC
:1056D000C3E74FF4FA7002F0ADFD00F0F9FE08A840
:1056E00000F07AFD002415E0642002F0A3FD641CA4
:1056F00027A11E48FAF78BFD20B92CA11B48FAF709
:1057000086FD00B108E02BA11848FAF780FD08B12A
:105710000020A2E7322CE7DB00BF0BF1010BBBF14D
:10572000030F01DD102098E719A11048FAF76FFD6B
:1057300030B91EA10D48FAF76AFD00283FF478AF92
:1057400001208AE77B2274797065223A22776172A0
:105750006E222C227761726E223A222573227D0DF1
:105760000A0000007472756500000000A40C00209F
:105770007B2274797065223A222564222C2276617C
:105780006C7565223A222573227D0D0A0000000007
:105790007B2274797065223A227761726E222C2204
:1057A0007761726E223A747275657D006E6F207536
:1057B000736572007B2274797065223A2277617278
:1057C0006E222C227761726E223A66616C73657D5F
:1057D0000000000010B500F001F810BD0CB500206D
:1057E000019000903348006840F4803031490860EF
:1057F00000BF3048006800F4003000900198401C61
:105800000190009818B90198B0F5A06FF1D129481E
:10581000006800F4003010B10120009001E0002089
:1058200000900098012843D12348006840F0100000
:10583000214908600846006820F003000860084617
:10584000006840F0020008601A4840681949486042
:105850000846406848600846406840F480604860F8
:105860000846406820F47C1048600846406840F4D0
:10587000E81048600846006840F08070086000BF8B
:105880000C48006800F000700028F9D00948406812
:1058900020F00300074948600846406840F00200D5
:1058A000486000BF0348406800F00C000828F9D1A8
:1058B0000CBD0000001002400020024010B5002383
:1058C00000BF04E004780C70491C401C5B1C934230
:1058D000F8DB00240C7010BD2DE9FE4F81460C460C
:1058E000002002902046FAF7A4FCC0B20290029871
:1058F000032802D0042846D11EE0207830382070DA
:10590000A0783038A070A078FAF7D4FE07460022BD
:105910001F4BFAF741FE82468B462078FAF7CAFE03
:1059200052465B46CDE90001FAF71DFD0546FAF740
:105930002BFFC9F8000027E020783038207060780D
:1059400030386070E0783038E070E078FAF7B2FE16
:1059500000220F4BCDE90001FAF71EFE05460E4668
:105960006178227802EB820201EB4200FAF791FEA5
:1059700007462A463346FAF7F6FC8246FAF704FF52
:10598000C9F8000000E000BF00BFBDE8FE8F0000C6
:105990000000244010B50848D0E900305A1C40F1FE
:1059A00000000549C1E9002004F026FE04F0E8FCEF
:1059B00004F052FB10BD00004007002010B5134852
:1059C000006840F00100114908600846406810492D
:1059D00008400E494860084600680E4908400B49D7
:1059E00008600846006820F4802008600846406887
:1059F00020F4FE0048604FF41F008860FFF7EAFEC5
:105A00004FF000600449086010BD00000010024023
:105A10000000FFF8FFFFF6FE08ED00E021B102886C
:105A200042F00102028004E002884FF6FE731A4041
:105A30000280704710B504466848844208D10121AD
:105A4000C014FFF7DDF90021E014FFF7D9F9C4E035
:105A5000B4F1804F08D101210846FFF7B1F90021C8
:105A60000120FFF7ADF9B8E05D48844208D101217B
:105A70000220FFF7A5F900210220FFF7A1F9ACE011
:105A80005848844208D101210420FFF799F90021E8
:105A90000420FFF795F9A0E05348844208D1012182
:105AA0000820FFF78DF900210820FFF789F994E01D
:105AB0004E48844208D101211020FFF781F90021CE
:105AC0001020FFF77DF988E04948844208D1012180
:105AD0002020FFF775F900212020FFF771F97CE005
