:020000040800F2
:10000000A040002009010008C9180008030B0008DF
:10001000C5180008610900086F26000800000000EC
:10002000000000000000000000000000A11D00080A
:100030006509000800000000010900088D1E000885
:100040002301000823010008230100082301000800
:1000500023010008230100082301000823010008F0
:1000600023010008230100082301000823010008E0
:1000700023010008230100082301000823010008D0
:1000800023010008230100082301000823010008C0
:1000900023010008230100082301000823010008B0
:1000A00023010008230100082301000823010008A0
:1000B000291F0008691F0008230100082301000808
:1000C0002301000823010008230100082301000880
:1000D00023010008B522000885230008C923000871
:1000E000230100082301000823010008DFF80CD0D9
:1000F00000F058FB004800470F32000800060020BF
:10010000EFF3058070470000064880470648004727
:10011000FEE7FEE7FEE7FEE7FEE7FEE7FEE7FEE7B7
:10012000FEE7FEE7B51E0008ED000008124C134D77
:10013000256013484FF0010101604FF0020080F389
:100140001488104842680F4802600E4B1868878870
:100150004FF0100847EA08078780D0F800C00CF17C
:10016000240CBCE8FF008CF30988AE4687F30388B3
:1001700062B6304700BF000020ED00E00000F0F064
:1001800068060020300600202DE9F05F05460020BB
:1001900092469B4688460646814640241BE02846F8
:1001A00041464746224600F02DFA53465A46C01AA9
:1001B000914110D311461846224600F014FA2D1A28
:1001C00067EB01084F4622460120002100F00BFAA0
:1001D00017EB00094E41201EA4F10104DFDC484664
:1001E00031462A464346BDE8F09FD2B201E000F80E
:1001F000012B491EFBD270470022F6E710B51346CB
:100200000A4604461946FFF7F0FF204610BD421C7F
:1002100010F8011B0029FBD1801A704770B50F4DF3
:1002200000B92868002412E00A4602E09E4203D08A
:10023000521C1378002BF9D1DAB2224305D02BB12E
:1002400024B1002100F8011B04E00446401C06789C
:10025000002EE9D12860204670BD0000C4060020B1
:1002600070B5064602F03CFA046805460A220021F1
:10027000304600F0E9F92C6070BD2DE9FE4F804654
:1002800081EA0300C00F0C46009021F0004123F0EA
:100290000045B8EB0200A94105D2404621469046F0
:1002A0001C460B46024623F00040104347D0270D62
:1002B000C7F30A00C3F30A510290401A0190402884
:1002C0006BDAC3F3130040F4801B0098924620B110
:1002D0000023D2EB030A63EB0B0B01985946C0F1E4
:1002E0004002504600F07FF906460D4650465946FA
:1002F000019A00F097F910EB08006141002487EAA9
:10030000115284EAE7731A4340D0009A62B3019A0B
:10031000012A4FEA075215DC001B61EB02014FF086
:10032000004202EA0752CDE90042001C41F580116B
:1003300032462B4600F0CFF903B0BDE8F08F4046BF
:100340002146F9E7001B61EB0201001C41F5801317
:1003500000185B412018A2F5001747EB030140EAA3
:10036000D570B6196D4111E06D084FEA360645EAC1
:10037000C0754FEA0752001B61EB0201001C41F5FA
:10038000801149084FEA30000019514132462B468E
:1003900003B0BDE8F04F00F08FB900980122400093
:1003A0000023D0EB020263EBE073009821464FEA92
:1003B000E074B8EB000061EB0401E9E783F000436F
:1003C0005BE781F0004158E72DE9FE4F81EA030425
:1003D00004F0004421F0004100944FF0000B23F0A2
:1003E000004350EA01045ED052EA03045BD0C3F339
:1003F0000A54C1F30A552C44A4F2F3340194A0FB2F
:100400000254C1F3130141F48011C3F3130343F405
:10041000801301FB024400FB034E840A970A44EA5E
:10042000815447EA8357A4FB076802958D0A05FBB0
:1004300007854FEA932C04FB0C542705029D4FEAD5
:10044000065847EA1637B5EB08056EEB070C870E22
:10045000920E47EA811742EA8312A7FB0201B6EB2C
:100460000B0164EB00042B0D43EA0C335E1844EBE4
:100470001C50DA465146E7FB0201C5F313044FEA6C
:100480000B3343EA14534FEA0432019C43EA060358
:10049000A4F10C040294009CCDE900B400F01BF917
:1004A00003B0BDE8F08F00200146F9E72DE9F04DDB
:1004B00081EA030404F0004B21F0004514464FF09C
:1004C000000A23F0004150EA050220D054EA01025C
:1004D0001DD0C5F30A570246C5F31303C1F3130039
:1004E000C1F30A5640F4801543F48013A7EB0608C5
:1004F000101BD64608F2FD3873EB050002D308F155
:10050000010801E092185B41B8F1000F03DA002006
:100510000146BDE8F08D00204FF480110646844668
:100520000EE0171B73EB050705D3121B63EB0503E6
:1005300006434CEA010C49084FEA300092185B412F
:1005400050EA0107EDD152EA030012D082EA04001A
:1005500083EA0501084305D0101BAB4106D20122F6
:10056000002306E000224FF0004302E06FF001029A
:1005700053101AEB06004CEB085110EB0A0041EB4C
:100580000B01BDE8F04D00F097B8C1F30A52C1F37A
:10059000130140F2FF3341F480119A4202DA002045
:1005A0000146704740F233439A42A2F2334202DCE2
:1005B000524200F027B800F016B830B50B4601469D
:1005C00000202022012409E021FA02F59D4205D3F2
:1005D00003FA02F5491B04FA02F52844151EA2F19C
:1005E0000102F1DC30BD202A04DB203A00FA02F1DE
:1005F000002070479140C2F1200320FA03F3194311
:1006000090407047202A04DB203A21FA02F00021B2
:10061000704721FA02F3D040C2F120029140084312
:1006200019467047202A06DBCB17203A41FA02F020
:1006300043EAE07306E041FA02F3D040C2F120023F
:1006400091400843194670472DE9F04791460F46FF
:1006500080460446002614F8015B2DB100F0B4F882
:100660000068405DC007F6D12B2D02D02D2D18D08B
:10067000641E4A463946204600F0AAF827B1396878
:10068000A14201D1C7F8008071054FF002040BD5DB
:100690004042002803DD02F023F80460A007BDE813
:1006A000F08746F48066E4E70028F8DA02F018F8EC
:1006B00004606FF00040F2E710B5141E73F10004FF
:1006C00008DA401C41F1000192185B411A4301D144
:1006D00020F0010010BD2DE9F04D92469B4611B16E
:1006E000B1FA81F202E0B0FA80F220329046FFF7D0
:1006F0007AFF04460F4640EA0A0041EA0B015346DE
:100700005A46084313D0114653EA010019D0C8F1E4
:1007100040025046FFF776FF05460E4650465946C2
:100720004246FFF760FF084305D0012004E0204661
:100730003946BDE8F08D0020054346EAE0762C43BB
:1007400037430A986305E40AA0EB08000022FD0A7B
:1007500044EA47540A3002D500200146E9E7010582
:1007600010196941DDE9084500196941BDE8F04DFE
:10077000A2E7000030B5041E71F1000404DB4FF065
:100780000044404264EB0101141E73F1000405DBD8
:100790001C464FF00043524263EB0403994208BFEA
:1007A000904230BD064C074D06E0E06840F0010382
:1007B00094E8070098471034AC42F6D3FFF79AFC50
:1007C000EC4400081C45000800487047E844000855
:1007D0002DE9F05F82460078002715468B460AF126
:1007E0000104B946302801D09DB113E014F8010B83
:1007F0000127782803D0582801D045B10AE00DB16F
:10080000102D07D10027102514F8010B02E0082550
:1008100000E00A250026B0460EE005FB080005FBB7
:1008200006F1012701EB10461FFA80F8B6F5803F6C
:1008300000D3B94614F8010B294600F018F8002837
:10084000EBDABBF1000F05D00FB1641E00E0544697
:10085000CBF80040B9F1000F06D001F041FF0221B2
:100860000160C81EBDE8F09F48EA0640FAE73A2852
:1008700000D2303820F02002412A01D3A2F1370003
:10088000884201D34FF0FF30704770B58C1810F8D4
:10089000015B15F0070301D110F8013B2A1106D1C5
:1008A00010F8012B03E010F8016B01F8016B5B1EDF
:1008B000F9D12B0705D40023521E0DD401F8013BBA
:1008C000FAE710F8013BCB1A921C03E013F8015B26
:1008D00001F8015B521EF9D5A142D8D3002070BDAA
:1008E000EFF3108072B67047EFF3108062B6704776
:1008F00080F31088704717484FF0805101607047AF
:10090000EFF3108C72B6144A12681AB100B5904712
:100910005DF804EBEFF3098020E9F01F0F4D2E681E
:100920003060B7884FF0100827EA0807B7800B48F7
:100930004068286087884FF0100847EA08078780DA
:100940000168B1E8F01F81F309888CF310887047C3
:1009500000BF000004ED00E06C060020300600201F
:1009600000BFFEE7704701B502E00098401E00900E
:1009700000980028F9D108BD0549096821F0100147
:10098000034A116011460968014311607047000075
:100990000020024001460020034A106800F03800A1
:1009A00008431060704700000020024030B500226C
:1009B0008B071C0F0F2303FA04F20B4B8C1053F818
:1009C00024309343084C8D1044F8253023468C1076
:1009D00053F824308C07240F00FA04F42343024C0C
:1009E0008D1044F8253030BD080001402DE9F0415C
:1009F000024600250026002000230024002791F84D
:100A000003C00CF00F0591F803C00CF0100CBCF102
:100A1000000F03D091F802C04CEA050591F800C020
:100A2000BCF1000F31D0146800202BE04FF0010C16
:100A30000CFA00F3B1F800C00CEA03069E4220D184
:100A400083004FF00F0C0CFA03F7BC4305FA03FCCC
:100A50004CEA040491F803C0BCF1280F06D14FF012
:100A6000010C0CFA00FCC2F814C00AE091F803C0B3
:100A7000BCF1480F05D14FF0010C0CFA00FCC2F894
:100A800010C0401C0828D1D31460B1F800C0BCF1DC
:100A9000FF0F34DD546800202EE000F1080C4FF009
:100AA000010808FA0CF3B1F800C00CEA03069E42F4
:100AB00021D183004FF00F0C0CFA03F7BC4305FA69
:100AC00003FC4CEA040491F803C0BCF1280F05D1E3
:100AD00000F1080C08FA0CF8C2F8148091F803C071
:100AE000BCF1480F07D100F1080C4FF0010808FADB
:100AF0000CF8C2F81080401C0828CED35460BDE822
:100B0000F08100BFFEE702465018401E904204D913
:100B10005018401E4B1E98437047481E22EA0000A2
:100B2000FAE710B5024614462046002305E00146C8
:100B30004960096000BF5B1C08301B2BF7D310BD58
:100B40002DE9F04105460E462F46304600F08AF862
:100B500004461E2C02D90020BDE8F081042C00D8E8
:100B60000424201F07EBC000F6E742684A600860D3
:100B7000426811604160704742684A60086042689C
:100B800011604160704742684A60086042681160C5
:100B90004160704742684A60086042681160416085
:100BA000704742684A60086042681160416070475F
:100BB000D0E900121160D0E90021516000214160AC
:100BC00001607047D0E900121160D0E90021516046
:100BD0000021416001607047D0E900121160D0E946
:100BE0000021516000214160016070470146486862
:100BF000884201D1012070470020FCE70146486887
:100C0000884201D1012070470020FCE70146486876
:100C1000884201D1012070470020FCE7406000605D
:100C200070474060006070474060006070474060FF
:100C30000060704770B504460D4629462068FFF7EE
:100C400094FF70BD70B504460D4629462068FFF735
:100C500093FF70BD70B504460D4629462068FFF726
:100C600099FF70BD014601F0004010B16FF0704077
:100C700070474C480840002847D001F0FE40F8B1CA
:100C800001F0E04058B101F0804008B11E20EFE7CC
:100C900001F0005008B11D20EAE71C20E8E701F050
:100CA000406030B101F0006008B11B20E0E71A207D
:100CB000DEE701F0007008B11920D9E71820D7E766
:100CC00001F4700080B101F4400030B101F4000083
:100CD00008B11720CCE71620CAE701F4001008B1CC
:100CE0001520C5E71420C3E701F4402030B101F41A
:100CF000002008B11320BBE71220B9E701F400304F
:100D000008B11120B4E71020B2E701F47F4020B30E
:100D100001F4704080B101F4404030B101F4004072
:100D200008B10F20A4E70E20A2E701F4005008B19B
:100D30000D209DE70C209BE701F4406030B101F4E9
:100D4000006008B10B2093E70A2091E701F40070DE
:100D500008B109208CE708208AE701F0F00080B193
:100D600001F0C00030B101F0800008B107207FE73A
:100D700006207DE701F0200008B1052078E7042077
:100D800076E701F00C0030B101F0080008B1032053
:100D90006EE702206CE701F0020008B1012067E76E
:100DA000002065E70000FF7F2DE9F04105460C4675
:100DB0000026FFF795FD074600BF05B104B909E01D
:100DC00004F0004000B105E02146284602F0E9FAAF
:100DD000064600BF00BF3846FFF78AFD3046BDE833
:100DE000F0812DE9F05F80460F4614464FF0000970
:100DF000CA4600250026FFF773FD834600BFB8F101
:100E0000000F00D007B91BE0381900F1040909F000
:100E1000004000B114E04946404602F0C2FA0546DF
:100E20002819401E611E20EA0106B54200D107E0E4
:100E3000A6EB050A4AF0804A46F804AC354600BFE6
:100E400000BF5846FFF754FD2846BDE8F09F2DE946
:100E5000F04705460C4601270026FFF741FD814675
:100E600000BFB04605B104B914E054F8046C06F0B4
:100E7000804010B126F08046A41BA4F11008414622
:100E8000284602F0BCFA07461FB92946404602F040
:100E90002AFB00BF00BF4846FFF72AFD3846BDE8E1
:100EA000F0872DE9F04704468846002500270026F4
:100EB000A94614B1B8F1FF0F03D84FF0FF30BDE8D9
:100EC000F087FFF70DFD8246264634463660C6F8A9
:100ED000048004F10800FFF724FE04F1E005281B5C
:100EE000A8EB00001038E8600020A86004F10800BA
:100EF000E968FFF725FE8146B9F1000F05D150469C
:100F0000FFF7F6FC4FF0FF30D9E700BF2946D9F8CC
:100F10000000FFF746FE00BF04EB0800A0F1100739
:100F2000002038607860B860F860BD601020F8601C
:100F3000F86840F00040F860384602F05FFB504629
:100F4000FFF7D6FC0020BAE72DE9F04105462F4611
:100F50000026002415B90020BDE8F081FFF7C0FC91
:100F6000804607F10806306820B134682068306098
:100F7000044820604046FFF7BBFC0CB90020EBE7BB
:100F8000201DE9E7A55A5AA52DE9F04705460E466A
:100F90002C46012705B116B90120BDE8F087FFF7FF
:100FA0009FFC804600BF311F20460A46D0F800C093
:100FB000BCF1000F02D14FF0010C25E000F10C0C48
:100FC000A2EB0C03D0F800C0B3FBFCF90CFB193CFE
:100FD000BCF1000F02D04FF0010C15E0D0F800C0BA
:100FE000B3FBFCFCD0F80490CC4502D34FF0010CCD
:100FF0000AE0DFF83490D2F800C0CC4502D04FF0C0
:10100000010C01E04FF0000CBCF1000F00D004E037
:10101000A0680860A160002700BF00BF4046FFF73E
:1010200067FC3846B9E70000A55A5AA52DE9F047F4
:1010300006460F4690463446002516B90120BDE805
:10104000F087B8F1000F01D10120F8E70C2F01D291
:101050000120F4E7FFF744FC824608F1070020F086
:1010600003002060A7F10C002168B0FBF1F0606084
:10107000606820B95046FFF73BFC0120DFE704F130
:101080000C05A5604FF0000905E0206828442860A1
:101090002D6809F101096068401E4845F5D8002017
:1010A00028605046FFF724FC0020C8E700BFD0E9C5
:1010B00000121160D0E900215160002141600160FF
:1010C00000BF704710B50A460649096801EBC20324
:1010D00019684C68446001604C682060486000BF3B
:1010E00000BF10BD18060020014600200022074B5B
:1010F0001B6803EBC1035A6801E0401C5268034BB4
:101100001B6803EBC1039342F7D170471806002018
:1011100000210020014612E00B4A126802EBC100D8
:101120004268824201D1012200E000222AB9064829
:10113000006800EBC10040687047481C0146202948
:10114000EAD30020F8E70000180600202DE9F84F48
:1011500081460C4615469A460A9E15B91948BDE8BF
:10116000F88F4FF6FB70864202DD16480938F6E725
:1011700004B116B91348401CF1E7FFF7B1FB8046F4
:10118000301D82B26B462946204602F0D9FA074646
:1011900027B14046FFF7ACFB3846E0E70098143033
:1011A000FFF742FD00981C30FFF73EFD0098243009
:1011B000FFF73AFD0098C4814046FFF799FB0020F5
:1011C000CDE700000C0600022DE9FC5F80460F46CB
:1011D00091461E4600200090A8F1010BBBF10A0FBA
:1011E00002D34048BDE8FC9F17B93E48401CF9E7D0
:1011F000B9F1000F02D13B48801CF3E72EB13A4809
:10120000006810B137480A30ECE7FFF769FB01903E
:101210000BEB4B0000EBCB003449096801EB800479
:10122000A08820B900BF2F480E30009054E0208ADB
:1012300050BB26B900BF2B480F3000904CE02C4823
:10124000008820B100BF27480838009044E02948B2
:101250000568324604F11C01284602F0C5FA0198DF
:10126000FFF746FB00F0E6F8FFF73AFB019028791C
:1012700000F0400058B1A88820F04000A88000BFCE
:101280001848C01F009027E0208A401E20826189F4
:101290002289206801FB020ADAF8000038606089C0
:1012A000401C80B26081E188884201D100206081C9
:1012B00004F11400FFF7A2FC50B904F1140002F08D
:1012C000D5FA0198FFF714FB00F0B4F8002089E785
:1012D000E089401CE08100BF0198FFF709FB0098FE
:1012E00080E700000E060002B006002094060020F1
:1012F00038060020300600202DE9FC5F81460F46AD
:1013000090461E4600200090A9F1010BBBF10A0F88
:1013100002D34348BDE8FC9F17B94148401CF9E798
:10132000B8F1000F02D13E48801CF3E72EB13D48D2
:10133000006810B13A480838ECE7FFF7D1FA01909D
:101340000BEB4B0000EBCB003749096801EB800445
:10135000A08820B900BF3248C01C00905BE0208903
:10136000404504D200BF2E48001D009053E0E089A4
:1013700050BB26B900BF2A48401D00904BE02B48C7
:10138000008820B100BF26480B38009043E0284871
:101390000568324604F11401284602F025FA019846
:1013A000FFF7A6FA00F046F8FFF79AFA01902879BD
:1013B00000F0400058B1A88820F04000A88000BF8D
:1013C00017480A38009026E0E089401EE081A18994
:1013D0002289206801FB020ACAF80070A089401C1B
:1013E00080B2A081E188884201D10020A08104F16F
:1013F0001C00FFF703FC50B904F11C0002F036FAA0
:101400000198FFF775FA00F015F8002082E7208AAE
:10141000401C208200BF0198FFF76AFA009879E724
:1014200011060002B00600209406002038060020B5
:101430003006002010B5FFF753FA0446FFF768FEA8
:101440003C380A494860084600684968884208D024
:101450000748008828B92046FFF74AFAFFF74BFAF9
:1014600010BD2046FFF744FA00BFF9E73006002020
:10147000380600202DE9F04106462A48006800EBB6
:1014800006150A2E02D32848BDE8F081FFF728FA96
:101490000746287820B93846FFF72AFA2248F3E7AA
:1014A00068884FF6FE71884205D13846FFF720FA6A
:1014B0001D48C01DE8E705F10800FFF7A7FB48BB82
:1014C000E868A0F13C04E868FFF77CFBA08820F006
:1014D0000800A080207900F0400030B1204602F0E2
:1014E000FFFDA08820F04000A0800020A0612079AE
:1014F00000F0020040B9A08840F00400A080E1881C
:1015000004F13C00FFF7DEFD3846FFF7F1F9FFF785
:1015100091FF05E06888401C68803846FFF7E8F9CD
:101520000020B1E7A00600200107000210B502F07C
:10153000ABFD04460CB1204610BDFEF7F7FD20467A
:10154000FAE700002DE9F04105460F46002639462E
:10155000284600F045F8064616B13046BDE8F08151
:10156000286800EB800101EBC0001949096801EB14
:10157000C004FFF7B5F98046A08820F00200A080E3
:10158000A08840F00400A080E18804F13C00FFF74F
:1015900099FDFFF7BDFD3C380E4948600E480068D4
:1015A00088B10E48008870B90846006849688842CA
:1015B00009D00A48008830B94046FFF799F902F08F
:1015C00091F90020CAE74046FFF792F90020C5E7ED
:1015D0002C06002030060020680600203806002077
:1015E0002DE9F05F07460D464FF000094FF0FF3A36
:1015F00017B95748BDE8F09F15B95548801FF9E75E
:10160000E86910B95248801EF4E7286810B95048BC
:10161000C01EEFE7A8881F2802DD4D48001FE9E73C
:10162000A869B0F5405F02D949481930E2E7A869D6
:1016300010B94FF43470A8610821A869FFF763FA64
:10164000A86110214FF49870FFF75DFAA9698842EC
:1016500002D93F48401ECDE7FFF742F9834611E02B
:101660003C484068A0F13C043A494868FFF7A0FABA
:1016700004F13C013848FFF778FA3848E16800681F
:10168000FFF7E5FB3348FFF7B1FA0028E8D032480E
:10169000FFF7ACFA28B1DFF8B8A00AF10A0A00BFD8
:1016A00051E02D484068A0F13C042B494868FFF701
:1016B0007FFA5846FFF71CF9D4F810900822274803
:1016C000A9690068FFF78DFB06465EB9FFF708F9C8
:1016D000834604F13C012048FFF747FADFF880A079
:1016E00000BF30E032464846A96902F04BFD804613
:1016F000C4F80080A868A062E968E16229692163F2
:1017000069696163E660A869A0600020A061E0618A
:1017100060620220A080A088296A09B1802100E0CF
:1017200000210843A080A888E080286860614FF00D
:10173000FF3020650020E065E869A0630020606656
:10174000C7F8009056E75846FFF7D2F8504651E7E1
:10175000070200025806002050060020A4060020C0
:101760000002000370B504461948006808B1194822
:1017700070BD1948008808B11848F9E714B900F09D
:101780005FF8F5E7FFF7ACF805461549096801F180
:101790003C00FFF78BFC12480068808820F00400B2
:1017A0000F49096888800E490868214602F0FEF951
:1017B0000B480068808840F020000949096888804B
:1017C0002846FFF795F8FFF735FE0020D0E7000028
:1017D000B00600200D020003380600200E020002B1
:1017E0003006002010B5FFF77BF804460448008857
:1017F000401C034908802046FFF77AF810BD00001E
:101800003806002010B5FFF76BF804460B48008837
:1018100000280DDD09480088401E08490880084658
:10182000008828B92046FFF763F8FFF703FE10BDD4
:101830002046FFF75DF800BFF9E7000038060020FA
:1018400070B500241C48006800691C49096888427A
:1018500001D31B4870BDFFF743F8054616490968D8
:10186000C888FFF741FC0446012C17D912490968C2
:1018700001F13C00FFF79CF90F480068808840F0B8
:1018800004000D49096888800B4A1268D1880A4A09
:10189000126802F13C00FFF715FC05E02846FFF74F
:1018A00027F807480930D5E72846FFF721F8FFF762
:1018B000C1FD0020CEE70000300600203C060020DD
:1018C0000702000200BFFEE7704708B54FF4C06092
:1018D00000F08AF81C208DF8000000208DF801002F
:1018E0008DF8020001208DF80300684600F044F8EE
:1018F0001D208DF8000000208DF8010002208DF8D9
:10190000020001208DF80300684600F035F825201C
:101910008DF8000001208DF8010000208DF80200F4
:1019200001208DF80300684600F026F827208DF886
:10193000000001208DF801008DF802008DF80300F1
:10194000684600F019F826208DF8000000208DF878
:10195000010001208DF802008DF80300684600F0B8
:101960000BF806210220FFF721F800214FF000605C
:1019700000F044F808BD000070B5002100230F22DC
:10198000C47804B3154C246804F4E064C4F5E0643E
:10199000210AC1F10403CA40447804FA03F18478AF
:1019A0001440214309010E4C0678A155047804F037
:1019B0001F050124AC4005786D11AD0005F1E0254F
:1019C000C5F8004109E0047804F01F050124AC408B
:1019D000044D0678761145F8264070BD0CED00E008
:1019E00000E400E080E100E002490143024A1160A6
:1019F000704700000000FA050CED00E0024A0A40C2
:101A00000243024B1A60704780FFFF1F08ED00E0A1
:101A100001460020034A506820F4404008435060CB
:101A2000704700000010024029B1064AD269024303
:101A3000044BDA6104E0034AD2698243014BDA6164
:101A4000704700000010024029B1064A12690243A3
:101A5000044B1A6104E0034A12698243014B1A6184
:101A6000704700000010024029B1064A9269024303
:101A7000044B9A6104E0034A92698243014B9A61E4
:101A8000704700000010024029B1064AD2680243A4
:101A9000044BDA6004E0034AD2688243014BDA6007
:101AA000704700000010024010B500F03DF84FF400
:101AB000803000F0FBF800F057F90446012C27D1E4
:101AC0001020FEF759FF0220FEF764FF002000F00F
:101AD000E1F8002000F01CF9A00200F00DF94FF42D
:101AE000E011200400F026F9012000F01DF9A00308
:101AF000FFF78EFF00BF392000F0A6F80028FAD0CB
:101B0000022000F025F900BF00F0BCF80828FBD146
:101B100001210448FFF788FF012144F21D20FFF74F
:101B2000A3FF10BD010002000F48006840F0010053
:101B30000D490860084640680C4908400A49486059
:101B4000084600680A4908400749086008460068D6
:101B500020F4802008600846406820F4FE004860B9
:101B60004FF41F0088607047001002400000FFF82B
:101B7000FFFFF6FE30B500210022002400232D4D8A
:101B80006D6805F00C0121B1042905D0082923D185
:101B900005E0294D056022E0274D05601FE0254D39
:101BA0006D6805F47012234D6D6805F480340225CC
:101BB00005EB92421CB9214D554305600BE01D4DCC
:101BC0006D6805F400351DB11C4D5543056002E0FC
:101BD000194D5543056002E0174D056000BF00BF79
:101BE000144D6D6805F0F0010909154D6B5C056831
:101BF000DD4045600F4D6D6805F4E061090A104D48
:101C00006B5C4568DD4085600A4D6D6805F4605188
:101C1000C90A0B4D6B5C4568DD40C560054D6D68BC
:101C200005F44041890B074D6B5CC568B5FBF3F5C6
:101C3000056130BD0010024000127A0000093D002D
:101C4000000600201006002010B5014600220023E7
:101C500000204A11012A02D1094C236806E0022A19
:101C600002D1074C236A01E0054C636A01F01F02B0
:101C7000012494401C400CB1012000E0002010BD64
:101C8000001002400248406800F00C00704700005D
:101C90000010024001460020034A506820F0F00086
:101CA0000843506070470000001002401149096865
:101CB00021F480310F4A11601146096821F4802116
:101CC0001160B0F5803F03D0B0F5802F0ED106E053
:101CD0000849096841F48031064A116007E0054966
:101CE000096841F4A021034A116000E000BF00BF71
:101CF000704700000010024001460020034A50686F
:101D000020F4E0600843506070470000001002407B
:101D100001460020034A506820F4605040EAC100A8
:101D2000506070470010024001490866704700008B
:101D30000000424202460020044B586820F47C1008
:101D400042EA01031843014B5860704700100240FB
:101D500001460020034A506820F003000843506009
:101D6000704700000010024038B5002000900024A9
:101D7000002500BF3120FFF767FF05460098401C93
:101D800000900098B0F5A06F01D0002DF2D0312066
:101D9000FFF75AFF08B1012400E00024204638BDB7
:101DA000704710B500F002F810BD00000CB500201F
:101DB000019000903348006840F480303149086059
:101DC00000BF3048006800F4003000900198401CCB
:101DD0000190009818B90198B0F5A06FF1D1294889
:101DE000006800F4003010B10120009001E00020F4
:101DF00000900098012843D12348006840F010006B
:101E0000214908600846006820F003000860084681
:101E1000006840F0020008601A48406819494860AC
:101E20000846406848600846406840F48060486062
:101E30000846406820F47C1048600846406840F43A
:101E4000E81048600846006840F08070086000BFF5
:101E50000C48006800F000700028F9D0094840687C
:101E600020F00300074948600846406840F002003F
:101E7000486000BF0348406800F00C000828F9D112
:101E80000CBD0000001002400020024010B50848C0
:101E9000D0E900305A1C40F100000549C1E900209A
:101EA00002F042F902F004F801F06EFE10BD0000ED
:101EB0007006002010B51348006840F00100114979
:101EC000086008464068104908400E4948600846C6
:101ED00000680E4908400B4908600846006820F475
:101EE000802008600846406820F4FE0048604FF4F7
:101EF0001F008860FFF755FF4FF00060044908603D
:101F000010BD0000001002400000FFF8FFFFF6FEC9
:101F100008ED00E04FF0E021096921F004014FF0E5
:101F2000E02211617047000010B5012080F3108895
:101F300000BF0121800700F02BF958B1012188076B
:101F400000F023F8012006490870002005490870B8
:101F500002F0A4F9002080F3108800BF10BD00003B
:101F6000C0060020B406002010B50121044800F08E
:101F70000FF918B10121024800F007F810BD000068
:101F800000040040CA4302827047CA43028270477D
:101F900021B1028842F00102028004E002884FF67B
:101FA000FE731A400280704710B5044668488442A8
:101FB00008D10121C014FFF767FD0021E014FFF7ED
:101FC00063FDC4E0B4F1804F08D101210846FFF75A
:101FD0003BFD00210120FFF737FDB8E05D4884425A
:101FE00008D101210220FFF72FFD00210220FFF779
:101FF0002BFDACE05848844208D101210420FFF7B2
:1020000023FD00210420FFF71FFDA0E05348844278
:1020100008D101210820FFF717FD00210820FFF754
:1020200013FD94E04E48844208D101211020FFF7AF
:102030000BFD00211020FFF707FD88E0494884428E
:1020400008D101212020FFF7FFFC00212020FFF70D
:10205000FBFC7CE04448844208D101214014FFF796
:1020600013FD00216014FFF70FFD70E03F4884422C
:1020700009D10121C804FFF707FD00214FF400201A
:10208000FFF702FD63E03A48844209D101210805C7
:10209000FFF7FAFC00214FF48010FFF7F5FC56E043
:1020A0003448844209D101214805FFF7EDFC0021A5
:1020B0004FF40010FFF7E8FC49E02F48844208D1B4
:1020C00001214020FFF7C0FC00214020FFF7BCFCAD
:1020D0003DE02A48844208D101218020FFF7B4FC6A
:1020E00000218020FFF7B0FC31E02548844208D170
:1020F00001218015FFF7A8FC0021A015FFF7A4FC23
:1021000025E02048844209D101210804FFF7BCFCE6
:1021100000214FF48030FFF7B7FC18E01A488442E2
:1021200009D101214804FFF7AFFC00214FF4003032
:10213000FFF7AAFC0BE01548844208D1012188046E
:10214000FFF7A2FC00214FF48020FFF79DFC10BD9B
:10215000002C01400004004000080040000C00403A
:10216000001000400014004000340140004C0140C9
:10217000005001400054014000180040001C004085
:102180000020004000400140004401400048014060
:1021900030B50246002000230024158A05EA010319
:1021A000958905EA010413B10CB1012000E000207B
:1021B00030BD1AB183890B43838102E083898B434D
:1021C00083817047002202881D4B98420ED01D4B20
:1021D00098420BD0B0F1804F08D01B4B984205D0ED
:1021E0001A4B984202D01A4B984204D14FF68F7383
:1021F0001A404B881A43174B984207D0164B984207
:1022000004D04FF6FF431A40CB881A4302808B88D4
:1022100083850B8803850A4B98420BD0094B984263
:1022200008D00E4B984205D00D4B984202D00D4B72
:10223000984201D10B7A0386012383827047000004
:10224000002C014000340140000400400008004020
:10225000000C00400010004000140040004001400D
:1022600000440140004801400EB501210846FFF737
:10227000DBFB4FF08040FFF797FE4FF4FA60ADF8BC
:10228000040048F69F40ADF800000020ADF80600BD
:10229000ADF8020069464FF08040FFF793FF01213F
:1022A0008807FFF76FFE012211469007FFF781FFB5
:1022B0000EBD000010B540F22551104800F013F992
:1022C000D0B1002240F225510C4800F036F90B48FD
:1022D00000F0C4F904462146084800F0C4F900BFE4
:1022E0008021064800F0F2F80028F9D0012240F2DF
:1022F0002551024800F021F910BD000000380140CE
:1023000010B586B00446012144F20400FFF7ACFB8F
:102310004FF40070ADF8040003208DF8060018207B
:102320008DF8070001A91548FEF760FB4FF48060A7
:10233000ADF8040004208DF8070001A90F48FEF74E
:1023400055FB02940020ADF80C00ADF80E00ADF87E
:102350001000ADF814000C20ADF81200012240F27C
:102360002551074800F0E9F802A9054800F00AF9EC
:102370000121034800F050F806B010BD00080140EC
:102380000038014010B540F225510E4800F0ABF87E
:10239000B0B1002240F225510A4800F0CEF82146A3
:1023A000084800F060F900BF8021064800F08EF870
:1023B0000028F9D0012240F22551024800F0BDF872
:1023C00010BD00000044004010B501F06EFF40F267
:1023D00025510E4800F087F8B8B1002240F225518F
:1023E0000A4800F0AAF8094800F038F90849094AF3
:1023F0001278885407480078401C0649087001226A
:1024000040F22551014800F098F810BD0048004006
:10241000E03B0020B406002021B1828942F4005242
:10242000828104E082894DF6FF731A4082817047F1
:1024300010B504462048844209D101218803FFF7E2
:1024400023FB00214FF48040FFF71EFB32E01B48C6
:10245000844209D101214804FFF7F6FA00214FF424
:102460000030FFF7F1FA25E01548844209D1012137
:102470008804FFF7E9FA00214FF48020FFF7E4FA1F
:1024800018E01048844209D10121C804FFF7DCFAA2
:1024900000214FF40020FFF7D7FA0BE00A488442EE
:1024A00008D101210805FFF7CFFA00214FF4801071
:1024B000FFF7CAFA10BD0000003801400044004098
:1024C00000480040004C0040005000400246002000
:1024D000B1F5007F00D100BF13880B400BB1012084
:1024E00000E00020704770B502460024002300255C
:1024F000002040F66A16B14200D100BFC1F3421578
:1025000001F01F03012606FA03F3012D02D196897B
:10251000334006E0022D02D1168A334001E0968A4C
:1025200033400C12012606FA04F41688344013B125
:102530000CB1012000E0002070BDF0B5034600247E
:1025400000260025002040F66A17B94200D100BFDE
:102550001846C1F3421401F01F06012707FA06F5D9
:10256000012C01D10C3004E0022C01D1103000E02C
:1025700014301AB107682F43076002E00768AF43C1
:102580000760F0BD2DE9F04786B005460E460024F1
:10259000A24600BFA1460027B08900B100BF2F4668
:1025A0002C8A4CF6FF700440F08804432C82AC89DE
:1025B0004EF6F3100440B08831890843718908430E
:1025C0000443AC81AC8A4FF6FF400440B089044319
:1025D000AC8201A8FFF7CEFA1F48874202D1DDF88E
:1025E00010A001E0DDF80CA0A88900F4004040B183
:1025F0000AEBCA0000EB0A1031684900B0FBF1F8A1
:1026000007E00AEBCA0000EB0A1031688900B0FB52
:10261000F1F86420B8FBF0F004012009642101FB0B
:102620001089A88900F4004040B1322000EBC900B5
:10263000B0FBF1F000F00700044308E0322000EBAB
:1026400009106421B0FBF1F000F00F0004432C816D
:1026500006B0BDE8F08700000038014001468888D8
:10266000C0F308007047C1F308028280704700BFC2
:10267000FEE700000FB4054B10B503A9044A029809
:1026800000F004F910BC5DF814FB00008D30000868
:10269000C80600200FB4084B10B504A902AA03987D
:1026A00000F0F4F8044602A9002000F086FC204661
:1026B00010BC5DF814FB0000BB2F000837B51446B2
:1026C0000846064B6A46214600F0E0F80446694693
:1026D000002000F072FC20463EBD0000BB2F000829
:1026E00000487047CC06002002E008C8121F08C14D
:1026F000002AFAD170477047002001E001C1121F83
:10270000002AFBD1704700002DE9FF5F82B0002155
:10271000DDE90430020DDDF840B0034318D044F683
:102720001050A2F2FF3242431514119801281FD015
:10273000A5EB0B00401C5FEA000A4FF000064E4F6D
:10274000DFF83891B046504615D5CAF1000413E0C1
:10275000119801244AA3012801D16FEA0B010298C4
:10276000119AC0E90031C0E9024206B0BDE8F09F0D
:10277000CBF10000DFE704460021404A491842EB54
:102780000450CDE9001012E0E00707D032463B4686
:1027900040464946FDF718FE8046894632463B468C
:1027A00010461946FDF710FE06460F466410002C31
:1027B000EAD1DDE90401DDE90023BAF1000F06DA10
:1027C000FDF702FE42464B46FDF7FEFD05E0FDF734
:1027D0006DFE42464B46FDF769FE04460E4600225A
:1027E000284BFDF7C7FF03D84FF0FF30014607E045
:1027F0000022254B20463146FDF73FFDFDF7C5FE83
:10280000102409E0002C0ADB0A220023FDF7BCFC9F
:10281000039B30321A55641E50EA0102F2D1641C47
:10282000039AC4F111031444119A012A03D001221E
:1028300008430DD10AE0084304D000204FF0110BEB
:10284000119072E7A3EB0B056D1E0DE05B4504DDF7
:102850004FF0000205F1010504E003DA4FF0000239
:10286000A5F10105002AECD002981199C0E90231C6
:10287000C0E9004579E70000000014400000F03F87
:10288000300000000000F0430000E03F2DE9FF4F62
:1028900095B09B468946064600250FE2252877D14C
:1028A00000242746F84A0121059400E0044316F865
:1028B000013F203B01FA03F01042F7D130782A287B
:1028C00011D06FF02F033078A0F13002092A16D80A
:1028D000059A44F0020402EB820203EB4202104428
:1028E000761C0590EFE759F8042B0592002A03DACD
:1028F000504244F40054059044F00204761C3078B1
:102900002E2816D116F8010F44F004042A280DD001
:102910006FF02F023078A0F13003092B09D807EBB4
:10292000870302EB4303C718761CF3E759F8047BCF
:10293000761C30786C280FD006DC4C2817D068281D
:102940000DD06A2814D104E0742810D07A280FD151
:102950000DE044F400140AE044F4801401E044F46F
:1029600040147278824202D104F58014761C761CE1
:10297000307866280BD013DC582877D009DC002883
:1029800075D04528F6D04628F4D047281AD19DE1C5
:1029900018E0632835D0642879D0652812D195E1F4
:1029A000702873D008DC6728F1D069286FD06E28B2
:1029B0000DD06F2806D1B5E073282CD0752875D0BE
:1029C000782874D05A46179990476D1C75E1C4F366
:1029D0000250022809D003280DD0D9F8001004288D
:1029E0000DD00D6009F1040967E1D9F80010EA176C
:1029F000C1E90052F6E7D9F800100D80F2E70D703A
:102A0000F0E719F8041B8DF8001000208DF8010084
:102A1000EA46012003E059F804AB4FF0FF306107AC
:102A20004FF0000102D40DE008F101018846B942DF
:102A30000FDA8045F8DB1AF808100029F4D108E015
:102A400008F1010188468142FADB1AF808100029D2
:102A5000F6D105985B46A0EB080721463846179A41
:102A600000F094FA284400EB080507E04DE029E166
:102A70000DE01AF8010B5A4617999047B8F1010872
:102A8000F7D25B4621463846179A13E142E00A2204
:102A90000092C4F302524FF0000A022A08D059F8FB
:102AA00004CB032A4FEAEC710AD00DE029E02AE0BA
:102AB00009F1070121F00702F2E802C1914609E09D
:102AC0000FFA8CFC4FEAEC71042A03D14FFA8CFC0C
:102AD0004FEAEC71002907DA0A460021DCF1000C0C
:102AE00061EB02012D2202E0220504D52B228DF894
:102AF0000420012203E0E20701D02022F7E79046FC
:102B000059E00A2102E010220DE010214FF0000AE6
:102B100000910BE010224FF0000A44F00404082753
:102B2000009203E008224FF0000A0092C4F3025220
:102B3000022A05D059F804CB0021032A08D009E065
:102B400009F1070121F00702F2E802C1914605E010
:102B50001FFA8CFC042A01D10CF0FF0C4FF0000886
:102B6000220728D5702806D0009B83F0100353EA73
:102B70000A0305D00EE040228DF80420012208E06F
:102B80005CEA010206D030228DF804208DF80500A1
:102B900002229046009B83F0080353EA0A030AD1FD
:102BA0005CEA010201D1620705D530228DF80420CC
:102BB0004FF001087F1E582804D034A003900EA8BF
:102BC00002900DE036A0F9E753466046009AFDF703
:102BD000DBFA84460398825C0298401E02900270E1
:102BE0005CEA0100F0D1029806A9081A00F1200A57
:102BF000600702D524F4803400E00127574502DD48
:102C0000A7EB0A0000E0002000EB0A010090059805
:102C10004144401A0590E00306D45B462146179ACA
:102C2000059800F0B3F90544002706E001A85A46CC
:102C3000C05D179990476D1C7F1C4745F6DBE0038C
:102C40000CD55B462146179A059800F09FF905447C
:102C500004E030205A46179990476D1C0099481E91
:102C600000900029F5DC08E0029802995A460078A5
:102C7000491C0291179990476D1CBAF10001AAF105
:102C8000010AF1DC65E1000009280100303132332E
:102C90003435363738396162636465660000000098
:102CA0003031323334353637383941424344454682
:102CB0000000000000F058F90544761C3078002828
:102CC0007FF4ECAD19B02846BDE8F08F620700D460
:102CD000062709F1070222F0070CFCE80223E1466F
:102CE00003F000485FEA080C02D00FF2702C0DE0F0
:102CF0005FEA045C02D50FF2682C07E05FEAC47C4F
:102D000002D00FF2602C01E0AFF2700C4FF0FF38F0
:102D100023F00043CDF850C065280CD006DC4528D0
:102D200009D046281DD047283DD13DE0662818D05F
:102D300067287ED138E00021112F01DB112000E04F
:102D4000781CCDE9000106A90EA8FFF7DDFCDDE93E
:102D50000F010E9A03910021009207F1010A0491DC
:102D60004DE04FF000400097CDE9011006A90EA8F4
:102D7000FFF7CAFCDDE90F0203920E9B11990022B6
:102D8000DDF80CA00093049211B9791C00EB010A44
:102D9000B7EB0A0004D4C0F1FF3007F1010A049038
:102DA000AAEB0700019044E0012F00DA012700217F
:102DB000112F01DD112000E03846CDE9000106A900
:102DC0000EA8FFF7A1FCDDE90F010E9A0391002187
:102DD00004910092BA4621070CD40399514500DAB8
:102DE0008A46BAF1010F05DD009AAAF10101515C92
:102DF000302908D0B84202DA10F1040F06DA0121B6
:102E0000CDE9011015E0AAF10101E9E7002805DC90
:102E1000049901440491AAEB000102E0411C5145D0
:102E200000DD8A460499401A401C01904FF0004092
:102E30000290200704D40198504501DBCDF80480AE
:102E400000208DF84F0002980DF14F07B0F1004FB0
:102E500025D02B200E9002984FF0020800280CDAA3
:102E6000404202902D200E9007E00A210298FDF7C3
:102E7000A4FB3031029007F8011DB8F10001A8F160
:102E80000108F2DC02980028EFD1791E0E98087034
:102E9000307800F0200040F0450007F8020D12A83D
:102EA000C01B00F107081498007800B1012000EB66
:102EB0000A01019801EBE07105984144401A401E57
:102EC0000590E00306D45B462146179A059800F06A
:102ED0005DF805441498007818B15A461799904740
:102EE0006D1CE00324D55B462146179A059800F037
:102EF0004DF805441CE00498002807DBDDE90301D8
:102F0000884203DD0098405C179901E01799302052
:102F10005A469047049805F10105401C0490019819
:102F2000401E019004D12E205A46179990476D1CDF
:102F3000BAF10001AAF1010ADDDC05E017F8010B86
:102F40005A46179990476D1CB8F10001A8F1010885
:102F5000F4DC5B462146179A0598ABE62D0000008D
:102F60002B000000200000002DE9F0410446002560
:102F70001E461746880404D405E039462020B04791
:102F80006D1C641EF9D52846BDE8F0812DE9F0419D
:102F9000044600251E469046C80301D5302700E0B0
:102FA0002027880404D505E041463846B0476D1C0B
:102FB000641EF9D52846BDE8F0810A68531C0B60F1
:102FC0001070704710B58AB000240120ADF80800D9
:102FD00009A00890094801904FF4347007908020B0
:102FE000099001A90648FEF7ADFA044614B120463F
:102FF0000AB010BD2046FBE76C627300B1300008D8
:103000001406002010B58AB000240020ADF8080096
:1030100009A008900A4801904FF43470079080206E
:10302000099001A90748FEF78DFA044614B120461D
:103030000AB010BD2046FBE76D71747400000000FB
:103040000D4200081406002010B58AB000240220AA
:10305000ADF8080009A008900A4801904FF43470B8
:1030600007908020099001A90748FEF76BFA0446F3
:1030700014B120460AB010BD2046FBE77465737496
:1030800000000000794200081406002070B50446D4
:103090000D46E1B20548FFF7E6FA00BF802103487C
:1030A000FFF714FA0028F9D0204670BD003801401F
:1030B0002DE9F04700262EA70FF2B80857E02EA002
:1030C000FFF7D8FA2F48007801283BD100202D497E
:1030D000087001F0B3F92C492CA0FFF7CBFA394660
:1030E0002948FDF79BF8814639460020FDF796F800
:1030F000824641464846FDF791F841460020FDF7DB
:103100008DF805464DB12846FDF7AAF82349086019
:103110000846016822A0FFF7ADFA41465046FDF788
:103120007DF841460020FDF779F80446BCB1204601
:10313000FDF796F81E490860084601681DA0FFF7D4
:1031400099FA0CE001F084F91EA0FFF793FA20A091
:1031500001F04CF9402200210B48FDF746F841F2FE
:103160008830FEF7FFFA06460EB1BDE8F087A6E705
:103170002C0000003D0000007461736B5F6C627393
:103180000D0A0000C0060020E03B00200D0A627519
:1031900066203D2025730D0A00000000BC060020BB
:1031A0006C61635F6E756D203D2025640D0A000023
:1031B000B80600206369645F6E756D203D2025644C
:1031C0000D0A000073656E6420636D640D0A0000D3
:1031D000666F7279752341542B4C42530D0A0000DF
:1031E00010B5FEF761FCFEF770FB4820FEF792FE7B
:1031F0004FF4165001F06AF84FF4165001F05FF8E2
:103200004FF4165001F0A8F801F055F810BD10B5B4
:1032100000F094F804460CB1012010BD00F004F851
:10322000FEF784F900BFFEE710B50024FFF7D8FFD2
:103230000B48FDF798FBFFF7E5FE04460CB120466E
:1032400010BDFFF7BFFE04460CB12046F8E7FFF7BC
:10325000FBFE04460CB12046F2E70020F0E7000038
:10326000FFFF0F00FCF74CFF00BFFEE7102004E05B
:103270000649074A42F82010401CFF28F8D90449A3
:10328000044A11600449121D11607047653200083C
:103290000000002008ED00E00007FA0500BFFEE78F
:1032A00010B58AB0242101A8FCF7A6FF0A480190B6
:1032B0004FF4A060079009A008901F20ADF8080007
:1032C00001A90948FEF73EF9044614B120460AB0A8
:1032D00010BD0020FBE700009D32000849646C65CA
:1032E000436F7265303030004006002070B5FDF746
:1032F000F7FA05460F480068401C0E49086028464A
:10330000FDF7F6FAFCF7FCFE04460B4850F82400E3
:1033100018B1094951F824008047FDF7E1FA054644
:1033200004480068401E034908602846FDF7E0FA9B
:1033300070BD0000B0060020E037002010B500F09E
:10334000C3FA00F099F904460CB1204610BDFFF70E
:103350008DFF00F0E1FC04460CB12046F6E700F0DA
:10336000C5FA04460CB12046F0E700F097F9044690
:103370000CB12046EAE700F01BFA04460CB12046E7
:10338000E4E700F0DFFA04460CB12046DEE700F087
:10339000F1FEFFF785FF04460CB12046D6E700207A
:1033A000D4E72DE9F04107460E46002406F113004C
:1033B00020F003052946384600F06DF8044614B99C
:1033C0000020BDE8F08105F11400E168814204D3DA
:1033D0002A462146384600F021F92046FDF7FCFB3D
:1033E000204600F00BF9E06840F00040E060E16842
:1033F00021F0004000F03EFD04F11000E1E72DE96E
:10340000F84F05460C462E4605F1E0087068284442
:10341000A0F1100A706847194FF000092B46524678
:1034200041462046009700F0B7F810B90120BDE8EA
:10343000F88FE06800F0004008B90120F7E7E06885
:1034400020F0004000EB04092B4652464146484616
:10345000009700F0A1F808B90120E8E7D9F80800C2
:10346000A04201D00120E2E7444512D000972B464C
:1034700052464146A06800F08FF808B90120D6E70F
:10348000A068C16821F000410844A04201D0012099
:10349000CDE70020CBE770B505460E460024314647
:1034A00005F10800FDF74CFB044618E000206168B8
:1034B000084605E0C168B14200D370BD41680846C6
:1034C000A042F7D105F108002146024602F1D003DF
:1034D0008B4201D1002301E001F108031C46002CBE
:1034E000E4D10020E9E72DE9F04104460E4600272B
:1034F000B846E16821F0004000F0A2FCE06820F04E
:103500000040E060A06848B3A068C06800F00040D8
:1035100020BBA568204600F05EF8E86820F0004077
:103520004719F86800F0004028B93846FDF754FB09
:10353000384600F050F82846FDF74EFB06F108002B
:10354000E968FDF7FDFA8046B8F1000F01D1BDE84A
:10355000F08129464046FDF724FB1BE0E06820F09F
:1035600000400719F86800F0004028B93846FDF718
:1035700033FB384600F02FF806F10800E168FDF74C
:10358000DFFA8046B8F1000F00D1E0E7214640465F
:10359000FDF707FB00BFDAE730B50446039DA14203
:1035A00001D8944201D9002030BDE06800F000400D
:1035B00038B120686040401C08B10020F4E70120C9
:1035C000F2E72068984202D32068A84201D3002085
:1035D000EAE70120E8E700218268D268C3681A445C
:1035E0008368DA60C268111882688A6000BF0022AE
:1035F00002604260826000BF70470000C14301600A
:103600000549096821B1044909680969416002E076
:103610004FF0FF3141607047300600202DE9F04740
:1036200080460D46164600240027A146AC19A56029
:10363000E868801BE060EE60E06820F00040071959
:10364000BC60F86800F0004028B93846FDF7C4FABD
:103650003846FFF7C0FF08F10800E168FDF770FA8F
:103660008146B9F1000F01D1BDE8F08721464846F7
:10367000FDF797FA00BFF7E710B50648064908605E
:103680004FF4405104480068FDF70BFC0446204607
:1036900010BD0000A0070020A406002070B512484D
:1036A000FDF7BFFAF02111480068FDF77DFB1049D6
:1036B00008600846006808B90E4870BD00240EE096
:1036C00004EB44000A49096801EBC0056C60002066
:1036D000287005F108010448FDF7B4FA641C0A2CAF
:1036E000EED30020E9E700008C060020A4060020AD
:1036F00088060020001D000270B5002400254FF44C
:10370000807529460C480068FDF74EFB0B490860A0
:103710000846006800B970BD0020044608E007496B
:10372000096801EBC4004060006000BF601C0446F3
:10373000202CF4D300BFEEE7A406002018060020DA
:103740002DE9F0470646884617469946154804680D
:10375000002507E0A08818B9681CC8F8000003E03D
:103760006D1C2C340A2DF5D300BF0A2D02D10E4852
:10377000BDE8F0872C212046FCF73EFD06FB07F153
:103780000A480068FDF710FB2060206810B9064861
:10379000801EEDE7E68027810120A080C9F8004067
:1037A0000020E5E79406002004060002A40600209D
:1037B00010B54FF4DC7109480068FDF7F5FA0849C7
:1037C00008600846006808B9064810BD4FF4DC716F
:1037D00003480068FCF710FD0020F6E7A40600206F
:1037E00094060020010600022DE9F04104460D4632
:1037F00017464FF00008002604F13C00FDF756FC88
:10380000A08820F00400A08004F13C08A08840F4C7
:103810000050A0802846FDF7F1F930B100BF4146C5
:103820002868FDF7B0F900BF14E06868A0F13C0615
:1038300007E0E088F188884200DA06E0306CA0F109
:103840003C0606F13C00A842F3D100BF4146F06BB4
:10385000FDF799F9781C38B1A08840F04000A080AD
:103860003946204600F0A2F9BDE8F08170B5054662
:103870006868A0F13C046868D0E900121160D0E9E2
:103880000021516000214160016000BFA08820F448
:103890000050A080207900F0400030B1204600F0B8
:1038A0001FFCA08820F04000A080207900F00200DA
:1038B00040B9A08840F00400A080E18804F13C00F9
:1038C000FDF700FC70BD00001020034908600348AC
:1038D00003490860704700003C060020A037002024
:1038E000A806002010B5FDF706F810BD70B5114808
:1038F000FDF79DF9A02110480068FDF755FA0F4922
:1039000008600846006808B90D4870BD00240CE046
:103910000A48006800EB04156C600020287005F16F
:1039200008010448FDF796F9641C0A2CF0D3002026
:10393000EBE7000098060020A4060020A006002067
:10394000000700022DE9F8430020224908604FF4E7
:103950000078414620480068FDF726FA044614B96D
:103960001E48BDE8F88341462046FCF745FC1C484C
:1039700004601C4804600020208125462034012773
:1039800005E027812C602546781C87B22034102F53
:10399000F7DB0822D0211448FDF748FB064616B194
:1039A0000E48C01CDDE704200023104A10210090BF
:1039B0001846FDF7CBFB064616B10848001DD0E7B8
:1039C00000F06EF8064616B10448401DC9E7002015
:1039D000C7E7000028060020A40600200703000215
:1039E0002006002024060020D00600201C0600200F
:1039F00010B50022002183793BB9437913B1437993
:103A0000022B02D14369C36001E00369C3600F4B1D
:103A100019680AE0CB68C468A34200D907E0C3680C
:103A2000CC681B1BC3600A4609680029F2D100BF9D
:103A3000016019B1CB68C4681B1BCB6012B9034B82
:103A4000186000E010600223037110BD28060020FA
:103A50000EB50020029000BF4FF0FF33042202A9F0
:103A60000D480068FDF7B0FB0446002CF4D1029825
:103A70000028F1D0029800680090029840680190F8
:103A800006480299FDF780FA00980028E4D0DDE9A5
:103A900000108847E0E700001C060020D006002048
:103AA00010B58AB0242101A8FCF7A6FB09480190B3
:103AB0004FF43470079008A008900020ADF808007B
:103AC0008020099001A90748FDF73CFD04462046E7
:103AD0000AB010BD513A00085377745F5461736B9C
:103AE000000000004406002070B51F48046836E05E
:103AF0001D49206808601D48FDF726FA05467DB17E
:103B0000E0692860A06968600023042229461848FB
:103B10000068FDF7F1FB18B129461448FDF734FAA7
:103B20006079A0B9204600F025F820894FF6E071B1
:103B3000884203DA2089103020810EE02089C117E5
:103B400000EB11710911A0EB0111218105E0A079B1
:103B5000401CA0712046FFF74BFF0348046814B1D6
:103B6000E0680028C4D070BD28060020D0060020E0
:103B70001C06002003490968016002490860002111
:103B8000017170472406002010B50748006848B14D
:103B900005480068C068401E03490968C86008B944
:103BA000FFF7A2FF002010BD280600202DE9F047F6
:103BB0000446884608F01F074FEA581907B101E08C
:103BC000A9F10109E06C00F0784040EA0900E064E6
:103BD00025488088074407F01F07E06C67F3DF6023
:103BE000E0642148006800EBC7067068B04205D168
:103BF00004F144013046FDF71DF833E07068A0F190
:103C0000440500BFE86C20F07840E16C21F0784179
:103C100088420CD8E06C20F07840E96C21F07841C3
:103C2000401AE16C01F078410843E0640CE0E86C74
:103C300020F07840E16C21F07841401AE96C01F005
:103C400078410843E86406E0A86CA0F1440505F15A
:103C50004400B042D6D100BF04F1440105F1440054
:103C6000FCF7E8FFBDE8F087600600202DE9F04191
:103C7000054605EB850000EBC5002349096801EB0B
:103C8000C004E06930B1666904F128000FC8B0478C
:103C9000206204E0666904F128000FC8B04720796B
:103CA00000F0800050B1FCF71BFE074600201749CA
:103CB00008803946206900F069F922E0FCF710FE1F
:103CC00007460020114908803846FCF711FEFDF731
:103CD00089FDE06928B1E1694868FDF7CBFB002068
:103CE000E061207900F0040038B104F13C00FDF7F8
:103CF000DDF9A08820F00400A080FDF783FDFDF72A
:103D000099FBBDE8F08100002C0600203806002059
:103D100072B600BFFEE7000070B540480068401C66
:103D2000682100FB01F631463D480068FDF73CF88C
:103D30003C4908600846006808B93B4870BD3146F8
:103D400038480068FCF758FA3848FCF767FF3848ED
:103D5000FCF764FF3748FCF761FF002420E00120F6
:103D600004EB840101EBC4012E4A126802EBC1018D
:103D7000888004EB840000EBC4002A49096801EB49
:103D8000C000046104EB840000EBC400254A126803
:103D900002EBC00000F13C012548FCF74BFF641C1E
:103DA0000F2CDCD924480021016041601B480068C9
:103DB00000EB800101EBC0001A49096801EBC0006B
:103DC0001D49086008460068046111200968888060
:103DD000202019490968C880FFF78EFC4FF48076CF
:103DE00031460F480068FCF7DFFF05460DB90E4865
:103DF000A4E731462846FCF7FFF91048056000208B
:103E00000E498880002404E02846FCF707FF641C64
:103E10000835202CF8D3002090E700003C06002055
:103E2000A40600202C060020000200034806002003
:103E300050060020580600203006002060060020B2
:103E40000146094A126810690F2800D97047074ACD
:103E5000126802B1FAE7064A52F82020521A044BBF
:103E600043F8202000BFF1E730060020B006002014
:103E7000A037002001460B4A126802B970470A4A6F
:103E8000126802B1FAE7074A126810690F2800D9D0
:103E9000F4E7064A52F820200A44044B43F8202055
:103EA00000BFEBE730060020B0060020A03700205E
:103EB0002DE9F041002734498988481CC11700EBDF
:103EC000D1614911A0EB41112F4A91801046006841
:103ED0001146898800EBC1056868A84201D1BDE898
:103EE000F0816868A0F1440443E0A688E06C20F00B
:103EF000784018B1E06C401EE0643EE004F14400FC
:103F0000FCF756FE06F0080058B1A08820F0080023
:103F1000A08004F13C00FCF74BFE0020A061606231
:103F200017E006F4806020B1A08820F48060A080B3
:103F30000FE006F4005040B104F13C00FCF738FEFD
:103F4000A08820F40050A08003E0A08820F020008A
:103F5000A08006F0020048B9A08840F00400A080CC
:103F6000E18804F13C00FDF7ADF801276868A0F195
:103F7000440404F14400A842B7D100BF0FB1FDF7DB
:103F800059FA00BFABE70000600600202DE9F041C0
:103F900005460F4605EB850000EBC500364909686C
:103FA00001EBC004A68806F0040040B104F13C0017
:103FB000FDF77CF8A08820F00400A0800DE042F21C
:103FC0000800304048B104F13C00FCF7F1FD06F078
:103FD000600010B1204600F083F8A08820F00200B5
:103FE000A080A08840F00100A0804FF0FF30206545
:103FF0000020E065FDF78CF83C38204948602079C6
:1040000000F0100040B304F13C011D48FCF712FE23
:104010001C48006800EB800101EBC00016490968EC
:1040200001EBC00015490860084600680561A088DA
:10403000096888801149E0680968C8600F49A06B69
:10404000096888630120A0803846FCF751FCFFF71F
:1040500049FC0020BDE8F081207900F0010030B17A
:104060003846FCF745FCFFF73DFC0020F2E73846F8
:10407000FCF73EFC0020EDE72C0600203006002077
:10408000580600203C0600200D480E49C8630E4823
:104090000E49C8630E480F49086000210E4A11609E
:1040A0005160401E4FF0E021486170200B490870BC
:1040B00000204FF0E0218861072008610020704750
:1040C000ED320008000000208D1E0008E0370020BF
:1040D00040190100AC0600207006002023ED00E02E
:1040E0002DE9F0410446E06CC70E0E48006800EB75
:1040F000C706A06CB0420ED0A06CA0F14405E86CDD
:1041000020F07840E16C21F078410844E96C01F03E
:1041100078410843E86404F14400FCF749FDBDE838
:10412000F08100006006002010B50F4800680F49BC
:10413000096888420BD00D4800680B4908600846A2
:10414000C1880B4800880844401E074988800648FB
:1041500081880748008880B2814204D1002002494A
:104160000860FDF76DFB10BD8006002030060020C2
:10417000700600200020024908600A20C8807047AD
:104180008006002030B50446012304E04FF0CA3514
:1041900042F823505B1CB3EB910FF7D34FF0CC35B3
:1041A00015605518A5F144004FF0043505604FF037
:1041B000053545604FF0063585604FF00735C56021
:1041C0004FF0083505614FF0093545614FF0103566
:1041D00085614FF01135C5610025056244624FF0DD
:1041E000013585626D00C5624FF0033505634FF000
:1041F00012354563034D8563034DC5634FF08075EC
:10420000056430BD113D00086D3C000870B5002507
:104210001EE010480068A0B10F48006888B10E4841
:1042200003680C4802680DA11148FEF733FA1048E4
:10423000FBF7EDFFC4B200200D4908550DA000F0BA
:10424000D5F840F6B830FDF78DFA054605B170BDDA
:10425000DFE70000B8060020BC0600207B2263696F
:1042600064223A25642C226C6163223A25647D0025
:10427000603C00202573000010B5002409E005A073
:10428000FEF7F8F94FF4FA60FDF76CFA044604B152
:1042900010BDF4E7746573740D0A000010B50021B9
:1042A0004FF08040FDF774FE10BD10B50121880766
:1042B000FDF76EFE10BD10B5FDF7D6FF10BD10B5B1
:1042C00004462046FEF71CF810BD000010B586B06D
:1042D000044601210420FDF7C7FB01214804FDF736
:1042E000A3FB1B48FEF7A4F80420ADF8140003203C
:1042F0008DF8160018208DF8170005A91548FCF751
:1043000075FB0820ADF8140004208DF8170005A9EE
:104310001048FCF76BFB01940020ADF80800ADF8E5
:104320000A00ADF80C00ADF810000C20ADF80E003E
:10433000012240F225510648FEF7FFF801A9044882
:10434000FEF720F901210248FEF766F806B010BD1D
:10435000004400400008014010B586B00446012129
:104360000820FDF781FB01218804FDF75DFB1C4857
:10437000FEF75EF84FF48060ADF8140003208DF86E
:10438000160018208DF8170005A91648FCF72EFB1B
:104390004FF40060ADF8140004208DF8170005A953
:1043A0001048FCF723FB01940020ADF80800ADF89D
:1043B0000A00ADF80C00ADF810000C20ADF80E00AE
:1043C00001A90748FEF7DEF801210548FEF724F8A9
:1043D000402200210448FBF708FF06B010BD000092
:1043E00000480040000C0140E03B00200FB438B50D
:1043F00005A800900F48009A0499FEF75FF9002085
:1044000000900C48FBF703FF85B200240DE000BFCD
:1044100040210948FEF75AF80028F9D00548015D07
:104420000548FEF720F9601C84B2AC42EFDB38BCD3
:104430005DF814FB203C00200048004010B500222D
:1044400040F225510148FEF778F810BD00480040C1
:1044500010B5012240F225510148FEF76EF810BD5B
:104460000048004000404040404040404040414102
:104470004141414040404040404040404040404039
:1044800040404040400502020202020202020202D3
:1044900002020202022020202020202020202002D0
:1044A0000202020202029090909090901010101060
:1044B00010101010101010101010101010101010FC
:1044C0000202020202028888888888880808080890
:1044D000080808080808080808080808080808085C
:1044E0000202020240000000654400081C4500086A
:1044F00000000020000400008A0800083845000879
:1045000000060020D0000000E82600080846000849
:10451000D0060020D0390000F82600084113090118
:104520000C10086532040110A9180B1401092401AC
:10453000FF01FF01FF01B3000000000001020304BE
:10454000010203040607080902040608000000002F
:10455000000000000000000000000000000000005B
:10456000000000000000000000000000000000004B
:10457000000000000000000000000000000000003B
:10458000000000000000000000000000000000002B
:10459000000000000000000000000000000000001B
:1045A000000000000000000000000000000000000B
:1045B00000000000000000000000000000000000FB
:1045C00000000000000000000000000000000000EB
:1045D00000000000000000000000000000000000DB
:1045E00000000000000000000000000000000000CB
:1045F00000000000000000000000000000000000BB
:084600000000000000000000B2
:04000005080000ED02
:00000001FF
