:020000040800F2
:1000000038080020450100087D0F00087F0F000818
:10001000830F0008870F00088B0F00080000000006
:100020000000000000000000000000008F0F00082A
:10003000910F000800000000930F0008950F0008C2
:100040005F0100085F0100085F0100085F01000810
:100050005F0100085F0100085F0100085F01000800
:100060005F0100085F0100085F0100085F010008F0
:100070005F0100085F0100085F0100085F010008E0
:100080005F0100085F0100085F0100085F010008D0
:100090005F0100085F0100085F0100085F010008C0
:1000A0005F0100085F0100085F0100085F010008B0
:1000B0005F0100085F0100085F0100085F010008A0
:1000C0005F0100085F0100085F0100085F01000890
:1000D0005F0100085F0100085F0100089D0F000834
:1000E0005F0100085F0100085F0100085F01000870
:1000F0005F0100085F0100085F0100085F01000860
:100100005F0100085F0100085F0100085F0100084F
:100110005F0100085F0100085F0100085F0100083F
:100120005F0100085F0100085F0100085F0100082F
:10013000DFF80CD001F030FF004800472D0F000819
:10014000380800200648804706480047FEE7FEE7DB
:10015000FEE7FEE7FEE7FEE7FEE7FEE7FEE7FEE777
:1001600047020008310100080CB500200190009002
:100170006C48006840F480306A49086000BF6948F4
:10018000006800F4003000900198401C0190009835
:1001900018B90198B0F5A06FF1D16248006800F479
:1001A000003010B10120009001E000200090009884
:1001B000012843D15C48006840F010005A490860AB
:1001C0000846006820F0030008600846006840F018
:1001D0000200086053484068524948600846406839
:1001E00048600846406840F48060486008464068BF
:1001F00020F47C1048600846406840F4E8104860ED
:100200000846006840F08070086000BF45480068FC
:1002100000F000700028F9D04248406820F0030048
:10022000404948600846406840F00200486000BF0E
:100230003C48406800F00C000828F9D10CBD10B50E
:10024000FFF792FF10BD10B53648006840F001007E
:1002500034490860084640683449084031494860DC
:1002600008460068324908402E4908600846006880
:1002700020F4802008600846406820F4FE004860B2
:100280004FF41F008860FFF7DAFF4FF00060294944
:10029000086010BD10B5002100200022214B5B68D2
:1002A00003F00C0121B1042906D0082928D107E068
:1002B000214B224C236027E01F4B204C236023E07E
:1002C000184B5B6803F47010164B5B6803F48032C4
:1002D000022303EB904022B9194B4343174C236090
:1002E0000DE0104B5B6803F4003323B1144B434320
:1002F000124C236003E0104B4343104C236003E097
:100300000D4B0E4C236000BF00BF064B5B68C3F370
:1003100003130C4CE15C094B1B68CB40074C23607A
:1003200010BD000000100240002002400000FFF855
:10033000FFFFF6FE08ED00E000127A00000000204A
:1003400000093D000400002031490143314A116099
:10035000704770B5002100230F22C47804B32D4CE0
:10036000246804F4E064C4F5E064210AC1F10403E4
:10037000CA40447804FA03F1847814402143090107
:10038000254C0678A155047804F01F050124AC40E3
:1003900005786D11AD0005F1E025C5F8004109E0D3
:1003A000047804F01F050124AC401C4D067876113A
:1003B00045F8264070BD1A4A0A400243154B1B1FE0
:1003C0001A60704739B1134A121D12680243114B6B
:1003D0001B1D1A6006E00F4A121D126882430D4B66
:1003E0001B1D1A607047042808D14FF0E0210969ED
:1003F00041F004014FF0E022116107E04FF0E021ED
:10040000096921F004014FF0E022116170470000FA
:100410000000FA050CED00E000E400E080E100E0FF
:1004200080FFFF1F10B50446CC48844208D101214B
:10043000042000F02DFB0021042000F029FB46E001
:10044000C748844208D10121082000F021FB002187
:10045000082000F01DFB3AE0C248844208D1012187
:10046000102000F015FB0021102000F011FB2EE001
:10047000BD48844208D10121202000F009FB002161
:10048000202000F005FB22E0B848844208D1012179
:10049000402000F0FDFA0021402000F0F9FA16E0BB
:1004A000B348844208D10121802000F0F1FA0021F4
:1004B000802000F0EDFA0AE0AE48844207D1012125
:1004C000801500F0E5FA0021A01500F0E1FA10BD5A
:1004D00010B50121084600F0DBFA0021012000F0F0
:1004E000D7FA10BD2DE9F041024600250026002074
:1004F00000230024002791F803C00CF00F0591F8A9
:1005000003C00CF0100CBCF1000F03D091F802C036
:100510004CEA050591F800C0BCF1000F31D0146819
:1005200000202BE04FF0010C0CFA00F3B1F800C0F2
:100530000CEA03069E4220D183004FF00F0C0CFA08
:1005400003F7BC4305FA03FC4CEA040491F803C02A
:10055000BCF1280F06D14FF0010C0CFA00FCC2F8D8
:1005600014C00AE091F803C0BCF1480F05D14FF068
:10057000010C0CFA00FCC2F810C0401C0828D1D3B2
:100580001460B1F800C0BCF1FF0F34DD54680020E6
:100590002EE000F1080C4FF0010808FA0CF3B1F856
:1005A00000C00CEA03069E4221D183004FF00F0CDD
:1005B0000CFA03F7BC4305FA03FC4CEA040491F877
:1005C00003C0BCF1280F05D100F1080C08FA0CF8A3
:1005D000C2F8148091F803C0BCF1480F07D100F1B4
:1005E000080C4FF0010808FA0CF8C2F81080401C03
:1005F0000828CED35460BDE8F0814FF6FF7101802A
:10060000022181700421C170704702460020936866
:100610000B400BB1012000E00020704701468868C4
:1006200080B2704702460020D3680B400BB1012016
:1006300000E0002070470146C86880B27047016141
:100640007047416170470AB1016100E04161704744
:10065000C16070474FF480320A43826181618261D8
:1006600082698269704702460020434B18684FF642
:100670008073184040EA021008433F4B18607047EF
:100680003E49C8617047F0B50A46002300240021A6
:10069000002500F00046B6F1004F02D1364EF16958
:1006A00001E0354E7168C0F3034583B200F4401693
:1006B000B6F5401F08D121F070612F4E766826F004
:1006C00070662D4F7E6012E000F48016B6F5801F34
:1006D00006D1032606FA05F4A14341F0706106E055
:1006E000460D360103FA06F6B14341F0706122B1BE
:1006F000460D360103FA06F6314300F00046B6F126
:10070000004F02D11C4EF16101E01B4E7160F0BD43
:1007100030B500228B071C0F0F2303FA04F2164B8F
:1007200008338C1053F824309343134C08348D1045
:1007300044F8253023468C1053F824308C07240FBE
:1007400000FA04F423430C4C08348D1044F825308F
:1007500030BD0A49DC3108607047000000080140E4
:10076000000C01400010014000140140001801403D
:10077000001C014000200140000001400000204218
:10078000DF48006840F00100DD4908600846406825
:10079000DC490840DA49486008460068DA49084000
:1007A000D74908600846006820F4802008600846A1
:1007B000406820F4FE0048604FF41F0088607047D6
:1007C000CF49096821F48031CD4A1160114609688A
:1007D00021F480211160B0F5803F03D0B0F5802F67
:1007E0000ED106E0C649096841F48031C44A11605F
:1007F00007E0C349096841F4A021C14A116000E043
:1008000000BF00BF704710B5014600220023002042
:100810004A11012A02D1BA4C236806E0022A02D109
:10082000B74C236A01E0B64C636A01F01F02012451
:1008300094401C400CB1012000E0002010BD38B5F0
:10084000002000900024002500BF3120FFF7DBFFCF
:1008500005460098401C00900098B0F5A06F01D0AC
:10086000002DF2D03120FFF7CEFF08B1012400E0C7
:100870000024204638BD01460020A14A106820F01F
:10088000F80040EAC10010607047A0490860704756
:10089000024600209A4B586820F47C1042EA01037B
:1008A0001843974B5860704798490866704701464F
:1008B0000020934A506820F00300084350607047BE
:1008C0008F48406800F00C007047014600208C4AB9
:1008D000506820F0F0000843506070470146002047
:1008E000874A506820F4E060084350607047014632
:1008F0000020834A506820F4605040EAC1005060F4
:10090000704729B17E4A527A02437D4B5A7204E005
:100910007B4A527A82437A4B5A7270477B49D8316C
:100920000860704701460020754A506820F4404036
:100930000843506070470021714A20321170704A9C
:1009400082F82010012802D004280AD104E00121F5
:100950006B4A2032117005E00521694A203211707E
:1009600000E000BF00BF70476949086070476449F4
:10097000096A0143624A1162704765494439086057
:10098000704730B500210022002400235C4D6D68C3
:1009900005F00C0121B1042905D0082923D105E077
:1009A0005C4D056022E05B4D05601FE0544D6D68B5
:1009B00005F47012524D6D6805F48034022505EB84
:1009C00092421CB9544D554305600BE04C4D6D6887
:1009D00005F400351DB1504D5543056002E04D4D05
:1009E0005543056002E04B4D056000BF00BF444D1C
:1009F0006D6805F0F0010909484D6B5C0568DD4044
:100A000045603F4D6D6805F4E061090A434D6B5C3C
:100A10004568DD4085603A4D6D6805F46051C90A4E
:100A20003E4D6B5C4568DD40C560354D6D6805F435
:100A30004041890B3A4D6B5CC568B5FBF3F5056128
:100A400030BD29B12E4A526902432D4B5A6104E050
:100A50002B4A526982432A4B5A61704729B1284A6E
:100A600092690243264B9A6104E0254A92698243C7
:100A7000234B9A61704729B1214AD2690243204B26
:100A8000DA6104E01E4AD26982431D4BDA61704785
:100A900029B11B4AD2680243194BDA6004E0184AB4
:100AA000D2688243164BDA60704729B1144A126942
:100AB0000243134B1A6104E0114A12698243104B3E
:100AC0001A61704712494039086070470F49C8647D
:100AD00070470B49C87170470948406A40F0807000
:100AE00007494862704701460020054A92680A405B
:100AF0000AB1012000E00020704701498872704768
:100B0000001002400000FFF8FFFFF6FE0000424226
:100B10008004424200127A0000093D0014000020C7
:100B20002400002010B50446FB48844209D101216D
:100B30008803FFF7ADFF00214FF48040FFF7A8FFC7
:100B400032E0F648844209D101214804FFF7ADFFA5
:100B500000214FF40030FFF7A8FF25E0F048844261
:100B600009D101218804FFF7A0FF00214FF4802064
:100B7000FFF79BFF18E0EB48844209D10121C8042C
:100B8000FFF793FF00214FF40020FFF78EFF0BE0EB
:100B9000E548844208D101210805FFF786FF0021BE
:100BA0004FF48010FFF781FF10BD2DE9F04786B0AC
:100BB00005460E460024A24600BFA1460027B08984
:100BC00000B100BF2F462C8A4CF6FF700440F0881D
:100BD00004432C82AC894EF6F3100440B08831896E
:100BE0000843718908430443AC81AC8A4FF6FF4047
:100BF0000440B0890443AC8201A8FFF7C2FEC64896
:100C0000874202D1DDF810A001E0DDF80CA0A88930
:100C100000F4004040B10AEBCA0000EB0A10316852
:100C20004900B0FBF1F807E00AEBCA0000EB0A103C
:100C300031688900B0FBF1F86420B8FBF0F00401E2
:100C40002009642101FB1089A88900F4004040B10B
:100C5000322000EBC900B0FBF1F000F007000443C4
:100C600008E0322000EB09106421B0FBF1F000F045
:100C70000F0004432C8106B0BDE8F0874FF41651F5
:100C8000016000218180C18001810C21418100210E
:100C90008181704710B502460020108A4FF2FF0391
:100CA00018400B884C8823438C882343CC882343EB
:100CB0001843108210BD0021018041808180C180D5
:100CC000704721B1828942F40052828104E0828916
:100CD0004DF6FF731A4082817047F0B50346002439
:100CE00000260025002040F66A17B94200D100BF57
:100CF0001846C1F3421401F01F06012707FA06F552
:100D0000012C01D10C3004E0022C01D1103000E0A4
:100D100014301AB107682F43076002E00768AF4339
:100D20000760F0BD1AB1838A0B43838202E0838A95
:100D30008B4383827047028A4FF6F0731A40028217
:100D4000028A0A430282704782894FF2FF731A4077
:100D5000828182890A438281704721B1828942F06F
:100D60000202828104E082894FF6FD731A4082817B
:100D70007047028A4FF6DF731A400282028A0A43E2
:100D80000282704721B1028A42F48042028204E06A
:100D9000028A4BF6FF731A4002827047C1F30802C1
:100DA0008280704701468888C0F3080070478189B7
:100DB00041F0010181817047028BD2B20283028B24
:100DC00042EA012202837047028B02F47F420283CF
:100DD000028B0A430283704721B1828A42F02002CB
:100DE000828204E0828A4FF6DF731A408282704763
:100DF00021B1828A42F01002828204E0828A4FF698
:100E0000EF731A408282704721B1828A42F0080251
:100E1000828204E0828A4FF6F7731A40828270471A
:100E200021B1828942F40042828103E08289C2F3C7
:100E30000E028281704721B1828A42F4006282826E
:100E400004E0828A4FF2FF731A4082827047828ADE
:100E50004FF6FB731A408282828A0A43828270476D
:100E600021B1828A42F00202828204E0828A4FF635
:100E7000FD731A408282704702460020B1F5007F60
:100E800000D100BF13880B400BB1012000E000200F
:100E9000704701F40072B2F5007F00D100BFCA4371
:100EA0000280704770B50246002400230025002010
:100EB00040F66A16B14200D100BFC1F3421501F0FD
:100EC0001F03012606FA03F3012D02D19689334050
:100ED00006E0022D02D1168A334001E0968A3340A3
:100EE0000C12012606FA04F41688344013B10CB132
:100EF000012000E0002070BD10B50022002340F664
:100F00006A14A14200D100BF0A1201249440A3B286
:100F1000DC43048010BD0000003801400044004064
:100F200000480040004C00400050004000F054FFDA
:100F300000F02CFF00F082F800F07EFF00F05AF97C
:100F400000F08BFD03A001F059F800F027FE00BF70
:100F5000FEE700000D0AD2B0BBF02057462D4553E6
:100F600050383236362057694669C4A3BFE9B2E229
:100F7000CAD4C0FDB3CC0D0A00000000704700BF0A
:100F8000FEE700BFFEE700BFFEE700BFFEE77047D9
:100F90007047704710B500F096FF10BD10B540F2D5
:100FA00025512048FFF77EFFD8B11E48FFF7FAFE13
:100FB000C4B21D48B0F80004C0F30E0040F2FF3187
:100FC00088420EDA1849B1F80014C1F30E00411C32
:100FD000154AB2F8002461F30E021349A1F8002467
:100FE0000C5440F224410F48FFF75CFF012817D151
:100FF0000D48B0F8000420F4004000F500400A4914
:10100000A1F800040748FFF7CDFEC4B207A10648C7
:1010100000F07EFF08B1012000E0002006490870C2
:1010200010BD00000048004034000020434C4F53E6
:1010300045440D0A000000002800002000B585B0DE
:1010400001218803FFF70AFD01210420FFF706FDB7
:101050004FF40070ADF8100018208DF81300032035
:101060008DF8120004A92248FFF73CFA4FF4806083
:10107000ADF8100004208DF8130004A91C48FFF7F8
:1010800031FA4FF4E13000900020ADF80400ADF8E3
:101090000600ADF80800ADF80C000C20ADF80A0011
:1010A00069461448FFF781FD01211248FFF709FE48
:1010B00005B000BD70B504460D46E1B20D48FFF71E
:1010C0006DFE00BF80210B48FFF7D6FE0028F9D047
:1010D000204670BD10B5044600BF20210548FFF72B
:1010E000CBFE0028F9D00348FFF75CFE10BD0000DE
:1010F000000801400038014008B54FF4A060FFF738
:1011000023F927208DF8000000208DF801008DF8CC
:10111000020001208DF803006846FFF71AF908BDA8
:1011200000B585B001218804FFF7A5FC0121082046
:10113000FFF794FC4FF48060ADF8100018208DF894
:10114000130003208DF8120004A9F848FFF7CAF92C
:101150004FF40060ADF8100004208DF8130004A9CE
:10116000F248FFF7BFF94FF4E13000900020ADF8EE
:101170000400ADF80600ADF80800ADF80C000C2036
:10118000ADF80A006946EA48FFF70FFD012240F278
:101190002551E748FFF7A1FD012240F22441E44830
:1011A000FFF79BFDFFF7A8FF0121E148FFF789FD4D
:1011B00005B000BD08B501210820FFF74FFC4FF432
:1011C0008070ADF8000010208DF8030003208DF82A
:1011D00002006946D548FFF785F901210820FFF78D
:1011E0003DFC4FF40070ADF800006946CF48FFF7B2
:1011F00079F908BD10B5FFF7DDFFFFF791FF4FF458
:101200000071CA48FFF71BFA4FF48071C748FFF717
:1012100018FA10BD10B54FF40071C448FFF711FA69
:10122000C44800F03EFE4FF40071C048FFF707FAD3
:1012300010BD2DE9F04106460C4615461F46BE4836
:10124000B0F800046FF30E00BB49A1F80004324669
:10125000BAA1B74800F06BFB1CB915B90120BDE875
:10126000F0814FF47A7107FB01F000F01AFE0020C4
:10127000B149B1F80014C1F30E01AF4A5054114600
:10128000B0A000F0BBFEB4B1ADB12146AA4800F059
:101290003FFE08B1012000E0002040B92946A648E1
:1012A00000F036FE08B1012000E0002008B1012066
:1012B000D5E70020D3E744B121469F4800F028FE3F
:1012C00008B10120CBE70020C9E729469A4800F081
:1012D0001FFE08B10120C2E70020C0E710B50024BE
:1012E0004FF400719148FFF7AAF9974800F0D9FD33
:1012F0000FE0954800F0D5FD4FF4FA73002293A15A
:1013000093A0FFF796FF00B110BDFFF783FF601CAD
:10131000C4B20A2CEDDB00BFF6E710B5044624B1D9
:10132000012C0AD0022C18D10FE040F6C41389A278
:1013300086A18BA0FFF77DFF10BD40F6C41385A2E8
:1013400082A18AA0FFF775FFF6E740F6C41381A2D9
:101350007EA189A0FFF76DFFEEE70020ECE730B536
:101360009FB004460D462B46224686A101A800F0F8
:1013700055FE41F28833002274A101A8FFF759FFFE
:101380001FB030BD70B5A0B004460D4616462B46C2
:10139000224681A102A8009600F040FE4FF47A7325
:1013A00000226AA102A8FFF744FF20B070BD10B56B
:1013B00086B004460CB1012000E0002002467CA16A
:1013C00001A800F02BFE4FF4FA7300225FA101A8E0
:1013D000FFF72FFF06B010BDF0B5B9B006460F46B7
:1013E00014461D46642120A800F087FD16B1012E89
:1013F00010D107E03B4672A272A120A8009400F031
:101400000DFE08E03B4673A26EA120A8009400F0F8
:1014100005FE00E000BF00BF052D06DA20AB2A461E
:101420006DA102A800F0FAFD04E020AA6FA102A8B5
:1014300000F0F4FD4FF47A6370A244A102A8FFF714
:10144000F8FE39B0F0BD70B5BCB004460D46164686
:10145000FCB12B4601226DA11EA800F0DFFD324633
:101460006FA1684600F0DAFD4FF4FA73002237A14D
:101470001EA8FFF7DEFE50B14FF4FA73002233A12D
:101480006846FFF7D6FE10B101203CB070BD0020C9
:10149000FBE72B4600225DA11EA800F0BFFD4FF424
:1014A000FA73002229A11EA8FFF7C3FEEDE710B5CD
:1014B0004FF4FA73002225A15DA0FFF7BAFEA0B198
:1014C0005FA11D4800F024FD08B1022010BD5FA1FE
:1014D000194800F01DFD08B10320F7E75EA116488A
:1014E00000F016FD08B10420F0E70020EEE710B58B
:1014F00000244FF4FA73002214A14DA0FFF799FEC7
:10150000002812D057A10C4800F002FD10B144F0A1
:10151000010401E024F0010456A1074800F0F8FCA2
:1015200010B144F00204AFE0ACE0CBE0000C0140AD
:101530000048004020A107003400002025730D0A58
:10154000000000002573000040420F004F4B0000D8
:10155000415400006E6F206368616E676500000093
:1015600041542B43574D4F44453D310041542B438B
:10157000574D4F44453D320041542B43574D4F4446
:10158000453D330041542B43574A41503D2225737A
:10159000222C22257322000041542B4357534150E3
:1015A0003D222573222C222573222C312C25640008
:1015B00041542B4349504D55583D256400000000CF
:1015C00054435000222573222C222573222C25738C
:1015D000000000005544500041542B4349505354DF
:1015E0004152543D25642C257300000041542B4387
:1015F000495053544152543D25730000414C5245CB
:10160000415920434F4E4E454354000041542B4313
:1016100049505345525645523D25642C25730000D0
:1016200041542B43495053544F3D25730000000053
:1016300041542B434950535441545553000000002A
:101640005354415455533A320D0A000053544154F7
:1016500055533A330D0A00005354415455533A340C
:101660000D0A00002B4349505354415455533A300E
:101670002C0000002B4349505354415455533A31E8
:101680002C00000024F0020464A1684800F040FC33
:1016900010B144F0040401E024F0040464A16348A0
:1016A00000F036FC10B144F0080401E024F0080416
:1016B00063A15E4800F02CFC10B144F0100401E07E
:1016C00024F01004204610BD2DE9F04105460F46D8
:1016D0004FF4FA730022AFF28C115DA0FFF7A9FD61
:1016E0005EA1524800F014FC06460EB1B61D02E0A1
:1016F0000020BDE8F081002409E0305D2855285D18
:10170000222802D10020285503E0601CC4B2BC424C
:10171000F3DB00BF0120ECE710B54FF4FA730022B1
:10172000AFF2D8114FA0FFF784FD08B9002010BD1B
:101730004FF4FA734FA2AFF2EC114FA0FFF779FD0F
:10174000F5E710B54F4800F0ACFB4FA14F4800F053
:10175000EEF84F4800F0A5FB10BD2DE9F04186B032
:1017600007460C4615461E464FF0000847B1224674
:10177000AFF23021454800F0DAF84FF001081CE0E4
:10178000052E06DAAB1C324642A101A800F046FC49
:1017900004E0AA1C44A101A800F040FC4FF47A73B5
:1017A000002245A101A8FFF744FD4FF47A730022FF
:1017B00042A12046FFF73DFD8046404606B0BDE809
:1017C000F08170B5044600251848B0F800046FF3A6
:1017D0000E001649A1F800040846B0F8000420F4F1
:1017E0000040A1F8000400BF1048B0F80004C00B8E
:1017F0000028F9D000200D49B1F80014C1F30E0102
:101800000A4A50540CB1154605E02EA1074800F0D5
:101810007FFB00B1054D284670BD00002B434950A9
:101820005354415455533A322C00000034000020E8
:101830002B4349505354415455533A332C00000024
:101840002B4349505354415455533A342C00000013
:1018500041542B4349465352000000004150495027
:101860002C22000041542B4349504D4F44453D31FB
:10187000000000003E00000041542B4349505345F6
:101880004E44000040420F002B2B2B00004800402C
:1018900020A1070041542B43495053454E443D2558
:1018A000642C25640000000041542B4349505345EB
:1018B0004E443D25640000003E20000053454E4448
:1018C000204F4B002B49504400000000F0B5034668
:1018D0000D461646002729460A2E03D00020087020
:1018E0002846F0BD33B9302001F8010B0020087004
:1018F0002846F6E7002B03DA2D2001F8010B5B42A6
:1019000042F210720DE093FBF2F404B937B104F126
:10191000300001F8010B04FB123301270A2092FB6F
:10192000F0F2002AEFDC002008702846D9E70FB457
:1019300070B586B006460CA8019073E00B9800784D
:101940005C281CD10B98401C0B9000786E2809D0A5
:1019500072280FD10D213046FFF720FA0B98401C5A
:101960000B900BE00A213046FFF718FA0B98401C49
:101970000B9003E00B98401C0B9000BF4BE00B98C2
:101980000078252840D10B98401C0B9000786428E3
:1019900018D0732833D1019810C801900BE021783A
:1019A0003046FFF7FBF900BF80213046FFF764FAAD
:1019B0000028F9D0641C20780028F0D10B98401C36
:1019C0000B9020E0019820C801900A2202A9284625
:1019D000FFF77CFF02AC0BE021783046FFF7DEF921
:1019E00000BF80213046FFF747FA0028F9D0641C79
:1019F00020780028F0D10B98401C0B9003E00B9846
:101A0000401C0B9000BF06E00B9810F8011B0B90D8
:101A10003046FFF7C3F900BF80213046FFF72CFAAC
:101A20000028F9D00B980078002887D106B070BC48
:101A30005DF814FB08B501214020FFF70FF84020A6
:101A4000ADF8000010208DF8030003208DF802008F
:101A500069465148FEF746FD08BD10B5FFF7EAFF9D
:101A600040214D48FEF7EBFD10BD08B54020ADF814
:101A7000000048208DF8030069464748FEF732FD14
:101A800008BD08B54020ADF8000010208DF8030017
:101A900003208DF8020069463F48FEF723FD08BD8C
:101AA00070B50025002424E000BF40213A48FEF72D
:101AB000ACFD0028F9D0282000F0F3F94021364889
:101AC000FEF7A3FD01280DD100BF40213248FEF7EB
:101AD0009CFD0128F9D0C4F1070101208840C0B263
:101AE000054304E0C4F10701012088408543601CE0
:101AF000C4B2082CD8DB284670BD10B50446FFF7E9
:101B0000C0FF40212448FEF79CFD44F2506000F0E5
:101B1000C8F940212048FEF792FD1E2000F0C1F9CF
:101B2000FFF7A3FF40211C48FEF76FFD80BB00BFFD
:101B300040211948FEF769FD0028F9D000BF402177
:101B40001548FEF762FD0128F9D0FFF7A9FF2070C4
:101B5000FFF7A6FF6070FFF7A3FFA070FFF7A0FFDD
:101B6000E070FFF79DFF2071FFF78BFF40210A48CF
:101B7000FEF765FD207861780844A1780844E17893
:101B800008442179884201D1012010BD0020FCE7E2
:101B9000FFE70020F9E7000000180140A0B0642131
:101BA00007A800F0AAF900254FF480714A48FEF713
:101BB00046FDFFF793FB0020FFF7AFFB00BF47A1F7
:101BC00049A0FFF7CCFB0028F9D00020FFF7EFFB7E
:101BD00000BF052349A24BA10020FFF7FDFB002811
:101BE000F7D000BFFFF798FD0028FBD048A000F019
:101BF00005FA20203849143108606BE020214A485A
:101C000000F0D4F8012865D16D1C33480C30006811
:101C100080F0010030490C31086005A8FFF76DFF26
:101C2000012811D141A29DF817009DF81610CDE9A9
:101C30000252CDE900109DF815309DF814203DA109
:101C400007A800F0EBF90AE038A000210B460A468D
:101C5000CDE90015029037A107A800F0CFF907A938
:101C600039A000F0CBF90523002207A90120FFF7D6
:101C700074FD3648007800282CD017480C300068D6
:101C800080F0200014490C310860FFF75AFD00BFB6
:101C9000FFF70DFC0446002CFAD0042C15D12CA023
:101CA00000F0ACF900BF0DA10FA0FFF758FB002812
:101CB000F9D000BF052311A212A10020FFF78CFB71
:101CC0000028F7D02AA000F099F900BFFFF724FD03
:101CD0000028FBD092E70000000C01406B656A69A8
:101CE00073696775657374005465636854656D70D6
:101CF0006C65204775657374000000003636363613
:101D00000000000031302E312E32312E31373900B3
:101D10000D0AC5E4D6C3204553503832363620CD9F
:101D2000EAB1CF0D0A000000001801404130303008
:101D30003030310025642E25642C25642E25642C3A
:101D400025642C25730A000025730000280000205C
:101D50000D0AD5FDD4DAD6D8C1ACC8C8B5E3BACD22
:101D6000B7FECEF1C6F7202E2E2E2E2E2E0D0A00F7
:101D70000D0AD6D8C1ACC8C8B5E3BACDB7FECEF10E
:101D8000C6F7B3C9B9A60D0A0000000008B50121C5
:101D90004020FEF763FE2020ADF8000004208DF8FF
:101DA000030069460B48FEF79DFB08BD70B504466D
:101DB0000D4629462046FEF728FC012808D100BF21
:101DC00029462046FEF721FC0128F9D0012070BDEC
:101DD0000020FCE70018014008B501210820FEF7AB
:101DE0003DFE2020ADF8000010208DF803000320F8
:101DF0008DF8020069460F48FEF774FB0120ADF82C
:101E0000000069460B48FEF76DFB0220ADF80000AC
:101E100069460848FEF766FB20210648FEF70FFCDE
:101E200001210448FEF70BFC02210248FEF707FCE3
:101E300008BD0000000C014030B527480068274A63
:101E4000B0FBF2F1B1F1807F01D301201DE021F060
:101E50007F40401E4FF0E022506150170F220028B3
:101E600007DA13071D0E1E4B00F00F04241F1D552B
:101E700003E013071C0E1B4B1C5400BF00204FF047
:101E8000E022906107201061002008B100BFFEE74A
:101E90004FF0E020006920F001004FF0E0210861E0
:101EA00030BD01B51049009808604FF0E02000698E
:101EB00040F001004FF0E021086100BF0A480068CF
:101EC0000028FBD108BD0848006820B1064800681A
:101ED000401E0549086070470000002040420F0086
:101EE00018ED00E000E400E02C000020D2B201E098
:101EF00000F8012B491EFBD270470022F6E710B50F
:101F000013460A4604461946FFF7F0FF204610BD67
:101F100030B505462A460B4612F8010B13F8014B63
:101F200008B1A042F8D01CB1002802D06D1CF1E726
:101F3000284630BD2DE9F05F0546002092469B46BD
:101F400088460646814640241BE0284641464746CF
:101F5000224600F042F853465A46C01A914110D327
:101F600011461846224600F029F82D1A67EB0108A1
:101F70004F4622460120002100F020F817EB00090F
:101F80004E41201EA4F10104DFDC484631462A46BA
:101F90004346BDE8F09F0000064C074D06E0E068B0
:101FA00040F0010394E8070098471034AC42F6D3A0
:101FB000FEF7C2F8D0240008F0240008202A04DB31
:101FC000203A00FA02F1002070479140C2F120034C
:101FD00020FA03F3194390407047202A04DB203A8B
:101FE00021FA02F00021704721FA02F3D040C2F139
:101FF0002002914008431946704700000FB4054B7A
:1020000010B503A9044A029800F02CF810BC5DF842
:1020100014FB0000B5100008300000200FB4084B7E
:1020200010B504A902AA039800F01CF8044602A9FE
:10203000002000F048FA204610BC5DF814FB0000B8
:10204000C724000802E008C8121F08C1002AFAD1FC
:1020500070477047002001E001C1121F002AFBD128
:10206000704700002DE9FF4F8DB00F460546002652
:1020700006E025280BD0DDE90F1290476D1C761C79
:1020800028780028F5D111B03046BDE8F08F002443
:10209000A246A1460122EC4900E0044315F8013FA5
:1020A000203B02FA03F00842F7D128782A2810D002
:1020B0006FF02F022878A0F13001092914D80AEB1B
:1020C0008A0102EB410144F0020400EB010A6D1C9D
:1020D000F0E701CF5FEA000A03D544F40054CAF1E7
:1020E000000A44F002046D1C28782E2817D115F838
:1020F000010F44F004042A280ED06FF02F02287834
:10210000A0F1300109290AD809EB890102EB41014C
:1021100000EB01096D1CF2E757F8049B6D1C287851
:102120006C280FD006DC4C2817D068280DD06A2800
:1021300014D104E0742810D07A280FD10DE044F4B3
:1021400000140AE044F4801401E044F44014697877
:10215000814202D104F580146D1C6D1C2A786E2A10
:102160001FD00CDC632A31D004DC002A8BD0582A23
:1021700011D1A3E0642A68D0692A0CD165E0732AE2
:102180002ED004DC6F2A73D0702A04D19BE0752A0C
:102190006FD0782A6ED01046DDE90F129047761C7A
:1021A00050E1C4F30250022806D0032809D00428C5
:1021B00001CF09D0066045E101CFF117C0E9006108
:1021C00040E101CF06803DE106703BE117F8040BCA
:1021D0008DF8000000208DF80100EB46012003E09F
:1021E00057F804BB4FF0FF3061074FF0000102D4F5
:1021F0000DE008F10101884649450FDA8045F8DB1A
:102200001BF808100029F4D108E008F10101884604
:102210008142FADB1BF808100029F6D1DDE90F2313
:10222000AAEB08008146214600F036F9304400EB65
:10223000080604E0DDE90F121BF8010B9047B8F126
:102240000108F7D221464846F7E00A21C4F30253B9
:102250004FF0000B0891022B04D001CFC117032BC4
:1022600009D00AE0FF1D27F00707F7E8020108E0A0
:1022700032E01FE020E000B2C117042B01D140B2D0
:10228000C117031E71F1000307DA4FF0000CD0EB09
:102290000C006CEB01012D2302E0230504D52B2358
:1022A0008DF82430012303E0E30701D02023F7E772
:1022B000984658E00A2110E010210EE010204FF05F
:1022C000000B08900CE010214FF0000B44F00404C8
:1022D0004FF00809089103E008214FF0000B089126
:1022E000C4F30253022B04D001CF0021032B06D0EC
:1022F00006E0FF1D27F00707F7E8020103E080B2C0
:10230000042B00D1C0B24FF0000823072BD5702A50
:1023100007D0DDF820C08CF0100C5CEA0B0C05D067
:102320000EE040238DF82430012308E050EA010339
:1023300006D030238DF824308DF8252002239846CE
:10234000DDF820C08CF0080C5CEA0B0C0BD150EAD5
:10235000010301D1630706D530238DF824304FF0F7
:102360000108A9F10109582A04D038A20B9208AA41
:102370000A920BE03AA2F9E75B46089AFFF7DAFD0A
:102380000B9B9B5C0A9A521E0A92137050EA010240
:10239000F2D10A98ADEB000000F1200B600702D5E6
:1023A00024F4803401E04FF00109D94502DDA9EBA6
:1023B0000B0000E0002000EB0B0141440890AAEB69
:1023C000010AE00306D4DDE90F232146504600F060
:1023D00063F806444FF0000908E009A911F8090064
:1023E000DDE90F12904709F10109761CC145F4DBC4
:1023F000E0030CD5DDE90F232146504600F04CF8F0
:10240000064404E0DDE90F1230209047761C08995D
:10241000481E08900029F5DC08E00A980A9900781F
:10242000491C0A91DDE90F129047761CBBF10001AF
:10243000ABF1010BF1DC21465046DDE90F2300F042
:1024400019F806446D1C1BE60928010030313233AF
:1024500034353637383961626364656600000000E0
:1024600030313233343536373839414243444546CA
:10247000000000002DE9F041044600251E461746E5
:10248000880404D405E039462020B0476D1C641E42
:10249000F9D52846BDE8F0812DE9F0410446002534
:1024A0001E469046C80301D5302700E02027880447
:1024B00004D505E041463846B0476D1C641EF9D589
:1024C0002846BDE8F0810A68531C0B601070704705
:1024D000F024000800000020340000004420000820
:1024E00024250008340000200408000054200008BF
:1024F00000A24A04000000000000000001020304E2
:102500000607080900000000010203040102030499
:102510000607080902040608000000000000000089
:0425200000000000B7
:0400000508000131BD
:00000001FF
