:020000040800F2
:10000000C00C002079040008DD010008DF010008B1
:10001000E3010008E7010008EB0100080000000010
:10002000000000000000000000000000EF010008D8
:10003000F101000800000000F3010008F5010008CC
:100040009304000893040008930400089304000834
:100050009304000893040008930400089304000824
:100060009304000893040008930400089304000814
:100070009304000893040008930400089304000804
:1000800093040008930400089304000893040008F4
:1000900093040008930400089304000893040008E4
:1000A00093040008930400089304000893040008D4
:1000B00095350008513200087D350008930400088A
:1000C00093040008930400089304000893040008B4
:1000D000930400089304000893040008833B00087D
:1000E000D9460008930400089304000800F002F8C1
:1000F00000F05FF80AA090E8000C82448344AAF163
:100100000107DA4501D100F054F8AFF2090EBAE860
:100110000F0013F0010F18BFFB1A43F0010318473B
:1001200020BA000040BA00000A444FF0000C10F85A
:10013000013B13F0070408BF10F8014B1D1108BF65
:1001400010F8015B641E05D010F8016B641E01F805
:10015000016BF9D113F0080F1EBF10F8014BAD1C55
:100160000C1B09D16D1E58BF01F801CBFAD505E073
:1001700014F8016B01F8016B6D1EF9D59142D6D3CD
:10018000704700000023002400250026103A28BFF5
:1001900078C1FBD8520728BF30C148BF0B607047F9
:1001A000642908F05581002070471FB51FBD10B5A8
:1001B00010BD08F01DFB1146FFF7F7FF00F00CF92A
:1001C00008F03BFB03B4FFF7F2FF03BC02F0BAFBFD
:1001D00030BF72B662B680F308887047704700BFC0
:1001E000FEE700BFFEE700BFFEE700BFFEE7704787
:1001F00070477047704700000CB5002001900090D8
:100200006C48006840F480306A49086000BF694863
:10021000006800F4003000900198401C01900098A4
:1002200018B90198B0F5A06FF1D16248006800F4E8
:10023000003010B10120009001E0002000900098F3
:10024000012843D15C48006840F010005A4908601A
:100250000846006820F0030008600846006840F087
:1002600002000860534840685249486008464068A8
:1002700048600846406840F480604860084640682E
:1002800020F47C1048600846406840F4E81048605C
:100290000846006840F08070086000BF454800686C
:1002A00000F000700028F9D04248406820F00300B8
:1002B000404948600846406840F00200486000BF7E
:1002C0003C48406800F00C000828F9D10CBD10B57E
:1002D000FFF792FF10BD10B53648006840F00100EE
:1002E000344908600846406834490840314948604C
:1002F00008460068324908402E49086008460068F0
:1003000020F4802008600846406820F4FE00486021
:100310004FF41F008860FFF7DAFF4FF000602949B3
:10032000086010BD10B5002100200022214B5B6841
:1003300003F00C0121B1042906D0082928D107E0D7
:10034000214B224C236027E01F4B204C236023E0ED
:10035000184B5B6803F47010164B5B6803F4803233
:10036000022303EB904022B9194B4343174C2360FF
:100370000DE0104B5B6803F4003323B1144B43438F
:10038000124C236003E0104B4343104C236003E006
:100390000D4B0E4C236000BF00BF064B5B68C3F3E0
:1003A00003130C4CE15C094B1B68CB40074C2360EA
:1003B00010BD000000100240002002400000FFF8C5
:1003C000FFFFF6FE08ED00E000127A0000000020BA
:1003D00000093D000400002002F0ECF84FF4FA3070
:1003E00002F0CEFA022002F03FFA012002F03CFABD
:1003F00002F00CFB02F03AFB002141F61F4002F034
:10040000A9FF4FF4165003F06DFB02F0FBFF03F061
:1004100046F802F00BFE03F0D1F807F03EFA07F0C1
:1004200050FA02F04EFD47214FF6FF7002F08AFEAF
:1004300003F0E8FC0BA007F0CBFF11E00B480078BD
:1004400018B907F09AFD07F081FC012008490870EF
:1004500000200849087000BF054800780028FBD13B
:10046000ECE7000068656C6C6F0D0A001B00002053
:100470004D0000204C0000200948804709480047F3
:10048000FEE7FEE7FEE7FEE7FEE7FEE7FEE7FEE744
:10049000FEE7FEE704480549054A064B70470000A1
:1004A000D7020008ED000008C0060020C00C0020A4
:1004B000C0080020C008002031490143314A1160C2
:1004C000704770B5002100230F22C47804B32D4C6F
:1004D000246804F4E064C4F5E064210AC1F1040373
:1004E000CA40447804FA03F1847814402143090196
:1004F000254C0678A155047804F01F050124AC4072
:1005000005786D11AD0005F1E025C5F8004109E061
:10051000047804F01F050124AC401C4D06787611C8
:1005200045F8264070BD1A4A0A400243154B1B1F6E
:100530001A60704739B1134A121D12680243114BF9
:100540001B1D1A6006E00F4A121D126882430D4BF4
:100550001B1D1A607047042808D14FF0E02109697B
:1005600041F004014FF0E022116107E04FF0E0217B
:10057000096921F004014FF0E02211617047000089
:100580000000FA050CED00E000E400E080E100E08E
:1005900080FFFF1F10B50446FA48844208D10121AC
:1005A000401500F0ABFE0021601500F0A7FE17E03B
:1005B000F548844208D10121001500F09FFE00217A
:1005C000201500F09BFE0BE0F048844208D1012189
:1005D000C80300F093FE00214FF4004000F08EFEAF
:1005E00010BD30B50246002000235068E84C204082
:1005F0000D790C6844EA0524204350609068E54C6E
:100600002040D1E902542C434D7944EA450420436B
:100610009060D06A20F470000C7C641EE4B2234326
:1006200040EA0350D06230BD002101600171417188
:100630008160C16001210174704721B1826842F07C
:100640000102826003E0826822F00102826070474A
:1006500021B1826842F48072826003E0826822F4F1
:1006600080728260704710B50023CBB21AB1446823
:100670001C43446002E044689C43446010BD8168B0
:1006800041F0080181607047014600208A6802F04D
:1006900008020AB1012000E000207047816841F0A3
:1006A000040181607047014600208A6802F004025C
:1006B0000AB1012000E00020704721B1826842F4B5
:1006C000A002826003E0826822F4A0028260704788
:1006D000014600208A6802F480020AB1012000E08D
:1006E0000020704710B50A4600210023416821F41C
:1006F0006041531E41EA4331416010BD21B142685F
:1007000042F40062426003E0426822F40062426008
:100710007047F0B504460D4600200021092D11DD7B
:10072000E068A5F10A0606EB4607072606FA07F178
:100730008843A5F10A0606EB460603FA06F10843CC
:10074000E0600CE0206905EB4507072606FA07F193
:10075000884305EB450603FA06F108432061072AA2
:100760000FDA606B561E06EB86071F2606FA07F1A6
:100770008843561E06EB860605FA06F108436063B9
:1007800022E00D2A0FDA206BD61F06EB86071F2604
:1007900006FA07F18843D61F06EB860605FA06F12E
:1007A0000843206310E0E06AA2F10D0606EB86071D
:1007B0001F2606FA07F18843A2F10D0606EB86060E
:1007C00005FA06F10843E062F0BD21B1826842F407
:1007D0008012826003E0826822F480128260704797
:1007E0000146C86C80B2704766484C30006870475C
:1007F00021B1426842F48062426003E0426822F420
:1008000080624260704721B1426842F48052426087
:1008100003E0426822F48052426070470A46002199
:10082000816821F4E04111438160704721B1826801
:1008300042F40042826003E0826822F40042826057
:10084000704721B1826842F40212826003E082683C
:1008500022F4021282607047014600208A6802F486
:1008600000120AB1012000E000207047F0B50446F4
:100870001546002000220026092911DDE068A1F1BB
:100880000A0707EB470C072707FA0CF29043A1F180
:100890000A0707EB470703FA07F21043E0600CE092
:1008A000206901EB410C072707FA0CF2904301EB9A
:1008B000410703FA07F210432061A06BC0F3015611
:1008C000EF1C06F1010CA7EB0C0707EB870C1F27A9
:1008D00007FA0CF29043EF1C06F1010CA7EB0C0792
:1008E00007EB870701FA07F21043A063F0BD10B5CC
:1008F0000A4600210023816B21F44011531E41EA76
:100900000351816310BD08B5002300930090009B44
:100910000B440093009B1A6008BD08B502460020F6
:100920000090009201F12800009B1844009000986C
:10093000006880B208BD0A4600214168164B194084
:100940001143416070474162826270470A4600214C
:10095000416821F01F0111434160704740B10949CE
:100960000831096841F40001064A0832116007E0C5
:1009700004490831096821F40001024A0832116073
:10098000704700000024014000280140003C014065
:10099000FFFEF0FFFDF7F1FFFFFD3FFF02460020E5
:1009A00013680B400BB1012000E000207047CA43E0
:1009B0000260704770B502460020002300240B122D
:1009C0005568CEB205EA060415681D4015B10CB194
:1009D000012000E0002070BD00220A12D343036012
:1009E0007047000010B5012000F0A2FC002000F0CC
:1009F0009FFC10BD2A49086070472949091F0860FB
:100A00007047274984310860704701460020254A15
:100A100010884FF67F4210400843224A10807047EA
:100A2000014600201F4A10884FF68072104008438C
:100A30001C4A1080704708B500220092194A2C3ACF
:100A40000092009A02440092009A116008BD08B515
:100A500001460020009013482C380090009808446C
:100A600000900098008808BD0D489C300068C0B216
:100A700070470C480830008840F0010009490831EF
:100A8000088070470648A0300068C0B2704705482B
:100A90000830008840F002000249083108807047A1
:100AA00004860D422C6C0040002044490860091D5A
:100AB0000860091D0860091D086041483F4914315C
:100AC0000860704700213D498279002A3AD00A46E1
:100AD000126803689A430B461A600A1D126803687D
:100AE0009A430B1D1A60027911440A6803681A437D
:100AF0000A60324A0832126803689A432F4B08335F
:100B00001A601A1D126803689A432C4B0C331A6042
:100B10004279102A0ED11A1F126803681A43274B14
:100B200008331A601A1D126803681A43234B0C33EA
:100B30001A600DE02149427911440A6803681A439A
:100B40000A6005E0027911440A6803689A430A6062
:100B500070470021016001710C21417100218171F8
:100B600070471649103109680143144A1032116068
:100B7000704701460020114A143212680A400AB137
:100B8000012000E0002070470C49143108607047D4
:100B9000014600200022094B1B6803EA0102074BB3
:100BA00014331B680B4013B10AB1012000E0002090
:100BB000704702491431086070470000000401408A
:100BC000FFFF0F0010B50446CC48844208D1012134
:100BD000042000F093FB0021042000F08FFB46E08E
:100BE000C748844208D10121082000F087FB00217A
:100BF000082000F083FB3AE0C248844208D101217A
:100C0000102000F07BFB0021102000F077FB2EE08D
:100C1000BD48844208D10121202000F06FFB002153
:100C2000202000F06BFB22E0B848844208D101216B
:100C3000402000F063FB0021402000F05FFB16E045
:100C4000B348844208D10121802000F057FB0021E5
:100C5000802000F053FB0AE0AE48844207D1012116
:100C6000801500F04BFB0021A01500F047FB10BDE4
:100C700010B50121084600F041FB0021012000F0E1
:100C80003DFB10BD2DE9F041024600250026002065
:100C900000230024002791F803C00CF00F0591F801
:100CA00003C00CF0100CBCF1000F03D091F802C08F
:100CB0004CEA050591F800C0BCF1000F31D0146872
:100CC00000202BE04FF0010C0CFA00F3B1F800C04B
:100CD0000CEA03069E4220D183004FF00F0C0CFA61
:100CE00003F7BC4305FA03FC4CEA040491F803C083
:100CF000BCF1280F06D14FF0010C0CFA00FCC2F831
:100D000014C00AE091F803C0BCF1480F05D14FF0C0
:100D1000010C0CFA00FCC2F810C0401C0828D1D30A
:100D20001460B1F800C0BCF1FF0F34DD546800203E
:100D30002EE000F1080C4FF0010808FA0CF3B1F8AE
:100D400000C00CEA03069E4221D183004FF00F0C35
:100D50000CFA03F7BC4305FA03FC4CEA040491F8CF
:100D600003C0BCF1280F05D100F1080C08FA0CF8FB
:100D7000C2F8148091F803C0BCF1480F07D100F10C
:100D8000080C4FF0010808FA0CF8C2F81080401C5B
:100D90000828CED35460BDE8F0814FF6FF71018082
:100DA000022181700421C1707047024600209368BF
:100DB0000B400BB1012000E000207047014688681D
:100DC00080B2704702460020D3680B400BB101206F
:100DD00000E0002070470146C86880B2704701619A
:100DE0007047416170470AB1016100E0416170479D
:100DF000C16070474FF480320A4382618161826131
:100E000082698269704702460020434B18684FF69A
:100E10008073184040EA021008433F4B1860704747
:100E20003E49C8617047F0B50A46002300240021FE
:100E3000002500F00046B6F1004F02D1364EF169B0
:100E400001E0354E7168C0F3034583B200F44016EB
:100E5000B6F5401F08D121F070612F4E766826F05C
:100E600070662D4F7E6012E000F48016B6F5801F8C
:100E700006D1032606FA05F4A14341F0706106E0AD
:100E8000460D360103FA06F6B14341F0706122B116
:100E9000460D360103FA06F6314300F00046B6F17E
:100EA000004F02D11C4EF16101E01B4E7160F0BD9C
:100EB00030B500228B071C0F0F2303FA04F2164BE8
:100EC00008338C1053F824309343134C08348D109E
:100ED00044F8253023468C1053F824308C07240F17
:100EE00000FA04F423430C4C08348D1044F82530E8
:100EF00030BD0A49DC31086070470000000801403D
:100F0000000C014000100140001401400018014095
:100F1000001C014000200140000001400000204270
:100F200010B50121080700F0F6F900214FF08050BC
:100F300000F0F1F910BD2A4908627047284908619C
:100F4000704701460020274A106820F0E00008435F
:100F5000106070472249A0310860704710B5024602
:100F60000020204B186820F00300104318601E4B2F
:100F70001B6843F004031C4C2360012901D130BFDE
:100F800000E020BF184B1B6823F00403164C2360BD
:100F900010BD1448006840F004001249086008467B
:100FA000006840F0020008600F48006840F004004C
:100FB0000D49086000BF00BF30BF704701460020E8
:100FC000084A52680A400AB1012000E00020704738
:100FD0000449096841EA8001024A11607047000033
:100FE00000000E420070004010ED00E0DF48006895
:100FF00040F00100DD49086008464068DC490840CF
:10100000DA49486008460068DA490840D74908606C
:101010000846006820F4802008600846406820F4F4
:10102000FE0048604FF41F0088607047CF49096890
:1010300021F48031CD4A11601146096821F48021E4
:101040001160B0F5803F03D0B0F5802F0ED106E0DF
:10105000C649096841F48031C44A116007E0C349B8
:10106000096841F4A021C14A116000E000BF00BF3F
:10107000704710B501460022002300204A11012AC2
:1010800002D1BA4C236806E0022A02D1B74C236A87
:1010900001E0B64C636A01F01F02012494401C4039
:1010A0000CB1012000E0002010BD38B500200090F8
:1010B0000024002500BF3120FFF7DBFF0546009824
:1010C000401C00900098B0F5A06F01D0002DF2D028
:1010D0003120FFF7CEFF08B1012400E000242046B4
:1010E00038BD01460020A14A106820F0F80040EA0F
:1010F000C10010607047A049086070470246002098
:101100009A4B586820F47C1042EA01031843974B2D
:101110005860704798490866704701460020934A16
:10112000506820F003000843506070478F484068C3
:1011300000F00C007047014600208C4A506820F0F7
:10114000F00008435060704701460020874A50680D
:1011500020F4E06008435060704701460020834A55
:10116000506820F4605040EAC1005060704729B1D7
:101170007E4A527A02437D4B5A7204E07B4A527A8D
:1011800082437A4B5A7270477B49D8310860704766
:1011900001460020754A506820F4404008435060E2
:1011A00070470021714A20321170704A82F8201075
:1011B000012802D004280AD104E001216B4A203220
:1011C000117005E00521694A2032117000E000BF6E
:1011D00000BF70476949086070476449096A014364
:1011E000624A11627047654944390860704730B5FA
:1011F00000210022002400235C4D6D6805F00C01E5
:1012000021B1042905D0082923D105E05C4D0560F2
:1012100022E05B4D05601FE0544D6D6805F47012CF
:10122000524D6D6805F48034022505EB92421CB9DD
:10123000544D554305600BE04C4D6D6805F4003589
:101240001DB1504D5543056002E04D4D55430560BD
:1012500002E04B4D056000BF00BF444D6D6805F0D6
:10126000F0010909484D6B5C0568DD4045603F4D64
:101270006D6805F4E061090A434D6B5C4568DD402B
:1012800085603A4D6D6805F46051C90A3E4D6B5C4E
:101290004568DD40C560354D6D6805F44041890BFA
:1012A0003A4D6B5CC568B5FBF3F5056130BD29B1FE
:1012B0002E4A526902432D4B5A6104E02B4A52696F
:1012C00082432A4B5A61704729B1284A92690243E6
:1012D000264B9A6104E0254A92698243234B9A6126
:1012E000704729B1214AD2690243204BDA6104E0F8
:1012F0001E4AD26982431D4BDA61704729B11B4AED
:10130000D2680243194BDA6004E0184AD26882437B
:10131000164BDA60704729B1144A12690243134B25
:101320001A6104E0114A12698243104B1A61704736
:1013300012494039086070470F49C86470470B492B
:10134000C87170470948406A40F080700749486298
:10135000704701460020054A92680A400AB1012000
:1013600000E0002070470149887270470010024079
:101370000000FFF8FFFFF6FE0000424280044242F8
:1013800000127A0000093D00540000206400002093
:1013900010B50446FE48844208D10121C014FFF76D
:1013A000ADFF0021E014FFF7A9FFC4E0B4F1804FC6
:1013B00008D101210846FFF7AEFF00210120FFF709
:1013C000AAFFB8E0F348844208D101210220FFF7C8
:1013D000A2FF00210220FFF79EFFACE0EE4884420E
:1013E00008D101210420FFF796FF00210420FFF718
:1013F00092FFA0E0E948844208D101210820FFF7CC
:101400008AFF00210820FFF786FF94E0E448844229
:1014100008D101211020FFF77EFF00211020FFF7E7
:101420007AFF88E0DF48844208D101212020FFF7BD
:1014300072FF00212020FFF76EFF7CE0DA48844233
:1014400008D101214014FFF759FF00216014FFF774
:1014500055FF70E0D548844209D10121C804FFF747
:101460004DFF00214FF40020FFF748FF63E0D04814
:10147000844209D101210805FFF740FF00214FF404
:101480008010FFF73BFF56E0CA48844209D1012192
:101490004805FFF733FF00214FF40010FFF72EFF40
:1014A00049E0C548844208D101214020FFF733FFBD
:1014B00000214020FFF72FFF3DE0C048844208D1C3
:1014C00001218020FFF727FF00218020FFF723FF65
:1014D00031E0BB48844208D101218015FFF71BFF92
:1014E0000021A015FFF717FF25E0B648844209D177
:1014F00001210804FFF702FF00214FF48030FFF7BD
:10150000FDFE18E0B048844209D101214804FFF7EC
:10151000F5FE00214FF40030FFF7F0FE0BE0AB4882
:10152000844208D101218804FFF7E8FE00214FF42E
:101530008020FFF7E3FE10BD00220288944B984202
:101540000ED0994B98420BD0B0F1804F08D0914B00
:10155000984205D0904B984202D0904B984204D1CB
:101560004FF68F731A404B881A438D4B984207D021
:101570008C4B984204D04FF6FF431A40CB881A4355
:1015800002808B8883850B880385814B98420BD022
:10159000854B984208D08B4B984205D08A4B984295
:1015A00002D08A4B984201D10B7A038601238382B1
:1015B000704770B5002400220023058C4FF6FE769C
:1015C00035400584028C8388048B4FF68F752C4040
:1015D000B51E2C400D882C43751E2A400D892A43C8
:1015E0004D882A436A4DA8420BD06F4DA84208D0BF
:1015F000744DA84205D0744DA84202D0734DA84244
:1016000013D14FF6F7752A404D892A434FF6FB75E3
:101610002A408D882A434FF6FF652B404FF6FF5531
:101620002B408D892B43CD892B4383800483CD8828
:101630008586028470BD70B5002400220023058CCD
:101640004FF6EF7635400584028C8388048B48F68C
:10165000FF752C404FF6FF452C400D884FF6FF7666
:1016600006EA05252C434FF6DF752A400D8906EA68
:1016700005152A434D8806EA05152A43444DA8421C
:1016800002D0494DA8421DD14FF67F752A404D89A1
:101690004FF6FF7606EA05152A434FF6BF752A4036
:1016A0008D8806EA05152A434FF6FF352B404FF289
:1016B000FF752B408D8906EA85052B43CD8906EA07
:1016C00085052B4383800483CD880587028470BD04
:1016D00070B5002400220023058C4FF6FF663540CC
:1016E0000584028C8388848B4FF68F752C404FF6CF
:1016F000FC752C400D882C434FF6FF552A400D8970
:101700004FF6FF7606EA05252A434D8806EA0525A9
:101710002A431F4DA84202D0234DA8421DD14FF2AB
:10172000FF752A404D894FF6FF7606EA05252A43C4
:101730004FF6FF352A408D8806EA05252A434EF6E6
:10174000FF752B404DF6FF752B408D8906EA051578
:101750002B43CD8906EA05152B4383808483CD88EE
:101760008587028470BD70B5002200230024058C9B
:101770004EF6FF7635400584038C8488828B48F6CC
:10178000FF752A404FF6FF452A400D8820E00000F3
:10179000002C01400004004000080040000C004004
:1017A000001000400014004000340140004C014093
:1017B000005001400054014000180040001C00404F
:1017C000002000400040014000440140004801402A
:1017D0004FF6FF7606EA05252A434DF6FF752B40A6
:1017E0000D8906EA05352B434D8806EA05352B435E
:1017F000FA4DA84202D0FA4DA84208D14BF6FF7527
:101800002C408D894FF6FF7606EA85152C4384809F
:101810008283CD88A0F84050038470BD828B4FF244
:10182000FF331A408283828B4FF6FF7303EA012352
:101830001A4382837047F0B50C46154600220021FA
:101840000026078C4EF6FF7C07EA0C070784828B84
:10185000018C4FF6FF7707EA043640F6FF473A401F
:101860004FF6FF7707EA05273A434FF6FF7707EA77
:1018700003373A43D94FB8420ED0D94FB8420BD0B4
:10188000B0F1804F08D0D74FB84205D0D64FB842FC
:1018900002D0D64FB84206D14DF6FF77394046F414
:1018A0008057394305E047F6FF57394044F48057E5
:1018B000394382830184F0BD828B4FF6F3731A4063
:1018C0008283828B0A4382837047F0B50C461546AB
:1018D000002200210026078C4FF6FF6C07EA0C0758
:1018E0000784828B018C4FF6FF7707EA04264FF6B8
:1018F0000C773A404FF6FF7707EA03172F433A4336
:10190000B64FB8420ED0B64FB8420BD0B0F1804FB0
:1019100008D0B44FB84205D0B34FB84202D0B34F4D
:10192000B84206D14FF6FF57394046F48077394325
:1019300005E04FF2FF57394044F480773943828302
:101940000184F0BD028B4FF2FF331A400283028BF9
:101950004FF6FF7303EA01231A4302837047F0B581
:101960000C461546002200210026078C4FF6EF7C1E
:1019700007EA0C070784028B018C4FF6FF7707EA12
:10198000041640F6FF473A404FF6FF7707EA033761
:101990003A434FF6FF7707EA05273A438F4FB8429D
:1019A0000ED08F4FB8420BD0B0F1804F08D08D4F82
:1019B000B84205D08C4FB84202D08C4FB84206D105
:1019C0004FF6DF77394046F01007394305E04FF610
:1019D0005F77394044F01007394302830184F0BD3A
:1019E000028B4FF6F3731A400283028B0A43028381
:1019F0007047F0B50C46154600220021068C4FF6C4
:101A0000FE773E400684028B018C4FF60C76324006
:101A10007E1C06EA03162E433243704EB0420ED0AF
:101A20006F4EB0420BD0B0F1804F08D06D4EB04237
:101A300005D06D4EB04202D06C4EB04206D14FF68A
:101A4000FD76314044F00106314305E04FF6F5766E
:101A5000314044F00106314302830184F0BD70B58A
:101A600005460C465D4885420ED05D4885420BD048
:101A7000B5F1804F08D05B48854205D05A48854271
:101A800002D05A48854200D100E000BF208850B9FA
:101A90002389A28861882846FFF7ABFFE1882846A2
:101AA000FFF79EFF25E0208804280AD12389A28819
:101AB00061882846FFF753FFE1882846FFF742FF79
:101AC00017E0208808280AD12389A288618828463F
:101AD000FFF7FBFEE1882846FFF7EEFE09E02389C9
:101AE000A28861882846FFF7A6FEE1882846FFF70E
:101AF00095FE70BD2DE9F04105460C4600260127F4
:101B0000608808B9022600E00026A088012801D1DB
:101B1000022700E001272088A0B92389A2886188D4
:101B20002846FFF766FFE1882846FFF759FF23891B
:101B30003A4631462846FFF712FFE1882846FFF76C
:101B400001FF13E02389A28861882846FFF707FF79
:101B5000E1882846FFF7F6FE23893A4631462846B3
:101B6000FFF747FFE1882846FFF73AFFBDE8F0811D
:101B70000A884B881A438B881A43CB881A430B89EF
:101B80001A434B891A438B891A43A0F844207047A3
:101B90004FF6FF71818000210180C1804180017278
:101BA00070470021018041808180C1800181418195
:101BB0008181C181704700210180418001218180A4
:101BC0000021C18001817047002101804180818016
:101BD000C18001814181818170470000002C01405A
:101BE000003401400004004000080040000C0040A8
:101BF00021B1028842F00102028004E002884FF61F
:101C0000FE731A400280704731B1B0F8442042F4AC
:101C10000042A0F8442005E0B0F84420C2F30E02D0
:101C2000A0F8442070471AB183890B43838102E0F6
:101C300083898B43838170478182704741EA020325
:101C4000A0F8483070471AB183890B43838102E0C2
:101C500083898B438381704701894FF6F872114065
:101C6000018170470A46002101894FF68F731940A0
:101C700011430181704730B504460D462946204680
:101C8000FFF7F0FF208940F00700208130BD2DE9EB
:101C9000F04104460D4616461F46602D06D13B46D0
:101CA000012231462046FFF75AFE05E03B4601225D
:101CB00031462046FFF79DFE29462046FFF7D2FF1A
:101CC000208940F007002081BDE8F08130B50C4646
:101CD00000210189C9B24FF6FF7505EA03251543B6
:101CE00025432943018130BD2DE9F04105460E46CB
:101CF00017469846002443463A4631462846FFF7A1
:101D0000E5FF2C894FF6F870044044F007044FF6C5
:101D10008F70044044F070042C81BDE8F081F0B570
:101D200004460D4616461F463B4632462946204687
:101D3000FFF7CCFF208940F480402081F0BD018571
:101D4000828270470A46002101884FF68F7319403E
:101D5000114301807047F0B50C4615461E46002120
:101D6000002200230189028B038C4FF6F87739405B
:101D700021434FF6FC473A4040F201173A434FF6F1
:101D8000DD773B404FF6FF7707EA06172F433B43CB
:101D9000018102830384F0BD0A460021018B4FF6C6
:101DA0008F7319401143018370470A460021018B4C
:101DB00048F6FF7319404FF6FF7303EA02231943F5
:101DC000018370470A460021818B4FF68F731940BB
:101DD0001143818370470A460021818B48F6FF73C7
:101DE00019404FF6FF7303EA0223194381837047BA
:101DF00021B1028842F08002028004E002884FF69E
:101E00007F731A400280704721B1828842F0040239
:101E1000828004E082884FF6FB731A40828070470C
:101E200021B1828842F00802828004E082884FF665
:101E3000F7731A408280704721B1828842F0010214
:101E4000828004E082884FF6FE731A4082807047D9
:101E50000A460021018B4FF6F773194011430183A5
:101E600070470A460021018B4FF2FF7319404FF66D
:101E7000FF7303EA02231943018370470A460021D6
:101E8000818B4FF6F77319401143818370470A46DF
:101E90000021818B4FF2FF7319404FF6FF7303EA65
:101EA00002231943818370470A460021018B4FF6B4
:101EB000FB7319401143018370470A460021018BCF
:101EC0004FF6FF3319404FF6FF7303EA022319431D
:101ED000018370470A460021818B4FF6FB7319403E
:101EE0001143818370470A460021818B4FF6FF33EF
:101EF00019404FF6FF7303EA0223194381837047A9
:101F00000A460021018B4FF67F731940114301836C
:101F100070470A460021018BC1F30E014FF6FF7393
:101F200003EA02231943018370470A460021818B8B
:101F30004FF67F7319401143818370470A46002191
:101F4000818BC1F30E014FF6FF7303EA022319439D
:101F5000818370470A460021018C4FF6FD731940BA
:101F60001143018470470A460021018C4FF6F77334
:101F700019401143018470470A460021018C4FF635
:101F8000DF7319404FF6FF7303EA0213194301840C
:101F900070470A460021018C4FF67F7319404FF6B7
:101FA000FF7303EA02131943018470470A460021B4
:101FB000018C4FF6FF5319404FF6FF7303EA0223DB
:101FC0001943018470470A460021018C4FF2FF73C8
:101FD00019404FF6FF7303EA022319430184704747
:101FE0000A460021018C4DF6FF7319404FF6FF732E
:101FF00003EA023319430184704730B500230124FA
:102000008C40A3B2048C9C430484048C02FA01F536
:10201000ADB22C43048430BD30B5002304248C4081
:10202000A3B2048C9C430484048C02FA01F5ADB283
:102030002C43048430BD70B50346002000241846AC
:10204000183001258D40ACB21D8CA5431D8409B10B
:10205000082909D100EB6100056825F070050560CD
:102060000568154305600EE00D1FC5F34E052844B5
:10207000056825F4E045056005684FF6FF7606EA39
:1020800002263543056070BD21B1028842F002028C
:10209000028004E002884FF6FD731A400280704708
:1020A00021B1028842F00402028004E002884FF667
:1020B000FB731A400280704721B1828842F080028F
:1020C000828004E082884FF67F731A4082807047D6
:1020D00002884FF6F7731A40028002880A43028092
:1020E000704782884FF68F731A40828082880A4335
:1020F0008280704702894FF6F8731A400281028984
:102100000A430281704702894FF67F731A400281A9
:1021100002890A4302817047818470478185704734
:10212000818670470187704781877047A0F840100B
:10213000704702884FF6FF431A40028002880A4324
:10214000028070470146888E70470146088F7047AD
:102150000146888F70470146B1F84000704701463C
:10216000888C70470146088D704702460020138A0C
:102170000B400BB1012000E000207047CA430282EF
:10218000704730B50246002000230024158A05EA76
:102190000103958905EA010413B10CB1012000E0A7
:1021A000002030BDCA4302827047000010B50446CB
:1021B000FB48844209D101218803FFF79FF80021E1
:1021C0004FF48040FFF79AF832E0F648844209D194
:1021D00001214804FFF79FF800214FF40030FFF77A
:1021E0009AF825E0F048844209D101218804FFF7DC
:1021F00092F800214FF48020FFF78DF818E0EB48AB
:10220000844209D10121C804FFF785F800214FF469
:102210000020FFF780F80BE0E548844208D1012157
:102220000805FFF778F800214FF48010FFF773F8E6
:1022300010BD2DE9F04786B005460E460024A246A3
:1022400000BFA1460027B08900B100BF2F462C8AED
:102250004CF6FF700440F08804432C82AC894EF6A3
:10226000F3100440B088318908437189084304435E
:10227000AC81AC8A4FF6FF400440B0890443AC8285
:1022800001A8FEF7B4FFC648874202D1DDF810A0CE
:1022900001E0DDF80CA0A88900F4004040B10AEB91
:1022A000CA0000EB0A1031684900B0FBF1F807E002
:1022B0000AEBCA0000EB0A1031688900B0FBF1F8A4
:1022C0006420B8FBF0F004012009642101FB1089AF
:1022D000A88900F4004040B1322000EBC900B0FBF7
:1022E000F1F000F00700044308E0322000EB091091
:1022F0006421B0FBF1F000F00F0004432C8106B024
:10230000BDE8F0874FF41651016000218180C18043
:1023100001810C21418100218181704710B5024665
:102320000020108A4FF2FF0318400B884C8823438B
:102330008C882343CC8823431843108210BD00218E
:10234000018041808180C180704721B1828942F43F
:102350000052828104E082894DF6FF731A40828127
:102360007047F0B50346002400260025002040F603
:102370006A17B94200D100BF1846C1F3421401F0F8
:102380001F06012707FA06F5012C01D10C3004E0E5
:10239000022C01D1103000E014301AB107682F432D
:1023A000076002E00768AF430760F0BD1AB1838A97
:1023B0000B43838202E0838A8B4383827047028AC5
:1023C0004FF6F0731A400282028A0A430282704773
:1023D00082894FF2FF731A40828182890A43828187
:1023E000704721B1828942F00202828104E0828931
:1023F0004FF6FD731A4082817047028A4FF6DF73F1
:102400001A400282028A0A430282704721B1028A7C
:1024100042F48042028204E0028A4BF6FF731A40C3
:1024200002827047C1F308028280704701468888A3
:10243000C0F308007047818941F001018181704734
:10244000028BD2B20283028B42EA012202837047DE
:10245000028B02F47F420283028B0A43028370479D
:1024600021B1828A42F02002828204E0828A4FF601
:10247000DF731A408282704721B1828A42F01002D3
:10248000828204E0828A4FF6EF731A40828270479C
:1024900021B1828A42F00802828204E0828A4FF6E9
:1024A000F7731A408282704721B1828942F4004258
:1024B000828103E08289C2F30E028281704721B1DA
:1024C000828A42F40062828204E0828A4FF2FF73C1
:1024D0001A4082827047828A4FF6FB731A408282CA
:1024E000828A0A438282704721B1828A42F00202C4
:1024F000828204E0828A4FF6FD731A40828270471E
:1025000002460020B1F5007F00D100BF13880B40C8
:102510000BB1012000E00020704701F40072B2F519
:10252000007F00D100BFCA430280704770B50246E9
:10253000002400230025002040F66A16B14200D195
:1025400000BFC1F3421501F01F03012606FA03F391
:10255000012D02D19689334006E0022D02D1168A60
:10256000334001E0968A33400C12012606FA04F447
:102570001688344013B10CB1012000E0002070BD7A
:1025800010B50022002340F66A14A14200D100BF1A
:102590000A1201249440A3B2DC43048010BD000061
:1025A000003801400044004000480040004C00401A
:1025B0000050004010B56FF00400FDF7CCFF2E482E
:1025C00000682E49B0FBF1F02D49087008460078EC
:1025D00000EB4001C1EBC0104FF6FF7101EAC000F3
:1025E0002849088010BD0146254A12784A434FF019
:1025F000E0235A6100229A611A46126942F00102F0
:102600001A6100BF4FF0E022106900F001021AB118
:1026100000F48032002AF5D04FF0E022126922F057
:1026200001024FF0E0231A6100229A6170470146CF
:10263000144A12884A434FF0E0235A6100229A61FB
:102640001A46126942F001021A6100BF4FF0E022FF
:10265000106900F001021AB100F48032002AF5D0AE
:102660004FF0E022126922F001024FF0E0231A61DC
:1026700000229A61704700000000002000127A00DA
:10268000680000206A000020A34A0A400243A34BCE
:102690001A6070470146072323EA010212029F4B8A
:1026A0001B1D18684FF6FF0318409D4B184310433D
:1026B0009A4B1B1D186070472DE9F041074688466C
:1026C00014461D462846FFF7E5FFC5F1040007FA4A
:1026D00000F60F20284100EA0800064306F00F0626
:1026E000E21704EBD2625211920002F1E022D2F81A
:1026F00000212146E31704EBD3635B11A4EB431CD9
:10270000012303FA0CF31A432046E31704EBD363C7
:102710005B119B0003F1E023C3F800218148005DB9
:1027200040EA06107F490855BDE8F08170B50446BF
:102730000B46CE1701EB9676C6F38700CE1701EB5A
:102740009676B610A1EB8606B606350E764B9B69DB
:1027500043F00103744EB3614FEAB63353F82030AF
:102760000F26AE40B343714E46F82030334653F83F
:10277000203004FA05F61E436C4B43F820606C4B86
:102780001B6801268E403343694E336002F001031B
:1027900043B1674B0C331B6801268E403343644EB4
:1027A0000C36336002F0020343B1614B08331E68FC
:1027B00001238B401E435E4B08331E6070BD00B585
:1027C000002059490861C8601420486100208861D0
:1027D000C8610846006840F001000860084640688B
:1027E000544908405049486008460068524908402A
:1027F0004D4908600846006820F4802008600846BB
:10280000406820F4FE0048600020886000214FF0FE
:102810000060FFF739FF00BD10B540480830006880
:1028200040F004003D49083108603F48C06940F06D
:1028300080503D49C8614148406840F480703F493C
:1028400048600846006840F00400086008460068D8
:1028500040F002000860FDF7BBFC10BD3048001DD1
:102860002E49091D08607047014649062E4A9269A3
:1028700042F001022C4B9A612C4A083A526822F02D
:10288000E0622A4B083B5A601A4652680A435A6073
:10289000704730B504460025FFF791FF22480068D5
:1028A00040F480302049086000BF1F480068400C99
:1028B0000028FAD04FF480601B494860A01EC4B2C3
:1028C0000846406840EA844048600846406840F452
:1028D000803048601A48006840F0320018490860AB
:1028E0001148006840F080700F49086000BF0E4832
:1028F0000068400E0028FAD00B48406840F0020003
:102900000949486005E008484068C0F3870505F0BC
:102910000305022DF7D130BD80FFFF1F08ED00E059
:102920000000FA0500E400E0001002400800014049
:10293000000401400000FFF8FFFFF6FE00700040B9
:1029400000200240014600BF70472C4A12785AB955
:1029500000BF2B4A128802F04002002AF9D0C2B20E
:10296000274B1B1D1A800AE000BF264A128802F07E
:102970004002002AF9D0C2B2224B1B1D1A807047B8
:1029800010B586B00446012144F20400FEF79CFC19
:102990004FF40070ADF8140003208DF816001820D5
:1029A0008DF8170005A91848FEF76CF94FF4806000
:1029B000ADF8140004208DF8170005A91248FEF7A1
:1029C00061F901940020ADF80800ADF80A00ADF8F7
:1029D0000C00ADF810000C20ADF80E0001A909485C
:1029E000FFF727FC002240F225510648FFF7B9FC0B
:1029F00001210448FFF7A9FC06B010BD1B00002010
:102A000000480040003801400008014008B501219D
:102A10000420FEF759FC1020ADF800008DF80300EB
:102A200003208DF8020069460C48FEF72BF908BD1B
:102A300018B900210A4A11600FE00A490968491CC7
:102A4000084A1160814208D105490968C943064A0C
:102A5000C2F890110021034A11607047000801403C
:102A600090012142700000200000214208B50121A0
:102A70000420FEF729FC2020ADF8000048208DF846
:102A8000030069464B48FEF7FDF808BD01464A4879
:102A9000006828B949480088401C484A108002E074
:102AA0000020464A10804448006828B9444800780D
:102AB00010B90120424A107042480078B0B940482D
:102AC0000078012807D140480078401C3E4A107029
:102AD00001203C4A10703C480078022806D10020B2
:102AE000394A1070394A1080022070473248006815
:102AF000012804D10020324A1070324A1070324846
:102B0000007801281CD131480088401C2F4A1080D1
:102B10001046008888420ADD28480088884206DA84
:102B20000020294A1070294A10800120DDE723483F
:102B30000088884204DD0020234A1070234A108058
:102B40000020D2E72248007838B11B48006820B93D
:102B500000201F49087001207047174800680128AD
:102B600001D11B4908700020F6E71A48008840B9D7
:102B70001148006828B918480088401C1649088088
:102B800002E000201449088013480088C82807DDA7
:102B900001201049088000200F490880012070475B
:102BA0000C480088012802D100200A490880002032
:102BB000F5E7000000080140140121427A000020DE
:102BC00074000020750000207600002078000020AE
:102BD0007C000020800000207E00002010B50A4606
:102BE0001AB10123FE4C236002E00023FC4C236059
:102BF000002114E00023FB4C236000F080031BB194
:102C00000123241F236003E00023F64C241F2360CC
:102C10000123F44C23604306180E4B1CD9B208293B
:102C2000E8DB0123EE4C236010BD30B500241CE02E
:102C300004F1B001C8B20021FFF7D0FF002108461F
:102C4000FFF7CCFF00211020FFF7C8FF002508E0A8
:102C5000E54901EBC501085D0121FFF7BFFF681CD5
:102C6000C5B2802DF4DB601CC4B2082CE0DB30BDA3
:102C700000B500218D20FFF7B1FF00211420FFF7E0
:102C8000ADFF0021AF20FFF7A9FF00BD00B5002177
:102C90008D20FFF7A3FF00211020FFF79FFF0021E9
:102CA000AE20FFF79BFF00BD30B500240CE00025EF
:102CB00006E00020CC4901EBC5010855681CC5B2EF
:102CC000802DF6DB601CC4B2082CF0DBFFF7ADFFF3
:102CD00030BDF0B5144600267F2801DC3F2900DD19
:102CE000F0BD0B46CF1701EB5777FF10C7F1070771
:102CF000FAB2CF1701EB5777FF10A1EBC707FDB270
:102D0000C5F107070123BB40DEB24CB1B64B03EB64
:102D1000C0039B5C3343B44F07EBC007BB5408E0D0
:102D2000B14B03EBC0039B5CB343AF4F07EBC00752
:102D3000BB5400BFD4E72DE9F04F80460C46154642
:102D40001E46A346A5F12000C5B200273EE00C2E8A
:102D500007D105EB4500A54901EB800010F807906D
:102D600004E0A34800EB051010F807904FF0000AAC
:102D700026E009F0800028B121464046099AFFF775
:102D8000A8FF09E0099808B9012000E000200246E8
:102D900021464046FFF79DFF4FEA49604FEA106920
:102DA000601CC4B2A4EB0B00B04205D15C4608F134
:102DB000010000F0FF0806E00AF1010000F0FF0A40
:102DC000BAF1080FD5DB00BF781CC7B2B742BEDB33
:102DD000BDE8F08F10B50246012000E050430B1E05
:102DE000A1F10104E1B2F9D110BD2DE9FF4F81B08D
:102DF000074691461E460E9D4FF0000A002439E01A
:102E0000301B401EC1B20A20FFF7E4FFB9FBF0F00F
:102E10000A21B0FBF1F201FB1208BAF1000F16D142
:102E2000701EA04213DDB8F1000F0ED10120AB4699
:102E300005EBDB71491001FB04710090C8B22B4611
:102E400020220299FFF777FF12E04FF0010A0120DC
:102E5000AB4605EBDB71491001FB04710090C8B271
:102E600008F13001CAB22B460299FFF764FF00BF98
:102E7000601CC4B2B442C3DB05B0BDE8F08F78B5C6
:102E800005460E46144618E07A2D03DD002506F1AE
:102E90001000C6B23A2E04DD002005460646FFF7B4
:102EA00003FF0120009022780C2331462846FFF7CB
:102EB00042FF05F10800C5B2641C20780028E3D168
:102EC00078BD08B501210820FEF7FEF93820ADF8DD
:102ED000000010208DF8030002208DF802006946E2
:102EE0004448FDF7CFFE01210420FEF7EDF94FF431
:102EF0000040ADF8000002208DF8020010208DF88F
:102F0000030069463C48FDF7BDFE0120FEF713F8BB
:102F10000020FEF746F90020FDF76FFD0020FEF7C8
:102F20000AF800202F49083908606420FFF77FFB6A
:102F300001203249C1F88C010021AE20FFF74EFE7E
:102F40000021D520FFF74AFE00215020FFF746FE62
:102F50000021A820FFF742FE00213F20FFF73EFEA0
:102F60000021D320FFF73AFE00210846FFF736FE86
:102F700000214020FFF732FE00218D20FFF72EFEBA
:102F800000211420FFF72AFE00212020FFF726FE53
:102F900000210220FFF722FE0021A120FFF71EFEE4
:102FA0000021C020FFF71AFE0021DA20FFF716FEED
:102FB00000211220FFF712FE00218120FFF70EFEF4
:102FC0000021EF20FFF70AFE0021D920FFF706FEBF
:102FD0000021F120FFF702FE0021DB2010E00000BD
:102FE000BC012142948121429C0100204EA3000893
:102FF000C2A70008000C01400008014000802142E7
:10300000FFF7ECFD00213020FFF7E8FD0021A420B0
:10301000FFF7E4FD0021A620FFF7E0FD0021AF202F
:10302000FFF7DCFDFFF740FE08BD000000B587B0EC
:1030300001214FF40170FEF747F94FF40040FEF70D
:10304000A7F84020ADF8040000208DF8070001A982
:103050003648FDF717FE3648FDF79CFA002002902F
:103060008DF80C008DF80D004FF4602004900020C6
:10307000059001208DF8180002A92D48FDF7B1FA3E
:1030800001212B48FDF7D9FA2948FDF7F8FA00BFCE
:103090002748FDF7F9FA0028FAD12548FDF7FEFA8E
:1030A00000BF2348FDF7FFFA0028FAD107B000BDA2
:1030B00010B504460723012221461D48FDF729FBD0
:1030C00001211B48FDF7F9FA00BF02211848FDF75E
:1030D00065FC0028F9D01648FDF782FB10BD2DE9EC
:1030E000F04F85B00620FFF7E3FF019006F0E4F90A
:1030F0004FF066320F4BCDE9020106F02DFA804603
:1031000000220D4B06F028FA064600220B4B06F073
:1031100023FA044600220A4B06F030F8824606F0F5
:1031200085F90490049805B0BDE8F08F00080140CF
:103130000024014066660A40000026400000594015
:103140000000B04030B585B005460C460121022094
:10315000FEF7C7F801210820FEF7B6F80120ADF808
:10316000100028208DF8130004A96848FDF78AFD97
:103170000220ADF8100010208DF8130002208DF809
:10318000120004A96148FDF77DFDADF80850ADF8C7
:1031900004400020ADF80A00ADF8060001A95C4823
:1031A000FEF7CAF908205B4908800020488001200A
:1031B00088800020C88008815548FEF750FC1D20FB
:1031C0008DF8000002208DF8010000208DF802002B
:1031D00001208DF803006846FDF773F901220921EB
:1031E0004B48FEF720FD01214948FEF701FD05B0DF
:1031F00030BD10B50120484908600F20FFF7F3F9F2
:1032000000204649C1F884014548007800F080005C
:10321000E8B14348007800F03F00424908600846A2
:10322000008800040860084600683F49098808448F
:103230003C49086008460068AA2148434FF47A7167
:10324000B0FBF1F03749086000203549088010BD17
:103250002F49103108883249097801F0800100298E
:103260004ED100F00101D1B12D49097801F04001A2
:10327000A9B12B49097801F03F013F290AD128491A
:10328000098841F08001264A11804FF6FF71264AD5
:10329000118004E022490988491C214A118000F06C
:1032A000080169B31E49097801F0400199B11C4930
:1032B000098841F080011A4A118015493C3109887A
:1032C000194A118012492031098821F40071104AED
:1032D0002032118014E00021114A1180124A11801D
:1032E0000F49098841F040010D4A11800021084A28
:1032F00024321180111F098841F40071121F1180BE
:103300000021034A1032118070470000000C014078
:10331000000400409C05002084812142008021425D
:1033200082000020480000208400002008B5012110
:103330000820FDF7C9FF4FF47040ADF800001020E1
:103340008DF8030003208DF8020069462A48FDF736
:1033500099FC08BD30B589B005460C46FFF7E6FF7D
:103360000121C802FDF7B0FF01210420FDF7ACFFE9
:103370004FF41060ADF8200018208DF823000320D2
:103380008DF8220008A91D48FDF77CFCADF8185007
:10339000ADF814400020ADF81A00ADF8160005A9EC
:1033A0001748FEF7C9F86020ADF804000120ADF819
:1033B00006000020ADF80A00ADF80C0001A9104885
:1033C000FEF7F7F801A90E48FEF7CDF901210C48E8
:1033D000FEF71AFC08210A48FEF73AFD08210848C2
:1033E000FEF755FD01210648FEF702FD01210448C4
:1033F000FEF7FEFB09B030BD000C014000080140A3
:10340000002C014000B587B001210846FDF769FF97
:1034100001210420FDF758FF0320ADF8000004202F
:103420008DF8030069466148FDF72CFC04A8FEF7FF
:10343000AFFB0020ADF810004FF6FF70ADF81400A0
:103440000020ADF81600ADF8120004A94FF080403E
:10345000FEF772F800231A4603214FF08040FEF772
:103460007AFC01A8FEF7A7FB0A20ADF80C0001A921
:103470004007FEF7F4FA01218807FEF77FFE0122DC
:1034800011469007FEF7CFFB00214FF08040FEF77A
:1034900043FE01218807FEF7ABFB07B000BD00B576
:1034A00087B001210420FDF71CFF01210820FDF752
:1034B0000BFFC020ADF8000004208DF80300694622
:1034C0003B48FDF7DFFB04A8FEF762FB0020ADF8E8
:1034D00010004FF6FF70ADF814000020ADF8160094
:1034E000ADF8120004A93348FEF726F800231A4667
:1034F00003213048FEF72FFC01A8FEF75CFB0A20F1
:10350000ADF80C0001A92B48FEF7A9FA01212948C2
:10351000FEF734FE012211462648FEF784FB002107
:103520002448FEF7F9FD01212248FEF761FB07B0B0
:1035300000BD0146022904D003290BD0042919D16A
:103540000FE04FF08042928C10B200224FF0804387
:103550009A8411E0184A128810B20022164B1A8081
:103560000AE0144A2432128810B20022114B24338C
:103570001A8001E0002000BF00BF70470D481030E6
:1035800000880C481030008820F0010009491031F3
:10359000088070474FF08040008A4FF08040008ADA
:1035A00020F001004FF08041088270470008014080
:1035B000000C0140000800402404004008B501212F
:1035C0000820FDF781FE4FF44070ADF80000102098
:1035D0008DF8030003208DF802006946F748FDF7D7
:1035E00051FB08BD10B5F548001D006820F0F00043
:1035F000F249091D08600846006840F03000086084
:103600000120EF490860EF48D0F8240108B90020F4
:1036100010BD0120EA49091F0860FEF7E4FF002001
:10362000E849C1F8A401E6488038006808B10020E4
:10363000EEE70120FEF7D7FF0020E149091F0860EF
:103640000120E5E710B5DD48001D006820F0F0001E
:10365000DA49091D08600846006840F0300008603B
:103660000020D749091F0860D649C1F8A4010120EC
:10367000FEF7B9FF0120D249091F0860D149C1F8FE
:10368000A401FEF7B0FF10BD10B50024CB48001D0B
:10369000006820F0F000C949091D0860084600686C
:1036A00040F0800008600120C5490860FEF79BFFDC
:1036B0000120C449C1F8A001FEF795FF0AE0601C93
:1036C000C4B2322C03DDFFF7BDFF002010BD012086
:1036D000FEF789FFBA48803800680028EFD1B84962
:1036E000091F08600120F1E710B50020B449091F47
:1036F0000860B248001D006820F0F000AF49091DC5
:1037000008600846006840F0300008600020AD49BD
:10371000C1F8A4010120FEF766FF0120A849091F96
:103720000860FEF760FF0020A649C1F8A00110BDA7
:1037300010B50020A249091F0860A048001D0068BC
:1037400020F0F0009D49091D08600846006840F01F
:103750003000086001209B49C1F8A401FEF743FF37
:1037600001209749091F0860FEF73DFF0020954999
:10377000C1F8A00110BD70B504469048001D006856
:1037800020F0F0008D49091D08600846006840F0EF
:103790003000086000208A49091F0860002516E0F3
:1037A000E009874908606006040E0120FEF71BFF50
:1037B00001208449C1F8A001FEF715FF00208049CF
:1037C000091F08600120FEF70EFF681CC5B2082D16
:1037D000E6DB70BD2DE9F04105460E4617469846DA
:1037E000FFF700FF10B90120BDE8F0816906080E5F
:1037F000FFF7C1FFFFF748FF18B9FFF723FF0120CC
:10380000F2E73046FFF7B7FFFFF73EFF00240BE07B
:1038100018F80400FFF7AFFFFFF736FF18B9FFF7FE
:1038200011FF0020E0E7641CBC42F1DBFFF70AFF58
:103830000020D9E770B5054600246048001D0068E7
:1038400020F0F0005D49091D08600846006840F05E
:1038500080000860002617E000205949091F086011
:103860000220FEF7C0FE01205649C1F8A001600603
:10387000040E53488038006808B1601CC4B20220AE
:10388000FEF7B1FE701CC6B2082EE5DB15B1FFF7DE
:103890002BFF01E0FFF74CFF204670BD2DE9F04102
:1038A00006460F4614461D46FFF79CFE10B9012040
:1038B000BDE8F0817106080EFFF75DFFFFF7E4FE3B
:1038C00018B9FFF7BFFE0120F2E73846FFF753FFB4
:1038D000FFF7DAFEFFF786FE012101EB4601C8B2D1
:1038E000FFF749FFFFF7D0FE0DE0012C04D10020C7
:1038F000FFF7A0FF287003E00120FFF79BFF28706F
:103900006D1C601EC4B2002CEFD1FFF79BFE00209F
:10391000CEE770B505460E460024FFF763FE284645
:10392000FFF729FF641CFFF7AFFE3046FFF723FFC8
:10393000641CFFF7A9FEFFF755FE691CC8B2FFF72C
:103940001AFF641CFFF7A0FE0020FFF773FF044678
:10395000FFF778FE204670BD2DE9F0410746884606
:1039600015461E460024FFF73DFE3846FFF703FFCD
:10397000FFF78AFE4046FFF7FEFEFFF785FEFFF7E2
:1039800031FE791CC8B2FFF7F6FEFFF77DFE00BFDF
:103990000DE0681EA04204D00120FFF74BFF305518
:1039A00003E00020FFF746FF3055601CC4B2AC4274
:1039B000EFDBFFF747FE2046BDE8F081000C014039
:1039C000A4812142008021422DE9F04180460D462C
:1039D00016461F460024FFF705FE4046FFF7CBFEC4
:1039E000FFF752FE2846FFF7C6FEFFF74DFE00BF69
:1039F00006E0385DFFF7BFFEFFF746FE601CC4B26D
:103A0000B442F6DBFFF71EFE0120BDE8F08170B581
:103A100005460E46144631462846FFF77AFF2070C9
:103A2000012070BD37B504460D4602AB0122294680
:103A30002046FFF7C9FF3EBD2DE9F84307468846FB
:103A400014461D46089E6A4641463846FFF7DFFF8A
:103A500028B3601CFF2101FA00F0C4F108012944D9
:103A6000491EFF220A41104300F0FF09C5F108007A
:103A700006FA00F0C6B2C4F1070006419DF8000046
:103A800000EA090000909DF80000304300909DF886
:103A9000002041463846FFF7C5FFBDE8F883002007
:103AA000FBE7F8B506460F4614461D466A463946FA
:103AB0003046FFF7ACFF2DB10120A0409DF800106B
:103AC000084305E00120A0409DF8001021EA000015
:103AD000C0B200909DF8002039463046FFF7A2FFA3
:103AE000F8BD000010B586B0044601210820FDF79E
:103AF000EBFB01218804FDF7F4FB4FF48060ADF887
:103B0000140003208DF8160018208DF8170005A961
:103B1000AE48FDF7B7F84FF40060ADF8140004208C
:103B20008DF8170005A9A948FDF7ACF827208DF8F6
:103B3000000003208DF801008DF8020001208DF8AF
:103B400003006846FCF7BDFC01940020ADF80800B6
:103B5000ADF80A00ADF80C00ADF810000C20ADF87F
:103B60000E0001A99A48FEF764FB012240F225519C
:103B70009748FEF7F6FB01219548FEF7E6FB06B0F5
:103B800010BD10B540F225519148FEF7CFFC00283A
:103B900070D08F48FEF74AFC8E49086008460068DE
:103BA0008D4908608B4800788C4908700846007879
:103BB0008B490978884212D18848407888494978E9
:103BC00088420CD18548807885498978884206D119
:103BD00000208449087081490870487088707F48C7
:103BE000007881490978884213D17C4840787E4921
:103BF000497888420DD1794880787B498978884214
:103C000007D1012077490870002074490870487076
:103C10008870704800680A286DDD6E4800685A2870
:103C200009D1002071490870714908707149087004
:103C3000714908705FE06748006841280AD1012097
:103C40006A49087000206A4908706A4908706A4920
:103C5000087050E05F48006845280CD10020634997
:103C600008700120624908700020624908706249AA
:103C7000087040E052E057480068422807D0554895
:103C80000068432803D05348006844280AD1002024
:103C9000564908705649087056490870012056491F
:103CA000087028E04B480068462807D0494800685B
:103CB000472803D04748006848280BD100204B49CB
:103CC00008704B49087001204A49087000204A4991
:103CD000087010E03F4800682A2803D101204749B6
:103CE000087008E0002041490870414908704149C6
:103CF000087041490870374800680A2865DA0120D1
:103D00003F4908703348006848B9002037490870B7
:103D100037490870374908703749087055E02D4811
:103D20000068012809D13149087000203049087025
:103D3000304908703049087047E026480068052877
:103D40000BD1002029490870012029490870002062
:103D5000284908702849087037E01E480068022882
:103D600007D01C480068032803D01A4800680428BC
:103D70000AD100201D4908701D4908701D490870AE
:103D800001201D49087020E012480068062807D06D
:103D900010480068072803D00E48006808280BD197
:103DA000002012490870124908700120114908705A
:103DB00000201149087008E000200C4908700C49E7
:103DC00008700C4908700C49087010BD000C0140C7
:103DD000004800409C000020880000208D0000204A
:103DE000980000201A0000209500002015000020F7
:103DF0001600002017000020180000204E000020B0
:103E0000190000201FB501210846FDF75DFA0121C8
:103E10000420FDF759FA4FF48050ADF80C0048200B
:103E20008DF80F0003A91248FCF72CFF0C2100208D
:103E3000FDF73EF84FF48050019000208DF8080007
:103E40000C208DF8090001208DF80A0001A8FCF76C
:103E500039FE28208DF8000002208DF80100012095
:103E60008DF802008DF803006846FCF72AFB1FBDA1
:103E7000000801400146002901DA484200E00846F6
:103E8000704700B503460A46002B07DD0020FE49B7
:103E900008600120FD49C1F8B80106E00120FA4997
:103EA00008600020F949C1F8B8011846FFF7E2FFA1
:103EB000F7490880002A08DD0020F3490839086026
:103EC0000120F249C1F8B00107E00120EE490839AC
:103ED00008600020ED49C1F8B0011046FFF7CAFFA5
:103EE000EB490C31088000BD70B506460D46E94926
:103EF000304606F003F80CD3E749304606F0FEF8EA
:103F000007D3E6480078012803D040F256408542A6
:103F10000EDA01240020DC49091F0860DB49C1F8E2
:103F2000BC01D94908390860D849C1F8B00100E09E
:103F30000024204670BD70B506460C461546D7488D
:103F4000007808B9002070BDD548008870B9D549FF
:103F5000304606F0D3F809D2D349304605F0CEFFFB
:103F600004D21CB915B90120CD490880CC4800887D
:103F700001281DD1CD480088401C80B2CB49088063
:103F8000322803DD00200880C549088014F1030FA2
:103F90000EDA15F1030F0BDA14F13C0F08DD15F101
:103FA0003C0F05DD0020BE49088008800120CAE7DB
:103FB0000020C8E72DE9F04107460E4614461D468D
:103FC000BB480088E0B92046FFF754FF0246284668
:103FD000FFF750FF10441E2805DAB6480088401C41
:103FE000B449088002E00020B2490880B148008846
:103FF0000A2805DD0120AE4908800020AD4908806F
:10400000AB48008801281DD1AB480088401C80B215
:10401000A9490880C82803DD00200880A449088039
:10402000A649384606F06AF80CD2A549304606F093
:1040300065F807D2A349304605F060FF02D202209E
:104040009B4908809A480088022816D19E4800881B
:10405000401C80B29C490880642803DD0020088051
:10406000934908806019FFF705FF872805DD0020C8
:104070008F4908800120BDE8F0810020FBE741F670
:10408000F42092490978012904D1914909686431E1
:104090008F4A11608F490978012904D18E49096836
:1040A00064398D4A11608A4909684242914202DAB4
:1040B0004142874A116086490968814201DD84498D
:1040C0000860854909684242914202DA4142824AC7
:1040D000116081490968814201DD7F4908607047AC
:1040E0002DE9F84F05460E4691467C480078582148
:1040F00091FBF0F7384605F0D5FE0446DFF8E0A165
:104100004FF0000B77480078012803D076480078FC
:10411000012834D14FF07E517448006805F022FD2B
:104120007249074608604FF07E5105F04BFE07D1FB
:10413000A819FFF79FFE074605F0B4FE6C4908601A
:104140006B4801686B4805F07BFD6B4908600846C9
:10415000006805F0DBFC07464FF03332674B05F093
:10416000BFF902D26648644908606649624800683F
:1041700005F0C4FF0BD263485F49086007E062485E
:104180005D49086000205949086059490860554850
:104190000078012808D1584801685C48006805F09B
:1041A000E9FF5A4908600FE04F480078012808D11C
:1041B000514801685548006805F0D4FC534908602F
:1041C00002E000205149086021465048006805F08F
:1041D00095FF01D24D48046084F000474B480168C8
:1041E000384605F08BFF03D284F000404749086051
:1041F00036480078012803D036480078012802D1DB
:104200004FF07C5B01E04FF0000B5946484605F04B
:10421000A9FE00903D48006880F0004851464046A5
:1042200005F0A0FE0746009905F0A4FF3849086094
:104230000846006805F0FAFDBDE8F88F2DE9FF5F3C
:104240000446894633480390334802903348007847
:10425000012807D121480078012803D1304831498D
:10426000086002E030482F490860184800780128AB
:1042700062D11A48007805F02DFE064629480068EC
:1042800080F00045314651E0BC812142008021424E
:10429000342C0140000020C2000020421A000020FF
:1042A000E4000020000020C100002041E6000020C2
:1042B000DC000020DE000020E00000200020CB46D3
:1042C0000000A0C10000A041E20000201500002075
:1042D00024000020160000202800002019000020E3
:1042E000000028421700002018000020D8000020FD
:1042F000D000002000004842D40000203333E33FC8
:104300009A99193F000040406666663FC800002049
:10431000CC0000200000A042CDCCCC3E4E000020BE
:1043200000005C42C40000200000DC42284605F08A
:1043300087FCFE49086013E0FD48007801280CD195
:10434000FC48007805F0C6FD05462946FA48006895
:1043500005F076FCF549086002E00020F3490860AA
:10436000F6480078012818D1F5480068B0F5FA7FC2
:1043700013D2F448007801280FD0F34800780128C0
:104380000BD0EC48007805F0A5FD05462946EA4823
:10439000006805F055FCE549086004EB0901084692
:1043A00005F080FDE9490860E948006805F0AEFBCA
:1043B0000746E84AE84B05F0CFF8054604F0F0FD63
:1043C000E3490860E148006805F0A0FB0746E14AC0
:1043D000E24B05F0C1F805460E46DD48006805F0E1
:1043E00095FB2A463346CDE9000104F00BFE8246D8
:1043F00004F0D6FDD649086008460168D848006830
:1044000005F0B0FBD6490860C8480168D448006888
:1044100005F0B0FED2490860D249D148006805F0E5
:104420006DFE02D2CF48CE490860CF49CC48006823
:1044300005F064FD02D2CC48C9490860C848029919
:10444000006805F08FFD0546C1480399006805F036
:1044500089FD0646294605F085FBC4490860C44825
:104460000168C4480068FFF73FFD012803D0C24837
:104470000078012802D10020B9490860BB480068D3
:1044800005F0D4FC04B0BDE8F09F2DE9F84F0546D7
:104490000C46BA4E4FF07E570021284605F06AFEC2
:1044A00000903946204605F05DFD82463046009971
:1044B00005F058FD8346514605F054FB814605F052
:1044C000B5FC80464046BDE8F88F70B53220FEF757
:1044D000DDFA0546012D07D1A748007808B901206B
:1044E00000E00020A4490870022D07D1A4480078FC
:1044F00008B9012000E00020A1490870FEF735FB53
:104500000446012C07D18D48007808B9012000E04D
:1045100000208A49087070BD2DE9F04F89B08146AE
:1045200003F0C7FB97490860B9F1010F1ED103F0F2
:104530002FFA9548006880F000408E490860934942
:10454000B1F90010484205F0ADFC914908608F496F
:10455000B1F9040005F0A6FC8E4908608E49B1F956
:10456000040005F09FFC8D490860B2E04421D02092
:10457000FFF7CFF980464321D020FFF7CAF908EBB7
:104580000027384605F08EFC04464821D020FFF76E
:10459000C0F980464721D020FFF7BBF908EB002780
:1045A000384605F07FFC06463E21D020FFF7B1F9E2
:1045B00080463D21D020FFF7ACF908EB00273846B4
:1045C00005F070FC82464021D020FFF7A2F980461A
:1045D0003F21D020FFF79DF908EB0027384605F072
:1045E00061FC05464FF08E41204605F087FD05D25F
:1045F0004FF08F41204605F0BDFD04464FF08E413F
:10460000304605F07BFD05D24FF08F41304605F076
:10461000B1FD06464FF08E41504605F06FFD05D2C4
:104620004FF08F41504605F0A5FD82464FF08E4178
:10463000284605F063FD05D24FF08F41284605F06E
:1046400099FD054652480460284605F05FFACDE919
:104650000001504605F05AFA0746DDE9002304F050
:10466000B9FB00224E4BCDE9020104F075FF4D4A23
:104670004D4BCDE9040104F081FDCDE9060104F0C4
:104680008FFC8346204605F041FA4FF06632474BD7
:10469000CDE9060104F072FD074604F081FC0446F2
:1046A00043480078022804D12146584603F0E6FC2E
:1046B00007E03F480078032803D12146584603F01D
:1046C000F4FD3C4800682B490860324806603348D6
:1046D000056009B0BDE8F08F10B5374800680028C4
:1046E00074D14FF48050354908603548007808B9D6
:1046F000012000E00020324908703248007801288B
:104700000BD131480078401CC0B22F4908700A28EC
:1047100003D1002008702B4908702948007801282F
:1047200057D123480078FFF7F7FE50E0BC00002087
:104730001600002019000020C40000204E000020B8
:10474000480000201700002018000020B4000020BE
:10475000B80000209A9999999999E93F9999C93F88
:10476000C000002000401C4600401CC6B0000020D5
:1047700030000020380000201A000020000096437E
:104780001B0000202C000020340000201401002019
:104790003C000020400000201A01002050000020B2
:1047A00000806640F1D4C853FB2109406666304062
:1047B000140000204C01002030012142140401406B
:1047C000AC0000204D0000204C0000207BE00020C9
:1047D00010BD0220FEF7ADFE3C4908600420FEF744
:1047E000A8FE3B4908603B480078FFF795FEFEF7BE
:1047F00000FD3948007810B96420FEF719F93648F1
:104800000078012802D10020FEF712F9FEF767FCBC
:1048100032490860FFF759FE3148016831480068A5
:10482000FFF733FE304908602948016827480068CF
:10483000FFF704FD2D4908602D48026824480168EF
:1048400022480068FFF74CFC2A49086026480068A7
:1048500026490968084427490968401A264908601A
:104860002148006821490968084422490968084428
:1048700022490860FFF703FC1548036813480268E3
:10488000184801681E480068FFF794FB10B101202A
:104890001C4908700E4802680C48016811480068FD
:1048A000FFF749FB10B10020164908700B4801685A
:1048B0000C480068FFF718FB28B9104801680E483B
:1048C0000068FFF7DEFA002082E700001C000020ED
:1048D00020000020140000204E00002030000020A6
:1048E0003C00002038000020A0000020A400002090
:1048F00040000020A8000020240000202800002004
:10490000500000201A00002038B50446FB4890F8FB
:104910002400C0B114B10220009001E000200090FA
:10492000F64A1268D17BF54A526810786B4601222C
:10493000FEF750FF10B14FF0FF3038BD9DF800106A
:10494000EE48417423E0ED48807A10B94FF0FF3013
:10495000F3E724B1E948407C08B10020EDE714B149
:104960000120009001E000200090E44A1268D17B11
:10497000E24A526810786B460122FEF72BFF10B115
:104980004FF0FF30D9E79DF80010DC48417400205B
:10499000D3E738B5002419E0D8480068C07AA042AF
:1049A00004D0D6480068407DA04200D10CE0D34935
:1049B000496808786B4601222146FEF76FFF10B167
:1049C0004FF0FF3038BD00BF601CC4B2CB48406818
:1049D0000079A042E0DC0020F4E770B504460D4603
:1049E000C6480068C07AA04204D0C4480068407D30
:1049F000A04202D14FF0FF3070BDC048406800793E
:104A0000A04202DC4FF0FF30F6E7BC494968087865
:104A10002B4601222146FEF741FFEDE738B504465B
:104A2000B64890F82300A04201D1002038BD14B14F
:104A30003020009001E000200090B048807C20B140
:104A40009DF8000040F002000090AC4890F8220071
:104A500020B19DF8000040F080000090A74A126845
:104A6000117DA64A526810786B460122FEF7B2FE0D
:104A700010B14FF0FF30D9E7A04880F82340002064
:104A8000D4E738B5044604F0700010B1012000905E
:104A900005E014B10020009001E040200090974A0A
:104AA0001268917C954A526810786B460122FEF795
:104AB00091FE20B1002191488172481E38BD9DF8B9
:104AC000000020F040018D4801730020009004F0A8
:104AD000400020B99DF8000040F00400009004F070
:104AE000200020B99DF8000040F00200009004F082
:104AF000100020B99DF8000040F00100009004F083
:104B0000080020B99DF8000040F0380000907B4A72
:104B10001268D17C794A526810786B460122FEF700
:104B200059FE20B1002175488172481EC6E724B1A4
:104B3000082C02D00020FFF771FF7048847200211A
:104B400001753220FDF773FD0020B7E738B5044644
:104B50006A48807CA04201D1002038BD002C46D09C
:104B6000664A12681179654A526810786B460122CC
:104B7000FEF794FE10B14FF0FF30EEE79DF8000015
:104B800020F0200000905D4A126811795B4A52685B
:104B900010786B460122FEF71DFE10B14FF0FF307A
:104BA000DBE70320FDF743FD02200090534890F817
:104BB000220020B19DF8000040F0800000904F4896
:104BC00090F8230020B19DF8000040F030000090E4
:104BD0004A4A1268117D494A526810786B46012290
:104BE000FEF7F8FD002851D04FF0FF30B5E7434AFB
:104BF00012681179414A526810786B460122FEF71B
:104C00004DFE10B14FF0FF30A7E73C48807A00F02E
:104C1000010028B19DF8000040F02000009004E061
:104C20009DF8000020F020000090344A12681179AD
:104C3000324A526810786B460122FEF7CBFD10B164
:104C40004FF0FF3089E70320FDF7F1FC2B4890F887
:104C5000220010B18020009001E000200090274841
:104C600090F8230020B19DF8000040F03000009043
:104C7000224A1268117D214A526810786B4601223F
:104C8000FEF7A8FD10B14FF0FF3066E71B488474B3
:104C9000002062E708B51948807A10B94FF0FF305C
:104CA00008BD00200090154A1268D17B134A526853
:104CB00010786B460122FEF78DFD10B14FF0FF30EA
:104CC000EEE70E4A126851790C4A526810786B462A
:104CD0000122FEF77FFD10B14FF0FF30E0E7074AF9
:104CE00012681179054A526810786B460122FEF766
:104CF00071FD28B14FF0FF30D2E70000E80000203E
:104D0000F74890F82400002850D00C200090F44A76
:104D100012681179F24A526810786B460122FEF748
:104D200059FD10B14FF0FF30BAE7C0200090EC48B9
:104D3000807A00F0010020B19DF8000040F02000D2
:104D40000090E74A12681179E54A526810786B467C
:104D50000122FEF73FFD10B14FF0FF30A0E7E04821
:104D6000407C10B10220009001E000200090DC4A5D
:104D70001268D17BDA4A526810786B460122FEF73E
:104D800029FD10B14FF0FF308AE700200090D44A8F
:104D900012685179D24A526810786B460122FEF7A8
:104DA00019FD002852D04FF0FF3079E70420009021
:104DB000CB4A12681179CA4A526810786B460122B0
:104DC000FEF708FD10B14FF0FF3069E7C448807C62
:104DD00020B9C348807A00F0010010B9402000904B
:104DE00001E060200090BE4A12681179BC4A526806
:104DF00010786B460122FEF7EDFC10B14FF0FF304A
:104E00004EE7B748407C10B10120009001E000203F
:104E10000090B34A1268D17BB14A526810786B4651
:104E20000122FEF7D7FC10B14FF0FF3038E7AC4A53
:104E300012685179AA4A52681078A94B103301229E
:104E4000FEF7C8FC10B14FF0FF3029E7002027E73C
:104E500070B50446002624F00104A14890F824000F
:104E600008B1002070BD9E48807A10B94FF0FF3025
:104E7000F8E79B48057C807A2040994908740846E9
:104E8000007CA04202D04FF0FF3600E0002614B9AB
:104E90009348007D18B10120FFF736FD02E00020A5
:104EA000FFF732FD3CB1FFF7F5FE20B18C480574E9
:104EB0004FF0FF30D6E73046D4E738B5044688488F
:104EC000807A10B94FF0FF3038BDBC2C02DB0120D6
:104ED000009015E0622C02DB0220009010E02A2CEA
:104EE00002DB032000900BE0142C02DB0420009076
:104EF00006E00A2C02DB0520009001E0062000906D
:104F00007748C07A9DF80010884201D10020DBE785
:104F1000734A12689178724A526810786B4601227F
:104F2000FEF758FC10B14FF0FF30CDE79DF80010B0
:104F30006B48C1720020C7E738B50446282C02DD53
:104F40004FF0FF3038BDDCB90020FFF767FD0020CF
:104F50008DF8000007208DF80100614A1268917CED
:104F60005F4A526810786B460222FEF733FC10B19C
:104F70004FF0FF30E6E70021594801750020E1E7D6
:104F80000120FFF74BFD20208DF80000012C06D1F9
:104F900000208DF801000520FFF78FFF17E0052C9A
:104FA00006DC01208DF801000520FFF786FF0EE0EA
:104FB000142C06DC02208DF801000A20FFF77DFF8B
:104FC00005E003208DF801001420FFF776FF9DF81F
:104FD0000100072101EB8010C0B28DF80100404AAA
:104FE0001268917C3E4A526810786B460222FEF7A6
:104FF000F1FB10B14FF0FF30A4E70821384881726F
:1050000000210173012101750020FFF721FF00201D
:1050100098E738B504463248807A10B94FF0FF302F
:1050200038BD2F4890F8240010B14FF0FF30F7E75B
:105030002B48007D50B134B1282C04DCE0B2FFF7DE
:105040007BFF0020ECE70020FFF776FF042C01DA5D
:10505000042404E0B4F57A7F01DD4FF47A744FF450
:105060007A7090FBF4F0401EC0B200901C4A1268A7
:1050700051781B4A526810786B460122FEF7AAFB52
:1050800010B14FF0FF30CBE79DF80000401C4FF40B
:105090007A7191FBF0F081B21148C1810146C98952
:1050A0004810FFF70AFF0020BAE738B504460C485D
:1050B000807A10B94FF0FF3038BD022C06D0042C96
:1050C00007D0082C08D0102C0FD10BE00020009046
:1050D0000EE0082000900BE01020009008E0000097
:1050E000E80000201820009002E04FF0FF30E3E7D6
:1050F00000BFF948407A9DF80010B0EBE10F01D1F4
:105100000020D9E7F44A1268D179F34A526810783E
:105110006B460122FEF75EFB10B14FF0FF30CBE78C
:105120009DF80000C110EC4841720020C4E738B57A
:105130000446E948807A10B94FF0FF3038BDFA2CA8
:1051400009D0B4F5FA7F09D0B4F57A7F09D0B4F567
:10515000FA6F0CD108E0002000900BE008200090CE
:1051600008E01020009005E01820009002E04FF0C9
:10517000FF30E3E700BFD848007A9DF80010B0EB9D
:10518000E10F01D10020D9E7D34A12689179D24AC0
:10519000526810786B460122FEF71CFB10B14FF0ED
:1051A000FF30CBE79DF80000C010CB49087200200B
:1051B000C4E71CB580208DF80000C74A1268917CB6
:1051C000C54A526810786B460122FEF703FB10B106
:1051D0004FF0FF301CBD6420FDF729FA00208DF848
:1051E0000000BD4A1268917CBB4A526810786B4639
:1051F0000122FEF7EFFA10B14FF0FF30EAE7B64AAE
:105200001268917DB44A526810786B460622FEF708
:1052100045FB10B14FF0FF30DCE79DF80500C007FB
:10522000400F9DF8031001F0010140EA41009DF894
:10523000011001F0010140EA010494B1012C03D1F5
:105240000121A548C17431E0022C03D10021A248FC
:10525000C1742BE02146A1A003F0BAF84FF0FF3053
:10526000B8E79D4A1268D1789B4A526810786B461D
:105270000122FEF713FB10B14FF0FF30AAE79DF8B3
:10528000000000F00F042CB99E4803F0A1F84FF085
:10529000FF309FE7042C06D19BA003F099F8012171
:1052A0008D48C17402E000218B48C174FF218A48F7
:1052B0008172FF2088490872FF2187484172C172BC
:1052C0004FF6FF71C181FF210174817401210173C7
:1052D00080F82210002180F82310417501751630E6
:1052E000016041608160163880F8241080F8251034
:1052F000C1844FF4FA60FFF71AFF10B14FF0FF308E
:1053000068E70220FFF7D1FE10B14FF0FF3061E7F0
:105310002A20FFF7D2FD10B14FF0FF305AE73220BC
:10532000FFF777FE10B14FF0FF3053E70020FFF793
:105330008FFD10B14FF0FF304CE70020FFF706FC67
:1053400010B14FF0FF3045E70020FFF79AFB002037
:1053500040E770477CB504460D465F48807A00F010
:10536000700010B94FF0FF307CBD5B4A1268117BB2
:10537000594A526810786B460622FEF78FFA10B130
:105380004FF0FF30F0E79DF801009DF8001040EA73
:10539000012000B220809DF803009DF8021040EA31
:1053A000012000B260809DF805009DF8041040EADD
:1053B000012000B2A08015B12846FFF7CAFF0020E7
:1053C000D2E77CB504460D464348807A00F00800D9
:1053D00010B94FF0FF307CBD3F4A1268517B3E4A06
:1053E000526810786B460622FEF758FA10B14FF05B
:1053F000FF30F0E79DF801009DF8001040EA012021
:1054000000B220809DF803009DF8021040EA0120C0
:1054100000B260809DF805009DF8041040EA01206C
:1054200000B2A08015B12846FFF793FF0020D2E715
:105430002DE9FE4F05460C462748807A18B94FF0F3
:10544000FF30BDE8FE8F244A1268917B224A5268E1
:10545000107802AB0222FEF721FA10B14FF0FF30B4
:10546000EFE79DF809009DF8081040EA012006B218
:1054700014B12046FFF76DFF17494968C88804F04A
:1054800029FD154901904968B1F9080004F00AFDA9
:105490008346304604F006FD5946009004F06AFE4B
:1054A0008246019904F0CCFB81461F4904F05AFB67
:1054B00080464FF08F4104F055FD074604F0B6FCDE
:1054C00028600020BDE710B588B004461CB94FF035
:1054D000FF3008B010BD29E0E8000020556E73755C
:1054E00070706F7274656420736F66747761726533
:1054F0002070726F64756374207265762025642E47
:105500000A000000F0BA000848616C662073656EFE
:105510007369746976697479207061727420666F3A
:10552000756E642E0D0A000000000C42206830B930
:10553000606820B9A06810B9002008B010BDFA4911
:105540004968087806AB03221146FEF7A7F910B1A7
:105550004FF0FF30F1E79DF81800082101EB201013
:1055600000F00F00ADF800009DF8190001EB2010CD
:1055700000F00F00ADF802009DF81A0001EB2010BA
:1055800000F00F00ADF8040020684100BDF90000F4
:10559000403091FBF0F000B2ADF8100060684100BF
:1055A000BDF90200403091FBF0F000B2ADF81200FE
:1055B000A0684100BDF90400403091FBF0F000B25A
:1055C000ADF81400D8494968087806AB06221146A0
:1055D000FEF764F910B14FF0FF30AEE79DF8190007
:1055E0009DF8181040EA012000B2ADF808009DF8BF
:1055F0001B009DF81A1040EA012000B2ADF80A0025
:105600009DF81D009DF81C1040EA012000B2ADF885
:105610000C00BDF81000BDF80810084400B2ADF849
:105620001000BDF81200BDF80A10084400B2ADF831
:105630001200BDF81400BDF80C10084400B2ADF81B
:105640001400BDF81000000A8DF81800BDF8100015
:10565000C0B28DF81900BDF81200000A8DF81A00CA
:10566000BDF81200C0B28DF81B00BDF81400000A8E
:105670008DF81C00BDF81400C0B28DF81D00AA49B9
:105680004968087806AB06221146FEF7A3F810B168
:105690004FF0FF3051E700204FE70146A248007A63
:1056A00030B1012807D0022809D003280FD10AE021
:1056B000FA2008800EE04FF4FA7008800AE04FF4F8
:1056C0007A70088006E04FF4FA60088002E000205B
:1056D000088000BF00BF0020704701469248407A12
:1056E00030B1012807D0022808D003280CD108E0E7
:1056F000022008700BE00420087008E00820087001
:1057000005E01020087002E04FF0FF30704700BF46
:105710008548C07C18B108784006000E087000204B
:10572000F4E701468048C07A082817D2DFE800F085
:105730001704070A0D101318BC20088013E062201C
:10574000088010E02A2008800DE0142008800AE07C
:105750000A20088007E00520088004E000BF00BFA1
:105760000020088000BF00BF0020704701466E483F
:1057700090F8240010B14FF0FF3070476A48C0899C
:1057800008800020F9E7014600200880401E70478D
:1057900001464FF0FF30704701466348007A30B150
:1057A000012807D0022808D003280CD108E05F4860
:1057B00008600BE05E48086008E05E48086005E0AD
:1057C0005D48086002E04FF0FF30704700BF0020E6
:1057D000FBE701465448407A30B1012808D002283E
:1057E0000AD0032810D10BE04FF4804008800EE06F
:1057F00041F69C7008800AE04FF48050088006E073
:105800004FF40060088002E04FF0FF30704700BFA7
:105810004548C07C10B10888401008800020F5E79A
:1058200001464148007C08700020704701463E4810
:10583000807A10B10120087001E00020087000207B
:10584000704738B504463848807A10B94FF0FF30B9
:1058500038BD354A1268117C334A526810786B465D
:105860000222FEF71BF810B14FF0FF30F0E79DF871
:1058700001009DF8001040EA012000B220800020C5
:10588000E6E72DE9FE4F0746884692461D46DDF8BD
:1058900030B000260024244890F8240010B1601E87
:1058A000BDE8FE8F002028701F48807A10B94FF0A5
:1058B000FF30F5E71C48007C10B94FF0FF30EFE7F0
:1058C0001948007C00F0400008B1B01CC6B2164870
:1058D000007C00F0200008B1B01CC6B21248007C69
:1058E00000F0100008B1B01CC6B20F48007C00F0F8
:1058F000080008B1B01DC6B20B4A1268917A0A4A74
:10590000526810786B460222FDF7C8FF10B14FF0C5
:10591000FF30C5E79DF801009DF8001040EA01291D
:10592000B1450BDA0020BBE7E8000020000003438C
:10593000000083423333034233338341FC484068E1
:105940004088B9EB600F17DDF94A1268517CF84ABC
:10595000526810786B460122FDF7A0FF10B14FF09E
:10596000FF309DE79DF8000000F0100020B1FFF728
:1059700091F96FF0010093E75046FFF7EAFCEC4A1B
:105980001268D17AEA4A526810786B463246FDF7BF
:1059900085FF10B14FF0FF3082E799FBF6F0401E13
:1059A0008BF8000000202870B4422AD0E048007C28
:1059B00000F0080028B3601C1DF800001DF804105A
:1059C00040EA012000B2A8F80000E01C1DF8001019
:1059D000A01C1DF8000041EA002000B2A8F8020057
:1059E000601D1DF80010201D1DF8000041EA002078
:1059F00000B2A8F80400287840F008002870A01D24
:105A000084B2B44213D0CA48007C00F0400070B1A8
:105A1000601C1DF800001DF8041040EA012000B2CF
:105A20003880287840F040002870A01C84B2B4422E
:105A300013D0BF48007C00F0200070B1601C1DF83E
:105A400000001DF8041040EA012000B27880287898
:105A500040F020002870A01C84B2B44213D0B44897
:105A6000007C00F0100070B1601C1DF800001DF8F3
:105A7000041040EA012000B2B880287840F01000FD
:105A80002870A01C84B200200AE7F8B504460F462F
:105A90001646A74890F8240010B94FF0FF30F8BD23
:105AA000A348807A10B94FF0FF30F8E7A04A126897
:105AB000917A9F4A526810786B460222FDF7EEFEFB
:105AC00010B14FF0FF30EAE79DF801009DF800109B
:105AD00040EA0125A54203DA00203070401EDEE7CF
