:020000040800F2
:10000000C840002009010008991C0008E50C000800
:10001000951C0008A10A00085F29000800000000E4
:10002000000000000000000000000000352400086F
:100030002D0B000800000000410A000839250008C7
:100040002301000823010008230100082301000800
:1000500023010008230100082301000823010008F0
:1000600023010008230100082301000823010008E0
:1000700023010008230100082301000823010008D0
:1000800023010008230100082301000823010008C0
:1000900023010008230100082301000823010008B0
:1000A00023010008230100082301000823010008A0
:1000B0002301000823010008230100082301000890
:1000C0002301000823010008230100082301000880
:1000D00023010008D5250008C526000823010008D3
:1000E000230100082301000823010008DFF80CD0D9
:1000F00000F058FC00480047753500080006002055
:10010000EFF3058070470000064880470648004727
:10011000FEE7FEE7FEE7FEE7FEE7FEE7FEE7FEE7B7
:10012000FEE7FEE761250008ED000008124C134DC4
:10013000256013484FF0010101604FF0020080F389
:100140001488104842680F4802600E4B1868878870
:100150004FF0100847EA08078780D0F800C00CF17C
:10016000240CBCE8FF008CF30988AE4687F30388B3
:1001700062B6304700BF000020ED00E00000F0F064
:1001800068060020300600202DE9F05F05460020BB
:1001900092469B4688460646814640241BE02846F8
:1001A00041464746224600F02EFB53465A46C01AA7
:1001B000914110D311461846224600F015FB2D1A26
:1001C00067EB01084F4622460120002100F00CFB9E
:1001D00017EB00094E41201EA4F10104DFDC484664
:1001E00031462A464346BDE8F09F40EA01039B079B
:1001F00003D009E008C9121F08C0042AFAD203E09C
:1002000011F8013B00F8013B521EF9D27047D2B2FF
:1002100001E000F8012B491EFBD270470022F6E7EF
:1002200010B513460A4604461946FFF7F0FF20466C
:1002300010BD421C10F8011B0029FBD1801A704729
:10024000F0B480EA0102D40F4200B2EB410F02D2B7
:100250000246084611464A0042D0C30DDDB2C1F342
:10026000C752AD1A202D35DAC1F3160141F4000250
:1002700004B15242C5F1200602FA06F12A411044A7
:10028000B3EBD05F23D0C4B1012DA0EBC35009DC88
:10029000F0BC4FF0004202EAC352DBB200F50000AE
:1002A00000F0DCBA400000F1807000EBC350A0F118
:1002B000807040EAD170490009E0490841EAC07104
:1002C000A0EBC35000F50000400800EBC350F0BCA9
:1002D00000F0BBBA6142012202EB4101001BF6E7CC
:1002E000F0BC704781F00041AAE780F00040A7E72A
:1002F00080EA010210B502F00043400022D04A001B
:100300001FD0010E01EB1261C0F35600C2F356027A
:1003100040F4000042F40002A0FB022000047F39F8
:10032000140400D0401C50EA124001D44000491E81
:10033000C2B20C0604EBD010401C4008802A02D048
:1003400003E0002010BD20F00100002900DA0020A9
:10035000184310BD2DE9FE4F804681EA0300C00F0F
:100360000C46009021F0004123F00045B8EB02005C
:10037000A94105D24046214690461C460B460246FE
:1003800023F00040104347D0270DC7F30A00C3F302
:100390000A510290401A019040286BDAC3F313000F
:1003A00040F4801B0098924620B10023D2EB030A50
:1003B00063EB0B0B01985946C0F14002504600F028
:1003C00013FA06460D4650465946019A00F02BFA9C
:1003D00010EB08006141002487EA115284EAE773B8
:1003E0001A4340D0009A62B3019A012A4FEA075299
:1003F00015DC001B61EB02014FF0004202EA0752DC
:10040000CDE90042001C41F5801132462B4600F038
:1004100062FA03B0BDE8F08F40462146F9E7001BC1
:1004200061EB0201001C41F5801300185B412018AC
:10043000A2F5001747EB030140EAD570B6196D41EC
:1004400011E06D084FEA360645EAC0754FEA0752DB
:10045000001B61EB0201001C41F5801149084FEAC5
:1004600030000019514132462B4603B0BDE8F04F31
:1004700000F022BA0098012240000023D0EB0202D3
:1004800063EBE073009821464FEAE074B8EB00009C
:1004900061EB0401E9E783F000435BE781F0004191
:1004A00058E72DE9FE4F81EA030404F0004421F0EF
:1004B000004100944FF0000B23F0004350EA010488
:1004C0005ED052EA03045BD0C3F30A54C1F30A5569
:1004D0002C44A4F2F3340194A0FB0254C1F31301A1
:1004E00041F48011C3F3130343F4801301FB02446E
:1004F00000FB034E840A970A44EA815447EA835773
:10050000A4FB076802958D0A05FB07854FEA932C2B
:1005100004FB0C542705029D4FEA065847EA16379C
:10052000B5EB08056EEB070C870E920E47EA8117B4
:1005300042EA8312A7FB0201B6EB0B0164EB000455
:100540002B0D43EA0C335E1844EB1C50DA4651463F
:10055000E7FB0201C5F313044FEA0B3343EA1453DC
:100560004FEA0432019C43EA0603A4F10C0402940E
:10057000009CCDE900B400F0AEF903B0BDE8F08F07
:1005800000200146F9E72DE9F04D81EA030404F06B
:10059000004B21F0004514464FF0000A23F00041C3
:1005A00050EA050220D054EA01021DD0C5F30A57D3
:1005B0000246C5F31303C1F31300C1F30A5640F416
:1005C000801543F48013A7EB0608101BD64608F2EB
:1005D000FD3873EB050002D308F1010801E0921821
:1005E0005B41B8F1000F03DA00200146BDE8F08D51
:1005F00000204FF48011064684460EE0171B73EB73
:10060000050705D3121B63EB050306434CEA010CF7
:1006100049084FEA300092185B4150EA0107EDD1DA
:1006200052EA030012D082EA040083EA050108437B
:1006300005D0101BAB4106D20122002306E00022A8
:100640004FF0004302E06FF0010253101AEB060076
:100650004CEB085110EB0A0041EB0B01BDE8F04DEB
:1006600000F02AB996230022114600F0F7B80EB523
:10067000C10F80EAE0700844CA07002140F233430A
:100680008DE80E000A460B4600F025F903B000BDC8
:1006900000F0004220F00040C10DC0F3160040F40D
:1006A00000007F2901DA00207047962903DCC1F1A0
:1006B0009601C84001E096398840002AF4D04042B3
:1006C000704720F00040C10DC0F3160040F4000058
:1006D0007F2901DA00207047962903DCC1F19601D9
:1006E000C8407047963988407047C1F30A52C1F339
:1006F000130140F2FF3341F480119A4202DA0020E4
:100700000146704740F233439A42A2F2334202DC80
:10071000524200F078B800F067B800F0004230F0C4
:1007200000400AD0C10D01F56071C0F3160042EA25
:100730000151C2084007114370470020014670472D
:1007400030B5041E71F1000404DB4FF00044404258
:1007500064EB0101141E73F1000405DB1C464FF02D
:100760000043524263EB04038B4208BF824230BD18
:1007700001F0004330B421F0004150EA010206D0FC
:100780000A0DA2F56072C1F31301002A02DC30BC2D
:1007900000207047440F44EAC104C100E01830BC97
:1007A00000EBC25000F051B8002801DBC0F100405E
:1007B000002901DBC1F100418842704730B50B468A
:1007C000014600202022012409E021FA02F59D4281
:1007D00005D303FA02F5491B04FA02F52844151E55
:1007E000A2F10102F1DC30BD202A04DB203A00FA3C
:1007F00002F1002070479140C2F1200320FA03F378
:10080000194390407047202A04DB203A21FA02F075
:100810000021704721FA02F3D040C2F1200291403A
:10082000084319467047202A06DBCB17203A41FAC5
:1008300002F043EAE07306E041FA02F3D040C2F16D
:10084000200291400843194670470029A8BF70470D
:10085000401C490008BF20F00100704710B4B0FAF6
:1008600080FC00FA0CF050EA010404BF10BC704791
:1008700049B1CCF1200421FA04F411FA0CF118BFAB
:10088000012121430843A3EB0C01CB1D4FEA00617A
:100890004FEA102042BF002010BC704700EBC3504D
:1008A00010440029A4BF10BC7047401C490008BF79
:1008B00020F0010010BC704710B5141E73F1000445
:1008C00008DA401C41F1000192185B411A4301D142
:1008D00020F0010010BD2DE9F04D92469B4611B16C
:1008E000B1FA81F202E0B0FA80F220329046FFF7CE
:1008F0007BFF04460F4640EA0A0041EA0B015346DB
:100900005A46084313D0114653EA010019D0C8F1E2
:1009100040025046FFF777FF05460E4650465946BF
:100920004246FFF761FF084305D0012004E020465E
:100930003946BDE8F08D0020054346EAE0762C43B9
:1009400037430A986305E40AA0EB08000022FD0A79
:1009500044EA47540A3002D500200146E9E7010580
:1009600010196941DDE9084500196941BDE8F04DFC
:10097000A2E7000030B5041E71F1000404DB4FF063
:100980000044404264EB0101141E73F1000405DBD6
:100990001C464FF00043524263EB0403994208BFE8
:1009A000904230BD064C074D06E0E06840F0010380
:1009B00094E8070098471034AC42F6D3FFF79AFB4F
:1009C000644F0008944F000870B58C1810F8015B54
:1009D00015F0070301D110F8013B2A1106D110F8D8
:1009E000012B03E010F8016B01F8016B5B1EF9D1DC
:1009F0002B0705D40023521E0DD401F8013BFAE762
:100A000010F8013BCB1A921C03E013F8015B01F8CC
:100A1000015B521EF9D5A142D8D3002070BD000061
:100A2000EFF3108072B67047EFF3108062B6704734
:100A300080F31088704717484FF08051016070476D
:100A4000EFF3108C72B6144A12681AB100B59047D1
:100A50005DF804EBEFF3098020E9F01F0F4D2E68DD
:100A60003060B7884FF0100827EA0807B7800B48B6
:100A70004068286087884FF0100847EA0807878099
:100A80000168B1E8F01F81F309888CF31088704782
:100A900000BF000004ED00E06C06002030060020DE
:100AA00000BFFEE710B5044600F0B2F9462000F0A2
:100AB00085F900BF00F0E2F90028FBD1204600F0E4
:100AC0007DF900BF00F0DAF90028FBD100F0BCF995
:100AD000052002F0D5FC10BD2DE9F0410F4800784B
:100AE0000F4908800D484078097800EB01200C4937
:100AF000088008460088FFF7B5FD8046FFF70DFE29
:100B000006464FF03332074BFFF73DFD0446FFF733
:100B10002FFE05490860BDE8F0810000B8060020FE
:100B2000BA0600203333F33FB4060020704701B506
:100B300002E00098401E009000980028F9D108BDFE
:100B40000549096821F01001034A1160114609683E
:100B50000143116070470000002002400146002060
:100B6000034A106800F03800084310607047000026
:100B70000020024030B500228B071C0F0F2303FA20
:100B800004F20B4B8C1053F824309343084C8D1017
:100B900044F8253023468C1053F824308C07240F5A
:100BA00000FA04F42343024C8D1044F8253030BD84
:100BB000080001402DE9F0410246002500260020F2
:100BC00000230024002791F803C00CF00F0591F8D2
:100BD00003C00CF0100CBCF1000F03D091F802C060
:100BE0004CEA050591F800C0BCF1000F31D0146843
:100BF00000202BE04FF0010C0CFA00F3B1F800C01C
:100C00000CEA03069E4220D183004FF00F0C0CFA31
:100C100003F7BC4305FA03FC4CEA040491F803C053
:100C2000BCF1280F06D14FF0010C0CFA00FCC2F801
:100C300014C00AE091F803C0BCF1480F05D14FF091
:100C4000010C0CFA00FCC2F810C0401C0828D1D3DB
:100C50001460B1F800C0BCF1FF0F34DD546800200F
:100C60002EE000F1080C4FF0010808FA0CF3B1F87F
:100C700000C00CEA03069E4221D183004FF00F0C06
:100C80000CFA03F7BC4305FA03FC4CEA040491F8A0
:100C900003C0BCF1280F05D100F1080C08FA0CF8CC
:100CA000C2F8148091F803C0BCF1480F07D100F1DD
:100CB000080C4FF0010808FA0CF8C2F81080401C2C
:100CC0000828CED35460BDE8F08102460020936826
:100CD0000B400BB1012000E00020704741617047DC
:100CE0000161704700BFFEE710B500200A490860A7
:100CF00001F06EFA00200949C1F88801022002F0D3
:100D0000CEFB012004490860022002F0C8FB00204D
:100D10000349C1F8AC0110BDAC012242008022425F
:100D20000000224210B500200A49086001F050FA84
:100D300001200949C1F88801022002F0B0FB01201E
:100D400004490860022002F0AAFB00200349C1F810
:100D5000AC0110BDAC0122420080224200002242C0
:100D600070B50546002401F021FA002615E00020A8
:100D70000F490860022002F092FB01200D49C1F8E2
:100D8000AC016006040E0C48006808B1601CC4B2D7
:100D9000012002F084FB701CC6B2082EE7DB15B9F7
:100DA000FFF7C0FF01E0FFF79FFF204670BD000086
:100DB000AC012242000022420881224270B5044662
:100DC00001F006FA00200F490860002516E0E0094E
:100DD0000D4908606006040E022002F060FB01204D
:100DE0000A49C1F8AC01022002F059FB0020054974
:100DF0000860022002F053FB681CC5B2082DE6DB38
:100E000070BD0000AC0122428881224200002242D3
:100E100010B501F0DDF90120094908600949C1F860
:100E2000AC01042002F03BFB0020054908600420CF
:100E300002F035FB00200349C1F8AC0110BD0000F1
:100E4000888122420000224210B501F0C1F9002041
:100E5000084908600849C1F88801042002F01FFB16
:100E60000120044908600449C1F88801042002F007
:100E700016FB10BDAC0122420080224210B50024B6
:100E800001200F49086002F00AFB01200D49C1F85A
:100E9000AC0102F004FB01F089F907E0601CC4B268
:100EA000FA2C03DDFFF7D0FF012010BD0448803885
:100EB00000680028F2D10449086000BFF5E700008F
:100EC0008881224200002242AC01224210B502F089
:100ED0001DFB10BD02465018401E904204D9501808
:100EE000401E4B1E98437047481E22EA0000FAE756
:100EF00010B5024614462046002305E0014649602D
:100F0000096000BF5B1C08301B2BF7D310BD2DE917
:100F1000F04105460E462F46304600F08BF8044659
:100F20001E2C02D90020BDE8F081042C00D8042436
:100F3000201F07EBC000F6E742684A60086042687D
:100F400011604160704742684A6008604268116001
:100F50004160704742684A600860426811604160C1
:100F6000704742684A60086042681160416070479B
:100F700042684A6008604268116041607047D0E989
:100F800000121160D0E90021516000214160016030
:100F90007047D0E900121160D0E9002151600021B2
:100FA000416001607047D0E900121160D0E9002172
:100FB00051600021416001607047014648688842E5
:100FC00001D1012070470020FCE7014648688842B3
:100FD00001D1012070470020FCE7014648688842A3
:100FE00001D1012070470020FCE74060006070479D
:100FF0004060006070474060006070474060006083
:10100000704770B504460D4629462068FFF794FFE7
:1010100070BD70B504460D4629462068FFF793FF62
:1010200070BD70B504460D4629462068FFF799FF4C
:1010300070BD0000014601F0004010B16FF070403B
:1010400070474C480840002847D001F0FE40F8B1F6
:1010500001F0E04058B101F0804008B11E20EFE7F8
:1010600001F0005008B11D20EAE71C20E8E701F07C
:10107000406030B101F0006008B11B20E0E71A20A9
:10108000DEE701F0007008B11920D9E71820D7E792
:1010900001F4700080B101F4400030B101F40000AF
:1010A00008B11720CCE71620CAE701F4001008B1F8
:1010B0001520C5E71420C3E701F4402030B101F446
:1010C000002008B11320BBE71220B9E701F400307B
:1010D00008B11120B4E71020B2E701F47F4020B33B
:1010E00001F4704080B101F4404030B101F400409F
:1010F00008B10F20A4E70E20A2E701F4005008B1C8
:101100000D209DE70C209BE701F4406030B101F415
:10111000006008B10B2093E70A2091E701F400700A
:1011200008B109208CE708208AE701F0F00080B1BF
:1011300001F0C00030B101F0800008B107207FE766
:1011400006207DE701F0200008B1052078E70420A3
:1011500076E701F00C0030B101F0080008B103207F
:101160006EE702206CE701F0020008B1012067E79A
:10117000002065E70000FF7F2DE9F04105460C46A1
:101180000026FFF74DFC074600BF05B104B909E092
:1011900004F0004000B105E02146284602F0D1FAF3
:1011A000064600BF00BF3846FFF742FC3046BDE8A8
:1011B000F0812DE9F05F80460F4614464FF000099C
:1011C000CA4600250026FFF72BFC834600BFB8F176
:1011D000000F00D007B91BE0381900F1040909F02D
:1011E000004000B114E04946404602F0AAFA054624
:1011F0002819401E611E20EA0106B54200D107E011
:10120000A6EB050A4AF0804A46F804AC354600BF12
:1012100000BF5846FFF70CFC2846BDE8F09F2DE9BB
:10122000F04705460C4601270026FFF7F9FB8146EB
:1012300000BFB04605B104B914E054F8046C06F0E0
:10124000804010B126F08046A41BA4F1100841464E
:10125000284602F0A4FA07461FB92946404602F084
:1012600012FB00BF00BF4846FFF7E2FB3846BDE86F
:10127000F0872DE9F0470446884600250027002620
:10128000A94614B1B8F1FF0F03D84FF0FF30BDE805
:10129000F087FFF7C5FB8246264634463660C6F81F
:1012A000048004F10800FFF723FE04F1E005281B89
:1012B000A8EB00001038E8600020A86004F10800E6
:1012C000E968FFF724FE8146B9F1000F05D15046C9
:1012D000FFF7AEFB4FF0FF30D9E700BF2946D9F842
:1012E0000000FFF745FE00BF04EB0800A0F1100767
:1012F000002038607860B860F860BD601020F86049
:10130000F86840F00040F860384602F047FB50466D
:10131000FFF78EFB0020BAE72DE9F04105462F4686
:101320000026002415B90020BDE8F081FFF778FB06
:10133000804607F10806306820B1346820683060C4
:10134000044820604046FFF773FB0CB90020EBE730
:10135000201DE9E7A55A5AA52DE9F04705460E4696
:101360002C46012705B116B90120BDE8F087FFF72B
:1013700057FB804600BF311F20460A46D0F800C008
:10138000BCF1000F02D14FF0010C25E000F10C0C74
:10139000A2EB0C03D0F800C0B3FBFCF90CFB193C2A
:1013A000BCF1000F02D04FF0010C15E0D0F800C0E6
:1013B000B3FBFCFCD0F80490CC4502D34FF0010CF9
:1013C0000AE0DFF83490D2F800C0CC4502D04FF0EC
:1013D000010C01E04FF0000CBCF1000F00D004E064
:1013E000A0680860A160002700BF00BF4046FFF76B
:1013F0001FFB3846B9E70000A55A5AA52DE9F0476A
:1014000006460F4690463446002516B90120BDE831
:10141000F087B8F1000F01D10120F8E70C2F01D2BD
:101420000120F4E7FFF7FCFA824608F1070020F0FC
:1014300003002060A7F10C002168B0FBF1F06060B0
:10144000606820B95046FFF7F3FA0120DFE704F1A6
:101450000C05A5604FF0000905E0206828442860CD
:101460002D6809F101096068401E4845F5D8002043
:1014700028605046FFF7DCFA0020C8E700BFD0E93B
:1014800000121160D0E9002151600021416001602B
:1014900000BF704710B50A460649096801EBC20350
:1014A00019684C68446001604C682060486000BF67
:1014B00000BF10BD18060020014600200022074B87
:1014C0001B6803EBC1035A6801E0401C5268034BE0
:1014D0001B6803EBC1039342F7D170471806002045
:1014E00000210020014612E00B4A126802EBC10005
:1014F0004268824201D1012200E000222AB9064856
:10150000006800EBC10040687047481C0146202974
:10151000EAD30020F8E70000180600202DE9F84F74
:1015200081460C4615469A460A9E15B91948BDE8EB
:10153000F88F4FF6FB70864202DD16480938F6E751
:1015400004B116B91348401CF1E7FFF769FA804669
:10155000301D82B26B462946204602F0C1FA07468A
:1015600027B14046FFF764FA3846E0E700981430A8
:10157000FFF741FD00981C30FFF73DFD0098243037
:10158000FFF739FD0098C4814046FFF751FA00206B
:10159000CDE700000C0600022DE9FC5F80460F46F7
:1015A00091461E4600200090A8F1010BBBF10A0FE6
:1015B00002D34048BDE8FC9F17B93E48401CF9E7FC
:1015C000B9F1000F02D13B48801CF3E72EB13A4835
:1015D000006810B137480A30ECE7FFF721FA0190B4
:1015E0000BEB4B0000EBCB003449096801EB8004A6
:1015F000A08820B900BF2F480E30009054E0208A08
:1016000050BB26B900BF2B480F3000904CE02C484F
:10161000008820B100BF27480838009044E02948DE
:101620000568324604F11C01284602F0ADFA019823
:10163000FFF7FEF900F0E6F8FFF7F2F901902879DC
:1016400000F0400058B1A88820F04000A88000BFFA
:101650001848C01F009027E0208A401E2082618920
:101660002289206801FB020ADAF8000038606089EC
:10167000401C80B26081E188884201D100206081F5
:1016800004F11400FFF7A1FC50B904F1140002F0BA
:10169000BDFA0198FFF7CCF900F0B4F8002089E713
:1016A000E089401CE08100BF0198FFF7C1F9009874
:1016B00080E700000E060002B0060020940600201D
:1016C00038060020300600202DE9FC5F81460F46D9
:1016D00090461E4600200090A9F1010BBBF10A0FB5
:1016E00002D34348BDE8FC9F17B94148401CF9E7C5
:1016F000B8F1000F02D13E48801CF3E72EB13D48FF
:10170000006810B13A480838ECE7FFF789F9019012
:101710000BEB4B0000EBCB003749096801EB800471
:10172000A08820B900BF3248C01C00905BE020892F
:10173000404504D200BF2E48001D009053E0E089D0
:1017400050BB26B900BF2A48401D00904BE02B48F3
:10175000008820B100BF26480B38009043E028489D
:101760000568324604F11401284602F00DFA01988A
:10177000FFF75EF900F046F8FFF752F9019028797B
:1017800000F0400058B1A88820F04000A88000BFB9
:1017900017480A38009026E0E089401EE081A189C0
:1017A0002289206801FB020ACAF80070A089401C47
:1017B00080B2A081E188884201D10020A08104F19B
:1017C0001C00FFF702FC50B904F11C0002F01EFAE5
:1017D0000198FFF72DF900F015F8002082E7208A24
:1017E000401C208200BF0198FFF722F9009879E79A
:1017F00011060002B00600209406002038060020E2
:101800003006002010B5FFF70BF90446FFF768FE1D
:101810003C380A494860084600684968884208D050
:101820000748008828B92046FFF702F9FFF703F9B7
:1018300010BD2046FFF7FCF800BFF9E73006002096
:10184000380600202DE9F04106462A48006800EBE2
:1018500006150A2E02D32848BDE8F081FFF7E0F80C
:101860000746287820B93846FFF7E2F82248F3E720
:1018700068884FF6FE71884205D13846FFF7D8F8E0
:101880001D48C01DE8E705F10800FFF7A6FB48BBAF
:10189000E868A0F13C04E868FFF77BFBA08820F033
:1018A0000800A080207900F0400030B1204602F00E
:1018B000E7FDA08820F04000A0800020A0612079F2
:1018C00000F0020040B9A08840F00400A080E18848
:1018D00004F13C00FFF7DEFD3846FFF7A9F8FFF7FB
:1018E00091FF05E06888401C68803846FFF7A0F843
:1018F0000020B1E7A00600200107000210B502F0A9
:1019000093FD04460CB1204610BDFEF70FFC2046A7
:10191000FAE700002DE9F04105460F46002639465A
:10192000284600F045F8064616B13046BDE8F0817D
:10193000286800EB800101EBC0001949096801EB40
:10194000C004FFF76DF88046A08820F00200A08058
:10195000A08840F00400A080E18804F13C00FFF77B
:1019600099FDFFF7BDFD3C380E4948600E48006800
:1019700088B10E48008870B90846006849688842F6
:1019800009D00A48008830B94046FFF751F802F004
:1019900079F90020CAE74046FFF74AF80020C5E77A
:1019A0002C060020300600206806002038060020A3
:1019B0002DE9F05F07460D464FF000094FF0FF3A62
:1019C00017B95748BDE8F09F15B95548801FF9E78A
:1019D000E86910B95248801EF4E7286810B95048E9
:1019E000C01EEFE7A8881F2802DD4D48001FE9E769
:1019F000A869B0F5405F02D949481930E2E7A86903
:101A000010B94FF43470A8610821A869FFF762FA91
:101A1000A86110214FF49870FFF75CFAA969884219
:101A200002D93F48401ECDE7FEF7FAFF834611E09A
:101A30003C484068A0F13C043A494868FFF79FFAE7
:101A400004F13C013848FFF777FA3848E16800684C
:101A5000FFF7E5FB3348FFF7B0FA0028E8D032483B
:101A6000FFF7ABFA28B1DFF8B8A00AF10A0A00BF05
:101A700051E02D484068A0F13C042B494868FFF72D
:101A80007EFA5846FEF7D4FFD4F810900822274873
:101A9000A9690068FFF78DFB06465EB9FEF7C0FF37
:101AA000834604F13C012048FFF746FADFF880A0A6
:101AB00000BF30E032464846A96902F033FD804657
:101AC000C4F80080A868A062E968E162296921631E
:101AD00069696163E660A869A0600020A061E061B7
:101AE00060620220A080A088296A09B1802100E0FC
:101AF00000210843A080A888E080286860614FF03A
:101B0000FF3020650020E065E869A0630020606682
:101B1000C7F8009056E75846FEF78AFF504651E74F
:101B2000070200025806002050060020A4060020EC
:101B30000002000370B504461948006808B119484E
:101B400070BD1948008808B11848F9E714B900F0C9
:101B50005FF8F5E7FEF764FF05461549096801F1EE
:101B60003C00FFF78BFC12480068808820F00400DE
:101B70000F49096888800E490868214602F0E6F995
:101B80000B480068808840F0200009490968888077
:101B90002846FEF74DFFFFF735FE0020D0E7000096
:101BA000B00600200D020003380600200E020002DD
:101BB0003006002010B5FEF733FF044604480088C5
:101BC000401C034908802046FEF732FF10BD00008C
:101BD0003806002010B5FEF723FF04460B480088A6
:101BE00000280DDD09480088401E08490880084685
:101BF000008828B92046FEF71BFFFFF703FE10BD43
:101C00002046FEF715FF00BFF9E700003806002068
:101C100070B500241C48006800691C4909688842A6
:101C200001D31B4870BDFEF7FBFE05461649096847
:101C3000C888FFF741FC0446012C17D912490968EE
:101C400001F13C00FFF79BF90F480068808840F0E5
:101C500004000D49096888800B4A1268D1880A4A35
:101C6000126802F13C00FFF715FC05E02846FEF77C
:101C7000DFFE07480930D5E72846FEF7D9FEFFF713
:101C8000C1FD0020CEE70000300600203C06002009
:101C90000702000200BFFEE7704708B54FF4C060BE
:101CA00000F08AF81C208DF8000000208DF801005B
:101CB0008DF8020001208DF80300684600F044F81A
:101CC0001D208DF8000000208DF8010002208DF805
:101CD000020001208DF80300684600F035F8252049
:101CE0008DF8000001208DF8010000208DF8020021
:101CF00001208DF80300684600F026F827208DF8B3
:101D0000000001208DF801008DF802008DF803001D
:101D1000684600F019F826208DF8000000208DF8A4
:101D2000010001208DF802008DF80300684600F0E4
:101D30000BF806210220FEF71DFF00214FF0006086
:101D400000F044F808BD000070B5002100230F2208
:101D5000C47804B3154C246804F4E064C4F5E0646A
:101D6000210AC1F10403CA40447804FA03F18478DB
:101D70001440214309010E4C0678A155047804F063
:101D80001F050124AC4005786D11AD0005F1E0257B
:101D9000C5F8004109E0047804F01F050124AC40B7
:101DA000044D0678761145F8264070BD0CED00E034
:101DB00000E400E080E100E002490143024A1160D2
:101DC000704700000000FA050CED00E0024A0A40EE
:101DD0000243024B1A60704780FFFF1F08ED00E0CE
:101DE00001460020034A506820F4404008435060F8
:101DF000704700000010024029B1064AD269024330
:101E0000044BDA6104E0034AD2698243014BDA6190
:101E1000704700000010024029B1064A12690243CF
:101E2000044B1A6104E0034A12698243014B1A61B0
:101E3000704700000010024029B1064A926902432F
:101E4000044B9A6104E0034A92698243014B9A6110
:101E5000704700000010024029B1064AD2680243D0
:101E6000044BDA6004E0034AD2688243014BDA6033
:101E7000704700000010024010B500F03DF84FF42C
:101E8000803000F0FBF800F057F90446012C27D110
:101E90001020FEF755FE0220FEF760FE002000F045
:101EA000E1F8002000F01CF9A00200F00DF94FF459
:101EB000E011200400F026F9012000F01DF9A00334
:101EC000FFF78EFF00BF392000F0A6F80028FAD0F7
:101ED000022000F025F900BF00F0BCF80828FBD173
:101EE00001210448FFF788FF012144F21D20FFF77C
:101EF000A3FF10BD010002000F48006840F0010080
:101F00000D490860084640680C4908400A49486085
:101F1000084600680A490840074908600846006802
:101F200020F4802008600846406820F4FE004860E5
:101F30004FF41F0088607047001002400000FFF857
:101F4000FFFFF6FE30B500210022002400232D4DB6
:101F50006D6805F00C0121B1042905D0082923D1B1
:101F600005E0294D056022E0274D05601FE0254D65
:101F70006D6805F47012234D6D6805F480340225F8
:101F800005EB92421CB9214D554305600BE01D4DF8
:101F90006D6805F400351DB11C4D5543056002E028
:101FA000194D5543056002E0174D056000BF00BFA5
:101FB000144D6D6805F0F0010909154D6B5C05685D
:101FC000DD4045600F4D6D6805F4E061090A104D74
:101FD0006B5C4568DD4085600A4D6D6805F46051B5
:101FE000C90A0B4D6B5C4568DD40C560054D6D68E9
:101FF00005F44041890B074D6B5CC568B5FBF3F5F3
:10200000056130BD0010024000127A0000093D0059
:10201000000600201006002010B501460022002313
:1020200000204A11012A02D1094C236806E0022A45
:1020300002D1074C236A01E0054C636A01F01F02DC
:10204000012494401C400CB1012000E0002010BD90
:10205000001002400248406800F00C007047000089
:102060000010024001460020034A506820F0F000B2
:102070000843506070470000001002401149096891
:1020800021F480310F4A11601146096821F4802142
:102090001160B0F5803F03D0B0F5802F0ED106E07F
:1020A0000849096841F48031064A116007E0054992
:1020B000096841F4A021034A116000E000BF00BF9D
:1020C000704700000010024001460020034A50689B
:1020D00020F4E060084350607047000000100240A8
:1020E00001460020034A506820F4605040EAC100D5
:1020F00050607047001002400149086670470000B8
:102100000000424202460020044B586820F47C1034
:1021100042EA01031843014B586070470010024027
:1021200001460020034A506820F003000843506035
:10213000704700000010024038B5002000900024D5
:10214000002500BF3120FFF767FF05460098401CBF
:1021500000900098B0F5A06F01D0002DF2D0312092
:10216000FFF75AFF08B1012400E00024204638BDE3
:1021700010B5FEF74DFE4720FEF720FE00BFFEF72C
:102180007DFE0028FBD10120FEF7EAFD064908701C
:102190000020FEF7E5FD04494870FEF755FE0520D6
:1021A00001F06EF910BD0000B806002008B504204B
:1021B000ADF8000003208DF8020004208DF8030024
:1021C00069460248FEF7F6FC08BD00000014014015
:1021D00008B50420ADF8000003208DF8020014209B
:1021E0008DF8030069460248FEF7E4FC08BD0000D4
:1021F0000014014008B501211020FFF71DFE4FF427
:102200008060ADF8000003208DF8020010208DF8EA
:10221000030069460948FEF7CDFC4FF48050ADF845
:10222000000003208DF8020010208DF8030069469D
:102230000248FEF7BFFC02F06FFA08BD0010014033
:1022400008B54FF48060ADF8000003208DF802005F
:1022500004208DF8030069460148FEF7ABFC08BD79
:102260000010014008B54FF48060ADF80000032075
:102270008DF8020010208DF8030069460148FEF732
:1022800099FC08BD001001404FF4FA7001E0411EB6
:1022900088B20028FBDC704770B505460026FFF7C2
:1022A000CFFF802419E0FFF7EFFF4FF480511C4867
:1022B000FEF716FDFFF7E8FF4FF480611848FEF7C0
:1022C00004FD00B126434FF480511548FEF706FD8A
:1022D000204604EBD071C1F34704002CE3DCFFF788
:1022E000C1FF2DB14FF480610D48FEF7F7FC04E00B
:1022F0004FF480610A48FEF7F3FCFFF7C5FF4FF487
:1023000080510748FEF7ECFCFFF7BEFF4FF4805109
:102310000348FEF7E3FCFFF7B7FF304670BD00004F
:102320000010014010B5002402F0F6F91E2000F064
:102330003FF82044C4B2204610BD000010B5FFF79E
:1023400091FF4FF480611948FEF7CAFC4FF48051A9
:102350001648FEF7C3FCFFF797FF4FF48051134870
:10236000FEF7BEFCFFF790FF4FF480610F48FEF7C9
:10237000B5FCFFF789FF4FF480510C48FEF7AEFC27
:10238000FFF782FF4FF480510848FEF7A9FCFFF7E2
:102390007BFF4FF480610548FEF7A2FCFFF774FF56
:1023A0004FF480510148FEF799FC10BD0010014028
:1023B00070B505460026FFF755FF802422E004EAA9
:1023C000050028B14FF480611948FEF789FC04E04C
:1023D0004FF480611648FEF781FCFFF755FF4FF47C
:1023E00080511348FEF77CFCFFF74EFF4FF48051FD
:1023F0000F48FEF773FCFFF747FF204604EBD07150
:10240000C1F34704002CDADCFFF71AFF4FF48051C8
:102410000748FEF765FC4FF480610548FEF755FC60
:1024200006464FF480510248FEF758FC304670BD16
:1024300000100140704710B500F002F810BD000018
:102440000CB50020019000903348006840F48030C3
:102450003149086000BF3048006800F40030009047
:102460000198401C0190009818B90198B0F5A06F30
:10247000F1D12948006800F4003010B1012000902B
:1024800001E0002000900098012843D12348006813
:1024900040F01000214908600846006820F0030061
:1024A00008600846006840F0020008601A4840686A
:1024B000194948600846406848600846406840F44A
:1024C000806048600846406820F47C1048600846F8
:1024D000406840F4E81048600846006840F08070AA
:1024E000086000BF0C48006800F000700028F9D0B8
:1024F0000948406820F003000749486008464068E2
:1025000040F00200486000BF0348406800F00C0043
:102510000828F9D10CBD0000001002400020024044
:1025200010B50120FEF7BEFA0720FEF7BBFA202007
:10253000FEF7B8FA10BD000010B50848D0E9003029
:102540005A1C40F100000549C1E9002001F0BCFF20
:1025500001F07EFE01F0E8FC10BD000070060020D6
:1025600010B51348006840F00100114908600846A2
:102570004068104908400E494860084600680E4906
:1025800008400B4908600846006820F48020086075
:102590000846406820F4FE0048604FF41F00886041
:1025A000FFF749FF4FF000600449086010BD0000CC
:1025B000001002400000FFF8FFFFF6FE08ED00E00B
:1025C0004FF0E021096921F004014FF0E022116190
:1025D0007047000010B540F22551104800F0FBF89C
:1025E000D0B1002240F225510C4800F01EF90B48F2
:1025F00000F0ACF904462146084800F0ACF900BFF1
:102600008021064800F0DAF80028F9D0012240F2D3
:102610002551024800F009F910BD000000380140C2
:1026200010B586B00446012144F20400FFF704FC13
:102630004FF40070ADF8040003208DF80600182058
:102640008DF8070001A91548FEF7B4FA4FF4806031
:10265000ADF8040004208DF8070001A90F48FEF72B
:10266000A9FA02940020ADF80C00ADF80E00ADF808
:102670001000ADF814000C20ADF81200012240F259
:102680002551074800F0D1F802A9054800F0F2F8FA
:102690000121034800F038F806B010BD00080140E1
:1026A0000038014010B504462146054800F053F9B2
:1026B00000BF8021024800F081F80028F9D010BD49
:1026C0000038014010B540F225510E4800F083F863
:1026D000B0B1002240F225510A4800F0A6F8214688
:1026E000084800F038F900BF8021064800F066F87D
:1026F0000028F9D0012240F22551024800F095F857
:1027000010BD00000044004021B1828942F4005213
:10271000828104E082894DF6FF731A4082817047FE
:1027200010B504462048844209D101218803FFF7EF
:1027300093FB00214FF48040FFF78EFB32E01B48F3
:10274000844209D101214804FFF766FB00214FF4C0
:102750000030FFF761FB25E01548844209D10121D3
:102760008804FFF759FB00214FF48020FFF754FB4A
:1027700018E01048844209D10121C804FFF74CFB3E
:1027800000214FF40020FFF747FB0BE00A4884428A
:1027900008D101210805FFF73FFB00214FF480100D
:1027A000FFF73AFB10BD0000003801400044004034
:1027B00000480040004C004000500040024600200D
:1027C000B1F5007F00D100BF13880B400BB1012091
:1027D00000E00020704770B5024600240023002569
:1027E000002040F66A16B14200D100BFC1F3421585
:1027F00001F01F03012606FA03F3012D02D1968989
:10280000334006E0022D02D1168A334001E0968A59
:1028100033400C12012606FA04F41688344013B132
:102820000CB1012000E0002070BDF0B5034600248B
:1028300000260025002040F66A17B94200D100BFEB
:102840001846C1F3421401F01F06012707FA06F5E6
:10285000012C01D10C3004E0022C01D1103000E039
:1028600014301AB107682F43076002E00768AF43CE
:102870000760F0BD2DE9F04786B005460E460024FE
:10288000A24600BFA1460027B08900B100BF2F4675
:102890002C8A4CF6FF700440F08804432C82AC89EB
:1028A0004EF6F3100440B08831890843718908431B
:1028B0000443AC81AC8A4FF6FF400440B089044326
:1028C000AC8201A8FFF73EFB1F48874202D1DDF82A
:1028D00010A001E0DDF80CA0A88900F4004040B190
:1028E0000AEBCA0000EB0A1031684900B0FBF1F8AE
:1028F00007E00AEBCA0000EB0A1031688900B0FB60
:10290000F1F86420B8FBF0F004012009642101FB18
:102910001089A88900F4004040B1322000EBC900C2
:10292000B0FBF1F000F00700044308E0322000EBB8
:1029300009106421B0FBF1F000F00F0004432C817A
:1029400006B0BDE8F08700000038014001468888E5
:10295000C0F308007047C1F308028280704700BFCF
:10296000FEE700000FB4084B10B504A902AA0398B3
:1029700000F04EF9044602A9002000F0E0FC2046D9
:1029800010BC5DF814FB00003F33000837B5144657
:102990000846064B6A46214600F03AF90446694665
:1029A000002000F0CCFC20463EBD00003F33000874
:1029B00010B5002821D0114B0022001F196803E038
:1029C000814203D80A4649680029F9D152B11368F7
:1029D000841A9C4204D1006818441060104602E03A
:1029E000506000E0186039B102680B1A934203D1BD
:1029F0000B681A4402604968416010BD100700204E
:102A0000F0B50B30154D20F007010024144A0FE0FB
:102A100003688B420BD38B4205D95E1A4318476873
:102A2000C3E9006700E04368136002C004E0021DD0
:102A300010680028ECD12046002802D1286808B18F
:102A40000020F0BD064A07481060074A121A22F01B
:102A50000702C0E9002401202860D7E714070020FE
:102A600010070020040400200006002002E008C82F
:102A7000121F08C1002AFAD170477047002001E0F8
:102A800001C1121F002AFBD1704700002DE9FF5F32
:102A900082B00021DDE90430020DDDF840B00343CF
:102AA00018D044F61050A2F2FF3242431514119888
:102AB00001281FD0A5EB0B00401C5FEA000A4FF075
:102AC00000064E4FDFF83891B046504615D5CAF192
:102AD000000413E0119801244AA3012801D16FEAF0
:102AE0000B010298119AC0E90031C0E9024206B018
:102AF000BDE8F09FCBF10000DFE704460021404A2B
:102B0000491842EB0450CDE9001012E0E00707D06D
:102B100032463B4640464946FDF7C3FC804689465F
:102B200032463B4610461946FDF7BBFC06460F46AB
:102B30006410002CEAD1DDE90401DDE90023BAF1DB
:102B4000000F06DAFDF7ADFC42464B46FDF7A9FC47
:102B500005E0FDF718FD42464B46FDF714FD04461F
:102B60000E460022284BFDF705FF03D84FF0FF303B
:102B7000014607E00022254B20463146FDF7EAFBDF
:102B8000FDF7B3FD102409E0002C0ADB0A22002324
:102B9000FDF7FAFA039B30321A55641E50EA01021F
:102BA000F2D1641C039AC4F111031444119A012A4E
:102BB00003D0012208430DD10AE0084304D00020CD
:102BC0004FF0110B119072E7A3EB0B056D1E0DE09A
:102BD0005B4504DD4FF0000205F1010504E003DA76
:102BE0004FF00002A5F10105002AECD002981199DE
:102BF000C0E90231C0E9004579E700000000144057
:102C00000000F03F300000000000F0430000E03F13
:102C10002DE9FF4F95B09B468946064600250FE2F9
:102C2000252877D100242746F84A0121059400E0A1
:102C3000044316F8013F203B01FA03F01042F7D19C
:102C400030782A2811D06FF02F033078A0F13002AD
:102C5000092A16D8059A44F0020402EB820203EB1B
:102C600042021044761C0590EFE759F8042B0592B8
:102C7000002A03DA504244F40054059044F0020460
:102C8000761C30782E2816D116F8010F44F0040473
:102C90002A280DD06FF02F023078A0F13003092BD5
:102CA00009D807EB870302EB4303C718761CF3E749
:102CB00059F8047B761C30786C280FD006DC4C2841
:102CC00017D068280DD06A2814D104E0742810D0D9
:102CD0007A280FD10DE044F400140AE044F4801483
:102CE00001E044F440147278824202D104F5801469
:102CF000761C761C307866280BD013DC582877D0E9
:102D000009DC002875D04528F6D04628F4D047289D
:102D10001AD19DE118E0632835D0642879D0652860
:102D200012D195E1702873D008DC6728F1D06928AA
:102D30006FD06E280DD06F2806D1B5E073282CD047
:102D4000752875D0782874D05A46179990476D1C0D
:102D500075E1C4F30250022809D003280DD0D9F838
:102D6000001004280DD00D6009F1040967E1D9F8BD
:102D70000010EA17C1E90052F6E7D9F800100D80FB
:102D8000F2E70D70F0E719F8041B8DF80010002031
:102D90008DF80100EA46012003E059F804AB4FF03A
:102DA000FF3061074FF0000102D40DE008F101018E
:102DB0008846B9420FDA8045F8DB1AF80810002976
:102DC000F4D108E008F1010188468142FADB1AF8E3
:102DD00008100029F6D105985B46A0EB08072146AC
:102DE0003846179A00F094FA284400EB080507E0EB
:102DF0004DE029E10DE01AF8010B5A46179990476A
:102E0000B8F10108F7D25B4621463846179A13E11C
:102E100042E00A220092C4F302524FF0000A022A52
:102E200008D059F804CB032A4FEAEC710AD00DE020
:102E300029E02AE009F1070121F00702F2E802C1C6
:102E4000914609E00FFA8CFC4FEAEC71042A03D199
:102E50004FFA8CFC4FEAEC71002907DA0A46002190
:102E6000DCF1000C61EB02012D2202E0220504D509
:102E70002B228DF80420012203E0E20701D020225A
:102E8000F7E7904659E00A2102E010220DE01021F8
:102E90004FF0000A00910BE010224FF0000A44F0BE
:102EA00004040827009203E008224FF0000A009271
:102EB000C4F30252022A05D059F804CB0021032A98
:102EC00008D009E009F1070121F00702F2E802C188
:102ED000914605E01FFA8CFC042A01D10CF0FF0C8E
:102EE0004FF00008220728D5702806D0009B83F0F9
:102EF000100353EA0A0305D00EE040228DF80420A7
:102F0000012208E05CEA010206D030228DF804209C
:102F10008DF8050002229046009B83F0080353EAD7
:102F20000A030AD15CEA010201D1620705D5302209
:102F30008DF804204FF001087F1E582804D034A0DB
:102F400003900EA802900DE036A0F9E753466046C4
:102F5000009AFDF719F984460398825C0298401E96
:102F6000029002705CEA0100F0D1029806A9081AEA
:102F700000F1200A600702D524F4803400E0012724
:102F8000574502DDA7EB0A0000E0002000EB0A0134
:102F9000009005984144401A0590E00306D45B4632
:102FA0002146179A059800F0B3F90544002706E07A
:102FB00001A85A46C05D179990476D1C7F1C474574
:102FC000F6DBE0030CD55B462146179A059800F026
:102FD0009FF9054404E030205A46179990476D1C2C
:102FE0000099481E00900029F5DC08E0029802993B
:102FF0005A460078491C0291179990476D1CBAF106
:103000000001AAF1010AF1DC65E1000009280100D4
:10301000303132333435363738396162636465664E
:103020000000000030313233343536373839414210
:10303000434445460000000000F058F90544761C62
:10304000307800287FF4ECAD19B02846BDE8F08F49
:10305000620700D4062709F1070222F0070CFCE8FA
:103060000223E14603F000485FEA080C02D00FF2A9
:10307000702C0DE05FEA045C02D50FF2682C07E0CB
:103080005FEAC47C02D00FF2602C01E0AFF2700C5A
:103090004FF0FF3823F00043CDF850C065280CD026
:1030A00006DC452809D046281DD047283DD13DE003
:1030B000662818D067287ED138E00021112F01DB67
:1030C000112000E0781CCDE9000106A90EA8FFF749
:1030D000DDFCDDE90F010E9A03910021009207F15A
:1030E000010A04914DE04FF000400097CDE9011036
:1030F00006A90EA8FFF7CAFCDDE90F0203920E9B9A
:1031000011990022DDF80CA00093049211B9791CEA
:1031100000EB010AB7EB0A0004D4C0F1FF3007F15D
:10312000010A0490AAEB0700019044E0012F00DAA5
:1031300001270021112F01DD112000E03846CDE9E3
:10314000000106A90EA8FFF7A1FCDDE90F010E9A08
:103150000391002104910092BA4621070CD40399EF
:10316000514500DA8A46BAF1010F05DD009AAAF14D
:103170000101515C302908D0B84202DA10F1040F85
:1031800006DA0121CDE9011015E0AAF10101E9E714
:10319000002805DC049901440491AAEB000102E037
:1031A000411C514500DD8A460499401A401C01909B
:1031B0004FF000400290200704D40198504501DBF5
:1031C000CDF8048000208DF84F0002980DF14F07D4
:1031D000B0F1004F25D02B200E9002984FF002083E
:1031E00000280CDA404202902D200E9007E00A21C0
:1031F0000298FDF7E3FA3031029007F8011DB8F1AB
:103200000001A8F10108F2DC02980028EFD1791E34
:103210000E980870307800F0200040F0450007F864
:10322000020D12A8C01B00F107081498007800B125
:10323000012000EB0A01019801EBE071059841447F
:10324000401A401E0590E00306D45B462146179ABB
:10325000059800F05DF805441498007818B15A46B6
:10326000179990476D1CE00324D55B462146179AB9
:10327000059800F04DF805441CE00498002807DB91
:10328000DDE90301884203DD0098405C179901E005
:10329000179930205A469047049805F10105401CC3
:1032A00004900198401E019004D12E205A4617998F
:1032B00090476D1CBAF10001AAF1010ADDDC05E0BE
:1032C00017F8010B5A46179990476D1CB8F1000189
:1032D000A8F10108F4DC5B462146179A0598ABE695
:1032E0002D0000002B000000200000002DE9F0411F
:1032F000044600251E461746880404D405E03946D6
:103300002020B0476D1C641EF9D52846BDE8F08129
:103310002DE9F041044600251E469046C80301D51C
:10332000302700E02027880404D505E041463846D0
:10333000B0476D1C641EF9D52846BDE8F0810A68C7
:10334000531C0B601070704703464FF0FF307047FE
:1033500010B50246002006E013784340034CE05CC1
:10336000521C4B1ED9B20029F6DC10BD644E000879
:1033700010B58AB000240120ADF8080009A008901B
:103380000A4801904FF4347007908020099001A9F9
:103390000748FEF7BFFA044614B120460AB010BD34
:1033A0002046FBE76765745F74680000E948000821
:1033B0001406002010B58AB000240120ADF80800E2
:1033C00009A008900A4801904FF4347007908020BB
:1033D000099001A90748FEF79DFA044614B120465A
:1033E0000AB010BD2046FBE76765745F6C75780016
:1033F000CD4900081406002010B58AB00024002032
:10340000ADF8080009A008900A4801904FF4347004
:1034100007908020099001A90748FEF77BFA04462F
:1034200014B120460AB010BD2046FBE76D717474DC
:1034300000000000054A00081406002010B58AB0FC
:1034400000240320ADF8080009A008900A48019064
:103450004FF4347007908020099001A90748FEF7C7
:1034600059FA044614B120460AB010BD2046FBE7C5
:103470007465737400000000194B000814060020E6
:10348000002107E042F6E06100BF0A1EA1F101033E
:1034900099B2FAD1021EA0F10100F3D170470021C8
:1034A00006E00A2100BF0A1EA1F1010399B2FAD178
:1034B000021EA0F10100F4D17047000010B5FDF725
:1034C00005FDFFF72DF8B420FEF734FBFEF750FEA4
:1034D000FDF702FB02480068FDF7F3F880B210BD6B
:1034E000B4060020704710B5FEF7C6FCFEF7D5FB0A
:1034F0004820FFF765F84FF4165001F03DFC4FF4FB
:10350000165001F026FC01F02DF910BD08B501217F
:103510001020FEF791FC4FF40060ADF80000102081
:103520008DF8030003208DF8020069460D48FDF771
:1035300041FB01212020FEF77FFC0420ADF80000B4
:1035400010208DF8030003208DF80200694606481C
:10355000FDF730FB0120054908600549C1F88801E5
:1035600008BD00000010014000140140AC012242DF
:103570000080224210B500F0B1F804460CB10120E1
:1035800010BD00F019F8FEF7B9F900BFFEE7000022
:1035900010B50446204601F090FB204601F0C7FA22
:1035A00004F1100001F0C3FA02A23C21204601F010
:1035B0000AFB10BD7765610010B50024FFF793FF8B
:1035C00001F048FC0E48FDF7B2FAFFF715FF04467C
:1035D0000CB1204610BDFFF7CBFE04460CB12046CF
:1035E000F8E7FFF7E7FE04460CB12046F2E7FFF7E5
:1035F00025FF04460CB12046ECE70020EAE7000076
:10360000FFFF0F00FCF77CFD00BFFEE7102004E089
:103610000649074A42F82010401CFF28F8D90449FF
:10362000044A11600449121D1160704705360008F4
:103630000000002008ED00E00007FA0500BFFEE7EB
:1036400010B58AB0242101A8FCF7E8FD0A480190D2
:103650004FF4A060079009A008901F20ADF8080063
:1036600001A90948FEF756F9044614B120460AB0EC
:1036700010BD0020FBE700003D36000849646C6582
:10368000436F7265303030004006002070B5FDF7A2
:10369000C7F905460F480068401C0E4908602846D7
:1036A000FDF7C6F9FCF72CFD04460B4850F8240042
:1036B00018B1094951F824008047FDF7B1F90546D2
:1036C00004480068401E034908602846FDF7B0F929
:1036D00070BD0000B00600202838002010B500F0B2
:1036E000C3FA00F099F904460CB1204610BDFFF76B
:1036F0008DFF00F0E1FC04460CB12046F6E700F037
:10370000C5FA04460CB12046F0E700F097F90446EC
:103710000CB12046EAE700F01BFA04460CB1204643
:10372000E4E700F0DFFA04460CB12046DEE700F0E3
:10373000F1FEFFF785FF04460CB12046D6E70020D6
:10374000D4E72DE9F04107460E46002406F11300A8
:1037500020F003052946384600F06DF8044614B9F8
:103760000020BDE8F08105F11400E168814204D336
:103770002A462146384600F021F92046FDF713FC81
:10378000204600F00BF9E06840F00040E060E1689E
:1037900021F0004000F03EFD04F11000E1E72DE9CA
:1037A000F84F05460C462E4605F1E008706828449F
:1037B000A0F1100A706847194FF000092B465246D5
:1037C00041462046009700F0B7F810B90120BDE847
:1037D000F88FE06800F0004008B90120F7E7E068E2
:1037E00020F0004000EB04092B4652464146484673
:1037F000009700F0A1F808B90120E8E7D9F808001F
:10380000A04201D00120E2E7444512D000972B46A8
:1038100052464146A06800F08FF808B90120D6E76B
:10382000A068C16821F000410844A04201D00120F5
:10383000CDE70020CBE770B505460E4600243146A3
:1038400005F10800FDF763FB044618E000206168FD
:10385000084605E0C168B14200D370BD4168084622
:10386000A042F7D105F108002146024602F1D0033B
:103870008B4201D1002301E001F108031C46002C1A
:10388000E4D10020E9E72DE9F04104460E46002787
:10389000B846E16821F0004000F0A2FCE06820F0AA
:1038A0000040E060A06848B3A068C06800F0004035
:1038B00020BBA568204600F05EF8E86820F00040D4
:1038C0004719F86800F0004028B93846FDF76BFB4F
:1038D000384600F050F82846FDF765FB06F1080071
:1038E000E968FDF714FB8046B8F1000F01D1BDE88F
:1038F000F08129464046FDF73BFB1BE0E06820F0E5
:1039000000400719F86800F0004028B93846FDF774
:103910004AFB384600F02FF806F10800E168FDF791
:10392000F6FA8046B8F1000F00D1E0E721464046A4
:10393000FDF71EFB00BFDAE730B50446039DA14248
:1039400001D8944201D9002030BDE06800F0004069
:1039500038B120686040401C08B10020F4E7012025
:10396000F2E72068984202D32068A84201D30020E1
:10397000EAE70120E8E700218268D268C3681A44B8
:103980008368DA60C268111882688A6000BF00220A
:1039900002604260826000BF70470000C143016066
:1039A0000549096821B1044909680969416002E0D3
:1039B0004FF0FF3141607047300600202DE9F0479D
:1039C00080460D46164600240027A146AC19A56086
:1039D000E868801BE060EE60E06820F000400719B6
:1039E000BC60F86800F0004028B93846FDF7DBFA03
:1039F0003846FFF7C0FF08F10800E168FDF787FAD5
:103A00008146B9F1000F01D1BDE8F0872146484653
:103A1000FDF7AEFA00BFF7E710B5064806490860A3
:103A20004FF4405104480068FDF723FC044620464B
:103A300010BD0000E8070020A406002070B5124861
:103A4000FDF7D6FAF02111480068FDF795FB104903
:103A500008600846006808B90E4870BD00240EE0F2
:103A600004EB44000A49096801EBC0056C600020C2
:103A7000287005F108010448FDF7CBFA641C0A2CF4
:103A8000EED30020E9E700008C060020A406002009
:103A900088060020001D000270B5002400254FF4A8
:103AA000807529460C480068FDF766FB0B490860E5
:103AB0000846006800B970BD0020044608E00749C8
:103AC000096801EBC4004060006000BF601C044650
:103AD000202CF4D300BFEEE7A40600201806002037
:103AE0002DE9F0470646884617469946154804686A
:103AF000002507E0A08818B9681CC8F8000003E09A
:103B00006D1C2C340A2DF5D300BF0A2D02D10E48AE
:103B1000BDE8F0872C212046FCF780FB06FB07F16F
:103B20000A480068FDF728FB2060206810B90648A5
:103B3000801EEDE7E68027810120A080C9F80040C3
:103B40000020E5E79406002004060002A4060020F9
:103B500010B54FF4DC7109480068FDF70DFB08490A
:103B600008600846006808B9064810BD4FF4DC71CB
:103B700003480068FCF752FB0020F6E7A40600208B
:103B800094060020010600022DE9F04104460D468E
:103B900017464FF00008002604F13C00FDF76EFCCC
:103BA000A08820F00400A08004F13C08A08840F424
:103BB0000050A0802846FDF708FA30B100BF41460A
:103BC0002868FDF7C7F900BF14E06868A0F13C065B
:103BD00007E0E088F188884200DA06E0306CA0F166
:103BE0003C0606F13C00A842F3D100BF4146F06B11
:103BF000FDF7B0F9781C38B1A08840F04000A080F3
:103C00003946204600F0A2F9BDE8F08170B50546BE
:103C10006868A0F13C046868D0E900121160D0E93E
:103C20000021516000214160016000BFA08820F4A4
:103C30000050A080207900F0400030B1204600F014
:103C40001FFCA08820F04000A080207900F0020036
:103C500040B9A08840F00400A080E18804F13C0055
:103C6000FDF718FC70BD00001020034908600348F0
:103C700003490860704700003C060020E837002038
:103C8000A806002010B5FCF7D6FE10BD70B511488F
:103C9000FDF7B4F9A02110480068FDF76DFA0F494F
:103CA00008600846006808B90D4870BD00240CE0A3
:103CB0000A48006800EB04156C600020287005F1CC
:103CC00008010448FDF7ADF9641C0A2CF0D300206C
:103CD000EBE7000098060020A4060020A0060020C4
:103CE000000700022DE9F8430020224908604FF444
:103CF0000078414620480068FDF73EFA044614B9B2
:103D00001E48BDE8F88341462046FCF787FA1C4868
:103D100004601C48046000202081254620340127CF
:103D200005E027812C602546781C87B22034102FAF
:103D3000F7DB0822D0211448FDF760FB064616B1D8
:103D40000E48C01CDDE704200023104A102100901B
:103D50001846FDF7E3FB064616B10848001DD0E7FC
:103D600000F06EF8064616B10448401DC9E7002071
:103D7000C7E7000028060020A40600200703000271
:103D80002006002024060020180700201C06002022
:103D900010B50022002183793BB9437913B14379EF
:103DA000022B02D14369C36001E00369C3600F4B7A
:103DB00019680AE0CB68C468A34200D907E0C36869
:103DC000CC681B1BC3600A4609680029F2D100BFFA
:103DD000016019B1CB68C4681B1BCB6012B9034BDF
:103DE000186000E010600223037110BD2806002057
:103DF0000EB50020029000BF4FF0FF33042202A94D
:103E00000D480068FDF7C8FB0446002CF4D1029869
:103E10000028F1D002980068009002984068019054
:103E200006480299FDF798FA00980028E4D0DDE9E9
:103E300000108847E0E700001C060020180700205B
:103E400010B58AB0242101A8FCF7E8F909480190CF
:103E50004FF43470079008A008900020ADF80800D7
:103E60008020099001A90748FDF754FD044620462B
:103E70000AB010BDF13D00085377745F5461736B55
:103E8000000000004406002070B51F48046836E0BA
:103E90001D49206808601D48FDF73EFA05467DB1C2
:103EA000E0692860A0696860002304222946184858
:103EB0000068FDF709FC18B129461448FDF74CFAD3
:103EC0006079A0B9204600F025F820894FF6E0710E
:103ED000884203DA2089103020810EE02089C11742
:103EE00000EB11710911A0EB0111218105E0A0790E
:103EF000401CA0712046FFF74BFF0348046814B133
:103F0000E0680028C4D070BD2806002018070020F3
:103F10001C0600200349096801600249086000216D
:103F2000017170472406002010B50748006848B1A9
:103F300005480068C068401E03490968C86008B9A0
:103F4000FFF7A2FF002010BD280600202DE9F04752
:103F50000446884608F01F074FEA581907B101E0E8
:103F6000A9F10109E06C00F0784040EA0900E06442
:103F700025488088074407F01F07E06C67F3DF607F
:103F8000E0642148006800EBC7067068B04205D1C4
:103F900004F144013046FDF734F833E07068A0F1D5
:103FA000440500BFE86C20F07840E16C21F07841D6
:103FB00088420CD8E06C20F07840E96C21F0784120
:103FC000401AE16C01F078410843E0640CE0E86CD1
:103FD00020F07840E16C21F07841401AE96C01F062
:103FE00078410843E86406E0A86CA0F1440505F1B7
:103FF0004400B042D6D100BF04F1440105F14400B1
:10400000FCF7FFFFBDE8F087600600202DE9F041D6
:10401000054605EB850000EBC5002349096801EB67
:10402000C004E06930B1666904F128000FC8B047E8
:10403000206204E0666904F128000FC8B0472079C7
:1040400000F0800050B1FCF7EBFC07460020174958
:1040500008803946206900F069F922E0FCF7E0FCAD
:1040600007460020114908803846FCF7E1FCFDF7BF
:10407000A1FDE06928B1E1694868FDF7E3FB002094
:10408000E061207900F0040038B104F13C00FDF754
:10409000F5F9A08820F00400A080FDF79BFDFDF756
:1040A000B1FBBDE8F08100002C060020380600209E
:1040B00072B600BFFEE7000070B540480068401CC3
:1040C000682100FB01F631463D480068FDF754F8D1
:1040D0003C4908600846006808B93B4870BD314655
:1040E00038480068FCF79AF83848FCF77EFF3848F3
:1040F000FCF77BFF3748FCF778FF002420E0012025
:1041000004EB840101EBC4012E4A126802EBC101E9
:10411000888004EB840000EBC4002A49096801EBA5
:10412000C000046104EB840000EBC400254A12685F
:1041300002EBC00000F13C012548FCF762FF641C63
:104140000F2CDCD924480021016041601B48006825
:1041500000EB800101EBC0001A49096801EBC000C7
:104160001D490860084600680461112009688880BC
:10417000202019490968C880FFF78EFC4FF480762B
:1041800031460F480068FCF7F7FF05460DB90E48A9
:10419000A4E731462846FCF741F8104805600020A6
:1041A0000E498880002404E02846FCF71EFF641CAA
:1041B0000835202CF8D3002090E700003C060020B2
:1041C000A40600202C060020000200034806002060
:1041D000500600205806002030060020600600200F
:1041E0000146094A126810690F2800D97047074A2A
:1041F000126802B1FAE7064A52F82020521A044B1C
:1042000043F8202000BFF1E730060020B006002070
:10421000E837002001460B4A126802B970470A4A83
:10422000126802B1FAE7074A126810690F2800D92C
:10423000F4E7064A52F820200A44044B43F82020B1
:1042400000BFEBE730060020B0060020E837002072
:104250002DE9F041002734498988481CC11700EB3B
:10426000D1614911A0EB41112F4A9180104600689D
:104270001146898800EBC1056868A84201D1BDE8F4
:10428000F0816868A0F1440443E0A688E06C20F067
:10429000784018B1E06C401EE0643EE004F1440058
:1042A000FCF76DFE06F0080058B1A08820F0080069
:1042B000A08004F13C00FCF762FE0020A061606277
:1042C00017E006F4806020B1A08820F48060A08010
:1042D0000FE006F4005040B104F13C00FCF74FFE43
:1042E000A08820F40050A08003E0A08820F02000E7
:1042F000A08006F0020048B9A08840F00400A08029
:10430000E18804F13C00FDF7C5F801276868A0F1D9
:10431000440404F14400A842B7D100BF0FB1FDF737
:1043200071FA00BFABE70000600600202DE9F04104
:1043300005460F4605EB850000EBC50036490968C8
:1043400001EBC004A68806F0040040B104F13C0073
:10435000FDF794F8A08820F00400A0800DE042F260
:104360000800304048B104F13C00FCF708FE06F0BC
:10437000600010B1204600F083F8A08820F0020011
:10438000A080A08840F00100A0804FF0FF302065A1
:104390000020E065FDF7A4F83C382049486020790A
:1043A00000F0100040B304F13C011D48FCF729FE69
:1043B0001C48006800EB800101EBC0001649096849
:1043C00001EBC00015490860084600680561A08837
:1043D000096888801149E0680968C8600F49A06BC6
:1043E000096888630120A0803846FCF721FBFFF7AD
:1043F00049FC0020BDE8F081207900F0010030B1D7
:104400003846FCF715FBFFF73DFC0020F2E7384685
:10441000FCF70EFB0020EDE72C0600203006002004
:10442000580600203C0600200D480E49C8630E487F
:104430000E49C8630E480F49086000210E4A1160FA
:104440005160401E4FF0E021486170200B49087018
:1044500000204FF0E02188610720086100207047AC
:104460008D3600080000002039250008283800207B
:1044700040190100AC0600207006002023ED00E08A
:104480002DE9F0410446E06CC70E0E48006800EBD1
:10449000C706A06CB0420ED0A06CA0F14405E86C39
:1044A00020F07840E16C21F078410844E96C01F09B
:1044B00078410843E86404F14400FCF760FDBDE87E
:1044C000F08100006006002010B50F4800680F4919
:1044D000096888420BD00D4800680B4908600846FF
:1044E000C1880B4800880844401E07498880064858
:1044F00081880748008880B2814204D100200249A7
:104500000860FDF785FB10BD800600203006002006
:10451000700600200020024908600A20C880704709
:104520008006002030B50446012304E04FF0CA3570
:1045300042F823505B1CB3EB910FF7D34FF0CC350F
:1045400015605518A5F144004FF0043505604FF093
:10455000053545604FF0063585604FF00735C5607D
:104560004FF0083505614FF0093545614FF01035C2
:1045700085614FF01135C5610025056244624FF039
:10458000013585626D00C5624FF0033505634FF05C
:1045900012354563034D8563034DC5634FF0807548
:1045A000056430BDB14000080D4000080CB5002185
:1045B0000DE000F080021AB101220DF8012002E0A6
:1045C00000220DF801204206100E4A1CD1B2082923
:1045D000EFDB002000210CE01DF8012022B10122B8
:1045E0008A400243D0B202E001228A4090434A1C32
:1045F000D1B20829F0DB0CBD2DE9FF4F8BB00C4682
:1046000015461E4639480A9039480990394808909D
:104610003948079039480690354805903848049045
:104620000B98FCF71FF880463149FBF761FE0746FF
:104630002E49FBF705FE82462046FCF713F8029050
:104640002046FCF70FF82D490190FBF751FE8346F9
:104650000299FBF74DFE07462046FCF703F8264972
:104660000290FBF745FE83462249FBF7E9FD8046B1
:104670003946FBF7E5FD03902046FBF7F3FF2049A1
:104680000190FBF735FE83461949FBF7D9FD8046BB
:104690001C495046FBF726FE41460290FBF728FED8
:1046A00007460399FBF7CCFD814617494846FCF7BE
:1046B0007BF801D2DFF850904846FCF72EF8074609
:1046C000124A134BFCF73CF801D2DFF848900E4930
:1046D0005046FCF769F801D2DFF82CA0C6F800902C
:1046E000C5F800A00FB0BDE8F08F0000CDCC1EC211
:1046F0000AD7233CC5FE02C0BD52163DF624D6B5EE
:10470000ACC5A7380000C8410000C8429A999999E1
:104710009999B93FCDCCCC3D10B5FDF7A3FD4FF431
:1047200080610F48FCF7DCFA4FF480510C48FCF72D
:10473000D5FA00240FE04FF480510948FCF7D0FA75
:10474000FDF7A2FD4FF480510548FCF7C7FAFDF7CD
:104750009BFD601CC4B2092CEDDBFDF7EFFD10BD25
:104760000010014010B50024FDF744FDFDF7DAFD0F
:10477000044604B905E040F2C11204A10AA0FEF704
:10478000E3FD1420FEF77CFE10BD00002E2E5C55CC
:104790007365725C7372635C73687431305C7368E8
:1047A0007431302E630000006572726F72203D3DDF
:1047B000203000002DE9F84F80460D469146002438
:1047C000A246A3460027FDF7B9FDB9F1000F03D0BB
:1047D000B9F1010F12D108E00320FDF7E9FD2044F3
:1047E000C4B203208DF8000009E00520FDF7E0FDCC
:1047F0002044C4B205208DF8000000E000BF00BFD7
:10480000FDF71EFD002607E04FF480612548FCF708
:104810005CFA00B903E0761C23488642F4D300BF5B
:104820004FF480611F48FCF750FA012801D1601C49
:10483000C4B204B905E040F275121CA122A0FEF733
:1048400083FD0120FDF728FD82460120FDF724FDB0
:1048500083468DF801A08DF802B003216846FEF76B
:1048600077FD07463846FFF7A1FE07460020FDF713
:1048700013FD28704BEA0A20A8F800002878B842F7
:1048800000D105E04FF4C07208A112A0FEF75CFD54
:104890002878B84203D04FF0FF30BDE8F88F60B2FF
:1048A000FBE700000010014000A24A042E2E5C55D8
:1048B0007365725C7372635C73687431305C7368C7
:1048C0007431302E63000000657272203D3D20304F
:1048D00000000000637263203D3D202A705F636822
:1048E00065636B73756D000070B586B000254CE094
:1048F00000240020039002900190002203A904A844
:10490000FFF758FF2044C4B2012203A905A8FFF70E
:1049100051FF2044C4B204B904E028221BA120A006
:10492000FEF712FD14B1FFF7F7FE07E002AB01AA94
:10493000BDF81410BDF81000FFF75EFE1B49029889
:10494000FBF7D6FC0646FBF7A3FE00B21849088029
:1049500016490198FBF7CCFC0646FBF799FE00B21E
:104960001449088000241248B0F900200846B0F924
:10497000001011A000F046FA4FF4FA60FDF7DAF8E3
:1049800005460DB106B070BD00BFB1E72E2E5C55D7
:104990007365725C7461736B5C7461736B2E63001E
:1049A000657272203D3D2030000000000000204173
:1049B000BC060020BE0600206169725F743A25645F
:1049C0002C6169725F683A25640D0A0010B50024F5
:1049D0000FE0FEF773FD074908800846018806A02E
:1049E00000F010FA41F28830FDF7A4F8044604B153
:1049F00010BDEEE7C00600206C7578203D202564D0
:104A00000D0A00002DE9F04F95B04FF0000B30A0DB
:104A100014905BE02F48C06850B1402203A92D4894
:104A200000F08AF8139003A8139900F098F942E077
:104A300029480068052806D1002027490860254834
:104A400000F044F932E02548B0F90000FBF70FFE12
:104A500007460022224BFBF796FD05460E462148ED
:104A6000B0F90000FBF703FE074600221C4BFBF7E2
:104A70008AFD81461C4800884A460B461BA1CDE9A9
:104A8000005602902348FDF76DFF2248FBF7D1FB4B
:104A9000C4B200201F4908550846FBF7CAFB05466B
:104AA0002B461C4A0B48149900F020F90A4800686C
:104AB000401C0949086041F28830FDF73BF8834605
:104AC000BBF1000F02D015B0BDE8F08FA2E70000E7
:104AD00077656100C80600200C070020BC06002096
:104AE00000002440BE060020C00600207B22616931
:104AF000725F74223A252E31662C226169725F68DA
:104B0000223A252E31662C226169725F6C223A2589
:104B1000647D0000483C002010B5002406E04FF4FE
:104B2000FA60FDF707F8044604B110BDF7E7016825
:104B300081600021C160704770B50346D3E900561B
:104B400035446C1E00200EE09D682D780D549D6844
:104B50006D1C9D60DD686D1EDD609D68A54201D9FC
:104B60001D689D60401C904202DADD68002DEBDC80
:104B700070BDF0B503460C46D3E900063044451E2F
:104B80001E689868801BDE6830445E6890FBF6F70C
:104B900006FB17001E68811910E0A94200D91968A8
:104BA000D86818B19868884200D109E02078087068
:104BB000491C641CD868401CD860521E002AECDCDA
:104BC00000BF1046F0BD2DE9F04786B081460E4685
:104BD00017463846FBF72DFB054605F1020840460F
:104BE000FDF70EFF04461020059000208DF804000C
:104BF00006208DF805004D208DF8060051208DF817
:104C0000070049208DF8080073208DF80900642002
:104C10008DF80A0070208DF80B0003208DF80C0031
:104C200002208DF80D0030128DF80E00F0B28DF8D4
:104C30000F00280A207065702A463946A01CFBF731
:104C4000D4FA012205A94846FFF793FF08F10C00AA
:104C500004A900F019F88246524604A94846FFF715
:104C600088FF0C2201A94846FFF783FF42462146F0
:104C70004846FFF77EFF012089F840002046FDF7F7
:104C800097FE06B0BDE8F08730B502460B4600201F
:104C900000BF1146D51702EB5565ED11A2EBC51407
:104CA000D51702EB5565EA11002A01DD44F08004B6
:104CB0001C54401C002AECD130BD002180F840106B
:104CC000C1624162816201210163704718B50446E7
:104CD00005A000680090022269462046FFF749FFC0
:104CE000E06A401CE06218BDC00000002DE9FE43F0
:104CF00080460E4617461D463046FBF79AFA044694
:104D000030200290012202A94046FFF732FFA11C89
:104D1000481901A9FFF7B8FF81464A4601A9404654
:104D2000FFF727FF200A8DF80000E0B28DF80100A0
:104D3000022269464046FFF71CFF224631464046A4
:104D4000FFF717FF2A4639464046FFF712FFBDE836
:104D5000FE8310B504462046FDF762FC10BD70B519
:104D600004460D46002604E014F8010BFDF79AFCFA
:104D7000761CAE42F8DB70BD10B586B0044601214A
:104D80000420FDF759F801214804FDF735F81B48C8
:104D9000FDF7C6FC0420ADF8140003208DF81600C2
:104DA00018208DF8170005A91548FBF703FF082008
:104DB000ADF8140004208DF8170005A91048FBF782
:104DC000F9FE01940020ADF80800ADF80A00ADF836
:104DD0000C00ADF810000C20ADF80E00012240F2DE
:104DE00025510648FDF721FD01A90448FDF742FDC4
:104DF00001210248FDF788FC06B010BD00440040C8
:104E0000000801400FB438B505A800900F48009A7B
:104E10000499FDF7BBFD002000900C48FBF709FA50
:104E200085B200240DE000BF40210948FDF7C6FC13
:104E30000028F9D00548015D0548FDF78CFD601C90
:104E400084B2AC42EFDB38BC5DF814FB283C002098
:104E50000044004010B50248FEF79AFB10BD000068
:104E6000C806002000316253C4F5A697B988DBEA72
:104E70007D4C1F2E4372211087B6E5D4FACB98A93A
:104E80003E0F5C6D86B7E4D5427320113F0E5D6C1A
:104E9000FBCA99A8C5F4A796013063527C4D1E2F1A
:104EA000B889DAEB3D0C5F6EF9C89BAA84B5E6D7EA
:104EB000407122137E4F1C2DBA8BD8E9C7F6A594FA
:104EC00003326150BB8AD9E87F4E1D2C02336051FA
:104ED000C6F7A495F8C99AAB3C0D5E6F41702312DA
:104EE00085B4E7D67A4B1829BE8FDCEDC3F2A190CA
:104EF0000736655439085B6AFDCC9FAE80B1E2D3BA
:104F000044752617FCCD9EAF38095A6B4574271699
:104F100081B0E3D2BF8EDDEC7B4A19280637645599
:104F2000C2F3A0914776251483B2E1D0FECF9CADA9
:104F30003A0B586904356657C0F1A293BD8CDFEE79
:104F400079481B2AC1F0A3920534675678491A2B79
:104F5000BC8DDEEF82B3E0D1467724153B0A596859
:104F6000FFCE9DAC944F000800000020000400001C
:104F7000C8090008B04F0008000600201801000012
:104F80006C2A0008C850000818070020B03900003B
:104F90007C2A0008411309010C1008053604011091
:104FA000A9180B14410A2401FF01FF01FF01B300FE
:104FB00000000000010203040102030406070809BF
:104FC00002040608000000000000000000000000CD
:104FD00000000000000000000000000000000000D1
:104FE00000000000000000000000000000000000C1
:104FF00000000000000000000000000000000000B1
:1050000000000000000000000000000000000000A0
:105010000000000000000000000000000000000090
:105020000000000000000000000000000000000080
:105030000000000000000000000000000000000070
:105040000000000000000000000000000000000060
:105050000000000000000000000000000000000050
:105060000000000000000000000000000000000040
:105070000000000000000000883C0020400000000C
:105080000000000000000000C40600200200000034
:105090000000000000000000E534000800000000EF
:1050A0000000000000000000000000000000000000
:1050B00000000000000000000000000000000000F0
:0850C0000000000000000000E8
:04000005080000ED02
:00000001FF
