:020000040800F2
:1000000050F800204D0100083D240008810D000833
:1000100055230008D5030008892D000800000000C2
:10002000000000000000000000000000D5280008CB
:10003000190400080000000075030008C129000829
:1000400067010008670100086701000867010008F0
:1000500067010008670100086701000867010008E0
:10006000670100080109000867010008670100082E
:1000700067010008670100086701000867010008C0
:1000800067010008670100086701000867010008B0
:1000900067010008670100086701000867010008A0
:1000A0006701000867010008670100086701000890
:1000B0006701000867010008670100086701000880
:1000C0006701000867010008670100086701000870
:1000D0006701000867010008670100086701000860
:1000E0006701000867010008670100086701000850
:1000F0006701000867010008670100086701000840
:10010000670100086701000867010008670100082F
:10011000670100086701000867010008670100081F
:10012000670100086701000867010008670100080F
:10013000DFF80CD000F0D0F8004800472D3400085C
:1001400000060020EFF30580704700000648804756
:1001500006480047FEE7FEE7FEE7FEE7FEE7FEE7AC
:10016000FEE7FEE7FEE7FEE7E929000831010008A7
:10017000124C134D256013484FF0010101604FF000
:10018000020080F31488104842680F4802600E4B4A
:10019000186887884FF0100847EA08078780D0F86A
:1001A00000C00CF1240CBCE8FF008CF30988AE46BB
:1001B00087F3038862B6304700BF000020ED00E0FF
:1001C0000000F0F04C070020140700202DE9F05F3C
:1001D0000546002092469B468846064681464024B6
:1001E0001BE0284641464746224600F065F8534644
:1001F0005A46C01A914110D311461846224600F0C3
:100200004CF82D1A67EB01084F46224601200021C9
:1002100000F043F817EB00094E41201EA4F1010441
:10022000DFDC484631462A464346BDE8F09F40EAB7
:1002300001039B0703D009E008C9121F08C0042A64
:10024000FAD203E011F8013B00F8013B521EF9D24B
:100250007047D2B201E000F8012B491EFBD2704773
:100260000022F6E710B513460A4604461946FFF782
:10027000F0FF204610BD30B505462A460B4612F861
:10028000010B13F8014B08B1A042F8D01CB10028B3
:1002900002D06D1CF1E7284630BD202A04DB203A4D
:1002A00000FA02F1002070479140C2F1200320FAC9
:1002B00003F3194390407047202A04DB203A21FAC7
:1002C00002F00021704721FA02F3D040C2F120026F
:1002D0009140084319467047064C074D06E0E06818
:1002E00040F0010394E8070098471034AC42F6D37D
:1002F000FFF722FF84450008B445000870B58C184C
:1003000010F8015B15F0070301D110F8013B2A1129
:1003100006D110F8012B03E010F8016B01F8016B16
:100320005B1EF9D12B0705D40023521E0DD401F812
:10033000013BFAE710F8013BCB1A921C03E013F8DB
:10034000015B01F8015B521EF9D5A142D8D3002010
:1003500070BD0000EFF3108072B67047EFF31080AD
:1003600062B6704780F31088704717484FF080518D
:1003700001607047EFF3108C72B6144A12681AB11C
:1003800000B590475DF804EBEFF3098020E9F01F1A
:100390000F4D2E683060B7884FF0100827EA080725
:1003A000B7800B484068286087884FF0100847EAFC
:1003B000080787800168B1E8F01F81F309888CF392
:1003C0001088704700BF000004ED00E050070020D7
:1003D0001407002000BFFEE708B50121402002F00D
:1003E00089F84020ADF8000010208DF803000320AC
:1003F0008DF802006946024800F02AFC08BD0000A2
:100400000018014010B5FFF7E7FF4021014800F058
:10041000B5FC10BD00180140704701B502E000981E
:10042000401E009000980028F9D108BD10B50024A6
:100430004FF400710C4800F0A1FC4FF47A7001F009
:10044000D9FE0CE04FF4FA73002208A108A000F0D6
:1004500055F800B110BD00F04BF9601CC4B20A2C75
:10046000F0DB00BFF6E70000000C01404F4B00003E
:100470004154000070B5A0B004460D4616462B4608
:10048000224607A102A8009602F0D8FC4FF47A7326
:10049000002209A102A800F031F820B070BD0000D0
:1004A00041542B43575341503D222573222C222582
:1004B00073222C312C2564004F4B000010B588B0FE
:1004C0000446224608A1684602F0B8FC41F288338F
:1004D000002209A1684600F011F810B1012008B00F
:1004E00010BD0020FBE7000041542B434950415010
:1004F0003D222573220000004F4B00002DE9F04102
:1005000004460F4615461E461148B0F802046FF324
:100510000E000F49A1F8020422460EA10F4802F076
:1005200070FB1FB915B90120BDE8F081304601F01C
:1005300061FE00200649B1F80214C1F30E01044A1D
:100540005054114606A002F069FC0120ECE70000BF
:10055000386B002025730D0A0000000000480040A1
:100560002573000010B586B004460CB1012000E0F0
:100570000020024606A101A802F060FC4FF4FA73C5
:10058000002207A101A8FFF7B9FF06B010BD0000C7
:1005900041542B4349504D55583D256400000000FF
:1005A0004F4B000008B50121082001F0A3FF4FF4D4
:1005B0008070ADF8000010208DF8030003208DF846
:1005C00002006946074800F043FB0121082001F0C2
:1005D00091FF4FF40070ADF800006946014800F04B
:1005E00037FB08BD000C014010B5FFF7DBFF00F042
:1005F00027F94FF40071044800F0C0FB4FF48071FC
:10060000014800F0B9FB10BD000C01402DE9F0419C
:1006100005460F464FF4FA73002210A110A0FFF711
:100620006DFF12A11348FFF726FE06460EB1B61D58
:1006300002E00020BDE8F081002409E0305D28558B
:10064000285D222802D10020285503E0601CC4B296
:10065000BC42F3DB00BF0120ECE700004F4B000081
:1006600041542B4349465352000000004150495029
:100670002C220000386B002010B5044624B1012C58
:100680000AD0022C18D10FE040F6C4130BA20EA121
:100690000EA0FFF733FF10BD40F6C41307A20AA156
:1006A0000DA0FFF72BFFF6E740F6C41303A206A147
:1006B0000CA0FFF723FFEEE70020ECE76E6F20634E
:1006C00068616E67650000004F4B000041542B438A
:1006D000574D4F44453D310041542B43574D4F44F6
:1006E000453D320041542B43574D4F44453D330067
:1006F00010B54FF40071064800F03EFB4FF4FA705D
:1007000001F078FD4FF40071014800F037FB10BD97
:10071000000C01402DE9F04186B007460C46154615
:100720001E464FF000083FB1224613A1134802F0C5
:1007300068FA4FF001081BE0052E06DAAB1C3246C2
:100740000FA101A802F07AFB04E0AA1C11A101A8E4
:1007500002F074FB6423002212A101A8FFF7CEFE71
:100760004FF4FA73002210A12046FFF7C7FE80461F
:10077000404606B0BDE8F081257300000048004007
:1007800041542B43495053454E443D25642C256428
:100790000000000041542B43495053454E443D2531
:1007A000640000003E20000053454E44204F4B00A3
:1007B00070B5BCB004460D461646FCB12B4601226E
:1007C00015A11EA802F03AFB324618A1684602F0B5
:1007D00035FB4FF4FA73002218A11EA8FFF78EFE16
:1007E00050B14FF4FA73002214A16846FFF786FE59
:1007F00010B101203CB070BD0020FBE72B46002269
:1008000005A11EA802F01AFB4FF4FA7300220BA1F7
:100810001EA8FFF773FEEDE741542B4349505345A3
:10082000525645523D25642C2573000041542B43FC
:10083000495053544F3D2573000000004F4B0000BA
:1008400000B585B00121880401F044FE0121082093
:1008500001F050FE4FF48060ADF8100018208DF8C4
:10086000130003208DF8120004A91A4800F0F0F9D3
:100870004FF40060ADF8100004208DF8130004A9B7
:10088000144800F0E5F94FF4E13000900020ADF895
:100890000400ADF80600ADF80800ADF80C000C201F
:1008A000ADF80A0069460C4802F036F9012240F220
:1008B0002551094802F00BF9012240F22441064873
:1008C00002F005F900F00AF80121034802F0BCF833
:1008D00005B000BD000C01400048004038B5FFF7EE
:1008E00039FD04460020054B0246014600902720B2
:1008F00000F030FE2046FFF735FD38BD55330008C7
:1009000010B5082000F038F800B31148007878B925
:1009100010201049486108200F49086001200C4947
:10092000087008200C49086010200A4908610AE094
:1009300007480078012806D108200749091D0860EA
:10094000022003490870082000F008F810BD0000DC
:10095000F706002000100140101401400149086012
:100960007047000014040140024909680143014A2C
:100970001160704710040140014600200022074B1F
:100980001B6803EA0102054B14331B680B4013B1CB
:100990000AB1012000E0002070470000000401407F
:1009A000002123498279002A3AD00A461268036856
:1009B0009A430B461A600A1D126803689A430B1D7E
:1009C0001A60027911440A6803681A430A60184AD7
:1009D0000832126803689A43154B08331A601A1DCF
:1009E000126803689A43124B0C331A604279102A3A
:1009F0000ED11A1F126803681A430D4B08331A6090
:100A00001A1D126803681A43094B0C331A600DE073
:100A10000749427911440A6803681A430A6005E0ED
:100A2000027911440A6803689A430A60704700001B
:100A30000004014008B510208DF8030003208DF854
:100A400002000121202001F055FD0820ADF8000032
:100A50006946244800F0FCF80121102001F04AFD0D
:100A60001020ADF8000069461F4800F0F1F80121A0
:100A7000042001F03FFD0420ADF8000069461B484A
:100A800000F0E6F80121042001F034FD0820ADF863
:100A900000006946154800F0DBF80121102001F044
:100AA00029FD2020ADF8000069460F4800F0D0F87D
:100AB0000121082001F01EFD4FF47F40ADF8000039
:100AC00004208DF8030003208DF8020069460848D1
:100AD00000F0BEF8082005491431086001491031C2
:100AE000086008BD001401400010014000080140EA
:100AF000000C014051B18200A2F1C042126842F0E4
:100B000001038200A2F1C042136009E08200A2F159
:100B1000C0421268034B1A408300A3F1C0431A601D
:100B200070470000FEFF0F00D0E901121143C268B8
:100B30001143026911434269114382691143C26939
:100B40001143026A1143426A1143826A1143C26A25
:100B50001143026B114302689200A2F1C04211607E
:100B6000816808290BD101688900A1F1C041096899
:100B700041F0400201688900A1F1C0410A60416B67
:100B80000968426B526841EA0211426B926841EA7D
:100B90000221426B928941EA0241426B128A41EA88
:100BA0000251426B127D41EA0261426B926911432C
:100BB0000268521C9200A2F1C0421160C16AB1F5F4
:100BC000804F1BD1816B0968826B526841EA021128
:100BD000826B926841EA0221826B128A41EA0251D9
:100BE000826B127D41EA0261826B92691143026855
:100BF0009200A2F1C042C2F8041107E06FF0704207
:100C000001688900A1F1C041C1F8042170470000CA
:100C100030B500228B071C0F0F2303FA04F20B4B95
:100C20008C1053F824309343084C8D1044F8253031
:100C300023468C1053F824308C07240F00FA04F458
:100C40002343024C8D1044F8253030BD080001408C
:100C50002DE9F04102460025002600200023002453
:100C6000002791F803C00CF00F0591F803C00CF0B9
:100C7000100CBCF1000F03D091F802C04CEA05053E
:100C800091F800C0BCF1000F31D0146800202BE0B7
:100C90004FF0010C0CFA00F3B1F800C00CEA0306A7
:100CA0009E4220D183004FF00F0C0CFA03F7BC4397
:100CB00005FA03FC4CEA040491F803C0BCF1280FC8
:100CC00006D14FF0010C0CFA00FCC2F814C00AE087
:100CD00091F803C0BCF1480F05D14FF0010C0CFA9C
:100CE00000FCC2F810C0401C0828D1D31460B1F831
:100CF00000C0BCF1FF0F34DD546800202EE000F18D
:100D0000080C4FF0010808FA0CF3B1F800C00CEA27
:100D100003069E4221D183004FF00F0C0CFA03F71B
:100D2000BC4305FA03FC4CEA040491F803C0BCF18F
:100D3000280F05D100F1080C08FA0CF8C2F814804D
:100D400091F803C0BCF1480F07D100F1080C4FF037
:100D5000010808FA0CF8C2F81080401C0828CED30D
:100D60005460BDE8F0810246002093680B400BB14F
:100D7000012000E000207047416170470161704729
:100D800000BFFEE710B504462CB14FF48051054872
:100D9000FFF7F2FF04E04FF480510248FFF7EEFF47
:100DA00010BD00000014014001B502E00098401E93
:100DB000009000980028F9D108BD00B597B0012136
:100DC000080201F077FB022001900020029005202C
:100DD000039000200490059006904FF080500790FB
:100DE00000200890099008200A9010200B90002005
:100DF0000C900E900F9010904FF4805011900020A6
:100E000012901390149001A81590169008A8FFF75F
:100E10008BFE01210020FFF76DFE17B000BD000022
:100E200008B50121084601F065FB0121602001F0B1
:100E300061FB03208DF8020018208DF803004CF2AE
:100E40000370ADF8000069462C48FFF701FF4FF62C
:100E50008070ADF8000069462948FFF7F9FE0320CD
:100E60008DF8020018208DF803001020ADF8000066
:100E700069462248FFF7ECFE2020ADF800006946E5
:100E80001E48FFF7E5FE0121202001F033FB802002
:100E9000ADF8000069461948FFF7DAFE012120206D
:100EA00001F028FB4FF40060ADF8000069461348DC
:100EB000FFF7CEFE10208DF8030003208DF802000E
:100EC0000121402001F016FB0220ADF80000694628
:100ED0000B48FFF7BDFE10208DF8030003208DF8AE
:100EE00002000121202001F005FB4FF48050ADF8F5
:100EF000000069460148FFF7ABFE08BD0014014041
:100F00000018014010B50446012C06D0022C29D04F
:100F1000032C4CD0042C24D16EE0362000F0D0F904
:100F2000C82000F0D1F92A2000F0CAF9002000F012
:100F3000CBF9002000F0C8F9002000F0C5F9EF203F
:100F400000F0C2F92B2000F0BBF9002000F0BCF942
:100F5000002000F0B9F9012000F0B6F93F2000F0C0
:100F6000B3F96EE0362000F0ABF9682000F0ACF980
:100F70002A2000F0A5F9002000F0A6F9002000F0DA
:100F8000A3F9012000F0A0F93F2000F09DF92B20EB
:100F900000F096F9002000F097F9002000F094F995
:100FA000002000F091F9EF2000F08EF949E03620A2
:100FB00000F086F9282000F087F92A2000F080F957
:100FC000002000F081F9002000F07EF9012000F0FF
:100FD0007BF93F2000F078F92B2000F071F9002018
:100FE00000F072F9002000F06FF9002000F06CF9B9
:100FF000EF2000F069F924E0362000F061F9482084
:1010000000F062F92A2000F05BF9002000F05CF9A2
:10101000002000F059F9002000F056F9EF2000F010
:1010200053F92B2000F04CF9002000F04DF900207E
:1010300000F04AF9012000F047F93F2000F044F9A0
:1010400000BF00BF2C2000F03BF910BD10B5FFF72A
:10105000E7FEFFF7B2FE0120FFF794FE00F01CF957
:1010600000F002F810BD000010B5CF2000F028F904
:10107000002000F029F9812000F026F9302000F04E
:1010800023F9ED2000F01CF9642000F01DF9032085
:1010900000F01AF9122000F017F9812000F014F97D
:1010A000E82000F00DF9852000F00EF9102000F086
:1010B0000BF9782000F008F9CB2000F001F9392075
:1010C00000F002F92C2000F0FFF8002000F0FCF8FE
:1010D000342000F0F9F8022000F0F6F8F72000F0D4
:1010E000EFF8202000F0F0F8EA2000F0E9F8002006
:1010F00000F0EAF8002000F0E7F8B12000F0E0F896
:10110000002000F0E1F81B2000F0DEF8B62000F02F
:10111000D7F80A2000F0D8F8A22000F0D5F8C020B7
:1011200000F0CEF8352000F0CFF8C12000F0C8F86C
:10113000112000F0C9F8C52000F0C2F8452000F0E9
:10114000C3F8452000F0C0F8C72000F0B9F8A2208D
:1011500000F0BAF8F22000F0B3F8002000F0B4F884
:10116000262000F0ADF8012000F0AEF8E02000F0FD
:10117000A7F80F2000F0A8F8262000F0A5F82420FA
:1011800000F0A2F80B2000F09FF80E2000F09CF871
:10119000092000F099F8542000F096F8A82000F0FB
:1011A00093F8462000F090F80C2000F08DF81720FE
:1011B00000F08AF8092000F087F80F2000F084F88A
:1011C000072000F081F8002000F07EF8E12000F018
:1011D00077F8002000F078F8192000F075F81B204F
:1011E00000F072F8042000F06FF8102000F06CF8A6
:1011F000072000F069F82A2000F066F8472000F088
:1012000063F8392000F060F8032000F05DF8062054
:1012100000F05AF8062000F057F8302000F054F89B
:10122000382000F051F80F2000F04EF8362000F082
:1012300047F8C82000F048F82A2000F041F80020C4
:1012400000F042F8002000F03FF8002000F03CF8E9
:10125000EF2000F039F82B2000F032F8002000F0E9
:1012600033F8002000F030F8012000F02DF83F2086
:1012700000F02AF83A2000F023F8552000F024F876
:10128000112000F01DF80348FFF78EFD292000F023
:1012900017F810BDFCBF020010B502210648FFF789
:1012A0006BFD0648FFF780FD02210348FFF766FD4E
:1012B0000248FFF779FD10BD00180140FCBF020095
:1012C0004FF0C04108807047014908807047000016
:1012D000000002602DE9F04700250FE0002409E03E
:1012E000002005EB8501654A02EB411121F814004D
:1012F000601C84B2502CF3DB681C85B2502DEDDBF2
:101300000220FFF7FFFD0025B3E0002418E000BF36
:10131000002620205A4948615A48006800F47F4658
:1013200020200861486157480068C0F30720064341
:101330002020086100BF3046FFF7C6FF601C84B262
:10134000B4F5A07FE3DB002471E000BF002620207D
:101350004B4948614B48006800F47F4620200861F3
:10136000486148480068C0F3072006432020086110
:1013700000BF3046FFF7A8FF00BF002720204049EC
:1013800048614048006800F47F47202008614861B8
:101390003C480068C0F3072007432020086100BFD5
:1013A0003046FFF791FF00BF4FF00008202034497E
:1013B00048613448006800F47F4820200861486193
:1013C00030480068C0F3072040EA08082020086180
:1013D00000BF3046FFF778FF00BF4FF00009202024
:1013E000274948612748006800F47F4920200861A8
:1013F000486124480068C0F3072040EA090920201A
:10140000086100BF3046FFF75FFFF119414401EB6F
:101410000900C11700EB9171C1F38F0105EB850243
:10142000164B03EB421222F81410601C84B2502CAD
:101430008BDB002418E000BF002620201049486103
:101440001048006800F47F462020086148610D487C
:101450000068C0F3072006432020086100BF304623
:10146000FFF732FF601C84B2B4F5A07FE3DB681C99
:1014700085B2502DFFF649AFBDE8F087180C00206B
:1014800000100140080C014010B5FFF7DFFD10BD52
:1014900008B50121082001F02DF82020ADF800004A
:1014A00010208DF8030003208DF8020069460F48D4
:1014B000FFF7CEFB0120ADF8000069460B48FFF7AF
:1014C000C7FB0220ADF8000069460848FFF7C0FBE3
:1014D00020210648FFF752FC01210448FFF74EFC8B
:1014E00002210248FFF74AFC08BD0000000C014041
:1014F00002465018401E904204D95018401E4B1E00
:1015000098437047481E22EA0000FAE710B50246E9
:1015100014462046002305E001464960096000BFEB
:101520005B1C08301B2BF7D310BD2DE9F04105469D
:101530000E462F46304600F0DDF804461E2C02D938
:101540000020BDE8F081042C00D80424201F07EB04
:10155000C000F6E72DE9F04704460D4691461E46C9
:10156000089F16B91F48BDE8F087F02C02D31D482C
:10157000401EF8E71C4904F1100051F820001B49F7
:10158000884202D01748C01CEDE70F2D02DD154838
:10159000001DE8E7FEF7DEFE80461549124A04F119
:1015A000100042F82010134941F8206000BF04F0F9
:1015B0001F01012088406109890001F1E021C1F883
:1015C000000100BF00BF802040EA0510C1B204F155
:1015D000E02080F8001400BF4046FEF7C3FE002064
:1015E000C1E700000109000200000020CD3400081E
:1015F000553500084CF0002042684A600860426897
:1016000011604160704742684A600860426811603A
:101610004160704742684A600860426811604160FA
:10162000704742684A6008604268116041607047D4
:1016300042684A6008604268116041607047D0E9C2
:1016400000121160D0E90021516000214160016069
:101650007047D0E900121160D0E9002151600021EB
:10166000416001607047D0E900121160D0E90021AB
:10167000516000214160016070470146486888421E
:1016800001D1012070470020FCE7014648688842EC
:1016900001D1012070470020FCE7014648688842DC
:1016A00001D1012070470020FCE7406000607047D6
:1016B00040600060704740600060704740600060BC
:1016C000704770B504460D4629462068FFF794FF21
:1016D00070BD70B504460D4629462068FFF793FF9C
:1016E00070BD70B504460D4629462068FFF799FF86
:1016F00070BD0000014601F0004010B16FF0704075
:1017000070474C480840002847D001F0FE40F8B12F
:1017100001F0E04058B101F0804008B11E20EFE731
:1017200001F0005008B11D20EAE71C20E8E701F0B5
:10173000406030B101F0006008B11B20E0E71A20E2
:10174000DEE701F0007008B11920D9E71820D7E7CB
:1017500001F4700080B101F4400030B101F40000E8
:1017600008B11720CCE71620CAE701F4001008B131
:101770001520C5E71420C3E701F4402030B101F47F
:10178000002008B11320BBE71220B9E701F40030B4
:1017900008B11120B4E71020B2E701F47F4020B374
:1017A00001F4704080B101F4404030B101F40040D8
:1017B00008B10F20A4E70E20A2E701F4005008B101
:1017C0000D209DE70C209BE701F4406030B101F44F
:1017D000006008B10B2093E70A2091E701F4007044
:1017E00008B109208CE708208AE701F0F00080B1F9
:1017F00001F0C00030B101F0800008B107207FE7A0
:1018000006207DE701F0200008B1052078E70420DC
:1018100076E701F00C0030B101F0080008B10320B8
:101820006EE702206CE701F0020008B1012067E7D3
:10183000002065E70000FF7F2DE9F04105460C46DA
:101840000026FEF787FD074600BF05B104B909E091
:1018500004F0004000B105E02146284601F0D5FE25
:10186000064600BF00BF3846FEF77CFD3046BDE8A7
:10187000F0812DE9F05F80460F4614464FF00009D5
:10188000CA4600250026FEF765FD834600BFB8F175
:10189000000F00D007B91BE0381900F1040909F066
:1018A000004000B114E04946404601F0AEFE054656
:1018B0002819401E611E20EA0106B54200D107E04A
:1018C000A6EB050A4AF0804A46F804AC354600BF4C
:1018D00000BF5846FEF746FD2846BDE8F09F2DE9BB
:1018E000F04705460C4601270026FEF733FD8146EA
:1018F00000BFB04605B104B914E054F8046C06F01A
:10190000804010B126F08046A41BA4F11008414687
:10191000284601F0A8FE07461FB92946404601F0B7
:1019200016FF00BF00BF4846FEF71CFD3846BDE865
:10193000F0872DE9F0470446884600250027002659
:10194000A94614B1B8F1FF0F03D84FF0FF30BDE83E
:10195000F087FEF7FFFC8246264634463660C6F81E
:10196000048004F10800FFF7D1FD04F1E005281B15
:10197000A8EB00001038E8600020A86004F108001F
:10198000E968FFF7D2FD8146B9F1000F05D1504655
:10199000FEF7E8FC4FF0FF30D9E700BF2946D9F841
:1019A0000000FFF745FE00BF04EB0800A0F11007A0
:1019B000002038607860B860F860BD601020F86082
:1019C000F86840F00040F860384601F04BFF5046A0
:1019D000FEF7C8FC0020BAE72DE9F04105462F4686
:1019E0000026002415B90020BDE8F081FEF7B2FC06
:1019F000804607F10806306820B1346820683060FE
:101A0000044820604046FEF7ADFC0CB90020EBE72F
:101A1000201DE9E7A55A5AA52DE9F04705460E46CF
:101A20002C46012705B116B90120BDE8F087FEF765
:101A300091FC804600BF311F20460A46D0F800C006
:101A4000BCF1000F02D14FF0010C25E000F10C0CAD
:101A5000A2EB0C03D0F800C0B3FBFCF90CFB193C63
:101A6000BCF1000F02D04FF0010C15E0D0F800C01F
:101A7000B3FBFCFCD0F80490CC4502D34FF0010C32
:101A80000AE0DFF83490D2F800C0CC4502D04FF025
:101A9000010C01E04FF0000CBCF1000F00D004E09D
:101AA000A0680860A160002700BF00BF4046FEF7A5
:101AB00059FC3846B9E70000A55A5AA52DE9F04768
:101AC00006460F4690463446002516B90120BDE86B
:101AD000F087B8F1000F01D10120F8E70C2F01D2F7
:101AE0000120F4E7FEF736FC824608F1070020F0FB
:101AF00003002060A7F10C002168B0FBF1F06060EA
:101B0000606820B95046FEF72DFC0120DFE704F1A4
:101B10000C05A5604FF0000905E020682844286006
:101B20002D6809F101096068401E4845F5D800207C
:101B300028605046FEF716FC0020C8E700BFD0E939
:101B400000121160D0E90021516000214160016064
:101B500000BF704710B50A460649096801EBC20389
:101B600019684C68446001604C682060486000BFA0
:101B700000BF10BDFC060020014600200022074BDC
:101B80001B6803EBC1035A6801E0401C5268034B19
:101B90001B6803EBC1039342F7D17047FC0600209A
:101BA00000210020014612E00B4A126802EBC1003E
:101BB0004268824201D1012200E000222AB906488F
:101BC000006800EBC10040687047481C01462029AE
:101BD000EAD30020F8E70000FC0600202DE9F84FCA
:101BE00081460C4615469A460A9E15B91948BDE825
:101BF000F88F4FF6FB70864202DD16480938F6E78B
:101C000004B116B91348401CF1E7FEF7A3FB804668
:101C1000301D82B26B462946204601F0C5FE0746BC
:101C200027B14046FEF79EFB3846E0E700981430A7
:101C3000FFF741FD00981C30FFF73DFD0098243070
:101C4000FFF739FD0098C4814046FEF78BFB00206A
:101C5000CDE700000C0600022DE9FC5F80460F4630
:101C600091461E4600200090A8F1010BBBF10A0F1F
:101C700002D34048BDE8FC9F17B93E48401CF9E735
:101C8000B9F1000F02D13B48801CF3E72EB13A486E
:101C9000006810B137480A30ECE7FEF75BFB0190B3
:101CA0000BEB4B0000EBCB003449096801EB8004DF
:101CB000A08820B900BF2F480E30009054E0208A41
:101CC00050BB26B900BF2B480F3000904CE02C4889
:101CD000008820B100BF27480838009044E0294818
:101CE0000568324604F11C01284601F0B1FE019856
:101CF000FEF738FB00F0E6F8FEF72CFB01902879A0
:101D000000F0400058B1A88820F04000A88000BF33
:101D10001848C01F009027E0208A401E2082618959
:101D20002289206801FB020ADAF800003860608925
:101D3000401C80B26081E188884201D1002060812E
:101D400004F11400FFF7A1FC50B904F1140001F0F4
:101D5000C1FE0198FEF706FB00F0B4F8002089E709
:101D6000E089401CE08100BF0198FEF7FBFA009873
:101D700080E700000E060002980700207C07002084
:101D80001C070020140700202DE9FC5F81460F4648
:101D900090461E4600200090A9F1010BBBF10A0FEE
:101DA00002D34348BDE8FC9F17B94148401CF9E7FE
:101DB000B8F1000F02D13E48801CF3E72EB13D4838
:101DC000006810B13A480838ECE7FEF7C3FA019012
:101DD0000BEB4B0000EBCB003749096801EB8004AB
:101DE000A08820B900BF3248C01C00905BE0208969
:101DF000404504D200BF2E48001D009053E0E0890A
:101E000050BB26B900BF2A48401D00904BE02B482C
:101E1000008820B100BF26480B38009043E02848D6
:101E20000568324604F11401284601F011FE0198BC
:101E3000FEF798FA00F046F8FEF78CFA0190287940
:101E400000F0400058B1A88820F04000A88000BFF2
:101E500017480A38009026E0E089401EE081A189F9
:101E60002289206801FB020ACAF80070A089401C80
:101E700080B2A081E188884201D10020A08104F1D4
:101E80001C00FFF702FC50B904F11C0001F022FE17
:101E90000198FEF767FA00F015F8002082E7208A23
:101EA000401C208200BF0198FEF75CFA009879E799
:101EB00011060002980700207C0700201C07002064
:101EC0001407002010B5FEF745FA0446FFF768FE38
:101ED0003C380A494860084600684968884208D08A
:101EE0000748008828B92046FEF73CFAFEF73DFA7D
:101EF00010BD2046FEF736FA00BFF9E714070020B0
:101F00001C0700202DE9F04106462A48006800EB36
:101F100006150A2E02D32848BDE8F081FEF71AFA0A
:101F20000746287820B93846FEF71CFA2248F3E71E
:101F300068884FF6FE71884205D13846FEF712FADE
:101F40001D48C01DE8E705F10800FFF7A6FB48BBE8
:101F5000E868A0F13C04E868FFF77BFBA08820F06C
:101F60000800A080207900F0400030B1204602F047
:101F7000EBF9A08820F04000A0800020A06120792B
:101F800000F0020040B9A08840F00400A080E18881
:101F900004F13C00FFF7DEFD3846FEF7E3F9FFF7FA
:101FA00091FF05E06888401C68803846FEF7DAF942
:101FB0000020B1E7880700200107000210B502F0F9
:101FC00097F904460CB1204610BDFEF7D1F8204623
:101FD000FAE700002DE9F04105460F460026394694
:101FE000284600F045F8064616B13046BDE8F081B7
:101FF000286800EB800101EBC0001949096801EB7A
:10200000C004FEF7A7F98046A08820F00200A08057
:10201000A08840F00400A080E18804F13C00FFF7B4
:1020200099FDFFF7BDFD3C380E4948600E48006839
:1020300088B10E48008870B908460068496888422F
:1020400009D00A48008830B94046FEF78BF901F004
:102050007DFD0020CAE74046FEF784F90020C5E771
:1020600010070020140700204C0700201C07002048
:102070002DE9F05F07460D464FF000094FF0FF3A9B
:1020800017B95748BDE8F09F15B95548801FF9E7C3
:10209000E86910B95248801EF4E7286810B9504822
:1020A000C01EEFE7A8881F2802DD4D48001FE9E7A2
:1020B000A869B0F5004F02D949481930E2E7A8698C
:1020C00010B94FF43470A8610821A869FFF710FA1D
:1020D000A86110214FF49870FFF70AFAA9698842A5
:1020E00002D93F48401ECDE7FEF734F9834611E0A0
:1020F0003C484068A0F13C043A494868FFF79FFA21
:1021000004F13C013848FFF777FA3848E168006885
:10211000FFF7E5FB3348FFF7B0FA0028E8D0324874
:10212000FFF7ABFA28B1DFF8B8A00AF10A0A00BF3E
:1021300051E02D484068A0F13C042B494868FFF766
:102140007EFA5846FEF70EF9D4F810900822274878
:10215000A9690068FFF78DFB06465EB9FEF7FAF83D
:10216000834604F13C012048FFF746FADFF880A0DF
:1021700000BF30E032464846A96902F037F9804690
:10218000C4F80080A868A062E968E1622969216357
:1021900069696163E660A869A0600020A061E061F0
:1021A00060620220A080A088296A09B1802100E035
:1021B00000210843A080A888E080286860614FF073
:1021C000FF3020650020E065E869A06300206066BC
:1021D000C7F8009056E75846FEF7C4F8504651E756
:1021E000070200023C070020340700208C07002073
:1021F0000002000370B504461948006808B1194888
:1022000070BD1948008808B11848F9E714B900F002
:102210005FF8F5E7FEF79EF805461549096801F1F4
:102220003C00FFF78BFC12480068808820F0040017
:102230000F49096888800E490868214601F0EAFDC7
:102240000B480068808840F02000094909688880B0
:102250002846FEF787F8FFF735FE0020D0E700009C
:10226000980700200D0200031C0700200E02000248
:102270001407002010B5FEF76DF8044604480088E6
:10228000401C034908802046FEF76CF810BD000092
:102290001C07002010B5FEF75DF804460B480088C7
:1022A00000280DDD09480088401E084908800846BE
:1022B000008828B92046FEF755F8FFF703FE10BD49
:1022C0002046FEF74FF800BFF9E700001C0700208A
:1022D00070B500241C48006800691C4909688842E0
:1022E00001D31B4870BDFEF735F80546164909684D
:1022F000C888FFF741FC0446012C17D91249096828
:1023000001F13C00FFF79BF90F480068808840F01E
:1023100004000D49096888800B4A1268D1880A4A6E
:10232000126802F13C00FFF715FC05E02846FEF7B5
:1023300019F807480930D5E72846FEF713F8FFF7E4
:10234000C1FD0020CEE70000140700202007002078
:102350000702000200BFFEE708B50025FEF744F9BA
:10236000002600BF00F05CFF14212D48FDF778FF28
:1023700055E00123322269462A480068FFF76CFCC9
:102380000646002E42D02848B0F80204C00B58B3CD
:10239000002240F22551254800F099FB00202249F7
:1023A000B1F80214C1F30E011F4A505420A1104687
:1023B000FDF761FF040002D0201D02F05BF81A480F
:1023C000B0F802046FF30E001749A1F802040846A2
:1023D000B0F8020420F40040A1F80204012240F207
:1023E0002551124800F073FB13480078AA2808D141
:1023F0006D1CB5F57A7F08D30025022002F046F85F
:1024000003E014210648FDF72BFF08E014220448DE
:102410000099FDF70CFF022002F038F800BFA8E792
:102420000408002014060020386B002000480040FB
:10243000494579650000000055060020704710B539
:1024400000F0EEF8FEF7F6FA10BD000038B50024F3
:10245000002000908021122000F014FA08B9FF201B
:1024600038BD0B220121684600F00CF908B9FF20A5
:10247000F6E79DF80000212814D100240DE00B4A56
:1024800002EB44025178094A12F8140000F0FAF9FC
:1024900008B9FF20E4E7601C84B205480078844254
:1024A000EDDB01E0FF20DBE70120D9E75C0600203F
:1024B000F606002029B1064A52690243044B5A61CC
:1024C00004E0034A52698243014B5A61704700009D
:1024D0000010024029B1064AD2690243044BDA6176
:1024E00004E0034AD2698243014BDA61704700007D
:1024F0000010024029B1064A92690243044B9A61D6
:1025000004E0034A92698243014B9A6170470000DC
:102510000010024030B500210022002400232D4D80
:102520006D6805F00C0121B1042905D0082923D1DB
:1025300005E0294D056022E0274D05601FE0254D8F
:102540006D6805F47012234D6D6805F48034022522
:1025500005EB92421CB9214D554305600BE01D4D22
:102560006D6805F400351DB11C4D5543056002E052
:10257000194D5543056002E0174D056000BF00BFCF
:10258000144D6D6805F0F0010909154D6B5C056887
:10259000DD4045600F4D6D6805F4E061090A104D9E
:1025A0006B5C4568DD4085600A4D6D6805F46051DF
:1025B000C90A0B4D6B5C4568DD40C560054D6D6813
:1025C00005F44041890B074D6B5CC568B5FBF3F51D
:1025D000056130BD0010024000127A0000093D0084
:1025E000000600201006002010B540210B48FEF721
:1025F000C3FB00F067F980210848FEF7BDFB00F03F
:1026000061F940210548FEF7B9FB00F05BF9402174
:102610000248FEF7B1FB00F055F910BD0010014073
:1026200008B501211020FFF765FFC020ADF80000BC
:1026300003208DF8020014208DF80300694602483B
:10264000FEF706FB08BD00000010014010B5402158
:102650000B48FEF791FB00F035F980210848FEF7A2
:102660008DFB00F02FF940210548FEF787FB00F0B5
:1026700029F940210248FEF77FFB00F023F910BD45
:102680000010014070B505460C46164600F08EF865
:1026900008B9002070BD422000F05CF800F0CCF8D2
:1026A00018B900F0ADF80020F4E7304600F052F819
:1026B00000F0C2F800F0A4F800F078F808B90020A3
:1026C000E8E7432000F046F800F0B6F818B900F04B
:1026D00097F80020DEE70CE000F012F82870012CDB
:1026E00002D1FFF7B3FF01E0FFF77EFF6D1C601E14
:1026F00084B2002CF0D100F083F80120CAE700007A
:1027000070B50825002480211148FEF737FB14E03E
:102710006006040E40210E48FEF72EFB00F0D2F8B2
:1027200040210B48FEF72AFB00F0CCF88021084836
:10273000FEF719FB08B144F001042800A5F10101DE
:10274000CDB2E5D140210248FEF716FB204670BD10
:102750000010014070B5044608251BE040211248D6
:10276000FEF70AFB00F0AEF804F0800020B18021F3
:102770000D48FEF703FB03E080210B48FEF7FCFA4F
:102780006006040E00F09EF840210748FEF7F6FAB6
:1027900000F098F82800A5F10101CDB2DED140216A
:1027A0000148FEF7E9FA70BD0010014010B5802124
:1027B0001248FEF7E3FA40211048FEF7DFFA00F076
:1027C00081F880210D48FEF7CEFA08B9002010BD2F
:1027D00080210A48FEF7D0FA00F074F880210748FB
:1027E000FEF7C1FA08B10020F1E780210348FEF7A7
:1027F000C3FA00F067F80120E9E70000001001408B
:1028000010B540210B48FEF7B7FA00F05BF88021C5
:102810000848FEF7B1FA00F055F840210548FEF7E8
:10282000ADFA00F04FF880210248FEF7A7FA00F059
:1028300049F810BD0010014010B540211048FEF7C6
:102840009BFA00F03FF880210D48FEF797FA00F060
:1028500039F840210A48FEF791FA00F033F8802158
:102860000748FEF780FA28B140210548FEF784FAB0
:10287000002010BD40210248FEF77EFA0120F8E753
:102880000010014070B504460D46FFF78FFF08B9F0
:10289000002070BD4220FFF75DFFFFF7CDFF18B9A4
:1028A000FFF7AEFF0020F4E7E0B2FFF753FFFFF7BA
:1028B000C3FF2846FFF74EFFFFF7BEFFFFF7A0FF5D
:1028C0000120E6E74FF4C87001E0411E88B20028FD
:1028D000FBD17047704710B500F002F810BD000042
:1028E0000CB50020019000903348006840F480301F
:1028F0003149086000BF3048006800F400300090A3
:102900000198401C0190009818B90198B0F5A06F8B
:10291000F1D12948006800F4003010B10120009086
:1029200001E0002000900098012843D1234800686E
:1029300040F01000214908600846006820F00300BC
:1029400008600846006840F0020008601A484068C5
:10295000194948600846406848600846406840F4A5
:10296000806048600846406820F47C104860084653
:10297000406840F4E81048600846006840F0807005
:10298000086000BF0C48006800F000700028F9D013
:102990000948406820F0030007494860084640683D
:1029A00040F00200486000BF0348406800F00C009F
:1029B0000828F9D10CBD00000010024000200240A0
:1029C00010B50848D0E900305A1C40F10000054914
:1029D000C1E9002001F0DCFC01F09EFB01F008FAE7
:1029E00010BD00005807002010B51348006840F0E3
:1029F00001001149086008464068104908400E4926
:102A00004860084600680E4908400B4908600846BF
:102A1000006820F4802008600846406820F4FE002A
:102A200048604FF41F008860FFF755FF4FF00060CB
:102A30000449086010BD0000001002400000FFF8CB
:102A4000FFFFF6FE08ED00E021B1828942F400525A
:102A5000828104E082894DF6FF731A4082817047BB
:102A600002460020B1F5007F00D100BF13880B4063
:102A70000BB1012000E00020704770B50246002431
:102A800000230025002040F66A16B14200D100BFA5
:102A9000C1F3421501F01F03012606FA03F3012DCD
:102AA00002D19689334006E0022D02D1168A3340C6
:102AB00001E0968A33400C12012606FA04F41688C7
:102AC000344013B10CB1012000E0002070BDF0B51E
:102AD0000346002400260025002040F66A17B9426C
:102AE00000D100BF1846C1F3421401F01F060127B0
:102AF00007FA06F5012C01D10C3004E0022C01D1BB
:102B0000103000E014301AB107682F43076002E06C
:102B10000768AF430760F0BD2DE9F04786B0054672
:102B20000E460024A24600BFA1460027B08900B18E
:102B300000BF2F462C8A4CF6FF700440F0880443F7
:102B40002C82AC894EF6F3100440B08831890843DA
:102B5000718908430443AC81AC8A4FF6FF400440BE
:102B6000B0890443AC8201A8FFF7D4FC1F48874218
:102B700002D1DDF810A001E0DDF80CA0A88900F476
:102B8000004040B10AEBCA0000EB0A10316849006E
:102B9000B0FBF1F807E00AEBCA0000EB0A1031685D
:102BA0008900B0FBF1F86420B8FBF0F004012009C3
:102BB000642101FB1089A88900F4004040B1322053
:102BC00000EBC900B0FBF1F000F00700044308E09F
:102BD000322000EB09106421B0FBF1F000F00F008F
:102BE00004432C8106B0BDE8F087000000380140A6
:102BF00001468888C0F308007047C1F3080282804C
:102C000070470FB470B586B006460CA8019073E00B
:102C10000B9800785C281CD10B98401C0B90007816
:102C20006E2809D072280FD10D213046FFF7E5FF3D
:102C30000B98401C0B900BE00A213046FFF7DDFF9C
:102C40000B98401C0B9003E00B98401C0B9000BFAE
:102C50004BE00B980078252840D10B98401C0B9036
:102C60000078642818D0732833D1019810C80190D7
:102C70000BE021783046FFF7C0FF00BF80213046CF
:102C8000FFF7EEFE0028F9D0641C20780028F0D170
:102C90000B98401C0B9020E0019820C801900A225C
:102CA00002A9284600F024FB02AC0BE02178304654
:102CB000FFF7A3FF00BF80213046FFF7D1FE0028B9
:102CC000F9D0641C20780028F0D10B98401C0B90A0
:102CD00003E00B98401C0B9000BF06E00B9810F827
:102CE000011B0B903046FFF788FF00BF8021304664
:102CF000FFF7B6FE0028F9D00B980078002887D19E
:102D000006B070BC5DF814FB00B585B001218803E6
:102D1000FFF7F0FB01210420FFF7ECFB4FF40070FC
:102D2000ADF8100018208DF8130003208DF8120064
:102D300004A91348FDF78CFF4FF48060ADF8100034
:102D400004208DF8130004A90D48FDF781FF4FF40E
:102D5000E13000900020ADF80400ADF80600ADF8B9
:102D60000800ADF80C000C20ADF80A0069460548D3
:102D7000FFF7D2FE01210348FFF766FE05B000BD54
:102D8000000801400038014000BFFEE71CB50321E8
:102D90000220FDF73DFF0820009000208DF8040080
:102DA0000C208DF8050001208DF806006846FDF71F
:102DB000F7FD0820FDF7D8FD1CBD000008B5012176
:102DC0001020FFF797FB0820ADF8000004208DF8D5
:102DD000030003208DF8020069460248FDF738FF22
:102DE00008BD00000010014010B5FFF7E7FFFFF736
:102DF000CDFF00F001F810BD38B5FDF7ABFA044681
:102E00000020054B0246014600900920FEF7A2FB78
:102E10002046FDF7A7FA38BDD13300080FB4054BA3
:102E200010B503A9044A029800F02CF810BC5DF814
:102E300014FB0000D93100089C0700200FB4084B98
:102E400010B504A902AA039800F01CF8044602A9D0
:102E5000002000F077F9204610BC5DF814FB00005C
:102E60004531000802E008C8121F08C1002AFAD143
:102E700070477047002001E001C1121F002AFBD1FA
:102E8000704700002DE9FF4F8DB09B460F4604466A
:102E9000002606E025280BD05A460F999047641C5F
:102EA000761C20780028F5D111B03046BDE8F08FAF
:102EB0000025A8460122984900E0054314F8013F87
:102EC000203B02FA03F00842F7D120782E2817D1D0
:102ED00014F8010F45F004052A280ED06FF02F02D8
:102EE0002078A0F1300109290AD808EB880102EB0B
:102EF000410100EB0108641CF2E757F8048B641CE5
:102F000020786C280DD004DC4C2812D06A2811D10E
:102F100004E074280DD07A280CD10AE045F400159D
:102F200007E0617845F48015814202D1641C05F503
:102F30008015641C2278692A45D008DC002AB3D0A9
:102F4000582A69D0632A10D0642A08D13BE0702A3D
:102F500067D0732A13D0752A5CD0782A5CD01046CB
:102F60005A460F999047761CD3E017F8040B8DF85A
:102F7000000000208DF80100E946012003E057F829
:102F8000049B4FF0FF3069074FF0000501D40AE0C1
:102F90006D1C45450DDA8542FADB19F8051000294C
:102FA000F6D106E06D1C8542FCDB19F805100029FE
:102FB000F8D12E4404E019F8010B5A460F999047B6
:102FC0006D1EF8D2A5E00A200021CDE90801C5F365
:102FD000025002280DD001CFC117031E71F100036A
:102FE0000DDA4FF0000CD0EB0C006CEB01012D233F
:102FF00008E0FF1D27F00707F7E80201EDE72B05C2
:1030000004D52B238DF8283001233BE0EB0739D082
:103010002023F7E70A2000E010200021CDE9080175
:1030200007E01020002145F00405CDE908014FF02C
:103030000808C5F3025002280FD001CF00214FF03D
:10304000000A2B071FD5702A0DD0DDE908C38CF0CC
:10305000100C5CEA030C0CD015E0FF1D27F00707ED
:10306000F7E80201EBE740228DF828204FF0010A33
:103070000BE050EA010306D030238DF828308DF89C
:10308000292002239A46582A04D024A20DF12009AF
:103090000B9209E026A2F9E7DDE90823FDF796F88F
:1030A0000B9B9B5C09F8013D50EA0102F4D1ADEBAA
:1030B000090020300890680701D44FF001080899F2
:1030C000884502DDA8EB010000E0002080460025D5
:1030D00006E00AA85A46405D0F9990476D1C761C81
:1030E0005545F6DB04E030205A460F999047761C90
:1030F000B8F10001A8F10108F5DC05E019F8010BB1
:103100005A460F999047761C0899481E0890002946
:10311000F4DC641CC5E600000928010030313233BC
:103120003435363738396162636465660000000003
:1031300030313233343536373839414243444546ED
:10314000000000000A68531C0B60107070470000FC
:1031500010B58AB000240120ADF8080009A008903D
:103160000A4801904FF4347007908020099001A91B
:103170000748FEF72FFF044614B120460AB010BDE1
:103180002046FBE74D73675461736B0059230008B9
:103190004C06002010B58AB000240120ADF80800CC
:1031A00009A008900A4801904FF4347007908020DD
:1031B000099001A90748FEF70DFF044614B1204607
:1031C0000AB010BD2046FBE77461736B310000004C
:1031D000154500084C06002070B504460D46E1B2C6
:1031E0000548FFF70AFD00BF80210348FFF738FCC0
:1031F0000028F9D0204670BD0038014010B5FEF718
:1032000047F9FFF781FDFDF7FDF8FEF73DF9FFF700
:1032100016F900BFFFF71AF90128FBD110BD000015
:10322000F0B599B0002400250026002764216846E7
:10323000FDF716F86420FEF7DDFF4FF480711B48A0
:10324000FDF79CFDFDF7F2F80120FDF715FA00BF30
:1032500017A0FDF733F90028FAD000BF002218A10B
:103260001AA0FDF707F90028F8D00120FDF77AF938
:1032700000BF1AA21BA10120FDF79AFA0028F8D07E
:1032800014216846FDF7C2F91848B0F802046FF33C
:103290000E001649A1F802040846B0F8020420F412
:1032A0000040A1F8020419B0F0BD0000000C01407C
:1032B0003139322E3136382E3132332E313730001B
:1032C00077696C64666972650000000042696E6728
:1032D00068756F4C696E6B5F7A7878003138303082
:1032E000000000003830383000000000386B00204B
:1032F000F0B503460D461646002729460A2E03D090
:10330000002008702846F0BD33B9302001F8010BC9
:10331000002008702846F6E7002B03DA2D2001F87C
:10332000010B5B4242F210720DE093FBF2F404B920
:1033300037B104F1300001F8010B04FB123301270F
:103340000A2092FBF0F2002AEFDC002008702846E9
:10335000D9E7000010B540F225511B48FFF78DFB5F
:10336000D8B11948FFF744FCC4B21848B0F80204B9
:10337000C0F30E0040F2FF3188420EDA1349B1F873
:103380000214C1F30E00411C104AB2F8022461F38A
:103390000E020E49A1F802240C5440F224410A48BE
:1033A000FFF76BFB01280DD10848B0F8020420F4A8
:1033B000004000F500400549A1F802040248FFF76B
:1033C00017FCC4B210BD000000480040386B00205C
:1033D00010B50820FDF7D0FA00B31148007878B98D
:1033E00010201049486108200F49086001200C494D
:1033F000087008200C49086010200A4908610AE09A
:1034000007480078012806D108200749091D0860EF
:103410000220034908700820FDF7A0FA10BD000043
:10342000F7060020001001401014014010B500F014
:10343000B9F804460CB1012010BD00F005F8FEF704
:10344000BDFD00BFFEE7000038B50024FFF7D6FE43
:103450002020104908601048FCF7DFFFFFF79AFEB4
:1034600004460CB1204638BDFFF772FE04460CB18D
:103470002046F8E732200023084A1421009008A0D3
:10348000FEF7ACFB04461CB1214608A0FFF7C6FCC2
:103490002046E8E7140C0140FFFF0F00140600204F
:1034A0004D73675175657565000000006372656155
:1034B0007465207175657565206661696C757265E6
:1034C000212C6572726F723A25780A00FCF73AFE79
:1034D00000BFFEE7102004E00649074A42F820102A
:1034E000401CFF28F8D90449044A11600449121D00
:1034F00011607047CD3400080000002008ED00E0A6
:103500000007FA0500BFFEE710B58AB0242101A824
:10351000FCF7A6FE0A4801904FF4A060079009A0AE
:1035200008901F20ADF8080001A90948FEF752FDD8
:10353000044614B120460AB010BD0020FBE700008D
:103540000535000849646C65436F726530303000A2
:103550002407002070B5FCF7FDFE05460F48006803
:10356000401C0E4908602846FCF7FCFEFCF7EAFD0B
:1035700004460B4850F8240018B1094951F82400BA
:103580008047FCF7E7FE054604480068401E0349F3
:1035900008602846FCF7E6FE70BD00009807002092
:1035A0004CF0002010B500F0C3FA00F099F9044681
:1035B0000CB1204610BDFFF78DFF00F0E1FC044682
:1035C0000CB12046F6E700F0C5FA04460CB12046DF
:1035D000F0E700F097F904460CB12046EAE700F066
:1035E0001BFA04460CB12046E4E700F0DFFA04467B
:1035F0000CB12046DEE700F0F1FEFFF785FF044640
:103600000CB12046D6E70020D4E72DE9F04107466B
:103610000E46002406F1130020F003052946384623
:1036200000F06DF8044614B90020BDE8F08105F102
:103630001400E168814204D32A462146384600F04E
:1036400021F92046FEF70FF8204600F00BF9E0685C
:1036500040F00040E060E16821F0004000F03EFDF5
:1036600004F11000E1E72DE9F84F05460C462E461F
:1036700005F1E00870682844A0F1100A7068471945
:103680004FF000092B46524641462046009700F075
:10369000B7F810B90120BDE8F88FE06800F00040ED
:1036A00008B90120F7E7E06820F0004000EB0409CA
:1036B0002B46524641464846009700F0A1F808B90B
:1036C0000120E8E7D9F80800A04201D00120E2E794
:1036D000444512D000972B4652464146A06800F060
:1036E0008FF808B90120D6E7A068C16821F0004131
:1036F0000844A04201D00120CDE70020CBE770B5FF
:1037000005460E460024314605F10800FDF70DFF81
:10371000044618E000206168084605E0C168B1422F
:1037200000D370BD41680846A042F7D105F10800FA
:103730002146024602F1D0038B4201D1002301E071
:1037400001F108031C46002CE4D10020E9E72DE933
:10375000F04104460E460027B846E16821F00040DB
:1037600000F0A2FCE06820F00040E060A06848B3F0
:10377000A068C06800F0004020BBA568204600F0AB
:103780005EF8E86820F000404719F86800F0004053
:1037900028B93846FDF767FF384600F050F828464C
:1037A000FDF761FF06F10800E968FDF7BEFE8046FF
:1037B000B8F1000F01D1BDE8F08129464046FDF780
:1037C00037FF1BE0E06820F000400719F86800F0C0
:1037D000004028B93846FDF746FF384600F02FF87C
:1037E00006F10800E168FDF7A0FE8046B8F1000F81
:1037F00000D1E0E721464046FDF71AFF00BFDAE7B7
:1038000030B50446039DA14201D8944201D900205D
:1038100030BDE06800F0004038B120686040401CD6
:1038200008B10020F4E70120F2E72068984202D3B3
:103830002068A84201D30020EAE70120E8E7002140
:103840008268D268C3681A448368DA60C268111853
:1038500082688A6000BF002202604260826000BF0E
:1038600070470000C14301600549096821B104495E
:1038700009680969416002E04FF0FF31416070471B
:10388000140700202DE9F04780460D461646002417
:103890000027A146AC19A560E868801BE060EE60D7
:1038A000E06820F000400719BC60F86800F00040B4
:1038B00028B93846FDF7D7FE3846FFF7C0FF08F1B4
:1038C0000800E168FDF731FE8146B9F1000F01D132
:1038D000BDE8F08721464846FDF7AAFE00BFF7E79E
:1038E00010B50648064908604FF4004104480068D6
:1038F000FEF71FF80446204610BD00000C700020A3
:103900008C07002070B51248FDF7D2FEF021114857
:103910000068FDF791FF104908600846006808B983
:103920000E4870BD00240EE004EB44000A4909680B
:1039300001EBC0056C600020287005F10801044807
:10394000FDF7C7FE641C0A2CEED30020E9E7000057
:10395000740700208C07002070070020001D000263
:1039600070B5002400254FF4807529460C48006886
:10397000FDF762FF0B4908600846006800B970BD9A
:103980000020044608E00749096801EBC4004060D4
:10399000006000BF601C0446202CF4D300BFEEE79B
:1039A0008C070020FC0600202DE9F04706468846DB
:1039B0001746994615480468002507E0A08818B9FD
:1039C000681CC8F8000003E06D1C2C340A2DF5D3E8
:1039D00000BF0A2D02D10E48BDE8F0872C212046F9
:1039E000FCF73EFC06FB07F10A480068FDF724FFE0
:1039F0002060206810B90648801EEDE7E680278128
:103A00000120A080C9F800400020E5E77C070020E5
:103A1000040600028C07002010B54FF4DC71094841
:103A20000068FDF709FF084908600846006808B902
:103A3000064810BD4FF4DC7103480068FCF710FC29
:103A40000020F6E78C0700207C070020010600021A
:103A50002DE9F04104460D4617464FF000080026B8
:103A600004F13C00FEF76AF8A08820F00400A08072
:103A700004F13C08A08840F40050A0802846FDF7DF
:103A800004FE30B100BF41462868FDF7C3FD00BF0A
:103A900014E06868A0F13C0607E0E088F1888842FD
:103AA00000DA06E0306CA0F13C0606F13C00A842CA
:103AB000F3D100BF4146F06BFDF7ACFD781C38B187
:103AC000A08840F04000A0803946204600F0A2F9CE
:103AD000BDE8F08170B505466868A0F13C046868EF
:103AE000D0E900121160D0E900215160002141604D
:103AF000016000BFA08820F40050A080207900F071
:103B0000400030B1204600F01FFCA08820F04000AB
:103B1000A080207900F0020040B9A08840F00400A5
:103B2000A080E18804F13C00FEF714F870BD0000AD
:103B300010200349086003480349086070470000EB
:103B4000200700200CF000209007002010B5FCF7A3
:103B50000CFC10BD70B51148FDF7B0FDA021104858
:103B60000068FDF769FE0F4908600846006808B95B
:103B70000D4870BD00240CE00A48006800EB0415F5
:103B80006C600020287005F108010448FDF7A9FDCC
:103B9000641C0A2CF0D30020EBE700008007002013
:103BA0008C07002088070020000700022DE9F84359
:103BB0000020224908604FF4007841462048006800
:103BC000FDF73AFE044614B91E48BDE8F8834146A5
:103BD0002046FCF745FB1C4804601C48046000209C
:103BE000208125462034012705E027812C602546C9
:103BF000781C87B22034102FF7DB0822D02114481C
:103C0000FDF75CFF064616B10E48C01CDDE7042038
:103C10000023104A102100901846FDF7DFFF0646EA
:103C200016B10848001DD0E700F06EF8064616B140
:103C30000448401DC9E70020C7E700000C0700202A
:103C40008C0700200703000204070020080700205B
:103C50003C6F00200007002010B50022002183796E
:103C60003BB9437913B14379022B02D14369C36055
:103C700001E00369C3600F4B19680AE0CB68C468B0
:103C8000A34200D907E0C368CC681B1BC3600A4687
:103C900009680029F2D100BF016019B1CB68C4687E
:103CA0001B1BCB6012B9034B186000E010600223AD
:103CB000037110BD0C0700200EB50020029000BF5C
:103CC0004FF0FF33042202A90D480068FDF7C4FF3E
:103CD0000446002CF4D102980028F1D00298006824
:103CE000009002984068019006480299FDF794FE02
:103CF00000980028E4D0DDE900108847E0E70000E4
:103D0000000700203C6F002010B58AB0242101A8D4
:103D1000FCF7A6FA094801904FF43470079008A008
:103D200008900020ADF808008020099001A90748FC
:103D3000FEF750F9044620460AB010BDB93C000811
:103D40005377745F5461736B0000000028070020F4
:103D500070B51F48046836E01D49206808601D489A
:103D6000FDF73AFE05467DB1E0692860A06968600C
:103D700000230422294618480068FEF705F818B108
:103D800029461448FDF748FE6079A0B9204600F0A6
:103D900025F820894FF6E071884203DA2089103037
:103DA00020810EE02089C11700EB11710911A0EBF1
:103DB0000111218105E0A079401CA0712046FFF788
:103DC0004BFF0348046814B1E0680028C4D070BDFC
:103DD0000C0700203C6F0020000700200349096801
:103DE0000160024908600021017170470807002046
:103DF00010B50748006848B105480068C068401E13
:103E000003490968C86008B9FFF7A2FF002010BD88
:103E10000C0700202DE9F0470446884608F01F07EC
:103E20004FEA581907B101E0A9F10109E06C00F06F
:103E3000784040EA0900E06425488088074407F09C
:103E40001F07E06C67F3DF60E0642148006800EB67
:103E5000C7067068B04205D104F144013046FDF751
:103E600030FC33E07068A0F1440500BFE86C20F03E
:103E70007840E16C21F0784188420CD8E06C20F069
:103E80007840E96C21F07841401AE16C01F078410A
:103E90000843E0640CE0E86C20F07840E16C21F02D
:103EA0007841401AE96C01F078410843E86406E083
:103EB000A86CA0F1440505F14400B042D6D100BF82
:103EC00004F1440105F14400FDF7FBFBBDE8F08778
:103ED000440700202DE9F041054605EB850000EB85
:103EE000C5002349096801EBC004E06930B1666987
:103EF00004F128000FC8B047206204E0666904F1AD
:103F000028000FC8B047207900F0800050B1FCF7BE
:103F100021FA07460020174908803946206900F039
:103F200069F922E0FCF716FA0746002011490880DB
:103F30003846FCF717FAFEF79DF9E06928B1E16908
:103F40004868FDF7DFFF0020E061207900F0040001
:103F500038B104F13C00FDF7F1FDA08820F0040029
:103F6000A080FEF797F9FDF7ADFFBDE8F0810000F6
:103F7000100700201C07002072B600BFFEE70000FB
:103F800070B540480068401C682100FB01F63146CE
:103F90003D480068FDF750FC3C4908600846006851
:103FA00008B93B4870BD314638480068FCF758F9FD
:103FB0003848FDF77AFB3848FDF777FB3748FDF7BF
:103FC00074FB002420E0012004EB840101EBC40118
:103FD0002E4A126802EBC101888004EB840000EBDA
:103FE000C4002A49096801EBC000046104EB8400A5
:103FF00000EBC400254A126802EBC00000F13C014E
:104000002548FDF75EFB641C0F2CDCD924480021F9
:10401000016041601B48006800EB800101EBC000BB
:104020001A49096801EBC0001D490860084600688C
:104030000461112009688880202019490968C88016
:10404000FFF78EFC4FF4807631460F480068FDF78D
:10405000F3FB05460DB90E48A4E731462846FCF7A8
:10406000FFF81048056000200E498880002404E015
:104070002846FDF71AFB641C0835202CF8D30020D5
:1040800090E70000200700208C0700201007002088
:10409000000200032C070020340700203C0700200A
:1040A00014070020440700200146094A12681069DD
:1040B0000F2800D97047074A126802B1FAE7064A8A
:1040C00052F82020521A044B43F8202000BFF1E799
:1040D00014070020980700200CF0002001460B4A2E
:1040E000126802B970470A4A126802B1FAE7074A31
:1040F000126810690F2800D9F4E7064A52F8202008
:104100000A44044B43F8202000BFEBE714070020CB
:10411000980700200CF000202DE9F04100273449D9
:104120008988481CC11700EBD1614911A0EB4111EE
:104130002F4A9180104600681146898800EBC1051E
:104140006868A84201D1BDE8F0816868A0F1440424
:1041500043E0A688E06C20F0784018B1E06C401E87
:10416000E0643EE004F14400FDF769FA06F008005F
:1041700058B1A08820F00800A08004F13C00FDF7B1
:104180005EFA0020A061606217E006F4806020B152
:10419000A08820F48060A0800FE006F4005040B1B9
:1041A00004F13C00FDF74BFAA08820F40050A080F9
:1041B00003E0A08820F02000A08006F0020048B9AB
:1041C000A08840F00400A080E18804F13C00FDF7E5
:1041D000C1FC01276868A0F1440404F14400A8422E
:1041E000B7D100BF0FB1FDF76DFE00BFABE7000018
:1041F000440700202DE9F04105460F4605EB8500F8
:1042000000EBC5003649096801EBC004A68806F03A
:10421000040040B104F13C00FDF790FCA08820F0C0
:104220000400A0800DE042F20800304048B104F1E3
:104230003C00FDF704FA06F0600010B1204600F0E3
:1042400083F8A08820F00200A080A08840F0010040
:10425000A0804FF0FF3020650020E065FDF7A0FC56
:104260003C3820494860207900F0100040B304F148
:104270003C011D48FDF725FA1C48006800EB800151
:1042800001EBC0001649096801EBC0001549086040
:10429000084600680561A088096888801149E068BF
:1042A0000968C8600F49A06B096888630120A08075
:1042B0003846FCF757F8FFF749FC0020BDE8F081CD
:1042C000207900F0010030B13846FCF74BF8FFF7D9
:1042D0003DFC0020F2E73846FCF744F80020EDE70B
:1042E00010070020140700203C07002020070020B2
:1042F0000D480E49C8630E480E49C8630E480F4961
:10430000086000210E4A11605160401E4FF0E0210C
:10431000486170200B49087000204FF0E02188614F
:104320000720086100207047553500080000002074
:10433000C12900084CF0002040190100940700201A
:104340005807002023ED00E02DE9F0410446E06C21
:10435000C70E0E48006800EBC706A06CB0420ED036
:10436000A06CA0F14405E86C20F07840E16C21F0ED
:1043700078410844E96C01F078410843E86404F1AD
:104380004400FDF75CF9BDE8F0810000440700201F
:1043900010B50F4800680F49096888420BD00D48D6
:1043A00000680B4908600846C1880B48008808442B
:1043B000401E07498880064881880748008880B2E7
:1043C000814204D1002002490860FDF781FF10BD41
:1043D0006807002014070020580700200020024929
:1043E00008600A20C88070476807002030B504467E
:1043F000012304E04FF0CA3542F823505B1CB3EBB5
:10440000910FF7D34FF0CC3515605518A5F1440046
:104410004FF0043505604FF0053545604FF0063527
:1044200085604FF00735C5604FF0083505614FF0E6
:10443000093545614FF0103585614FF01135C56183
:104440000025056244624FF0013585626D00C5624A
:104450004FF0033505634FF012354563034D856317
:10446000034DC5634FF08075056430BD793F00088A
:10447000D53E00080178112903D15521024A117057
:1044800000E000BF00BF70475506002070B505462C
:1044900000241C480068401C1A49086049201A4939
:1044A000087045204870792088706520C8700846DB
:1044B00005711648807C48711448C07C8871134887
:1044C00000880012C871114800780872084600215F
:1044D000C0F809101024200A0B494873200A887379
:1044E00022460A49891C08480E30FBF7A0FEAA2084
:1044F0000749087000231F2203491846FCF70AF9F0
:1045000070BD000058060020180800200408002094
:1045100055060020FEF768FC00201649087027E0C9
:104520001548006880F020001349086008460068BC
:1045300080F0010008600F480078022815D100BF04
:1045400004200E49086020200D49486108610420BC
:104550000A49091F0860202009494861086100BF15
:10456000FCF7B8FE0020034908700220FDF742FE68
:10457000D6E70000F70600200C0C014014080140AB
:1045800000100140B44500080000002000040000B5
:10459000FC020008D045000800060020A001000031
:1045A000FC0200089C460008A0070020B0F00000B4
:1045B000742E000841134D010C1008CD3404011075
:1045C000A9180B1475032401FF01FF01FF01B300BB
:1045D000412D0102030404400906070809020406EC
:1045E0000800122C74657374206973206D657373F1
:1045F000616765207862551211100C1246173F183A
:104600005019031A78321629502C782A100C427F40
:104610004D0963E064FF6520661267101413F00D06
:10462000810FC5142122FF23012434253C26A12B10
:10463000101E6BAA13FF695D900A9101920193010C
:10464000945F95539611971A983D995A9A1E9B100C
:10465000329C25A765A8659E81A6067E0C7F1680E4
:104660002A814E8261836F847B8586868E879788B8
:10467000A489AF8AC58BD78CE88D20A980AA80AC8D
:10468000FF3316229923034A0010A9491347084B08
:0C469000144C1746050CD00EF54D000030
:0400000508000131BD
:00000001FF
