:020000040800F2
:100000008032002009010008C9150008C506000853
:10001000C515000821050008D31B000800000000DA
:10002000000000000000000000000000A117000810
:100030002505000800000000490200088D1800088E
:100040002301000823010008230100082301000800
:1000500023010008230100082301000823010008F0
:1000600023010008230100082301000823010008E0
:1000700023010008230100082301000823010008D0
:1000800023010008230100082301000823010008C0
:1000900023010008230100082301000823010008B0
:1000A00023010008230100082301000823010008A0
:1000B0002301000823010008230100082301000890
:1000C0002301000823010008230100082301000880
:1000D0002301000815190008230100082301000866
:1000E000230100082301000823010008DFF80CD0D9
:1000F00000F05CF800480047191D000800060020C9
:10010000EFF3058070470000064880470648004727
:10011000FEE7FEE7FEE7FEE7FEE7FEE7FEE7FEE7B7
:10012000FEE7FEE7B5180008ED000008124C134D7D
:10013000256013484FF0010101604FF0020080F389
:100140001488104842680F4802600E4B1868878870
:100150004FF0100847EA08078780D0F800C00CF17C
:10016000240CBCE8FF008CF30988AE4687F30388B3
:1001700062B6304700BF000020ED00E00000F0F064
:100180007006002038060020D2B201E000F8012BF2
:10019000491EFBD270470022F6E710B513460A4607
:1001A00004461946FFF7F0FF204610BD064C074DE8
:1001B00006E0E06840F0010394E807009847103437
:1001C000AC42F6D3FFF796FF482E0008782E0008C1
:1001D00070B58C1810F8015B15F0070301D110F809
:1001E000013B2A1106D110F8012B03E010F8016B36
:1001F00001F8016B5B1EF9D12B0705D40023521EB9
:100200000DD401F8013BFAE710F8013BCB1A921C20
:1002100003E013F8015B01F8015B521EF9D5A1421E
:10022000D8D3002070BD0000EFF3108072B6704785
:10023000EFF3108062B6704780F31088704717485C
:100240004FF0805101607047EFF3108C72B6144A82
:1002500012681AB100B590475DF804EBEFF309801E
:1002600020E9F01F0F4D2E683060B7884FF010085E
:1002700027EA0807B7800B484068286087884FF056
:10028000100847EA080787800168B1E8F01F81F38A
:1002900009888CF31088704700BF000004ED00E06F
:1002A000740600203806002021B1826842F0010265
:1002B000826003E0826822F00102826070470000E1
:1002C00010B504461248844208D10121401501F0BE
:1002D000EDF90021601501F0E9F917E00D488442BD
:1002E00008D10121001501F0E1F90021201501F0EC
:1002F000DDF90BE00848844208D10121C80301F070
:10030000D5F900214FF4004001F0D0F910BD0000F4
:100310000024014000280140003C0140014600202B
:100320008A6802F004020AB1012000E00020704750
:100330000146C86C80B270470246002013680B402B
:100340000BB1012000E000207047014600208A68C0
:1003500002F008020AB1012000E00020704700000E
:1003600030B502460020002350680F4C20400D7924
:100370000C6844EA05242043506090680B4C2040F0
:10038000D1E902542C434D7944EA4504204390605E
:10039000D06A20F470000C7C641EE4B2234340EA6F
:1003A0000350D06230BD0000FFFEF0FFFDF7F1FF0B
:1003B000F0B504460D4600200021092D11DDE0684E
:1003C000A5F10A0606EB4607072606FA07F1884359
:1003D000A5F10A0606EB460603FA06F10843E060BB
:1003E0000CE0206905EB4507072606FA07F188436C
:1003F00005EB450603FA06F108432061072A0FDAE8
:10040000606B561E06EB86071F2606FA07F1884327
:10041000561E06EB860605FA06F10843606322E0E5
:100420000D2A0FDA206BD61F06EB86071F2606FA69
:1004300007F18843D61F06EB860605FA06F1084346
:10044000206310E0E06AA2F10D0606EB86071F2686
:1004500006FA07F18843A2F10D0606EB860605FAB7
:1004600006F10843E062F0BD816841F00801816057
:10047000704721B1826842F4A002826003E0826882
:1004800022F4A00282607047816841F0040181601B
:100490007047000000B587B001214FF4017001F0F2
:1004A000F5F84FF4004001F0E5F82020ADF8040025
:1004B00000208DF8070001A9174800F03DF8174803
:1004C000FFF7FEFE002002908DF80C008DF80D0065
:1004D0004FF4602004900020059001208DF8180052
:1004E00002A90E48FFF73CFF01210C48FFF7DCFE94
:1004F0000A48FFF7B9FF00BF0848FFF726FF0028AA
:10050000FAD10648FFF7C0FF00BF0448FFF706FF17
:100510000028FAD107B000BD0008014000240140C6
:1005200000BFFEE7704701B502E00098401E009052
:1005300000980028F9D108BD2DE9F04102460025B8
:100540000026002000230024002791F803C00CF0AF
:100550000F0591F803C00CF0100CBCF1000F03D094
:1005600091F802C04CEA050591F800C0BCF1000FFB
:1005700031D0146800202BE04FF0010C0CFA00F38E
:10058000B1F800C00CEA03069E4220D183004FF070
:100590000F0C0CFA03F7BC4305FA03FC4CEA040405
:1005A00091F803C0BCF1280F06D14FF0010C0CFAF2
:1005B00000FCC2F814C00AE091F803C0BCF1480F77
:1005C00005D14FF0010C0CFA00FCC2F810C0401C21
:1005D0000828D1D31460B1F800C0BCF1FF0F34DD9E
:1005E000546800202EE000F1080C4FF0010808FAD2
:1005F0000CF3B1F800C00CEA03069E4221D183003F
:100600004FF00F0C0CFA03F7BC4305FA03FC4CEA5D
:10061000040491F803C0BCF1280F05D100F1080CC7
:1006200008FA0CF8C2F8148091F803C0BCF1480F26
:1006300007D100F1080C4FF0010808FA0CF8C2F8D5
:100640001080401C0828CED35460BDE8F0810246DB
:10065000002093680B400BB1012000E000207047A0
:10066000416170470161704710B5044607230122BC
:1006700021460948FFF79CFE01210748FFF7F9FED4
:1006800000BF02210448FFF757FE0028F9D00248B6
:10069000FFF74EFE10BD00000024014070B5044677
:1006A0000025002608E00520FFF7DEFF05440520B1
:1006B00001F0FEFA701CC6B2A642F4DBB5FBF4F002
:1006C00080B270BD00BFFEE708B501210C2000F02C
:1006D000DDFF1020ADF8000028208DF803006946EA
:1006E0000A48FFF729FF2320ADF8000010208DF8FD
:1006F000030003208DF8020069460548FFF71CFF40
:1007000023210348FFF7ACFF08BD000000080140AB
:10071000000C014010B5044614B101200E490870C8
:100720000D48007868B110210C48FFF790FF0128B0
:1007300007D1052001F0BCFA00200749087001200C
:1007400010BD10210548FFF782FF10B901200249B2
:1007500008700020F4E700001C060020000801409B
:1007600002465018401E904204D95018401E4B1E9D
:1007700098437047481E22EA0000FAE710B5024687
:1007800014462046002305E001464960096000BF89
:100790005B1C08301B2BF7D310BD2DE9F04105463B
:1007A0000E462F46304600F0DDF804461E2C02D9D6
:1007B0000020BDE8F081042C00D80424201F07EBA2
:1007C000C000F6E72DE9F04704460D4691461E4667
:1007D000089F16B91F48BDE8F087F02C02D31D48CA
:1007E000401EF8E71C4904F1100051F820001B4995
:1007F000884202D01748C01CEDE70F2D02DD1548D6
:10080000001DE8E7FFF710FD80461549124A04F184
:10081000100042F82010134941F8206000BF04F096
:100820001F01012088406109890001F1E021C1F820
:10083000000100BF00BF802040EA0510C1B204F1F2
:10084000E02080F8001400BF4046FFF7F5FC0020D0
:10085000C1E700000109000200000020651D00083A
:10086000ED1D0008802C002042684A600860426844
:1008700011604160704742684A60086042681160D8
:100880004160704742684A60086042681160416098
:10089000704742684A600860426811604160704772
:1008A00042684A6008604268116041607047D0E960
:1008B00000121160D0E90021516000214160016007
:1008C0007047D0E900121160D0E900215160002189
:1008D000416001607047D0E900121160D0E9002149
:1008E00051600021416001607047014648688842BC
:1008F00001D1012070470020FCE70146486888428A
:1009000001D1012070470020FCE701464868884279
:1009100001D1012070470020FCE740600060704773
:100920004060006070474060006070474060006059
:10093000704770B504460D4629462068FFF794FFBE
:1009400070BD70B504460D4629462068FFF793FF39
:1009500070BD70B504460D4629462068FFF799FF23
:1009600070BD0000014601F0004010B16FF0704012
:1009700070474C480840002847D001F0FE40F8B1CD
:1009800001F0E04058B101F0804008B11E20EFE7CF
:1009900001F0005008B11D20EAE71C20E8E701F053
:1009A000406030B101F0006008B11B20E0E71A2080
:1009B000DEE701F0007008B11920D9E71820D7E769
:1009C00001F4700080B101F4400030B101F4000086
:1009D00008B11720CCE71620CAE701F4001008B1CF
:1009E0001520C5E71420C3E701F4402030B101F41D
:1009F000002008B11320BBE71220B9E701F4003052
:100A000008B11120B4E71020B2E701F47F4020B311
:100A100001F4704080B101F4404030B101F4004075
:100A200008B10F20A4E70E20A2E701F4005008B19E
:100A30000D209DE70C209BE701F4406030B101F4EC
:100A4000006008B10B2093E70A2091E701F40070E1
:100A500008B109208CE708208AE701F0F00080B196
:100A600001F0C00030B101F0800008B107207FE73D
:100A700006207DE701F0200008B1052078E704207A
:100A800076E701F00C0030B101F0080008B1032056
:100A90006EE702206CE701F0020008B1012067E771
:100AA000002065E70000FF7F2DE9F04105460C4678
:100AB0000026FFF7B9FB074600BF05B104B909E0FE
:100AC00004F0004000B105E02146284601F0E9F9B4
:100AD000064600BF00BF3846FFF7AEFB3046BDE814
:100AE000F0812DE9F05F80460F4614464FF0000973
:100AF000CA4600250026FFF797FB834600BFB8F1E2
:100B0000000F00D007B91BE0381900F1040909F003
:100B1000004000B114E04946404601F0C2F90546E4
:100B20002819401E611E20EA0106B54200D107E0E7
:100B3000A6EB050A4AF0804A46F804AC354600BFE9
:100B400000BF5846FFF778FB2846BDE8F09F2DE927
:100B5000F04705460C4601270026FFF765FB814656
:100B600000BFB04605B104B914E054F8046C06F0B7
:100B7000804010B126F08046A41BA4F11008414625
:100B8000284601F0BCF907461FB92946404601F046
:100B90002AFA00BF00BF4846FFF74EFB3846BDE8C3
:100BA000F0872DE9F04704468846002500270026F7
:100BB000A94614B1B8F1FF0F03D84FF0FF30BDE8DC
:100BC000F087FFF731FB8246264634463660C6F88A
:100BD000048004F10800FFF7D1FD04F1E005281BB3
:100BE000A8EB00001038E8600020A86004F10800BD
:100BF000E968FFF7D2FD8146B9F1000F05D15046F3
:100C0000FFF71AFB4FF0FF30D9E700BF2946D9F8AC
:100C10000000FFF745FE00BF04EB0800A0F110073D
:100C2000002038607860B860F860BD601020F8601F
:100C3000F86840F00040F860384601F05FFA50462E
:100C4000FFF7FAFA0020BAE72DE9F04105462F46F2
:100C50000026002415B90020BDE8F081FFF7E4FA72
:100C6000804607F10806306820B13468206830609B
:100C7000044820604046FFF7DFFA0CB90020EBE79C
:100C8000201DE9E7A55A5AA52DE9F04705460E466D
:100C90002C46012705B116B90120BDE8F087FFF702
:100CA000C3FA804600BF311F20460A46D0F800C074
:100CB000BCF1000F02D14FF0010C25E000F10C0C4B
:100CC000A2EB0C03D0F800C0B3FBFCF90CFB193C01
:100CD000BCF1000F02D04FF0010C15E0D0F800C0BD
:100CE000B3FBFCFCD0F80490CC4502D34FF0010CD0
:100CF0000AE0DFF83490D2F800C0CC4502D04FF0C3
:100D0000010C01E04FF0000CBCF1000F00D004E03A
:100D1000A0680860A160002700BF00BF4046FFF741
:100D20008BFA3846B9E70000A55A5AA52DE9F047D5
:100D300006460F4690463446002516B90120BDE808
:100D4000F087B8F1000F01D10120F8E70C2F01D294
:100D50000120F4E7FFF768FA824608F1070020F067
:100D600003002060A7F10C002168B0FBF1F0606087
:100D7000606820B95046FFF75FFA0120DFE704F111
:100D80000C05A5604FF0000905E0206828442860A4
:100D90002D6809F101096068401E4845F5D800201A
:100DA00028605046FFF748FA0020C8E700BFD0E9A6
:100DB00000121160D0E90021516000214160016002
:100DC00000BF704710B50A460649096801EBC20327
:100DD00019684C68446001604C682060486000BF3E
:100DE00000BF10BD20060020014600200022074B56
:100DF0001B6803EBC1035A6801E0401C5268034BB7
:100E00001B6803EBC1039342F7D170472006002013
:100E100000210020014612E00B4A126802EBC100DB
:100E20004268824201D1012200E000222AB906482C
:100E3000006800EBC10040687047481C014620294B
:100E4000EAD30020F8E70000200600202DE9F84F43
:100E500081460C4615469A460A9E15B91948BDE8C2
:100E6000F88F4FF6FB70864202DD16480938F6E728
:100E700004B116B91348401CF1E7FFF7D5F98046D5
:100E8000301D82B26B462946204601F0D9F907464B
:100E900027B14046FFF7D0F93846E0E70098143014
:100EA000FFF741FD00981C30FFF73DFD009824300E
:100EB000FFF739FD0098C4814046FFF7BDF90020D7
:100EC000CDE700000C0600022DE9FC5F80460F46CE
:100ED00091461E4600200090A8F1010BBBF10A0FBD
:100EE00002D34048BDE8FC9F17B93E48401CF9E7D3
:100EF000B9F1000F02D13B48801CF3E72EB13A480C
:100F0000006810B137480A30ECE7FFF78DF901901F
:100F10000BEB4B0000EBCB003449096801EB80047C
:100F2000A08820B900BF2F480E30009054E0208ADE
:100F300050BB26B900BF2B480F3000904CE02C4826
:100F4000008820B100BF27480838009044E02948B5
:100F50000568324604F11C01284601F0C5F90198E4
:100F6000FFF76AF900F0E6F8FFF75EF901902879DB
:100F700000F0400058B1A88820F04000A88000BFD1
:100F80001848C01F009027E0208A401E20826189F7
:100F90002289206801FB020ADAF8000038606089C3
:100FA000401C80B26081E188884201D100206081CC
:100FB00004F11400FFF7A1FC50B904F1140001F092
:100FC000D5F90198FFF738F900F0B4F8002089E767
:100FD000E089401CE08100BF0198FFF72DF90098DF
:100FE00080E700000E060002B80600209C060020E4
:100FF00040060020380600202DE9FC5F81460F46A0
:1010000090461E4600200090A9F1010BBBF10A0F8B
:1010100002D34348BDE8FC9F17B94148401CF9E79B
:10102000B8F1000F02D13E48801CF3E72EB13D48D5
:10103000006810B13A480838ECE7FFF7F5F801907E
:101040000BEB4B0000EBCB003749096801EB800448
:10105000A08820B900BF3248C01C00905BE0208906
:10106000404504D200BF2E48001D009053E0E089A7
:1010700050BB26B900BF2A48401D00904BE02B48CA
:10108000008820B100BF26480B38009043E0284874
:101090000568324604F11401284601F025F901984B
:1010A000FFF7CAF800F046F8FFF7BEF8019028797C
:1010B00000F0400058B1A88820F04000A88000BF90
:1010C00017480A38009026E0E089401EE081A18997
:1010D0002289206801FB020ACAF80070A089401C1E
:1010E00080B2A081E188884201D10020A08104F172
:1010F0001C00FFF702FC50B904F11C0001F036F9A6
:101100000198FFF799F800F015F8002082E7208A8F
:10111000401C208200BF0198FFF78EF8009879E705
:1011200011060002B80600209C06002040060020A0
:101130003806002010B5FFF777F80446FFF768FE81
:101140003C380A494860084600684968884208D027
:101150000748008828B92046FFF76EF8FFF76FF8B8
:1011600010BD2046FFF768F800BFF9E738060020F9
:10117000400600202DE9F04106462A48006800EBB1
:1011800006150A2E02D32848BDE8F081FFF74CF877
:101190000746287820B93846FFF74EF82248F3E78B
:1011A00068884FF6FE71884205D13846FFF744F84B
:1011B0001D48C01DE8E705F10800FFF7A6FB48BB86
:1011C000E868A0F13C04E868FFF77BFBA08820F00A
:1011D0000800A080207900F0400030B1204601F0E6
:1011E000FFFCA08820F04000A0800020A0612079B2
:1011F00000F0020040B9A08840F00400A080E1881F
:1012000004F13C00FFF7DEFD3846FFF715F8FFF765
:1012100091FF05E06888401C68803846FFF70CF8AD
:101220000020B1E7A80600200107000210B501F078
:10123000ABFC04460CB1204610BDFEF777FF2046FC
:10124000FAE700002DE9F04105460F460026394631
:10125000284600F045F8064616B13046BDE8F08154
:10126000286800EB800101EBC0001949096801EB17
:10127000C004FEF7D9FF8046A08820F00200A080BD
:10128000A08840F00400A080E18804F13C00FFF752
:1012900099FDFFF7BDFD3C380E4948600E480068D7
:1012A00088B10E48008870B90846006849688842CD
:1012B00009D00A48008830B94046FEF7BDFF01F06A
:1012C00091F80020CAE74046FEF7B6FF0020C5E7C8
:1012D000340600203806002070060020400600205A
:1012E0002DE9F05F07460D464FF000094FF0FF3A39
:1012F00017B95748BDE8F09F15B95548801FF9E761
:10130000E86910B95248801EF4E7286810B95048BF
:10131000C01EEFE7A8881F2802DD4D48001FE9E73F
:10132000A869B0F5005F02D949481930E2E7A86919
:1013300010B94FF43470A8610821A869FFF710FABA
:10134000A86110214FF49870FFF70AFAA969884242
:1013500002D93F48401ECDE7FEF766FF834611E005
:101360003C484068A0F13C043A494868FFF79FFABE
:1013700004F13C013848FFF777FA3848E168006823
:10138000FFF7E5FB3348FFF7B0FA0028E8D0324812
:10139000FFF7ABFA28B1DFF8B8A00AF10A0A00BFDC
:1013A00051E02D484068A0F13C042B494868FFF704
:1013B0007EFA5846FEF740FFD4F8109008222748DE
:1013C000A9690068FFF78DFB06465EB9FEF72CFFA2
:1013D000834604F13C012048FFF746FADFF880A07D
:1013E00000BF30E032464846A96901F04BFC804618
:1013F000C4F80080A868A062E968E16229692163F5
:1014000069696163E660A869A0600020A061E0618D
:1014100060620220A080A088296A09B1802100E0D2
:1014200000210843A080A888E080286860614FF010
:10143000FF3020650020E065E869A0630020606659
:10144000C7F8009056E75846FEF7F6FE504651E7BB
:10145000070200026006002058060020AC060020AB
:101460000002000370B504461948006808B1194825
:1014700070BD1948008808B11848F9E714B900F0A0
:101480005FF8F5E7FEF7D0FE05461549096801F15A
:101490003C00FFF78BFC12480068808820F00400B5
:1014A0000F49096888800E490868214601F0FEF856
:1014B0000B480068808840F020000949096888804E
:1014C0002846FEF7B9FEFFF735FE0020D0E7000002
:1014D000B80600200D020003400600200E020002A4
:1014E0003806002010B5FEF79FFE04460448008829
:1014F000401C034908802046FEF79EFE10BD0000F8
:101500004006002010B5FEF78FFE04460B48008809
:1015100000280DDD09480088401E0849088008465B
:10152000008828B92046FEF787FEFFF703FE10BDAE
:101530002046FEF781FE00BFF9E7000040060020CC
:1015400070B500241C48006800691C49096888427D
:1015500001D31B4870BDFEF767FE054616490968B2
:10156000C888FFF741FC0446012C17D912490968C5
:1015700001F13C00FFF79BF90F480068808840F0BC
:1015800004000D49096888800B4A1268D1880A4A0C
:10159000126802F13C00FFF715FC05E02846FEF753
:1015A0004BFE07480930D5E72846FEF745FEFFF712
:1015B000C1FD0020CEE700003806002044060020D0
:1015C0000702000200BFFEE7704708B54FF4A060B5
:1015D00000F046F825208DF8000001208DF801006C
:1015E0008DF802008DF80300684600F001F808BD90
:1015F00070B5002100230F22C47804B3154C246871
:1016000004F4E064C4F5E064210AC1F10403CA40B3
:10161000447804FA03F184781440214309010E4C04
:101620000678A155047804F01F050124AC40057824
:101630006D11AD0005F1E025C5F8004109E0047821
:1016400004F01F050124AC40044D0678761145F8DE
:10165000264070BD0CED00E000E400E080E100E019
:1016600002490143024A1160704700000000FA0578
:101670000CED00E001460020034A506820F4404091
:1016800008435060704700000010024029B1064A2C
:1016900092690243044B9A6104E0034A92698243CF
:1016A000014B9A61704700000010024029B1064AC0
:1016B000D2680243044BDA6004E0034AD2688243F2
:1016C000014BDA60704700000010024030B5002185
:1016D0000022002400232D4D6D6805F00C0121B17E
:1016E000042905D0082923D105E0294D056022E011
:1016F000274D05601FE0254D6D6805F47012234DE0
:101700006D6805F48034022505EB92421CB9214D29
:10171000554305600BE01D4D6D6805F400351DB1A6
:101720001C4D5543056002E0194D5543056002E02C
:10173000174D056000BF00BF144D6D6805F0F00146
:101740000909154D6B5C0568DD4045600F4D6D68FE
:1017500005F4E061090A104D6B5C4568DD40856069
:101760000A4D6D6805F46051C90A0B4D6B5C456804
:10177000DD40C560054D6D6805F44041890B074D9E
:101780006B5CC568B5FBF3F5056130BD0010024028
:1017900000127A0000093D0000060020100600201B
:1017A000704710B500F002F810BD00000CB5002025
:1017B000019000903348006840F48030314908605F
:1017C00000BF3048006800F4003000900198401CD1
:1017D0000190009818B90198B0F5A06FF1D129488F
:1017E000006800F4003010B10120009001E00020FA
:1017F00000900098012843D12348006840F0100071
:10180000214908600846006820F003000860084687
:10181000006840F0020008601A48406819494860B2
:101820000846406848600846406840F48060486068
:101830000846406820F47C1048600846406840F440
:10184000E81048600846006840F08070086000BFFB
:101850000C48006800F000700028F9D00948406882
:1018600020F00300074948600846406840F0020045
:10187000486000BF0348406800F00C000828F9D118
:101880000CBD0000001002400020024010B50848C6
:10189000D0E900305A1C40F100000549C1E90020A0
:1018A00001F0C2F901F084F800F0EEFE10BD000076
:1018B0007806002010B51348006840F00100114977
:1018C000086008464068104908400E4948600846CC
:1018D00000680E4908400B4908600846006820F47B
:1018E000802008600846406820F4FE0048604FF4FD
:1018F0001F008860FFF755FF4FF000600449086043
:1019000010BD0000001002400000FFF8FFFFF6FECF
:1019100008ED00E010B540F22551184800F095F8A8
:10192000D8B1164800F04CF9C4B21548008800F44C
:10193000004090B912480088B0F5167F07DA1049C8
:101940000888411C0E4A11800E490C5405E00C48D1
:10195000008840F400400A49088040F224410748CA
:1019600000F073F848B10648008840F4004004498C
:101970000880024800F024F9C4B210BD00380140CC
:101980001E060020C006002021B1828942F40052C8
:10199000828104E082894DF6FF731A40828170478C
:1019A00000B585B001210420FFF770FE01218803F6
:1019B000FFF76CFE4FF40070ADF8100018208DF8A2
:1019C000130003208DF8120004A91748FEF7B4FD98
:1019D0004FF48060ADF8100004208DF8130004A9C6
:1019E0001148FEF7A9FD4FF4E13000900020ADF85A
:1019F0000400ADF80600ADF80800ADF80C000C20AE
:101A0000ADF80A006946094800F06EF8FFF7DDFD01
:101A1000012240F22551054800F041F80121034818
:101A2000FFF7B2FF05B000BD0008014000380140DB
:101A300002460020B1F5007F00D100BF13880B40A3
:101A40000BB1012000E00020704770B50246002471
:101A500000230025002040F66A16B14200D100BFE5
:101A6000C1F3421501F01F03012606FA03F3012D0D
:101A700002D19689334006E0022D02D1168A334006
:101A800001E0968A33400C12012606FA04F4168807
:101A9000344013B10CB1012000E0002070BDF0B55E
:101AA0000346002400260025002040F66A17B942AC
:101AB00000D100BF1846C1F3421401F01F060127F0
:101AC00007FA06F5012C01D10C3004E0022C01D1FB
:101AD000103000E014301AB107682F43076002E0AD
:101AE0000768AF430760F0BD2DE9F04786B00546B3
:101AF0000E460024A24600BFA1460027B08900B1CF
:101B000000BF2F462C8A4CF6FF700440F088044337
:101B10002C82AC894EF6F3100440B088318908431A
:101B2000718908430443AC81AC8A4FF6FF400440FE
:101B3000B0890443AC8201A8FFF7C8FD1F48874263
:101B400002D1DDF810A001E0DDF80CA0A88900F4B6
:101B5000004040B10AEBCA0000EB0A1031684900AE
:101B6000B0FBF1F807E00AEBCA0000EB0A1031689D
:101B70008900B0FBF1F86420B8FBF0F00401200903
:101B8000642101FB1089A88900F4004040B1322093
:101B900000EBC900B0FBF1F000F00700044308E0DF
:101BA000322000EB09106421B0FBF1F000F00F00CF
:101BB00004432C8106B0BDE8F087000000380140E6
:101BC00001468888C0F308007047C1F3080282808C
:101BD000704700BFFEE70000014A024900F013B859
:101BE000D11C0008BC06002002E008C8121F08C172
:101BF000002AFAD170477047002001E001C1121F8E
:101C0000002AFBD170472DE9F04116460F460446E5
:101C1000002503E03946B047641C6D1C207800287D
:101C2000F8D12846BDE8F08110B58AB00024012023
:101C3000ADF8080009A008900A4801904FF43470EC
:101C400007908020099001A90748FFF7FBFA044696
:101C500014B120460AB010BD2046FBE77461736BD7
:101C6000310000000D2D00081406002010B58AB0C8
:101C700000240120ADF8080009A008900A4801904E
:101C80004FF4347007908020099001A90748FFF7AE
:101C9000D9FA044614B120460AB010BD2046FBE72D
:101CA0007461736B32000000B12D0008140600202F
:101CB000002107E042F6E06100BF0A1EA1F1010326
:101CC00099B2FAD1021EA0F1010398B2F2D1704785
:101CD00070B504460D46E1B20548FFF776FF00BF38
:101CE00080210348FFF7A4FE0028F9D0204670BDEC
:101CF0000038014008B5FEF7E7FCFEF7CBFBFFF725
:101D00004FFE0020034B0246014600902520FEF7BF
:101D100059FD08BD1519000810B500F08FF80446EC
:101D20000CB1012010BD00F005F8FFF77FFA00BFED
:101D3000FEE7000010B50024FFF7DCFF0848FEF7BF
:101D4000F2FBFFF771FF04460CB1204610BDFFF710
:101D50008DFF04460CB12046F8E70020F6E70000AE
:101D6000FFFF0F00FEF7CCF900BFFEE7102004E0F4
:101D70000649074A42F82010401CFF28F8D90449B8
:101D8000044A11600449121D11607047651D000866
:101D90000000002008ED00E00007FA0500BFFEE7A4
:101DA00010B58AB0242101A8FEF7F5F90A48019080
:101DB0004FF4A060079009A008901F20ADF808001C
:101DC00001A90948FFF73EFA044614B120460AB0BB
:101DD00010BD0020FBE700009D1D000849646C65F4
:101DE000436F7265303030004806002070B5FEF752
:101DF0001BFA05460F480068401C0E49086028463B
:101E0000FEF71AFAFEF77CF904460B4850F8240056
:101E100018B1094951F824008047FEF705FA054634
:101E200004480068401E034908602846FEF704FA8B
:101E300070BD0000B8060020802C002010B500F016
:101E4000C3FA00F099F904460CB1204610BDFFF723
:101E50008DFF00F0E1FC04460CB12046F6E700F0EF
:101E6000C5FA04460CB12046F0E700F097F90446A5
:101E70000CB12046EAE700F01BFA04460CB12046FC
:101E8000E4E700F0DFFA04460CB12046DEE700F09C
:101E9000F1FEFFF785FF04460CB12046D6E700208F
:101EA000D4E72DE9F04107460E46002406F1130061
:101EB00020F003052946384600F06DF8044614B9B1
:101EC0000020BDE8F08105F11400E168814204D3EF
:101ED0002A462146384600F021F92046FEF7FBFC51
:101EE000204600F00BF9E06840F00040E060E16857
:101EF00021F0004000F03EFD04F11000E1E72DE983
:101F0000F84F05460C462E4605F1E0087068284457
:101F1000A0F1100A706847194FF000092B4652468D
:101F200041462046009700F0B7F810B90120BDE8FF
:101F3000F88FE06800F0004008B90120F7E7E0689A
:101F400020F0004000EB04092B465246414648462B
:101F5000009700F0A1F808B90120E8E7D9F80800D7
:101F6000A04201D00120E2E7444512D000972B4661
:101F700052464146A06800F08FF808B90120D6E724
:101F8000A068C16821F000410844A04201D00120AE
:101F9000CDE70020CBE770B505460E46002431465C
:101FA00005F10800FEF7F9FB044618E0002061681F
:101FB000084605E0C168B14200D370BD41680846DB
:101FC000A042F7D105F108002146024602F1D003F4
:101FD0008B4201D1002301E001F108031C46002CD3
:101FE000E4D10020E9E72DE9F04104460E46002740
:101FF000B846E16821F0004000F0A2FCE06820F063
:102000000040E060A06848B3A068C06800F00040ED
:1020100020BBA568204600F05EF8E86820F000408C
:102020004719F86800F0004028B93846FEF753FC1D
:10203000384600F050F82846FEF74DFC06F108003F
:10204000E968FEF7AAFB8046B8F1000F01D1BDE8B0
:10205000F08129464046FEF723FC1BE0E06820F0B3
:1020600000400719F86800F0004028B93846FEF72C
:1020700032FC384600F02FF806F10800E168FEF760
:102080008CFB8046B8F1000F00D1E0E721464046C6
:10209000FEF706FC00BFDAE730B50446039DA14217
:1020A00001D8944201D9002030BDE06800F0004022
:1020B00038B120686040401C08B10020F4E70120DE
:1020C000F2E72068984202D32068A84201D300209A
:1020D000EAE70120E8E700218268D268C3681A4471
:1020E0008368DA60C268111882688A6000BF0022C3
:1020F00002604260826000BF70470000C14301601F
:102100000549096821B1044909680969416002E08B
:102110004FF0FF3141607047380600202DE9F0474D
:1021200080460D46164600240027A146AC19A5603E
:10213000E868801BE060EE60E06820F0004007196E
:10214000BC60F86800F0004028B93846FEF7C3FBD1
:102150003846FFF7C0FF08F10800E168FEF71DFBF5
:102160008146B9F1000F01D1BDE8F087214648460C
:10217000FEF796FB00BFF7E710B506480649086072
:102180004FF4005104480068FEF70BFD044620465A
:1021900010BD0000400C0020AC06002070B51248B5
:1021A000FEF7BEFBF02111480068FEF77DFC1049E8
:1021B00008600846006808B90E4870BD00240EE0AB
:1021C00004EB44000A49096801EBC0056C6000207B
:1021D000287005F108010448FEF7B3FB641C0A2CC3
:1021E000EED30020E9E7000094060020AC060020B2
:1021F00090060020001D000270B5002400254FF459
:10220000807529460C480068FEF74EFC0B490860B3
:102210000846006800B970BD0020044608E0074980
:10222000096801EBC4004060006000BF601C044608
:10223000202CF4D300BFEEE7AC06002020060020DF
:102240002DE9F04706468846174699461548046822
:10225000002507E0A08818B9681CC8F8000003E052
:102260006D1C2C340A2DF5D300BF0A2D02D10E4867
:10227000BDE8F0872C212046FDF78DFF06FB07F116
:102280000A480068FEF710FC2060206810B9064874
:10229000801EEDE7E68027810120A080C9F800407C
:1022A0000020E5E79C06002004060002AC060020A2
:1022B00010B54FF4DC7109480068FEF7F5FB0849DA
:1022C00008600846006808B9064810BD4FF4DC7184
:1022D00003480068FDF75FFF0020F6E7AC0600202A
:1022E0009C060020010600022DE9F04104460D463F
:1022F00017464FF00008002604F13C00FEF756FD9B
:10230000A08820F00400A08004F13C08A08840F4DC
:102310000050A0802846FEF7F0FA30B100BF4146D9
:102320002868FEF7AFFA00BF14E06868A0F13C0629
:1023300007E0E088F188884200DA06E0306CA0F11E
:102340003C0606F13C00A842F3D100BF4146F06BC9
:10235000FEF798FA781C38B1A08840F04000A080C1
:102360003946204600F0A2F9BDE8F08170B5054677
:102370006868A0F13C046868D0E900121160D0E9F7
:102380000021516000214160016000BFA08820F45D
:102390000050A080207900F0400030B1204600F0CD
:1023A0001FFCA08820F04000A080207900F00200EF
:1023B00040B9A08840F00400A080E18804F13C000E
:1023C000FEF700FD70BD00001020034908600348BF
:1023D000034908607047000044060020402C00209C
:1023E000B006002010B5FDF72AFF10BD70B51148EA
:1023F000FEF79CFAA02110480068FEF755FB0F4934
:1024000008600846006808B90D4870BD00240CE05B
:102410000A48006800EB04156C600020287005F184
:1024200008010448FEF795FA641C0A2CF0D300203A
:10243000EBE70000A0060020AC060020A806002064
:10244000000700022DE9F8430020224908604FF4FC
:102450000078414620480068FEF726FB044614B980
:102460001E48BDE8F88341462046FDF794FE1C480F
:1024700004601C4804600020208125462034012788
:1024800005E027812C602546781C87B22034102F68
:10249000F7DB0822D0211448FEF748FC064616B1A7
:1024A0000E48C01CDDE704200023104A10210090D4
:1024B0001846FEF7CBFC064616B10848001DD0E7CB
:1024C00000F06EF8064616B10448401DC9E700202A
:1024D000C7E7000030060020AC060020070300021A
:1024E000280600202C060020700B00202406002067
:1024F00010B50022002183793BB9437913B14379A8
:10250000022B02D14369C36001E00369C3600F4B32
:1025100019680AE0CB68C468A34200D907E0C36821
:10252000CC681B1BC3600A4609680029F2D100BFB2
:10253000016019B1CB68C4681B1BCB6012B9034B97
:10254000186000E010600223037110BD3006002007
:102550000EB50020029000BF4FF0FF33042202A905
:102560000D480068FEF7B0FC0446002CF4D1029838
:102570000028F1D00298006800900298406801900D
:1025800006480299FEF780FB00980028E4D0DDE9B8
:1025900000108847E0E7000024060020700B0020B0
:1025A00010B58AB0242101A8FDF7F5FD0948019076
:1025B0004FF43470079008A008900020ADF8080090
:1025C0008020099001A90748FEF73CFE04462046FA
:1025D0000AB010BD512500085377745F5461736BC6
:1025E000000000004C06002070B51F48046836E06B
:1025F0001D49206808601D48FEF726FB05467DB191
:10260000E0692860A0696860002304222946184810
:102610000068FEF7F1FC18B129461448FEF734FBB8
:102620006079A0B9204600F025F820894FF6E071C6
:10263000884203DA2089103020810EE02089C117FA
:1026400000EB11710911A0EB0111218105E0A079C6
:10265000401CA0712046FFF74BFF0348046814B1EB
:10266000E0680028C4D070BD30060020700B002048
:10267000240600200349096801600249086000211E
:10268000017170472C06002010B50748006848B15A
:1026900005480068C068401E03490968C86008B959
:1026A000FFF7A2FF002010BD300600202DE9F04703
:1026B0000446884608F01F074FEA581907B101E0A1
:1026C000A9F10109E06C00F0784040EA0900E064FB
:1026D00025488088074407F01F07E06C67F3DF6038
:1026E000E0642148006800EBC7067068B04205D17D
:1026F00004F144013046FEF71CF933E07068A0F1A4
:10270000440500BFE86C20F07840E16C21F078418E
:1027100088420CD8E06C20F07840E96C21F07841D8
:10272000401AE16C01F078410843E0640CE0E86C89
:1027300020F07840E16C21F07841401AE96C01F01A
:1027400078410843E86406E0A86CA0F1440505F16F
:102750004400B042D6D100BF04F1440105F1440069
:10276000FEF7E7F8BDE8F087680600202DE9F041A4
:10277000054605EB850000EBC5002349096801EB20
:10278000C004E06930B1666904F128000FC8B047A1
:10279000206204E0666904F128000FC8B047207980
:1027A00000F0800050B1FDF73FFD074600201749BB
:1027B00008803946206900F069F922E0FDF734FD10
:1027C00007460020114908803846FDF735FDFEF721
:1027D00089FEE06928B1E1694868FEF7CBFC00207A
:1027E000E061207900F0040038B104F13C00FEF70C
:1027F000DDFAA08820F00400A080FEF783FEFEF73B
:1028000099FCBDE8F081000034060020400600205D
:1028100072B600BFFEE7000070B540480068401C7B
:10282000682100FB01F631463D480068FEF73CF99F
:102830003C4908600846006808B93B4870BD31460D
:1028400038480068FDF7A7FC3848FEF766F83848B6
:10285000FEF763F83748FEF760F8002420E0012017
:1028600004EB840101EBC4012E4A126802EBC101A2
:10287000888004EB840000EBC4002A49096801EB5E
:10288000C000046104EB840000EBC400254A126818
:1028900002EBC00000F13C012548FEF74AF8641C39
:1028A0000F2CDCD924480021016041601B480068DE
:1028B00000EB800101EBC0001A49096801EBC00080
:1028C0001D49086008460068046111200968888075
:1028D000202019490968C880FFF78EFC4FF48076E4
:1028E00031460F480068FEF7DFF805460DB90E487F
:1028F000A4E731462846FDF74EFC1048056000204D
:102900000E498880002404E02846FEF706F8641C7F
:102910000835202CF8D3002090E700004406002062
:10292000AC06002034060020000200035006002000
:1029300058060020600600203806002068060020A7
:102940000146094A126810690F2800D97047074AE2
:10295000126802B1FAE7064A52F82020521A044BD4
:1029600043F8202000BFF1E738060020B806002019
:10297000402C002001460B4A126802B970470A4AEF
:10298000126802B1FAE7074A126810690F2800D9E5
:10299000F4E7064A52F820200A44044B43F820206A
:1029A00000BFEBE738060020B8060020402C0020CE
:1029B0002DE9F041002734498988481CC11700EBF4
:1029C000D1614911A0EB41112F4A91801046006856
:1029D0001146898800EBC1056868A84201D1BDE8AD
:1029E000F0816868A0F1440443E0A688E06C20F020
:1029F000784018B1E06C401EE0643EE004F1440011
:102A0000FDF755FF06F0080058B1A08820F0080037
:102A1000A08004F13C00FDF74AFF0020A061606245
:102A200017E006F4806020B1A08820F48060A080C8
:102A30000FE006F4005040B104F13C00FDF737FF11
:102A4000A08820F40050A08003E0A08820F020009F
:102A5000A08006F0020048B9A08840F00400A080E1
:102A6000E18804F13C00FEF7ADF901276868A0F1A8
:102A7000440404F14400A842B7D100BF0FB1FEF7EF
:102A800059FB00BFABE70000680600202DE9F041CC
:102A900005460F4605EB850000EBC5003649096881
:102AA00001EBC004A68806F0040040B104F13C002C
:102AB000FEF77CF9A08820F00400A0800DE042F22F
:102AC0000800304048B104F13C00FDF7F0FE06F08C
:102AD000600010B1204600F083F8A08820F00200CA
:102AE000A080A08840F00100A0804FF0FF3020655A
:102AF0000020E065FEF78CF93C38204948602079D9
:102B000000F0100040B304F13C011D48FDF711FF37
:102B10001C48006800EB800101EBC0001649096801
:102B200001EBC00015490860084600680561A088EF
:102B3000096888801149E0680968C8600F49A06B7E
:102B4000096888630120A0803846FDF775FBFFF710
:102B500049FC0020BDE8F081207900F0010030B18F
:102B60003846FDF769FBFFF73DFC0020F2E73846E9
:102B7000FDF762FB0020EDE7340600203806002058
:102B800060060020440600200D480E49C8630E4828
:102B90000E49C8630E480F49086000210E4A1160B3
:102BA0005160401E4FF0E021486170200B490870D1
:102BB00000204FF0E0218861072008610020704765
:102BC000ED1D0008000000208D180008802C00205A
:102BD00040190100B40600207806002023ED00E033
:102BE0002DE9F0410446E06CC70E0E48006800EB8A
:102BF000C706A06CB0420ED0A06CA0F14405E86CF2
:102C000020F07840E16C21F078410844E96C01F053
:102C100078410843E86404F14400FDF748FEBDE84C
:102C2000F08100006806002010B50F4800680F49C9
:102C3000096888420BD00D4800680B4908600846B7
:102C4000C1880B4800880844401E07498880064810
:102C500081880748008880B2814204D1002002495F
:102C60000860FEF76DFC10BD8806002038060020C5
:102C7000780600200020024908600A20C8807047BA
:102C80008806002030B50446012304E04FF0CA3521
:102C900042F823505B1CB3EB910FF7D34FF0CC35C8
:102CA00015605518A5F144004FF0043505604FF04C
:102CB000053545604FF0063585604FF00735C56036
:102CC0004FF0083505614FF0093545614FF010357B
:102CD00085614FF01135C5610025056244624FF0F2
:102CE000013585626D00C5624FF0033505634FF015
:102CF00012354563034D8563034DC5634FF0807501
:102D0000056430BD112800086D2700082DE9F04149
:102D1000002500240526002740E005E00320FDF7FC
:102D2000BDFC142800DD641C301EA6F10106F5D19F
:102D30000526032C0CD9002423211948FDF792FC09
:102D400040F6B830FEF7B4FF23211548FDF788FCA4
:102D50000020FDF7DFFC012804D112480068401C68
:102D6000104908600F480068012810D10EA0FEF736
:102D700033FF00200B49086023210948FDF772FC4E
:102D80006420FEF795FF23210548FDF769FCC82064
:102D9000FEF768FB05460DB1BDE8F081BDE7000018
:102DA000000C0140180600203032243121000000C0
:102DB00070B5002400253FE020484078312803D03A
:102DC0001E484078302831D11C48807824282DD1E5
:102DD0001A48C07878280CD123211948FDF742FC05
:102DE00040F6B830FEF764FF23211548FDF738FCA4
:102DF00016E01248C078A0F130050DE023211048FC
:102E0000FDF730FC6420FEF753FF23210C48FDF74B
:102E100027FC6420FEF74CFF281EA5F10105EDD12B
:102E2000002008490880302004498870C820FEF737
:102E300019FB044604B170BDBEE70000C0060020C7
:102E4000000C01401E060020782E00080000002023
:102E500000040000D0010008942E000800060020A5
:102E6000C0000000E81B0008542F0008C006002026
:102E7000C02B0000F81B0008411309010C10086565
:102E80001D040110A9180B1449022401FF01FF01C0
:102E9000FF01B3000000000001020304010203046B
:102EA00006070809020406080000000000000000F0
:102EB0000100000000000000000000000000000011
:102EC0000000000000000000000000000000000002
:102ED00000000000000000000000000000000000F2
:102EE00000000000000000000000000000000000E2
:102EF00000000000000000000000000000000000D2
:102F000000000000000000000000000000000000C1
:102F100000000000000000000000000000000000B1
:102F200000000000000000000000000000000000A1
:102F30000000000000000000000000000000000091
:102F40000000000000000000000000000000000081
:042F5000000000007D
:04000005080000ED02
:00000001FF
