:020000040800F2
:10000000089400204D010008A5160008A716000856
:10001000AB160008AF160008B31600080000000079
:10002000000000000000000000000000B7160008FB
:10003000B916000800000000F95E00084D2B00080A
:1000400067010008670100086701000867010008F0
:1000500067010008670100086701000867010008E0
:1000600067010008670100086701000867010008D0
:1000700067010008670100086701000867010008C0
:1000800067010008670100086701000867010008B0
:1000900067010008670100086701000867010008A0
:1000A0006701000867010008670100086701000890
:1000B0006701000867010008670100086701000880
:1000C0006701000867010008670100086701000870
:1000D000670100086701000867010008BF160008F3
:1000E0006701000867010008670100086701000850
:1000F0006701000867010008670100086701000840
:10010000670100086701000867010008670100082F
:10011000670100086701000867010008670100081F
:10012000670100086701000867010008670100080F
:10013000DFF80CD005F092FE004800471546000895
:1001400000060020EFF30580704700000648804756
:1001500006480047FEE7FEE7FEE7FEE7FEE7FEE7AC
:10016000FEE7FEE7FEE7FEE74F0200083101000868
:100170000CB50020019000906C48006840F480307D
:100180006A49086000BF6948006800F400300090C8
:100190000198401C0190009818B90198B0F5A06F23
:1001A000F1D16248006800F4003010B101200090E5
:1001B00001E0002000900098012843D15C480068CD
:1001C00040F010005A4908600846006820F003001B
:1001D00008600846006840F0020008605348406824
:1001E000524948600846406848600846406840F404
:1001F000806048600846406820F47C1048600846EB
:10020000406840F4E81048600846006840F080709C
:10021000086000BF4548006800F000700028F9D071
:100220004248406820F00300404948600846406862
:1002300040F00200486000BF3C48406800F00C00FD
:100240000828F9D10CBD10B5FFF792FF10BD10B50D
:100250003648006840F001003449086008464068AC
:10026000344908403149486008460068324908402E
:100270002E4908600846006820F48020086008467F
:10028000406820F4FE0048604FF41F008860FFF7CC
:10029000DAFF4FF000602949086010BD10B5002159
:1002A00000200022214B5B6803F00C0121B10429DE
:1002B00006D0082928D107E0214B224C236027E0F3
:1002C0001F4B204C236023E0184B5B6803F4701035
:1002D000164B5B6803F48032022303EB904022B993
:1002E000194B4343174C23600DE0104B5B6803F43C
:1002F000003323B1144B4343124C236003E0104BF3
:100300004343104C236003E00D4B0E4C236000BFB1
:1003100000BF064B5B68C3F303130C4CE15C094B55
:100320001B68CB40074C236010BD0000001002404A
:10033000002002400000FFF8FFFFF6FE08ED00E09D
:1003400000127A000006002000093D00040600208B
:1003500031490143314A1160704770B500210023D3
:100360000F22C47804B32D4C246804F4E064C4F56F
:10037000E064210AC1F10403CA40447804FA03F19D
:100380008478144021430901254C0678A15504784E
:1003900004F01F050124AC4005786D11AD0005F196
:1003A000E025C5F8004109E0047804F01F050124A8
:1003B000AC401C4D0678761145F8264070BD1A4AAF
:1003C0000A400243154B1B1F1A60704739B1134A8C
:1003D000121D12680243114B1B1D1A6006E00F4AE2
:1003E000121D126882430D4B1B1D1A6070470428B2
:1003F00008D14FF0E021096941F004014FF0E022FB
:10040000116107E04FF0E021096921F004014FF08C
:10041000E0221161704700000000FA050CED00E0D9
:1004200000E400E080E100E080FFFF1F10B504461B
:10043000FA48844208D10121401500F055FD002101
:10044000601500F051FD17E0F548844208D1012104
:10045000001500F049FD0021201500F045FD0BE0DE
:10046000F048844208D10121C80300F03DFD00217D
:100470004FF4004000F038FD10BD30B502460020BA
:1004800000235068E84C20400D790C6844EA0524AC
:10049000204350609068E54C2040D1E902542C4341
:1004A0004D7944EA450420439060D06A20F47000FE
:1004B0000C7C641EE4B2234340EA0350D06230BD9A
:1004C00000210160017141718160C16001210174ED
:1004D000704721B1826842F00102826003E08268C5
:1004E00022F001028260704721B1826842F480727A
:1004F000826003E0826822F480728260704710B5E7
:100500000023CBB21AB144681C43446002E0446843
:100510009C43446010BD816841F0080181607047D0
:10052000014600208A6802F008020AB1012000E0BA
:1005300000207047816841F00401816070470146E6
:1005400000208A6802F004020AB1012000E00020C5
:10055000704721B1826842F4A002826003E08268A1
:1005600022F4A00282607047014600208A6802F4EB
:1005700080020AB1012000E00020704710B50A4651
:1005800000210023416821F46041531E41EA4331B8
:10059000416010BD21B1426842F40062426003E054
:1005A000426822F4006242607047F0B504460D468E
:1005B00000200021092D11DDE068A5F10A0606EBF7
:1005C0004607072606FA07F18843A5F10A0606EB57
:1005D000460603FA06F10843E0600CE0206905EBEB
:1005E0004507072606FA07F1884305EB450603FA97
:1005F00006F108432061072A0FDA606B561E06EBEE
:1006000086071F2606FA07F18843561E06EB860664
:1006100005FA06F10843606322E00D2A0FDA206B29
:10062000D61F06EB86071F2606FA07F18843D61F5A
:1006300006EB860605FA06F10843206310E0E06A3F
:10064000A2F10D0606EB86071F2606FA07F188437E
:10065000A2F10D0606EB860605FA06F10843E062F4
:10066000F0BD21B1826842F48012826003E08268AA
:1006700022F48012826070470146C86C80B27047D5
:1006800066484C300068704721B1426842F480628D
:10069000426003E0426822F480624260704721B108
:1006A000426842F48052426003E0426822F4805281
:1006B000426070470A460021816821F4E0411143FD
:1006C0008160704721B1826842F40042826003E099
:1006D000826822F400428260704721B1826842F44D
:1006E0000212826003E0826822F402128260704784
:1006F000014600208A6802F400120AB1012000E0DD
:1007000000207047F0B50446154600200022002660
:10071000092911DDE068A1F10A0707EB470C07275B
:1007200007FA0CF29043A1F10A0707EB470703FA17
:1007300007F21043E0600CE0206901EB410C072751
:1007400007FA0CF2904301EB410703FA07F210435A
:100750002061A06BC0F30156EF1C06F1010CA7EB62
:100760000C0707EB870C1F2707FA0CF29043EF1CCE
:1007700006F1010CA7EB0C0707EB870701FA07F25C
:100780001043A063F0BD10B50A4600210023816B21
:1007900021F44011531E41EA0351816310BD08B595
:1007A000002300930090009B0B440093009B1A6071
:1007B00008BD08B5024600200090009201F1280013
:1007C000009B184400900098006880B208BD0A465B
:1007D00000214168164B1940114341607047416246
:1007E000826270470A460021416821F01F011143CF
:1007F0004160704740B109490831096841F400017E
:10080000064A0832116007E004490831096821F4FA
:100810000001024A083211607047000000240140C4
:1008200000280140003C0140FFFEF0FFFDF7F1FF12
:10083000FFFD3FFF0246002013680B400BB1012073
:1008400000E000207047CA430260704770B502465E
:100850000020002300240B125568CEB205EA0604DE
:1008600015681D4015B10CB1012000E0002070BDDD
:1008700000220A12D34303607047000010B50446FB
:10088000CC48844208D10121042000F02DFB002136
:10089000042000F029FB46E0C748844208D101212A
:1008A000082000F021FB0021082000F01DFB3AE0A9
:1008B000C248844208D10121102000F015FB00211C
:1008C000102000F011FB2EE0BD48844208D1012128
:1008D000202000F009FB0021202000F005FB22E091
:1008E000B848844208D10121402000F0FDFA0021DF
:1008F000402000F0F9FA16E0B348844208D1012103
:10090000802000F0F1FA0021802000F0EDFA0AE0EA
:10091000AE48844207D10121801500F0E5FA00219C
:10092000A01500F0E1FA10BD10B50121084600F055
:10093000DBFA0021012000F0D7FA10BD2DE9F041CB
:10094000024600250026002000230024002791F8FD
:1009500003C00CF00F0591F803C00CF0100CBCF1B3
:10096000000F03D091F802C04CEA050591F800C0D1
:10097000BCF1000F31D0146800202BE04FF0010CC7
:100980000CFA00F3B1F800C00CEA03069E4220D135
:1009900083004FF00F0C0CFA03F7BC4305FA03FC7D
:1009A0004CEA040491F803C0BCF1280F06D14FF0C3
:1009B000010C0CFA00FCC2F814C00AE091F803C064
:1009C000BCF1480F05D14FF0010C0CFA00FCC2F845
:1009D00010C0401C0828D1D31460B1F800C0BCF18D
:1009E000FF0F34DD546800202EE000F1080C4FF0BA
:1009F000010808FA0CF3B1F800C00CEA03069E42A5
:100A000021D183004FF00F0C0CFA03F7BC4305FA19
:100A100003FC4CEA040491F803C0BCF1280F05D193
:100A200000F1080C08FA0CF8C2F8148091F803C021
:100A3000BCF1480F07D100F1080C4FF0010808FA8B
:100A40000CF8C2F81080401C0828CED35460BDE8D2
:100A5000F0814FF6FF710180022181700421C17085
:100A600070470246002093680B400BB1012000E064
:100A7000002070470146886880B270470246002017
:100A8000D3680B400BB1012000E000207047014605
:100A9000C86880B2704701617047416170470AB110
:100AA000016100E041617047C16070474FF48032DE
:100AB0000A4382618161826182698269704702466C
:100AC0000020434B18684FF68073184040EA02102C
:100AD00008433F4B186070473E49C8617047F0B506
:100AE0000A46002300240021002500F00046B6F14C
:100AF000004F02D1364EF16901E0354E7168C0F306
:100B0000034583B200F44016B6F5401F08D121F02A
:100B100070612F4E766826F070662D4F7E6012E071
:100B200000F48016B6F5801F06D1032606FA05F4F8
:100B3000A14341F0706106E0460D360103FA06F666
:100B4000B14341F0706122B1460D360103FA06F659
:100B5000314300F00046B6F1004F02D11C4EF16166
:100B600001E01B4E7160F0BD30B500228B071C0FF9
:100B70000F2303FA04F2164B08338C1053F8243079
:100B80009343134C08348D1044F8253023468C10C1
:100B900053F824308C07240F00FA04F423430C4C40
:100BA00008348D1044F8253030BD0A49DC31086026
:100BB0007047000000080140000C01400010014097
:100BC0000014014000180140001C014000200140B9
:100BD0000000014000002042DF48006840F00100B2
:100BE000DD49086008464068DC490840DA49486049
:100BF00008460068DA490840D74908600846006896
:100C000020F4802008600846406820F4FE00486018
:100C10004FF41F0088607047CF49096821F4803184
:100C2000CD4A11601146096821F480211160B0F5A8
:100C3000803F03D0B0F5802F0ED106E0C649096889
:100C400041F48031C44A116007E0C349096841F4A6
:100C5000A021C14A116000E000BF00BF704710B57D
:100C600001460022002300204A11012A02D1BA4C79
:100C7000236806E0022A02D1B74C236A01E0B64C91
:100C8000636A01F01F02012494401C400CB1012052
:100C900000E0002010BD38B50020009000240025A1
:100CA00000BF3120FFF7DBFF05460098401C009095
:100CB0000098B0F5A06F01D0002DF2D03120FFF7E1
:100CC000CEFF08B1012400E00024204638BD0146D3
:100CD0000020A14A106820F0F80040EAC10010602E
:100CE0007047A04908607047024600209A4B586838
:100CF00020F47C1042EA01031843974B5860704778
:100D000098490866704701460020934A506820F0D1
:100D100003000843506070478F48406800F00C00A3
:100D20007047014600208C4A506820F0F0000843CC
:100D30005060704701460020874A506820F4E06008
:100D400008435060704701460020834A506820F4F1
:100D5000605040EAC1005060704729B17E4A527A23
:100D600002437D4B5A7204E07B4A527A82437A4BAB
:100D70005A7270477B49D83108607047014600209D
:100D8000754A506820F44040084350607047002185
:100D9000714A20321170704A82F82010012802D066
:100DA00004280AD104E001216B4A2032117005E0C9
:100DB0000521694A2032117000E000BF00BF704772
:100DC0006949086070476449096A0143624A1162CF
:100DD0007047654944390860704730B500210022EA
:100DE000002400235C4D6D6805F00C0121B104293D
:100DF00005D0082923D105E05C4D056022E05B4D5C
:100E000005601FE0544D6D6805F47012524D6D6819
:100E100005F48034022505EB92421CB9544D55432C
:100E200005600BE04C4D6D6805F400351DB1504D6B
:100E30005543056002E04D4D5543056002E04B4DC2
:100E4000056000BF00BF444D6D6805F0F001090961
:100E5000484D6B5C0568DD4045603F4D6D6805F4AD
:100E6000E061090A434D6B5C4568DD4085603A4DA1
:100E70006D6805F46051C90A3E4D6B5C4568DD4004
:100E8000C560354D6D6805F44041890B3A4D6B5C8A
:100E9000C568B5FBF3F5056130BD29B12E4A52692D
:100EA00002432D4B5A6104E02B4A526982432A4B7C
:100EB0005A61704729B1284A92690243264B9A61C8
:100EC00004E0254A92698243234B9A61704729B115
:100ED000214AD2690243204BDA6104E01E4AD269FA
:100EE00082431D4BDA61704729B11B4AD268024325
:100EF000194BDA6004E0184AD2688243164BDA6074
:100F0000704729B1144A12690243134B1A6104E075
:100F1000114A12698243104B1A61704712494039D5
:100F2000086070470F49C86470470B49C871704723
:100F30000948406A40F0807007494862704701469E
:100F40000020054A92680A400AB1012000E0002012
:100F50007047014988727047001002400000FFF896
:100F6000FFFFF6FE000042428004424200127A0077
:100F700000093D00140600202406002010B5044698
:100F8000FB48844209D101218803FFF7ADFF00210E
:100F90004FF48040FFF7A8FF32E0F648844209D1C1
:100FA00001214804FFF7ADFF00214FF40030FFF7A7
:100FB000A8FF25E0F048844209D101218804FFF709
:100FC000A0FF00214FF48020FFF79BFF18E0EB48C3
:100FD000844209D10121C804FFF793FF00214FF497
:100FE0000020FFF78EFF0BE0E548844208D1012185
:100FF0000805FFF786FF00214FF48010FFF781FFFF
:1010000010BD2DE9F04786B005460E460024A246E5
:1010100000BFA1460027B08900B100BF2F462C8A2F
:101020004CF6FF700440F08804432C82AC894EF6E5
:10103000F3100440B08831890843718908430443A0
:10104000AC81AC8A4FF6FF400440B0890443AC82C7
:1010500001A8FFF7C2FEC648874202D1DDF810A002
:1010600001E0DDF80CA0A88900F4004040B10AEBD3
:10107000CA0000EB0A1031684900B0FBF1F807E044
:101080000AEBCA0000EB0A1031688900B0FBF1F8E6
:101090006420B8FBF0F004012009642101FB1089F1
:1010A000A88900F4004040B1322000EBC900B0FB39
:1010B000F1F000F00700044308E0322000EB0910D3
:1010C0006421B0FBF1F000F00F0004432C8106B066
:1010D000BDE8F0874FF41651016000218180C18086
:1010E00001810C21418100218181704710B50246A8
:1010F0000020108A4FF2FF0318400B884C882343CE
:101100008C882343CC8823431843108210BD0021D0
:10111000018041808180C180704721B1828942F481
:101120000052828104E082894DF6FF731A40828169
:101130007047F0B50346002400260025002040F645
:101140006A17B94200D100BF1846C1F3421401F03A
:101150001F06012707FA06F5012C01D10C3004E027
:10116000022C01D1103000E014301AB107682F436F
:10117000076002E00768AF430760F0BD1AB1838AD9
:101180000B43838202E0838A8B4383827047028A07
:101190004FF6F0731A400282028A0A4302827047B5
:1011A00082894FF2FF731A40828182890A438281C9
:1011B000704721B1828942F00202828104E0828973
:1011C0004FF6FD731A4082817047028A4FF6DF7333
:1011D0001A400282028A0A430282704721B1028ABF
:1011E00042F48042028204E0028A4BF6FF731A4006
:1011F00002827047C1F308028280704701468888E6
:10120000C0F308007047818941F001018181704776
:10121000028BD2B20283028B42EA01220283704720
:10122000028B02F47F420283028B0A4302837047DF
:1012300021B1828A42F02002828204E0828A4FF643
:10124000DF731A408282704721B1828A42F0100215
:10125000828204E0828A4FF6EF731A4082827047DE
:1012600021B1828A42F00802828204E0828A4FF62B
:10127000F7731A408282704721B1828942F400429A
:10128000828103E08289C2F30E028281704721B11C
:10129000828A42F40062828204E0828A4FF2FF7303
:1012A0001A4082827047828A4FF6FB731A4082820C
:1012B000828A0A438282704721B1828A42F0020206
:1012C000828204E0828A4FF6FD731A408282704760
:1012D00002460020B1F5007F00D100BF13880B400B
:1012E0000BB1012000E00020704701F40072B2F55C
:1012F000007F00D100BFCA430280704770B502462C
:10130000002400230025002040F66A16B14200D1D7
:1013100000BFC1F3421501F01F03012606FA03F3D3
:10132000012D02D19689334006E0022D02D1168AA2
:10133000334001E0968A33400C12012606FA04F489
:101340001688344013B10CB1012000E0002070BDBC
:1013500010B50022002340F66A14A14200D100BF5C
:101360000A1201249440A3B2DC43048010BD0000A3
:10137000003801400044004000480040004C00405C
:101380000050004001B502E00098401E0090009817
:101390000028F9D108BD10B500F0ECF903F074FB9A
:1013A00004F00EF804F07FF904F0F0F900F0CAF947
:1013B00010BD70B500240025002622E06D1C04F04D
:1013C00088F99A490860002304229948006802F0CD
:1013D000C4F804460221974801F0D1FC04461CB130
:1013E00095A004F0B9FD70BD99480068C1439148CB
:1013F00001F049FD41F2707001F0CBFA044604B1EE
:10140000F1E7DBE710B58AB000240320ADF808004F
:1014100090A00890AFF2650001904FF434700790EF
:101420008020099001A98D4800F0B6FF044614B150
:1014300020460AB010BD2046FBE770B50024002509
:1014400004E06D1C03F0A6FE04B170BDF9E710B511
:101450008AB00024774801F0B9FB044634B180A07B
:1014600004F07AFD4FF0FF300AB010BD0120ADF856
:10147000080081A00890AFF23D0001904FF4A060F9
:1014800007908020099001A9744800F085FF044668
:101490000CB12046E8E72046E6E770B500250026B7
:1014A0002BE0761C40F2DC5302220121684801F057
:1014B000C1FB0446012C19D105B11FE0AFB1704842
:1014C000006880F001006E4908604FF47A7001F006
:1014D00060FA05466A48006880F0020068490860C2
:1014E0004FF47A7001F055FA054600BF4FF47A7058
:1014F00001F04FFA054605B170BDD2E700BF00BF4D
:10150000FAE710B58AB00024514801F05FFB0446A9
:1015100034B153A004F020FD4FF0FF300AB010BDED
:101520000020ADF8080057A00890AFF2910001909C
:101530004FF4347007908020099001A9474800F0CB
:101540002BFF04460CB12046E8E72046E6E770B5DD
:101550000024002520E000266D1C01214B4804F0EA
:1015600025F9064686B10121394801F008FC0446F8
:101570001CB131A004F0F0FC70BD35480068C143D7
:10158000334801F080FC00BF4FF4167001F001FAFF
:10159000044604B1F0E700BFDDE710B58AB00024CF
:1015A0000220ADF808003AA00890AFF25D0001906B
:1015B0004FF4347007908020099001A9274800F06B
:1015C000EBFE044614B120460AB010BD2046FBE7EE
:1015D00038B50024FFF7DFFE0120294908310860F3
:1015E0002D48FFF7CFFE04200023114A012100906F
:1015F0002AA001F0E8FE0446FFF704FF04460CB100
:10160000204638BDFFF723FF04460CB12046F8E71B
:10161000FFF777FF04460CB12046F2E7FFF7BDFF66
:1016200004460CB12046ECE70020EAE73006002033
:101630002C060020E80600206576656E742077721F
:10164000697465206661696C6564202E0A0000007B
:10165000DC0600207461736B310000002806002056
:10166000696E6974206576656E74206661696C6563
:1016700064202E0A000000007461736B32000000C9
:101680000C0C01407461736B3300000000080140D2
:101690007461736B34000000FFFF0F007175657596
:1016A00065000000704700BFFEE700BFFEE700BF17
:1016B000FEE700BFFEE7704770477047704710B500
:1016C00040F225512548FFF719FED8B12348FFF70E
:1016D00095FDC4B22248B0F80004C0F30E0040F2F9
:1016E000FF3188420EDA1E49B1F80014C1F30E0032
:1016F000411C1B4AB2F8002461F30E021849A1F8FC
:1017000000240C5440F224411448FFF7F7FD01284F
:1017100017D11348B0F8000420F4004000F5004051
:101720000F49A1F800040D48FFF768FDC4B20DA1F0
:101730000B4804F0A6F808B1012000E000200C4995
:10174000087010BD08B50020AFF28D0302460146B7
:101750000090272003F076F808BD00000048004004
:10176000048C0020434C4F5345440D0A00000000F8
:10177000D406002008B501210820FFF79BFB0120BB
:10178000ADF8000010208DF8030003208DF8020052
:1017900069460F48FFF7D2F80220ADF8000069460D
:1017A0000B48FFF7CBF82020ADF800006946084849
:1017B000FFF7C4F801210648FFF76DF9022104483C
:1017C000FFF769F920210248FFF765F908BD00001D
:1017D000000C014070B5002400254FF480752946A7
:1017E0003848006802F049FC37490860084600683C
:1017F00000B970BD0020044608E03349096801EBD8
:10180000C4004060006000BF601C0446202CF4D37C
:1018100000BFEEE710B50A462B49096801EBC20389
:1018200019684C68446001604C682060486000BFE3
:1018300000BF10BD00BFD0E900121160D0E9002147
:10184000516000214160016000BF7047002100200D
:10185000014612E01C4A126802EBC1004268824253
:1018600001D1012200E000222AB91748006800EBEC
:10187000C10040687047481C01462029EAD3002077
:10188000F8E70146002000220F4B1B6803EBC10361
:101890005A6801E0401C52680B4B1B6803EBC10304
:1018A0009342F7D1704730B50024002500BF04E013
:1018B0002046FFF7E6FF0544641C202CF8D3284699
:1018C00030BD0000C4060020340600200EB5002004
:1018D000029000BF4FF0FF33042202A9F7480068CE
:1018E00001F0ADFD0446002CF4D102980028F1D09F
:1018F000029800680090029840680190F0480299B0
:1019000002F0AAF900980028E4D0DDE90010884729
:10191000E0E710B58AB0242101A803F0A7FFAFF2D9
:10192000530001904FF434700790E6A00890002017
:10193000ADF808008020099001A9E54800F02CFDD1
:10194000044620460AB010BD2DE9F8430020E149C5
:1019500008604FF400784146DF48006802F08DFBD4
:10196000044614B9DD48BDE8F8834146204603F03B
:101970007DFFDB480460DB480460002020812546B1
:101980002034012705E027812C602546781C87B28A
:101990002034102FF7DB0822D021C94802F0FEF8CE
:1019A000064616B1CD48C01CDDE704200023C34A1B
:1019B00010210090184601F006FD064616B1C748F2
:1019C000001DD0E7FFF7A5FF064616B1C348401D2E
:1019D000C9E70020C7E710B50022002183793BB991
:1019E000437913B14379022B02D14369C36001E00B
:1019F0000369C360B74B19680AE0CB68C468A342A7
:101A000000D907E0C368CC681B1BC3600A4609689D
:101A10000029F2D100BF016019B1CB68C4681B1B5B
:101A2000CB6012B9AB4B186000E010600223037169
:101A300010BD70B5A748046836E0A6492068086064
:101A40009F4802F0EBF805467DB1E0692860A06987
:101A500068600023042229469848006801F07DFD53
:101A600018B12946964802F0F7F86079A0B92046E7
:101A700000F084F920894FF6E071884203DA20896A
:101A8000103020810EE02089C11700EB117109117F
:101A9000A0EB0111218105E0A079401CA071204636
:101AA000FFF799FF8B48046814B1E0680028C4D0A0
:101AB00070BD10B58748006848B186480068C068A6
:101AC000401E84490968C86008B9FFF7B2FF0020CA
:101AD00010BD8048006810B94FF0FF3070477D4856
:101AE0000068C068FAE710B504467A480068C06824
:101AF000A04202D277480068C46876480068C0688F
:101B0000001B74490968C86072480068C06808B959
:101B1000FFF78FFF10BD10B50246002100206D4B6E
:101B2000186801E0014600689042FBD103682BB1C0
:101B30000368DB68C46823440468E36019B9654C32
:101B40000368236001E003680B6000230360012346
:101B500003710023837110BD2DE9F04705460E4641
:101B600017469846DDF820901DB95C48801FBDE8F7
:101B7000F08726B1012E02D05848401FF7E717B969
:101B80005648C01FF3E7B8F1000F02D15348001FB9
:101B9000EDE704F0A1F982465248006828B95046A2
:101BA00004F0A2F94D48C01EE1E74E4804684D49D3
:101BB00020680860504604F097F9E76166710020DC
:101BC000A071256165612060E060C4F81890012073
:101BD00020712089A8F800000020C8E72DE9F04115
:101BE000044600274FF6F070844203DB3B48801E1A
:101BF000BDE8F08104F070F980462046E11704EB5F
:101C000011710911A4EB01118EB23548006800EB87
:101C100046152889A04205D0404604F065F92F48B2
:101C2000801EE5E7287920B1012809D002280BD1D0
:101C300002E02A4F7F1E0AE02846FFF76CFF00BF34
:101C40002846FFF7C8FE02E0244FFF1D00BF00BF7B
:101C5000404604F049F93846CAE72DE9F041044608
:101C600000274FF6F070844203DB1C48801EBDE85D
:101C7000F08104F031F980462046E11704EB117140
:101C80000911A4EB01118EB21548006800EB46154E
:101C90002889A04205D0404604F026F90F48801E4E
:101CA000E5E7287920B1012805D0022820D11BE0E2
:101CB0000A4F7F1E1EE0094FBF1D1BE038060020A3
:101CC000F40600205377745F5461736B00000000CA
:101CD0006006002044060020C4060020070300021E
:101CE0003C060020400600202846FFF714FF01E0D4
:101CF000264F00BF00BF404604F0F6F83846B6E76E
:101D00002DE9F041044600274FF6F070844203DBD2
:101D10001E480938BDE8F08104F0DEF88046204610
:101D2000E11704EB11710911A4EB01118EB21848EF
:101D3000006800EB46152889A04205D0404604F013
:101D4000D3F812480938E5E7287920B1012809D0ED
:101D500002280BD102E00D4F083F09E02846FFF7AB
:101D6000DAFE00BF284600F009F801E0074F00BF87
:101D700000BF404604F0B8F83846CBE7054909688B
:101D80000160044908600021017170470E030002E0
:101D90003C0600204006002004F09EF800BFFEE74D
:101DA000464903C9704748F6A040704770B50446DD
:101DB000B4F1FF3F02D14FF0FF3070BD4FF47A70A5
:101DC000A4FB005001464FF47A720023284603F02A
:101DD00003FDF2E770B504464FF47A70A4FB00509F
:101DE00001464FF47A720023284603F0F5FC70BDDB
:101DF0002DE9FC470446894692462CB1B9F1000F03
:101E000002D0BAF1000F02D12D48BDE8FC870021B5
:101E1000D4E9000241EA020740EA01083846414697
:101E200003F0D6FE0022274BCDE9000103F054FE5B
:101E300005460E462846314603F0D6FE074688463C
:101E4000CAF80070C9F800800020DEE72DE9FC47E1
:101E50000446894692462CB1B9F1000F02D0BAF17E
:101E6000000F02D11648BDE8FC870021D4E900022A
:101E700041EA020740EA01083846414603F0A8FE5D
:101E80000022114BCDE9000103F026FE05460E4667
:101E90002846314603F0A8FE07468846CAF8007077
:101EA000C9F800800020DEE700B5FFF779FF00BD2C
:101EB00010B504462046FFF78DFF10BD90060020A8
:101EC000100000020094E1400000424042684A6075
:101ED00008604268116041607047D0E900121160EB
:101EE000D0E900215160002141600160704700BFCE
:101EF000FEE770B504460D46207900F0040090B16D
:101F000004F13C00FFF796FCA08820F00400A080BC
:101F1000E580A08840F00400A080E18804F13C0046
:101F2000FFF778FC00E0E58070BD2DE9F04704463E
:101F3000884608F01F074FEA581907B101E0A9F1D8
:101F40000109E06C00F0784040EA0900E064FC48D8
:101F50008088074407F01F07E06C67F3DF60E064E8
:101F6000F748006800EBC7067068B04205D104F17D
:101F70004401304600F0C4FD33E07068A0F1440530
:101F800000BFE86C20F07840E16C21F07841884295
:101F90000CD8E06C20F07840E96C21F07841401AD0
:101FA000E16C01F078410843E0640CE0E86C20F05B
:101FB0007840E16C21F07841401AE96C01F07841F9
:101FC0000843E86406E0A86CA0F1440505F144006C
:101FD000B042D6D100BF04F1440105F1440000F045
:101FE0008FFDBDE8F0872DE9F0410446E06CC70E97
:101FF000D348006800EBC706A06CB0420ED0A06CBE
:10200000A0F14405E86C20F07840E16C21F07841C3
:102010000844E96C01F078410843E86404F14400A5
:10202000FFF75BFFBDE8F0812DE9F0410027C449CF
:102030008988481CC11700EBD1614911A0EB4111FF
:10204000BF4A9180104600681146898800EBC1059F
:102050006868A84201D1BDE8F0816868A0F1440435
:1020600043E0A688E06C20F0784018B1E06C401E98
:10207000E0643EE004F14400FFF72FFF06F00800A3
:1020800058B1A08820F00800A08004F13C00FFF7C0
:1020900024FF0020A061606217E006F4806020B198
:1020A000A08820F48060A0800FE006F4005040B1CA
:1020B00004F13C00FFF711FFA08820F40050A0803D
:1020C00003E0A08820F02000A08006F0020048B9BC
:1020D000A08840F00400A080E18804F13C00FFF7F4
:1020E00099FB01276868A0F1440404F14400A84268
:1020F000B7D100BF0FB102F0A7FA00BFABE770B5D0
:1021000090480068401C682100FB01F631468E486B
:10211000006801F0B2FF8D4908600846006808B900
:102120008B4870BD31468948006803F09FFB8948A1
:1021300000F0E3FC884800F0E0FC884800F0DDFC9B
:10214000002420E0012004EB840101EBC4017F4A5C
:10215000126802EBC101888004EB840000EBC4002C
:102160007A49096801EBC000046104EB840000EBCC
:10217000C400764A126802EBC00000F13C017648C8
:1021800000F0BEFC641C0F2CDCD9754800210160F6
:1021900041606C48006800EB800101EBC0006B49B6
:1021A000096801EBC0006E490860084600680461D8
:1021B000112009688880202069490968C880FFF7D4
:1021C00009FB4FF4807631465F48006801F055FF07
:1021D00005460DB95E48A4E73146284603F046FBA4
:1021E00057480560002056498880002404E02846AE
:1021F00000F083FC641C0835202CF8D3002090E705
:102200002DE9F05F07460D464FF000094FF0FF3A09
:1022100017B95448BDE8F09F15B95248801FF9E737
:10222000E86910B94F48801EF4E7286810B94D4896
:10223000C01EEFE7A8881F2802DD4A48001FE9E713
:10224000A869B0F5004F02D946481930E2E7A869FD
:1022500010B94FF43470A8610821A86902F068F938
:10226000A86110214FF4987002F062F9A9698842C0
:1022700002D93C48401ECDE703F02EFE834611E014
:1022800036484068A0F13C0434494868FFF725FE11
:1022900004F13C013048FFF719FE2B48E168006863
:1022A00001F044FF2D4800F033FC0028E8D02A4814
:1022B00000F02EFC28B1DFF8ACA00AF10A0A00BF3A
:1022C00065E025484068A0F13C0423494868FFF7D1
:1022D00004FE584603F008FED4F8109008221A486D
:1022E000A969006801F0E6FE06465EB903F0F4FD58
:1022F000834604F13C011848FFF7E8FDDFF850A0E1
:1023000000BF44E032464846A96902F0BCF9804665
:10231000C4F80080A868A062E968E16229692163C5
:1023200069696163E660A869A0600020A061E0615E
:1023300060620220A080A088296AA9B1802114E0EF
:102340007C06002058060020C40600204806002015
:1023500000020003640600206C06002074060020C2
:102360004C0600200702000200210843A080A88834
:10237000E080286860614FF0FF3020650020E06554
:10238000E869A06300206066C7F8009042E75846FD
:1023900003F0AAFD50463DE72DE9F04105460F4602
:1023A000002639462846FFF72BFF064616B1304671
:1023B000BDE8F081286800EB800101EBC000F7491F
:1023C000096801EBC00403F087FD8046A08820F077
:1023D0000200A080A08840F00400A080E18804F101
:1023E0003C00FFF717FAFFF731FA3C38EC49486038
:1023F000EC48006888B1EC48008870B9084600686D
:102400004968884209D0E848008830B9404603F05E
:102410006BFD02F015F90020CAE7404603F064FDA9
:102420000020C5E710B58AB0242101A803F01EFAE8
:10243000AFF2455001904FF4A0600790DBA00890E8
:102440001F20ADF8080001A9DB48FFF7A5FF0446EF
:1024500014B120460AB010BD0020FBE7D048006848
:1024600008B9D6487047CE4800680069FAE72DE9F8
:10247000F04105460F4605EB850000EBC500C74956
:10248000096801EBC004A68806F0040040B104F11D
:102490003C00FFF7CFF9A08820F00400A0800DE0F9
:1024A00042F20800304048B104F13C00FFF715FD4E
:1024B00006F0600010B12046FFF795FDA08820F0DF
:1024C0000200A080A08840F00100A0804FF0FF3003
:1024D00020650020E065FFF7B9F93C38B049486055
:1024E000207900F0100040B304F13C01B44800F042
:1024F00007FBB448006800EB800101EBC000A7496E
:10250000096801EBC000A64908600846006805613B
:10251000A08809688880A249E0680968C860A04965
:10252000A06B096888630120A080384603F0DCFCBA
:1025300002F086F80020BDE8F081207900F001006B
:1025400030B1384603F0D0FC02F07AF80020F2E710
:10255000384603F0C9FC0020EDE710B503F0BCFCE1
:1025600004469148008800280DDD8F480088401EF1
:102570008D4908800846008828B9204603F0B4FC3D
:1025800002F062F810BD204603F0AEFC00BFF9E790
:1025900010B503F0A1FC044683480088401C824922
:1025A0000880204603F0A0FC10BD2DE9F04105464F
:1025B00005EB850000EBC5007849096801EBC00414
:1025C000E06930B1666904F128000FC8B0472062A5
:1025D00004E0666904F128000FC8B047207900F0D4
:1025E000800050B103F078FC074600206E49088057
:1025F00039462069FFF73BFF22E003F06DFC0746F8
:10260000002069490880384603F06EFCFFF7C0FFE0
:10261000E06928B1E169486801F045FA0020E0610D
:10262000207900F0040038B104F13C00FFF702F912
:10263000A08820F00400A080FFF78FFF02F004F8CC
:10264000BDE8F0812DE9F04105464FF0FF370F2D31
:1026500002D95A48BDE8F08105EB850000EBC500C2
:102660004E49096801EBC00403F036FC8046A68899
:1026700006F0010018B1514FFF1C00BF2CE006F01E
:10268000020018B94D4FBF1C00BF25E0A08820F004
:102690000200A080A08842F22A410840B8B9A08870
:1026A00040F00400A080E18804F13C00FFF7B2F89C
:1026B0003C48006830B1404603F016FC01F0C4FF0E
:1026C0000020C7E7FFF7C2F83C383549486040466C
:1026D00003F00AFC0020BDE7404603F005FC384645
:1026E000B8E72DE9F04105464FF0FF373248006862
:1026F000854203D131480D30BDE8F0813248006891
:10270000854202D12D481A30F6E72E4800688542EE
:1027100001D32A48F0E705EB850000EBC5001F490F
:10272000096801EBC00403F0D7FB8046A68806F0D9
:10273000010018B1214FFF1C00BF49E006F0020064
:1027400018B11E4F7F1C00BF42E006F0100028B1F8
:102750001548008810B11D4F00BF39E006F0040095
:1027600038B104F13C00FFF765F8A08820F00400C0
:10277000A080A08840F00200A0800948006800699D
:10278000A84206D1404603F0AFFB01F05DFF0020F8
:10279000B2E7404603F0A8FB0020ADE74806002062
:1027A0004C060020840600205406002049646C6515
:1027B000436F7265303030005C0600200702000273
:1027C0007406002058060020600600201502000351
:1027D000404603F089FB38468EE72DE9F041064676
:1027E0004FF0FF37CE480068864202D1CD48BDE8A1
:1027F000F081CD480068864202D3CA480D38F6E71A
:1028000003F06AFB804606EB860000EBC600C74972
:10281000096801EBC004A588207900F0010018B117
:10282000C04F0A3F00BF73E005F0100028B1C04858
:10283000008810B1BF4F00BF6AE005F0040040B14E
:1028400004F13C00FEF7F6FFA08820F00400A08011
:1028500009E005F0080010B905F4005018B104F1C2
:102860003C00FFF73AFB05F0600010B12046FFF78F
:10287000BAFBA08820F00200A080A08840F00100F0
:10288000A0804FF0FF3020650020E065FEF7DEFFFE
:102890003C38A9494860207900F0100038B304F1B1
:1028A0003C01A64800F02CF99F48006800EB80012D
:1028B00001EBC0009D49096801EBC0009E4908601A
:1028C000084600680661A088096888809A49E0681F
:1028D0000968C8609849A06B096888630120A080D6
:1028E000404603F001FB01F0ABFE00207FE7012032
:1028F000A08004F13C019248FFF7E8FA9148E168B2
:10290000006801F013FC404603F0EEFA00206EE789
:10291000404603F0E9FA384669E770B50024864876
:102920000068006980490968884202D37D480D38F3
:1029300070BD03F0D1FA05467F490968C888FEF7E3
:10294000A0FF0446012C17D97B49096801F13C001E
:10295000FFF7C3FA78480068808840F004007649A1
:1029600009688880744A1268D188734A126802F133
:102970003C00FEF74FFF05E0284603F0B5FA694832
:10298000001FD5E7284603F0AFFA01F05DFE0020F6
:10299000CEE770B504466C48006810B16548801CED
:1029A00070BD6348008810B15E48801FF8E714B915
:1029B000FFF7B3FFF4E703F08FFA05465E490968B5
:1029C00001F13C00FEF736FF5B480068808820F08C
:1029D0000400594909688880574908682146FFF76B
:1029E000A4FA55480068808840F0200052490968E0
:1029F0008880284603F078FA01F026FE0020CFE711
:102A00002DE9F041044648480068844203D34FF65C
:102A1000FF70BDE8F08104EB840000EBC400434983
:102A2000096801EBC00503F057FA0746287900F062
:102A3000010028B1384603F057FA4FF6FF70E8E777
:102A4000EE88384603F050FA3046E2E72DE9F047C9
:102A500005460E461F2E03DD32481138BDE8F087CB
:102A60002F480068854201D12E48F7E72E480068BC
:102A7000854202D32B480D38F0E705EB850000EBCB
:102A8000C5002A49096801EBC00403F025FA814614
:102A9000B4F8048008F0010028B1484603F024FA95
:102AA00020480A38DAE708F0040797B104F13C003F
:102AB000FEF7C0FEA08820F00400A080E680A08879
:102AC00040F00400A080E18804F13C00FEF7A2FE83
:102AD00000E0E680484603F007FA0FB101F0B4FDCC
:102AE0000020BBE770B50446134909680869214610
:102AF000FFF7ACFF0546284670BD40600060704798
:102B000070B504460D4629462068FFF7DFF970BD11
:102B100001464868884201D1012070470020FCE747
:102B20005C0600201402000258060020480600201F
:102B3000540600200B0200034C06002074060020FF
:102B40006C060020C4060020D006002010B50848FE
:102B5000D0E900305A1C40F100000549C1E90020CD
:102B600000F00EF8FFF760FAFEF7A3FF10BD0000BB
:102B7000900600200020124908600A20C880704793
:102B800010B50F4800680F49096888420BD00D48FE
:102B900000680B4908600846C1880B480088084453
:102BA000401E07498880064881880748008880B20F
:102BB000814204D1002002490860FFF7AEFE10BD3B
:102BC000A00600204C06002090060020014609B90E
:102BD000B548704700200860081D4060006000BFD5
:102BE0000020F6E72DE9F04104460D461646002781
:102BF00003F072F9804606F0020030B120682840E8
:102C000058B1206800EA050707E035B12068284080
:102C1000A84202D1206800EA05072FB106F00100A2
:102C200010B12068B8432060404603F05DF9384693
:102C3000BDE8F0812DE9F05F8146884616461F46C3
:102C40004FF0000AB9F1000F02D19748BDE8F09F9C
:102C5000B8F1000F02D19448001FF7E708F00070A8
:102C600010B19148801FF1E706F0020010B106F0A4
:102C7000040028B926F0070010B906F0060010B9C4
:102C80008948801EE2E78948006810B18648C01E66
:102C9000DCE703F021F98346324641464846FFF718
:102CA000A1FF8246BAF1000F64D127B9584603F05C
:102CB0001BF95046CAE77E48008828B1584603F001
:102CC00013F97948401EC1E77A48046804F13C00D2
:102CD000FEF7B0FDA08820F00400A08004F13C05C0
:102CE000A08840F00800A080C4F85C80266600BF81
:102CF000D9F8040041686960286041680D6045604A
:102D000000BF00BF7FB1781C68B1A08840F04000D0
:102D1000A08039462046FFF708F9584603F0E4F84A
:102D200001F092FC08E0A08820F04000A080584606
:102D300003F0DAF801F088FC207900F0400060B17F
:102D400003F0CAF88346A08820F04000A0805846CF
:102D500003F0CAF85448401F78E703F0BDF88346F3
:102D6000324641464846FFF73DFF8246584603F04B
:102D7000BBF802E0584603F0B7F8504666E72DE985
:102D8000F04705460E460027B84615B94648BDE847
:102D9000F08706F0007010B14348801FF7E703F09A
:102DA0009BF88146286830432860281D416881428D
:102DB00001D1012100E00021002955D1A868A0F12E
:102DC0003C043FE0206CA0F13C0794F8600000F068
:102DD000020010B1E06D304050B994F8600000F08E
:102DE000040070B3E06D29680840E16D884228D185
:102DF0004FF0010800BFD4E90F010860D4E90F10BB
:102E0000486000202064E06300BFA08820F0080034
:102E1000A080207900F0400030B12046FFF7E3F8B1
:102E2000A08820F04000A080207900F0020040B986
:102E3000A08840F00400A080E18804F13C00FEF787
:102E4000E9FC3C4604F13C00291D8842BAD1B8F1A6
:102E5000010F05D1484603F047F801F0F5FB06E005
:102E6000484603F041F802E0484603F03DF80020F0
:102E70008DE7014609B90C48704700228A6000209E
:102E8000486000BFF8E770B504460D460CB9064827
:102E900070BD03F021F806462068284020603046C7
:102EA00003F022F80020F3E7061C0002D006002001
:102EB000540600204C06002042684A6008604268C0
:102EC000116041607047D0E900121160D0E9002123
:102ED0005160002141600160704770B5D34800F037
:102EE00092F9F021D248006801F0C7F8D149086092
:102EF0000846006808B9D04870BD00240EE004EB15
:102F00004400CC49096801EBC0056C6000202870C2
:102F100005F10801C54800F079F9641C0A2CEED3CC
:102F20000020E9E72DE9F04105461DB9C248801CA3
:102F3000BDE8F08102F0D0FF0746BC4800F06EF912
:102F400028B1384602F0D0FFBB48C01CF0E7B748B4
:102F500046683046FFF7B7FFA6F1080400206080FE
:102F6000012020700020A082206104F1080000F000
:102F70004AF960682860384602F0B6FF0020D7E7BB
:102F800070B5054605EB4500AA49096801EBC00488
:102F900002F0A2FF06460A2D01D2207828B9304659
:102FA00002F0A2FFA448401C70BD04F1080000F02C
:102FB00035F908B1608828B1304602F095FF9E4887
:102FC0000930F1E704F108019848FFF775FF002088
:102FD0002070304602F088FF0020E5E72DE9F04739
:102FE00006460F4606EB46009249096801EBC0050C
:102FF00002F072FF82460A2E01D2287830B950467C
:1030000002F072FF8C48401CBDE8F0878B480068D6
:1030100028B1504602F068FF8748401DF4E7884811
:103020000468688850B96888401C68802C61E08812
:10303000A882504602F058FF0020E5E72869A04228
:1030400007D16888401C6880504602F04DFF002080
:10305000DAE72FB9504602F047FF7748001DD3E763
:103060007848008820B1DFF8D08108F106084AE0EE
:1030700004F13C00FEF7DEFBA08820F00400A080F5
:10308000656204F13C09A08840F00800A08028692E
:10309000C088E188884203DDE1882869FEF729FFBE
:1030A000494605F1080000F0B1F8781C68B1A08825
:1030B00040F04000A08039462046FEF736FF5046DB
:1030C00002F012FF01F0C0FA08E0A08820F04000F2
:1030D000A080504602F008FF01F0B6FA207900F017
:1030E000400070B102F0F8FE8246A08820F0400057
:1030F000A080504602F0F8FEDFF83C8108F1070896
:1031000005E0002080E7504602F0EEFE00BF40469A
:103110007AE72DE9F041064606EB46004549096885
:1031200001EBC00402F0D8FE80460A2E01D22078BE
:1031300030B9404602F0D8FE3F48401CBDE8F0815F
:103140003E48006828B1404602F0CEFE3A48401D95
:10315000F4E73B480768608810B12069B84205D0A1
:10316000404602F0C1FE3448401CE7E76088401E3C
:1031700080B2608020B1404602F0B6FE0020DDE75C
:103180002069C088A18A884203D0A18A2069FEF7FD
:10319000B0FE04F1080000F041F870BBE068A0F157
:1031A0003C05E068FFF78FFEA88820F00800A880A3
:1031B000287900F0400030B12846FEF714FFA888B7
:1031C00020F04000A880012060802561E888A0826E
:1031D00000206862287900F0020040B9A88840F019
:1031E0000400A880E98805F13C00FEF713FB404687
:1031F00002F07AFE01F028FA03E0FFE7404602F011
:1032000073FE00209AE740600060704770B5044686
:103210000D4629462068FFF74FFE70BD01464868FD
:10322000884201D1012070470020FCE7AC06002055
:10323000C4060020A8060020001D0002D0060020C1
:103240004C0600205406002042684A60086042682C
:1032500011604160704710B54FF4DC71FE480068A2
:1032600000F00BFFFD4908600846006808B9FC48FB
:1032700010BD4FF4DC71F948006802F0F7FA002045
:10328000F6E72DE9F0470646884617469946F34883
:103290000468002507E0A08818B9681CC8F8000079
:1032A00003E06D1C2C340A2DF5D300BF0A2D03D189
:1032B000EB48C01CBDE8F0872C21204602F0D6FA6E
:1032C00006FB07F1E448006800F0D7FE20602068A4
:1032D00010B9E348401CEDE7E68027810120A0807B
:1032E000C9F800400020E5E72DE9F04104460D460D
:1032F00017464FF00008002604F13C00FEF79AFA4A
:10330000A08820F00400A08004F13C08A08840F4CC
:103310000050A080284600F0ACFA30B100BF414612
:103320002868FFF791FF00BF14E06868A0F13C0631
:1033300007E0E088F188884200DA06E0306CA0F10E
:103340003C0606F13C00A842F3D100BF4146F06BB9
:10335000FFF77AFF781C38B1A08840F04000A080C9
:1033600039462046FEF7E1FDBDE8F08170B505461F
:103370006868A0F13C046868D0E900121160D0E9E7
:103380000021516000214160016000BFA08820F44D
:103390000050A080207900F0400030B12046FEF7B8
:1033A00022FEA08820F04000A080207900F00200DA
:1033B00040B9A08840F00400A080E18804F13C00FE
:1033C000FEF728FA70BD2DE9F84F81460C461546E8
:1033D0009A460A9E1DB9A2480B30BDE8F88F4FF6F9
:1033E000FB70864202DD9E48801CF6E704B116B9E8
:1033F0009B480C30F1E702F06FFD8046301D82B231
:103400006B4629462046FFF73CFF074627B140465A
:1034100002F06AFD3846E0E70098143000F026FA22
:1034200000981C3000F022FA0098243000F01EFAB8
:103430000098C481404602F057FD0020CDE72DE9F9
:10344000FC5F80460F4691461E4600200090A8F182
:10345000010BBBF10A0F03D381480D30BDE8FC9F7F
:1034600017B97F480E30F9E7B9F1000F02D17C4857
:103470000F30F3E72EB17B48006810B17848173061
:10348000ECE702F029FD01900BEB4B0000EBCB00C9
:103490007249096801EB8004A08820B900BF704818
:1034A0001B30009054E0208A50BB26B900BF6C4806
:1034B0001C3000904CE06C48008820B100BF684888
:1034C000401D009044E069480568324604F11C0143
:1034D0002846FFF709FF019802F006FD01F0B4F855
:1034E00002F0FAFC0190287900F0400058B1A88859
:1034F00020F04000A88000BF5948801D009027E0C0
:10350000208A401E208261892289206801FB020AEC
:10351000DAF8000038606089401C80B26081E18880
:10352000884201D10020608104F1140000F0A1F96B
:1035300050B904F11400FFF719FF019802F0D4FC10
:1035400001F082F8002089E7E089401CE08100BF9B
:10355000019802F0C9FC009880E72DE9FC5F8146E4
:103560000F4690461E4600200090A9F1010BBBF1CA
:103570000A0F03D33A481030BDE8FC9F17B938480A
:103580001130F9E7B8F1000F02D135481230F3E7F6
:103590002EB13448006810B131480830ECE702F031
:1035A0009BFC01900BEB4B0000EBCB002B49096817
:1035B00001EB8004A08820B900BF29481330009097
:1035C00068E02089404504D200BF254814300090AF
:1035D00060E0E08950BB26B900BF2148153000905B
:1035E00058E02148008820B100BF1D48401D0090D0
:1035F00050E01E480568324604F114012846FFF7E2
:1036000073FE019802F070FC01F01EF802F064FCF9
:103610000190287900F0400058B1A88820F04000BF
:10362000A88000BF0E48801D009033E0E089401E56
:10363000E081A1892289206801FB020ACAF8007092
:10364000A089401C80B2A081E188884201D100207D
:10365000A08104F11C000BE0C4060020B406002089
:1036600001060002D0060020540600204C0600206F
:1036700000F0FFF850B904F11C00FFF777FE019845
:1036800002F032FC00F0E0FF002075E7208A401CC9
:10369000208200BF019802F027FC00986CE72DE91A
:1036A000F05F80460D4616460027B9460024A8F173
:1036B000010ABAF10A0F02D30020BDE8F09F0DB94C
:1036C0000020FAE726B16F48006808B10020F4E74F
:1036D00002F002FC83460AEB4A0000EBCA006A498A
:1036E000096801EB8009284600F098FA0746EFB90F
:1036F00006B91CE065480468324609F124012046F9
:10370000FFF7F2FD584602F0EFFB00F09DFF02F0DC
:10371000E3FB8346207900F0400020B1A08820F030
:103720004000A08003E0676E0020606600BF58463E
:1037300002F0DAFB3846C0E72DE9F05F06460D4699
:1037400017464FF000090024A246A6F10108B8F17F
:103750000A0F02D34E48BDE8F09F15B94C48401CF3
:10376000F9E702F0B9FB83463946284600F074FABF
:1037700028B1584602F0B8FB4548801CEBE708EB3F
:10378000480000EBC8004049096801EB800404F1DF
:10379000240000F06EF890B9A06AA0F13C0A04F190
:1037A0002400FFF7E3FD284600F038FA8146CAF806
:1037B0006490584602F098FB00F046FF02E058463D
:1037C00002F092FB0020C6E72DE9F0410646771E85
:1037D0000A2F03D32E481438BDE8F08102F07CFB99
:1037E000804607EB470000EBC7002749096801EB5B
:1037F0008004A08818B900BF254D0F3D31E004F1C9
:103800001C0000F036F818B900BF214D113D28E02A
:1038100004F1140000F02DF818B900BF1C4D113D43
:103820001FE004F1240000F024F818B900BF184D7F
:10383000113D16E0E089218A0844E188884203D0DE
:1038400000BF134D0E3D0CE012482168006800F0E7
:103850006DFC054615B100BF00BF02E00020A0804E
:1038600000BF404602F040FB2846B5E740600060DC
:10387000704701464868884201D101207047002006
:10388000FCE70000D0060020B40600204C06002013
:1038900019060002C406002042684A6008604268B7
:1038A000116041607047D0E900121160D0E9002139
:1038B0005160002141600160704770B5B04800F070
:1038C0004CF9A021AF48006800F0D7FBAE49086072
:1038D0000846006808B9AD4870BD00240CE0AA484D
:1038E000006800EB04156C600020287005F10801E9
:1038F000A34800F035F9641C0A2CF0D30020EBE754
:103900002DE9F04105460E461EB9A048801CBDE8D1
:10391000F0814FF6FE70854202DD9C480830F6E7E4
:1039200002F0DAFA8046964800F022F928B14046C3
:1039300002F0DAFA9548C01CE9E791484768384632
:10394000FFF7B1FFA7F1080465800120207004F1A2
:10395000080000F002F960683060404602F0C4FAE6
:103960000020D4E770B505468748006800EB0514D1
:1039700002F0B2FA06460A2D01D2207828B9304664
:1039800002F0B2FA8148401C70BD04F1080000F05A
:10399000EFF828B9304602F0A7FA7C480930F3E77F
:1039A00004F108017648FFF777FF002020703046C9
:1039B00002F09AFA0020E7E72DE9F047074688462B
:1039C0007148006800EB071502F086FA82460A2F5C
:1039D00001D2287830B9504602F086FA6B48401C74
:1039E000BDE8F0876888002807DD6888401E688089
:1039F000504602F079FA0020F2E7B8F1000F02D148
:103A0000624E361D49E06248006810B15F4E761D77
:103A100043E06048008810B15C4EB61D3DE05E4852
:103A2000046804F13C00FDF705FFA08820F00400C5
:103A3000A080A56104F13C09A08840F00800A080A6
:103A4000494605F1080000F08BF808F1010040B18B
:103A5000A08840F04000A08041462046FEF765FA6D
:103A600003E0A08820F04000A080504602F03CFA1D
:103A700000F0EAFD207900F0400060B102F02CFA7D
:103A80008246A08820F04000A080504602F02CFA28
:103A90003E4EF61D05E00020A2E7504602F024FA53
:103AA00000BF30469CE72DE9F041064636480068E5
:103AB00000EB06150A2E03D33448401CBDE8F08104
:103AC00002F00AFA0746287828B9384602F00CFABC
:103AD0002E48401CF2E768884FF6FE71884205D1F7
:103AE000384602F001FA29480830E7E705F10800F6
:103AF00000F03EF848BBE868A0F13C04E868FFF736
:103B0000D2FEA08820F00800A080207900F04000BC
:103B100030B12046FEF767FAA08820F04000A08070
:103B20000020A061207900F0020040B9A08840F098
:103B30000400A080E18804F13C00FDF76BFE3846EC
:103B400002F0D2F900F080FD05E06888401C688032
:103B5000384602F0C9F90020B0E7406000607047C5
:103B600070B504460D4629462068FFF795FE70BDE6
:103B700001464868884201D1012070470020FCE7D7
:103B8000B8060020C4060020C0060020000700027E
:103B9000D0060020540600204C0600202DE9F047F6
:103BA00006460F4690463446002516B90120BDE86A
:103BB000F087B8F1000F01D10120F8E70C2F01D2F6
:103BC0000120F4E702F088F9824608F1070020F0AE
:103BD00003002060A7F10C002168B0FBF1F06060E9
:103BE000606820B9504602F07FF90120DFE704F158
:103BF0000C05A5604FF0000905E020682844286006
:103C00002D6809F101096068401E4845F5D800207B
:103C10002860504602F068F90020C8E72DE9F0411D
:103C200005462F460026002415B90020BDE8F08186
:103C300002F052F9804607F10806306820B1346876
:103C40002068306033482060404602F04DF90CB9DE
:103C50000020EBE7201DE9E72DE9F04705460E4679
:103C60002C46012705B116B90120BDE8F08702F006
:103C700033F9804600BF311F20460A46D0F800C005
:103C8000BCF1000F02D14FF0010C25E000F10C0C4B
:103C9000A2EB0C03D0F800C0B3FBFCF90CFB193C01
:103CA000BCF1000F02D04FF0010C15E0D0F800C0BD
:103CB000B3FBFCFCD0F80490CC4502D34FF0010CD0
:103CC0000AE0DFF85090D2F800C0CC4502D04FF0A7
:103CD000010C01E04FF0000CBCF1000F00D004E03B
:103CE000A0680860A160002700BF00BF404602F046
:103CF000FBF83846B9E770B504460D46264604B1D0
:103D000005B970BD3068011F284601F0AFFD00BF46
:103D1000F7E70000A55A5AA542684A600860426861
:103D2000116041607047D0E900121160D0E90021B4
:103D300051600021416001607047C1430160F84952
:103D4000096821B1F64909680969416002E04FF04C
:103D5000FF31416070472DE9F04704468846002551
:103D600000270026A94614B1B8F1FF0F03D84FF081
:103D7000FF30BDE8F08702F0AFF8824626463446B1
:103D80003660C6F8048004F1080000F0ABFB04F1D3
:103D9000E005281BA8EB00001038E8600020A860B0
:103DA00004F10800E96800F0ACFB8146B9F1000FAE
:103DB00005D1504602F098F84FF0FF30D9E700BF28
:103DC0002946D9F80000FFF7A7FF00BF04EB080061
:103DD000A0F11007002038607860B860F860BD601E
:103DE0001020F860F86840F00040F8603846FFF7AF
:103DF000A4FF504602F078F80020BAE710B5C94891
:103E0000C94908604FF40041C7480068FFF7A3FFA5
:103E10000446204610BD00218268D268C3681A4457
:103E20008368DA60C268111882688A6000BF002265
:103E300002604260826000BF70472DE9F047804613
:103E40000D46164600240027A146AC19A560E86877
:103E5000801BE060EE60E06820F000400719BC6065
:103E6000F86800F0004028B93846FFF75CFF384694
:103E7000FFF7D1FF08F10800E16800F042FB81463E
:103E8000B9F1000F01D1BDE8F08721464846FFF7A0
:103E900043FF00BFF7E72DE9F04104460E46002737
:103EA000B846E16821F0004000F058FAE06820F0E0
:103EB0000040E060A06848B3A068C06800F000401F
:103EC00020BBA5682046FFF7A6FFE86820F0004069
:103ED0004719F86800F0004028B93846FFF723FF7B
:103EE0003846FFF798FF2846FFF71DFF06F1080048
:103EF000E96800F006FB8046B8F1000F01D1BDE88B
:103F0000F08129464046FFF707FF1BE0E06820F0FC
:103F100000400719F86800F0004028B93846FFF75C
:103F200002FF3846FFF777FF06F10800E16800F06E
:103F3000E8FA8046B8F1000F00D1E0E7214640469C
:103F4000FFF7EAFE00BFDAE730B50446039DA14261
:103F500001D8944201D9002030BDE06800F0004053
:103F600038B120686040401C08B10020F4E701200F
:103F7000F2E72068984202D32068A84201D30020CB
:103F8000EAE70120E8E72DE9F84F05460C462E4602
:103F900005F1E00870682844A0F1100A706847191C
:103FA0004FF000092B465246414620460097FFF746
:103FB000CBFF10B90120BDE8F88FE06800F00040A9
:103FC00008B90120F7E7E06820F0004000EB0409A1
:103FD0002B465246414648460097FFF7B5FF08B9C1
:103FE0000120E8E7D9F80800A04201D00120E2E76B
:103FF000444512D000972B4652464146A068FFF731
:10400000A3FF08B90120D6E7A068C16821F00041EC
:104010000844A04201D00120CDE70020CBE72DE9E4
:10402000F04107460E46002406F1130020F0030578
:104030002946384600F051F9044614B90020BDE87D
:10404000F08105F11400E168814204D32A4621463B
:104050003846FFF7F2FE2046FFF765FE2046FFF7E1
:104060006CFEE06840F00040E060E16821F0004054
:1040700000F05CF904F11000E1E72DE9F04105469C
:104080000C46002601F028FF074600BF05B104B921
:1040900009E004F0004000B105E021462846FFF7A2
:1040A000BEFF064600BF00BF384601F01DFF304688
:1040B000BDE8F0812DE9F05F80460F4614464FF0D1
:1040C0000009CA460025002601F006FF834600BF0E
:1040D000B8F1000F00D007B91BE0381900F104094E
:1040E00009F0004000B114E049464046FFF797FF51
:1040F00005462819401E611E20EA0106B54200D17E
:1041000007E0A6EB050A4AF0804A46F804AC3546BB
:1041100000BF00BF584601F0E7FE2846BDE8F09F0B
:104120004C060020C4070020C40600202DE9F047FB
:1041300005460C460127002601F0CEFE814600BF51
:10414000B04605B104B914E054F8046C06F08040A0
:1041500010B126F08046A41BA4F110084146284661
:10416000FFF711FF07461FB929464046FFF793FEA8
:1041700000BF00BF484601F0B7FE3846BDE8F087F3
:104180002DE9F74F88B081460F4600200690059034
:1041900001F0A2FE079000BF0024002003902FB979
:1041A00048460A99FFF769FF05908EE00A9820B902
:1041B00039464846FFF7BAFF87E057F8040C0690E7
:1041C000069800F0804028B1069820F080400690C4
:1041D00006983F1AA7F1100421464846FFF7D3FE80
:1041E0000490049800B170E00A98133020F003089E
:1041F000E06820F0004545451AD3C2462646AB4646
:10420000CDF808900AF1140058450ED8C6F80CB045
:10421000524631460298FFF710FEF06840F0004029
:10422000F060ABEB0A0000F099F800BF05974CE096
:10423000E06820F00040204403900398C06800F03C
:10424000004078BB0398C068284440452BD3C24641
:104250002646AB46CDF80490039802905D4634465E
:10426000C6F80CB00298FFF75EFD0298FFF7D3FD89
:10427000F168481B00F05AF80AF11400F168814215
:1042800009D3F168A1EB0A0000F068F85246314604
:104290000198FFF7D2FDF06840F00040F06000BFE9
:1042A000059712E0FFE748460A99FFF7B8FE059028
:1042B000059848B1A5F110023946059801F0BDFAFC
:1042C00049462046FFF7E7FD00BF00BF079801F011
:1042D0000BFE05980BB0BDE8F08F70B505460E4695
:1042E0000024314605F1080000F00BF9044618E0FF
:1042F00000206168084605E0C168B14200D370BD86
:1043000041680846A042F7D105F10800214602465F
:1043100002F1D0038B4201D1002301E001F1080337
:104320001C46002CE4D10020E9E7000001461A4AAF
:10433000126802B97047194A126802B1FAE7164AC0
:10434000126810690F2800D9F4E7154A52F82020A6
:104350000A44134B43F8202000BFEBE701460E4A06
:10436000126810690F2800D970470C4A126802B110
:10437000FAE70B4A52F82020521A094B43F8202042
:1043800000BFF1E701460F2901D901207047044819
:1043900050F82100FAE700004C060020D00600206B
:1043A000C4870020014601F0004010B16FF070405A
:1043B00070475E480840002847D001F0FE40F8B141
:1043C00001F0E04058B101F0804008B11E20EFE755
:1043D00001F0005008B11D20EAE71C20E8E701F0D9
:1043E000406030B101F0006008B11B20E0E71A2006
:1043F000DEE701F0007008B11920D9E71820D7E7EF
:1044000001F4700080B101F4400030B101F400000B
:1044100008B11720CCE71620CAE701F4001008B154
:104420001520C5E71420C3E701F4402030B101F4A2
:10443000002008B11320BBE71220B9E701F40030D7
:1044400008B11120B4E71020B2E701F47F4020B397
:1044500001F4704080B101F4404030B101F40040FB
:1044600008B10F20A4E70E20A2E701F4005008B124
:104470000D209DE70C209BE701F4406030B101F472
:10448000006008B10B2093E70A2091E701F4007067
:1044900008B109208CE708208AE701F0F00080B11C
:1044A00001F0C00030B101F0800008B107207FE7C3
:1044B00006207DE701F0200008B1052078E7042000
:1044C00076E701F00C0030B101F0080008B10320DC
:1044D0006EE702206CE701F0020008B1012067E7F7
:1044E000002065E710B5024614462046002305E08B
:1044F00001464960096000BF5B1C08301B2BF7D3E5
:1045000010BD2DE9F04105460E462F463046FFF717
:1045100049FF04461E2C02D90020BDE8F081042C7E
:1045200000D80424201F07EBC000F6E70000FF7F3F
:1045300002465018401E904204D95018401E4B1E8F
:1045400098437047481E22EA0000FAE770B5044617
:1045500000250948006800B170BD0CB9002505E0D0
:104560002046FDF723FC054605B901252846FEF740
:1045700010FA00BFF0E70000D00600202C480068C9
:1045800040F470002A4908607047102029490860EB
:1045900029482A490860704710B500F0BBF8044666
:1045A0000CB1204610BD00F0C5F92046FAE710B561
:1045B000FFF7EBFFFFF722FC04460CB1204610BDCD
:1045C00000F02FF9FDF79BFD04460CB12046F6E7FD
:1045D000FFF773F904460CB12046F0E7FEF77DFCC7
:1045E00004460CB12046EAE7FEF735FE04460CB15E
:1045F0002046E4E7FDF7A8F904460CB12046DEE7C3
:10460000FEF7B8FAFDF70EFF04460CB12046D6E7D8
:104610000020D4E710B5FFF7CAFF04460CB1012013
:1046200010BDFCF7D5FFFFF7B7FF00BFFEE77047EF
:1046300088ED00E058060020C4870020C80600204E
:1046400010B501F054FC10BD10B501F045FC044656
:10465000FDF7FCF83C382C4948600846006849687A
:10466000884208D02948008828B9204601F03CFC3F
:1046700001F03DFC10BD204601F036FC00BFF9E71B
:1046800072B600BFFEE730B50446012304E04FF0E8
:10469000CA3542F823505B1CB3EB910FF7D34FF0B0
:1046A000CC3515605518A5F144004FF00435056070
:1046B0004FF0053545604FF0063585604FF0073502
:1046C000C5604FF0083505614FF0093545614FF081
:1046D000103585614FF01135C561002505624462D2
:1046E0004FF0013585626D00C5624FF003350563FB
:1046F0004FF012354563AFF277058563044DC5630E
:104700004FF08075056430BD4C0600205406002033
:10471000AB25000828482949C86329482949C863A6
:1047200048F6A040284908600021284A11605160DD
:10473000401E4FF0E021486170202549087000209C
:104740004FF0E021886107200861002070472DE9C3
:10475000F84F8046894601F0BFFB00901B49C0C955
:104760004FF0E020D0F818B019481F38D0F800A05A
:104770000AF0806030B14FF0E020D0F818B0761C1D
:1047800047F10007104800680022A6FB00C307FBA2
:10479000003006FB02010C480068A0EB0B001CEB8C
:1047A000000441EB0205C8F80050C9F80040009829
:1047B00001F09AFBBDE8F88FDD47000800000020FB
:1047C0004D2B000804880020CC0600209006002015
:1047D00023ED00E0FBF7B6FC00BFFEE770B501F08B
:1047E0007BFB05464D480068401C4C490860284644
:1047F00001F07AFBFBF7A6FC0446494850F8240078
:1048000018B1474951F82400804701F065FB05467F
:1048100042480068401E41490860284601F064FB98
:1048200070BD102005E0AFF253013E4A42F820105F
:10483000401CFF28F7D93B493B4A11603B49121DF8
:10484000116070472DE9F04704460D4691461E461B
:10485000089F16B93648BDE8F087F02C02D33448DB
:10486000401EF8E72F4904F1100051F82000AFF284
:104870009B01884202D02E48C01CECE70F2D02DDC0
:104880002B48001DE7E701F027FB8046AFF2B3019C
:10489000244A04F1100042F82010214941F8206018
:1048A00000BF04F01F01012088406109890001F167
:1048B000E021C1F8000100BF00BF802040EA0510E0
:1048C000C1B204F1E02080F8001400BF404601F0BE
:1048D0000BFB0020BFE770B50446F02C02D3144850
:1048E000401E70BD00BF04F01F0101208840610917
:1048F000890001F1E021C1F8800100BF01F0ECFA6C
:104900000546AFF22F11074A04F1100042F82010BB
:10491000284601F0E9FA0020E3E70000D006002075
:10492000048800200000002008ED00E00007FA05E0
:1049300001090002114C124D256012484FF001018F
:1049400001604FF0020080F314880F4842680E485F
:1049500002600D4B186887884FF0100847EA080777
:104960008780D0F800C00CF1240CBCE8FF008CF369
:104970000988AE4662B6304700BF000020ED00E077
:104980000000F0F0840600204C06002008B54FF42B
:10499000A060FBF7DDFC27208DF8000000208DF8DB
:1049A00001008DF8020001208DF803006846FBF736
:1049B000D4FC08BD00B585B001218804FCF787FA56
:1049C00001210820FCF776FA4FF48060ADF8100062
:1049D00018208DF8130003208DF8120004A9F84860
:1049E000FBF7ACFF4FF40060ADF8100004208DF829
:1049F000130004A9F248FBF7A1FF4FF4E130009047
:104A00000020ADF80400ADF80600ADF80800ADF8E0
:104A10000C000C20ADF80A006946EA48FCF7F1FAF0
:104A2000012240F22551E748FCF783FB012240F2C6
:104A30002441E448FCF77DFBFFF7A8FF0121E14892
:104A4000FCF76BFB05B000BD08B501210820FCF7A1
:104A500031FA4FF48070ADF8000010208DF803009B
:104A600003208DF802006946D548FBF767FF012156
:104A70000820FCF71FFA4FF40070ADF800006946FB
:104A8000CF48FBF75BFF08BD10B5FFF7DDFFFFF771
:104A900091FF4FF40071CA48FBF7FDFF4FF480719E
:104AA000C748FBF7FAFF10BD10B54FF40071C448BA
:104AB000FBF7F3FF4FF4FA70FDF76BFF4FF4007153
:104AC000BF48FBF7E8FF10BD2DE9F04106460C4654
:104AD00015461F46BC48B0F800046FF30E00BA49F3
:104AE000A1F800043246B9A1B64800F0F8FC1CB9A0
:104AF00015B90120BDE8F0813846FDF74AFF0020D6
:104B0000B149B1F80014C1F30E01AF4A5054114637
:104B1000B0A001F021FAB4B1ADB12146AA4800F02D
:104B2000B0FE08B1012000E0002040B92946A648A7
:104B300000F0A7FE08B1012000E0002008B101202C
:104B4000D8E70020D6E744B121469F4800F099FEFF
:104B500008B10120CEE70020CCE729469A4800F0B2
:104B600090FE08B10120C5E70020C3E710B500247E
:104B70004FF400719248FBF78EFF4FF47A70FDF707
:104B800008FF0CE04FF4FA73002293A193A0FFF703
:104B90009BFF00B110BDFFF787FF601CC4B20A2C59
:104BA000F0DB00BFF6E710B5044624B1012C0AD0B3
:104BB000022C18D10FE040F6C41389A286A18BA065
:104BC000FFF782FF10BD40F6C41385A282A18AA020
:104BD000FFF77AFFF6E740F6C41381A27EA189A011
:104BE000FFF772FFEEE70020ECE730B59FB0044618
:104BF0000D462B46224686A101A801F0BDF941F2DF
:104C00008833002274A101A8FFF75EFF1FB030BDFA
:104C100070B5A0B004460D4616462B46224681A12B
:104C200002A8009601F0A8F94FF47A7300226AA155
:104C300002A8FFF749FF20B070BD10B586B004464A
:104C40000CB1012000E0002002467CA101A801F087
:104C500093F94FF4FA7300225FA101A8FFF734FF24
:104C600006B010BDF0B5ADF5037D07460C46154600
:104C70001E4664216AA800F0F9FD6422734933A836
:104C800000F0DBFD6422714964311AA800F0D5FD03
:104C900064226E49C83101A800F0CFFD17B1012F81
:104CA0000FD106E02B46224669A16AA801F064F9FB
:104CB00008E023466AA26BA16AA8009501F05CF99E
:104CC00000E000BF00BF052E06DA6AAB324669A1DC
:104CD0004CA801F051F907E01AA833AB01AA6AA168
:104CE00000904CA801F048F94FF47A636DA23AA104
:104CF0004CA8FFF7E9FE0DF5037DF0BD70B5BCB023
:104D000004460D461646FCB12B46012269A11EA899
:104D100001F032F932466CA1684601F02DF94FF4EA
:104D2000FA7300222CA11EA8FFF7CEFE50B14FF45B
:104D3000FA73002228A16846FFF7C6FE10B10120D1
:104D40003CB070BD0020FBE72B46002259A11EA8F5
:104D500001F012F94FF4FA7300221FA11EA8FFF709
:104D6000B3FEEDE710B54FF4FA7300221AA15AA072
:104D7000FFF7AAFEA0B15CA1134800F082FD08B1C4
:104D8000022010BD5BA1104800F07BFD08B103209C
:104D9000F7E75BA10C4800F074FD08B10420F0E7D0
:104DA0000020EEE710B500244FF4FA7300220AA1A8
:104DB00049A0FFF789FE002800D0A7E0D8E0000056
:104DC000000C014000480040048C002025730D0AAF
:104DD00000000000257300004F4B0000415400000C
:104DE0006E6F206368616E676500000041542B435D
:104DF000574D4F44453D310041542B43574D4F448F
:104E0000453D320041542B43574D4F44453D3300FF
:104E100041542B43574A41503D222573222C2225D1
:104E20007322000041542B43575341503D222573B8
:104E3000222C222573222C312C25640041542B4333
:104E400049504D55583D2564000000005C6800083D
:104E5000222573222C222573222C257354435000C3
:104E600055445000222573222C222573222C2573B1
:104E70000000000041542B43495053544152543DCB
:104E800025642C257300000041542B434950535492
:104E90004152543D222573222C222573222C257346
:104EA00000000000414C5245415920434F4E4E45B1
:104EB0004354000041542B434950534552564552E8
:104EC0003D25642C2573000041542B434950535415
:104ED0004F3D25730000000041542B43495053546B
:104EE00041545553000000005354415455533A3235
:104EF0000D0A00005354415455533A330D0A000033
:104F00005354415455533A340D0A00006FA173486D
:104F100000F0B7FC10B144F0010401E024F00104FA
:104F20006FA16E4800F0ADFC10B144F0020401E046
:104F300024F002046EA1694800F0A3FC10B144F013
:104F4000040401E024F004046DA1644800F099FC1D
:104F500010B144F0080401E024F008046CA15F489B
:104F600000F08FFC10B144F0100401E024F01004B4
:104F7000204610BD2DE9F04105460F464FF4FA7367
:104F80000022AFF2AC1166A0FFF79EFD67A1534867
:104F900000F077FC06460EB1B61D02E00020BDE829
:104FA000F081002409E0305D2855285D222802D1D7
:104FB0000020285503E0601CC4B2BC42F3DB00BFF4
:104FC0000120ECE710B54FF4FA730022AFF2F811AC
:104FD00058A0FFF779FD08B9002010BD4FF4FA730F
:104FE00058A2AFF20C2158A0FFF76EFDF5E710B5FF
:104FF0004FF47A70FDF7CDFC56A1574800F06FFAD8
:105000004FF4FA70FDF7C5FC10BD2DE9F04186B0F4
:1050100007460C4615461E464FF0000847B122468B
:10502000AFF250214C4800F05AFA4FF001081CE052
:10503000052E06DAAB1C324648A101A800F09CFF01
:1050400004E0AA1C4AA101A800F096FF4FF47A736D
:1050500000224BA101A8FFF737FD4FF47A7300221D
:1050600048A12046FFF730FD8046404606B0BDE827
:10507000F08170B5044600251848B0F800046FF3BD
:105080000E001649A1F800040846B0F8000420F408
:105090000040A1F8000400BF1048B0F80004C00BA5
:1050A0000028F9D000200D49B1F80014C1F30E0119
:1050B0000A4A50540CB1154605E034A1074800F0E7
:1050C000E0FB00B1054D284670BD00002B43495060
:1050D0005354415455533A302C000000048C0020A6
:1050E0002B4349505354415455533A312C0000003E
:1050F0002B4349505354415455533A322C0000002D
:105100002B4349505354415455533A332C0000001B
:105110002B4349505354415455533A342C0000000A
:1051200041542B434946535200000000415049501E
:105130002C22000041542B4349504D4F44453D31F2
:10514000000000003E00000041542B4349505345ED
:105150004E4400002B2B2B000048004041542B43B1
:10516000495053454E443D25642C25640000000001
:1051700041542B43495053454E443D2564000000A3
:105180003E20000053454E44204F4B002B495044D5
:1051900000000000A0B0642107A800F067FB48A051
:1051A00000F0DAFE4FF480714C48FBF774FCFFF717
:1051B000DDFC0020FFF7F7FC00BF49A14BA0FFF783
:1051C00014FD0028F9D00020FFF737FD0A2102A8BE
:1051D000FFF7D0FE02A94AA000F0BEFE49A000F0F1
:1051E000BBFE49A000F0B8FE00BF05234DA24FA1B1
:1051F0000020FFF737FD0028F7D04FA000F0ACFEED
:1052000000BFFFF7DFFE0028FBD04EA000F0A4FE99
:1052100054E00020019040F2DC53022211464F4836
:10522000FDF708FD05464EA000F096FE022D17D1B1
:105230000023042201A94F480068FEF700F90199F4
:10524000086800F0E9FC064632460B464AA107A86A
:1052500000F092FE0523002207A90120FFF7D5FEEA
:1052600041F28830FDF795FB45480078002824D0AE
:10527000FFF7BDFE00BFFFF775FD0446002CFAD016
:10528000042C15D13FA000F067FE00BF14A117A0A9
:10529000FFF7ABFC0028F9D000BF052321A223A112
:1052A0000020FFF7DFFC0028F7D03EA000F054FEFE
:1052B00000BFFFF787FE0028FBD000BFA9E7000072
:1052C0000D0AD5FDD4DAC5E4D6C320455350383293
:1052D0003636202E2E2E2E2E2E0D0A00000C0140CA
:1052E0006633396163376532643000005465636842
:1052F00054656D706C65204F6666696365000000DB
:10530000257300000D0A00002D2D2D2D2D2D2D2D86
:105310002D2D2D2D2D2D2D2D2D2D2D2D2D2D2D2DBD
:1053200000000000363535333500000031302E31B5
:105330002E31372E323530006C696E6B536572201A
:105340004F4B00000D0AC5E4D6C3204553503832F8
:10535000363620CDEAB1CF0D0A000000E806002065
:105360000D0AC5E4D6C32031323320CDEAB1CF0DCA
:105370000A0000002C060020252E32660D0A0000CF
:10538000D40600200D0AD5FDD4DAD6D8C1ACC8C8E1
:10539000B5E3BACDB7FECEF1C6F7202E2E2E2E2EB7
:1053A0002E0D0A000D0AD6D8C1ACC8C8B5E3BACDD7
:1053B000B7FECEF1C6F7B3C9B9A60D0A00000000CA
:1053C00000B585B001218803FBF774FD012104209D
:1053D000FBF770FD4FF40070ADF8100018208DF849
:1053E000130003208DF8120004A92248FBF7A6FA47
:1053F0004FF48060ADF8100004208DF8130004A96C
:105400001C48FBF79BFA4FF4E13000900020ADF808
:105410000400ADF80600ADF80800ADF80C000C2053
:10542000ADF80A0069461448FBF7EBFD012112486C
:10543000FBF773FE05B000BD70B504460D46E1B242
:105440000D48FBF7D7FE00BF80210B48FBF740FF5C
:105450000028F9D0204670BD10B5044600BF2021B9
:105460000548FBF735FF0028F9D00348FBF7C6FED7
:1054700010BD00000008014000380140F0B50346AF
:105480000D461646002729460A2E03D00020087034
:105490002846F0BD33B9302001F8010B0020087018
:1054A0002846F6E7002B03DA2D2001F8010B5B42BA
:1054B00042F210720DE093FBF2F404B937B104F13B
:1054C000300001F8010B04FB123301270A2092FB84
:1054D000F0F2002AEFDC002008702846D9E70FB46C
:1054E00070B586B006460CA8019073E00B98007862
:1054F0005C281CD10B98401C0B9000786E2809D0BA
:1055000072280FD10D213046FBF774FE0B98401C1A
:105510000B900BE00A213046FBF76CFE0B98401C09
:105520000B9003E00B98401C0B9000BF4BE00B98D6
:105530000078252840D10B98401C0B9000786428F7
:1055400018D0732833D1019810C801900BE021784E
:105550003046FBF74FFE00BF80213046FBF7B8FE18
:105560000028F9D0641C20780028F0D10B98401C4A
:105570000B9020E0019820C801900A2202A9284639
:10558000FFF77CFF02AC0BE021783046FBF732FEE0
:1055900000BF80213046FBF79BFE0028F9D0641C39
:1055A00020780028F0D10B98401C0B9003E00B985A
:1055B000401C0B9000BF06E00B9810F8011B0B90ED
:1055C0003046FBF717FE00BF80213046FBF780FE18
:1055D0000028F9D00B980078002887D106B070BC5D
:1055E0005DF814FB08B501211020FBF763FC0220D5
:1055F000ADF8000000208DF8030069462D48FBF748
:105600009DF901210820FBF755FC4020ADF8000072
:1056100010208DF8030003208DF80200694626480B
:10562000FBF78CF908BD00B585B001218802FBF7B6
:1056300041FC002000908DF804008DF805004FF427
:10564000602002900020039001208DF81000694630
:105650001A48FAF712FF4FF44040FBF78FFB05237F
:1056600001220B211548FAF7A0FF00224FF4087120
:105670001248FAF744FF01211048FAF72AFF0F48B1
:10568000FAF749FF00BF0D48FAF74AFF0028FAD1A0
:105690000A48FAF74FFF00BF0848FAF750FF002802
:1056A000FAD105B000BD10B5FFF79CFFFFF7BBFFB7
:1056B00010BD000000100140000C01400028014016
:1056C00001B502E00098401E009000980028F9D132
:1056D00008BD2DE9F05F4FF0000AD34601211B48B9
:1056E000FAF737FF40211A48FBF7D7F94FF4FA7061
:1056F000FFF7E6FF1548FAF7BFFF82462820FFF7BD
:10570000DFFF40211248FBF7C6F9504600F053FA7C
:105710008046104A104B00F06DF906460F4A104BB8
:1057200000F062F9044600F08AFA8346584600F019
:1057300073FA044622460B460AA000F00DFC11A0A5
:1057400000F00AFC5846BDE8F09F00000028014028
:10575000000C0140C3F5285C8FC2C53F9A99999906
:105760009999B93F0D0A2054686520637572726576
:105770006E742041442076616C7565203D2025665D
:10578000200D0A000D0A0D0A0000000008B50121D5
:105790000420FBF78FFB0120ADF8000028208DF8D6
:1057A000030069460B48FBF7C9F808BD70B504460D
:1057B0000D4629462046FBF754F9012808D100BFC1
:1057C00029462046FBF74DF90128F9D0012070BD8C
:1057D0000020FCE7000801402DE9F05F05460020AD
:1057E00092469B4688460646814640241BE0284652
:1057F00041464746224600F063FA53465A46C01ACD
:10580000914110D311461846224600F04AFA2D1A4B
:1058100067EB01084F4622460120002100F041FAC3
:1058200017EB00094E41201EA4F10104DFDC4846BD
:1058300031462A464346BDE8F09F40EA01039B07F4
:1058400003D009E008C9121F08C0042AFAD203E0F5
:1058500011F8013B00F8013B521EF9D27047D2B259
:1058600001E000F8012B491EFBD270470022F6E749
:1058700010B513460A4604461946FFF7F0FF2046C6
:1058800010BD30B505462A460B4612F8010B13F839
:10589000014B08B1A042F8D01CB1002802D06D1C09
:1058A000F1E7284630BD2DE9FE4F804681EA03002E
:1058B000C00F0C46009021F0004123F00045B8EBEA
:1058C0000200A94105D24046214690461C460B469F
:1058D000024623F00040104347D0270DC7F30A00CB
:1058E000C3F30A510290401A019040286BDAC3F3C7
:1058F000130040F4801B0098924620B10023D2EBA5
:10590000030A63EB0B0B01985946C0F14002504665
:1059100000F0C7F906460D4650465946019A00F078
:10592000DFF910EB08006141002487EA115284EA94
:10593000E7731A4340D0009A62B3019A012A4FEAF2
:10594000075215DC001B61EB02014FF0004202EA36
:105950000752CDE90042001C41F5801132462B462A
:1059600000F016FA03B0BDE8F08F40462146F9E793
:10597000001B61EB0201001C41F5801300185B4124
:105980002018A2F5001747EB030140EAD570B619BD
:105990006D4111E06D084FEA360645EAC0754FEAE1
:1059A0000752001B61EB0201001C41F58011490800
:1059B0004FEA30000019514132462B4603B0BDE892
:1059C000F04F00F0D6B90098012240000023D0EB40
:1059D000020263EBE073009821464FEAE074B8EBF3
:1059E000000061EB0401E9E783F000435BE781F02D
:1059F000004158E72DE9FE4F81EA030404F000441A
:105A000021F0004100944FF0000B23F0004350EAD6
:105A100001045ED052EA03045BD0C3F30A54C1F31D
:105A20000A552C44A4F2F3340194A0FB0254C1F3B0
:105A3000130141F48011C3F3130343F4801301FBFA
:105A4000024400FB034E840A970A44EA815447EA61
:105A50008357A4FB076802958D0A05FB07854FEA6B
:105A6000932C04FB0C542705029D4FEA065847EA85
:105A70001637B5EB08056EEB070C870E920E47EA5A
:105A8000811742EA8312A7FB0201B6EB0B0164EB1C
:105A900000042B0D43EA0C335E1844EB1C50DA462D
:105AA0005146E7FB0201C5F313044FEA0B3343EA07
:105AB00014534FEA0432019C43EA0603A4F10C0498
:105AC0000294009CCDE900B400F062F903B0BDE897
:105AD000F08F00200146F9E72DE9F04D81EA03043B
