:020000040800F2
:1000000050910020A5010008B3010008B5010008C7
:10001000B7010008B9010008BB010008000000009A
:10002000000000000000000000000000BD0100080A
:10003000BF01000800000000F5020008A913000835
:10004000C5010008C5010008C5010008C501000878
:10005000C5010008C5010008C5010008C501000868
:10006000C5010008C5010008C5010008C501000858
:10007000C5010008C5010008C5010008C501000848
:10008000C5010008C5010008C5010008C501000838
:10009000C5010008C5010008C5010008C501000828
:1000A000C5010008C5010008C5010008C501000818
:1000B000C5010008C5010008C5010008C501000808
:1000C000C5010008C5010008C5010008C5010008F8
:1000D000C5010008DD14000869150008C501000805
:1000E000C5010008C5010008C5010008C5010008D8
:1000F000C5010008C5010008C5010008C5010008C8
:10010000C5010008C5010008C5010008C5010008B7
:10011000C5010008C5010008C5010008C5010008A7
:10012000C5010008C5010008C5010008C501000897
:10013000C5010008C5010008C5010008C501000887
:10014000C5010008C5010008C5010008C501000877
:10015000C5010008C5010008C5010008C501000867
:10016000C5010008C5010008C5010008C501000857
:10017000C5010008C5010008C5010008C501000847
:10018000C5010008C5010008DFF80CD000F064F8D4
:1001900000480047ED16000800060020EFF3058038
:1001A000704700000848016841F470010160074889
:1001B0000047FEE7FEE7FEE7FEE7FEE7FEE7FEE7B5
:1001C000FEE7FEE7FEE7000088ED00E08901000899
:1001D000144C154D256015484FF0010101604FF09A
:1001E000020080F314881248426811480260104BE4
:1001F000186887884FF0100847EA08078780D0F80A
:1002000000C00CF1640CBCE8FF000CF1480C8CF34E
:1002100009882DED010ABDEC010AAE4662B63047F1
:1002200000BF000020ED00E00000F0F05C060020C0
:1002300024060020D2B201E000F8012B491EFBD2B7
:1002400070470022F6E710B513460A4604461946E1
:10025000FFF7F0FF204610BD064C074D06E0E068B2
:1002600040F0010394E8070098471034AC42F6D3FD
:10027000FFF78EFF382A0008682A000870B58C182E
:1002800010F8015B15F0070301D110F8013B2A11AA
:1002900006D110F8012B03E010F8016B01F8016B97
:1002A0005B1EF9D12B0705D40023521E0DD401F893
:1002B000013BFAE710F8013BCB1A921C03E013F85C
:1002C000015B01F8015B521EF9D5A142D8D3002091
:1002D00070BD0000EFF3108072B67047EFF310802E
:1002E00062B6704780F31088704719484FF080510C
:1002F00001607047EFF3108C72B6164A126822B193
:100300002DE900509047BDE80050EFF3098020E947
:10031000F01F20ED108B104D2E683060B7884FF025
:10032000100827EA0807B7800B48406828608788CC
:100330004FF0100847EA080787800168B1EC108B7E
:10034000B1E8F01F81F309888CF31088704700BF73
:1003500004ED00E0600600202406002001B502E064
:100360000098401E009000980028F9D108BD30B5D3
:10037000CC1000F1200353F824304C07E50E0F2475
:10038000AC40A343CD1000F1200444F82530CC103C
:1003900000F1200353F824304C07E40E02FA04F471
:1003A0002343CD1000F1200444F8253030BD2DE961
:1003B000F0470C46DDE90867002100258C4600BFA8
:1003C00060E04FF0010808FA01F504EA050CAC45BD
:1003D00057D1D0F800804FEA410A4FF0030909FADB
:1003E0000AF928EA0908C0F80080D0F800804FEA2E
:1003F000410902FA09F948EA0908C0F80080012A0F
:1004000001D0022A27D1D0F808804FEA410A4FF0E4
:10041000030909FA0AF928EA0908C0F80880D0F89F
:1004200008804FEA410906FA09F948EA0908C0F8C4
:100430000880D0F804904FF0010808FA01F829EA82
:100440000809C0F80490D0F8048003FA01F948EADA
:100450000908C0F80480D0F80C804FEA410A4FF038
:10046000030909FA0AF928EA0908C0F80C80D0F84B
:100470000C804FEA410907FA09F948EA0908C0F86F
:100480000C80491C10299CD3BDE8F0871CB50B4893
:10049000006840F020000949086001200321002382
:1004A0000246CDE9001049020548FFF780FF012010
:1004B000044908600449C1F8A8021CBD3038024054
:1004C00000140240A4824242008042420246501878
:1004D000401E904204D95018401E4B1E984370474E
:1004E000481E22EA0000FAE710B5024614462046EC
:1004F000002305E001464960096000BF5B1C08302D
:100500001B2BF7D310BD2DE9F04105460E462F46B3
:10051000304600F0DDF804461E2C02D90020BDE86C
:10052000F081042C00D80424201F07EBC000F6E75C
:100530002DE9F04704460D4691461E46089F16B920
:100540001F48BDE8F087F02C02D31D48401EF8E795
:100550001C4904F1100051F820001B49884202D0C8
:100560001748C01CEDE70F2D02DD1548001DE8E718
:10057000FFF7B0FE80461549124A04F1100042F818
:100580002010134941F8206000BF04F01F01012032
:1005900088406109890001F1E021C1F8000100BF34
:1005A00000BF802040EA0510C1B204F1E02080F8CD
:1005B000001400BF4046FFF795FE0020C1E7000091
:1005C000010900020000002059170008E117000887
:1005D0004C89002042684A600860426811604160AE
:1005E000704742684A600860426811604160704725
:1005F00042684A6008604268116041607047426822
:100600004A600860426811604160704742684A6011
:1006100008604268116041607047D0E900121160C3
:10062000D0E9002151600021416001607047D0E9AC
:1006300000121160D0E90021516000214160016089
:100640007047D0E900121160D0E90021516000210B
:1006500041600160704701464868884201D101202D
:1006600070470020FCE701464868884201D101201C
:1006700070470020FCE701464868884201D101200C
:1006800070470020FCE740600060704740600060F9
:10069000704740600060704740600060704770B510
:1006A00004460D4629462068FFF794FF70BD70B5DB
:1006B00004460D4629462068FFF793FF70BD70B5CC
:1006C00004460D4629462068FFF799FF70BD0000DB
:1006D000014601F0004010B16FF0704070474C4887
:1006E0000840002847D001F0FE40F8B101F0E0409A
:1006F00058B101F0804008B11E20EFE701F0005032
:1007000008B11D20EAE71C20E8E701F0406030B1A5
:1007100001F0006008B11B20E0E71A20DEE701F0DD
:10072000007008B11920D9E71820D7E701F470004C
:1007300080B101F4400030B101F4000008B117208D
:10074000CCE71620CAE701F4001008B11520C5E770
:100750001420C3E701F4402030B101F4002008B1B7
:100760001320BBE71220B9E701F4003008B11120D3
:10077000B4E71020B2E701F47F4020B301F47040E9
:1007800080B101F4404030B101F4004008B10F20C5
:10079000A4E70E20A2E701F4005008B10D209DE768
:1007A0000C209BE701F4406030B101F4006008B117
:1007B0000B2093E70A2091E701F4007008B10920AB
:1007C0008CE708208AE701F0F00080B101F0C0005A
:1007D00030B101F0800008B107207FE706207DE7F7
:1007E00001F0200008B1052078E7042076E701F049
:1007F0000C0030B101F0080008B103206EE70220C0
:100800006CE701F0020008B1012067E7002065E70E
:100810000000FF7F2DE9F04105460C460026FFF75A
:1008200059FD074600BF05B104B909E004F00040D6
:1008300000B105E02146284601F02DF8064600BF2C
:1008400000BF3846FFF74EFD3046BDE8F0812DE988
:10085000F05F80460F4614464FF00009CA46002557
:100860000026FFF737FD834600BFB8F1000F00D028
:1008700007B91BE0381900F1040909F0004000B184
:1008800014E04946404601F006F805462819401E86
:10089000611E20EA0106B54200D107E0A6EB050A79
:1008A0004AF0804A46F804AC354600BF00BF5846BF
:1008B000FFF718FD2846BDE8F09F2DE9F0470546F3
:1008C0000C4601270026FFF705FD814600BFB04614
:1008D00005B104B914E054F8046C06F0804010B17E
:1008E00026F08046A41BA4F110084146284601F0DA
:1008F00000F807461FB92946404601F06EF800BFD0
:1009000000BF4846FFF7EEFC3846BDE8F0872DE90A
:10091000F04704468846002500270026A94614B162
:10092000B8F1FF0F03D84FF0FF30BDE8F087FFF7B5
:10093000D1FC8246264634463660C6F8048004F16F
:100940000800FFF7D1FD04F1E005281BA8EB00002B
:100950001038E8600020A86004F10800E968FFF79B
:10096000D2FD8146B9F1000F05D15046FFF7BAFC20
:100970004FF0FF30D9E700BF2946D9F80000FFF754
:1009800045FE00BF04EB0800A0F11007002038600E
:100990007860B860F860BD601020F860F86840F0DA
:1009A0000040F860384601F0A3F85046FFF79AFC83
:1009B0000020BAE72DE9F04105462F460026002425
:1009C00015B90020BDE8F081FFF784FC804607F1EF
:1009D0000806306820B13468206830600448206020
:1009E0004046FFF77FFC0CB90020EBE7201DE9E74C
:1009F000A55A5AA52DE9F04705460E462C46012773
:100A000005B116B90120BDE8F087FFF763FC804609
:100A100000BF311F20460A46D0F800C0BCF1000FCD
:100A200002D14FF0010C25E000F10C0CA2EB0C03FD
:100A3000D0F800C0B3FBFCF90CFB193CBCF1000F73
:100A400002D04FF0010C15E0D0F800C0B3FBFCFC65
:100A5000D0F80490CC4502D34FF0010C0AE0DFF847
:100A60003490D2F800C0CC4502D04FF0010C01E028
:100A70004FF0000CBCF1000F00D004E0A06808604B
:100A8000A160002700BF00BF4046FFF72BFC38469F
:100A9000B9E70000A55A5AA52DE9F04706460F46CA
:100AA00090463446002516B90120BDE8F087B8F11C
:100AB000000F01D10120F8E70C2F01D20120F4E74B
:100AC000FFF708FC824608F1070020F003002060D1
:100AD000A7F10C002168B0FBF1F06060606820B9FC
:100AE0005046FFF7FFFB0120DFE704F10C05A5608E
:100AF0004FF0000905E02068284428602D6809F1BE
:100B000001096068401E4845F5D80020286050461D
:100B1000FFF7E8FB0020C8E700BFD0E90012116032
:100B2000D0E90021516000214160016000BF7047A1
:100B300010B50A460649096801EBC20319684C68FA
:100B4000446001604C682060486000BF00BF10BD79
:100B50000C060020014600200022074B1B6803EB17
:100B6000C1035A6801E0401C5268034B1B6803EB49
:100B7000C1039342F7D170470C06002000210020EA
:100B8000014612E00B4A126802EBC1004268824241
:100B900001D1012200E000222AB90648006800EBDA
:100BA000C10040687047481C01462029EAD3002054
:100BB000F8E700000C0600202DE9F84F81460C46AE
:100BC00015469A460A9E15B91948BDE8F88F4FF6A2
:100BD000FB70864202DD16480938F6E704B116B903
:100BE0001348401CF1E7FFF775FB8046301D82B2C9
:100BF0006B462946204601F01DF8074627B14046BE
:100C0000FFF770FB3846E0E700981430FFF741FD2E
:100C100000981C30FFF73DFD00982430FFF739FDA8
:100C20000098C4814046FFF75DFB0020CDE700003F
:100C30000C0600022DE9FC5F80460F4691461E46D9
:100C400000200090A8F1010BBBF10A0F02D340482D
:100C5000BDE8FC9F17B93E48401CF9E7B9F1000F09
:100C600002D13B48801CF3E72EB13A48006810B12E
:100C700037480A30ECE7FFF72DFB01900BEB4B00F8
:100C800000EBCB003449096801EB8004A08820B94F
:100C900000BF2F480E30009054E0208A50BB26B988
:100CA00000BF2B480F3000904CE02C48008820B14A
:100CB00000BF27480838009044E0294805683246BC
:100CC00004F11C01284601F009F80198FFF70AFB1E
:100CD00000F0E6F8FFF7FEFA0190287900F04000F6
:100CE00058B1A88820F04000A88000BF1848C01F55
:100CF000009027E0208A401E208261892289206896
:100D000001FB020ADAF8000038606089401C80B2FA
:100D10006081E188884201D10020608104F11400E3
:100D2000FFF7A1FC50B904F1140001F019F8019883
:100D3000FFF7D8FA00F0B4F8002089E7E089401CFA
:100D4000E08100BF0198FFF7CDFA009880E700002E
:100D50000E060002A80600208C0600202C060020AB
:100D6000240600202DE9FC5F81460F4690461E4672
:100D700000200090A9F1010BBBF10A0F02D34348F8
:100D8000BDE8FC9F17B94148401CF9E7B8F1000FD6
:100D900002D13E48801CF3E72EB13D48006810B1F7
:100DA0003A480838ECE7FFF795FA01900BEB4B0057
:100DB00000EBCB003749096801EB8004A08820B91B
:100DC00000BF3248C01C00905BE02089404504D23F
:100DD00000BF2E48001D009053E0E08950BB26B9AB
:100DE00000BF2A48401D00904BE02B48008820B1EE
:100DF00000BF26480B38009043E02848056832467B
:100E000004F11401284600F069FF0198FFF76AFA1F
:100E100000F046F8FFF75EFA0190287900F04000F4
:100E200058B1A88820F04000A88000BF17480A38B1
:100E3000009026E0E089401EE081A1892289206897
:100E400001FB020ACAF80070A089401C80B2A08190
:100E5000E188884201D10020A08104F11C00FFF745
:100E600002FC50B904F11C0000F07AFF0198FFF772
:100E700039FA00F015F8002082E7208A401C208211
:100E800000BF0198FFF72EFA009879E711060002DB
:100E9000A80600208C0600202C0600202406002036
:100EA00010B5FFF717FA0446FFF768FE3C380A4909
:100EB0004860084600684968884208D007480088AA
:100EC00028B92046FFF70EFAFFF70FFA10BD2046AB
:100ED000FFF708FA00BFF9E7240600202C060020DF
:100EE0002DE9F04106462A48006800EB06150A2E57
:100EF00002D32848BDE8F081FFF7ECF907462878CF
:100F000020B93846FFF7EEF92248F3E768884FF634
:100F1000FE71884205D13846FFF7E4F91D48C01D2F
:100F2000E8E705F10800FFF7A6FB48BBE868A0F179
:100F30003C04E868FFF77BFBA08820F00800A08055
:100F4000207900F0400030B1204601F043FBA0883A
:100F500020F04000A0800020A061207900F0020075
:100F600040B9A08840F00400A080E18804F13C0072
:100F7000FFF7DEFD3846FFF7B5F9FFF791FF05E013
:100F80006888401C68803846FFF7ACF90020B1E75C
:100F9000980600200107000210B501F0EFFA0446A0
:100FA0000CB1204610BDFFF713F92046FAE7000008
:100FB0002DE9F04105460F4600263946284600F047
:100FC00045F8064616B13046BDE8F081286800EBCA
:100FD000800101EBC0001949096801EBC004FFF76B
:100FE00079F98046A08820F00200A080A08840F017
:100FF0000400A080E18804F13C00FFF799FDFFF7B1
:10100000BDFD3C380E4948600E48006888B10E4866
:10101000008870B9084600684968884209D00A48C3
:10102000008830B94046FFF75DF900F0D5FE00209A
:10103000CAE74046FFF756F90020C5E72006002022
:10104000240600205C0600202C0600202DE9F05F1D
:1010500007460D464FF000094FF0FF3A17B95748C1
:10106000BDE8F09F15B95548801FF9E7E86910B948
:101070005248801EF4E7286810B95048C01EEFE7B8
:10108000A8881F2802DD4D48001FE9E7A869B0F5D0
:10109000004F02D949481930E2E7A86910B94FF466
:1010A0003470A8610821A869FFF710FAA86110211F
:1010B0004FF49870FFF70AFAA969884202D93F48AD
:1010C000401ECDE7FFF706F9834611E03C48406833
:1010D000A0F13C043A494868FFF79FFA04F13C014B
:1010E0003848FFF777FA3848E1680068FFF7E5FB12
:1010F0003348FFF7B0FA0028E8D03248FFF7ABFAE0
:1011000028B1DFF8B8A00AF10A0A00BF51E02D4863
:101110004068A0F13C042B494868FFF77EFA584626
:10112000FFF7E0F8D4F8109008222748A969006872
:10113000FFF78DFB06465EB9FFF7CCF8834604F156
:101140003C012048FFF746FADFF880A000BF30E0FE
:1011500032464846A96901F08FFA8046C4F80080FB
:10116000A868A062E968E16229692163696961632D
:10117000E660A869A0600020A061E06160620220D2
:10118000A080A088296A09B1802100E000210843DD
:10119000A080A888E080286860614FF0FF3020655B
:1011A0000020E065E869A06300206066C7F8009051
:1011B00056E75846FFF796F8504651E707020002F7
:1011C0004C060020440600209C060020000200037C
:1011D00070B504461948006808B1194870BD19482F
:1011E000008808B11848F9E714B900F05FF8F5E78E
:1011F000FFF770F805461549096801F13C00FFF753
:101200008BFC12480068808820F004000F490968B0
:1012100088800E490868214600F042FF0B480068AC
:10122000808840F020000949096888802846FFF737
:1012300059F8FFF735FE0020D0E70000A80600208F
:101240000D0200032C0600200E02000224060020DE
:1012500010B5FFF73FF8044604480088401C0349D6
:1012600008802046FFF73EF810BD00002C06002045
:1012700010B5FFF72FF804460B48008800280DDD55
:1012800009480088401E084908800846008828B997
:101290002046FFF727F8FFF703FE10BD2046FFF7B3
:1012A00021F800BFF9E700002C06002070B50024EB
:1012B0001C48006800691C490968884201D31B4822
:1012C00070BDFFF707F8054616490968C888FFF79B
:1012D00041FC0446012C17D91249096801F13C0070
:1012E000FFF79BF90F480068808840F004000D4923
:1012F000096888800B4A1268D1880A4A126802F18C
:101300003C00FFF715FC05E02846FEF7EBFF074819
:101310000930D5E72846FEF7E5FFFFF7C1FD0020BD
:10132000CEE700002406002030060020070200025D
:101330004A0A52020243014B1A60704708ED00E06E
:10134000F0B504460D4616461F461448006840F0A6
:1013500001001249086000201049083108600F4858
:1013600000680F4908400D4908600E48091D0860D3
:10137000081F006820F48020091F0860002007492A
:101380000C3108603B4632462946204600F020F8E2
:1013900000210846FFF7CCFFF0BD000000380240F6
:1013A000FFFFF6FE1030002410B50848D0E90030E9
:1013B0005A1C40F100000549C1E9002001F02EF956
:1013C00000F0F0FF00F05AFE10BD0000680600209B
:1013D000F0B504460D46002100203D4E366846F427
:1013E00080363B4F3E6001E04E1CB1B2384E36684D
:1013F00006F400361EB941F6FF76B142F4DB41F641
:10140000FF76B14201D1012060E0314E40363668AE
:1014100046F080562E4F40373E602E4E366846F4DA
:1014200040462C4F3E602A4E0836366846F4144635
:10143000274F08373E60264E366826F08076244FC8
:101440003E6045EA84160127C7EB520746EA074685
:1014500046EA036646F480061D4F3F1D3E603E1F70
:10146000366846F080763F1F3E6000BF184E3668F3
:1014700006F00076002EF9D0174E366846F48076D6
:10148000154F3E603E46366846F400763E603E4666
:10149000366846F480663E603E46366846F005068D
:1014A0003E600B4E0836366826F00306084F0837B4
:1014B0003E603E46366846F002063E6000BF044E7F
:1014C0000836366806F00C06082EF8D1F0BD00008C
:1014D0000038024000700040003C024010B5FEF7AA
:1014E000F9FE1E48008800F0200008B31B488088E1
:1014F000C4B21B48008800F40040C8B918480088EE
:1015000000F4804060B10A2C03D000201449088008
:1015100020E01348008840F400401149088019E099
:101520000D2C06D10E48008840F480400C490880FC
:1015300010E00B480088C0F30D000A490C5408481D
:101540000088401C0649088008460088C72801DD3D
:1015500000200880FEF7C2FE10BD00000010014010
:1015600008060020AC06002010B5FEF7B3FE1E48AA
:10157000008800F0200010B31B48001D0088C4B292
:101580001A48008800F40040C8B91848008800F4E0
:10159000804060B10A2C03D000201449088020E06C
:1015A0001248008840F400401049088019E00D2CD2
:1015B00006D10E48008840F480400C49088010E0B5
:1015C0000A480088C0F30D0009490C5407480088F8
:1015D000401C0649088008460088C72801DD002015
:1015E0000880FEF77BFE10BD004400400A06002084
:1015F00074070020014A024900F013B8D116000810
:101600000406002002E008C8121F08C1002AFAD10F
:1016100070477047002001E001C1121F002AFBD172
:1016200070472DE9F04116460F460446002503E0B9
:101630003946B047641C6D1C20780028F8D1284634
:10164000BDE8F08110B58AB000240220ADF8080092
:1016500009A008900A4801904FF434700790802048
:10166000099001A90748FFF7A3FC044614B12046DE
:101670000AB010BD2046FBE77461736B31000000B7
:10168000B92700080006002010B58AB00024012008
:10169000ADF8080009A008900B4801904FF4347091
:1016A00007908020099001A90848FFF781FC0446B3
:1016B00014B120460AB010BD2046FBE77561727474
:1016C0005F7461736B000000D929000800060020D8
:1016D00000BF054A128802F04002002AF9D0C2B2C7
:1016E000014B9A80704700000010014010B500F0D7
:1016F0009FF804460CB1012010BD00F005F8FFF77B
:101700004BFC00BFFEE7000010B50024FEF7BEFE54
:101710000723022208214FF4A870FFF711FE4FF4AF
:10172000E131542001F060F80020094908600948BF
:10173000FEF714FEFFF786FF04460CB1204610BDED
:10174000FFF7A2FF04460CB12046F8E70020F6E7B9
:10175000A4824242FFFF0F00FEF720FD00BFFEE71C
:10176000102004E00649074A42F82010401CFF28D8
:10177000F8D90449044A11600449121D11607047E8
:10178000591700080000002008ED00E00007FA05E6
:1017900000BFFEE710B58AB0242101A8FEF751FD75
:1017A0000A4801904FF4A060079009A008901F20FC
:1017B000ADF8080001A90948FFF7FAFB044614B187
:1017C00020460AB010BD0020FBE70000911700087A
:1017D00049646C65436F7265303030003406002018
:1017E00070B5FEF777FD05460F480068401C0E49AE
:1017F00008602846FEF776FDFEF7D0FC04460B484D
:1018000050F8240018B1094951F824008047FEF728
:1018100061FD054604480068401E034908602846EB
:10182000FEF760FD70BD0000A80600204C89002076
:1018300010B500F0C3FA00F099F904460CB1204647
:1018400010BDFFF78DFF00F0E1FC04460CB120460F
:10185000F6E700F0C5FA04460CB12046F0E700F0C8
:1018600097F904460CB12046EAE700F01BFA04465B
:101870000CB12046E4E700F0DFFA04460CB1204644
:10188000DEE700F0F1FEFFF785FF04460CB12046CD
:10189000D6E70020D4E72DE9F04107460E460024A4
:1018A00006F1130020F003052946384600F06DF8D4
:1018B000044614B90020BDE8F08105F11400E16888
:1018C000814204D32A462146384600F021F92046B9
:1018D000FEF7B7FE204600F00BF9E06840F000404C
:1018E000E060E16821F0004000F03EFD04F11000EE
:1018F000E1E72DE9F84F05460C462E4605F1E008D4
:1019000070682844A0F1100A706847194FF0000968
:101910002B46524641462046009700F0B7F810B9D2
:101920000120BDE8F88FE06800F0004008B9012010
:10193000F7E7E06820F0004000EB04092B46524630
:1019400041464846009700F0A1F808B90120E8E7B1
:10195000D9F80800A04201D00120E2E7444512D0A6
:1019600000972B4652464146A06800F08FF808B910
:101970000120D6E7A068C16821F000410844A042D8
:1019800001D00120CDE70020CBE770B505460E461B
:101990000024314605F10800FEF7B5FD044618E0C5
:1019A00000206168084605E0C168B14200D370BDFF
:1019B00041680846A042F7D105F1080021460246D9
:1019C00002F1D0038B4201D1002301E001F10803B1
:1019D0001C46002CE4D10020E9E72DE9F041044643
:1019E0000E460027B846E16821F0004000F0A2FC56
:1019F000E06820F00040E060A06848B3A068C068DC
:101A000000F0004020BBA568204600F05EF8E868C2
:101A100020F000404719F86800F0004028B9384627
:101A2000FEF70FFE384600F050F82846FEF709FE94
:101A300006F10800E968FEF766FD8046B8F1000F80
:101A400001D1BDE8F08129464046FEF7DFFD1BE0ED
:101A5000E06820F000400719F86800F0004028B95D
:101A60003846FEF7EEFD384600F02FF806F1080084
:101A7000E168FEF748FD8046B8F1000F00D1E0E7CD
:101A800021464046FEF7C2FD00BFDAE730B5044606
:101A9000039DA14201D8944201D9002030BDE068E5
:101AA00000F0004038B120686040401C08B10020C0
:101AB000F4E70120F2E72068984202D32068A842A8
:101AC00001D30020EAE70120E8E700218268D2681C
:101AD000C3681A448368DA60C268111882688A6031
:101AE00000BF002202604260826000BF70470000B9
:101AF000C14301600549096821B1044909680969C0
:101B0000416002E04FF0FF31416070472406002041
:101B10002DE9F04780460D46164600240027A146D1
:101B2000AC19A560E868801BE060EE60E06820F01A
:101B300000400719BC60F86800F0004028B938463A
:101B4000FEF77FFD3846FFF7C0FF08F10800E168A7
:101B5000FEF7D9FC8146B9F1000F01D1BDE8F0874D
:101B600021464846FEF752FD00BFF7E710B506488C
:101B7000064908604FF4004104480068FEF7C7FEBC
:101B80000446204610BD00000C0900209C060020E1
:101B900070B51248FEF77AFDF02111480068FEF793
:101BA00039FE104908600846006808B90E4870BD43
:101BB00000240EE004EB44000A49096801EBC0056B
:101BC0006C600020287005F108010448FEF76FFDE5
:101BD000641C0A2CEED30020E9E7000084060020F4
:101BE0009C06002080060020001D000270B5002425
:101BF00000254FF4807529460C480068FEF70AFE60
:101C00000B4908600846006800B970BD0020044612
:101C100008E00749096801EBC4004060006000BFAC
:101C2000601C0446202CF4D300BFEEE79C06002085
:101C30000C0600202DE9F0470646884617469946CF
:101C400015480468002507E0A08818B9681CC8F882
:101C5000000003E06D1C2C340A2DF5D300BF0A2DC3
:101C600002D10E48BDE8F0872C212046FEF7E9FAA4
:101C700006FB07F10A480068FEF7CCFD20602068EB
:101C800010B90648801EEDE7E68027810120A0807C
:101C9000C9F800400020E5E78C0600200406000299
:101CA0009C06002010B54FF4DC7109480068FEF76F
:101CB000B1FD084908600846006808B9064810BD2B
:101CC0004FF4DC7103480068FEF7BBFA0020F6E72A
:101CD0009C0600208C060020010600022DE9F04140
:101CE00004460D4617464FF00008002604F13C005C
:101CF000FEF712FFA08820F00400A08004F13C0849
:101D0000A08840F40050A0802846FEF7ACFC30B11B
:101D100000BF41462868FEF76BFC00BF14E068680E
:101D2000A0F13C0607E0E088F188884200DA06E08E
:101D3000306CA0F13C0606F13C00A842F3D100BF94
:101D40004146F06BFEF754FC781C38B1A08840F097
:101D50004000A0803946204600F0A2F9BDE8F0819D
:101D600070B505466868A0F13C046868D0E90012C7
:101D70001160D0E90021516000214160016000BF85
:101D8000A08820F40050A080207900F0400030B1FD
:101D9000204600F01FFCA08820F04000A0802079A1
:101DA00000F0020040B9A08840F00400A080E18863
:101DB00004F13C00FEF7BCFE70BD0000102003499A
:101DC000086003480349086070470000300600209F
:101DD0000C890020A006002010B5FEF786FA10BD81
:101DE00070B51148FEF758FCA02110480068FEF7B6
:101DF00011FD0F4908600846006808B90D4870BD1C
:101E000000240CE00A48006800EB04156C60002018
:101E1000287005F108010448FEF751FC641C0A2CE7
:101E2000F0D30020EBE70000900600209C06002085
:101E300098060020000700022DE9F84300202249FF
:101E400008604FF40078414620480068FEF7E2FC45
:101E5000044614B91E48BDE8F88341462046FEF703
:101E6000F0F91C4804601C480460002020812546CD
:101E70002034012705E027812C602546781C87B295
:101E80002034102FF7DB0822D0211448FEF704FE7F
:101E9000064616B10E48C01CDDE704200023104A98
:101EA000102100901846FEF787FE064616B1084836
:101EB000001DD0E700F06EF8064616B10448401D3C
:101EC000C9E70020C7E700001C0600209C06002090
:101ED0000703000214060020180600203C0800201A
:101EE0001006002010B50022002183793BB9437908
:101EF00013B14379022B02D14369C36001E0036946
:101F0000C3600F4B19680AE0CB68C468A34200D9CC
:101F100007E0C368CC681B1BC3600A460968002938
:101F2000F2D100BF016019B1CB68C4681B1BCB6044
:101F300012B9034B186000E010600223037110BD5A
:101F40001C0600200EB50020029000BF4FF0FF33AA
:101F5000042202A90D480068FEF76CFE0446002C1E
:101F6000F4D102980028F1D00298006800900298FD
:101F70004068019006480299FEF73CFD0098002851
:101F8000E4D0DDE900108847E0E7000010060020FB
:101F90003C08002010B58AB0242101A8FEF751F9B1
:101FA000094801904FF43470079008A00890002071
:101FB000ADF808008020099001A90748FEF7F8FF56
:101FC000044620460AB010BD451F00085377745FD1
:101FD0005461736B000000003806002070B51F4884
:101FE000046836E01D49206808601D48FEF7E2FCE1
:101FF00005467DB1E0692860A0696860002304227D
:10200000294618480068FEF7ADFE18B12946144865
:10201000FEF7F0FC6079A0B9204600F025F8208991
:102020004FF6E071884203DA2089103020810EE0FB
:102030002089C11700EB11710911A0EB0111218159
:1020400005E0A079401CA0712046FFF74BFF034834
:10205000046814B1E0680028C4D070BD1C060020DC
:102060003C0800201006002003490968016002496D
:1020700008600021017170471806002010B507485C
:10208000006848B105480068C068401E03490968F7
:10209000C86008B9FFF7A2FF002010BD1C06002091
:1020A0002DE9F0470446884608F01F074FEA581903
:1020B00007B101E0A9F10109E06C00F0784040EAC5
:1020C0000900E06425488088074407F01F07E06C9A
:1020D00067F3DF60E0642148006800EBC7067068C2
:1020E000B04205D104F144013046FEF7D8FA33E09E
:1020F0007068A0F1440500BFE86C20F07840E16C06
:1021000021F0784188420CD8E06C20F07840E96CEE
:1021100021F07841401AE16C01F078410843E06415
:102120000CE0E86C20F07840E16C21F07841401A36
:10213000E96C01F078410843E86406E0A86CA0F17E
:10214000440505F14400B042D6D100BF04F144017A
:1021500005F14400FEF7A3FABDE8F087540600201D
:102160002DE9F041054605EB850000EBC50023494C
:10217000096801EBC004E06930B1666904F1280028
:102180000FC8B047206204E0666904F128000FC858
:10219000B047207900F0800050B1FEF79BF8074669
:1021A0000020174908803946206900F069F922E0CB
:1021B000FEF790F807460020114908803846FEF7E0
:1021C00091F8FFF745F8E06928B1E1694868FEF742
:1021D00087FE0020E061207900F0040038B104F1AE
:1021E0003C00FEF799FCA08820F00400A080FFF7D7
:1021F0003FF8FEF755FEBDE8F08100002006002004
:102200002C06002072B600BFFEE7000070B5404803
:102210000068401C682100FB01F631463D4800681B
:10222000FEF7F8FA3C4908600846006808B93B48E0
:1022300070BD314638480068FEF703F83848FEF7AD
:1022400022FA3848FEF71FFA3748FEF71CFA002436
:1022500020E0012004EB840101EBC4012E4A126846
:1022600002EBC101888004EB840000EBC4002A4922
:10227000096801EBC000046104EB840000EBC400BA
:10228000254A126802EBC00000F13C012548FEF728
:1022900006FA641C0F2CDCD924480021016041603F
:1022A0001B48006800EB800101EBC0001A49096877
:1022B00001EBC0001D490860084600680461112058
:1022C00009688880202019490968C880FFF78EFCBA
:1022D0004FF4807631460F480068FEF79BFA0546BA
:1022E0000DB90E48A4E731462846FDF7AAFF10486D
:1022F000056000200E498880002404E02846FEF78F
:10230000C2F9641C0835202CF8D3002090E70000A7
:10231000300600209C06002020060020000200035A
:102320003C060020440600204C0600202406002025
:10233000540600200146094A126810690F2800D986
:102340007047074A126802B1FAE7064A52F820209D
:10235000521A044B43F8202000BFF1E72406002066
:10236000A80600200C89002001460B4A126802B919
:1023700070470A4A126802B1FAE7074A1268106900
:102380000F2800D9F4E7064A52F820200A44044BEB
:1023900043F8202000BFEBE724060020A806002019
:1023A0000C8900202DE9F041002734498988481C18
:1023B000C11700EBD1614911A0EB41112F4A918067
:1023C000104600681146898800EBC1056868A8427C
:1023D00001D1BDE8F0816868A0F1440443E0A6881B
:1023E000E06C20F0784018B1E06C401EE0643EE004
:1023F00004F14400FEF711F906F0080058B1A08876
:1024000020F00800A08004F13C00FEF706F900204F
:10241000A061606217E006F4806020B1A08820F41B
:102420008060A0800FE006F4005040B104F13C0051
:10243000FEF7F3F8A08820F40050A08003E0A08805
:1024400020F02000A08006F0020048B9A08840F0EB
:102450000400A080E18804F13C00FEF769FB01273D
:102460006868A0F1440404F14400A842B7D100BF59
:102470000FB1FEF715FD00BFABE7000054060020CA
:102480002DE9F04105460F4605EB850000EBC50040
:102490003649096801EBC004A68806F0040040B183
:1024A00004F13C00FEF738FBA08820F00400A08077
:1024B0000DE042F20800304048B104F13C00FEF764
:1024C000ACF806F0600010B1204600F083F8A08858
:1024D00020F00200A080A08840F00100A0804FF012
:1024E000FF3020650020E065FEF748FB3C382049BE
:1024F0004860207900F0100040B304F13C011D4811
:10250000FEF7CDF81C48006800EB800101EBC0002D
:102510001649096801EBC0001549086008460068C3
:102520000561A088096888801149E0680968C86069
:102530000F49A06B096888630120A0803846FDF729
:10254000D1FEFFF749FC0020BDE8F081207900F0C2
:10255000010030B13846FDF7C5FEFFF73DFC002015
:10256000F2E73846FDF7BEFE0020EDE7200600202A
:10257000240600204C060020300600200D480E499D
:10258000C8630E480E49C8630E480F490860002111
:102590000E4A11605160401E4FF0E02148617020EA
:1025A0000B49087000204FF0E02188610720086186
:1025B00000207047E117000800000020A913000860
:1025C0004C89002040900200A406002068060020EC
:1025D00023ED00E02DE9F0410446E06CC70E0E4803
:1025E000006800EBC706A06CB0420ED0A06CA0F152
:1025F0004405E86C20F07840E16C21F07841084413
:10260000E96C01F078410843E86404F14400FEF706
:1026100004F8BDE8F08100005406002010B50F4812
:1026200000680F49096888420BD00D4800680B49C3
:1026300008600846C1880B4800880844401E0749C6
:102640008880064881880748008880B2814204D18A
:10265000002002490860FEF729FE10BD7806002020
:1026600024060020680600200020024908600A2095
:10267000C88070477806002030B50446012304E086
:102680004FF0CA3542F823505B1CB3EB910FF7D3E0
:102690004FF0CC3515605518A5F1CC00434D0560C1
:1026A0006D1C45606D1C85606D1CC5606D1C0561F1
:1026B0006D1C45616D1C85616D1CC5616D1C0562DD
:1026C0006D1C45626D1C85626D1CC5626D1C0563C9
:1026D0006D1C45636D1C85636D1CC5634FF004352F
:1026E00005644FF0053545644FF0063585644FF0BD
:1026F0000735C5644FF0083505654FF00935456568
:102700004FF0103585654FF01135C565002505661C
:1027100044664FF0013585666D00C5664FF00335A0
:1027200005674FF012354567214D8567214DC56717
:102730004FF08075C0F880504FF02A45C0F88450A3
:102740006D1CC0F888506D1CC0F88C506D1CC0F812
:1027500090506D1CC0F894506D1CC0F898506D1CC2
:10276000C0F89C506D1CC0F8A0506D1CC0F8A4505F
:102770006D1CC0F8A8506D1CC0F8AC506D1CC0F8A2
:10278000B0506D1CC0F8B4506D1CC0F8B8506D1C32
:10279000C0F8BC506D1CC0F8C0500025C0F8C45033
:1027A000024D6D1CC0F8C85030BD0000100000AADA
:1027B000052200086121000870B5002400250FE003
:1027C0006D1C0848006808B9012000E00020054998
:1027D00008604FF47A70FEF7FBFC044604B170BD4C
:1027E000EEE70000A48242422DE9F0432DED028B7A
:1027F00083B007460E46704907FB01F000EE100A51
:10280000F8EE400A300100EE100AB8EE400A80EE01
:10281000801AB0EE418ABCEEC80A10EE100A84B2EB
:1028200000EE104AB8EE400A38EE400AF3EE000A15
:1028300020EE200ABCEEC00A10EE108A4FF6FF70A0
:1028400000EA041404EB080084B25C48006840F01D
:1028500001005A49086059481430006840F01000DF
:10286000564914310860081F006840F40030091F01
:1028700008600120022100230A46CDE900104FF430
:10288000C0614F48FDF793FD0120022100230A4655
:10289000CDE900100C214A48FDF789FD07220921E6
:1028A0004748FDF764FD07220A214548FDF75FFD13
:1028B000072202214248FDF75AFD07220321404822
:1028C000FDF755FD3F480481808920F400403D49D3
:1028D00088810846808940F008008881300100EE38
:1028E000100AB8EE400ADFED380A80EE801AF0EEEA
:1028F000418ABCEEE80A10EE100A85B200EE105ACA
:10290000B8EE400A38EEC00AF3EE000A20EE200AC4
:10291000BCEEC00A10EE109A4FF6FF7000EA0515E3
:1029200005EB090085B229480580001D008820F4C8
:1029300000402649091D08800846008840F008002C
:1029400008802048808940F004001E49888108469C
:10295000808940F02000888100201D4B0122114613
:1029600000902520FDF7E4FD1848001D008840F088
:1029700004001649091D08800846008840F0200020
:1029800008800020134B0122114600902620FDF7FD
:10299000CFFD0C48808940F400500A4988810B48DB
:1029A000001D008840F400500849091D088003B04C
:1029B000BDEC028BBDE8F08340420F00303802408E
:1029C0000000024000100140A037204C08440040A5
:1029D000DD1400086915000870B5002423E01248D2
:1029E000008800F40040C0B10F4805780F48007817
:1029F000142801D1012000E000200C4949781A294F
:102A000001D1012100E00021084010B108A0FEF72B
:102A1000F1FD00200449088000BF6420FEF7D8FBC8
:102A2000044604B170BDDAE70A06002074070020EE
:102A300066696E6420697400682A0008000000203E
:102A4000000400007C020008842A00080006002020
:102A5000AC00000004160008302B0008AC06002073
:102A6000A48A0000141600084113A5010C1008598F
:102A700017040110A9180B14F5022401FF01FF012E
:102A8000FF01B30000000000000000000000000093
:102A90000000000000000000000000000000000036
:102AA0000000000000000000000000000000000026
:102AB0000000000000000000000000000000000016
:102AC0000000000000000000000000000000000006
:102AD00000000000000000000000000000000000F6
:102AE00000000000000000000000000000000000E6
:102AF00000000000000000000000000000000000D6
:102B000000000000000000000000000000000000C5
:102B100000000000000000000000000000000000B5
:102B200000000000000000000000000000000000A5
:040000050800018965
:00000001FF
