:020000040800F2
:100000005034002009010008D52F0008E72000081F
:10001000D12F0008A10D0008AD3900080000000034
:10002000000000000000000000000000F5310008A2
:100030000F1C00080000000035090008E13200082C
:100040002301000823010008230100082301000800
:1000500023010008230100082301000823010008F0
:1000600023010008230100082301000823010008E0
:1000700023010008230100082301000823010008D0
:1000800023010008230100082301000823010008C0
:1000900023010008230100082301000823010008B0
:1000A00023010008230100082301000823010008A0
:1000B0002301000823010008230100082301000890
:1000C0002301000823010008230100082301000880
:1000D0002301000823010008230100082301000870
:1000E000230100082301000823010008DFF80CD0D9
:1000F00000F0D2FB004800473D4000080006002009
:10010000EFF3058070470000064880470648004727
:10011000FEE7FEE7FEE7FEE7FEE7FEE7FEE7FEE7B7
:10012000FEE7FEE709330008ED000008124C134D0E
:10013000256013484FF0010101604FF0020080F389
:100140001488104842680F4802600E4B1868878870
:100150004FF0100847EA08078780D0F800C00CF17C
:10016000240CBCE8FF008CF30988AE4687F30388B3
:1001700062B6304700BF000020ED00E00000F0F064
:10018000B806002080060020D2B201E000F8012B62
:10019000491EFBD270470022F6E710B513460A4607
:1001A00004461946FFF7F0FF204610BDF0B480EA80
:1001B0000102D40F4200B2EB410F02D202460846C0
:1001C00011464A0042D0C30DDDB2C1F3C752AD1A89
:1001D000202D35DAC1F3160141F4000204B1524278
:1001E000C5F1200602FA06F12A411044B3EBD05FB4
:1001F00023D0C4B1012DA0EBC35009DCF0BC4FF0FB
:10020000004202EAC352DBB200F5000000F0B8BAC7
:10021000400000F1807000EBC350A0F1807040EA14
:10022000D170490009E0490841EAC071A0EBC35010
:1002300000F50000400800EBC350F0BC00F097BA96
:100240006142012202EB4101001BF6E7F0BC70475E
:1002500081F00041AAE780F00040A7E780EA0102B0
:1002600010B502F00043400022D04A001FD0010E1A
:1002700001EB1261C0F35600C2F3560240F40000D5
:1002800042F40002A0FB022000047F39140400D0D5
:10029000401C50EA124001D44000491EC2B20C0674
:1002A00004EBD010401C4008802A02D003E000205C
:1002B00010BD20F00100002900DA0020184310BD15
:1002C0002DE9FE4F804681EA0300C00F0C460090E6
:1002D00021F0004123F00045B8EB0200A94105D20E
:1002E0004046214690461C460B46024623F00040FD
:1002F000104347D0270DC7F30A00C3F30A510290F9
:10030000401A019040286BDAC3F3130040F4801BBD
:100310000098924620B10023D2EB030A63EB0B0B4B
:1003200001985946C0F14002504600F0EFF90646E8
:100330000D4650465946019A00F007FA10EB0800A6
:100340006141002487EA115284EAE7731A4340D0DE
:10035000009A62B3019A012A4FEA075215DC001B8A
:1003600061EB02014FF0004202EA0752CDE9004280
:10037000001C41F5801132462B4600F03EFA03B0D6
:10038000BDE8F08F40462146F9E7001B61EB020112
:10039000001C41F5801300185B412018A2F50017DE
:1003A00047EB030140EAD570B6196D4111E06D08C5
:1003B0004FEA360645EAC0754FEA0752001B61EB6B
:1003C0000201001C41F5801149084FEA3000001974
:1003D000514132462B4603B0BDE8F04F00F0FEB964
:1003E0000098012240000023D0EB020263EBE0738F
:1003F000009821464FEAE074B8EB000061EB04017D
:10040000E9E783F000435BE781F0004158E72DE91D
:10041000FE4F81EA030404F0004421F000410094FF
:100420004FF0000B23F0004350EA01045ED052EA83
:1004300003045BD0C3F30A54C1F30A552C44A4F25D
:10044000F3340194A0FB0254C1F3130141F4801171
:10045000C3F3130343F4801301FB024400FB034E78
:10046000840A970A44EA815447EA8357A4FB076841
:1004700002958D0A05FB07854FEA932C04FB0C546B
:100480002705029D4FEA065847EA1637B5EB0805DF
:100490006EEB070C870E920E47EA811742EA831231
:1004A000A7FB0201B6EB0B0164EB00042B0D43EA42
:1004B0000C335E1844EB1C50DA465146E7FB020150
:1004C000C5F313044FEA0B3343EA14534FEA0432E3
:1004D000019C43EA0603A4F10C040294009CCDE9BC
:1004E00000B400F08AF903B0BDE8F08F00200146A7
:1004F000F9E72DE9F04D81EA030404F0004B21F007
:10050000004514464FF0000A23F0004150EA05026E
:1005100020D054EA01021DD0C5F30A570246C5F3A4
:100520001303C1F31300C1F30A5640F4801543F4DA
:100530008013A7EB0608101BD64608F2FD3873EBB4
:10054000050002D308F1010801E092185B41B8F1FF
:10055000000F03DA00200146BDE8F08D00204FF4C3
:100560008011064684460EE0171B73EB050705D382
:10057000121B63EB050306434CEA010C49084FEAE2
:10058000300092185B4150EA0107EDD152EA0300B6
:1005900012D082EA040083EA0501084305D0101B4B
:1005A000AB4106D20122002306E000224FF00043B7
:1005B00002E06FF0010253101AEB06004CEB0851F9
:1005C00010EB0A0041EB0B01BDE8F04D00F006B95D
:1005D00096230022114600F0D3B80EB5C10F80EA71
:1005E000E0700844CA07002140F233438DE80E0052
:1005F0000A460B4600F001F903B000BD0EB540F20B
:10060000334102910021CDE900110A460B4600F06A
:10061000F4F803B000BD00F0004220F00040C10D2E
:10062000C0F3160040F400007F2901DA0020704773
:10063000962903DCC1F19601C84001E09639884053
:10064000002AF4D04042704770B5C1F30A5201F05D
:1006500000450024C1F3130140F2FF3341F480113F
:100660009A4201DA002070BD40F233439A42A2F26E
:10067000334203DC524200F058F800E090402C4333
:10068000F1D0404270BD00F0004230F000400AD08E
:10069000C10D01F56071C0F3160042EA0151C208B4
:1006A00040071143704700200146704701F00043A6
:1006B00030B421F0004150EA010206D00A0DA2F543
:1006C0006072C1F31301002A02DC30BC00207047C5
:1006D000440F44EAC104C100E01830BC00EBC25032
:1006E00000F045B8002801DBC0F10040002901DB23
:1006F000C1F1004181427047002801DBC0F1004098
:10070000002901DBC1F1004188427047202A04DB47
:10071000203A00FA02F1002070479140C2F1200314
:1007200020FA03F3194390407047202A04DB203A53
:1007300021FA02F00021704721FA02F3D040C2F101
:1007400020029140084319467047202A06DBCB1748
:10075000203A41FA02F043EAE07306E041FA02F37C
:10076000D040C2F120029140084319467047002949
:10077000A8BF7047401C490008BF20F00100704727
:1007800010B4B0FA80FC00FA0CF050EA010404BF87
:1007900010BC704749B1CCF1200421FA04F411FADD
:1007A0000CF118BF012121430843A3EB0C01CB1D21
:1007B0004FEA00614FEA102042BF002010BC704792
:1007C00000EBC35010440029A4BF10BC7047401C6C
:1007D000490008BF20F0010010BC704710B5141E7E
:1007E00073F1000408DA401C41F1000192185B41EA
:1007F0001A4301D120F0010010BD2DE9F04D9246C1
:100800009B4611B1B1FA81F202E0B0FA80F22032D7
:100810009046FFF77BFF04460F4640EA0A0041EA94
:100820000B0153465A46084313D0114653EA0100C0
:1008300019D0C8F140025046FFF777FF05460E4633
:10084000504659464246FFF761FF084305D0012054
:1008500004E020463946BDE8F08D0020054346EA15
:10086000E0762C4337430A986305E40AA0EB0800BE
:100870000022FD0A44EA47540A3002D5002001460E
:10088000E9E7010510196941DDE9084500196941E9
:10089000BDE8F04DA2E70000064C074D06E0E06819
:1008A00040F0010394E8070098471034AC42F6D3B7
:1008B000FFF720FC7C550008AC55000870B58C187B
:1008C00010F8015B15F0070301D110F8013B2A1164
:1008D00006D110F8012B03E010F8016B01F8016B51
:1008E0005B1EF9D12B0705D40023521E0DD401F84D
:1008F000013BFAE710F8013BCB1A921C03E013F816
:10090000015B01F8015B521EF9D5A142D8D300204A
:1009100070BD0000EFF3108072B67047EFF31080E7
:1009200062B6704780F31088704717484FF08051C7
:1009300001607047EFF3108C72B6144A12681AB156
:1009400000B590475DF804EBEFF3098020E9F01F54
:100950000F4D2E683060B7884FF0100827EA08075F
:10096000B7800B484068286087884FF0100847EA36
:10097000080787800168B1E8F01F81F309888CF3CC
:100980001088704700BF000004ED00E0BC060020A6
:100990008006002021B1826842F00102826003E0FB
:1009A000826822F0010282607047000010B50446A0
:1009B0001248844208D10121401502F08BFB00212E
:1009C000601502F087FB17E00D48844208D1012131
:1009D000001502F07FFB0021201502F07BFB0BE0ED
:1009E0000848844208D10121C80302F073FB0021AA
:1009F0004FF4004002F06EFB10BD000000240140E7
:100A000000280140003C0140014600208A6802F0B5
:100A100004020AB1012000E0002070470146C86CC2
:100A200080B270470246002013680B400BB10120D2
:100A300000E000207047014600208A6802F00802AA
:100A40000AB1012000E000207047000030B50246E6
:100A50000020002350680F4C20400D790C6844EAB8
:100A600005242043506090680B4C2040D1E902548B
:100A70002C434D7944EA450420439060D06A20F429
:100A800070000C7C641EE4B2234340EA0350D06241
:100A900030BD0000FFFEF0FFFDF7F1FFF0B50446AA
:100AA0000D4600200021092D11DDE068A5F10A06A0
:100AB00006EB4607072606FA07F18843A5F10A0662
:100AC00006EB460603FA06F10843E0600CE02069F5
:100AD00005EB4507072606FA07F1884305EB4506AF
:100AE00003FA06F108432061072A0FDA606B561EED
:100AF00006EB86071F2606FA07F18843561E06EB0B
:100B0000860605FA06F10843606322E00D2A0FDA33
:100B1000206BD61F06EB86071F2606FA07F18843CF
:100B2000D61F06EB860605FA06F10843206310E09F
:100B3000E06AA2F10D0606EB86071F2606FA07F10A
:100B40008843A2F10D0606EB860605FA06F1084376
:100B5000E062F0BD816841F008018160704721B119
:100B6000826842F4A002826003E0826822F4A0025C
:100B700082607047816841F0040181607047000025
:100B800010B500F02FF8202401201449086000203F
:100B90001349C1F8900101201049083108600AE0AA
:100BA00000F0ACF800200D49086000F0A7F8012023
:100BB0000B49C1F894012000A4F10104F0D10120F7
:100BC0000649091F0860102000F06CF8002000F0B2
:100BD00069F8912000F066F810BD000094012142F0
:100BE000000021420B48806940F0040009498861F7
:100BF0000948006880B2084908600846006807494B
:100C00000843054908600120054908600549C1F805
:100C10001801704700100240000801400000333402
:100C2000900121420000214230B5024601241A4DB4
:100C30002C600024194DC5F8904100200124164D68
:100C4000843D2C6000211FE0002317E00024124D9A
:100C5000083D2C60114CD4F8184114B94406200EFC
:100C600003E04406200E441CE0B200F047F80124E3
:100C7000094D083D2C6000F041F85B1C082BE5DBBA
:100C8000074C60540020491C9142DDDB0124024DD9
:100C90000C3D2C6030BD00009C012142000021422F
:100CA0000407002010B50023124C2360802200218D
:100CB00019E002EA000323B900230E4C0C34236030
:100CC00003E001230B4C0C3423600023094C241D4A
:100CD000236000F013F80123074CC4F8943100F0AE
:100CE0000DF85210491C0829E3DB0123014C236055
:100CF00010BD0000900121420000214200BF00BF52
:100D000000BF00BF00BF00BF00BF00BF00BF00BFEB
:100D10007047000000B587B001214FF4027002F067
:100D2000C9F94FF4004002F099F90120ADF8040030
:100D300000208DF8070001A9174801F08DF8174829
:100D4000FFF734FE002002908DF80C008DF80D00A6
:100D50004FF4602004900020059001208DF81800C9
:100D600002A90E48FFF772FE01210C48FFF712FEA0
:100D70000A48FFF7EFFE00BF0848FFF75CFE0028B7
:100D8000FAD10648FFF7F6FE00BF0448FFF73CFE25
:100D90000028FAD107B000BD000C0140002401403A
:100DA00000BFFEE738B5FFF7B5FD044600F020F8B8
:100DB0000020054B024602210090142001F008FAA1
:100DC0002046FFF7AFFD38BDCD0D000800B585B05A
:100DD0006A460021054800F0C7F99DF80B00F0288D
:100DE00002D1684600F01CFB05B000BD0064004065
:100DF00008B54FF4806002F027F914208DF8000048
:100E000001208DF8010000208DF8020001208DF8EE
:100E10000300684602F0E0F808BD000010B50021AC
:100E2000837A012202FA03F13D4A126842F001027C
:100E30003B4B1A603A4A1C3212688A43384B1C33C7
:100E40001A60027BCAB9364A0C3212688A43344BA4
:100E50000C331A604288C38842EA0343304A403266
:100E6000847A42F834300288838842EA03432C4A69
:100E70004032847A02EBC4025360027B012A19D10A
:100E8000274A0C3212680A43254B0C331A604288F9
:100E9000038842EA0343224A4032847A42F83430DB
:100EA000C288838842EA03431D4A4032847A02EBB7
:100EB000C4025360C27A3AB9194A121D12688A43B1
:100EC000174B1B1D1A6006E0154A121D12680A43D3
:100ED000134B1B1D1A60028932B9114A1432126871
:100EE0008A430F4B14331A600289012A06D10C4A37
:100EF000143212680A430A4B14331A60427B012AE7
:100F000006D1074A1C3212680A43054B1C331A608B
:100F1000034A126822F00102014B1A6010BD000062
:100F2000006600401AB143690B43436102E0436924
:100F30008B434361704730B502460020002314689C
:100F400024F002041460146844F00104146000E00A
:100F50005B1C546804F001041CB94FF6FF74A342F3
:100F6000F6D1546804F001040CB900206CE08C79CF
:100F7000012C04D1146844F08004146003E0146868
:100F800024F080041460CC79012C04D1146844F05E
:100F90004004146003E0146824F0400414600C7AE8
:100FA000012C04D1146844F02004146003E0146898
:100FB00024F0200414604C7A012C04D1146844F00D
:100FC0001004146003E0146824F0100414608C7A98
:100FD000012C04D1146844F00804146003E0146880
:100FE00024F008041460CC7A012C04D1146844F075
:100FF0000404146003E0146824F0040414608C7882
:10100000A407CD7844EA05640D7944EA05444D7996
:1010100044EA05540D886D1E2C43D461146824F0F5
:1010200001041460002300E05B1C546804F0010418
:101030001CB14FF6FF74A342F6D1546804F00104CA
:101040000CB1002000E0012030BD00002DE9F0418E
:101050008AB004460D4616461F46DDF84080012141
:10106000042002F027F80121480602F003F84FF4AB
:101070008050ADF8240003208DF8260018208DF84C
:10108000270009A9354800F0E7FE4FF40060ADF8ED
:10109000240048208DF8270009A9304800F0DCFE24
:1010A00000208DF81E008DF81F008DF82000012013
:1010B0008DF8210000208DF8220001208DF82300FA
:1010C0008DF81A808DF81B408DF81C608DF81D502E
:1010D000ADF8187006A92248FFF72DFF00208DF803
:1010E00012008DF8130001208DF814001D4880783F
:1010F0001C49C97800EA0120ADF8080019480078B9
:101100001849497800EA0120ADF80A000020ADF83E
:101110000C00ADF80E00ADF8100001208DF81500A0
:1011200002A8FFF77BFE012202210D48FFF7FAFE1D
:1011300014208DF8040001208DF8050000208DF8A2
:10114000060001208DF8070001A801F045FFFFF718
:1011500029FE00200AB0BDE8F0810000000801402F
:10116000006400404E06002010B500F5D87303EB74
:1011700001131B6803F004031372137A53B900F5CB
:10118000D87303EB01131B6840F2FF7404EA535356
:10119000136009E000F5D87303EB01131B686FF0CF
:1011A000604404EAD303536000F5D87303EB0113E2
:1011B0001B6803F00203537200F5D87303EB0113AD
:1011C0005B6803F00F03937200F5D87303EB011310
:1011D0005B681B0AD37400F5D87303EB01139B689B
:1011E000D37200F5D87303EB01139B681C0A1473C8
:1011F00000F5D87303EB01139B681C0C547300F5C6
:10120000D87303EB01139B681B0E937300F5D8731F
:1012100003EB0113DB68D37300F5D87303EB011301
:10122000DB681C0A147400F5D87303EB0113DB6848
:101230001C0C547400F5D87303EB0113DB681B0E10
:10124000937421B9C36843F02003C36003E00369CA
:1012500043F02003036110BD10B5024600209368DF
:1012600003F08063B3F1806F00D110E0936803F066
:101270000063B3F1006F01D1012008E0936803F02F
:101280008053B3F1805F01D1022000E004200428E4
:1012900074D002F5C07303EB00131B6803F0010464
:1012A00002F5C07303EB00131C600B7A7BB94B7A19
:1012B0000C8843EA445302F5C07404EB001424681C
:1012C000234302F5C07404EB0014236010E00B7A92
:1012D0004C6843EAC4034C7A234302F5C07404EB20
:1012E00000142468234302F5C07404EB0014236047
:1012F0008B7A03F00F038B7202F5C07303EB0013BC
:101300005B6823F00F0402F5C07303EB00135C600D
:1013100002F5C07303EB00135B688C7A234302F57C
:10132000C07404EB001463608B7B1C064B7B44EAA7
:1013300003440B7B44EA0323CC7A234302F5C074B5
:1013400004EB0014A3608B7C1C064B7C44EA034432
:101350000B7C44EA0323CC7B234302F5C07404EBEB
:101360000014E36002F5C07303EB00131B6843F045
:10137000010402F5C07303EB00131C6010BD0000F4
:1013800010B50246002321B1012907D002290FD14F
:1013900009E090681D4C00EA04030BE090681C4CC7
:1013A00000EA040306E090681A4C00EA040301E036
:1013B000002300BF00BF184C181BA34216D007DC47
:1013C00083B16FF08060184470B1022818D111E029
:1013D000B0F5007F10D0114C204448B1B0F5003F6B
:1013E0000ED10BE002230DE000230BE0002309E007
:1013F000002307E0012305E0012303E0012301E0CE
:10140000002300BF00BFD8B210BD000003000004DD
:101410000003000800000310000100080001FFF7AE
:101420002DE9FF5F82464FF0000BE64801789AF8FD
:101430000F0081427ED1E34841789AF80E00814244
:10144000F8D1E04881789AF80D008142F2D1DD4868
:10145000C1789AF80C008142ECD10520DA49087075
:101460009AF81100AA281AD19AF81200AA2816D1BF
:101470009AF81000012804D0022806D003280CD1C5
:1014800007E00320D149087008E00320CF49087025
:1014900004E00420CD49087000BF00BF00BF9AF8E7
:1014A0001100BB287ED19AF81200BB28FAD19AF815
:1014B0001000012877D14FF47A7000F0A9FBC148E1
:1014C000C078C3494870BF4880788870BD4840786C
:1014D000C870BC4800780871BE48808A8009401CEA
:1014E0004871BC48007D00F01F01BA488069800F38
:1014F00061F39F00401CB64988710120C871082122
:10150000B34800F09FF94FF4FA7000F081FBAD484A
:10151000C078AF494870AB4880788870A948407857
:10152000C870A84800780871AA488069800C401CDF
:10153000487100E043E10020887108468079A549A0
:101540008969C1F38361491C0843A1498871084630
:101550008079A0498969C1F38331491C08439C49BA
:1015600088710220C8710821994800F06BF94FF486
:10157000FA7000F04DFB9348C07895494870914847
:10158000807888708F484078C8708E4800780871DD
:101590009048008B8009401C4871002088710846E3
:1015A000807901E021E01EE08A49097E8908012254
:1015B00002EB4111084386498871084680798549C4
:1015C0004969C1F3006102EBC10108438049887198
:1015D0000320C87108217E4800F034F94FF4FA70F6
:1015E00000F016FB00E000BF00BF9AF81200C02810
:1015F0000BD10020784908609AF8100001069AF88B
:10160000110001EB0040744908609AF81200C128EB
:101610004AD19AF811109AF8100001EB00206E4997
:10162000086008460068FEF7D8FF064600226B4BAC
:10163000FEF75FFF0446FFF739F8834668490868FC
:10164000FEF7CBFF80460022644BFEF752FFCDE948
:1016500000015846FFF717F80646DDE90023FEF7BC
:101660002FFE00225D4BCDE90201FEF7D0FE0446BD
:10167000FEF7EAFF5A4908605248C078544948705A
:101680005048807888704F484078C8704D4800783E
:101690000871FF2048718871CC20C87108214C481E
:1016A00000F0D0F800F09CFB4648C07848494870EC
:1016B00044488078887043484078C8704148007832
:1016C0000871FF20487188719AF81200D02804D060
:1016D000D12815D0D22870D125E000F073FC044643
:1016E000FEF776FF3F4908604FF47A7000F090FAF9
:1016F000D0203749C8710821354800F0A3F85DE0D3
:1017000000F060FC0446FEF763FF374908604FF4C1
:101710007A7000F07DFAD1202D49C87108212C483B
:1017200000F090F84AE000F04DFC0446FEF750FF50
:101730002E4908604FF47A7000F06AFAD2202449EA
:10174000C8710821224800F07DF827480168254823
:101750000068FEF77DFD0390FEF795FF8046424648
:101760000B4623482349FEF7C4FE06460022224BBF
:10177000FEF74DFE0446FEF767FF1949C860194899
:1017800001681A480068FEF763FD0390FEF77BFFCF
:10179000064632460B4619481949FEF7AAFE04468A
:1017A0000022154BFEF733FE8046FEF74DFF0C4935
:1017B000086100F015FB01E0FFE700BF00BFBDE8D6
:1017C000FF9F00004E06002041060020400600203A
:1017D000140600202C0700202406002000002440CE
:1017E000140700202C0600202806002030060020C8
:1017F000E27A14AE47E1064080842E418EC2F5287D
:101800005C8F02401CB50CA103C9CDE900010C4856
:10181000C0788DF801000A4880788DF802000848E9
:1018200040788DF80300064800788DF80400082100
:10183000684600F007F81CBD0FAAAAAAAAAAAAAA7D
:101840004E060020F0B585B007460D460024122054
:101850000090019000208DF808008DF809008DF8A7
:101860000A5000BF05E0395D0DF10B000155601C09
:1018700084B2AC42F7DB69460C48FFF7EDFC064644
:10188000002401E0601C84B231460848FFF778FD6F
:1018900018B940F6FF708442F4DB40F6FF708442D2
:1018A00002DB012005B0F0BD0020FBE70064004032
:1018B00010B50121084800F05AFB30B107484069D3
:1018C00020F040700549486105E00448406940F057
:1018D00080700249486110BD000801402C070020BB
:1018E00010B504462CB94FF40071054800F03FFBD9
:1018F00010BD4FF48071024800F039FBF8E700009A
:101900000010014070B505460C4665B92CB14FF486
:1019100000710B4800F036FB11E04FF400710848ED
:1019200000F02EFB0BE02CB14FF48071044800F066
:1019300029FB04E04FF48071014800F021FB70BDE9
:10194000001001402DE9F14F009800F01BF90098BC
:1019500000F0BEF8CC21009800F029F9442100984D
:1019600000F025F9009800F00DF9009800F0B0F8AB
:10197000CC21009800F01BF9BE21009800F017F967
:10198000009800F0EAF88346009800F0E6F88246F6
:101990004FEA0A2004B244EA0B04002C0DDAE043BB
:1019A000401CFEF71AFE074600220B4BFEF72FFDE8
:1019B0000546FEF77BFE81460BE02046FEF70DFE56
:1019C00005460022044BFEF722FD0746FEF76EFE99
:1019D00081464846BDE8F88F0000B03F38B5044660
:1019E000C4B90121102001F065FB4FF40070ADF87F
:1019F000000010208DF8030003208DF802006946D6
:101A0000114800F029FA002000F0BCF8002000F096
:101A10005FF838BD0121102001F04CFB4FF48070BD
:101A2000ADF8000010208DF8030003208DF80200AF
:101A30006946054800F010FA012000F0A3F80120E3
:101A400000F046F8E5E700000010014038B5044614
:101A50005CB94FF40070ADF8000048208DF8030029
:101A60006946084800F0F8F90BE04FF48070ADF8D3
:101A7000000048208DF803006946024800F0ECF9A8
:101A800000BF38BD0010014038B5044674B94FF4AA
:101A90000070ADF8000010208DF8030003208DF8D1
:101AA00002006946094800F0D7F90DE04FF4807054
:101AB000ADF8000010208DF8030003208DF802001F
:101AC0006946024800F0C8F938BD00000010014026
:101AD00070B5054600242846FFF7B8FF04E0601CF7
:101AE000C4B2012000F0A4F82846FFF7F9FE08B1BF
:101AF000642CF4DB642C01DB012070BD002404E0C5
:101B0000601CC4B2012000F093F82846FFF7E8FEFD
:101B100008B9F02CF4DBF02C01DB0120EDE700200C
:101B2000EBE770B505462846FFF7AEFF00212846D3
:101B3000FFF7E8FE0A2000F07BF82846FFF786FF53
:101B40002846FFF7CDFE012801D1012400E0002442
:101B50002D2000F06DF8204670BD2DE9F0410746BC
:101B60000026002409E03846FFF7DBFF054605FAAA
:101B700004F03043C6B2601CC4B2082CF3DB30461C
:101B8000BDE8F08110B504462046FFF77DFF002137
:101B90002046FFF7B7FE40F2EE2000F049F80121A1
:101BA0002046FFF7AFFE0F2000F042F810BD2DE9F0
:101BB000F04107460C463846FFF766FF002522E055
:101BC00004F00106641076B100213846FFF79AFE52
:101BD000082000F02DF801213846FFF793FE3A2047
:101BE00000F026F80DE000213846FFF78BFE462076
:101BF00000F01EF801213846FFF784FE022000F0B5
:101C000017F8681CC5B2082DDADBBDE8F081704713
:101C1000002107E042F6E06100BF0A00A1F10103E4
:101C200099B2FAD10200A0F1010398B2F2D1704743
:101C3000002106E00A2100BF0A00A1F1010399B2C8
:101C4000FAD10200A0F1010398B2F3D1704700006D
:101C500030B5044604254FF4302000F085F80546E1
:101C6000042D17D10C48006940F002000A490861B0
:101C700008464461006940F0400008614FF430209C
:101C800000F072F805460448006941F6FD7108400D
:101C900001490861284630BD0020024004200B495C
:101CA000C96801F0010109B101200EE00749C968C6
:101CB00001F0040109B1022007E00449C96801F0FC
:101CC000100109B1032000E0042070470020024009
:101CD0000348006940F08000014908617047000036
:101CE0000020024078B506460C46042500200090EE
:101CF000E80200F039F80546042D24D113480069A4
:101D000040F00100114908613480E80200F02CF82D
:101D10000546042D10D1B01C0090200C00990880BD
:101D2000E80200F021F805460848006941F6FE7116
:101D300008400649086106E00448006941F6FE7162
:101D4000084002490861284678BD00000020024092
:101D500002480349486003484860704723016745CB
:101D600000200240AB89EFCD00B502460423FFF707
:101D700095FF034603E0FFF791FF0346521E012B38
:101D800001D1002AF7D102B90523184600BD000091
:101D900010B500F013F808480069B0F1AA3F0AD066
:101DA00000200549086048608860C8604FF0AA308C
:101DB000086100F015F810BD140700200020064946
:101DC00000BF05E00A68054B43F82020091D401CB0
:101DD0000528F7DB7047000000F00008140700201A
:101DE00070B500240A4DFFF7B3FF2846FFF730FF18
:101DF00000BF07E0074850F824102846FFF772FF9D
:101E00002D1D641CFF2CF5DDFFF762FF70BD000087
:101E100000F000081407002030B500228B071C0FCB
:101E20000F2303FA04F20B4B8C1053F82430934326
:101E3000084C8D1044F8253023468C1053F824307C
:101E40008C07240F00FA04F42343024C8D1044F84D
:101E5000253030BD080001402DE9F0410246002543
:101E60000026002000230024002791F803C00CF076
:101E70000F0591F803C00CF0100CBCF1000F03D05B
:101E800091F802C04CEA050591F800C0BCF1000FC2
:101E900031D0146800202BE04FF0010C0CFA00F355
:101EA000B1F800C00CEA03069E4220D183004FF037
:101EB0000F0C0CFA03F7BC4305FA03FC4CEA0404CC
:101EC00091F803C0BCF1280F06D14FF0010C0CFAB9
:101ED00000FCC2F814C00AE091F803C0BCF1480F3E
:101EE00005D14FF0010C0CFA00FCC2F810C0401CE8
:101EF0000828D1D31460B1F800C0BCF1FF0F34DD65
:101F0000546800202EE000F1080C4FF0010808FA98
:101F10000CF3B1F800C00CEA03069E4221D1830005
:101F20004FF00F0C0CFA03F7BC4305FA03FC4CEA24
:101F3000040491F803C0BCF1280F05D100F1080C8E
:101F400008FA0CF8C2F8148091F803C0BCF1480FED
:101F500007D100F1080C4FF0010808FA0CF8C2F89C
:101F60001080401C0828CED35460BDE8F0810246A2
:101F7000002093680B400BB1012000E00020704767
:101F800041617047016170470EB50C4800680290CE
:101F90000A48001D00680190084808300068009059
:101FA0000749009808700098000A48700098000CD3
:101FB00088700098000EC8700EBD0000E8F7FF1F83
:101FC0004E06002010B500248020FEF76BFE202076
:101FD000FEF768FE0A20FEF765FE1020FEF762FE9F
:101FE0001020FEF75FFE8020FEF75CFE4020FEF72B
:101FF00059FE0120FEF718FE05E04020FEF752FED4
:102000000120FEF711FE0A48007800F080008028C9
:10201000F3D05820FEF746FE0220FEF705FE0448E6
:1020200040780349097800EB012084B2204610BDB6
:102030000407002070B50026002400BF11E0012134
:10204000082000F039F805464FF6FF7000EA440416
:1020500005F0010010B1601C84B200E0A4B2701C55
:10206000C6B2102EEBDB41F2707094FBF0F100FB76
:10207000114084B2B4F5FA6F02DA04F5FA6084B262
:10208000204670BD10B504460723012221460948A9
:10209000FEF704FD01210748FEF761FD00BF0221A4
:1020A0000448FEF7BFFC0028F9D00248FEF7B6FC52
:1020B00010BD0000002401402DE9F04107460C4608
:1020C0000025002608E03846FFF7DCFF0544052020
:1020D000FFF79EFD701CC6B2A642F4DBB5FBF4F020
:1020E00080B2BDE8F08100BFFEE7000008B5012125
:1020F000102000F0DFFF0220ADF8000048208DF82E
:10210000030069460148FFF7A7FE08BD0010014023
:1021100008B50121082000F0CDFF4FF40040ADF8D4
:10212000000010208DF8030003208DF8020069469E
:102130000D48FFF791FE4FF48040ADF800001020ED
:102140008DF8030003208DF8020069460648FFF76A
:1021500083FE4FF400410448FFF714FF4FF4804121
:102160000148FFF70FFF08BD000C01400246501860
:10217000401E904204D95018401E4B1E9843704791
:10218000481E22EA0000FAE710B50246144620462F
:10219000002305E001464960096000BF5B1C083070
:1021A0001B2BF7D310BD2DE9F04105460E462F46F7
:1021B000304600F0DDF804461E2C02D90020BDE8B0
:1021C000F081042C00D80424201F07EBC000F6E7A0
:1021D0002DE9F04704460D4691461E46089F16B964
:1021E0001F48BDE8F087F02C02D31D48401EF8E7D9
:1021F0001C4904F1100051F820001B49884202D00C
:102200001748C01CEDE70F2D02DD1548001DE8E75B
:10221000FEF780FB80461549124A04F1100042F88F
:102220002010134941F8206000BF04F01F01012075
:1022300088406109890001F1E021C1F8000100BF77
:1022400000BF802040EA0510C1B204F1E02080F810
:10225000001400BF4046FEF765FB0020C1E7000008
:102260000109000200000020A140000829410008E7
:10227000502C002042684A6008604268116041604A
:10228000704742684A600860426811604160704768
:1022900042684A6008604268116041607047426865
:1022A0004A600860426811604160704742684A6055
:1022B00008604268116041607047D0E90012116007
:1022C000D0E9002151600021416001607047D0E9F0
:1022D00000121160D0E900215160002141600160CD
:1022E0007047D0E900121160D0E90021516000214F
:1022F00041600160704701464868884201D1012071
:1023000070470020FCE701464868884201D101205F
:1023100070470020FCE701464868884201D101204F
:1023200070470020FCE7406000607047406000603C
:10233000704740600060704740600060704770B553
:1023400004460D4629462068FFF794FF70BD70B51E
:1023500004460D4629462068FFF793FF70BD70B50F
:1023600004460D4629462068FFF799FF70BD00001E
:10237000014601F0004010B16FF0704070474C48CA
:102380000840002847D001F0FE40F8B101F0E040DD
:1023900058B101F0804008B11E20EFE701F0005075
:1023A00008B11D20EAE71C20E8E701F0406030B1E9
:1023B00001F0006008B11B20E0E71A20DEE701F021
:1023C000007008B11920D9E71820D7E701F4700090
:1023D00080B101F4400030B101F4000008B11720D1
:1023E000CCE71620CAE701F4001008B11520C5E7B4
:1023F0001420C3E701F4402030B101F4002008B1FB
:102400001320BBE71220B9E701F4003008B1112016
:10241000B4E71020B2E701F47F4020B301F470402C
:1024200080B101F4404030B101F4004008B10F2008
:10243000A4E70E20A2E701F4005008B10D209DE7AB
:102440000C209BE701F4406030B101F4006008B15A
:102450000B2093E70A2091E701F4007008B10920EE
:102460008CE708208AE701F0F00080B101F0C0009D
:1024700030B101F0800008B107207FE706207DE73A
:1024800001F0200008B1052078E7042076E701F08C
:102490000C0030B101F0080008B103206EE7022003
:1024A0006CE701F0020008B1012067E7002065E752
:1024B0000000FF7F2DE9F04105460C460026FEF79F
:1024C00029FA074600BF05B104B909E004F000404D
:1024D00000B105E02146284601F081FE064600BF16
:1024E00000BF3846FEF71EFA3046BDE8F0812DE900
:1024F000F05F80460F4614464FF00009CA4600259B
:102500000026FEF707FA834600BFB8F1000F00D09F
:1025100007B91BE0381900F1040909F0004000B1C7
:1025200014E04946404601F05AFE05462819401E6F
:10253000611E20EA0106B54200D107E0A6EB050ABC
:102540004AF0804A46F804AC354600BF00BF584602
:10255000FEF7E8F92846BDE8F09F2DE9F04705466B
:102560000C4601270026FEF7D5F9814600BFB0468C
:1025700005B104B914E054F8046C06F0804010B1C1
:1025800026F08046A41BA4F110084146284601F01D
:1025900054FE07461FB92946404601F0C2FE00BF5F
:1025A00000BF4846FEF7BEF93846BDE8F0872DE982
:1025B000F04704468846002500270026A94614B1A6
:1025C000B8F1FF0F03D84FF0FF30BDE8F087FEF7FA
:1025D000A1F98246264634463660C6F8048004F1E6
:1025E0000800FFF7D1FD04F1E005281BA8EB00006F
:1025F0001038E8600020A86004F10800E968FFF7DF
:10260000D2FD8146B9F1000F05D15046FEF78AF997
:102610004FF0FF30D9E700BF2946D9F80000FFF797
:1026200045FE00BF04EB0800A0F110070020386051
:102630007860B860F860BD601020F860F86840F01D
:102640000040F860384601F0F7FE5046FEF76AF9A0
:102650000020BAE72DE9F04105462F460026002468
:1026600015B90020BDE8F081FEF754F9804607F166
:102670000806306820B13468206830600448206063
:102680004046FEF74FF90CB90020EBE7201DE9E7C3
:10269000A55A5AA52DE9F04705460E462C460127B6
:1026A00005B116B90120BDE8F087FEF733F9804681
:1026B00000BF311F20460A46D0F800C0BCF1000F11
:1026C00002D14FF0010C25E000F10C0CA2EB0C0341
:1026D000D0F800C0B3FBFCF90CFB193CBCF1000FB7
:1026E00002D04FF0010C15E0D0F800C0B3FBFCFCA9
:1026F000D0F80490CC4502D34FF0010C0AE0DFF88B
:102700003490D2F800C0CC4502D04FF0010C01E06B
:102710004FF0000CBCF1000F00D004E0A06808608E
:10272000A160002700BF00BF4046FEF7FBF8384617
:10273000B9E70000A55A5AA52DE9F04706460F460D
:1027400090463446002516B90120BDE8F087B8F15F
:10275000000F01D10120F8E70C2F01D20120F4E78E
:10276000FEF7D8F8824608F1070020F00300206049
:10277000A7F10C002168B0FBF1F06060606820B93F
:102780005046FEF7CFF80120DFE704F10C05A56005
:102790004FF0000905E02068284428602D6809F101
:1027A00001096068401E4845F5D800202860504661
:1027B000FEF7B8F80020C8E700BFD0E900121160AA
:1027C000D0E90021516000214160016000BF7047E5
:1027D00010B50A460649096801EBC20319684C683E
:1027E000446001604C682060486000BF00BF10BDBD
:1027F00068060020014600200022074B1B6803EBFF
:10280000C1035A6801E0401C5268034B1B6803EB8C
:10281000C1039342F7D170476806002000210020D1
:10282000014612E00B4A126802EBC1004268824284
:1028300001D1012200E000222AB90648006800EB1D
:10284000C10040687047481C01462029EAD3002097
:10285000F8E70000680600202DE9F84F81460C4695
:1028600015469A460A9E15B91948BDE8F88F4FF6E5
:10287000FB70864202DD16480938F6E704B116B946
:102880001348401CF1E7FEF745F88046301D82B240
:102890006B462946204601F071FE074627B14046A7
:1028A000FEF740F83846E0E700981430FFF741FDA6
:1028B00000981C30FFF73DFD00982430FFF739FDEC
:1028C0000098C4814046FEF72DF80020CDE70000B7
:1028D0000C0600022DE9FC5F80460F4691461E461D
:1028E00000200090A8F1010BBBF10A0F02D3404871
:1028F000BDE8FC9F17B93E48401CF9E7B9F1000F4D
:1029000002D13B48801CF3E72EB13A48006810B171
:1029100037480A30ECE7FDF7FDFF01900BEB4B0069
:1029200000EBCB003449096801EB8004A08820B992
:1029300000BF2F480E30009054E0208A50BB26B9CB
:1029400000BF2B480F3000904CE02C48008820B18D
:1029500000BF27480838009044E0294805683246FF
:1029600004F11C01284601F05DFE0198FDF7DAFF35
:1029700000F0E6F8FDF7CEFF0190287900F0400066
:1029800058B1A88820F04000A88000BF1848C01F98
:10299000009027E0208A401E2082618922892068D9
:1029A00001FB020ADAF8000038606089401C80B23E
:1029B0006081E188884201D10020608104F1140027
:1029C000FFF7A1FC50B904F1140001F06DFE01986D
:1029D000FDF7A8FF00F0B4F8002089E7E089401C6B
:1029E000E08100BF0198FDF79DFF009880E700009F
:1029F0000E06000200070020E406002088060020E2
:102A0000800600202DE9FC5F81460F4690461E4659
:102A100000200090A9F1010BBBF10A0F02D343483B
:102A2000BDE8FC9F17B94148401CF9E7B8F1000F19
:102A300002D13E48801CF3E72EB13D48006810B13A
:102A40003A480838ECE7FDF765FF01900BEB4B00C7
:102A500000EBCB003749096801EB8004A08820B95E
:102A600000BF3248C01C00905BE02089404504D282
:102A700000BF2E48001D009053E0E08950BB26B9EE
:102A800000BF2A48401D00904BE02B48008820B131
:102A900000BF26480B38009043E0284805683246BE
:102AA00004F11401284601F0BDFD0198FDF73AFF3D
:102AB00000F046F8FDF72EFF0190287900F0400065
:102AC00058B1A88820F04000A88000BF17480A38F5
:102AD000009026E0E089401EE081A18922892068DB
:102AE00001FB020ACAF80070A089401C80B2A081D4
:102AF000E188884201D10020A08104F11C00FFF789
:102B000002FC50B904F11C0001F0CEFD0198FDF764
:102B100009FF00F015F8002082E7208A401C20827F
:102B200000BF0198FDF7FEFE009879E7110600024C
:102B300000070020E4060020880600208006002010
:102B400010B5FDF7E7FE0446FFF768FE3C380A497A
:102B50004860084600684968884208D007480088ED
:102B600028B92046FDF7DEFEFDF7DFFE10BD20464A
:102B7000FDF7D8FE00BFF9E7800600208806002098
:102B80002DE9F04106462A48006800EB06150A2E9A
:102B900002D32848BDE8F081FDF7BCFE074628783F
:102BA00020B93846FDF7BEFE2248F3E768884FF6A5
:102BB000FE71884205D13846FDF7B4FE1D48C01DA0
:102BC000E8E705F10800FFF7A6FB48BBE868A0F1BD
:102BD0003C04E868FFF77BFBA08820F00800A08099
:102BE000207900F0400030B1204602F097F9A0882B
:102BF00020F04000A0800020A061207900F00200B9
:102C000040B9A08840F00400A080E18804F13C00B5
:102C1000FFF7DEFD3846FDF785FEFFF791FF05E083
:102C20006888401C68803846FDF77CFE0020B1E7CC
:102C3000F00600200107000210B502F043F9044637
:102C40000CB1204610BDFDF771FA2046FAE70000EE
:102C50002DE9F04105460F4600263946284600F08A
:102C600045F8064616B13046BDE8F081286800EB0D
:102C7000800101EBC0001949096801EBC004FDF7B0
:102C800049FE8046A08820F00200A080A08840F085
:102C90000400A080E18804F13C00FFF799FDFFF7F4
:102CA000BDFD3C380E4948600E48006888B10E48AA
:102CB000008870B9084600684968884209D00A4807
:102CC000008830B94046FDF72DFE01F029FD0020B7
:102CD000CAE74046FDF726FE0020C5E77C06002037
:102CE00080060020B8060020880600202DE9F05F4D
:102CF00007460D464FF000094FF0FF3A17B9574805
:102D0000BDE8F09F15B95548801FF9E7E86910B98B
:102D10005248801EF4E7286810B95048C01EEFE7FB
:102D2000A8881F2802DD4D48001FE9E7A869B0F513
:102D3000005F02D949481930E2E7A86910B94FF499
:102D40003470A8610821A869FFF710FAA861102162
:102D50004FF49870FFF70AFAA969884202D93F48F0
:102D6000401ECDE7FDF7D6FD834611E03C484068A4
:102D7000A0F13C043A494868FFF79FFA04F13C018E
:102D80003848FFF777FA3848E1680068FFF7E5FB55
:102D90003348FFF7B0FA0028E8D03248FFF7ABFA23
:102DA00028B1DFF8B8A00AF10A0A00BF51E02D48A7
:102DB0004068A0F13C042B494868FFF77EFA58466A
:102DC000FDF7B0FDD4F8109008222748A9690068E3
:102DD000FFF78DFB06465EB9FDF79CFD834604F1C7
:102DE0003C012048FFF746FADFF880A000BF30E042
:102DF00032464846A96902F0E3F88046C4F80080EC
:102E0000A868A062E968E162296921636969616370
:102E1000E660A869A0600020A061E0616062022015
:102E2000A080A088296A09B1802100E00021084320
:102E3000A080A888E080286860614FF0FF3020659E
:102E40000020E065E869A06300206066C7F8009094
:102E500056E75846FDF766FD504651E70702000267
:102E6000A8060020A0060020F406002000020003AF
:102E700070B504461948006808B1194870BD194872
:102E8000008808B11848F9E714B900F05FF8F5E7D1
:102E9000FDF740FD05461549096801F13C00FFF7C3
:102EA0008BFC12480068808820F004000F490968F4
:102EB00088800E490868214601F096FD0B4800689D
:102EC000808840F020000949096888802846FDF77D
:102ED00029FDFFF735FE0020D0E7000000070020A5
:102EE0000D020003880600200E020002800600206A
:102EF00010B5FDF70FFD044604480088401C034947
:102F000008802046FDF70EFD10BD00008806002059
:102F100010B5FDF7FFFC04460B48008800280DDDC6
:102F200009480088401E084908800846008828B9DA
:102F30002046FDF7F7FCFFF703FE10BD2046FDF726
:102F4000F1FC00BFF9E700008806002070B50024FE
:102F50001C48006800691C490968884201D31B4865
:102F600070BDFDF7D7FC054616490968C888FFF70C
:102F700041FC0446012C17D91249096801F13C00B3
:102F8000FFF79BF90F480068808840F004000D4966
:102F9000096888800B4A1268D1880A4A126802F1CF
:102FA0003C00FFF715FC05E02846FDF7BBFC074891
:102FB0000930D5E72846FDF7B5FCFFF7C1FD002035
:102FC000CEE70000800600208C06002007020002E9
:102FD00000BFFEE77047000070B5002100230F22FC
:102FE000C47804B3154C246804F4E064C4F5E064C8
:102FF000210AC1F10403CA40447804FA03F1847839
:103000001440214309010E4C0678A155047804F0C0
:103010001F050124AC4005786D11AD0005F1E025D8
:10302000C5F8004109E0047804F01F050124AC4014
:10303000044D0678761145F8264070BD0CED00E091
:1030400000E400E080E100E002490143024A11602F
:10305000704700000000FA050CED00E0014600207A
:10306000034A506820F44040084350607047000015
:103070000010024029B1064AD2690243044BDA61CA
:1030800004E0034AD2698243014BDA6170470000D1
:103090000010024029B1064A12690243044B1A612A
:1030A00004E0034A12698243014B1A617047000031
:1030B0000010024029B1064A92690243044B9A610A
:1030C00004E0034A92698243014B9A617047000011
:1030D0000010024029B1064AD2680243044BDA606C
:1030E00004E0034AD2688243014BDA607047000073
:1030F0000010024030B500210022002400232D4D95
:103100006D6805F00C0121B1042905D0082923D1EF
:1031100005E0294D056022E0274D05601FE0254DA3
:103120006D6805F47012234D6D6805F48034022536
:1031300005EB92421CB9214D554305600BE01D4D36
:103140006D6805F400351DB11C4D5543056002E066
:10315000194D5543056002E0174D056000BF00BFE3
:10316000144D6D6805F0F0010909154D6B5C05689B
:10317000DD4045600F4D6D6805F4E061090A104DB2
:103180006B5C4568DD4085600A4D6D6805F46051F3
:10319000C90A0B4D6B5C4568DD40C560054D6D6827
:1031A00005F44041890B074D6B5CC568B5FBF3F531
:1031B000056130BD0010024000127A0000093D0098
:1031C000520600206206002010B50024FEF78EFF94
:1031D00002210648FEF7CBFE04461CB1012004493B
:1031E000087002E000200249087010BD0010014084
:1031F00004060020704710B500F002F810BD000072
:103200000CB50020019000903348006840F48030F5
:103210003149086000BF3048006800F40030009079
:103220000198401C0190009818B90198B0F5A06F62
:10323000F1D12948006800F4003010B1012000905D
:1032400001E0002000900098012843D12348006845
:1032500040F01000214908600846006820F0030093
:1032600008600846006840F0020008601A4840689C
:10327000194948600846406848600846406840F47C
:10328000806048600846406820F47C10486008462A
:10329000406840F4E81048600846006840F08070DC
:1032A000086000BF0C48006800F000700028F9D0EA
:1032B0000948406820F00300074948600846406814
:1032C00040F00200486000BF0348406800F00C0076
:1032D0000828F9D10CBD0000001002400020024077
:1032E00010B50848D0E900305A1C40F100000549EB
:1032F000C1E9002001F036FE01F0F8FC01F062FBAC
:1033000010BD0000C006002010B51348006840F052
:1033100001001149086008464068104908400E49FC
:103320004860084600680E4908400B490860084696
:10333000006820F4802008600846406820F4FE0001
:1033400048604FF41F008860FFF755FF4FF00060A2
:103350000449086010BD0000001002400000FFF8A2
:10336000FFFFF6FE08ED00E021B1028842F0010205
:10337000028004E002884FF6FE731A400280704714
:1033800010B504466848844208D10121C014FFF7F3
:10339000A1FE0021E014FFF79DFEC4E0B4F1804FD0
:1033A00008D101210846FFF775FE00210120FFF733
:1033B00071FEB8E05D48844208D101210220FFF788
:1033C00069FE00210220FFF765FEACE05848844208
:1033D00008D101210420FFF75DFE00210420FFF742
:1033E00059FEA0E05348844208D101210820FFF78C
:1033F00051FE00210820FFF74DFE94E04E48844224
:1034000008D101211020FFF745FE00211020FFF711
:1034100041FE88E04948844208D101212020FFF77D
:1034200039FE00212020FFF735FE7CE0444884422D
:1034300008D101214014FFF74DFE00216014FFF771
:1034400049FE70E03F48844209D10121C804FFF7DA
:1034500041FE00214FF40020FFF73CFE63E03A48B4
:10346000844209D101210805FFF734FE00214FF401
:103470008010FFF72FFE56E03448844209D1012125
:103480004805FFF727FE00214FF40010FFF722FE4A
:1034900049E02F48844208D101214020FFF7FAFD7E
:1034A00000214020FFF7F6FD3DE02A48844208D184
:1034B00001218020FFF7EEFD00218020FFF7EAFDCB
:1034C00031E02548844208D101218015FFF7E2FD53
:1034D0000021A015FFF7DEFD25E02048844209D138
:1034E00001210804FFF7F6FD00214FF48030FFF7BB
:1034F000F1FD18E01A48844209D101214804FFF780
:10350000E9FD00214FF40030FFF7E4FD0BE0154822
:10351000844208D101218804FFF7DCFD00214FF42B
:103520008020FFF7D7FD10BD002C014000040040B3
:1035300000080040000C0040001000400014004053
:1035400000340140004C0140005001400054014053
:1035500000180040001C00400020004000400140D6
:103560000044014000480140F0B504460D461646AF
:103570001F463B4632462946204600F005F8208982
:1035800040F480402081F0BD30B50C460021018917
:10359000C9B24FF6FF7505EA0325154325432943B4
:1035A000018130BD81847047002202881D4B984202
:1035B0000ED01D4B98420BD0B0F1804F08D01B4B62
:1035C000984205D01A4B984202D01A4B984204D127
:1035D0004FF68F731A404B881A43174B984207D007
:1035E000164B984204D04FF6FF431A40CB881A433B
:1035F00002808B8883850B8803850A4B98420BD009
:10360000094B984208D00E4B984205D00D4B98427A
:1036100002D00D4B984201D10B7A0386012383829D
:1036200070470000002C01400034014000040040BD
:1036300000080040000C0040001000400014004052
:1036400000400140004401400048014000B585B001
:1036500001210420FFF72EFD01214804FFF70AFD98
:103660000420ADF8100018208DF8130003208DF809
:10367000120004A91648FEF7EFFB0820ADF8100071
:1036800004208DF8130004A91148FEF7E5FB4FF460
:10369000E13000900020ADF80400ADF80600ADF870
:1036A0000800ADF80C000C20ADF80A006946094886
:1036B00000F0DEF8012240F22551064800F0B3F890
:1036C0000121044800F024F800F05CF905B000BDC9
:1036D000000801400044004070B50546002400BFCA
:1036E00003E0285D00F004F8641C0E2CF9DB70BDCB
:1036F00010B504462146054800F02BF900BF802193
:10370000024800F059F80028F9D010BD00440040EC
:1037100021B1828942F40052828104E082894DF60F
:10372000FF731A408281704700B585B001210420E3
:10373000FFF7C0FC01218803FFF7BCFC4FF40070C9
:10374000ADF8100018208DF8130003208DF812003A
:1037500004A91748FEF780FB4FF48060ADF8100015
:1037600004208DF8130004A91148FEF775FB4FF4EF
:10377000E13000900020ADF80400ADF80600ADF88F
:103780000800ADF80C000C20ADF80A0069460948A5
:1037900000F06EF8012240F22551064800F043F88F
:1037A00001210448FFF7B4FF00F0D8F805B000BDD0
:1037B000000801400038014002460020B1F5007FBA
:1037C00000D100BF13880B400BB1012000E00020A6
:1037D000704770B50246002400230025002040F603
:1037E0006A16B14200D100BFC1F3421501F01F03B8
:1037F000012606FA03F3012D02D19689334006E033
:10380000022D02D1168A334001E0968A33400C1211
:10381000012606FA04F41688344013B10CB10120D5
:1038200000E0002070BDF0B503460024002600250E
:10383000002040F66A17B94200D100BF1846C1F314
:10384000421401F01F06012707FA06F5012C01D1E9
:103850000C3004E0022C01D1103000E014301AB119
:1038600007682F43076002E00768AF430760F0BDB9
:103870002DE9F04786B005460E460024A24600BF5B
:10388000A1460027B08900B100BF2F462C8A4CF614
:10389000FF700440F08804432C82AC894EF6F3108C
:1038A0000440B08831890843718908430443AC81DE
:1038B000AC8A4FF6FF400440B0890443AC8201A8B3
:1038C000FFF718FC1F48874202D1DDF810A001E085
:1038D000DDF80CA0A88900F4004040B10AEBCA0052
:1038E00000EB0A1031684900B0FBF1F807E00AEB81
:1038F000CA0000EB0A1031688900B0FBF1F86420BF
:10390000B8FBF0F004012009642101FB1089A889AB
:1039100000F4004040B1322000EBC900B0FBF1F0F0
:1039200000F00700044308E0322000EB0910642196
:10393000B0FBF1F000F00F0004432C8106B0BDE8AD
:10394000F08700000038014001468888C0F3080075
:103950007047C1F3080282807047000038B5FCF759
:10396000D9FF044601F096FD0020054B02460421D4
:1039700000902520FEF72CFC2046FCF7D3FF38BD35
:10398000E954000838B5FCF7C5FF044601F097FD7F
:103990000020054B0246022100902620FEF718FC6D
:1039A0002046FCF7BFFF38BD0555000800BFFEE705
:1039B00008B501210420FFF77DFB00210846FEF732
:1039C0002BFA0120ADF8000048208DF8030069466D
:1039D0000148FEF741FA08BD000801401FB501216A
:1039E0002020FFF767FB01210220FFF743FB0420A3
:1039F000ADF80C008DF80F0003208DF80E0003A920
:103A00001148FEF729FA1148FFF7BAFC4FF6FF708C
:103A1000ADF804000020ADF80000ADF80600ADF8E8
:103A2000020069460948FFF7BFFD00231A46194600
:103A30000648FFF799FD00210448FFF7B3FD012177
:103A40000248FFF791FC1FBD001401400004004034
:103A500010B5FFF7ADFF10BD2DE9FF5F82464FF0B7
:103A6000000BE54800789AF8041088427ED1E248BD
:103A700040789AF803108842F8D1DF4880789AF8A5
:103A800002108842F2D1DC48C0789AF801108842CE
:103A9000ECD10520D94908709AF80C00AA281AD14F
:103AA0009AF80D00AA2816D19AF80B00012804D024
:103AB000022806D003280CD107E00320D049087063
:103AC00008E00320CE49087004E00420CC490870C7
:103AD00000BF00BF00BF9AF80C00BB287CD19AF849
:103AE0000D00BB2878D19AF80B00012802D00228DB
:103AF00070D16BE04FF4FA60FEF78AF8BE48C078E8
:103B0000C0494870BC4880788870BB484078C8700D
:103B1000B94800780871BC48808A8009401C487107
:103B2000B948007D00F01F01B7488069800F61F33C
:103B30009F00401CB3498871B3488069800C401CC9
:103B4000C871002008720846007AAF498969C1F33C
:103B5000836140EA0110AB4908720846007AAA491D
:103B60008969C1F38331491C084300E0A9E0A549F4
:103B70000872A548008B8009401C4872002088729A
:103B80000846807AA049097E890840EA41109D498B
:103B900088720846807A9C494969C1F30061012214
:103BA00002EBC1010843974988720120C872BB200B
:103BB000087348730846FFF78FFD0A20FFF798FD4A
:103BC00001209249087006E006E003E000208F49DA
:103BD000087000E000BF00BF9AF80C00CC2870D13C
:103BE0009AF80D00CC28FAD19AF80B00012802D0DF
:103BF000022867D167E09AF80510491E0A069AF86C
:103C00000610491E02EB01429AF80710491E02EB0A
:103C100001229AF80810491E5018FCF7DEFC0446F1
:103C200000227B4BFCF765FC0646FCF73FFD834614
:103C30009AF80900012801D18BF0004B75490868FA
:103C4000FCF7CBFC80460022714BFCF752FC04468B
:103C50000D465846FCF717FD064622462B46FCF754
:103C60002FFB00226A4BCDE90001FCF7D0FBCDE928
:103C70000201FCF7E9FC674908604FF4FA60FDF7C0
:103C8000C7FF5D48C0785F4948705B48807888709E
:103C900059484078C870584800780871FF2048712A
:103CA0008871C8710872487288720120C872CC206D
:103CB000087348730846FFF70FFD0A20FFF718FD49
:103CC00096E096E093E04C48C0784E4948704A48E8
:103CD0008078887048484078C870474800780871F4
:103CE0000220C872CC20087348739AF80A00012891
:103CF00004D0022817D0032876D129E0FEF762F914
:103D00000446FCF765FC444908604FF47A70FDF7FF
:103D10007FFF01203B4988720846FFF7DDFC0A203F
:103D2000FFF7E6FC61E0FEF74DF90446FCF750FCB6
:103D30003A4908604FF47A70FDF76AFF0220314972
:103D400088720846FFF7C8FC0A20FFF7D1FC4CE058
:103D5000FEF738F90446FCF73BFC314908604FF4A4
:103D60007A70FDF755FF0320264988720846FFF751
:103D7000B3FC0A20FFF7BCFC28480168264800680D
:103D8000FCF766FA0390FCF77EFC804642460B4641
:103D900024482549FCF7ADFB04460022234BFCF7E1
:103DA00036FB0646FCF750FC1A49C8601A48016801
:103DB0001B480068FCF74CFA0390FCF764FC804653
:103DC00042460B461A481B49FCF793FB0446002267
:103DD000164BFCF71CFB0646FCF736FC0D49086148
:103DE000FDF7FEFF01E0FFE700BF00BF00E000BFFE
:103DF00000BFBDE8FF9F00004E06002041060020E6
:103E000040060020060600202C07002005060020A2
:103E1000000024401407002038060020340600204B
:103E20003C060020E27A14AE47E1064080842E4131
:103E30008EC2F5285C8F02401FB511A30FCB8DE811
:103E40000F001348C0788DF80100114880788DF874
:103E500002000F4840788DF803000D4800788DF877
:103E60000400AA208DF80B008DF80C008DF80D00D1
:103E70006846FFF731FC0A20FFF73AFC1FBD00003F
:103E80000FFFFFFFFFFFFFFFFFFFFFFFFFFF000030
:103E90004E06002002E008C8121F08C1002AFAD10D
:103EA00070477047002001E001C1121F002AFBD1BA
:103EB0007047000010B58AB000240320ADF8080058
:103EC00009A008900B4801904FF4347007908020AF
:103ED000099001A90848FEF7BBFE044614B120462C
:103EE0000AB010BD2046FBE74765744E6574416714
:103EF00061696E00495000081C06002010B58AB0A8
:103F000000240420ADF8080009A008900A48019098
:103F10004FF4347007908020099001A90748FEF7FC
:103F200097FE044614B120460AB010BD2046FBE7B8
:103F300053656C6644617400E5500008000600207B
:103F400010B58AB000240520ADF8080009A008903B
:103F50000B4801904FF4347007908020099001A91C
:103F60000848FEF775FE044614B120460AB010BD9D
:103F70002046FBE753656E64416761696E0000008F
:103F8000415400081C06002038B50024FEF7C0F894
:103F9000FFF71AF94FF4FA60FDF73AFEFFF7C4FB9A
:103FA000FDF7F2FFFFF71AFDFFF752FD0020FDF7C6
:103FB00015FD0120FDF712FDFCF7E2FDFCF7AAFE5E
:103FC000FDF7E6FE1B48007838B9002004230822DC
:103FD00007210090FDF73AF801E0FFF737FB24E0F6
:103FE000FEF728F8044613480078012802D120463D
:103FF000FDF70EFE0F48007810B9FDF703FC01E055
:10400000FFF71AFF0B480078012803D141F28830EE
:10401000FDF7FEFD08480078032804D0052801D1EB
:1040200000BFFEE700BF00BF00BF034800780228C2
:10403000D6D038BD040600204006002010B500F0A0
:104040009BF804460CB1012010BD00F005F8FEF706
:10405000F3FD00BFFEE7000010B50024FFF794FF5A
:104060004FF480410D48FDF78BFF4FF400410B48A2
:10407000FDF788FFFFF742FF04460CB1204610BD54
:10408000FFF718FF04460CB12046F8E7FFF758FF8A
:1040900004460CB12046F2E70020F0E7000C014096
:1040A000FCF72EF800BFFEE7102004E00649074A9F
:1040B00042F82010401CFF28F8D90449044A116036
:1040C0000449121D11607047A14000080000002043
:1040D00008ED00E00007FA0500BFFEE710B58AB062
:1040E000242101A8FCF757F80A4801904FF4A0607A
:1040F000079009A008901F20ADF8080001A9094801
:10410000FEF7A6FD044614B120460AB010BD0020FB
:10411000FBE70000D940000849646C65436F726595
:10412000303030009006002070B5FCF7F3FB0546F8
:104130000F480068401C0E4908602846FCF7F2FB57
:10414000FBF7DEFF04460B4850F8240018B109497C
:1041500051F824008047FCF7DDFB05460448006861
:10416000401E034908602846FCF7DCFB70BD0000D8
:1041700000070020502C002010B500F0C3FA00F01A
:1041800099F904460CB1204610BDFFF78DFF00F0F1
:10419000E1FC04460CB12046F6E700F0C5FA0446FF
:1041A0000CB12046F0E700F097F904460CB1204628
:1041B000EAE700F01BFA04460CB12046E4E700F001
:1041C000DFFA04460CB12046DEE700F0F1FEFFF70F
:1041D00085FF04460CB12046D6E70020D4E72DE940
:1041E000F04107460E46002406F1130020F00305B7
:1041F0002946384600F06DF8044614B90020BDE8A1
:10420000F08105F11400E168814204D32A46214679
:10421000384600F021F92046FEF763F8204600F00A
:104220000BF9E06840F00040E060E16821F00040F8
:1042300000F03EFD04F11000E1E72DE9F84F0546DE
:104240000C462E4605F1E00870682844A0F1100ADB
:10425000706847194FF000092B46524641462046E8
:10426000009700F0B7F810B90120BDE8F88FE068BA
:1042700000F0004008B90120F7E7E06820F00040B6
:1042800000EB04092B46524641464846009700F091
:10429000A1F808B90120E8E7D9F80800A04201D048
:1042A0000120E2E7444512D000972B465246414692
:1042B000A06800F08FF808B90120D6E7A068C168AF
:1042C00021F000410844A04201D00120CDE70020A8
:1042D000CBE770B505460E460024314605F10800CF
:1042E000FDF761FF044618E000206168084605E01C
:1042F000C168B14200D370BD41680846A042F7D101
:1043000005F108002146024602F1D0038B4201D19B
:10431000002301E001F108031C46002CE4D1002039
:10432000E9E72DE9F04104460E460027B846E1686A
:1043300021F0004000F0A2FCE06820F00040E060C6
:10434000A06848B3A068C06800F0004020BBA56822
:10435000204600F05EF8E86820F000404719F86851
:1043600000F0004028B93846FDF7BBFF384600F0A2
:1043700050F82846FDF7B5FF06F10800E968FDF79B
:1043800012FF8046B8F1000F01D1BDE8F081294647
:104390004046FDF78BFF1BE0E06820F00040071966
:1043A000F86800F0004028B93846FDF79AFF384613
:1043B00000F02FF806F10800E168FDF7F4FE8046F2
:1043C000B8F1000F00D1E0E721464046FDF76EFF4F
:1043D00000BFDAE730B50446039DA14201D89442FC
:1043E00001D9002030BDE06800F0004038B12068FD
:1043F0006040401C08B10020F4E70120F2E720688B
:10440000984202D32068A84201D30020EAE70120A5
:10441000E8E700218268D268C3681A448368DA60DA
:10442000C268111882688A6000BF00220260426080
:10443000826000BF70470000C14301600549096800
:1044400021B1044909680969416002E04FF0FF3178
:1044500041607047800600202DE9F04780460D46F8
:10446000164600240027A146AC19A560E868801B09
:10447000E060EE60E06820F000400719BC60F8687A
:1044800000F0004028B93846FDF72BFF3846FFF70B
:10449000C0FF08F10800E168FDF785FE8146B9F12B
:1044A000000F01D1BDE8F08721464846FDF7FEFE2A
:1044B00000BFF7E710B50648064908604FF4005101
:1044C00004480068FEF773F80446204610BD00005B
:1044D000100C0020F406002070B51248FDF726FFEE
:1044E000F02111480068FDF7E5FF10490860084613
:1044F000006808B90E4870BD00240EE004EB4400CB
:104500000A49096801EBC0056C600020287005F1BC
:1045100008010448FDF71BFF641C0A2CEED30020A1
:10452000E9E70000DC060020F4060020D8060020A1
:10453000001D000270B5002400254FF48075294647
:104540000C480068FDF7B6FF0B4908600846006894
:1045500000B970BD0020044608E00749096801EB76
:10456000C4004060006000BF601C0446202CF4D3EF
:1045700000BFEEE7F4060020680600202DE9F047B2
:10458000064688461746994615480468002507E000
:10459000A08818B9681CC8F8000003E06D1C2C3412
:1045A0000A2DF5D300BF0A2D02D10E48BDE8F087D1
:1045B0002C212046FBF7EFFD06FB07F10A480068B7
:1045C000FDF778FF2060206810B90648801EEDE7EF
:1045D000E68027810120A080C9F800400020E5E79F
:1045E000E406002004060002F406002010B54FF493
:1045F000DC7109480068FDF75DFF0849086008465E
:10460000006808B9064810BD4FF4DC710348006823
:10461000FBF7C1FD0020F6E7F4060020E4060020C9
:10462000010600022DE9F04104460D4617464FF001
:104630000008002604F13C00FEF7BEF8A08820F038
:104640000400A08004F13C08A08840F40050A08041
:104650002846FDF758FE30B100BF41462868FDF7F7
:1046600017FE00BF14E06868A0F13C0607E0E08890
:10467000F188884200DA06E0306CA0F13C0606F1D1
:104680003C00A842F3D100BF4146F06BFDF700FEAD
:10469000781C38B1A08840F04000A0803946204600
:1046A00000F0A2F9BDE8F08170B505466868A0F198
:1046B0003C046868D0E900121160D0E90021516023
:1046C00000214160016000BFA08820F40050A0805C
:1046D000207900F0400030B1204600F01FFCA08897
:1046E00020F04000A080207900F0020040B9A088AE
:1046F00040F00400A080E18804F13C00FEF768F877
:1047000070BD000010200349086003480349086099
:10471000704700008C060020102C0020F8060020B6
:1047200010B5FCF702F910BD70B51148FDF704FE95
:10473000A02110480068FDF7BDFE0F49086008463B
:10474000006808B90D4870BD00240CE00A480068F4
:1047500000EB04156C600020287005F10801044886
:10476000FDF7FDFD641C0A2CF0D30020EBE70000F0
:10477000E8060020F4060020F006002000070002F2
:104780002DE9F8430020224908604FF400784146A3
:1047900020480068FDF78EFE044614B91E48BDE8A7
:1047A000F88341462046FBF7F6FC1C4804601C4891
:1047B00004600020208125462034012705E0278160
:1047C0002C602546781C87B22034102FF7DB082296
:1047D000D0211448FDF7B0FF064616B10E48C01CA4
:1047E000DDE704200023104A102100901846FEF750
:1047F00033F8064616B10848001DD0E700F06EF801
:10480000064616B10448401DC9E70020C7E700006E
:1048100078060020F406002007030002700600203E
:1048200074060020400B00206C06002010B500220A
:10483000002183793BB9437913B14379022B02D12B
:104840004369C36001E00369C3600F4B19680AE064
:10485000CB68C468A34200D907E0C368CC681B1BBF
:10486000C3600A4609680029F2D100BF016019B18E
:10487000CB68C4681B1BCB6012B9034B186000E007
:1048800010600223037110BD780600200EB50020D1
:10489000029000BF4FF0FF33042202A90D480068C8
:1048A000FEF718F80446002CF4D102980028F1D045
:1048B00002980068009002984068019006480299AA
:1048C000FDF7E8FE00980028E4D0DDE900108847F5
:1048D000E0E700006C060020400B002010B58AB015
:1048E000242101A8FBF757FC094801904FF43470CC
:1048F000079008A008900020ADF8080080200990DB
:1049000001A90748FEF7A4F9044620460AB010BDE5
:104910008D4800085377745F5461736B000000008A
:104920009406002070B51F48046836E01D492068D1
:1049300008601D48FDF78EFE05467DB1E0692860E0
:10494000A069686000230422294618480068FEF721
:1049500059F818B129461448FDF79CFE6079A0B9B2
:10496000204600F025F820894FF6E071884203DAEE
:104970002089103020810EE02089C11700EB1171D1
:104980000911A0EB0111218105E0A079401CA07163
:104990002046FFF74BFF0348046814B1E068002885
:1049A000C4D070BD78060020400B00206C060020AB
:1049B00003490968016002490860002101717047DC
:1049C0007406002010B50748006848B10548006823
:1049D000C068401E03490968C86008B9FFF7A2FF14
:1049E000002010BD780600202DE9F04704468846D7
:1049F00008F01F074FEA581907B101E0A9F10109B2
:104A0000E06C00F0784040EA0900E06425488088C6
:104A1000074407F01F07E06C67F3DF60E06421489C
:104A2000006800EBC7067068B04205D104F144018C
:104A30003046FDF784FC33E07068A0F1440500BF08
:104A4000E86C20F07840E16C21F0784188420CD885
:104A5000E06C20F07840E96C21F07841401AE16C7C
:104A600001F078410843E0640CE0E86C20F0784005
:104A7000E16C21F07841401AE96C01F0784108437B
:104A8000E86406E0A86CA0F1440505F14400B042DA
:104A9000D6D100BF04F1440105F14400FDF74FFCFD
:104AA000BDE8F087B00600202DE9F041054605EB92
:104AB000850000EBC5002349096801EBC004E069EB
:104AC00030B1666904F128000FC8B047206204E0E5
:104AD000666904F128000FC8B047207900F0800013
:104AE00050B1FBF717FF07460020174908803946E9
:104AF000206900F069F922E0FBF70CFF074600206F
:104B0000114908803846FBF70DFFFEF7F1F9E0691F
:104B100028B1E1694868FEF733F80020E0612079A8
:104B200000F0040038B104F13C00FDF745FEA08818
:104B300020F00400A080FEF7EBF9FEF701F8BDE8D5
:104B4000F08100007C0600208806002072B600BFBD
:104B5000FEE7000070B540480068401C682100FB7B
:104B600001F631463D480068FDF7A4FC3C49086069
:104B70000846006808B93B4870BD314638480068AF
:104B8000FBF709FB3848FDF7CEFB3848FDF7CBFBB8
:104B90003748FDF7C8FB002420E0012004EB840126
:104BA00001EBC4012E4A126802EBC101888004EBBC
:104BB000840000EBC4002A49096801EBC0000461CD
:104BC00004EB840000EBC400254A126802EBC0002D
:104BD00000F13C012548FDF7B2FB641C0F2CDCD929
:104BE00024480021016041601B48006800EB8001FF
:104BF00001EBC0001A49096801EBC0001D490860BB
:104C0000084600680461112009688880202019493D
:104C10000968C880FFF78EFC4FF4807631460F4854
:104C20000068FDF747FC05460DB90E48A4E731467C
:104C30002846FBF7B0FA1048056000200E4988802E
:104C4000002404E02846FDF76EFB641C0835202C88
:104C5000F8D3002090E700008C060020F406002026
:104C60007C0600200002000398060020A006002019
:104C7000A806002080060020B00600200146094A50
:104C8000126810690F2800D97047074A126802B1EC
:104C9000FAE7064A52F82020521A044B43F8202023
:104CA00000BFF1E78006002000070020102C002044
:104CB00001460B4A126802B970470A4A126802B1EB
:104CC000FAE7074A126810690F2800D9F4E7064A84
:104CD00052F820200A44044B43F8202000BFEBE7A1
:104CE0008006002000070020102C00202DE9F04154
:104CF000002734498988481CC11700EBD16149114C
:104D0000A0EB41112F4A9180104600681146898816
:104D100000EBC1056868A84201D1BDE8F081686870
:104D2000A0F1440443E0A688E06C20F0784018B17C
:104D3000E06C401EE0643EE004F14400FDF7BDFA83
:104D400006F0080058B1A08820F00800A08004F107
:104D50003C00FDF7B2FA0020A061606217E006F4A3
:104D6000806020B1A08820F48060A0800FE006F46D
:104D7000005040B104F13C00FDF79FFAA08820F4F8
:104D80000050A08003E0A08820F02000A08006F062
:104D9000020048B9A08840F00400A080E18804F136
:104DA0003C00FDF715FD01276868A0F1440404F1FB
:104DB0004400A842B7D100BF0FB1FDF7C1FE00BF4C
:104DC000ABE70000B00600202DE9F04105460F4694
:104DD00005EB850000EBC5003649096801EBC0040E
:104DE000A68806F0040040B104F13C00FDF7E4FCA5
:104DF000A08820F00400A0800DE042F208003040BE
:104E000048B104F13C00FDF758FA06F0600010B11B
:104E1000204600F083F8A08820F00200A080A0883F
:104E200040F00100A0804FF0FF3020650020E065D9
:104E3000FDF7F4FC3C3820494860207900F0100070
:104E400040B304F13C011D48FDF779FA1C480068A5
:104E500000EB800101EBC0001649096801EBC000BE
:104E600015490860084600680561A08809688880BF
:104E70001149E0680968C8600F49A06B0968886338
:104E80000120A0803846FBF74DFDFFF749FC0020CC
:104E9000BDE8F081207900F0010030B13846FBF721
:104EA00041FDFFF73DFC0020F2E73846FBF73AFDF5
:104EB0000020EDE77C06002080060020A8060020E8
:104EC0008C0600200D480E49C8630E480E49C86381
:104ED0000E480F49086000210E4A11605160401EC3
:104EE0004FF0E021486170200B49087000204FF01E
:104EF000E0218861072008610020704729410008EF
:104F000000000020E1320008502C00204019010070
:104F1000FC060020C006002023ED00E02DE9F04152
:104F20000446E06CC70E0E48006800EBC706A06C94
:104F3000B0420ED0A06CA0F14405E86C20F078409F
:104F4000E16C21F078410844E96C01F078410843B4
:104F5000E86404F14400FDF7B0F9BDE8F081000019
:104F6000B006002010B50F4800680F490968884254
:104F70000BD00D4800680B4908600846C1880B48F3
:104F800000880844401E07498880064881880748F1
:104F9000008880B2814204D1002002490860FDF7F8
:104FA000D5FF10BDD006002080060020C0060020DE
:104FB0000020024908600A20C8807047D0060020FF
:104FC00030B50446012304E04FF0CA3542F82350BF
:104FD0005B1CB3EB910FF7D34FF0CC351560551830
:104FE000A5F144004FF0043505604FF005354560EC
:104FF0004FF0063585604FF00735C5604FF0083536
:1050000005614FF0093545614FF0103585614FF06E
:105010001135C5610025056244624FF00135856296
:105020006D00C5624FF0033505634FF012354563DF
:10503000034D8563034DC5634FF08075056430BD36
:105040004D4B0008A94A000870B50024002540E037
:1050500020480078002804DD1E480078401E1D49C5
:1050600008701C48007868BB02201B490870410387
:105070001A48FCF787FF00BF1948007810B9FCF701
:10508000C1FB01E0FEF7D8FEFCF7D4FF0446204642
:10509000FCF7BEFD10480078032803D0052802D194
:1050A00000BFFEE700E000BF00BF0B480078022809
:1050B00003D1084800780028DED04FF4804107482B
:1050C000FCF75EFF4EF66020FDF7D2FE054605B107
:1050D00070BDBDE74106002040060020000C0140E5
:1050E000040600202DE9F04F93B04FF0000B002094
:1050F0001190002410900F9081460E900D908246E2
:105100000C900B900A90099008900790069082E10D
:10511000FCF758FF824647F6EE7082451FDABE491B
:105120000869FBF75AFA0022BC4BCDE90001FBF7F6
:10513000E0F9074688465046FBF760FA3A46434690
:10514000CDE90201FBF763F9B54AB64BCDE904019D
:10515000FBF75AF90546FBF7A9FA0D901DE0AE4999
:10516000C868FBF73AFA07460022AC4BFBF7C1F9D7
:10517000CDE902015046FBF741FACDE90001DDE936
:105180000223FBF744F9A64AA64BCDE90401FBF73D
:1051900097F80546FBF78AFA0D90A3494968C1F3D1
:1051A0000360FBF72BFA0022A04BCDE90201FBF7CD
:1051B000A0F905460E469C4949680F2202EA117083
:1051C000FBF71CFA07462A463346FBF779F8CDE988
:1051D0000401FBF76BFA0C9093494968C1F3034053
:1051E000FBF70CFA0022914BCDE90201FBF781F9A4
:1051F000074688468C494968C1F30350FBF7FEF91E
:105200003A464346CDE90401FBF75AF80546FBF759
:105210004DFA0B900D98FBF7FEF9C0B20A90844945
:105220000D98FBF71BF80546FBF7F5F90A2190FBF3
:10523000F1F201FB1200C0B20990DDE90C10FBF79E
:105240005BFA04D30B990D98FBF74CFA06D276481B
:10525000406940F480307449486105E07248406913
:1052600020F44030704948616F48406920F47F5015
:105270006D494861084641690A9800F00F02099893
:1052800062F31F1041EA8010674948610120FCF772
:1052900059FB0F9060490868FBF79FF90022634BA8
:1052A000CDE90201FBF725F9CDE904010F98FBF7E1
:1052B000EAF90746DDE90423FBF702F80546FBF7A8
:1052C000F5F90F900F98FBF7A6F900F0FF09584980
:1052D0000F98FAF7C3FF0546FBF79DF90A2190FBEB
:1052E000F1F201FB1200C0B20E904F48406920F06D
:1052F0003F004D4948610846406940EA99004861CD
:105300000846806920F07C4088610846806940EA50
:1053100089708861084681690E9800F00F0041EAA3
:105320008060414988610020FCF70CFB11901198C6
:10533000FBF771F9C4B23E491198FAF78FFF0546A1
:10534000FBF769F90A2190FBF1F201FB1200C0B2F0
:1053500010903548806920F07F7033498861084695
:10536000806940EA844088610846806920F4703092
:10537000886108468169109800F00F0041EA80308A
:10538000294988612B490888FBF738F9054600222E
:10539000294BFBF7AEF80022284BCDE90401FBF7BF
:1053A000A8F80746FBF782F90890002021490880F9
:1053B0000898FBF730F907901D490898FAF74EFF57
:1053C0000546FBF728F90A2190FBF1F201FB1200D8
:1053D00006901548806943F6FC718843124988613C
:1053E00008468169079841EA80100F49886108469C
:1053F0008169069841EA80000B498861FCF758FAF8
:105400004FF47A70FDF734FD8346BBF1000F02D0F4
:1054100013B0BDE8F08F7BE61407002080842E4196
:10542000713D0AD7A3701B402C07002000002440C8
:10543000000020412404004000207C400000F03F98
:1054400070B5002400251CE0FCF7F4FD04460D486F
:10545000007801280FD10C48007801280BD10B48A7
:10546000007840B12046FCF7D3FB0948FEF734F939
:105470000A20FEF73DF92046FDF7FAFC054605B186
:1054800070BDE1E70506002004060020410600206B
:105490000606002008B54FF48060FDF7D5FD2520F5
:1054A0008DF8000004208DF8010000208DF8020026
:1054B00001208DF803006846FDF78EFD08BD08B594
:1054C0004FF48060FDF7C0FD26208DF8000001201C
:1054D0008DF8010000208DF8020001208DF80300F6
:1054E0006846FDF779FD08BD10B540F22551044826
:1054F000FEF76FF918B10248FEF726FAC4B210BDE4
:105500000038014010B540F225511848FEF761F906
:1055100058B31648FEF718FAC4B215480078B0B16F
:10552000144801780078401C124A10701248445404
:105530000A2C1AD100200E490870114608700E4836
:105540000078F02811D10C48FEF786FA0DE0F02C17
:105550000BD1F021074802780078401C054B1870E9
:105560000548815401200249087010BD00440040E4
:105570004C0600204D0600202C0B0020AC550008E6
:105580000000002000040000BC080008C855000806
:105590000006002004010000943E0008CC560008DC
:1055A000040700204C2D0000A43E0008411309010F
:1055B0000C1008A140040110A9180B14350924018E
:1055C000FF01FF01FF01B3000000000000000FFF1A
:1055D000FFFFFFFFFFFFFFFFFFFFFFFF0FAAAAAACA
:1055E000AAAAAAAA00000000000000000000000013
:1055F00000000000000000000000000000000000AB
:105600000000000000000000020500000000000093
:105610000000000000000000000000000000010287
:105620000304010203040607080902040608000037
:10563000000000000000000000000000000000006A
:10564000000000000000000000000000000000005A
:10565000000000000000000000000000000000004A
:10566000000000000000000000000000000000003A
:10567000000000000000000000000000000000002A
:10568000000000000000000000000000000000001A
:10569000000000000000000000000000000000000A
:1056A00000000000000000000000000000000000FA
:1056B00000000000000000000000000000000000EA
:0C56C000000000000000000000000000DE
:04000005080000ED02
:00000001FF
