:020000040800F2
:1000000000110120B5010008651000087304000804
:10001000E10E000877020008A118000800000000A7
:100020000000000000000000000000003D14000877
:100030009903000800000000CD10000855160008C4
:10004000CF010008CF010008CF010008CF01000850
:10005000CF010008CF010008CF010008CF01000840
:10006000CF010008CF010008CF010008CF01000830
:10007000CF010008CF010008CF010008CF01000820
:10008000CF010008CF010008CF01000800000000E8
:10009000000000000000000000000000CF01000888
:1000A000CF010008CF010008CF010008CF010008F0
:1000B000CF010008CF010008CF010008CF010008E0
:1000C000CF010008CF010008CF010008CF010008D0
:1000D000CF010008CF010008191700080000000038
:1000E000CF010008CF010008CF0100080000000088
:1000F000000000000000000000000000CF01000828
:1001000000000000CF010008CF010008CF01000867
:1001100000000000000000000000000000000000DF
:10012000CF010008CF010008CF010008CF0100086F
:10013000CF010008000000000000000000000000E7
:10014000000000000000000000000000CF010008D7
:10015000CF010008CF010008CF010008CF0100083F
:10016000CF010008CF0100080000000000000000DF
:10017000000000000000000000000000000000007F
:1001800000000000CF010008000000000000000097
:10019000CF010008CF010008DFF80CD000F02EF8E6
:1001A00000480047C124000800110120EFF305803A
:1001B000704700000648804706480047FEE7FEE714
:1001C000FEE7FEE7FEE7FEE7FEE7FEE7FEE7FEE707
:1001D0006516000899010008D2B201E000F8012B71
:1001E000491EFBD270470022F6E710B513460A46B7
:1001F00004461946FFF7F0FF204610BD064C074D98
:1002000006E0E06840F0010394E8070098471034E6
:10021000AC42F6D3FFF7C4FFB8300008D83000086E
:1002200070B58C1810F8015B15F0070301D110F8B8
:10023000013B2A1106D110F8012B03E010F8016BE5
:1002400001F8016B5B1EF9D12B0705D40023521E68
:100250000DD401F8013BFAE710F8013BCB1A921CD0
:1002600003E013F8015B01F8015B521EF9D5A142CE
:10027000D8D3002070BDFEE7044A034B11885854C0
:10028000491C1180704700007C06002028000020D7
:10029000704700000149085C704700007C060020A0
:1002A00070470000014900200880704728000020A6
:1002B00010B5074C0020A060AE2001F01FF9A07817
:1002C00001F01CF9FFF7ECFFBDE8104000F0FABDAB
:1002D0001400002070B5174CA16801B960706178F6
:1002E000AA290ED00025AB2919D0AC290DD0AD29F3
:1002F00010D0AE2918D01048006800F04EF8A56064
:1003000070BDBDE8704001F03FB82570BDE8704099
:1003100001F004B92570BDE8704000F07BBF257086
:10032000BDE8704001F04EB92570BDE87040FFF7A0
:10033000BFBF000014000020A830000870B50128DD
:1003400024D0032822D0124C0428618A08D0052822
:1003500015D0C1B20F480068BDE8704000F01DB86C
:10036000084600F035FE0546608A001D80B200F0A8
:100370002FFE01462846BDE8704000F029BF084620
:1003800000F026FEBDE8704000F002BF70BD000026
:100390002C000020B0300008704770B504460D46B0
:1003A000EE2001F0ABF8204601F0A8F82846BDE8A1
:1003B000704001F0A3B8F0B5002201274FF0030C04
:1003C0000B6807FA02F52B40AB422CD106685300AC
:1003D0000CFA03F4A64306600E79D0F800E09E40C4
:1003E00046EA0E0606600E79012E01D0022E12D1C9
:1003F0008668A64386604E79D0F808E09E4046EABB
:100400000E0686604668AE43466045688E79964023
:10041000B6B235434560C568A543C560CC799C40FC
:10042000C3681C43C460521C102AC9D3F0BD4B07DB
:10043000DB0E9A40C90810B500EB8100016A0F2459
:100440009C40A1430162016A1143016210BD024652
:10045000002012690A4200D00120704702460020A5
:1004600052690A4200D001207047418370470183DE
:100470007047FEE77047002070470000074A01B14F
:1004800001211171064931F8101011600449283119
:1004900051F820000149FFF78EBF000080000020C6
:1004A000788700200449044A283231F8101052F8A5
:1004B0002000FFF7CCBF0000788700202DE9F04135
:1004C0000121084600F004FE0121022000F000FE98
:1004D0000121042000F0FCFD284F01203A4638712C
:1004E000022151713B4600229A711A46244ED07166
:1004F00008223280042373808502B580F280202494
:10050000348110237381B5810202F281420232826A
:10051000802575824022B282F58232837483B08353
:10052000F18333847084B18406F12805F084154882
:10053000286015496860C5E9020129616961C5E95A
:100540000610124A05F14003C5E90802C5E90A1080
:1005500028636863A863E86383E807000024EA640B
:1005600036F81400386055F824000449FFF723FFDB
:10057000641CE4B2142CF3D3BDE8F08180000020A9
:10058000788700200000024000040240000802407A
:100590000449044A283231F8101052F82000FFF7BD
:1005A0005DBF0000788700200B000649024601F17C
:1005B000280031F8121050F8220001D0FFF757BF81
:1005C000FFF753BF7887002070474218491E521E1C
:1005D000824202D922EA0100704788437047002115
:1005E000406000600830491C1B29F9D3704710B5E2
:1005F0000446084600F064F81E2801D9002010BD0A
:10060000042800D8042004EBC000203810BD426844
:10061000C1E9000242681160416070474268C1E967
:10062000000242681160416070474268C1E90002FF
:1006300042681160416070474268C1E90002426847
:100640001160416070474268C1E900024268116070
:1006500041607047D0E900121160D0E900124A6091
:100660000021416001607047D0E900121160D0E9BB
:1006700000124A600021416001607047D0E9001219
:100680001160D0E900124A600021416001607047AA
:100690004168814201D101207047002070474168C4
:1006A000814201D10120704700207047416881429A
:1006B00001D101207047002070470068FFF7C3BFD9
:1006C000002802DA6FF070407047444908423FD07A
:1006D00010F0FE4F1BD010F0E04F09D0410001D5C3
:1006E0001E207047800001D51D2070471C207047D8
:1006F00010F0406F05D0000101D51B2070471A2073
:100700007047800101D5192070471820704710F4F8
:10071000700F0ED010F4400F05D0000201D5172045
:10072000704716207047800201D5152070471420AD
:10073000704710F4402F05D0000301D513207047F7
:1007400012207047800301D5112070471020704798
:1007500010F47F4F20D010F4704F0ED010F4404FA3
:1007600005D0000401D50F2070470E20704780048B
:1007700001D50D2070470C20704710F4406F05D054
:10078000000501D50B2070470A207047800501D570
:10079000092070470820704710F0F00F0ED010F0BD
:1007A000C00F05D0000601D507207047062070470E
:1007B000800601D5052070470420704710F00C0F0B
:1007C00005D0000701D5032070470220704780073D
:1007D00001D5012070470020704700000000FF7F16
:1007E0002DE9F0410D4606460024FFF7F5FC0746CB
:1007F00036B1002D04DD2946304601F00DFF0446D8
:100800003846FFF7E9FC2046BDE8F0812DE9F041CC
:1008100015460F4606460024FFF7DEFC80469EB1D3
:1008200097B17919091D0FD4304601F0F5FE411931
:10083000491E6D1EA9430446884205D0081A40F09F
:10084000804041F8040C0C464046FFF7C5FC2046AA
:10085000BDE8F0812DE9F0410C4605460127FFF780
:10086000BBFC064695B18CB154F8040C410002D58E
:1008700020F08040241A103C2146284601F008FF51
:10088000070003D12946204601F03EFF3046FFF71E
:10089000A3FC3846BDE8F0812DE9F0470F4604007F
:1008A0004FF0FF3801D0FF2F02D84046BDE8F08757
:1008B000FFF792FC8246C4E9004704F10800814634
:1008C000FFF78DFE04F1E005A7F1F0000026C5E971
:1008D000026001464846FFF78AFE88B12946006853
:1008E000FFF795FEE019084940F8106D4660C0E931
:1008F000025101F071FF5046FFF76EFC0020D5E772
:100900005046FFF769FCD0E71000008070B50C4638
:1009100005004FF001060ED06CB1FFF75DFC2968B1
:100920000246241FD1B1601B0C38B0FBF1F301FB70
:1009300013039BB901E0012070BDB0FBF1F16868C1
:1009400081420BD208492068884201D0012000E092
:10095000002018B9A86820600026AC601046FFF798
:100960003BFC304670BD0000A55A5AA570B516462E
:100970000D46040002D00EB10C2D01D2012070BD35
:10098000FFF72AFCF61D034626F003000C3D20600D
:10099000B5FBF0F0606020B104F10C000021A06014
:1009A00008E01846FFF718FCE8E72268491C0244F3
:1009B000026010466268521E8A42F6D80021016029
:1009C0001846FFF709FC002070BDD0E90012116045
:1009D000D0E900124A6000214160016070470000C8
:1009E000054A126852F831104A68C0E900124A6894
:1009F0001060486070470000A400002008490020F3
:100A00000A6802EBC0014B688B4204D1401C2028CD
:100A1000F7D30020704702EBC00040687047000029
:100A2000A4000020F8B51700069E0C4605D04FF62E
:100A3000FB70864204D91748F8BD16480930F8BD46
:100A40008CB186B1FFF7C8FB0546361DB2B26B46C6
:100A50003946204601F042FF060007D02846FFF73E
:100A6000BBFB3046F8BD0B480A30F8BD0098143087
:100A70004060006000991C31496009600099243190
:100A8000496009600098C4812846FFF7A5FB002053
:100A9000F8BD0000030600022DE9F0470025441EC2
:100AA000984689460A2C02D33C48BDE8F087B9F144
:100AB000000F09D05AB1B8F1000F0BD038480068C8
:100AC00040B136480A30F0E73448401CEDE733487F
:100AD000801CEAE7FFF780FB3249064604EB44003E
:100AE000096800EBC40001EB8004A08810B3208AE1
:100AF00018B3401E208261892289206801FB020010
:100B00000168C9F800106089401C80B26081E188EA
:100B1000884201D10020608104F114000746FFF7EC
:100B2000B7FD78B3E089401CE0813046FFF754FB05
:100B30002846BAE7194D0E35F7E7B8F1000F05D092
:100B40001948008828B1154D083DEEE7134D0F35C3
:100B5000EBE71648424604F11C010768384601F0ED
:100B600007FF3046FFF738FB00F022F8FFF734FBB1
:100B70000646B8884106BED5084D20F04000B88032
:100B8000ED1FD2E7FFE7384601F026FF3046FFF7BA
:100B900023FB00F00DF8002087E700000E0600029E
:100BA0001401002094000020B8000020D000002094
:100BB00010B5FFF711FB0446FFF720FF0A493C3848
:100BC00048600968814202D00848008820B1204668
:100BD000BDE81040FFF700BB2046FFF7FDFABDE877
:100BE0001040FFF7F9BA0000D0000020B800002044
:100BF00070B52749274E0A28096801EB001401D374
:100C0000304670BDFFF7E8FA05462078B8B1608835
:100C1000A0F57F41FE390CD004F10800FFF73FFD3D
:100C200088B16088401C60802846FFF7D5FA002014
:100C300070BD2846FFF7D0FA1648C01D70BD284683
:100C4000FFF7CAFADCE7E068A0F13C04FFF70CFD0F
:100C5000A08820F00800A080400606D5204602F0BB
:100C60005DF9A08820F04000A0800020A061A0884D
:100C7000810707D440F00400A080E18804F13C0023
:100C8000FFF7AEFE2846FFF7A7FAFFF791FFCEE782
:100C9000980000200107000210B502F013F90400CB
:100CA00002D1FFF799FA204610BD000070B5044646
:100CB00000F034F8002829D12068174D00EB80019E
:100CC00001EBC000696801EBC004FFF785FA064636
:100CD000A08820F0020040F00400A080E18804F128
:100CE0003C00FFF77DFEFFF789FE05F118013C3857
:100CF00048606A695AB12A884AB90968814206D0AF
:100D00003046FFF769FA01F09DFE002070BD3046C5
:100D1000FFF762FAF9E70000B80000202DE9F0477C
:100D20000D465FEA00084FF0FF390AD065B1E86967
:100D300068B1286870B1A8881F280ED94A48BDE854
:100D4000F0874948001DFAE74748801EF7E7464804
:100D5000801CF4E74448401CF1E7A869B0F5004F57
:100D600002D941481D30EAE710B94FF43470A86148
:100D70000821FFF72AFCA86110214FF49870FFF7B3
:100D800024FCA969884202D93748C01CD7E7FFF77D
:100D900023FA8246354E364F0EE07868A0F13C04C7
:100DA000FFF76CFC324804F13C010838FFF74BFCBC
:100DB000E1683068FFF74EFD2D48FFF777FC00280B
:100DC000EBD02B480838FFF771FC10B1264C0E34DD
:100DD00045E0274808384068A0F13C04FFF74EFC86
:100DE0005046FFF7F9F927690822A9693068FFF72B
:100DF0000DFD060029D002463846A96902F0B0F878
:100E00002060A868A062E868E062286920636869D9
:100E1000E66060630021A869A161E161616202226C
:100E2000A060A280286A00B180200243A280A88826
:100E3000E0802868C4F85090E1656061E869616607
:100E4000A0630020C8F8007079E7FFF7C5F9824673
:100E5000074804F13C010838FFF7F5FB054C504604
:100E6000FFF7BAF920466AE7030200020C010020EE
:100E7000E80000200002000310B5FFF7ADF9044AB6
:100E80001188491C1180BDE81040FFF7A5B900008A
:100E9000B800002010B5FFF79FF9094A118821B169
:100EA000491E0904090C118003D0BDE81040FFF76A
:100EB00093B9FFF791F9BDE81040FFF779BE000044
:100EC000B800002010B5FFF7E3F900F003FD034977
:100ED00001200870BDE8104000F0F8BB14000020AD
:100EE000FEE700000020054A014640F6B8331154E1
:100EF000401C80B29842FAD370470000C07B0020AB
:100F000070B50446401C80B2FFF7C4F94FF6FF717C
:100F100001EA00252046FFF7BDF9284480B270BDE4
:100F200070B50446C01C80B2FFF7B4F90502A01CDE
:100F300080B2FFF7AFF928440502601C80B2FFF7CA
:100F4000A9F9284405022046FFF7A4F9284470BDFA
:100F5000FFF7A0B9054A4FF6FF731118105C4978E6
:100F600003EA0121084400B270470000C07B002062
:100F7000064B10B51918185CCA788C78497804EBC0
:100F8000022201EB022100EB012010BDC07B0020FA
:100F90000149085670470000C07B0020054A4FF603
:100FA000FF731118105C497803EA0121084480B2EC
:100FB00070470000C07B0020044B1918185C8A7829
:100FC000497801EB022100EB01207047C07B002033
:100FD000064B10B51918185CCA788C78497804EB60
:100FE000022201EB022100EB012010BDC07B00209A
:100FF0000149085C70470000C07B0020024A115480
:101000001044090A41707047C07B0020044A115403
:10101000090A0244080A51709070000AD0707047A3
:10102000C07B0020014A115470470000C07B0020A3
:10103000024A11541044090A41707047C07B0020D5
:10104000044A1154090A0244080A51709070000AB7
:10105000D0707047C07B0020014A115470470000D7
:10106000C07B00207047000030B50F23C2780178A4
:101070000125FAB1144A126801F1E02102F4E0629C
:10108000C2F5E062C2F30722C2F10404D340427801
:10109000A24084781C401443220181F80024007887
:1010A00000F01F018D404009800000F1E020C0F8F1
:1010B000005130BD01F01F0085404809800000F15B
:1010C000E020C0F8805130BD0CED00E0704700001A
:1010D000044A0029116801D0014300E081431160F6
:1010E0007047000030380240044A0029116801D0DE
:1010F000014300E081431160704700004038024026
:1011000070B5204B1968204C11F00C0104D066100A
:10111000042903D0082903D004601BE0066019E00D
:10112000184A121F1168C1F38055116801F03F0180
:1011300015B1B6FBF1F101E0B4FBF1F114681268EE
:10114000C4F388146143C2F30142521C5200B1FB44
:10115000F2F1016019680F2202EA11110B4A545C86
:101160000168E14041601C68072505EA9424145D8C
:1011700021FA04F484601B6805EA5333D25CD14041
:10118000C16070BD083802400024F4000000002057
:1011900070B50E4C05460020A072AA20FFF79AF801
:1011A000E8B2FFF797F8C5F30720FFF793F80020A0
:1011B000FFF790F80020FFF78DF80020FFF78AF87E
:1011C0000020FFF787F8206D206470BD2C00002000
:1011D00070B50D460E49044601208872AA20FFF71B
:1011E00079F8E0B2FFF776F8C4F30720FFF772F85A
:1011F000E8B2FFF76FF82C0AE0B2FFF76BF8240AA9
:10120000E0B2FFF767F8200ABDE87040FFF762B868
:101210002C00002070B50E4A9168491C916001298C
:1012200013D0022912D003290FD100219160117926
:10123000002400EB012085B2281980B2FFF72AF8BC
:1012400000F05CF9641CFF2CF6D970BD908070BD75
:10125000140000202DE9F04100260A4F01253446F4
:10126000B88D80B2FFF716F805FB0066F86A641CBB
:10127000401C2D02E4B2F862042CF1D33046BDE8E4
:10128000F08100002C0000202DE9F04100260A4FDB
:1012900001253446B88D80B2FEF7FCFF05FB0066E1
:1012A000F86A641C401C2D02E4B2F862032CF1D3EE
:1012B0003046BDE8F08100002C0000202DE9F0410F
:1012C00000260A4F01253446B88D80B2FEF7E2FFB2
:1012D00005FB0066F86A641C401C2D02E4B2F8624B
:1012E000042CF1D33046BDE8F08100002C00002032
:1012F0002DE9F04100260A4F01253446B88D80B211
:10130000FEF7C8FF05FB0066F86A2D02401C641C4E
:10131000F86214F0FF04F1D03046BDE8F08100001F
:101320002C0000200449086C020404D54FF6FF721B
:101330005040C043086470472C0000200449086CEA
:10134000020603D580F0FF00C04308647047000028
:101350002C0000202DE9F04100260A4F01253446DB
:10136000B88D80B2FEF796FF05FB0066F86A641C34
:10137000401C2D02E4B2F862022CF1D33046BDE8E5
:10138000F08100002C00002070B5284B26499A6897
:101390008854521C9A60072A41D300209860CD7867
:1013A0000C7948788A784B79897905EB042404EB29
:1013B000034303EB01611E4B1C781E4B1B68DCB121
:1013C00032B1012A09D0032A0CD0042A1BD10EE025
:1013D000BDE87040C9B2FFF751B8BDE87040C9B26E
:1013E000FFF7E2B8BDE87040C9B2FFF7EDB8BDE85D
:1013F0007040C9B2FFF73EB80F4C012A09D0022A4B
:101400000AD0042A0CD0BDE8704001211846FEF72E
:10141000C4BFFFF7BDF801E0FFF744F8206070BDDE
:10142000FFF729F8FAE70000180500201400002053
:1014300036000020B43000087C0000207047000017
:101440002DE9F0418046012188B00846FFF740FEB3
:1014500001214804FFF748FE254F072202213846A4
:10146000FEF7E5FF072203213846FEF7E0FF0220E2
:101470008DF8150000248DF8164001258DF81750C1
:101480000C268DF81400049604A93846FEF793FF45
:10149000ADF80840ADF80A60164EADF80440CDF83E
:1014A0000080ADF80640ADF80C406946304600F0CB
:1014B0009DF94021304600F04DF90121304600F001
:1014C0004CF926208DF818008DF81B508DF8195016
:1014D0008DF81A5006A8FFF7C7FD012240F22551EA
:1014E000304600F06AF90448047008B0BDE8F081A5
:1014F00000000240004400401000002070B5064D7E
:1015000004468021284600F032F90028F9D002482C
:10151000001D048070BD00000044004010B504466A
:101520000A488168491C816001290ED002290CD12A
:10153000002181608170FEF7B5FEAC20FFF7DEFF71
:101540002046BDE81040FFF7D9BF10BD14000020B1
:101550001848016841F0805101601748016841F462
:10156000404101601348383801680160016801603A
:10157000016841F480510160021F10491160111F80
:101580000A6842F080720A600A689201FCD50C4A2F
:1015900040F202711160016821F0030101600168ED
:1015A00041F0020101600168C1F381010229FAD111
:1015B000704700004038024000700040106401078E
:1015C000003C024070B5164DA968491CA96001296C
:1015D00017D0002302290ED0AA78124E4240AA70DA
:1015E0002A69B054521C2A61E868801C814208D1E3
:1015F0000024AB600BE0E86010B94FF48070E86045
:101600002B6170BD305DFEF737FE641CA4B2286903
:101610008442F7D3BDE87040AB20FFF76FBF0000F6
:10162000140000207C050020401EB0F1807F01D313
:10163000012070474FF0E0214861054AF02082F810
:10164000140D002088610720086100207047000009
:101650000FE000E002480168491E01607047000089
:1016600012000020124810B5016841F470010160B9
:101670001048016841F0010101600E4A0021083262
:10168000116002680C4B1A400260031D0B4A1A607D
:10169000026822F48022026006480C300160FFF7E5
:1016A00057FF03494FF000608039086010BD00000B
:1016B00088ED00E000380240FFFFF6FE1030002405
:1016C000014900200880704712000020024908806C
:1016D0000248FFF7A9BF00001200002020A1070068
:1016E00010B5064C20800648FFF79EFF2088002892
:1016F000FCD14FF0E021086110BD00001200002075
:10170000A08601000348008808B10020704701202E
:10171000704700001200002070B50C4D40F22551BA
:10172000284600F02BF800280FD0094C012020702B
:10173000284600F0B1F860704021284600F00AF811
:101740006078BDE87040FEF7C5BD70BD0044004044
:1017500010000020C943018070470029818902D010
:1017600041F4005101E021F40051818170470246AB
:10177000002012880A4200D00120704770B501F0A5
:101780001F0501260024C1F3421306FA05F2012BBE
:101790000FD0022B0FD0838A4FEA11210088134209
:1017A00006FA01F600EA060001D000B10124204645
:1017B00070BD8389F0E7038AEEE710B5C1F34213E9
:1017C00001F01F040121A140012B07D0022B07D0FB
:1017D0001430002A026805D00A4304E00C30F8E710
:1017E0001030F6E78A43026010BD00007FB5044662
:1017F000008A0D46C98820F4405001432182A08907
:1018000041F20C618843A9882A8911436A890243FD
:101810001143A181A08A20F44071A8890843A082C5
:101820006846FFF76DFC1A48844202D0194884428A
:1018300001D1039800E00298A189090400EBC001DE
:1018400001EB0010296801D5490000E08900B0FBD8
:10185000F1F06422B0FBF2F109010B096FF01805F9
:101860006B4300EB8300A3891D044FF0320306D5C0
:1018700003EBC000B0FBF2F000F0070005E003EB63
:101880000010B0FBF2F000F00F00084320817FBD94
:1018900000100140001401408088C0F30800704728
:1018A000FEE700000749064ACB79D054C879401CAE
:1018B000C871C879142801D10020C8717047000090
:1018C000AC7B00202C00002001490020887170476B
:1018D0002C00002070B5134C002540F6B730E562AF
:1018E0006582A582E582A581E58125826562A56282
:1018F0002083257065706583A58325636563A57066
:10190000E570E5832584A563E56325646564A564C6
:10191000E56425716571FFF7E5FAA571E57125723A
:10192000657270BD2C0000202DE9F047094CE06A7B
:10193000401CE062401E80B2FEF7ACFC0125002690
:10194000054F01464FF6FF784FF0FF09DE2805D21C
:1019500005E000002C000020C07B0020F4E38200A2
:101960007A44526897440000A40A000078030000FB
:1019700086030000C0030000A4030000CA030000A7
:10198000C60300008C03000098030000A40A0000B6
:101990003604000050040000A40A0000E803000020
:1019A000FE030000180400009A040000A2040000D6
:1019B000B0040000E8060000F0060000FC0600008D
:1019C000040700001E070000A40A00004A070000E8
:1019D0006C070000B80700000C0800007E0800003B
:1019E0009E080000B6080000CE080000E6080000CF
:1019F000F008000018090000200900002809000074
:101A0000A40A0000300900003C090000460900005B
:101A10004E0900006209000070090000A40A0000DD
:101A20007E090000580900000009000010090000AC
:101A3000960A000088090000880900008809000053
:101A40009609000096090000A2090000AE090000F6
:101A5000C8090000EA090000000A0000280A000086
:101A6000180A00001205000018050000A40A000072
:101A7000B00A00003C0A00003C0A00003C0A0000DA
:101A80004C0A0000A40A00005A0A0000640A000080
:101A9000760A0000A40A0000880A0000B8040000CA
:101AA000C4040000A40A0000D0040000DC0400000C
:101AB000E2040000A40A0000E8040000EE040000B4
:101AC000FA040000A40A00000C050000360600001D
:101AD000360600003606000042060000A40A000098
:101AE0004E0600005A06000066060000A40A000028
:101AF000720600007E0600007E0600007E060000E2
:101B00008A060000A40A000096060000A206000053
:101B1000AE060000A40A0000BA060000E4050000BA
:101B2000E4050000E4050000F0050000A40A000040
:101B3000FE0500000406000016060000A40A0000CE
:101B40002806000068050000680500006805000020
:101B500072050000A40A00007C0500008605000054
:101B600090050000A40A00009A050000A4050000EA
:101B7000A4050000A4050000B2050000A40A0000AE
:101B8000BC050000C6050000D0050000A40A000046
:101B9000DA0500001E0500001E0500001E050000FD
:101BA0002E050000A40A0000380500004A050000C8
:101BB00054050000A40A00005E0500006404000053
:101BC000760400008A040000840400000E07000070
:101BD000A40A00001A0700002A07000036070000C8
:101BE000A40A0000420700002A0700003607000090
:101BF000A40A00004207000056070000A40A0000E3
:101C0000640700004A07000056070000A40A00000D
:101C1000640700007C070000A40A00008E07000093
:101C200098070000A4070000A40A0000B007000005
:101C3000CA070000A40A0000E2070000EE07000047
:101C4000F8070000A40A00000208000024080000B1
:101C5000A40A0000400800005008000060080000CE
:101C6000A40A000070080000D2060000D20600009E
:101C7000D8060000C6060000C6060000DE0600000A
:101C8000C6060000CC060000A40A0000B00A00004E
:101C9000C6060000C6060000DE0600001E040000A6
:101CA00030040000240400002A0400003004000076
:101CB00094080000AC080000C4080000DC08000024
:101CC000E6080000F0080000D2060000D806000078
:101CD000A40A0000B00A0000100400001404000070
:101CE000E08A6082FFF7EAFAFEF728FB94E3FFF749
:101CF00031FB09E0FFF72EFB618A0844E08257E3DD
:101D0000FFF728FB618A081A608285E3E08A608217
:101D1000E06A0021C01C228B491CC9B2B854521E73
:101D2000000A22830329F6D3FFF7AEFAA2E2257157
:101D3000667100210846228B401C521C92B22283FD
:101D4000BA5CC0B202EB01210328F4D3E16263E381
:101D5000208B401C80B2395C401C80B22083385CF0
:101D600000EB0120D0E7208B618A3954401E80B2FD
:101D7000090A3954401E30E026714DE325714BE3CA
:101D8000FFF768FA1EE2FFF765FA23E2FFF762FA4F
:101D9000FAE1FFF75FFA05E2FFF75CFA77E1608AA4
:101DA000A081A08AE081E08A2082206C6062606C61
:101DB000A0624FF4FA60A7E7A0896082E089A08260
:101DC000208AE082606A2064A06AA4E0FFF7C2FA79
:101DD000618A084480B2FFF7E1F820831CE3FFF733
:101DE000B9FA618A084480B2218B40E0FFF74CFACF
:101DF0004DE1FFF7AFFA618A084480B2FFF7DCF8E3
:101E000038E2FFF727FA618A51E1FFF7A3FAD4E934
:101E1000101202FB00103AE1FFF79CFA216C46E138
:101E2000B4F8440080B2FFF793F830E1B4F844000E
:101E300080B2FFF765F82AE1B4F8440080B2FFF7FA
:101E40006FF824E1B4F84400ABE0B4F84400AEE02D
:101E5000B4F84400B1E0B4F8440094F8401080B203
:101E600016E0B4F8400081B2B4F8440080B2FFF745
:101E7000DFF8D1E2B4F8440016E0FFF75FFACBE2F6
:101E8000FFF750FAC8E2FFF765FA618A08445FE09D
:101E9000FFF7E2F8C0E2FFF75DFA618A08445DE00F
:101EA000FFF758FA618A084480B2216CFFF7C8F83E
:101EB000B2E2FFF74FFA618A084459E0FFF74AFAA5
:101EC000618A08445DE0FFF745FA618A084461E0F1
:101ED000FFF740FA618A084463E0FFF73BFA618A42
:101EE000084464E0FFF736FA618A084465E0FFF7CA
:101EF00031FA618A084466E0FFF72CFA618A0844E7
:101F000067E0FFF727FA618A084468E0FFF722FAE2
:101F1000618A084469E060647EE2FFF71BFA618A27
:101F2000084468E0FFF716FA618A084469E0FFF7A1
:101F300011FA618A08446AE0FFF70CFA618A0844E2
:101F40006BE0FFF707FA618A08446CE0FFF702FADA
:101F500080B294F840109BE7FFF7FCF9B4F840100A
:101F600080B289B283E7FFF7F5F99DE7FFF7F2F951
:101F700094F8401080B249B2FFF754F84CE2FFF7F2
:101F8000E9F9B4F8401080B209B2FFF737F843E23C
:101F9000FFF7E0F980B2216CFFF738F83CE2FFF779
:101FA000D9F980B2FFF724F871E0FFF7D3F980B2D6
:101FB000FEF7F4FF6BE0FFF7CDF980B2FFF708F80A
:101FC00065E0FFF7C7F980B2FEF7E2FF5FE0FFF7D9
:101FD000C1F980B2FEF7BEFF59E0FFF7BBF980B24E
:101FE000FEF7C6FF53E0FFF7B5F980B2FFF700F840
:101FF00091E7FFF7AFF980B2FEF7D0FF8BE7FFF76D
:10200000A9F980B2FEF7E4FF85E7FFF7A3F980B2F4
:10201000FEF7BEFF7FE7FFF79DF980B2FEF79AFF5C
:1020200079E7FFF797F980B2FEF7A2FF73E794F81C
:1020300040001EE0B4F8400020E094F84000C1E009
:10204000B4F84000C6E0B4F8400080B2206417E75E
:10205000206C002839D005E1206C002801D0606C8C
:1020600098BBFFE0D4E910010843F9E794F8400079
:102070004042C0B203E0B4F84000404280B2206465
:10208000FBE6206C02E0206C002887DA40422064E6
:10209000C2E194F8400094F84410084492E0B4F887
:1020A0004000B4F84410084494E0D4E91001084416
:1020B000EDE794F8400094F84410401A82E0B4F838
:1020C0004000B4F84410401A84E0C9E0D4E910019B
:1020D000401ADCE794F8401094F84400E06411FBE7
:1020E00000F024E0B4F84410B4F8400089B280B2A3
:1020F0004843E16426E0D4E910014843E16415E176
:1021000094F8400094F8441048435BE0B4F8400071
:10211000B4F8441048435DE0D4E910014843B6E701
:1021200094F8401094F84400E064B1FBF0F0A0642F
:1021300048E0B4F8400081B2B4F8440080B2E064F2
:10214000B1FBF0F0A06445E060E1D4E91010E06478
:10215000B1FBF0F0EAE0D4E9100190FBF1F031E0DE
:10216000D4E9100190FBF1F034E0D4E9100190FBC8
:10217000F1F08CE794F8400094F84410B0FBF1F2D1
:1021800001FB1200C4E9120140B280E7B4F840003C
:10219000B4F8441080B289B2B0FBF1F201FB120036
:1021A000C4E9120100B272E7D4E91001B0FBF1F208
:1021B00001FB1200E164B9E0D4E9100190FBF1F2F7
:1021C00001FB1200C0B262E7D4E9100190FBF1F20A
:1021D00001FB120080B25AE7D4E9100190FBF1F242
:1021E00001FB120053E7216CA164606CE064814242
:1021F00001D9A56400E0A664A06C48E7D4E9100109
:1022000088422DDC2EE0216CA164606CE064814288
:10221000F1D3EEE7D4E91001884221DA22E0216C03
:10222000A164606CE0648142E5D2E2E7D4E9100188
:10223000884215DB16E0216CA164606CE064814289
:10224000D9D8D6E7D4E91001884209DD0AE0D4E9FB
:102250001001884204D005E0D4E91001884201D081
:102260002564D9E02664D7E0206C01283FF45CADFA
:10227000E06AC01CE062CFE0206C0028F8D153E592
:10228000206C80F0010051E0206C80F0FF004DE0F8
:10229000206C80EA080001E0206CC043E16CB0FBD8
:1022A000F1F043E0D4E910010840E1643EE0D4E9F4
:1022B0001001E16439E0D4E910014840E16435E0FF
:1022C000D4E91001C840E16430E094F84010606C3B
:1022D000E0648140C8B229E0B4F84010606CE0646A
:1022E000814088B222E0D4E910018840E1641DE019
:1022F000FEF7FEFF216C014101F00100C7E6FEF789
:10230000F7FF216C0141C8B2C1E6FEF7F1FF216C75
:10231000014188B2BBE6FEF7EBFF05FA00F0C1B25F
:1023200081F0FF021AE0104000E00843A064AEE62E
:10233000FEF7DEFF216C05FA00F0A16480B2636C49
:1023400080EA08021BB10143A164216464E01140EA
:10235000FAE7FEF7CDFF05FA00F1CA43206CA0644E
:10236000636C002BE1D1DEE7FEF7C2FF616CE16434
:10237000814009FA00F2206C82EA08021040D4E79A
:10238000FEF7B6FF616CE164814008FA00F206E0F6
:10239000FEF7AEFF616CE164814009FA00F2206C47
:1023A0009043C2E794F84010A08AFEF755FE13E070
:1023B000A08231E0B4F8400081B2A08AFEF738FE76
:1023C00013E0A08A216CFEF73BFE15E094F8400074
:1023D00041B2A08AFEF726FEA08A401CE8E7B4F8C6
:1023E000400001B2A08AFEF709FEA08A801CDFE748
:1023F000A08A216CFEF70AFEA08A001DD8E7206C97
:1024000000283FF43CAF401E206431E715480670B9
:1024100015480068FDF7C1FF2079002820D06079B9
:1024200000281DD1207AE179884219D06571E16ACE
:102430000020228B401CC0B2B954521E090A2283CC
:102440000328F6D30948217A405C8000E062207AB4
:102450006072207A401C2072207A142800D12672E3
:10246000BDE8F08714000020AC300008AC7B0020F1
:1024700002E008C8121F08C1002AFAD1704770474D
:10248000002001E001C1121F002AFBD170470000AB
:102490000A4810B5007800280FD0FFF745FAFFF77B
:1024A00031F9002809D00120FFF710F9FFF70CFAE5
:1024B000BDE810401120FFF7F5B910BD1400002051
:1024C00010B500F009F800F083F808B1012010BD44
:1024D000FEF7E2FBFEE70000FFF7F2F8FDF7EEFF84
:1024E0004FF4E130FEF7ACFF4FF4FA742046FFF7EB
:1024F000F7F8084D20212846FDF7B9FF2046FFF7E1
:10250000EFF820212846FDF7B0FF00F0C3FDFFF7EC
:10251000BFFFFCE700000240FDF748FEFEE70000B9
:10252000074A0849102041F82020401CFF28FAD90A
:102530000548016004490548091D0860704700000E
:10254000192500081801002008ED00E00007FA0531
:10255000FEE7000000B589B024216846FDF743FE80
:10256000074800904FF4A060069006A007901F2037
:10257000ADF8040069460648FEF798FB09B000BDB7
:102580005125000849646C65436F72653030300036
:10259000C400002010B5FDF71FFE0B4C2168491C3C
:1025A0002160FDF719FEFDF701FE084951F82000F2
:1025B00000B18047FDF710FE2168491E2160BDE88B
:1025C0001040FDF709BE00001401002000090120A1
:1025D00010B500F029FA00F031F900281BD1FFF7FF
:1025E0009FFF00F06BFB002815D100F02DFA0028AA
:1025F00011D100F02FF900280DD100F0A1F9002829
:1026000009D100F049FA002805D100F0A1FCBDE88D
:102610001040FFF79FBF10BD2DE9F0410746133171
:1026200021F00305083029460646FDF7E0FFD036C5
:102630000CE0446803E0E268AA420AD2646884427B
:10264000F9D1864201D1002000E008300028F0D105
:102650000024DCB1E16805F11400814204D32A466C
:102660002146384600F0C6F82046FDF7F3FF204625
:1026700000F0B2F8E06840F00040E06020F0004078
:1026800000F09CFB04F11000BDE8F0810020FBE7A6
:102690002DE9F843054600F1E00740680C46A5F136
:1026A00010010144461989460A462B463946204600
:1026B000009600F06CF810B3E06800281FDA20F0F4
:1026C0000040204480462B464A463946009600F09A
:1026D0005EF8A0B1D8F80800A04210D1BC4211D0D9
:1026E00000962B464A463946A06800F050F830B1B3
:1026F000A068C16821F000410844A04202D0012036
:10270000BDE8F8830020FBE770B50446C0680E46BC
:1027100020F0004000F03CFBE068083620F000406C
:10272000E060A568EDB1E96800291ADB204600F0F9
:1027300045F8E86820F000404419E068002805DB0F
:102740002046FDF787FF204600F038F82846FDF7C1
:1027500081FF3046E968FDF74AFF002816D0294678
:1027600010E00519E868002805DB2846FDF772FF30
:10277000284600F023F83046E168FDF738FF0028CE
:1027800004D02146BDE87040FDF741BF70BD10B5D3
:102790008142029C0ED890420CD8C168002904DA0C
:1027A00001684140491C05D106E00068984201D308
:1027B000A04201D3002010BD012010BD8168C36874
:1027C000CA681A44CA60C168826801448A600021EC
:1027D0000160416081607047C1430160044909683C
:1027E00009B1096901E04FF0FF3141607047000015
:1027F000D000002070B58C180646A160C868801A09
:10280000E060CA60E06820F000400519AC60E8684C
:10281000002805DB2846FDF71DFF2846FFF7CEFF01
:1028200006F10800E168FDF7E2FE002804D0214629
:10283000BDE87040FDF7EBBE70BD000004490348E1
:1028400008604FF40041FEF727B80000F087002031
:102850000C0100202DE9F0411048F021406000609B
:102860000F480068FDF7BCFF0C4D2D1F286098B184
:10287000002426462F1D296804EB440001EBC0010B
:102880004C6001F8086B3868FDF7C8FE641C0A2C20
:10289000F1D30020BDE8F0810248FBE78C00002066
:1028A0000C010020001D000210B50A4800244FF45E
:1028B00080710068FDF794FF07490028086007D081
:1028C000086800EBC400641C40600060202CF7D353
:1028D00010BD00000C010020A40000202DE9F041F3
:1028E000054614481F46164604680020A288CAB14F
:1028F000401C2C340A28F9D30A2816D02C21204653
:10290000FDF771FC0C4805FB06F10068FDF768FF58
:10291000206060B1E58026810120A08000203C601D
:10292000BDE8F081421C0A60E6E70448F8E7034886
:10293000801EF5E7940000200C0100200406000230
:1029400010B508484FF4DC7421460068FDF748FFD5
:102950000549086020B12146FDF745FC002010BD67
:10296000024810BD0C010020940000200106000266
:102970002DE9F04104463C3017460D460646FEF769
:1029800024F8A08820F0040040F40050A0802846DD
:10299000FDF77EFE10B1314628680DE0686804E05E
:1029A000E188C288914205D3006C3C3800F13C01BB
:1029B000A942F5D1C06B3146FDF737FE781C09D02E
:1029C000A088394640F04000A0802046BDE8F04194
:1029D00000F0E6B8BDE8F08110B54068A0F13C0415
:1029E000D0E900121160D0E900124A600021416074
:1029F0000160A08820F40050A080400606D5204643
:102A000000F08CFAA08820F04000A080A088810708
:102A100009D440F00400A080E18804F13C00BDE846
:102A20001040FDF7DDBF10BD0349102008600449C8
:102A30000248086070470000C0000020F007012035
:102A400008010020FDF7C8BB2DE9F0410F48A02187
:102A5000406000600E480068FDF7C2FE0B4D2D1F60
:102A6000286088B1002426462F1D286800EB041139
:102A70004C6001F8086B3868FDF7DEFD641C0A2C19
:102A8000F3D30020BDE8F0810248FBE79C00002062
:102A90000C01002000070002F8B51D4D1D4800265E
:102AA0004FF40077EE6039460068FDF799FE0400A8
:102AB00018D03946FDF797FB6C60AC602681214643
:102AC0002034012020810C602146401C80B220343B
:102AD0001028F7D30822D0210F48FDF747FF20B177
:102AE0000E48F8BD0D48C01EF8BD0420002300901C
:102AF000074A10211846FDF795FF10B10748401C02
:102B0000F8BD00F02BF80028FAD00448801CF8BD6E
:102B1000A80000200C010020300801200A03000258
:102B200008B500200B4E471E00903B460422694624
:102B30003068FDF7B1FF0028F7D100990029F4D0E3
:102B4000D1E900450448FDF7E1FE002CEDD0284610
:102B5000A047EAE7A80000203008012000B589B0AE
:102B600024216846FDF73FFB084800904FF434707D
:102B7000069007A007900020ADF804008020089080
:102B800069460648FEF792F809B000BD212B0008FF
:102B90005377745F5461736B00000000C80000201D
:102BA000F0B4024611F01F034FEA511000D1401E4D
:102BB000D16C1B4C01F0784101432079184400F09E
:102BC0001F0060F3DF61D164216801EBC00302F1F3
:102BD00044015868984201D118461DE04438D56C2C
:102BE000C66C25F0784726F07844BC420AD83C1BD6
:102BF00005F078452C43D464846CA4F144009C42D5
:102C0000EDD108E026F0784325F078429A1A06F0D4
:102C100078431A43C2644430F0BCFDF74EBD000057
:102C2000F00000202DE9F041224E00EB800101EB85
:102C3000C001726802EBC10400EB800101EBC0002F
:102C40003146E769496801EBC00505F128016D6966
:102C50000FC917B1A847206200E0A84720794FF0BC
:102C60000005000608D5FDF7B7FA01463580206952
:102C7000BDE8F04100F0BAB8FDF7AEFA3580FDF7D7
:102C8000ABFAFEF7F9F8E06918B14068FDF7B0FF5C
:102C9000E5612079400707D504F13C00FDF795FE7A
:102CA000A08820F00400A080FEF7F4F8BDE8F04111
:102CB000FDF77EBFB800002072B6FEE72DE9F041B7
:102CC000304D6820304FAC68641C4443214638685E
:102CD000FDF786FDDFF8B4806860E8B32146FDF7B4
:102CE00082FA05F120000024406000600830406056
:102CF0000060083001264060006004EB84006968D1
:102D000000EBC40001EBC0011E488E800C6128302E
:102D10003C31FDF7D2FC641C0F2CEED90026EE618D
:102D2000A86800EB800101EBC000696801EBC000FE
:102D300014491831086004610A68112090800968FC
:102D40002020C880FFF7B0FD4FF480710D46386831
:102D5000FDF746FD040000E011E010D02946FDF724
:102D600042FA08483830046086800020646024609D
:102D7000401C08342028F9D30020BDE8F0814046EB
:102D8000FBE70000B80000200C0100200002000357
:102D90000749096809690F2909D8064A1268002AF3
:102DA00005D1054A52F82130181A42F8210070471F
:102DB000D000002014010020F00701200849096814
:102DC00000290CD0074A1268002A08D109690F2986
:102DD00005D8054A52F82130184442F821007047BE
:102DE000D000002014010020F00701202DE9F0415F
:102DF000334F8846064600EB8600796800EBC60034
:102E000001EBC0043A4606EB86005268A58800EB49
:102E1000C60002EBC000690700F13C0006D5FDF7D3
:102E2000D4FDA08820F00400A0800BE042F208014D
:102E30000D4207D0FDF722FC15F0600F02D02046AE
:102E400000F06CF8A08820F0020040F00100A080A3
:102E50004FF0FF3020650020E065FDF7CFFD184DF5
:102E600018353C386860A088C1061AD504F13C01C9
:102E700005F11800FDF721FCB86800EB800101EBBB
:102E8000C000796801EBC000286006612968A0884D
:102E900088802868E168C160A16B81630120A080FF
:102EA00001E0C00707D04046FDF796F9FFF7CAFDDD
:102EB0000020BDE8F0814046FDF78EF9F8E70000FC
:102EC000B80000200E490D48C8630F490D48C8637B
:102ED0000F490E4808600F480021C0E900110B4956
:102EE0004FF0E020491E41610B4A70211170002112
:102EF00081610721016100207047000095250008CD
:102F0000180100205516000800090120A0860100C4
:102F100010010020F800002023ED00E030B40B4B3E
:102F2000C26C1B68D10E03EBC103816C994209D0BE
:102F30008B6822F0784223F07844224403F07843EF
:102F40001A438A6030BC4430FDF798BBF000002083
:102F50000248002101600A21C18070470001002061
:102F600010B5044601204FF0CA3302E042F8203089
:102F7000401CB0EB910FF9D34FF0CC3010605018DB
:102F8000414940F8CC1D491C4A1CC0E901128A1C69
:102F9000C260CA1C02610A1D42614A1D82618A1D0B
:102FA000C261CA1D0262521C4262521C8262521CE1
:102FB000C262521C0263521C4263521C8263521C46
:102FC000C2634FF0043202644FF0053242644FF0A6
:102FD000063282644FF00732C2644FF00832026555
:102FE0004FF0093242654FF0103282654FF01132D6
:102FF000C26500224FF001330266C0E919435B004D
:10300000C3664FF0033303674FF0123343671F4B20
:1030100083671F4BC3674FF08073C0F880304FF059
:103020002A43C0F884305B1CC0F888305B1CC0F8B1
:103030008C305B1CC0F890305B1CC0F894305B1C7B
:10304000C0F898305B1CC0F89C305B1CC0F8A03006
:103050005B1CC0F8A4305B1CC0F8A830CB1FC0F8C4
:10306000AC308B1FC0F8B0304B1FC0F8B4300B1F12
:10307000C0F8B830CB1EC0F8BC308B1EC0F8C030D2
:10308000C0E9312110BD0000100000AAB92C0008D1
:10309000252C000810B5FDF715FF02490020087027
:1030A00010BD00001400002050000000510000007E
:1030B0005200000053000000D8300008000000203B
:1030C0001805000020020008003100081805002043
:1030D000E80B010080240008412D010203040405CF
:1030E000FF06070809D113B5010C100819250401C2
:1030F00010A9180B14CD102401FF01FF01FF01B32B
:040000050800019955
:00000001FF
